:020000040000FA
:100000000C945C010C948D010C948D010C948D0169
:100010000C948D010C948D010C948D010C948D0128
:100020000C948D010C948D010C948D010C948D0118
:100030000C948D010C948D010C948D010C948D0108
:100040000C948D010C948D010C948D010C948D01F8
:100050000C948D010C948D010C948D010C94B71FA0
:100060000C948D010C948B200C9461200C948D01C8
:100070000C948D010C948D010C948D010C948D01C8
:100080000C948D010C948D010C948D010C948D01B8
:100090000C942B200C9401200C948D010C948D0158
:1000A0000C948D010C948D010C948D010C948D0198
:1000B0000C948D010C948D010C948D010C948D0188
:1000C0000C948D010C948D010C948D010C948D0178
:1000D0000C948D010C948D010C948D010C948D0168
:1000E0000C948D010C94F7010C94812F0C940C024C
:1000F0000C9420050C9438020C942A020C940902EA
:100100000C9457090C9412020C943C020C94E525B3
:100110000C94EE310C94202B0C948E050C94FD0164
:100120000C9437020C9420020C949C050C9424022D
:100130000C942E020C9432020C94C1200C94A32730
:100140000C94E2280C948F300C949A270C949A0209
:100150000C9405020C9401020C9480250C94690205
:100160000C9416020C94F3040C942F050C94A627FF
:100170000C94DE050C94662C0C946A2A0C94E4040E
:100180000C941C020C94A9270C9478060C94DA02A7
:100190000C942B0600002100240027002A002D00CB
:1001A0003000330001010000040107010A010000D2
:1001B0002200250028002B002E003100340002010F
:1001C0000000050108010B010000200023002600AB
:1001D00029002C002F00320000010000030106015D
:1001E00009010505050507050808080802020202BD
:1001F0000A0A0808040404040101010101010101C3
:100200000303030303030303040707070C0C0C0C8D
:100210000C0C0C0C02020202060606060606060676
:100220000B0B0B0B0B0B0B0B010210202008081003
:100230002040102040800201020108040201010256
:10024000040810204080804020100804020180042F
:10025000020180402010080402010804020101028A
:100260000408102040800102040810204080000093
:100270000A0B02090C0D0E08070304010000000020
:10028000000000000000000000000000000000006E
:10029000000000000000000000001211100000002B
:1002A000000000000000000000000000000000004E
:1002B00000000000C120EE3111241FBECFEFD1E2BB
:1002C000DEBFCDBF00E00CBF22E1A6E2B0E101C07D
:1002D0001D92AE38B207E1F710E1A0E0B2E0E0E332
:1002E000F9E600E00BBF02C007900D92A632B107FD
:1002F000D9F711E0CBE5D1E000E006C02197010974
:10030000802FFE010E945F32CA35D10780E00807C6
:10031000A9F70E9446220C9486340C940000FC013C
:10032000A089B18982E08C93A485B5851C92A685AD
:10033000B7858FEC8C93108EA489B58986E08C9359
:10034000A289B3898C9180618C93A289B3898C91A5
:1003500088608C93A289B3898C9180688C93028881
:10036000F389E02D80818F7D8083089596E0899FB9
:10037000D0011124A156BE4E90967C936E935F9748
:1003800091E091969C939197E0910C12F0910D124F
:1003900090910B12992339F0309751F0811108C0D8
:1003A0008091BB111994309719F05C968C91FACF1B
:1003B00008958150823108F05AC0E82FF0E0882774
:1003C000EB51FE4F8F4F0C945F3205020902F7018B
:1003D000FD01010237020C02120216021C02200269
:1003E00024022A022E023702320238023C02809195
:1003F00080008F77809380000895809180008F7DAA
:10040000F9CF80918000877FF5CF84B58F7784BD49
:10041000089584B58F7DFBCF8091B0008F77809356
:10042000B00008958091B0008F7DF9CF8091900049
:100430008F77809390000895809190008F7DF9CF01
:1004400080919000877FF5CF8091A0008F77809377
:10045000A00008958091A0008F7DF9CF8091A00029
:10046000877FF5CF809120018F77809320010895B9
:10047000809120018F7DF9CF80912001877FF5CF7A
:10048000CF93DF93282F30E0F901E259FD4F84919B
:10049000F901E85DFD4FD491F901EE51FE4FC49191
:1004A000CC23A1F081110E94D901EC2FF0E0EE0FD6
:1004B000FF1FE853FE4FA591B491EC91ED2381E02D
:1004C00090E009F480E0DF91CF91089580E090E022
:1004D000FACF862F0C9440021F93CF93DF93282FDF
:1004E00030E0F901E259FD4F8491F901E85DFD4FDB
:1004F000D491F901EE51FE4FC491CC23A9F0162FEF
:1005000081110E94D901EC2FF0E0EE0FFF1FE255A0
:10051000FE4FA591B4918FB7F894EC91111108C0DA
:10052000D095DE23DC938FBFDF91CF911F9108958B
:10053000DE2BF8CF862F642F0C946C02CF93DF93C1
:1005400090E0FC01E85DFD4F24918E519E4FFC012F
:1005500084918823C9F090E0880F991FFC01EC5624
:10056000FE4FA591B491FC01E255FE4FC591D49187
:1005700061110DC09FB7F8948C91209582238C93C4
:100580008881282328839FBFDF91CF91089562300F
:1005900051F49FB7F8943C91822F809583238C93DC
:1005A000E8812E2BEFCF8FB7F894EC912E2B2C9364
:1005B0008FBFEACF862F642F0C949E023FB7F8942A
:1005C0008091611090916210A0916310B0916410BD
:1005D00026B5A89B05C02F3F19F00196A11DB11D9E
:1005E0003FBFBA2FA92F982F8827BC01CD01620FDA
:1005F000711D811D911D42E0660F771F881F991F95
:100600004A95D1F708958F929F92AF92BF92CF9261
:10061000DF92EF92FF924B015C010E94DE026B01C0
:100620007C010E94DE026C197D098E099F09683EDB
:10063000734081059105A8F321E0821A9108A10871
:10064000B10888EEC80E83E0D81EE11CF11C8114AD
:100650009104A104B10429F7FF90EF90DF90CF90AF
:10066000BF90AF909F908F9008952FB7F8946091AE
:100670005D1070915E1080915F10909160102FBF9F
:1006800008950F931F93CF93DF93C82FD62F86E043
:10069000C89FF0011124E156FE4E11A2878D90A152
:1006A00081309105F1F058F082309105F1F1039716
:1006B00009F440C0DF91CF911F910F9108956623F7
:1006C000C9F361E070E08C2F0E94B6010E943503EF
:1006D0006093F7117093F8118093F9119093FA11C8
:1006E000E9CF0E9435030091F7111091F811209184
:1006F000F9113091FA11AB01BC01401B510B620B97
:10070000730B8091091290910A12B0E0A0E0841757
:100710009507A607B70748F462E070E08C2FDF91D9
:10072000CF911F910F910C94B60163E070E0D1114D
:10073000C1CFF4CF70E060E0F1CF6F927F928F92E3
:100740009F92AF92BF92CF92DF92EF92FF920F9360
:100750001F93CF93DF9381E080930B120E943503A8
:100760000091FB111091FC112091FD113091FE11AF
:10077000AB01BC01401B510B620B730B8091071244
:1007800090910812B0E0A0E084179507A607B7077C
:1007900008F014C1C0E080910512C81760F4E09120
:1007A0000112F0910212EC0FF11D62E080810E94B3
:1007B0009E02CF5FF0CF712C812C912C5401839439
:1007C00080910612781608F05FC0072D10E0E091C6
:1007D0000312F0910412E00FF11F61E080810E948A
:1007E0009E02E0910312F0910412E00FF11F60E00D
:1007F00080810E946C02D501C401072C04C0880FBF
:10080000991FAA1FBB1F0A94D2F76C017C01E094C8
:10081000F094612C809105126816F8F4C62DD0E092
:10082000E0910112F0910212EC0FFD1F80810E94F5
:1008300040022496CC0FDD1FC156DE4E892B41F4B9
:10084000888199818C299D29998388836394E2CF3B
:10085000888199818E219F21F7CFE0910312F09139
:100860000412E00FF11F61E080810E946C02809110
:10087000031290910412080F191F60E0F8018081A3
:100880000E949E0273949CCFCFE9D1E1FE018FEFCD
:100890009FEF278D30A1232B21F4148E968F858F07
:1008A00011A2369621E1EB3DF20799F7F12C96E083
:1008B000D92E80910512F81608F050C0E12C0F2DAA
:1008C00010E0000F111F09551E4E20910612E2166E
:1008D00008F042C0F801608171810E2C02C076954B
:1008E00067950A94E2F7F29E900111242E0D311DB6
:1008F000EFE9F1E180E0458D568D2417350709F4C5
:1009000061C08F5F36968A30B1F760FF23C0EFE990
:10091000F1E190E080E0448D411117C0E091FF11BA
:10092000F0910012E20FF31F4081D89EF001D99E92
:10093000F00D1124E156FE4E448F368F258F10A204
:10094000178E61E00E94410305C0019636968A30F9
:10095000910509F7E394B9CFF394ABCF10E089A1E7
:100960008111182F2696F1E1CB3DDF07C1F70E94D8
:1009700035036093FB117093FC118093FD119093EC
:10098000FE111123D9F08091C0118823B9F0809114
:10099000BE119091BF11019789F48091BB11DF9135
:1009A000CF911F910F91FF90EF90DF90CF90BF906C
:1009B000AF909F908F907F906F90089510920B1240
:1009C00080E0EDCF6170BECF0895DB0114964D91AC
:1009D0005C9115976D917C91DC01ED91FC91028009
:1009E000F381E02D1994AF92BF92CF92DF92EF92F4
:1009F000FF920F931F93CF93DF936C017B018B01C9
:100A0000040F151FEB015E01AE18BF08C017D10718
:100A100059F06991D601ED91FC910190F081E02DA2
:100A2000C6011995892B79F7C501DF91CF911F91E7
:100A30000F91FF90EF90DF90CF90BF90AF9008950F
:100A4000FC01538D448D252F30E0842F90E0821BD4
:100A5000930B541710F0CF96089501970895FC0159
:100A6000918D828D981761F0A28DAE0FBF2FB11DB1
:100A70005D968C91928D9F5F9F73928F90E0089509
:100A80008FEF9FEF0895CF92DF92EF92FF920F9337
:100A90001F93CF93DF938C01D0E0C0E00E94350319
:100AA00060936D1070936E1080936F109093701020
:100AB00085E690E10E942F0597FF28C00E9435032C
:100AC000C0906D10D0906E10E0906F10F09070108C
:100AD0006C197D098E099F09C0906910D0906A1029
:100AE000E0906B10F0906C106C157D058E059F05E5
:100AF000F8F2CE01DF91CF911F910F91FF90EF900F
:100B0000DF90CF900895C2E0D0E0F3CFF801819359
:100B10008F012197C1F3C1E0D0E0C0CFFC01918DDE
:100B2000828D981731F0828DE80FF11D858D90E050
:100B300008958FEF9FEF0895FC01918D228D892FED
:100B400090E0805C9F4F821B91098F7399270895D5
:100B500085E690E10E949C0521E0892B09F420E0C4
:100B6000822F089582E091E10E949C0521E0892B6B
:100B700009F420E0822F0895FC01A48DA80FB92F5D
:100B8000B11DA35ABF4F2C91848D90E001968F73B5
:100B90009927848FA689B7892C93A089B1898C91D4
:100BA000837080648C93938D848D981306C0028823
:100BB000F389E02D80818F7D80830895EF92FF92ED
:100BC0000F931F93CF93DF93EC0181E0888F9B8D70
:100BD0008C8D98131AC0E889F989808185FF15C02A
:100BE0009FB7F894EE89FF896083E889F98980814D
:100BF0008370806480839FBF81E090E0DF91CF911C
:100C00001F910F91FF90EF900895F62E0B8D10E03D
:100C10000F5F1F4F0F731127E02E8C8D8E110CC0AC
:100C20000FB607FCFACFE889F989808185FFF5CFF7
:100C3000CE010E94BC05F1CFEB8DEC0FFD2FF11D15
:100C4000E35AFF4FF0829FB7F8940B8FEA89FB8934
:100C500080818062CFCFCF93DF93EC01888D882392
:100C6000B9F0AA89BB89E889F9898C9185FD03C00F
:100C7000808186FD0DC00FB607FCF7CF8C9185FFF4
:100C8000F2CF808185FFEDCFCE010E94BC05E9CF78
:100C9000DF91CF91089580E090E0892B29F00E94A8
:100CA000B20581110E94000080E090E0892B29F0BC
:100CB0000E94A80581110E94000080E090E0892B2D
:100CC00049F080E090E0892B29F00E94000081111A
:100CD0000E94000080E090E0892B49F080E090E0E5
:100CE000892B29F00E94000081110C9400000895C6
:100CF00090E080E00895CF92DF92EF92FF92CF9341
:100D0000DF930E943503EB010E9435030E943503F7
:100D10006B0185E690E10E949C05892B29F085E610
:100D200090E10E942F05F5CFCC1ADD0A88EEC81697
:100D300083E0D8065CF385E690E10E949C05892B50
:100D400029F7DF91CF91FF90EF90DF90CF9008953A
:100D5000CF93DF93EC018A8181110AC088810E94C0
:100D60004002019729F481E08A83DF91CF910895B1
:100D70008A81811102C080E0F8CF88810E94400200
:100D8000892BC9F71A82F7CF4F925F926F927F92A9
:100D90008F929F92AF92BF92CF92DF92EF92FF928B
:100DA0000F931F93CF93DF931F921F92CDB7DEB7A0
:100DB0008C0149832A83660F771FF801EA5AFF4F97
:100DC000E080F180EE0CFF1CF801CF01801B910B3D
:100DD0008E159F0514F41192F8CF8981F801E60F62
:100DE000F71F81838A818083680184E5C80ED11C46
:100DF00060E0F60180810E946C025801F2E5AF0EBE
:100E0000B11C480180E5880E911C1E141F040CF5CE
:100E1000E1E0EE1AF108F801EE0DFF1D6080F5012A
:100E20005080F401408088E0782E662D661F66278A
:100E3000661F842D0E946C02660C61E0852D0E9465
:100E40006C0260E0852D0E946C027A947110EDCFE7
:100E5000DCCF61E0F60180810F900F90DF91CF91A0
:100E60001F910F91FF90EF90DF90CF90BF90AF90C8
:100E70009F908F907F906F905F904F900C946C023A
:100E8000EF92FF920F931F93CF937C018C0183E02D
:100E9000000F111F8A95E1F7065D1D4EC1E0F801B4
:100EA00011928F0120E04C2FB7018AE192E10E945C
:100EB000C406CF5FC93099F7CF911F910F91FF9072
:100EC000EF9008959F92AF92BF92CF92DF92EF92F0
:100ED000FF920F931F93CF93DF93CDB7DEB7C0542C
:100EE000D1090FB6F894DEBF0FBECDBFC955DF4F95
:100EF00028813981C75AD040FE01319680E4DF0154
:100F00001D928A95E9F749E1429FC001439F900DE8
:100F10001124875E9D4F8F01BE01675D7F4FAF013A
:100F200030E020E0FA01E20FF31FDC01A20FB31F53
:100F3000AC91A18B2F5F3F4F2530310599F7059676
:100F4000485F5F4F4617570759F7FE01E15BFF4FB8
:100F50007F019924939480E8A82EB12CD12CC12C28
:100F6000CB55DF4F88819981C55AD0401816190694
:100F7000FCF4C5010C2C02C0959587950A94E2F704
:100F8000D70150962C915097F801EC0DFD1D308142
:100F9000332389F1822B50968C93D70150962C9154
:100FA000492D70E060E0CE01815B9F4F0E94C40636
:100FB000BFEFCB1ADB0AE8E0CE16D10489F6FFEFCB
:100FC000EF1AFF0A9394085F1F4F89E09812C6CF6B
:100FD000C05CDF4F0FB6F894DEBF0FBECDBFDF9110
:100FE000CF911F910F91FF90EF90DF90CF90BF9026
:100FF000AF909F90089580958223F701808BCDCF8D
:10100000CF93DF93EC0160E08E810E946C0261E07F
:101010008E810E946C0260E08E810E946C028BE8DF
:1010200091E00197F1F7DF91CF910895CF92DF9290
:10103000EF92FF920F931F93CF93DF936C017C018C
:1010400087E0E80EF11CD0E0C0E0062F10E0B80108
:101050000C2E02C0759567950A94E2F76170F7014E
:1010600081917F010E946C022196C430D10579F7ED
:10107000C601DF91CF911F910F91FF90EF90DF900C
:10108000CF900C940008CF92DF92EF92FF920F93D3
:101090001F93CF93DF93EC01F62E642F8C810E9477
:1010A0006C028D818F3F19F060E00E946C020F2D61
:1010B00010E08F8584FF25C06E0187E0C80ED11C2B
:1010C000F12CE12CB8010E2C02C0759567950A949D
:1010D000E2F76170F60181916F010E946C02FFEFEF
:1010E000EF1AFF0A88E0E816F10461F7CE01DF91FC
:1010F000CF911F910F91FF90EF90DF90CF900C94C4
:101100000008B80184E0759567958A95E1F7CE01EE
:101110000E9416086F2DCE01DF91CF911F910F9184
:10112000FF90EF90DF90CF900C94160840E0682F6E
:1011300082E792E10C94430881E00E9496088BE3D9
:101140009FE10197F1F70895CF93DF93813029F064
:1011500090918112986090938112809385121092E1
:10116000861280E48093871280E18093881280E564
:101170008093891261E0809176120E949E02809194
:1011800077128F3F19F061E00E949E0261E080912A
:1011900078120E949E02C2E7D2E19E01225732419C
:1011A0008091811284FD0BC084E090E02196281785
:1011B000390744F461E08E810E949E02EECF88E000
:1011C00090E0F4CF8BE39DE00197F1F760E0809130
:1011D00076120E946C0260E0809178120E946C028C
:1011E000809177128F3F19F060E00E946C0280912D
:1011F000811284FD34C063E082E792E10E94160808
:10120000CBE4D6E4CE010197F1F763E082E792E107
:101210000E9416082197F1F763E082E792E10E94AD
:10122000160883E592E00197F1F762E082E792E128
:101230000E9416088091811280620E94960884E0C4
:10124000809382128CE00E9496080E949C0882E0A3
:101250008093831286E0DF91CF910C949608806290
:101260000E9496088BE496E40197F1F78091811231
:1012700080620E94960883E592E00197F1F78091E1
:10128000811280620E949608D5CF643008F063E036
:1012900090918512691710F06FEF690FE62FF0E05B
:1012A000EE58FD4E9489890F80680C94960841E0B1
:1012B0000E94430881E090E00895FC01248135817B
:1012C000232B39F421E0FB018081882349F020E0C1
:1012D00007C0808191810E94763421E0892BB9F783
:1012E000822F0895FB0101900020E9F73197AF01AB
:1012F000461B570BDC01ED91FC910280F381E02D40
:1013000019948F929F92AF92BF92EF92FF920F9398
:101310001F93CF93DF93CDB7DEB7A1970FB6F894A5
:10132000DEBF0FBECDBF7C01FA01CB0119A2223076
:1013300008F42AE08E010F5D1F4F822E912CB12CF4
:10134000A12CBF01A50194010E943D32F901CA01FF
:101350006A300CF5605DD8016E938D01232B242B30
:10136000252B79F790E080E0109721F0BD01C701AF
:101370000E947209A1960FB6F894DEBF0FBECDBFD2
:10138000DF91CF911F910F91FF90EF90BF90AF90A1
:101390009F908F900895695CDECFCF92DF92EF929D
:1013A000FF92CF93DF936C01990FEE08FF08F7FED1
:1013B00023C06DE282E091E10E94DE05EC0144274A
:1013C0005527BA014C195D096E097F092AE082E0B0
:1013D00091E10E948109C80FD91F6EE279E082E095
:1013E00091E10E9472098C0F9D1FDF91CF91FF90B8
:1013F000EF90DF90CF9008952AE0B701A60182E038
:1014000091E10E948109EC01E8CF0F931F93CF93E4
:10141000DF93EC010E9472098C016EE279E0CE014B
:101420000E947209800F911FDF91CF911F910F9140
:1014300008950C947209CF93DF93FC010190002072
:10144000E9F73197E81BF90BDC0138E0AD01481BE7
:10145000590B4E175F0734F42D91ED012197232787
:101460002883F4CFDF91CF910895CF93DF93FC01D0
:1014700001900020E9F73197E81BF90BDC0138E017
:10148000AD01481B590B4E175F0734F42D91ED0148
:10149000219723272883F4CFDF91CF910895DC0192
:1014A00014968D919C9115976817790750F4ED91DA
:1014B000FC911197E60FF71F15967C936E93149786
:1014C000108208950F931F93CF93DF938C01EB014C
:1014D000FC01808191810097E1F06881798161153B
:1014E0007105A9F0428153812C813D814217530738
:1014F00070F00E947F348C819D81F80195838483F4
:101500001D821C82DF91CF911F910F9108950E943F
:10151000033388819981F801918380838A819B813B
:10152000938382838C819D81958384831982188221
:101530001B821A82E5CFCF93DF93EC0188819981DA
:10154000009711F00E940333198218821D821C82B9
:101550001B821A82DF91CF910895FC0180819181D5
:10156000009711F00C94033308950F931F93CF93BA
:10157000DF93EC0188819981009759F02A813B81A2
:101580002617370730F081E0DF91CF911F910F913F
:1015900008958B016F5F7F4F0E948C33009759F045
:1015A000998388831B830A832C813D81232B59F7E0
:1015B000FC011082E8CF80E0E7CFEF92FF920F931B
:1015C0001F93CF93DF936115710541F480E0DF91A4
:1015D000CF911F910F91FF90EF9008954115510504
:1015E000B1F07B01EC010C811D81040F151FB801C6
:1015F0000E94B50A882351F3288139818C819D810D
:10160000B701820F931F0E947F341D830C8381E0FA
:10161000DECFCF93DF931F921F92CDB7DEB76983E2
:101620001A8241E050E0BE016F5F7F4F0E94DD0AE9
:101630000F900F90DF91CF910895FB010190002052
:10164000E9F73197AF01461B570B0C94DD0AEF9277
:10165000FF920F931F93CF93DF93EC017B018A01DD
:10166000BA010E94B50A81110BC0CE010E949B0AEB
:10167000CE01DF91CF911F910F91FF90EF900895D0
:101680001D830C83B701888199810E947F34F0CF3C
:10169000FB0101900020E9F73197AF01461B570B82
:1016A0000C94270B0F931F93CF93DF93CDB7DEB727
:1016B00062970FB6F894DEBF0FBECDBF8C01CB0191
:1016C000F8011182108213821282158214824AE07C
:1016D000BE016F5F7F4F0E94F231BE016F5F7F4F8F
:1016E000C8010E94480B62960FB6F894DEBF0FBE89
:1016F000CDBFDF91CF911F910F910895FB01DC01C8
:1017000011961C921E9213961C921E921297159679
:101710001C921E9214978617970749F06081718179
:101720006115710521F0448155810C94270B0895B2
:10173000FC01118210821382128215821482FB0135
:1017400001900020E9F73197AF01461B570B0C942D
:10175000270B7F928F929F92AF92BF92CF92DF9290
:10176000EF92FF920F931F93CF93DF9300D000D09F
:1017700000D0CDB7DEB78C010E949C0860E080E00D
:101780000E94450961E379E082E792E10E94190A2B
:101790006CE271E080E090E00E94030361E080E091
:1017A0000E9445096AE379E082E792E10E94190A02
:1017B0006CE271E080E090E00E94030362E080E070
:1017C0000E94450968E479E082E792E10E94190AE3
:1017D0006CE271E080E090E00E94030363E080E04F
:1017E0000E94450962E579E082E792E10E94190AC8
:1017F00060E379E0CE0101960E94980B88248394DF
:10180000EE24E394F12C93E0C92ED12C22E0A22EF9
:10181000B12C0E949D038823B1F02D813E8122309E
:10182000310508F046C0682FCE0101960E94090BD1
:1018300063E08CE00E944509BE016F5F7F4F82E745
:1018400092E10E94E50481E192E10E94A806982EAF
:10185000882309F482C06FE679E0CE0101960E94E8
:101860005D09882309F4C4C080923F101092401093
:101870000E947B060E949C0861E779E082E792E182
:101880000E94190A61E080E00E94450962E879E05F
:1018900082E792E10E94190A712C85E690E10E948C
:1018A0009C05892B59F1CE0107960E944305792C9E
:1018B000F4CF63E08CE00E9445096AE579E082E7B5
:1018C00092E10E94190A63E08CE00E9445096BE6F0
:1018D00079E082E792E10E94190A68EE73E080E005
:1018E00090E00E94030363E08CE00E9445096AE5F2
:1018F00079E082E792E10E94190A9ACF772069F293
:1019000085E690E10E949C05892B39F60E947B06B2
:101910000E949C0863E979E082E792E10E94190A3B
:1019200068EE73E080E090E00E9403030E949C0850
:1019300067EA79E082E091E10E94050A0130110531
:1019400009F44CC00230110509F44DC00115110510
:1019500021F4B0925B10A0925A108EE092E10E94A6
:10196000A806882301F16D817E8161157105D9F08A
:1019700061507109CE0101960E944F0A63E08CE02C
:101980000E9445096AE579E082E792E10E94190A1E
:1019900063E08CE00E944509BE016F5F7F4F82E7E4
:1019A00092E10E94E504992009F433CFCE0101961B
:1019B0000E94AD0A29960FB6F894DEBF0FBECDBFC8
:1019C000DF91CF911F910F91FF90EF90DF90CF901B
:1019D000BF90AF909F908F907F900895D0925B10B2
:1019E000C0925A10BACFF0925B10E0925A10B5CF65
:1019F0006BEB79E0CE0101960E945D098823B1F27C
:101A000010923F108092401099CF4F925F926F9248
:101A10007F92AF92BF92CF92DF92FF920F931F936C
:101A2000CF93DF9300D0CDB7DEB76C015B013A01F5
:101A30000E947B06B50185E690E10E94050AF12C23
:101A400085E690E10E949C05892B39F0CE01019634
:101A50000E944305FF24F394F3CFFF2089F385E62A
:101A600090E10E949C058C01892B51F7E6E2F0E1A0
:101A70008BE0DF011D928A95E9F70E949C08B30173
:101A800082E792E10E94190A61E080E00E94450924
:101A90006DEB79E082E792E10E94190AB50182E7D5
:101AA00092E10E94190A68E379E082E792E10E94DC
:101AB000190A60E379E082E792E10E94050A62E098
:101AC00080E00E9445090E9435032B013C010E94E1
:101AD00035030E947B06B12C85E690E10E949C05AF
:101AE000892BA9F085E690E10E942F055801BFEFF0
:101AF000AB1ABB0AF801EA5DFF4E808366E270E133
:101B000082E091E10E94050A8501BF2CE5CFBB2050
:101B100041F10E9435036419750986099709643FEC
:101B2000714081059105C4F261EC79E082E091E1B8
:101B30000E94190A66E270E1C6010E94980BC60174
:101B40000F900F900F90DF91CF911F910F91FF9009
:101B5000DF90CF90BF90AF907F906F905F904F904D
:101B600008950E9435032B013C010E943503B4CF38
:101B70000F931F93CF93DF93CDB7DEB72C970FB69C
:101B8000F894DEBF0FBECDBF8C01CE0107960E9438
:101B9000520B6BED79E0CE0101960E94980BF80193
:101BA0004481558160817181CE0101960E94DD0AD8
:101BB000811104C0CE0101960E949B0A4B855C8571
:101BC0006F817885CE0101960E94DD0A811104C0E3
:101BD000CE0101960E949B0ABE016F5F7F4F85E692
:101BE00090E10E94E5046EE279E085E690E10E94D2
:101BF0007209CE0101960E94AD0ACE0107960E949D
:101C0000AD0A10E085E690E10E949C05892B31F039
:101C1000CE0101960E94430511E0F4CF112391F308
:101C200085E690E10E949C05892B61F768EB7BE0DB
:101C300080E090E00E9403032C960FB6F894DEBF7C
:101C40000FBECDBFDF91CF911F910F9108950F93DC
:101C50001F93CF93DF938C01EB010E94273288837F
:101C6000C80101960E9427328983CE01DF91CF916E
:101C70001F910F910895CF93DF931F921F92CDB7BD
:101C8000DEB7BE016F5F7F4F8DE990E00E94270EA7
:101C900089819A810F900F90DF91CF910895CF9312
:101CA000DF931F921F92CDB7DEB7BE016F5F7F4FEC
:101CB0008DE597E00E94270E89819A810F900F9001
:101CC000DF91CF910895AF92BF92CF92DF92EF92C2
:101CD000FF920F931F93CF93DF931F921F92CDB765
:101CE000DEB78C016B0177FF19C065EE79E082E009
:101CF00091E10E94050A83E1F80111928A95E9F7C2
:101D0000C8010F900F90DF91CF911F910F91FF901D
:101D1000EF90DF90CF90BF90AF900895BE016F5FBE
:101D20007F4F90E080E00E94270E89819A81C8163B
:101D3000D906DCF683E18C9D70018D9DF00C112499
:101D40005801F3E1AF0EB11C6801E01AF10AC701B6
:101D500004967C01C7018C0D9D1D0E942732F6015F
:101D600081936F01EA15FB05A9F7CACFCF92DF92E5
:101D7000EF92FF920F931F93CF93DF93EC017B01C0
:101D800077FF15C065EE79E082E091E10E94050AD7
:101D900083E2FE0111928A95E9F7CE01DF91CF919E
:101DA0001F910F91FF90EF90DF90CF9008950E94C8
:101DB0003B0EE816F90634F783E28E9D80018F9D75
:101DC000100D11247E01F3E2EF0EF11C6E010C1BCD
:101DD0001D0B0F551F4FC8018C0D9D1D0E942732F2
:101DE000F60181936F01EE15FF05A9F7D6CF8F920B
:101DF0009F92AF92BF92DF92EF92FF920F931F9349
:101E0000CF93DF93CDB7DEB7AF970FB6F894DEBFB1
:101E10000FBECDBF7C015B014A0110E000E00E94D3
:101E20003B0E081719070CF04AC0B801CE01019605
:101E30000E94B60EB401CE018A960E947E0BB501B7
:101E4000CE0184960E947E0B6CA17DA1CE010196ED
:101E50000E947634892B51F46AA57BA5CE01459664
:101E60000E947634DD24D394892B09F0D12CCE0145
:101E700084960E94AD0ACE018A960E94AD0ADD20AA
:101E8000D9F083E2FE013196D70101900D928A9537
:101E9000E1F7C701AF960FB6F894DEBF0FBECDBF16
:101EA000DF91CF911F910F91FF90EF90DF90BF9046
:101EB000AF909F908F9008950F5F1F4FB0CF83E238
:101EC000F70111928A95E9F7E4CFCF92DF92EF9272
:101ED000FF920F931F93CF93DF93EC017B0177FF6A
:101EE00015C065EE79E082E091E10E94050A81E18A
:101EF000FE0111928A95E9F7CE01DF91CF911F91F2
:101F00000F91FF90EF90DF90CF9008950E944F0EB9
:101F1000E816F90634F781E18E9D80018F9D100D42
:101F200011247E01F1E1EF0EF11C6E010C1B1D0B63
:101F30000F59184FC8018C0D9D1D0E942732F601C4
:101F400081936F01EE15FF05A9F7D6CFEF92FF92AF
:101F50000F931F93CF93DF93CDB7DEB761970FB683
:101F6000F894DEBF0FBECDBF10E000E0F12CE12CF5
:101F70000E944F0E0817190774F4B801CE0101969C
:101F80000E94650F8B81882319F08FEFE81AF80AF9
:101F90000F5F1F4FEDCFC70161960FB6F894DEBFFC
:101FA0000FBECDBFDF91CF911F910F91FF90EF90AA
:101FB00008950F931F93CF93DF93CDB7DEB761974B
:101FC0000FB6F894DEBF0FBECDBF10E000E00E9458
:101FD0004F0E081719074CF5B801CE0101960E9463
:101FE000650F69EF79E082E091E10E94190A898129
:101FF0009A810E94CD0960E07AE082E091E10E943E
:10200000190A8B8190E00E94CD0969E07AE082E0B4
:1020100091E10E94190ABE016C5F7F4F82E091E15D
:102020000E94050A0F5F1F4FD2CF61960FB6F8943A
:10203000DEBF0FBECDBFDF91CF911F910F910895ED
:10204000FF920F931F93CF93DF93EC01F62E08813D
:102050001981C8010E942732F81621F06F2DC8019E
:102060000E942F32CE01DF91CF911F910F91FF90EF
:102070000895AF92BF92CF92DF92EF92FF920F93AB
:102080001F93CF93DF931F921F92CDB7DEB78B01C3
:102090006B0123E2C20ED11C7B015C01A61AB70AB8
:1020A000C5018E0D9F1D9A838983F70161917F0180
:1020B000CE0101960E942010EC14FD0489F7C8019E
:1020C0000F900F90DF91CF911F910F91FF90EF90A4
:1020D000DF90CF90BF90AF900895EF92FF920F9353
:1020E0001F93CF93DF931F921F92CDB7DEB78C0162
:1020F0007B019A838983FB016081CE0101960E9456
:1021000020100F5F1F4F1A830983F7016181CE01F1
:1021100001960E942010C7010F900F90DF91CF9180
:102120001F910F91FF90EF900895CF93DF9300D010
:102130001F92CDB7DEB70E943B0E8F3F2FE0920774
:102140006CF068E17AE082E091E10E94050A0F906C
:102150000F900F900F90DF91CF91089501969A8381
:102160008983BE016F5F7F4F8DE990E00E946D1003
:10217000BE016D5F7F4F8FE990E00E94270E8B813B
:102180009C819BA78AA7BE016D5F7F4F8FE990E07E
:102190000E94270EBE01665F7F4F8B819C810E944B
:1021A00039108AA59BA583969C838B83BE016D5FA6
:1021B0007F4F8FE990E00E946D10C9CF2F923F9220
:1021C0004F925F926F927F929F92AF92BF92CF9207
:1021D000DF92EF92FF920F931F93CF93DF93CDB7D0
:1021E000DEB7C056D1090FB6F894DEBF0FBECDBF23
:1021F0002DB73EB7A1963FAF2EAFA1970E949C0886
:10220000809140108823B9F080913F10811113C054
:1022100060E00E94450964E27AE082E792E10E9470
:10222000190A61E080E00E94450961E37AE082E7F3
:1022300092E10E94190A60E379E0CE018D5A9F4F26
:102240000E94980BF12C0EE110E0E0903F1080917D
:102250004010882309F4DFC0E11055C080913D1083
:1022600090913E10FC0145E0EE0FFF1F4A95E1F70B
:10227000EA5DFA4F20E2DE01119601900D922A9557
:10228000E1F79F938F938DB79EB7885591090FB64D
:10229000F8949EBF0FBE8DBFADB7BEB7119688E54F
:1022A000EAE1F2E101900D928A95E1F70E9462075E
:1022B000EDB7FEB7E65AFF4F0FB6F894FEBF0FBE5C
:1022C000EDBF0E949D038823F1F08A330CF04DC0CE
:1022D00081330CF074C0833209F45BC0803309F49D
:1022E00065C069968EAD9FAD699762E00D9708F065
:1022F0006DC080E00E944509BE016D5A7F4F82E7A4
:1023000092E10E94E50481E192E10E94A806811118
:10231000A8C08EE092E10E94A806882309F495CF18
:1023200069966EAD7FAD69976115710509F48DCF22
:1023300061507109CE018D5A9F4F0E944F0A62E091
:1023400080E00E9445096AE579E082E792E10E9417
:10235000190A62E080E00E944509BE016D5A7F4F74
:1023600082E792E10E94E50470CF883509F0B9CF89
:1023700080913D1090913E10019797FD05C090937C
:102380003E1080933D10ADCF10933E1000933D1052
:10239000A8CF80913D1090913E1001968F3191050C
:1023A00070F310923E1010923D109BCFBE016F5FF4
:1023B0007F4FCE018D5A9F4F0E941D0B92CF682FE9
:1023C000CE018D5A9F4F0E94090B8BCF80E00E9457
:1023D000450961E679E082E792E10E94190A62E02C
:1023E00080E00E9445096BE679E082E792E10E9475
:1023F000190A68EE73E080E090E00E94030362E057
:1024000080E00E94450961E679E082E792E10E945E
:10241000190A62E06ECFEE2009F475CFF11073CF88
:102420004AE35AE063E47AE0CE0101960E94050D8A
:10243000BE016F5F7F4FCE018D5A9F4F0E94620A8F
:10244000CE0101960E94AD0A63E080E00E9445093A
:10245000BE016D5A7F4F82E792E10E94E504FE2C97
:1024600052CF0E949C08809140108823B9F080913F
:102470003F10811113C060E00E94450964E27AE0D8
:1024800082E792E10E94190A61E080E00E9445091A
:102490006AE47AE082E792E10E94190A60E379E057
:1024A000CE01875A9F4F0E94980BF12C0EE110E04D
:1024B000E0903F1080914010882309F4DFC0E110C4
:1024C00055C080913D1090913E10FC0135E0EE0F1B
:1024D000FF1F3A95E1F7EA5DFA4F20E2DE0111961F
:1024E00001900D922A95E1F79F938F932DB73EB7F8
:1024F000285531090FB6F8943EBF0FBE2DBFADB7BA
:10250000BEB7119688E5EAE1F2E101900D928A9555
:10251000E1F70E9462078DB79EB7865A9F4F0FB6AC
:10252000F8949EBF0FBE8DBF0E949D038823F1F0DB
:102530008A330CF04DC081330CF074C0833209F43F
:102540005BC0803309F465C06F968EAD9FAD6F9709
:1025500062E0099708F06DC080E00E944509BE0165
:10256000675A7F4F82E792E10E94E50481E192E1A0
:102570000E94A8068111A8C08EE092E10E94A806E0
:10258000882309F495CF6F966EAD7FAD6F97611577
:10259000710509F48DCF61507109CE01875A9F4FA3
:1025A0000E944F0A62E080E00E9445096AE579E0F6
:1025B00082E792E10E94190A62E080E00E944509E8
:1025C000BE01675A7F4F82E792E10E94E50470CF17
:1025D000883509F0B9CF80913D1090913E10019758
:1025E00097FD05C090933E1080933D10ADCF1093A2
:1025F0003E1000933D10A8CF80913D1090913E1069
:1026000001968F31910570F310923E1010923D109B
:102610009BCFBE016F5F7F4FCE01875A9F4F0E94B5
:102620001D0B92CF682FCE01875A9F4F0E94090B36
:102630008BCF80E00E94450961E679E082E792E174
:102640000E94190A62E080E00E9445096BE679E089
:1026500082E792E10E94190A68EE73E080E090E060
:102660000E94030362E080E00E94450961E679E090
:1026700082E792E10E94190A62E06ECFEE2009F42F
:1026800075CFF11073CF4AE35AE064E57AE0CE01EA
:1026900001960E94050DBE016F5F7F4FCE01875AE4
:1026A0009F4F0E94620ACE0101960E94AD0A63E02C
:1026B00080E00E944509BE01675A7F4F82E792E1A0
:1026C0000E94E504FE2C52CF0E949C08809140108D
:1026D0008823B9F080913F10811113C060E00E94FF
:1026E000450964E27AE082E792E10E94190A61E01A
:1026F00080E00E9445096CE57AE082E792E10E9461
:10270000190A60E379E0CE01895B9F4F0E94980B24
:10271000F12C0EE110E0E0903F10809140108823F2
:1027200009F4E0C0E11055C080913D1090913E1039
:10273000FC0125E0EE0FFF1F2A95E1F7EA5DFA4F55
:1027400020E2DE01119601900D922A95E1F79F9308
:102750008F93EDB7FEB7E855F1090FB6F894FEBFB9
:102760000FBEEDBFADB7BEB7119688E5EAE1F2E165
:1027700001900D928A95E1F70E9462072DB73EB74E
:10278000265A3F4F0FB6F8943EBF0FBE2DBF0E9492
:102790009D038823F1F08A330CF04EC081330CF096
:1027A00075C0833209F45CC0803309F466C02D968D
:1027B0008EAD9FAD2D9762E00D9708F06EC080E062
:1027C0000E944509BE01695B7F4F82E792E10E944A
:1027D000E50481E192E10E94A806982E8111A8C02B
:1027E0008EE092E10E94A806882309F494CF2D96EA
:1027F0006EAD7FAD2D976115710509F48CCF6150D9
:102800007109CE01895B9F4F0E944F0A62E080E010
:102810000E9445096AE579E082E792E10E94190A7F
:1028200062E080E00E944509BE01695B7F4F82E75C
:1028300092E10E94E5046FCF883509F0B8CF80910E
:102840003D1090913E10019797FD05C090933E106A
:1028500080933D10ACCF10933E1000933D10A7CF56
:1028600080913D1090913E1001968F31910570F34B
:1028700010923E1010923D109ACFBE016F5F7F4FB5
:10288000CE01895B9F4F0E941D0B91CF682FCE0117
:10289000895B9F4F0E94090B8ACF80E00E94450907
:1028A00061E679E082E792E10E94190A62E080E045
:1028B0000E9445096BE679E082E792E10E94190ADD
:1028C00068EE73E080E090E00E94030362E080E045
:1028D0000E94450961E679E082E792E10E94190AC7
:1028E00062E06DCFEE2009F474CFF11072CF4AE3AD
:1028F0005AE06AE67AE0CE0101960E94050DBE011B
:102900006F5F7F4FCE01895B9F4F0E94620ACE01AD
:1029100001960E94AD0A63E080E00E944509BE0175
:10292000695B7F4F82E792E10E94E504FE2C51CF64
:102930000E949C082E0134E2430E511C83E2F201F6
:1029400011928A95E9F765966EAD7FAD6597FB01AB
:1029500001900020E9F7CF012DB63EB6861B970BFC
:102960002DB73EB7281B390B0FB6F8943EBF0FBEEC
:102970002DBF0DB71EB70F5F1F4FC8010E947F34D8
:10298000C8010E94350A6B966EAD7FAD6B97FB0157
:1029900001900020E9F7CF01861B970B2DB73EB7BA
:1029A000281B390B0FB6F8943EBF0FBE2DBF8DB755
:1029B0009EB701966C010E947F34C6010E94350AC1
:1029C00029966EAD7FAD2997FB0101900020E9F7B4
:1029D000CF01861B970B2DB73EB7281B390B0FB6BF
:1029E000F8943EBF0FBE2DBF8DB79EB701967C01F8
:1029F0000E947F34C7010E94350AB801C2010E94BB
:102A00007F34B601CE01C0960E947F34B701CE015B
:102A1000C8960E947F343E019DE4690E711CB80186
:102A2000C3010E94980BB12CA12C0E943B0EA8164A
:102A3000B9060CF0FAC0B501CE0101960E94B60E9F
:102A40002F966EAD7FAD2F97CE0101960E94763402
:102A5000892B09F0E6C0B92CC3010E94AD0ABB2046
:102A6000E1F00E949C0860E080E00E94450963E775
:102A70007AE082E792E10E94190A61E080E00E9418
:102A8000450961E87AE082E792E10E94190A60ED67
:102A900077E080E090E00E940303F80101900020BD
:102AA000E9F7CF01801B910B0997059738F10E9438
:102AB0009C0860E080E00E9445096BE87AE082E7CC
:102AC00092E10E94190A61E080E00E94450965E9EF
:102AD0007AE082E792E10E94190A62E080E00E94B7
:102AE00045096BEA7AE082E792E10E94190A60EDFB
:102AF00077E080E090E00E940303B92CF60101909A
:102B00000020E9F7CF0109978C159D05E9F00E9497
:102B10009C0860E080E00E9445096EEB7AE082E765
:102B200092E10E94190A61E080E00E9445096AE989
:102B30007AE082E792E10E94190A60ED77E080E096
:102B400090E00E940303B92CF70101900020E9F7FF
:102B5000CF018E199F090997059708F468C00E9454
:102B60009C0860E080E00E9445096DEC7AE082E715
:102B700092E10E94190A61E080E00E94450965E93E
:102B80007AE082E792E10E94190A62E080E00E9406
:102B900045096BEA7AE082E792E10E94190A60ED4A
:102BA00077E080E090E00E94030381E090E0909362
:102BB0005B1080935A100FB6F8943EBE0FBE2DBE28
:102BC000CE01895B9F4F0E94AD0ACE01875A9F4F6D
:102BD0000E94AD0ACE018D5A9F4F0E94AD0AA19668
:102BE000EEADFFADA1970FB6F894FEBF0FBEEDBFDF
:102BF000C05ADF4F0FB6F894DEBF0FBECDBFDF91D6
:102C0000CF911F910F91FF90EF90DF90CF90BF90E9
:102C1000AF909F907F906F905F904F903F902F90DC
:102C20000895EFEFAE1ABE0A00CFB12C15CFB11048
:102C3000BCCF6CED7AE082E091E10E94050A8091C0
:102C400056109091571001969093571080935610FC
:102C50000E94CD0927961FAE2797B801C2010E9496
:102C60007F34B601CE01C0960E947F34B701CE01F9
:102C7000C8960E947F346DEE7AE082E091E10E9476
:102C8000190A0E949C0861E080E00E94450968EEF4
:102C900073E080E090E00E9403032DB73EB723521B
:102CA00031090FB6F8943EBF0FBE2DBFADB7BEB70A
:102CB000119683E2F20101900D928A95E1F70E944C
:102CC00095108DB79EB783960FB6F8949EBF0FBE32
:102CD0008DBF62E07BE082E091E10E94190A0E94D0
:102CE0003B0E0E94CD0961CFAF92BF92CF92DF928F
:102CF000EF92FF920F931F93CF93DF931F921F9238
:102D0000CDB7DEB78B016B0121E1C20ED11C7B0177
:102D10005C01A61AB70AC5018E0D9F1D9A8389838F
:102D2000F70161917F01CE0101960E942010EC1401
:102D3000FD0489F7C8010F900F90DF91CF911F918B
:102D40000F91FF90EF90DF90CF90BF90AF900895DC
:102D50008F929F92BF92CF92DF92EF92FF920F934A
:102D60001F93CF93DF93CDB7DEB761970FB6F8947B
:102D7000DEBF0FBECDBF6C01B62E4A010E944F0EC2
:102D80007C0110E000E00E151F0574F5B801CE01BE
:102D900001960E94650F89819A818C159D0509F520
:102DA000BB82F40160817181CE0104960E947F3460
:102DB000BE016F5F7F4F888999890E947416619662
:102DC0000FB6F894DEBF0FBECDBFDF91CF911F913C
:102DD0000F91FF90EF90DF90CF90BF909F908F90DA
:102DE00008950F5F1F4FCFCF67E17BE082E091E155
:102DF0000E94050AE4CF8F929F92AF92BF92CF922A
:102E0000DF92EF92FF920F931F93CF93DF93CDB793
:102E1000DEB765970FB6F894DEBF0FBECDBF8D82CB
:102E20009E82AF82B886C986DA86EB86FC860D87DD
:102E30001E872F87388B498B5A8B6B8B7C8B8D8BA6
:102E40000E944F0E89309105CCF063E37BE082E075
:102E500091E10E94050A65960FB6F894DEBF0FBE99
:102E6000CDBFDF91CF911F910F91FF90EF90DF9039
:102E7000CF90BF90AF909F908F90089501969A83C6
:102E80008983BE016F5F7F4F8DE597E00E946D10D3
:102E9000BE016D5F7F4F8FE597E00E94270E8B810B
:102EA0009C819D8B8C8BBE016D5F7F4F8FE597E082
:102EB0000E94270EBE016B5F7F4F8B819C810E9419
:102EC00074168C899D8941969C838B83BE016D5FAE
:102ED0007F4F8FE597E00E946D10BDCFAF92BF92FC
:102EE000CF92DF92EF92FF920F931F93CF93DF93D6
:102EF00000D01F92CDB7DEB7BE016F5F7F4F90E06D
:102F000080E00E94270E89819A8183369105ACF07A
:102F100068E17AE082E091E10E94050A0F900F904B
:102F20000F900F90DF91CF911F910F91FF90EF9035
:102F3000DF90CF90BF90AF90089501969A838983D8
:102F4000BE016F5F7F4F90E080E00E946D10BE0178
:102F50006D5F7F4F82E090E00E94270E0B811C8105
:102F60001CA30BA3BE016D5F7F4F82E090E00E9427
:102F7000270ECB80DC805E0185E2A80EB11CFE012D
:102F800072967F01CE1ADF0AC6018E0D9F1D9C83AB
:102F90008B83F70161917F01CE0103960E9420107F
:102FA000EA14FB0489F70D5E1F4F1C830B83BE01DF
:102FB0006D5F7F4F82E090E00E946D10AFCF8F92E7
:102FC0009F92AF92BF92CF92DF92EF92FF920F93B8
:102FD0001F93CF93DF93CDB7DEB7C655D1090FB698
:102FE000F894DEBF0FBECDBF27968FAE27972896E9
:102FF0009FAE28972996AFAE29972A96BFAE2A97FB
:103000002B96CFAE2B972C96DFAE2C972D96EFAE4E
:103010002D972E96FFAE2E972F960FAF2F97609677
:103020001FAF609761962FAF619762963FAF62972F
:1030300063964FAF639764965FAF649765966FAF83
:10304000659766967FAF669767968FAF67970DB760
:103050001EB780915A1090915B100E94A90B0E949C
:103060009C0880914010882369F080913F10811165
:1030700009C062E00E94450964E57BE082E792E1D5
:103080000E94190A60E379E0CE01805C9F4F0E94A4
:10309000980BD12C3EE1E32EF12CC0903F10809193
:1030A0004010882309F4A6C1C11055C080913D107D
:1030B00090913E10FC0125E0EE0FFF1F2A95E1F7ED
:1030C000EA5DFA4F20E2DE01119601900D922A95F9
:1030D000E1F79F938F932DB73EB7285531090FB66F
:1030E000F8943EBF0FBE2DBFADB7BEB7119688E5B1
:1030F000EAE1F2E101900D928A95E1F70E94620700
:103100008DB79EB7865A9F4F0FB6F8949EBF0FBEDD
:103110008DBF0E949D038823F1F08A330CF014C107
:1031200081330CF03BC1833209F422C1803309F4AE
:103130002CC126968EAD9FAD269763E00D9708F0C3
:1031400034C180E00E944509BE01605C7F4F82E788
:1031500092E10E94E50481E192E10E94A8068823A1
:1031600009F463C122966EAD7FAD2297DB010D900D
:103170000020E9F7CD01EDB6FEB6861B970BEDB743
:10318000FEB7E81BF90B0FB6F894FEBF0FBEEDBFFC
:103190002DB73EB72F5F3F4F6901C9010E947F34B1
:1031A000C6010E94350AB601CE01C2960E94980B54
:1031B00064E172E1CE0184960E947E0BAE014E5C0A
:1031C0005F4FBE016C5D7F4FCE0101960E94F70EEE
:1031D000CE0184960E94AD0ACE01C2960E94AD0A2D
:1031E0008981882309F44DC160E379E0CE0184969A
:1031F0000E94980BAE014C5D5F4F60E028968EAD4B
:103200009FAD28970E94A816CE0184960E94AD0A11
:103210000E94D90FE5E4F0E181E1DF011D928A957A
:10322000E9F780914110909142109C012F5F3F4F30
:103230003093421020934110909344108093431098
:103240008AE0E5E4FCE0DE01D29601900D928A95D9
:10325000E1F7BE016E5C7F4FCE0184960E947F3401
:10326000CE0184960E94350ABE016C5D7F4F85E4D5
:1032700090E10E947F34EDB7FEB773970FB6F894D4
:10328000FEBF0FBEEDBFADB7BEB7119683E1E3E45D
:10329000F0E101900D928A95E1F70E946E1766E6C3
:1032A0007BE082E091E10E94050A80913B109091C1
:1032B0003C10019790933C1080933B100E94CD09E5
:1032C0000E949C0860E080E00E9445096CE77BE07A
:1032D00082E792E10E94190A60ED77E080E090E0D9
:1032E0000E94030385E090E090935B1080935A1056
:1032F0002DB73EB72D5E3F4F0FB6F8943EBF0FBEC1
:103300002DBF0FB6F894FEBE0FBEEDBECE01805CA1
:103310009F4F0E94AD0A0FB6F8941EBF0FBE0DBF9F
:10332000CA5ADF4F0FB6F894DEBF0FBECDBFDF9194
:10333000CF911F910F91FF90EF90DF90CF90BF90B2
:10334000AF909F908F900895883509F0F2CE8091CC
:103350003D1090913E10019797FD05C090933E104F
:1033600080933D10E6CEF0923E10E0923D10E1CE0B
:1033700080913D1090913E1001968F31910570F330
:1033800010923E1010923D10D4CEBE016F5F7F4F61
:10339000CE01805C9F4F0E941D0BCBCE682FCE01CB
:1033A000805C9F4F0E94090BC4CE80E00E944509BB
:1033B0006AE579E082E792E10E94190A63E080E021
:1033C0000E9445096BE679E082E792E10E94190AC2
:1033D00068EE73E080E090E00E94030363E080E029
:1033E0000E9445096AE579E082E792E10E94190AA4
:1033F00063E0A7CECC2009F4AECED110ACCE4FE521
:103400005BE06AE67AE0CE0101960E94050DBE01FE
:103410006F5F7F4FCE01805C9F4F0E94620ACE019A
:1034200001960E94AD0ADC2C96CE8EE092E10E94BD
:10343000A806882309F431CE26966EAD7FAD269777
:103440006115710509F429CE61507109CE01805CC6
:103450009F4F0E944F0A61E083E00E9445096AE5A0
:1034600079E082E792E10E94190A61E083E00E941C
:103470004509BE01605C7F4F82E792E10E94E5044E
:103480000CCE8091391090913A10019690933A1099
:103490008093391002970CF064C06BE87BE082E007
:1034A00091E10E94050A0E949C0860E080E00E9471
:1034B000450960EC7BE082E792E10E94190A61E035
:1034C00080E00E9445096AEC7BE082E792E10E947D
:1034D000190AE5E4F0E181E1DF011D928A95E9F73F
:1034E00080914110909142109C012F5F3F4F30938B
:1034F00042102093411090934410809343108EE02B
:10350000EFE4FCE0DE01D29601900D928A95E1F79E
:10351000BE016E5C7F4FCE0184960E947F34CE0147
:1035200084960E94350ABE016C5D7F4F85E490E170
:103530000E947F34EDB7FEB773970FB6F894FEBFC5
:103540000FBEEDBFADB7BEB7119683E1E3E4F0E186
:1035500001900D928A95E1F70E946E178AE090E043
:10356000C3CE66ED7BE082E091E10E94050A0E94F5
:103570009C0860E080E00E94450960EC7BE082E707
:1035800092E10E94190A61E080E00E9445096AEC1C
:103590007BE082E792E10E94190AE5E4F0E181E133
:1035A000DF011D928A95E9F78091411090914210B8
:1035B0009C012F5F3F4F3093421020934110909316
:1035C0004410809343108EE0EFE4FCE0DE01D296DD
:1035D00001900D928A95E1F7BE016E5C7F4FCE019E
:1035E00084960E947F34CE0184960E94350ABE01E3
:1035F0006C5D7F4F85E490E10E947F34EDB7FEB7AC
:1036000073970FB6F894FEBF0FBEEDBFADB7BEB750
:10361000119683E1E3E4F0E101900D928A95E1F7E0
:103620000E946E1760E177E280E090E00E94030361
:1036300068E17CE082E091E10E94050A10923A1074
:103640001092391081E090E04FCEAF92BF92CF92AE
:10365000DF92EF92FF920F931F93CF93DF93CDB73B
:10366000DEB7C954D1090FB6F894DEBF0FBECDBF87
:10367000EDB6FEB60E949C0880914010882369F048
:1036800080913F10811109C060E00E94450961E30B
:103690007AE082E792E10E94190A60E379E0CE01C4
:1036A000CE960E94980BD12C0EE110E0C0903F10F6
:1036B00080914010882309F4DCC0C11055C080916E
:1036C0003D1090913E10FC0135E0EE0FFF1F3A9542
:1036D000E1F7EA5DFA4F20E2DE01119601900D92CA
:1036E0002A95E1F79F938F932DB73EB7285531095F
:1036F0000FB6F8943EBF0FBE2DBFADB7BEB7119643
:1037000088E5EAE1F2E101900D928A95E1F70E94E5
:1037100062078DB79EB7865A9F4F0FB6F8949EBF2B
:103720000FBE8DBF0E949D038823F1F08A330CF0F9
:103730004CC081330CF072C0833209F45AC080331C
:1037400009F464C024968EAD9FAD249761E00C9778
:1037500008F06AC080E00E944509BE01625C7F4FAC
:1037600082E792E10E94E50481E192E10E94A806CD
:103770008111A4C08EE092E10E94A806882309F47A
:1037800095CF24966EAD7FAD24976115710509F430
:103790008DCF61507109CE01CE960E944F0A61E033
:1037A00080E00E9445096AE579E082E792E10E94A3
:1037B000190A61E080E00E944509BE01625C7F4F0A
:1037C00082E792E10E94E50471CF883509F0BACF13
:1037D00080913D1090913E10019797FD05C0909308
:1037E0003E1080933D10AECF10933E1000933D10DD
:1037F000A9CF80913D1090913E1001968F31910597
:1038000070F310923E1010923D109CCFBE016F5F7E
:103810007F4FCE01CE960E941D0B94CF682FCE0114
:10382000CE960E94090B8ECF80E00E9445096AE582
:1038300079E082E792E10E94190A61E080E00E944B
:1038400045096BE679E082E792E10E94190A68EE89
:1038500073E080E090E00E94030361E080E00E945A
:1038600045096AE579E082E792E10E94190A61E080
:1038700071CFCC2009F478CFD11076CF4DE55CE044
:1038800063E47AE0CE0101960E94050DBE016F5FF0
:103890007F4FCE01CE960E94620ACE0101960E9411
:1038A000AD0A63E080E00E944509BE01625C7F4F83
:1038B00082E792E10E94E504DC2C56CF8091401013
:1038C000882369F080913F10811109C062E00E9455
:1038D000450964E57BE082E792E10E94190A60E312
:1038E00079E0CE018C5B9F4F0E94980BD12C0EE1AA
:1038F00010E0C0903F1080914010882309F4DDC093
:10390000C11053C080913D1090913E10FC0125E004
:10391000EE0FFF1F2A95E1F7EA5DFA4F20E2DE0184
:10392000119601900D922A95E1F79F938F93ADB771
:10393000BEB7A855B1090FB6F894BEBF0FBEADBF54
:10394000119688E5EAE1F2E101900D928A95E1F79E
:103950000E946207EDB7FEB7E65AFF4F0FB6F89424
:10396000FEBF0FBEEDBF0E949D038823F1F08A3396
:103970000CF04DC081330CF074C0833209F45BC08D
:10398000803309F465C02A968EAD9FAD2A9763E017
:10399000099708F06DC080E00E944509BE016C5B8C
:1039A0007F4F82E792E10E94E50481E192E10E946B
:1039B000A8068111A8C08EE092E10E94A806882383
:1039C00009F497CF2A966EAD7FAD2A9761157105E0
:1039D00009F48FCF61507109CE018C5B9F4F0E941B
:1039E0004F0A61E083E00E9445096AE579E082E7D9
:1039F00092E10E94190A61E083E00E944509BE013C
:103A00006C5B7F4F82E792E10E94E50472CF8835BC
:103A100009F0B9CF80913D1090913E10019797FD2C
:103A200005C090933E1080933D10ADCF10933E1093
:103A300000933D10A8CF80913D1090913E100196CB
:103A40008F31910570F310923E1010923D109BCF74
:103A5000BE016F5F7F4FCE018C5B9F4F0E941D0B9D
:103A600092CF682FCE018C5B9F4F0E94090B8BCFAA
:103A700080E00E9445096AE579E082E792E10E94D0
:103A8000190A63E080E00E9445096BE679E082E76D
:103A900092E10E94190A68EE73E080E090E00E94D3
:103AA000030363E080E00E9445096AE579E082E76C
:103AB00092E10E94190A63E06ECFCC2009F475CF21
:103AC000D11073CF4DE55CE06AE67AE0CE01019655
:103AD0000E94050DBE016F5F7F4FCE018C5B9F4F33
:103AE0000E94620ACE0101960E94AD0A63E080E066
:103AF0000E944509BE016C5B7F4F82E792E10E9404
:103B0000E504DC2C52CF6EAD7FADDB010D900020C3
:103B1000E9F7CD01CDB6DEB6861B970BEDB7FEB744
:103B2000E81BF90B0FB6F894FEBF0FBEEDBF0DB743
:103B30001EB70F5F1F4FC8010E947F34C8010E944B
:103B4000350A26966EAD7FAD2697DB010D900020DD
:103B5000E9F7CD01861B970BEDB7FEB7E81BF90B14
:103B60000FB6F894FEBF0FBEEDBF2DB73EB72F5F67
:103B70003F4F5901C9010E947F34C5010E94350A97
:103B8000B501CE01C1960E94980BB801CE01849672
:103B90000E94980BAE014F5C5F4FBE016C5D7F4F82
:103BA000CE0101960E94F70ECE0184960E94AD0AC6
:103BB000CE01C1960E94AD0AB80184E192E10E9453
:103BC000480B8981882309F4E6C00E949C0860E0C4
:103BD00080E00E94450963E67CE082E792E10E9472
:103BE000190A61E080E00E944509CE0101960E9419
:103BF0001B0ABE016F5F7F4F82E792E10E94190AA4
:103C00002BA18091411090914210E5E4F0E1222334
:103C100009F479C021E1DF011D922A95E9F79C01A1
:103C20002F5F3F4F309342102093411090934410E8
:103C3000809343108CE0EEE6FCE0DE01D19601902B
:103C40000D928A95E1F7BE016F5C7F4FCE0184969D
:103C50000E947F34CE0184960E94350ABE016C5DBD
:103C60007F4F85E490E10E947F34EDB7FEB77397F4
:103C70000FB6F894FEBF0FBEEDBFADB7BEB711963D
:103C800083E1E3E4F0E101900D928A95E1F70E946F
:103C90006E1768EE73E080E090E00E94030384E01A
:103CA00090E090935B1080935A102DB73EB72D5E35
:103CB0003F4F0FB6F8943EBF0FBE2DBF0FB6F8941E
:103CC000DEBE0FBECDBECE018C5B9F4F0E94AD0A03
:103CD000CE01CE960E94AD0A0FB6F894FEBE0FBE7E
:103CE000EDBEC75BDF4F0FB6F894DEBF0FBECDBF92
:103CF000DF91CF911F910F91FF90EF90DF90CF90C8
:103D0000BF90AF90089521E1DF011D922A95E9F758
:103D10009C012F5F3F4F30934210209341109093AE
:103D20004410809343108DE0EAE7FCE0DE01D19679
:103D300001900D928A95E1F7BE016F5C7F4FCE0135
:103D400084960E947F34CE0184960E94350ABE017B
:103D50006C5D7F4F85E490E10E947F34EDB7FEB744
:103D600073970FB6F894FEBF0FBEEDBFADB7BEB7E9
:103D7000119683E1E3E4F0E101900D928A95E1F779
:103D80000E946E1768EE73E080E090E00E940303EB
:103D900085E090E086CF8091311090913210181616
:103DA00019060CF070C00E949C0860EC7BE082E772
:103DB00092E10E94190A61E080E00E9445096AECE4
:103DC0007BE082E792E10E94190AE5E4F0E181E1FB
:103DD000DF011D928A95E9F7809141109091421080
:103DE0009C012F5F3F4F30934210209341109093DE
:103DF0004410809343108CE0E7E8FCE0DE01D196AC
:103E000001900D928A95E1F7BE016F5C7F4FCE0164
:103E100084960E947F34CE0184960E94350ABE01AA
:103E20006C5D7F4F85E490E10E947F34EDB7FEB773
:103E300073970FB6F894FEBF0FBEEDBFADB7BEB718
:103E4000119683E1E3E4F0E101900D928A95E1F7A8
:103E50000E946E1760E177E280E090E00E94030329
:103E6000109232101092311081E090E090935B102C
:103E700080935A102DB73EB72D5E3F4F0FB6F89482
:103E80003EBF0FBE2DBF0E949C0860E080E00E94F4
:103E9000450960EC7BE082E792E10E94190A61E04B
:103EA00080E00E9445096AEC7BE082E792E10E9493
:103EB000190AE5E4F0E181E1DF011D928A95E9F755
:103EC00080914110909142109C012F5F3F4F3093A1
:103ED00042102093411090934410809343108CE043
:103EE000E7E8FCE0DE01D19601900D928A95E1F7BA
:103EF000BE016F5C7F4FCE0184960E947F34CE015D
:103F000084960E94350ABE016C5D7F4F85E490E186
:103F10000E947F34EDB7FEB773970FB6F894FEBFDB
:103F20000FBEEDBFADB7BEB7119683E1E3E4F0E19C
:103F300001900D928A95E1F70E946E1780913710DB
:103F4000909138100196909338108093371080919B
:103F5000311090913210019690933210809331106D
:103F600068EE73E080E090E00E9403039ECE1F9213
:103F70000F920FB60F9211242F933F938F939F931D
:103F8000AF93BF9380915D1090915E10A0915F10F0
:103F9000B091601030915C1023E0230F2D3758F55D
:103FA0000196A11DB11D20935C1080935D1090932C
:103FB0005E10A0935F10B09360108091611090919B
:103FC0006210A0916310B09164100196A11DB11D03
:103FD0008093611090936210A0936310B09364106B
:103FE000BF91AF919F918F913F912F910F900FBEF5
:103FF0000F901F90189526E8230F0296A11DB11D62
:10400000D2CF1F920F920FB60F9211240BB60F92C0
:104010002F933F934F935F936F937F938F939F93D0
:10402000AF93BF93EF93FF9385E690E10E94BC05A9
:10403000FF91EF91BF91AF919F918F917F916F9180
:104040005F914F913F912F910F900BBE0F900FBE3C
:104050000F901F9018951F920F920FB60F92112478
:104060000BB60F922F938F939F93EF93FF93E09153
:104070007510F09176108081E0917B10F0917C10AA
:1040800082FD1DC0908180917E108F5F8F73209183
:104090007F10821741F0E0917E10F0E0EB59FF4E67
:1040A000958F80937E10FF91EF919F918F912F912B
:1040B0000F900BBE0F900FBE0F901F901895808130
:1040C000F2CF1F920F920FB60F9211240BB60F92E0
:1040D0002F933F934F935F936F937F938F939F9310
:1040E000AF93BF93EF93FF9382E091E10E94BC05F1
:1040F000FF91EF91BF91AF919F918F917F916F91C0
:104100005F914F913F912F910F900BBE0F900FBE7B
:104110000F901F9018951F920F920FB60F921124B7
:104120000BB60F922F938F939F93EF93FF93E09192
:104130001211F09113118081E0911811F091191171
:1041400082FD1DC0908180911B118F5F8F73209124
:104150001C11821741F0E0911B11F0E0EE5FFE4E62
:10416000958F80931B11FF91EF919F918F912F91CC
:104170000F900BBE0F900FBE0F901F90189580816F
:10418000F2CFCF93DF93109268101092671048EE31
:1041900053E060E070E04093691050936A106093C0
:1041A0006B1070936C108AE099E090936610809386
:1041B00065102DEC30E030937210209371102CECD0
:1041C00030E0309374102093731028EC30E030937B
:1041D00076102093751029EC30E0309378102093FE
:1041E00077102AEC30E030937A10209379102EEC7F
:1041F00030E030937C1020937B1010927E10109250
:104200007F10109280101092811010920511109260
:104210000411409306115093071160930811709395
:104220000911909303118093021185EC90E0909313
:104230000F1180930E1184EC90E0909311118093F4
:10424000101180EC90E0909313118093121181EC87
:1042500090E0909315118093141182EC90E090936C
:1042600017118093161186EC90E0909319118093AA
:10427000181110921B1110921C1110921D11109206
:104280001E11109275121092741286E299E09093AA
:104290007312809372128CE0809376128FEF80936A
:1042A00077128BE08093781285E08093791284E016
:1042B00080937A1283E080937B1282E080937C1259
:1042C00010927D1210927E1210927F121092801224
:1042D0001092811281E00E94A408CAE0D0E0D0933D
:1042E0006B12C0936A1288E090E090936D128093F5
:1042F0006C1289E090E090936F1280936E1281E0CF
:1043000090E0909371128093701261E08AE00E94B5
:104310009E0261E080916C120E949E0261E0809199
:104320006E120E949E0261E080916E120E946C02E9
:10433000D0936B12C0936A12EAE2F2E1119282E129
:10434000EA36F807D9F7D0E0C0E08091701290917A
:104350007112C817D907B4F520E04FE0BE018AE119
:1043600092E10E94C4068091701290917112C81758
:10437000D9073CF427E04BE0BE018AE192E10E94BC
:10438000C40620E049E0BE018AE192E10E94C40631
:104390008091701290917112C817D9071CF4CE0148
:1043A0000E9440078091701290917112C817D9072E
:1043B0003CF420E04CE0BE018AE192E10E94C40698
:1043C0002196C3CF60E379E084E192E10E94980BEB
:1043D0001092131287E190E09093121280931112C1
:1043E0001092101288E190E090930F1280930E12B9
:1043F0001092A1111092A5111092A4111092A61161
:104400008CE199E09093A01180939F11EBEBF1E187
:104410001082148213821582369681E1E73FF807F5
:10442000B9F783E092E0909302128093011280E04A
:1044300092E0909304128093031284E0809305121B
:1044400083E08093061287E092E0909300128093BD
:10445000FF118AE090E0909308128093071284EF96
:1044600091E090930A128093091210920D1210920B
:104470000C121092FB111092FC111092FD1110926F
:10448000FE1110920B12DF91CF910895CF93DF931D
:10449000CDB7DEB7C65ED1090FB6F894DEBF0FBE4A
:1044A000CDBF789484B5826084BD84B5816084BDBD
:1044B00085B5826085BD85B5816085BD80916E00C2
:1044C000816080936E0010928100809181008260F3
:1044D0008093810080918100816080938100809130
:1044E00080008160809380008091B100846080931F
:1044F000B1008091B00081608093B0008091910004
:1045000082608093910080919100816080939100FE
:10451000809190008160809390008091A1008260E2
:104520008093A1008091A10081608093A10080917F
:10453000A00081608093A00080912101826080931F
:1045400021018091210181608093210180912001CE
:1045500081608093200180917A00846080937A004A
:1045600080917A00826080937A0080917A008160E5
:1045700080937A0080917A00806880937A0010920C
:10458000C10082E091E10E948F0185E690E10E94E6
:104590008F011A8219829E012F5F3F4F1901B901C5
:1045A0008DE990E00E946D1064E275E08FE990E083
:1045B0000E946D101A821982B10190E080E00E9481
:1045C0006D1062E275E082E090E00E946D101A8248
:1045D0001982B1018DE597E00E946D1060E275E0EF
:1045E0008FE597E00E946D1063E97CE082E091E145
:1045F0000E94050A13E2D101E12F1D92EA95E9F725
:1046000081E08BA38CE0E6EDFFE0DE01A156BF4F19
:1046100001900D928A95E1F7BE0161567F4FCE0160
:1046200084589F4F0E947F34CE0184589F4F0E9430
:10463000350A86E0E2EEFFE0DE01A653BF4F0190AF
:104640000D928A95E1F7BE0166537F4FCE018C53E0
:104650009F4F0E947F34CE018C539F4F0E94350A9A
:1046600088E0E8EEFFE0DE01A454BF4F01900D9218
:104670008A95E1F7BE0164547F4FCE0182559F4F6A
:104680000E947F34CE0182559F4F0E94350ABE01A1
:1046900064587F4FC1010E947F34BE016C537F4F2D
:1046A000CE010D960E947F34BE0162557F4FCE0130
:1046B00045960E947F342DB73EB7235231090FB67D
:1046C000F8943EBF0FBE2DBFADB7BEB71196F10136
:1046D00001900D921A95E1F70E9495103E0139E57F
:1046E000630E711C81E1D3011D928A95E9F7EDB744
:1046F000FEB7B3960FB6F894FEBF0FBEEDBF230111
:10470000F3E04F0E511C60E379E0C2010E947F3458
:10471000D3018C9011969C9011971296AC901297A1
:104720001396BC9013971496CC9014971596DC9022
:1047300015971696EC9016971796FC901797189663
:104740000C91189719961C9119971A962C911A97F3
:104750001B963C911B971C964C911C971D965C9147
:104760001D971E966C911E971F967C911F975096D1
:104770008C910E94FB16F3013296CD51DF4FF983E5
:10478000E883C35ED0402FE011922A95E9F781E0DB
:1047900090E0D3018D939C9360E379E0C2010E9485
:1047A0007F34F30180809180A280B380C480D58063
:1047B000E680F780008511852285338544855585FF
:1047C0006685778580890E94FB16CD51DF4FA881D1
:1047D000B981C35ED040EFE01D92EA95E9F782E02F
:1047E00090E0D3018D939C9360E379E0C2010E9435
:1047F0007F34F30180809180A280B380C480D58013
:10480000E680F780008511852285338544855585AE
:104810006685778580890E94FB16CD51DF4FA88180
:10482000B981C35ED040EFE01D92EA95E9F783E0DD
:1048300090E0D3018D939C9360E379E0C2010E94E4
:104840007F34F30180809180A280B380C480D580C2
:10485000E680F7800085118522853385448555855E
:104860006685778580890E94FB16CD51DF4FA88130
:10487000B981C35ED040EFE01D92EA95E9F784E08C
:1048800090E0D3018D939C9360E379E0C2010E9494
:104890007F34F30180809180A280B380C480D58072
:1048A000E680F7800085118522853385448555850E
:1048B0006685778580890E94FB16CD51DF4FA881E0
:1048C000B981C35ED040EFE01D92EA95E9F785E03B
:1048D00090E0D3018D939C9360E379E0C2010E9444
:1048E0007F34F30180809180A280B380C480D58022
:1048F000E680F780008511852285338544855585BE
:104900006685778580890E94FB16CD51DF4FA8818F
:10491000B981C35ED040EFE01D92EA95E9F786E0E9
:1049200090E0D3018D939C9360E379E0C2010E94F3
:104930007F34F30180809180A280B380C480D580D1
:10494000E680F7800085118522853385448555856D
:104950006685778580890E94FB16CD51DF4FA8813F
:10496000B981C35ED040EFE01D92EA95E9F787E098
:1049700090E0D3018D939C9360E379E0C2010E94A3
:104980007F34F30180809180A280B380C480D58081
:10499000E680F7800085118522853385448555851D
:1049A0006685778580890E94FB16CD51DF4FA881EF
:1049B000B981C35ED040EFE01D92EA95E9F788E047
:1049C00090E0D3018D939C9360E379E0C2010E9453
:1049D0007F34F30180809180A280B380C480D58031
:1049E000E680F780008511852285338544855585CD
:1049F0006685778580890E94FB1684E00E94A40862
:104A000080917012909171121816190644F421E0E9
:104A10004CE070E060E08AE192E10E94C40680917F
:104A20007012909171121816190644F428E04AE0A9
:104A300070E060E08AE192E10E94C4068091701209
:104A4000909171121816190624F490E080E00E94EB
:104A5000400760E0809111120E949E0260E0809108
:104A60000E120E949E022301F3E04F0E511C93018F
:104A70002C5E3F4FCD51DF4F39832883C35ED0403A
:104A8000C3010C96CB51DF4F99838883C55ED0401C
:104A90000E944F0E5C0110E000E00A151B05B4F403
:104AA000B801C3010E94650FD301ED90FC90BDE2F7
:104AB000EB0EF11C61E08E2D0E949E02F3016281DB
:104AC0008E2D0E946C020F5F1F4FE7CFE0915A10AE
:104AD000F0915B10EC30F10508F032C28827EC58F9
:104AE000FA4D8F4F0C945F328025E525A327A6272A
:104AF000A927E2289A276A2A202B662C812F8F303B
:104B00000E949C0860E080E00E94450963E67CE02A
:104B100082E792E10E94190A6CE271E080E090E085
:104B20000E94030361E080E00E94450968EA7CE09E
:104B300082E792E10E94190A6CE271E080E090E065
:104B40000E94030362E080E00E94450969EB7CE07B
:104B500082E792E10E94190A6CE271E080E090E045
:104B60000E94030363E080E00E9445096AEC7CE058
:104B700082E792E10E94190A6CE271E080E090E025
:104B80000E94030364E080E00E9445096AED7CE036
:104B900082E792E10E94190A6CE271E080E090E005
:104BA0000E94030365E080E00E94450969EE7CE015
:104BB00082E792E10E94190A81E192E10E94A8062F
:104BC0008823D1F381E090E0B8C60E949C0860E0A1
:104BD00080E00E94450969EF7CE082E792E10E9453
:104BE000190A68EC70E080E090E00E94030361E045
:104BF00080E00E94450968E07DE082E792E10E9442
:104C0000190A68EC70E080E090E00E94030362E023
:104C100080E00E94450961E17DE082E792E10E9427
:104C2000190A68EC70E080E090E00E94030363E002
:104C300080E00E94450962E579E082E792E10E9406
:104C4000190A60E379E0CE0181569F4F0E94980BCC
:104C50000E949D038823D1F0CD55DF4F28813981F3
:104C6000C35AD0402230310588F5682FCE018156D5
:104C70009F4F0E94090B63E08CE00E944509BE0132
:104C800061567F4F82E792E10E94E50481E192E163
:104C90000E94A806882309F41FC16FE679E0CE01BF
:104CA00081569F4F0E945D098823A9F186E090E01C
:104CB00090935B1080935A101092591010925810D4
:104CC000CE0181569F4F0E94AD0A3AC163E08CE04D
:104CD0000E94450964E679E082E792E10E94190AA0
:104CE00063E08CE00E9445096BE679E082E792E19F
:104CF0000E94190A64E670E080E090E00E940303DD
:104D000063E08CE00E94450964E679E082E792E185
:104D10000E94190AB0CF6BEB79E0CE0181569F4F0C
:104D20000E945D09882369F086E090E090935B1013
:104D300080935A1081E090E090935910809358101E
:104D4000BFCF67EE7CE0CE0181569F4F0E945D0988
:104D5000882309F4B5CF60E080E00E94450960E354
:104D600079E0CE0184589F4F0E94980B10E000E03C
:104D7000F80135E0EE0FFF1F3A95E1F7EA5DFA4FD3
:104D800080E2D30101900D928A95E1F71F930F9372
:104D90002DB73EB7285531090FB6F8943EBF0FBE68
:104DA0002DBFADB7BEB7119688E5EAE1F2E10190FB
:104DB0000D928A95E1F70E9462078DB79EB7865AD9
:104DC0009F4F0FB6F8949EBF0FBE8DBF0E949D03EC
:104DD000882391F08A330CF053C081330CF075C0F6
:104DE000833209F457C0803309F45DC062E370E098
:104DF00080E090E00E94030381E192E10E94A80616
:104E0000882309F4B5CF88E5EAE1F2E1D101019008
:104E10000D928A95E1F78101BB24B394F12CE12C2A
:104E200069968EAD9FAD699718161906B4F420E8FF
:104E300030E00E2C02C0359527950A94E2F72095B4
:104E4000D80150968C915097282350962C934B2D37
:104E500070E060E0C1010E94C406BFEFEB1AFB0ADC
:104E6000E8E0EE16F104E1F60F5F1F4FB394F9E0AE
:104E7000BF12D4CFCE0184589F4F0E94AD0A20CFDD
:104E8000883509F0B3CF0150110908F0AFCF0EE11A
:104E900010E0ACCF0F5F1F4F0F31110509F0A6CF07
:104EA00010E000E0A3CFB301CE0184589F4F0E94D1
:104EB0001D0B61E080E00E944509BE0164587F4FF0
:104EC00082E792E10E94E50491CF682FCE018458D9
:104ED0009F4F0E94090BEDCF8EE092E10E94A80641
:104EE000882309F4B5CECD55DF4F68817981C35A47
:104EF000D0406115710509F4ABCE61507109CE0146
:104F000081569F4F0E944F0A63E08CE00E94450942
:104F10006AE579E082E792E10E94190A63E08CE099
:104F20000E944509BE0161567F4F82E792E10E94CF
:104F3000E5048ECE80915810909159100E94A90BD3
:104F40000E944B06A5CD0E94251BFACF0E94DE10C1
:104F5000F7CF0E949C0860E080E00E9445096DE167
:104F60007DE082E792E10E94190A6CE271E080E044
:104F700090E00E94030361E080E00E94450968E23E
:104F80007DE082E792E10E94190A6CE271E080E024
:104F900090E00E94030362E080E00E94450960E324
:104FA0007DE082E792E10E94190A6CE271E080E004
:104FB00090E00E94030363E080E00E94450962E5FF
:104FC00079E082E792E10E94190A60E379E0CE017C
:104FD00081569F4F0E94980B0E949D038823D1F019
:104FE000CD55DF4F28813981C35AD0402230310559
:104FF00040F5682FCE0181569F4F0E94090B63E058
:105000008CE00E944509BE0161567F4F82E792E124
:105010000E94E50481E192E10E94A806882309F438
:10502000A3C06FE679E0CE0181569F4F0E945D09D3
:10503000882361F187E090E090935B1080935A1091
:105040003FCE63E08CE00E9445096AE579E082E7A3
:1050500092E10E94190A63E08CE00E9445096BE628
:1050600079E082E792E10E94190A68EE73E080E03D
:1050700090E00E94030363E08CE00E9445096AE52A
:1050800079E082E792E10E94190AB9CF6BEB79E0EF
:10509000CE0181569F4F0E945D09882319F088E058
:1050A00090E0CACF60E47DE0CE0181569F4F0E9420
:1050B000480BC156DF4F88819981CF59D040892B49
:1050C00009F4FECDE5E4F0E181E1DF011D928A956E
:1050D000E9F780914110909142109C012F5F3F4F62
:1050E00030934210209341109093441080934310CA
:1050F0008EE0E0EFFFE0DE01A458BF4F01900D927B
:105100008A95E1F7BE0164587F4FC3010E947F3446
:10511000C3010E94350AB30185E490E10E947F3407
:10512000EDB7FEB773970FB6F894FEBF0FBEEDBF95
:10513000ADB7BEB7119683E1E3E4F0E101900D92C3
:105140008A95E1F70E946E1781E090E090935B10E2
:1051500080935A102DB73EB72D5E3F4F0FB6F8948F
:105160003EBF0FBE2DBFACCD8EE092E10E94A806DF
:10517000882309F431CFCD55DF4F68817981C35A37
:10518000D0406115710509F427CF61507109CE0136
:1051900081569F4F0E944F0A63E08CE00E944509B0
:1051A0006AE579E082E792E10E94190A63E08CE007
:1051B0000E944509BE0161567F4F82E792E10E943D
:1051C000E5040ACF0E9435036093331070933410C6
:1051D00080933510909336100E949C0860E080E028
:1051E0000E94450962E47DE082E792E10E94190A8B
:1051F00060E971E080E090E00E9403030E949C0857
:1052000060E080E00E9445096FE47DE082E792E182
:105210000E94190A61E080E00E9445096EE57DE088
:1052200082E792E10E94190A62E080E00E9445094B
:105230006DE67DE082E792E10E94190A63E080E07A
:105240000E9445096FE77DE082E792E10E94190A1A
:105250006EEE72E080E090E00E9403030E949C08E2
:1052600060E080E00E94450962E579E082E792E132
:105270000E94190A60E379E0CE0181569F4F0E9497
:10528000980B0E9435030091331010913410209137
:10529000351030913610601B710B820B930B693502
:1052A0007F408240910508F008C10E949D03882339
:1052B000D1F0CD55DF4F28813981C35AD0402230FB
:1052C000310550F5682FCE0181569F4F0E94090B82
:1052D00060E08CE00E944509BE0161567F4F82E785
:1052E00092E10E94E50481E192E10E94A8068823F0
:1052F00009F4B5C06FE679E0CE0181569F4F0E9458
:105300005D09882371F160E97DE082E091E10E940E
:10531000050A89E090E090CE60E08CE00E944509AB
:1053200064E679E082E792E10E94190A60E08CE08D
:105330000E9445096BE679E082E792E10E94190A32
:1053400064E670E080E090E00E94030360E08CE09F
:105350000E94450964E679E082E792E10E94190A19
:10536000B7CF6BEB79E0CE0181569F4F0E945D096C
:10537000882349F06AEA7DE082E091E10E94050A13
:105380008AE090E059CE60E47DE0CE0181569F4FE7
:105390000E945D09882309F44FC0E5E4F0E181E152
:1053A000DF011D928A95E9F780914110909142109A
:1053B0009C012F5F3F4F30934210209341109093F8
:1053C0004410809343108EE0E0EFFFE0DE01A4582C
:1053D000BF4F01900D928A95E1F7BE0164587F4F4F
:1053E000C3010E947F34C3010E94350AB30185E4E2
:1053F00090E10E947F34EDB7FEB773970FB6F89433
:10540000FEBF0FBEEDBFADB7BEB7119683E1E3E4BB
:10541000F0E101900D928A95E1F70E946E1781E00C
:1054200090E090935B1080935A1063EC7DE082E0F3
:1054300091E10E94050A8ECE67EB7CE0CE01815699
:105440009F4F0E945D09882309F43ACC6AED7DE004
:1054500082E091E10E94050A8BE090E0EDCD8EE0C4
:1054600092E10E94A806882309F40BCFCD55DF4FA7
:1054700068817981C35AD0406115710509F401CF63
:1054800061507109CE0181569F4F0E944F0A60E022
:105490008CE00E9445096AE579E082E792E10E948A
:1054A000190A60E08CE00E944509BE0161567F4FF9
:1054B00082E792E10E94E504E4CE81E090E09093DF
:1054C0005B1080935A1061EF7DE082E091E10E94D1
:1054D000050AF6CB0E949C0860E080E00E94450926
:1054E0006BE07EE082E792E10E94190A61E080E0D1
:1054F0000E94450968E17EE082E792E10E94190A74
:1055000062E080E00E94450964E27EE082E792E189
:105510000E94190A81E192E10E94A806882309F4F9
:1055200081C00E949C0870E060E0C3010E94630E8D
:1055300010E000E0730132E0E30EF11C0E949C08D1
:1055400060E080E00E94450962E37EE082E792E14C
:105550000E94190A61E080E00E944509D3016D9123
:105560007C91CE0184589F4F0E94520BBE0164581B
:105570007F4F82E792E10E94E504CE0184589F4F5D
:105580000E94AD0A62E080E00E944509C7010E94C6
:105590001B0AB701CE0184589F4F0E94980BBE0191
:1055A00064587F4F82E792E10E94E504CE0184585F
:1055B0009F4F0E94AD0A81E192E10E94A8068823D4
:1055C00021F10F5F1F4FBE0164587F4F90E080E0D4
:1055D0000E94270EEE968EAD9FADEE970817190725
:1055E00014F010E000E00E949C08B801CE01805346
:1055F0009F4F0E94630E83E1FE01E053FF4FD301F2
:1056000001900D928A95E1F799CF8EE092E10E9488
:10561000A806882381F284E090E090935B10809349
:105620005A1007C08EE092E10E94A806882309F470
:1056300071CF6CE271E080E090E00E94030380CCC7
:105640000E949C0860E080E00E94450963E47EE0DF
:1056500082E792E10E94190A61E080E00E94450918
:1056600061E57EE082E792E10E94190A62E080E053
:105670000E94450968E17EE082E792E10E94190AF2
:1056800063E080E00E94450964E27EE082E792E107
:105690000E94190A81E192E10E94A806882309F478
:1056A0000DC10E949C0860E080E00E9445096DE504
:1056B0007EE082E792E10E94190A61E080E00E94A8
:1056C00045096EE67EE082E792E10E94190A62E0F7
:1056D00080E00E94450962E87EE082E792E10E9454
:1056E000190A63E088E00E9445090E94A60FBC01E8
:1056F000C3010E94520BB30182E792E10E94E504CC
:10570000C3010E94AD0A0E94A60F8C0168E77EE0EB
:10571000C3010E94980BB801C3010E94B80DC301D8
:105720000E94AD0A0E949C0860E080E00E9445094A
:105730006DE57EE082E792E10E94190A61E080E077
:105740000E9445096FE87EE082E792E10E94190A13
:1057500062E080E00E94450961EA7EE082E792E132
:105760000E94190A63E088E00E944509609139109F
:1057700070913A108091371090913810680F791F0E
:10578000C3010E94520BB30182E792E10E94E5043B
:10579000C3010E94AD0A0091391010913A10809116
:1057A000371090913810080F191F68E97EE0C30187
:1057B0000E94980BB801C3010E94B80DC3010E945A
:1057C000AD0A0E949C0860E080E00E9445096DE5FA
:1057D0007EE082E792E10E94190A61E080E00E9487
:1057E00045096CEA7EE082E792E10E94190A62E0D4
:1057F00080E00E94450961EC7EE082E792E10E9430
:10580000190A63E088E00E94450967EE7CE082E7C0
:1058100092E10E94190A65EB7EE0C3010E94980B99
:1058200070E060E0C3010E94B80DC3010E94AD0AA0
:105830000E949C0860E080E00E9445096DE57EE0E2
:1058400082E792E10E94190A61E080E00E94450926
:105850006EEC7EE082E792E10E94190A62E080E04D
:105860000E94450968ED7EE082E792E10E94190AF4
:1058700063E088E00E9445090E943B0EBC01615034
:105880007109C3010E94520BB30182E792E10E94A9
:10589000E504C3010E94AD0A0E943B0E8C0163EE39
:1058A0007EE0C3010E94980BB80161507109C301E9
:1058B0000E94B80DC3010E94AD0AADCE8EE092E108
:1058C0000E94A806882309F4E5CEB3CE0E944F0EAD
:1058D0005C01F12CE12CEA14FB048CF4B701C30148
:1058E0000E94650FF301128111112CC0E080F1803C
:1058F000C7010E94CD09FFEFEF16FF0639F56AEFE9
:105900007EE082E091E10E94050A0E949C0860E02E
:1059100080E00E94450966E27FE082E792E10E9412
:10592000190A61E080E00E94450961E17FE082E7B9
:1059300092E10E94190A85E090E090935B108093B9
:105940005A10FECA2FEFE21AF20AC5CF80915A1000
:1059500090915B100E94A90B80914010882381F0E8
:1059600080913F1081110CC00E949C0861E080E092
:105970000E94450964E57BE082E792E10E94190AF2
:1059800060E379E0CE0182559F4F0E94980B009111
:105990003F1080914010882309F4FEC4011156C0C5
:1059A00080913D1090913E10FC0125E0EE0FFF1F0D
:1059B0002A95E1F7EA5DFA4F20E2D30101900D92BA
:1059C0002A95E1F79F938F938DB79EB788559109DC
:1059D0000FB6F8949EBF0FBE8DBFADB7BEB7119680
:1059E00088E5EAE1F2E101900D928A95E1F70E94E3
:1059F0006207ADB7BEB7A65ABF4F0FB6F894BEBF89
:105A00000FBEADBF0E949D03882301F18A330CF0C5
:105A10000AC181330CF031C1833209F41AC18033D9
:105A200009F424C1CE54DF4F88819981C25BD040F4
:105A300063E00D9708F028C180E00E944509BE018F
:105A400062557F4F82E792E10E94E50481E192E195
:105A50000E94A806882309F43CC1C255DF4F688123
:105A60007981CE5AD040DB010D900020E9F7CD01BD
:105A70000DB71EB7861B970BEDB7FEB7E81BF90BEA
:105A80000FB6F894FEBF0FBEEDBF2DB73EB72F5F28
:105A90003F4F5901C9010E947F34C5010E94350A58
:105AA000B501CE0184589F4F0E94980B64E172E1CA
:105AB000CE0181569F4F0E947E0BAE0144585F4F2E
:105AC000BE0161567F4FC3010E94F70ECE01815681
:105AD0009F4F0E94AD0ACE0184589F4F0E94AD0A8D
