:020000040000FA
:100000000C9441010C9472010C9472010C947201D5
:100010000C9472010C9472010C9472010C94720194
:100020000C9472010C9472010C9472010C94720184
:100030000C9472010C9472010C9472010C94720174
:100040000C9472010C9472010C9472010C94720164
:100050000C9472010C9472010C9472010C94940D26
:100060000C9472010C94680E0C943E0E0C94720168
:100070000C9472010C9472010C9472010C94720134
:100080000C9472010C9472010C9472010C94720124
:100090000C94080E0C94DE0D0C9472010C947201F9
:1000A0000C9472010C9472010C9472010C94720104
:1000B0000C9472010C9472010C9472010C947201F4
:1000C0000C9472010C9472010C9472010C947201E4
:1000D0000C9472010C9472010C9472010C947201D4
:1000E0000C9472010C9461020C942A060C942F0358
:1000F0000C943F050C948F050C942B050C94EF0485
:100100000C9475020C94DC050C9491020C94DC08A0
:100110000C941C050C944D050C948D020C947F02DC
:100120000C9479020C9467020C94BE020C94710238
:100130000C946B020C9487020C944C020C945E029B
:100140000C9456020C948C020C945A020C949E0E41
:100150000C9429060C9483020C9452020C94EF0226
:1001600000002100240027002A002D003000330069
:1001700001010000040107010A010000220025001E
:1001800028002B002E003100340002010000050180
:1001900008010B01000020002300260029002C008C
:1001A0002F003200000100000301060109010505CE
:1001B0000505070508080808020202020A0A0808DD
:1001C000040404040101010101010101030303030B
:1001D00003030303040707070C0C0C0C0C0C0C0C9A
:1001E0000202020206060606060606060B0B0B0BAB
:1001F0000B0B0B0B010210202008081020401020D0
:1002000040800201020108040201010204081020DA
:1002100040808040201008040201800402018040D8
:100220002010080402010804020101020408102041
:100230004080010204081020408000000A0B0209DF
:100240000C0D0E0807030401000000000000000070
:10025000000000000000000000000000000000009E
:10026000000000000000121110000000000000005B
:10027000000000000000000000000000000000007E
:100280009E0E11241FBECFEFD1E2DEBFCDBF00E036
:100290000CBF2DE0AAE3BBE001C01D92A836B20757
:1002A000E1F71BE0A0E0B2E0E6E8F8E300E00BBF16
:1002B00002C007900D92AA33B107D9F711E0C1E44B
:1002C000D1E000E006C021970109802FFE010E94C5
:1002D0001A1AC034D10780E00807A9F70E941F103E
:1002E0000C94411C0C940000FC01A089B18982E0AF
:1002F0008C93A485B5851C92A685B7858FEC8C93CD
:10030000108EA489B58986E08C93A289B3898C91DB
:1003100080618C93A289B3898C9188608C93A28927
:10032000B3898C9180688C930288F389E02D808159
:100330008F7D8083089596E0899FD0011124A15874
:10034000B34F90967C936E935F9791E091969C93B8
:100350009197E091EC0CF091ED0C9091EB0C9923BE
:1003600039F0309751F0811108C080919B0C19949D
:10037000309719F05C968C91FACF0895CF92DF9266
:10038000EF92FF920F931F9396E0899FF001112443
:10039000E158F34F11A2278D30A12130310551F1E1
:1003A00078F02230310509F451C02330310509F4C9
:1003B00052C01F910F91FF90EF90DF90CF90089562
:1003C0006623B9F361E070E00E949B012FB7F894B7
:1003D0008091410B9091420BA091430BB091440B43
:1003E0002FBF8093D70C9093D80CA093D90CB093C7
:1003F000DA0CDFCF9FB7F894C090410BD090420B3E
:10040000E090430BF090440B9FBF0091D70C1091EC
:10041000D80C2091D90C3091DA0CC01AD10AE20A1A
:10042000F30A0091E90C1091EA0C30E020E00C1581
:100430001D052E053F0550F462E070E01F910F91FD
:10044000FF90EF90DF90CF900C949B016111B1CFA2
:1004500063E070E0F3CF70E060E0F0CF8150823174
:1004600008F05AC0E82FF0E08827E65CFD4F8F4F78
:100470000C941A1A5A025E024C02520256028C0264
:10048000610267026B027102750279027F028302C8
:100490008C0287028D029102809180008F77809379
:1004A00080000895809180008F7DF9CF8091800039
:1004B000877FF5CF84B58F7784BD089584B58F7D10
:1004C000FBCF8091B0008F778093B000089580912A
:1004D000B0008F7DF9CF809190008F77809390004E
:1004E0000895809190008F7DF9CF80919000877F53
:1004F000F5CF8091A0008F778093A0000895809120
:10050000A0008F7DF9CF8091A000877FF5CF8091EB
:1005100020018F77809320010895809120018F7DA5
:10052000F9CF80912001877FF5CFCF93DF93282FDC
:1005300030E0F901E65CFD4F8491F901EC50FE4F8B
:10054000D491F901E255FE4FC491CC23A1F0811161
:100550000E942E02EC2FF0E0EE0FFF1FEC56FE4F34
:10056000A591B491EC91ED2381E090E009F480E055
:10057000DF91CF91089580E090E0FACF862F0C9420
:1005800095021F93CF93DF93282F30E0F901E65CAB
:10059000FD4F8491F901EC50FE4FD491F901E255E1
:1005A000FE4FC491CC23A9F0162F81110E942E0278
:1005B000EC2FF0E0EE0FFF1FE658FE4FA591B4912F
:1005C0008FB7F894EC91111108C0D095DE23DC931D
:1005D0008FBFDF91CF911F910895DE2BF8CF862F2B
:1005E000642F0C94C102CF93DF9390E0FC01EC5098
:1005F000FE4F249182559E4FFC0184918823C9F0BF
:1006000090E0880F991FFC01E05AFE4FA591B4912C
:10061000FC01E658FE4FC591D49161110DC09FB702
:10062000F8948C91209582238C93888128232883A9
:100630009FBFDF91CF910895623051F49FB7F89436
:100640003C91822F809583238C93E8812E2BEFCFD2
:100650008FB7F894EC912E2B2C938FBFEACF862F77
:10066000642F0C94F3026F927F928F929F92AF92BD
:10067000BF92CF92DF92EF92FF920F931F93CF938F
:10068000DF9381E08093EB0C8FB7F8944091410B9E
:100690005091420B6091430B7091440B8FBF80913E
:1006A000DB0C9091DC0CA091DD0CB091DE0C481BB2
:1006B000590B6A0B7B0B8091E70C9091E80CB0E032
:1006C000A0E084179507A607B70708F01DC1C0E092
:1006D0008091E50CC81760F4E091E10CF091E20C18
:1006E000EC0FF11D62E080810E94F302CF5FF0CF3A
:1006F000712C812C912C540183948091E60C7816F6
:1007000008F05FC0072D10E0E091E30CF091E40CDD
:10071000E00FF11F61E080810E94F302E091E30CA1
:10072000F091E40CE00FF11F60E080810E94C102B3
:10073000D501C401072C04C0880F991FAA1FBB1F35
:100740000A94D2F76C017C01E094F094612C8091C2
:10075000E50C6816F8F4C62DD0E0E091E10CF091BC
:10076000E20CEC0FFD1F80810E9495022496CC0FB5
:10077000DD1FC158D34F892B41F4888199818C2981
:100780009D29998388836394E2CF888199818E2102
:100790009F21F7CFE091E30CF091E40CE00FF11F03
:1007A00061E080810E94C1028091E30C9091E40C91
:1007B000080F191F60E0F80180810E94F302739412
:1007C0009CCFCFE7DCE0FE018FEF9FEF278D30A1BC
:1007D000232B21F4148E968F858F11A236962CE050
:1007E000EB3BF20799F7F12C96E0D92E8091E50CBE
:1007F000F81608F050C0E12C0F2D10E0000F111F6B
:100800000957134F2091E60CE21608F042C0F80198
:10081000608171810E2C02C0769567950A94E2F78B
:10082000F29E900111242E0D311DEFE7FCE080E0D7
:10083000458D568D2417350709F46AC08F5F3696AB
:100840008A30B1F760FF23C0EFE7FCE090E080E082
:10085000448D411117C0E091DF0CF091E00CE20FE4
:10086000F31F4081D89EF001D99EF00D1124E1586C
:10087000F34F448F368F258F10A2178E61E00E94B0
:10088000BE0105C0019636968A30910509F7E394BA
:10089000B9CFF394ABCF80E099A19111892F26961F
:1008A000FCE0CB3BDF07C1F79FB7F8944091410BC9
:1008B0005091420B6091430B7091440B9FBF40934A
:1008C000DB0C5093DC0C6093DD0C7093DE0C882302
:1008D000D9F08091A00C8823B9F080919E0C909162
:1008E0009F0C019789F480919B0CDF91CF911F9110
:1008F0000F91FF90EF90DF90CF90BF90AF909F90BF
:100900008F907F906F9008951092EB0C80E0EDCF68
:100910006170B5CF3FB7F89480913D0B90913E0B3D
:10092000A0913F0BB091400B26B5A89B05C02F3F6F
:1009300019F00196A11DB11D3FBFBA2FA92F982F05
:100940008827BC01CD01620F711D811D911D42E000
:10095000660F771F881F991F4A95D1F708958F92C8
:100960009F92AF92BF92CF92DF92EF92FF924B0194
:100970005C010E948A046B017C010E948A046C194C
:100980007D098E099F09683E734081059105A8F392
:1009900021E0821A9108A108B10888EEC80E83E010
:1009A000D81EE11CF11C81149104A104B10429F7A3
:1009B000FF90EF90DF90CF90BF90AF909F908F907F
:1009C0000895DB0114964D915C9115976D917C9182
:1009D000DC01ED91FC910280F381E02D1994AF923E
:1009E000BF92CF92DF92EF92FF920F931F93CF931C
:1009F000DF936C017B018B01040F151FEB015E017E
:100A0000AE18BF08C017D10759F06991D601ED9112
:100A1000FC910190F081E02DC6011995892B79F7A1
:100A2000C501DF91CF911F910F91FF90EF90DF9063
:100A3000CF90BF90AF900895FC01538D448D252F2A
:100A400030E0842F90E0821B930B541710F0CF9668
:100A5000089501970895FC01918D828D981761F09A
:100A6000A28DAE0FBF2FB11D5D968C91928D9F5FB1
:100A70009F73928F90E008958FEF9FEF0895FC0190
:100A8000918D828D981731F0828DE80FF11D858D43
:100A900090E008958FEF9FEF0895FC01918D228DD6
:100AA000892F90E0805C9F4F821B91098F7399275B
:100AB000089585E49BE00E944D0521E0892B09F40F
:100AC00020E0822F089582EE9BE00E944D0521E0F8
:100AD000892B09F420E0822F0895FC01A48DA80F32
:100AE000B92FB11DA35ABF4F2C91848D90E0019670
:100AF0008F739927848FA689B7892C93A089B18990
:100B00008C91837080648C93938D848D981306C030
:100B10000288F389E02D80818F7D80830895EF9294
:100B2000FF920F931F93CF93DF93EC0181E0888FA7
:100B30009B8D8C8D98131AC0E889F989808185FF77
:100B400015C09FB7F894EE89FF896083E889F98919
:100B500080818370806480839FBF81E090E0DF911B
:100B6000CF911F910F91FF90EF900895F62E0B8D6E
:100B700010E00F5F1F4F0F731127E02E8C8D8E1129
:100B80000CC00FB607FCFACFE889F989808185FF90
:100B9000F5CFCE010E946D05F1CFEB8DEC0FFD2F4F
:100BA000F11DE35AFF4FF0829FB7F8940B8FEA894B
:100BB000FB8980818062CFCFCF93DF93EC01888D5A
:100BC0008823B9F0AA89BB89E889F9898C9185FDC8
:100BD00003C0808186FD0DC00FB607FCF7CF8C9156
:100BE00085FFF2CF808185FFEDCFCE010E946D059C
:100BF000E9CFDF91CF91089580E090E0892B29F033
:100C00000E94630581110E94000080E090E0892B22
:100C100029F00E94590581110E94000080E090E0B7
:100C2000892B49F080E090E0892B29F00E94000098
:100C300081110E94000080E090E0892B49F080E063
:100C400090E0892B29F00E94000081110C94000093
:100C50000895089590E080E00895CF93DF93EC012C
:100C60008A8181110AC088810E949502019729F426
:100C700081E08A83DF91CF9108958A81811102C03A
:100C800080E0F8CF88810E949502892BC9F71A82EB
:100C9000F7CF4F925F926F927F928F929F92AF9217
:100CA000BF92CF92DF92EF92FF920F931F93CF9359
:100CB000DF931F921F92CDB7DEB78C0149832A8341
:100CC000660F771FF801EA5AFF4FE080F180EE0CC3
:100CD000FF1CF801CF01801B910B8E159F0514F4AA
:100CE0001192F8CF8981F801E60FF71F81838A817D
:100CF0008083680184E5C80ED11C60E0F601808124
:100D00000E94C1025801F2E5AF0EB11C480180E516
:100D1000880E911C1E141F040CF5E1E0EE1AF10878
:100D2000F801EE0DFF1D6080F5015080F401408058
:100D300088E0782E662D661F6627661F842D0E9428
:100D4000C102660C61E0852D0E94C10260E0852D24
:100D50000E94C1027A947110EDCFDCCF61E0F60100
:100D600080810F900F90DF91CF911F910F91FF9095
:100D7000EF90DF90CF90BF90AF909F908F907F903B
:100D80006F905F904F900C94C102EF92FF920F937F
:100D90001F93CF937C018C0183E0000F111F8A9574
:100DA000E1F70C5F124FC1E0F80111928F0120E0D2
:100DB0004C2FB70184EF9CE00E944906CF5FC930F9
:100DC00099F7CF911F910F91FF90EF9008959F9207
:100DD000AF92BF92CF92DF92EF92FF920F931F9349
:100DE000CF93DF93CDB7DEB7C054D1090FB6F894D7
:100DF000DEBF0FBECDBFC955DF4F28813981C75A2D
:100E0000D040FE01319680E4DF011D928A95E9F71A
:100E100049E1429FC001439F900D1124855E9D4F83
:100E20008F01BE01675D7F4FAF0130E020E0FA0126
:100E3000E20FF31FDC01A20FB31FAC91A18B2F5F58
:100E40003F4F2530310599F70596485F5F4F4617AC
:100E5000570759F7FE01E15BFF4F7F0199249394F7
:100E600080E8A82EB12CD12CC12CCB55DF4F888126
:100E70009981C55AD04018161906FCF4C5010C2CEE
:100E800002C0959587950A94E2F7D70150962C9168
:100E90005097F801EC0DFD1D3081332389F1822B31
:100EA00050968C93D70150962C91492D70E060E0BC
:100EB000CE01815B9F4F0E944906BFEFCB1ADB0A30
:100EC000E8E0CE16D10489F6FFEFEF1AFF0A9394FB
:100ED000085F1F4F89E09812C6CFC05CDF4F0FB686
:100EE000F894DEBF0FBECDBFDF91CF911F910F9160
:100EF000FF90EF90DF90CF90BF90AF909F900895BC
:100F000080958223F701808BCDCFCF93DF93EC01C7
:100F100060E08E810E94C10261E08E810E94C10268
:100F200060E08E810E94C1028BE891E00197F1F7A9
:100F3000DF91CF910895CF92DF92EF92FF920F93BE
:100F40001F93CF93DF936C017C0187E0E80EF11CC7
:100F5000D0E0C0E0062F10E0B8010C2E02C075955D
:100F600067950A94E2F76170F70181917F010E9411
:100F7000C1022196C430D10579F7C601DF91CF9126
:100F80001F910F91FF90EF90DF90CF900C94850709
:100F9000CF92DF92EF92FF920F931F93CF93DF9345
:100FA000EC01F62E642F8C810E94C1028D818F3F4F
:100FB00019F060E00E94C1020F2D10E08F8584FFC0
:100FC00025C06E0187E0C80ED11CF12CE12CB801C0
:100FD0000E2C02C0759567950A94E2F76170F601D0
:100FE00081916F010E94C102FFEFEF1AFF0A88E0B2
:100FF000E816F10461F7CE01DF91CF911F910F91B7
:10100000FF90EF90DF90CF900C948507B80184E0BB
:10101000759567958A95E1F7CE010E949B076F2D24
:10102000CE01DF91CF911F910F91FF90EF90DF9054
:10103000CF900C949B0740E0682F8CE49DE00C94CB
:10104000C80781E00E941B088BE39FE10197F1F73D
:101050000895CF93DF93813029F090915B0D9860D4
:1010600090935B0D80935F0D1092600D80E48093F0
:10107000610D80E18093620D80E58093630D61E0F6
:101080008091500D0E94F3028091510D8F3F19F015
:1010900061E00E94F30261E08091520D0E94F30230
:1010A000CCE4DDE09E012C543D4080915B0D84FD3D
:1010B0000BC084E090E021962817390744F461E0E2
:1010C0008E810E94F302EECF88E090E0F4CF8BE3B4
:1010D0009DE00197F1F760E08091500D0E94C10200
:1010E00060E08091520D0E94C1028091510D8F3FAE
:1010F00019F060E00E94C10280915B0D84FD34C054
:1011000063E08CE49DE00E949B07CBE4D6E4CE0133
:101110000197F1F763E08CE49DE00E949B07219723
:10112000F1F763E08CE49DE00E949B0783E592E089
:101130000197F1F762E08CE49DE00E949B078091AB
:101140005B0D80620E941B0884E080935C0D8CE044
:101150000E941B080E94210882E080935D0D86E0BA
:10116000DF91CF910C941B0880620E941B088BE4D6
:1011700096E40197F1F780915B0D80620E941B0855
:1011800083E592E00197F1F780915B0D80620E9408
:101190001B08D5CF643008F063E090915F0D6917AC
:1011A00010F06FEF690FE62FF0E0E45BF24F9489E7
:1011B000890F80680C941B0841E00E94C80781E0F9
:1011C00090E00895DC0114968D919C911597681715
:1011D000790750F4ED91FC911197E60FF71F1596E2
:1011E0007C936E93149710820895FB010190002068
:1011F000E9F73197AF01461B570BDC01ED91FC91EC
:101200000280F381E02D1994CF93DF93BC0182EE2D
:101210009BE00E94E104EC016EE279E082EE9BE04B
:101220000E94F5088C0F9D1FDF91CF910895CF93F9
:10123000DF93BC0182EE9BE00E94F508EC016EE2B8
:1012400079E082EE9BE00E94F5088C0F9D1FDF91F4
:10125000CF9108950C94F5080E94210860E080E089
:101260000E94CA0861E379E08CE49DE00E942A09AB
:101270006CE271E080E090E00E94AF0461E080E009
:101280000E94CA086CE379E08CE49DE00E942A0980
:101290006CE271E080E090E00E94AF0462E080E0E8
:1012A0000E94CA086DE479E08CE49DE00E942A095E
:1012B0006CE271E080E090E00E94AF0463E080E0C7
:1012C0000E94CA086EE579E08CE49DE00E942A093C
:1012D0006CE271E080E090E00E94AF0464E080E0A6
:1012E0000E94CA086EE679E08CE49DE00E942A091B
:1012F0006CE271E080E090E00E94AF0465E080E085
:101300000E94CA086DE779E08CE49DE00E942A09FA
:1013100081EF9CE00E942D068823D1F381E090E0CC
:1013200090930102809300020895CF93DF93FC0114
:1013300001900020E9F73197E81BF90BDC0138E058
:10134000AD01481B590B4E175F0734F42D91ED0189
:10135000219723272883F4CFDF91CF910895FC01B3
:1013600024813581232B39F421E0FB0180818823FE
:1013700049F020E007C0808191810E94311C21E06A
:10138000892BB9F7822F08950F931F93CF93DF9383
:10139000EC0188819981009759F02A813B812617B9
:1013A000370730F081E0DF91CF911F910F910895C1
:1013B0008B016F5F7F4F0E94471B009759F0998305
:1013C00088831B830A832C813D81232B59F7FC01E1
:1013D0001082E8CF80E0E7CFEF92FF920F931F9348
:1013E000CF93DF93FB0101900020E9F73197E61BD3
:1013F000F70BE1F07B018C01DC011496CD91DC91BF
:10140000CE0FDF1FBE010E94C409882381F0F801BE
:101410002081318184819581B701820F931F0E94C1
:101420003A1CD8011596DC93CE93149781E0DF9196
:10143000CF911F910F91FF90EF900895EF92FF923F
:101440000F931F93CF93DF931F921F92CDB7DEB7F9
:101450008C0169831A82FC01E480F580FFEFEF1AAA
:10146000FF0AB7010E94C409882381F0F801208196
:10147000318184819581BE016F5F7F4F820F931F01
:101480000E943A1CF801F582E48281E00F900F90EF
:10149000DF91CF911F910F91FF90EF900895CF931F
:1014A000DF93EC0188819981009711F00E94BE1AA8
:1014B000198218821D821C821B821A82DF91CF91B1
:1014C0000895EF92FF920F931F93CF93DF93EC0158
:1014D0008617970781F0FB01008111810115110525
:1014E00039F0E480F580B7010E94C40981110BC076
:1014F000CE010E944F0ACE01DF91CF911F910F9133
:10150000FF90EF900895FD82EC82B8018881998167
:101510000E943A1CF0CFEF92FF920F931F93CF934C
:10152000DF93EC017B01198218821B821A821D82D3
:101530001C82FB0101900020E9F731978F01061B07
:10154000170BB8010E94C409811109C0CE01DF91B7
:10155000CF911F910F91FF90EF900C944F0A1D8334
:101560000C83B70188819981DF91CF911F910F91F1
:10157000FF90EF900C943A1CFC01808191810097C0
:1015800011F00C94BE1A0895BF92CF92DF92EF92A1
:10159000FF920F931F93CF93DF93CDB7DEB7C4565F
:1015A000D1090FB6F894DEBF0FBECDBF0E9421084F
:1015B00060E080E00E94CA086DE879E08CE49DE07C
:1015C0000E942A0968EC70E080E090E00E94AF047D
:1015D00061E080E00E94CA086CE979E08CE49DE05B
:1015E0000E942A0968EC70E080E090E00E94AF045D
:1015F00062E080E00E94CA0865EA79E08CE49DE040
:101600000E942A0968EC70E080E090E00E94AF043C
:1016100063E080E00E94CA0861EB79E08CE49DE021
:101620000E942A0960E379E0CE01815A9F4F0E940F
:101630008B0A0E9433038823C1F0A5962EAD3FADDF
:10164000A59722303105F0F5682FCE01815A9F4FC2
:101650000E941E0A63E08CE00E94CA08BE01615A23
:101660007F4F8CE49DE00E94E10481EF9CE00E94AA
:101670002D06882309F429C16DEB79E0CE01815A4A
:101680009F4F0E94AF09882309F441C082E090E097
:101690009093010280930002CE01815A9F4F0E94D5
:1016A000BC0ACC59DF4F0FB6F894DEBF0FBECDBFDA
:1016B000DF91CF911F910F91FF90EF90DF90CF902E
:1016C000BF90089563E08CE00E94CA086BEC79E05B
:1016D0008CE49DE00E942A0963E08CE00E94CA0825
:1016E00069EB79E08CE49DE00E942A0964E670E0F1
:1016F00080E090E00E94AF0463E08CE00E94CA08A2
:101700006BEC79E08CE49DE00E942A09A3CF6FEB9B
:1017100079E0CE01815A9F4F0E94AF09882319F0CA
:1017200083E090E0B5CF6BE779E0CE01815A9F4F1F
:101730000E94AF09882309F4AFCF60E080E00E94E7
:10174000CA0860E379E0CE01875A9F4F0E948B0A56
:1017500010E000E0F80195E0EE0FFF1F9A95E1F729
:10176000EA5DFA4F80E2DE01119601900D928A95B2
:10177000E1F71F930F938DB79EB7885591090FB668
:10178000F8949EBF0FBE8DBFADB7BEB7119688E56A
:10179000E4EFFCE001900D928A95E1F70E94E706E4
:1017A0000FB6F894DEBF0FBECDBF0E94330388236F
:1017B00091F08A330CF05BC081330CF07FC0833230
:1017C00009F45FC0803309F465C062E370E080E033
:1017D00090E00E94AF0481EF9CE00E942D068823D8
:1017E00009F4B8CFCE01875A9F4F0E94040988E5BB
:1017F000E4EFFCE0DE01119601900D928A95E1F78D
:101800008E010F5F1F4FBB24B39480E8C82ED12CEC
:10181000F12CE12C69968EAD9FAD699718161906CB
:101820009CF496010E2C02C0359527950A94E2F798
:101830002095F80180892823208B4B2D70E060E0F3
:10184000CE0101960E944906FFEFEF1AFF0A88E0D9
:10185000E816F104F9F60F5F1F4FB39499E0B9123F
:10186000D7CFCE01875A9F4F0E94BC0A15CF88352B
:1018700009F0ABCF0150110908F0A7CF0EE110E03D
:10188000A4CF0F5F1F4F0F31110509F09ECF10E05D
:1018900000E09BCFBE016F5F7F4FCE01875A9F4F05
:1018A0000E94EC0961E080E00E94CA08BE01675A0C
:1018B0007F4F8CE49DE00E94E10487CF682FCE012A
:1018C000875A9F4F0E941E0AEDCF8EEE9CE00E9429
:1018D0002D06882309F4ADCEA5966EAD7FADA597F4
:1018E0006115710509F4A5CE61507109CE01815AC7
:1018F0009F4F0E94E20861E080E00E94CA0861EC0C
:1019000079E08CE49DE00E942A0961E080E00E9479
:10191000CA08BE01615A7F4F8CE49DE00E94E10439
:1019200088CEFF920F931F93CF93DF93EC018B012F
:10193000FB01F0800E94041AF81621F06F2DCE01F1
:101940000E940C1AF801F1802196CE010E94041A1F
:10195000F81621F06F2DCE010E940C1AC801DF91FC
:10196000CF911F910F91FF9008950F931F93CF93E5
:10197000DF938C01EB010E94041A8883C801019651
:101980000E94041A8983CE01DF91CF911F910F919C
:101990000895CF93DF931F921F92CDB7DEB7BE019C
:1019A0006F5F7F4F8EE897E00E94B50C89819A8126
:1019B0000F900F90DF91CF910895CF92DF92EF9229
:1019C000FF920F931F93CF93DF93EC017B010E9453
:1019D000C90CE816F9069CF082ED99E00E941709FF
:1019E00083E2FE0111928A95E9F7CE01DF91CF9152
:1019F0001F910F91FF90EF90DF90CF90089583E2B9
:101A00008E9D80018F9D100D11247E01F3E2EF0E5B
:101A1000F11C6E010C1B1D0B0E56184FC8018C0DCE
:101A20009D1D0E94041AF60181936F01EE16FF06B8
:101A3000A9F7DBCF7F928F929F92AF92BF92CF9206
:101A4000DF92EF92FF920F931F93CF93DF9300D01B
:101A50001F92CDB7DEB7BE016F5F7F4F80E997E081
:101A60000E94B50C89819A818F3F9F40B4F086EE29
:101A700099E00E9417090F900F900F900F90DF913F
:101A8000CF911F910F91FF90EF90DF90CF90BF907B
:101A9000AF909F908F907F9008950E94C90C0196FF
:101AA0009A838983BE016F5F7F4F8EE897E00E9423
:101AB000910CBE016D5F7F4F80E997E00E94B50CED
:101AC0000B811C811EAB0DABBE016D5F7F4F80E9AA
:101AD00097E00E94B50C8B809C80CE0145966C01EE
:101AE000F12CE12CF60171906F015401AE0CBF1C7A
:101AF000C5010E94041A781621F0672DC5010E94C5
:101B00000C1AFFEFEF1AFF0A23E2E216F10451F775
:101B10000D5D1F4F1C830B83BE016D5F7F4F80E9FE
:101B200097E00E94910CA7CF1F920F920FB60F92D1
:101B300011242F933F938F939F93AF93BF938091E3
:101B4000410B9091420BA091430BB091440B30910B
:101B50003C0B23E0230F2D3758F50196A11DB11D35
:101B600020933C0B8093410B9093420BA093430B2B
:101B7000B093440B80913D0B90913E0BA0913F0B95
:101B8000B091400B0196A11DB11D80933D0B909328
:101B90003E0BA0933F0BB093400BBF91AF919F9131
:101BA0008F913F912F910F900FBE0F901F9018951E
:101BB00026E8230F0296A11DB11DD2CF1F920F92CE
:101BC0000FB60F9211240BB60F922F933F934F93A2
:101BD0005F936F937F938F939F93AF93BF93EF9395
:101BE000FF9385E49BE00E946D05FF91EF91BF910B
:101BF000AF919F918F917F916F915F914F913F91A5
:101C00002F910F900BBE0F900FBE0F901F90189545
:101C10001F920F920FB60F9211240BB60F922F93B3
:101C20008F939F93EF93FF93E091550BF091560B99
:101C30008081E0915B0BF0915C0B82FD1DC0908177
:101C400080915E0B8F5F8F7320915F0B821741F045
:101C5000E0915E0BF0E0EB5BF44F958F80935E0BB1
:101C6000FF91EF919F918F912F910F900BBE0F904D
:101C70000FBE0F901F9018958081F2CF1F920F9288
:101C80000FB60F9211240BB60F922F933F934F93E1
:101C90005F936F937F938F939F93AF93BF93EF93D4
:101CA000FF9382EE9BE00E946D05FF91EF91BF9143
:101CB000AF919F918F917F916F915F914F913F91E4
:101CC0002F910F900BBE0F900FBE0F901F90189585
:101CD0001F920F920FB60F9211240BB60F922F93F3
:101CE0008F939F93EF93FF93E091F20BF091F30B9F
:101CF0008081E091F80BF091F90B82FD1DC090817D
:101D00008091FB0B8F5F8F732091FC0B821741F04A
:101D1000E091FB0BF0E0EE51F44F958F8093FB0BBD
:101D2000FF91EF919F918F912F910F900BBE0F908C
:101D30000FBE0F901F9018958081F2CFCF93DF9345
:101D40001092480B1092470B48EE53E060E070E0B1
:101D50004093490B50934A0B60934B0B70934C0B81
:101D60008AE099E09093460B8093450B2DEC30E090
:101D70003093520B2093510B2CEC30E03093540BEA
:101D80002093530B28EC30E03093560B2093550BE7
:101D900029EC30E03093580B2093570B2AEC30E0BD
:101DA00030935A0B2093590B2EEC30E030935C0BA0
:101DB00020935B0B10925E0B10925F0B1092600BE6
:101DC0001092610B1092E50B1092E40B4093E60B1E
:101DD0005093E70B6093E80B7093E90B9093E30B40
:101DE0008093E20B85EC90E09093EF0B8093EE0BE9
:101DF00084EC90E09093F10B8093F00B80EC90E0FA
:101E00009093F30B8093F20B81EC90E09093F50BA1
:101E10008093F40B82EC90E09093F70B8093F60B99
:101E200086EC90E09093F90B8093F80B1092FB0BEB
:101E30001092FC0B1092FD0B1092FE0B10924F0DA6
:101E400010924E0D86E299E090934D0D80934C0DCB
:101E50008CE08093500D8FEF8093510D8BE0809339
:101E6000520D85E08093530D84E08093540D83E000
:101E70008093550D82E08093560D1092570D10926D
:101E8000580D1092590D10925A0D10925B0D81E071
:101E90000E942908CAE0D0E0D093450DC093440DBC
:101EA00088E090E09093470D8093460D89E090E0A4
:101EB0009093490D8093480D81E090E090934B0DF5
:101EC00080934A0D61E08AE00E94F30261E0809114
:101ED000460D0E94F30261E08091480D0E94F302DA
:101EE00061E08091480D0E94C102D093450DC093DE
:101EF000440DE4E0FDE084E49DE011928E179F071D
:101F0000E1F7D0E0C0E080914A0D90914B0DC817E9
:101F1000D907B4F520E04FE0BE0184EF9CE00E94B9
:101F2000490680914A0D90914B0DC817D9073CF492
:101F300027E04BE0BE0184EF9CE00E94490620E0D0
:101F400049E0BE0184EF9CE00E94490680914A0D61
:101F500090914B0DC817D9071CF4CE010E94C506FD
:101F600080914A0D90914B0DC817D9073CF420E0A1
:101F70004CE0BE0184EF9CE00E9449062196C3CF4D
:101F80001092F30C87E190E09093F20C8093F10CA7
:101F90001092F00C88E190E09093EF0C8093EE0C9F
:101FA0001092810C1092850C1092840C1092860C69
:101FB0008CE199E09093800C80937F0CEBE9FCE03E
:101FC00087ED9CE0108214821382158236968E175C
:101FD0009F07C1F785E092E09093E20C8093E10CBB
:101FE00082E092E09093E40C8093E30C84E0809391
:101FF000E50C83E08093E60C89E092E09093E00C9E
:102000008093DF0C8AE090E09093E80C8093E70CDB
:1020100084EF91E09093EA0C8093E90C1092ED0C20
:102020001092EC0C1092DB0C1092DC0C1092DD0C78
:102030001092DE0C1092EB0CDF91CF910895CF93AC
:10204000DF93CDB7DEB7C656D1090FB6F894DEBF21
:102050000FBECDBF789484B5826084BD84B58160A5
:1020600084BD85B5826085BD85B5816085BD809163
:102070006E00816080936E001092810080918100DB
:1020800082608093810080918100816080938100D3
:10209000809180008160809380008091B100846095
:1020A0008093B1008091B00081608093B0008091F6
:1020B0009100826080939100809191008160809373
:1020C0009100809190008160809390008091A100A8
:1020D00082608093A1008091A10081608093A10023
:1020E0008091A00081608093A00080912101826096
:1020F0008093210180912101816080932101809151
:10210000200181608093200180917A008460809317
:102110007A0080917A00826080937A0080917A00C0
:10212000816080937A0080917A00806880937A0041
:102130001092C10082EE9BE00E94740185E49BE056
:102140000E9474011A8219828E010F5F1F4FB8011D
:102150008EE897E00E94910C64E275E080E997E0D8
:102160000E94910C1A821982B80181E390E00E94CA
:10217000910C62E275E083E390E00E94910C82EFA3
:1021800099E00E941709F3E2DF2EF8012D2D11923C
:102190002A95E9F781E08BA381E690E0A1969FAFB5
:1021A0008EAFA197BE01615A7F4FCE01875A9F4FD4
:1021B0000E943A1CCE01875A9F4F0E94950986E0E3
:1021C000E4E3FBE0DE01A95BBF4F01900D928A952D
:1021D000E1F77E0134E2E30EF11CBE01695B7F4F43
:1021E000C7010E943A1CC7010E94950983E390E051
:1021F00065969FAF8EAF6597BE016D5A7F4FCE013A
:10220000835B9F4F0E943A1CCE01835B9F4F0E94CD
:102210009509BE01675A7F4FC8010E943A1CB70159
:10222000CE010D960E943A1CBE01635B7F4FCE012A
:1022300045960E943A1CCE01875A9F4F0E9417096B
:10224000CE01835B9F4F0E9417098DB79EB783977E
:102250000FB6F8949EBF0FBE8DBFADB7BEB7119637
:10226000F80101900D92DA94E1F70E941A0DEDB792
:10227000FEB7B3960FB6F894FEBF0FBEEDBF84E075
:102280000E94290880914A0D90914B0D181619064D
:1022900044F421E04CE070E060E084EF9CE00E94B8
:1022A000490680914A0D90914B0D1816190644F479
:1022B00028E04AE070E060E084EF9CE00E9449067C
:1022C00080914A0D90914B0D1816190624F490E058
:1022D00080E00E94C50660E08091F10C0E94F3024C
:1022E00060E08091EE0C0E94F30273E2272EEEE193
:1022F0004E2E512C80910002909101028230910566
:1023000009F4A3C04CF4009709F499C0019709F4AB
:1023100099C00E94FC05EECF8330910509F4A0C35B
:102320000497B9F70E94210860E080E00E94CA0883
:1023300061E17BE08CE49DE00E942A096CE271E09F
:1023400080E090E00E94AF0461E080E00E94CA0853
:102350006CE17BE08CE49DE00E942A096CE271E074
:1023600080E090E00E94AF0462E080E00E94CA0832
:1023700064E27BE08CE49DE00E942A096CE271E05B
:1023800080E090E00E94AF0463E080E00E94CA0811
:1023900061EB79E08CE49DE00E942A0960E379E03A
:1023A000C8010E948B0A0E943303882399F02D8173
:1023B0003E812230310508F0F2C7682FC8010E9423
:1023C0001E0A63E08AE00E94CA08B8018CE49DE01E
:1023D0000E94E10481EF9CE00E942D06882359F0C1
:1023E0006DEB79E0C8010E94AF09882311F40C94C9
:1023F000F7190E942C098EEE9CE00E942D0688237E
:1024000091F26D817E816115710569F261507109EA
:10241000C8010E94E20861E080E00E94CA0861EC05
:1024200079E08CE49DE00E942A0961E080E00E944E
:10243000CA08B8018CE49DE00E94E104B4CF0E9478
:102440002C0967CF0E94C40A64CF0E94210860E073
:1024500080E00E94CA0861E07AE08CE49DE00E947E
:102460002A0960E379E0CE01815A9F4F0E948B0ACE
:1024700080913A0B90913B0BFC0165E0EE0FFF1F42
:102480006A95E1F7EA5DFA4F20E2D80101900D92DA
:102490002A95E1F79F938F932DB73EB728553109C1
:1024A0000FB6F8943EBF0FBE2DBFADB7BEB71196A5
:1024B00088E5E4EFFCE001900D928A95E1F70E9437
:1024C000E7068DB79EB7865A9F4F0FB6F8949EBF0A
:1024D0000FBE8DBF0E9433038823F1F08A330CF0C6
:1024E00072C181330CF097C1833209F480C180330B
:1024F00009F48AC1A5968EAD9FADA59761E00C97B2
:1025000008F090C180E00E94CA08BE01615A7F4F66
:102510008CE49DE00E94E10481EF9CE00E942D0686
:10252000882309F4A4C1CE01815A9F4F0E94040957
:102530008AE09AE00E94170962E080E00E94CA08DF
:102540006AE17AE08CE49DE00E942A0960E379E088
:10255000CE01875A9F4F0E948B0A80913A0B90912F
:102560003B0BFC0155E0EE0FFF1F5A95E1F7EA5DCA
:10257000FA4F20E2D80101900D922A95E1F79F933E
:102580008F93EDB7FEB7E855F1090FB6F894FEBF8B
:102590000FBEEDBFADB7BEB7119688E5E4EFFCE026
:1025A00001900D928A95E1F70E94E7062DB73EB79C
:1025B000265A3F4F0FB6F8943EBF0FBE2DBF0E9464
:1025C00033038823F1F08A330CF07DC181330CF0A2
:1025D000A2C1833209F48BC1803309F495C16F968F
:1025E0008EAD9FAD6F9763E0089708F09BC180E0C8
:1025F0000E94CA08BE01675A7F4F8CE49DE00E948A
:10260000E10481EF9CE00E942D06882309F4B9C102
:10261000CE01875A9F4F0E940409A1966EAD7FADEF
:10262000A197FB0101900020E9F7CF018DB69EB67E
:10263000861B970B2DB73EB7281B390B0FB6F894A6
:102640003EBF0FBE2DBF8DB79EB701966C010E9495
:102650003A1CC6010E9495096B966EAD7FAD6B97D3
:10266000FB0101900020E9F7CF01861B970B2DB7E6
:102670003EB7281B390B0FB6F8943EBF0FBE2DBFD7
:102680008DB79EB701965C010E943A1CC5010E945D
:10269000950964E27AE082EE9BE00E942A09C60175
:1026A0000E94170965E37AE082EE9BE00E942A0906
:1026B000C5010E941709B501CE01835B9F4F0E949F
:1026C0008B0AB601CE018D5A9F4F0E948B0AD12CE6
:1026D000C12C0E94C90CC816D9060CF04CC1B60119
:1026E000C8010E94DD0C1DA21CA21FA21EA219A6D9
:1026F00018A6BE01635B7F4FC7010E94610A29963D
:102700001FAE1EAE29972B961FAE1EAE2B972D9691
:102710001FAE1EAE2D97BE016D5A7F4FCE01895B55
:102720009F4F0E94610A29966EAD7FAD2997C8011F
:102730000E94311C892B51F46CA17DA1CE014596DC
:102740000E94311CBB24B394892B09F0B12CCE011B
:10275000895B9F4F0E94BC0AC7010E94BC0ABB2034
:1027600009F405C183E2F801D70101900D928A9521
:10277000E1F7CE018D5A9F4F0E94BC0ACE01835BC8
:102780009F4F0E94BC0A8CA1811127C10E94210881
:1027900060E080E00E94CA0868E47AE08CE49DE092
:1027A0000E942A0961E080E00E94CA0862E57AE09E
:1027B0008CE49DE00E942A0968EE73E080E090E0DE
:1027C0000E94AF0430C1883509F094CE80913A0B55
:1027D00090913B0B019797FD05C090933B0B809325
:1027E0003A0B88CE50923B0B40923A0B83CE8091AD
:1027F0003A0B90913B0B01968F31910570F310923B
:102800003B0B10923A0B76CEB801CE01815A9F4F06
:102810000E94EC096FCE682FCE01815A9F4F0E9413
:102820001E0A68CE80E00E94CA0861EC79E08CE460
:102830009DE00E942A0961E080E00E94CA0869EBDD
:1028400079E08CE49DE00E942A0968EE73E080E064
:1028500090E00E94AF0461E080E00E94CA0861EC51
:1028600079E08CE49DE00E942A0961E04BCE8EEE77
:102870009CE00E942D06882309F4FACDA5966EAD42
:102880007FADA5976115710509F4F2CD615071090D
:10289000CE01815A9F4F0E94E20861E080E00E94D1
:1028A000CA0861EC79E08CE49DE00E942A0961E0AD
:1028B00080E00E94CA08BE01615A7F4F8CE49DE00F
:1028C0000E94E104D5CD883509F089CE80913A0B7C
:1028D00090913B0B019797FD05C090933B0B809324
:1028E0003A0B7DCE50923B0B40923A0B78CE8091C2
:1028F0003A0B90913B0B01968F31910570F310923A
:102900003B0B10923A0B6BCEB801CE01875A9F4F0A
:102910000E94EC0964CE682FCE01875A9F4F0E9417
:102920001E0A5DCE80E00E94CA0861EC79E08CE46A
:102930009DE00E942A0963E080E00E94CA0869EBDA
:1029400079E08CE49DE00E942A0968EE73E080E063
:1029500090E00E94AF0463E080E00E94CA0861EC4E
:1029600079E08CE49DE00E942A0963E040CE9FEF6D
:10297000C91AD90AAECEF701222D11922A95E9F78C
:10298000F8CE8EEE9CE00E942D06882309F4E5CD5A
:102990006F966EAD7FAD6F976115710509F4DDCD52
:1029A00061507109CE01875A9F4F0E94E20861E091
:1029B00083E00E94CA0861EC79E08CE49DE00E940B
:1029C0002A0961E083E00E94CA08BE01675A7F4F6E
:1029D0008CE49DE00E94E104C0CD0E94210860E0EB
:1029E00080E00E94CA0861E379E08CE49DE00E94E7
:1029F0002A0961E080E00E94CA08B7018CE49DE0EA
:102A00000E942A0927968FAD27978823E1F068EE68
:102A100073E080E090E00E94AF0484E090E0909347
:102A20000102809300020FB6F8949EBE0FBE8DBEC9
:102A3000CE01875A9F4F0E94BC0ACE01815A9F4FF8
:102A40000E94BC0A66CC68EE73E080E090E00E94D1
:102A5000AF04E5E0F0E0F0930102E0930002E3CF81
:102A60000E94210860E080E00E94CA086EE57AE0DA
:102A70008CE49DE00E942A0961E080E00E94CA087F
:102A800061E07AE08CE49DE00E942A0960E379E04D
:102A9000CE01875A9F4F0E948B0A80913A0B9091EA
:102AA0003B0BFC0145E0EE0FFF1F4A95E1F7EA5DA5
:102AB000FA4F20E2D80101900D922A95E1F79F93F9
:102AC0008F932DB73EB7285531090FB6F8943EBF06
:102AD0000FBE2DBFADB7BEB7119688E5E4EFFCE0A1
:102AE00001900D928A95E1F70E94E7068DB79EB797
:102AF000865A9F4F0FB6F8949EBF0FBE8DBF0E949F
:102B000033038823F1F08A330CF07BC281330CF05D
:102B1000A0C2833209F489C2803309F493C26F964C
:102B20008EAD9FAD6F9762E00D9708F099C280E07F
:102B30000E94CA08BE01675A7F4F8CE49DE00E9444
:102B4000E10481EF9CE00E942D06882309F4ADC2C8
:102B5000CE01875A9F4F0E9404090E94210860E01D
:102B600080E00E94CA086EE57AE08CE49DE00E9455
:102B70002A0961E080E00E94CA086BE67AE08CE4F2
:102B80009DE00E942A0960E379E0CE018D5A9F4FB3
:102B90000E948B0A80913A0B90913B0BFC0135E02F
:102BA000EE0FFF1F3A95E1F7EA5DFA4F20E2D801F8
:102BB00001900D922A95E1F79F938F93EDB7FEB7A1
:102BC000E855F1090FB6F894FEBF0FBEEDBFADB7E3
:102BD000BEB7119688E5E4EFFCE001900D928A956E
:102BE000E1F70E94E7062DB73EB7265A3F4F0FB6D2
:102BF000F8943EBF0FBE2DBF0E9433038823F1F02F
:102C00008A330CF07EC281330CF0A3C2833209F404
:102C10008CC2803309F496C269968EAD9FAD6997D8
:102C200062E0099708F09CC280E00E94CA08BE01D9
:102C30006D5A7F4F8CE49DE00E94E10481EF9CE09F
:102C40000E942D06882309F4B0C2CE018D5A9F4FF1
:102C50000E9404090E94210860E080E00E94CA08E6
:102C60006EE57AE08CE49DE00E942A0961E080E054
:102C70000E94CA0865E77AE08CE49DE00E942A0978
:102C800060E379E0CE01835B9F4F0E948B0A8091C5
:102C90003A0B90913B0BFC0125E0EE0FFF1F2A95AC
:102CA000E1F7EA5DFA4F20E2D80101900D922A95F2
:102CB000E1F79F938F938DB79EB7885591090FB613
:102CC000F8949EBF0FBE8DBFADB7BEB7119688E515
:102CD000E4EFFCE001900D928A95E1F70E94E7068F
:102CE000EDB7FEB7E65AFF4F0FB6F894FEBF0FBE22
:102CF000EDBF0E9433038823F1F08A330CF081C2C8
:102D000081330CF0A6C2833209F48FC2803309F4F8
:102D100099C263968EAD9FAD639762E00D9708F000
:102D20009FC280E00E94CA08BE01635B7F4F8CE4B3
:102D30009DE00E94E10481EF9CE00E942D06382E68
:102D4000882309F4B8C2CE01835B9F4F0E94040917
:102D50000E942108F701222D11922A95E9F76B961E
:102D60006EAD7FAD6B97FB0101900020E9F7CF01BD
:102D70002DB73EB7A7963FAF2EAFA797861B970BF1
:102D8000EDB7FEB7E81BF90B0FB6F894FEBF0FBE08
:102D9000EDBF2DB73EB72F5F3F4F6901C9010E94BC
:102DA0003A1CC6010E94950965966EAD7FAD659788
:102DB000FB0101900020E9F7CF01861B970B2DB78F
:102DC0003EB7281B390B0FB6F8943EBF0FBE2DBF80
:102DD0008DB79EB701965C010E943A1CC5010E9406
:102DE00095092F966EAD7FAD2F97FB0101900020C6
:102DF000E9F7CF01861B970B2DB73EB7281B390B80
:102E00000FB6F8943EBF0FBE2DBF8DB79EB701968B
:102E10003C010E943A1CC3010E949509B601C701FA
:102E20000E943A1CB501CE01C0960E943A1CB30123
:102E3000CE01C8960E943A1CB601CE01895B9F4F15
:102E40000E948B0A912C812C0E94C90C881699062D
:102E50000CF02FC2B401C8010E94DD0C29966EADA2
:102E60007FAD2997C8010E94311C892B09F01DC232
:102E7000932CCE01895B9F4F0E94BC0A9920E1F000
:102E80000E94210860E080E00E94CA0863E87AE0BE
:102E90008CE49DE00E942A0961E080E00E94CA085B
:102EA00061E97AE08CE49DE00E942A0960ED77E018
:102EB00080E090E00E94AF04F60101900020E9F765
:102EC000CF018C199D090997059738F10E942108B7
:102ED00060E080E00E94CA086BE97AE08CE49DE043
:102EE0000E942A0961E080E00E94CA0865EA7AE04F
:102EF0008CE49DE00E942A0962E080E00E94CA08FA
:102F00006BEB7AE08CE49DE00E942A0960ED77E0AB
:102F100080E090E00E94AF04932CF5010190002026
:102F2000E9F7CF0109978A159B05E9F00E9421086E
:102F300060E080E00E94CA086EEC7AE08CE49DE0DC
:102F40000E942A0961E080E00E94CA086AEA7AE0E9
:102F50008CE49DE00E942A0960ED77E080E090E03B
:102F60000E94AF04932CF30101900020E9F7CF01F8
:102F7000861997090997059708F4C9C10E94210885
:102F800060E080E00E94CA086DED7AE08CE49DE08C
:102F90000E942A0961E080E00E94CA0865EA7AE09E
:102FA0008CE49DE00E942A0962E080E00E94CA0849
:102FB0006BEB7AE08CE49DE00E942A0960ED77E0FB
:102FC00080E090E00E94AF04E1E0F0E0F0930102C5
:102FD000E0930002A7962EAD3FADA7970FB6F894E9
:102FE0003EBF0FBE2DBFCE01835B9F4F0E94BC0A28
:102FF000CE018D5A9F4F0E94BC0ACE01875A9F4F27
:103000001FCD883509F08BCD80913A0B90913B0B09
:10301000019797FD05C090933B0B80933A0B7FCDB2
:1030200050923B0B40923A0B7ACD80913A0B9091A3
:103030003B0B01968F31910570F310923B0B109270
:103040003A0B6DCDB801CE01875A9F4F0E94EC0913
:1030500066CD682FCE01875A9F4F0E941E0A5FCD12
:1030600080E00E94CA0868EC79E08CE49DE00E9450
:103070002A0962E080E00E94CA0869EB79E08CE4EA
:103080009DE00E942A0968EE73E080E090E00E94D3
:10309000AF0462E080E00E94CA0868EC79E08CE44A
:1030A0009DE00E942A0962E042CD8EEE9CE00E94E3
:1030B0002D06882309F4F1CC6F966EAD7FAD6F9726
:1030C0006115710509F4E9CC61507109CE01875A87
:1030D0009F4F0E94E20862E080E00E94CA0861EC13
:1030E00079E08CE49DE00E942A0962E080E00E9481
:1030F000CA08BE01675A7F4F8CE49DE00E94E1043C
:10310000CCCC883509F088CD80913A0B90913B0B5F
:10311000019797FD05C090933B0B80933A0B7CCDB4
:1031200050923B0B40923A0B77CD80913A0B9091A5
:103130003B0B01968F31910570F310923B0B10926F
:103140003A0B6ACDB801CE018D5A9F4F0E94EC090F
:1031500063CD682FCE018D5A9F4F0E941E0A5CCD11
:1031600080E00E94CA0868EC79E08CE49DE00E944F
:103170002A0962E080E00E94CA0869EB79E08CE4E9
:103180009DE00E942A0968EE73E080E090E00E94D2
:10319000AF0462E080E00E94CA0868EC79E08CE449
:1031A0009DE00E942A0962E03FCD8EEE9CE00E94E5
:1031B0002D06882309F4EECC69966EAD7FAD699734
:1031C0006115710509F4E6CC61507109CE018D5A83
:1031D0009F4F0E94E20862E080E00E94CA0861EC12
:1031E00079E08CE49DE00E942A0962E080E00E9480
:1031F000CA08BE016D5A7F4F8CE49DE00E94E10435
:10320000C9CC883509F085CD80913A0B90913B0B64
:10321000019797FD05C090933B0B80933A0B79CDB6
:1032200050923B0B40923A0B74CD80913A0B9091A7
:103230003B0B01968F31910570F310923B0B10926E
:103240003A0B67CDB801CE01835B9F4F0E94EC091A
:1032500060CD682FCE01835B9F4F0E941E0A59CD1F
:1032600080E00E94CA0868EC79E08CE49DE00E944E
:103270002A0962E080E00E94CA0869EB79E08CE4E8
:103280009DE00E942A0968EE73E080E090E00E94D1
:10329000AF0462E080E00E94CA0868EC79E08CE448
:1032A0009DE00E942A0962E03CCD9FEF891A990AAD
:1032B000CBCD912CDECD8EEE9CE00E942D06882396
:1032C00009F4E5CC63966EAD7FAD6397611571052A
:1032D00009F4DDCC61507109CE01835B9F4F0E94E0
:1032E000E20862E080E00E94CA0861EC79E08CE4C8
:1032F0009DE00E942A0962E080E00E94CA08BE01A7
:10330000635B7F4F8CE49DE00E94E104C0CC911090
:103310005BCE27961FAE2797B601C7010E943A1CC5
:10332000B501CE01C0960E943A1CB301CE01C896E9
:103330000E943A1C6CEE7AE082EE9BE00E942A0921
:103340000E94210861E080E00E94CA0861E07BE001
:103350008CE49DE00E942A0968EE73E080E090E032
:103360000E94AF042DB73EB7235231090FB6F8942F
:103370003EBF0FBE2DBFADB7BEB7119683E2F701BA
:1033800001900D928A95E1F70E941A0D8DB79EB7B4
:1033900083960FB6F8949EBF0FBE8DBF15CE61E029
:1033A00080E00E94CA0861EC79E08CE49DE00E9414
:1033B0002A0961E080E00E94CA0869EB79E08CE4A8
:1033C0009DE00E942A0968EE73E080E090E00E9490
:1033D000AF0461E080E00E94CA0861EC79E08CE40F
:1033E0009DE00E942A0961E080E00C94E3116FEBFC
:1033F00079E0C8010E94AF09882321F00E94C40A25
:103400000C94FB11C8011CCBF999FECF92BD81BD74
:10341000F89A992780B50895262FF999FECF1FBAFB
:1034200092BD81BD20BD0FB6F894FA9AF99A0FBEED
:1034300001960895EE0FFF1F881F8BBF0790F6912E
:10344000E02D19940F931F93CF93DF938230910552
:1034500010F482E090E0E091660DF091670D30E0AD
:1034600020E0B0E0A0E0309799F42115310509F48F
:103470004AC0281B390B24303105D8F58A819B813D
:103480006115710589F1FB0193838283FE0111C0EF
:10349000408151810281138148175907E0F0481794
:1034A000590799F4109761F012960C93129713969E
:1034B0001C933296CF01DF91CF911F910F91089508
:1034C0000093660D1093670DF4CF2115310551F06F
:1034D0004217530738F0A901DB019A01BD01DF0152
:1034E000F801C1CFEF01F9CF9093670D8093660D7E
:1034F000CDCFFE01E20FF31F81939193225031094A
:1035000039832883D7CF2091640D3091650D232B0B
:1035100041F420911702309118023093650D2093E9
:10352000640D20911502309116022115310541F4E8
:103530002DB73EB74091190250911A02241B350B4A
:10354000E091640DF091650DE217F307A0F42E1BD6
:103550003F0B2817390778F0AC014E5F5F4F2417F7
:10356000350748F04E0F5F1F5093650D4093640D73
:10357000819391939FCFF0E0E0E09CCFCF93DF93D6
:103580000097E9F0FC01329713821282A091660D38
:10359000B091670DED0130E020E01097A1F420819B
:1035A0003181820F931F2091640D3091650D281792
:1035B000390709F061C0F093650DE093640DDF9168
:1035C000CF910895EA01CE17DF07E8F54A815B81C4
:1035D0009E0141155105B1F7E901FB83EA83499149
:1035E0005991C40FD51FEC17FD0761F480819181BB
:1035F0000296840F951FE9019983888382819381C4
:103600009B838A83F0E0E0E012968D919C91139762
:103610000097B9F52D913C911197CD010296820F3B
:10362000931F2091640D3091650D2817390739F6E5
:10363000309751F51092670D1092660DB093650D9D
:10364000A093640DBCCFD383C28340815181840F8A
:10365000951FC817D90761F44E5F5F4F8881998124
:10366000480F591F518340838A819B8193838283B2
:103670002115310509F0B0CFF093670DE093660D89
:103680009ECFFD01DC01C0CF13821282D7CF4F92B3
:103690005F926F927F928F929F92AF92BF92CF92E2
:1036A000DF92EF92FF920F931F93CF93DF938C01E2
:1036B000009799F4CB01DF91CF911F910F91FF906B
:1036C000EF90DF90CF90BF90AF909F908F907F90C2
:1036D0006F905F904F900C94221AFC01E60FF71F39
:1036E0009C0122503109E217F30708F4AEC0D9015A
:1036F000CD91DC911197C617D70720F1C530D105C0
:1037000078F0CE0104978617970750F0C61BD70BA9
:103710002297C193D1936D937C93CF010E94BE1ADF
:10372000C801DF91CF911F910F91FF90EF90DF9033
:10373000CF90BF90AF909F908F907F906F905F9051
:103740004F9008955B01AC1ABD0A4C018C0E9D1E72
:10375000A091660DB091670D512C412CF12CE12CFC
:10376000109731F58091640D9091650D881599053C
:1037700009F05CC04616570608F058C08091150243
:1037800090911602009741F48DB79EB740911902AF
:1037900050911A02841B950BE817F90708F055C0E1
:1037A000F093650DE093640DF90171836083B8CFE8
:1037B0008D919C91119712966C90129713967C9014
:1037C0001397A815B90559F56C0142E0C40ED11C38
:1037D000CA14DB0420F1AC014A195B09DA01129624
:1037E000159780F06282738251834083D9016D9373
:1037F0007C93E114F10471F0D7011396FC93EE93DE
:1038000012978ECF22968C0F9D1FF9019183808392
:10381000F301EFCFF093670DE093660D81CF48166B
:10382000590608F42C017D01D3019ACFCB010E94E7
:10383000221A7C01009749F0AE01B8010E94281CB1
:10384000C8010E94BE1A87016BCF10E000E068CF6C
:10385000FB01DC0102C001900D9241505040D8F7AD
:103860000895FB01DC018D91019080190110D9F3BD
:10387000990B0895FB01DC0101900D920020E1F706
:103880000895F894FFCF03001E1F201A1B1C1D3142
:1038900032333435363738395830230000680D80DC
:1038A000000001010100010000000101010101010E
:1038B00001000000010100000001010101010001FF
:1038C00000000001010101010001000000010101EF
:1038D00001010001010101010100000000010000DF
:1038E00000000100000000010101010101010101CE
:1038F00000010000000101000000010100000001C2
:1039000001010101000101010101010000000001AC
:10391000010101010100000000010101010101019B
:10392000010101010000000001010101010100008D
:103930000000010000000000010101010100000081
:10394000000100010101010000000100010101016D
:10395000010000000101000000010101010101015D
:10396000000000010100000001010101010100004F
:103970000100000000010000000001000001010141
:10398000010101010101010000010000000001002E
:103990000000000100000101000000010000010022
:1039A0000100010000010100000001000100000110
:1039B0000000010001000000000100000000010003
:1039C00000000001000000000101010101010100EF
:1039D00001010100010001010000000101000000DF
:1039E00001010000000101000000010101000001CF
:1039F00001000100010100000101010000000100BF
:103A000000010100010100000101000100010100AD
:103A1000000101010000000100010101000100009E
:103A2000000101000000010100000001000101018E
:103A3000000001010100010000000101010101007D
:103A40000100000000010000000000010101000170
:103A5000000000010100000001010001000100015F
:103A6000010101010101010001000000010101014A
:103A7000010001000001000100000001000101013E
:103A80000101000000000001010100000000000130
:103A9000010101010001010101010000010000001C
:103AA0000001000000000100000000010000010012
:103AB0000000010100000001010000000101000000
:103AC00000010001010100010000000101000000EF
:103AD00001010000000100010001000000010000E0
:103AE00001000000010100000001010000000101CF
:103AF00000010001010100010101000000010001BD
:103B000000010000000100000001000100010000B0
:103B1000000101000000010001000100000001009F
:103B2000000000010000000001000001010101018E
:103B30000000000100000001000000010000000181
:103B4000010101010100010001000101010000006B
:103B5000010000000101010001000100010001005D
:103B60000100010101010100010001000101010149
:103B7000010001000100000101010101000100003C
:103B8000000101010000000100010101010100002C
:103B90000001000000000100000000010000000022
:103BA00000000000000100003500920761000000E5
:103BB0000000000000000000000000000000000005
:103BC0000000000000000000000000006200000093
:103BD00000000000000000000000000000000000E5
:103BE0000000000000000000000001006300000071
:103BF00000000000000000000000000000000000C5
:103C0000000000000000000000000200640000004E
:103C100000000000000000000000000000000000A4
:103C2000000000000000000000000300650000002C
:103C30000000000000000000000000000000000084
:103C4000000000000000000000000400660000000A
:103C50000000000000000000000000000000000064
:103C600000000000000000000000050067000000E8
:103C70000000000000000000000000000000000044
:103C800000000000000000000000060068000000C6
:103C90000000000000000000000000000000000024
:103CA00000000000000000000000070069000000A4
:103CB0000000000000000000000000000000000004
:103CC0000000000000000000000008006A00000082
:103CD00000000000000000000000000000000000E4
:103CE0000000000000000000000009006B00000060
:103CF00000000000000000000000000000000000C4
:103D0000000000000000000000000A006C0000003D
:103D100000000000000000000000000000000000A3
:103D2000000000000000000000000B006D0000001B
:103D30000000000000000000000000000000000083
:103D4000000000000000000000000C006E000000F9
:103D50000000000000000000000000000000000063
:103D6000000000000000000000000D00C3B10000D2
:103D70000000000000000000000000000000000043
:103D8000000000000000000000000E006F000000B6
:103D90000000000000000000000000000000000023
:103DA000000000000000000000000F007000000094
:103DB0000000000000000000000000000000000003
:103DC0000000000000000000000010007100000072
:103DD00000000000000000000000000000000000E3
:103DE0000000000000000000000011007200000050
:103DF00000000000000000000000000000000000C3
:103E0000000000000000000000001200730000002D
:103E100000000000000000000000000000000000A2
:103E2000000000000000000000001300740000000B
:103E30000000000000000000000000000000000082
:103E400000000000000000000000140075000000E9
:103E50000000000000000000000000000000000062
:103E600000000000000000000000150076000000C7
:103E70000000000000000000000000000000000042
:103E800000000000000000000000160077000000A5
:103E90000000000000000000000000000000000022
:103EA0000000000000000000000017007800000083
:103EB0000000000000000000000000000000000002
:103EC0000000000000000000000018007900000061
:103ED00000000000000000000000000000000000E2
:103EE0000000000000000000000019007A0000003F
:103EF00000000000000000000000000000000000C2
:103F0000000000000000000000001A002A0000006D
:103F100000000000000000000000000000000000A1
:103F2000000000000000000000001B002300000053
:103F30000000000000000000000000000000000081
:103F4000000000000000000000001C002400000031
:103F50000000000000000000000000000000000061
:103F6000000000000000000000001D002100000013
:103F70000000000000000000000000000000000041
:103F8000000000000000000000001E000000000013
:103F90008F05EF041C05DC054D052B053F050000D2
:103FA00000002F03EF02BE0200000000DC08EF0457
:103FB0002A0629060D0A004269656E76656E6964F7
:103FC0006F00526F626572746F323032303030354C
:103FD0003434004564676172646F32303138303197
:103FE0003131390043657361722032303230313003
:103FF000383136004A6F7365203230323030313814
:10400000303000416E67656C2032303230313230F2
:104010003339004D656E75205072696E6369706149
:104020006C00312E204C6F67696E00322E20526575
:1040300067697374726F004F7063696F6E3A004DF9
:104040004158003100320020202020202020202054
:104050002020202020202000496E646578206F7584
:1040600074206F6620626F756E6473004545505210
:104070004F4D2046554C4C00454550524F4D205217
:10408000455345544544004E6F6D6272653A2000B9
:1040900053616C692064656C206E6F6D627265009F
:1040A00050617373776F72643A004E6F6D62726520
:1040B000206369667261646F3A20005061737377A0
:1040C0006F7264206369667261646F3A2000496EA2
:1040D000636F72726563740043726564656E7469C0
:1040E000616C73003D3D526567697374726F3D3D4D
:1040F0000043656C756C61723A2000436F6E747298
:104100006173656E69613A2000456C207573756155
:1041100072696F20796100657869737465203A2847
:1041200000456C206E6F6D6272650064656265208B
:1041300073657220646520382064696769746F73E1
:10414000006D696E696D6F2079203132206D617864
:10415000696D6F00456C206E756D65726F206465CA
:104160006265004C6120636F6E74726173656E6985
:1041700061005573756172696F2072656769737448
:104180007261646F3A2000557365722052656769E9
:10419000737465726564004D656E752041444D49C8
:1041A0004E00312E204C4F475300322E20434845BD
:1041B000434B205354415455530039343036390061
:020000040003F7
:10E000000D9489F10D94B2F10D94B2F10D94B2F129
:10E010000D94B2F10D94B2F10D94B2F10D94B2F1F0
:10E020000D94B2F10D94B2F10D94B2F10D94B2F1E0
:10E030000D94B2F10D94B2F10D94B2F10D94B2F1D0
:10E040000D94B2F10D94B2F10D94B2F10D94B2F1C0
:10E050000D94B2F10D94B2F10D94B2F10D94B2F1B0
:10E060000D94B2F10D94B2F10D94B2F10D94B2F1A0
:10E070000D94B2F10D94B2F10D94B2F10D94B2F190
:10E080000D94B2F10D94B2F10D94B2F10D94B2F180
:10E090000D94B2F10D94B2F10D94B2F10D94B2F170
:10E0A0000D94B2F10D94B2F10D94B2F10D94B2F160
:10E0B0000D94B2F10D94B2F10D94B2F10D94B2F150
:10E0C0000D94B2F10D94B2F10D94B2F10D94B2F140
:10E0D0000D94B2F10D94B2F10D94B2F10D94B2F130
:10E0E0000D94B2F141546D656761323536300041AF
:10E0F000726475696E6F206578706C6F72657220DE
:10E1000073746B3530305632206279204D4C530099
:10E11000426F6F746C6F616465723E004875683F52
:10E1200000436F6D70696C6564206F6E203D200048
:10E130004350552054797065202020203D20005FF9
:10E140005F4156525F415243485F5F3D2000415658
:10E1500052204C696243205665723D20004743437C
:10E160002056657273696F6E203D20004350552024
:10E1700049442020202020203D20004C6F7720663D
:10E18000757365202020203D20004869676820665F
:10E190007573652020203D200045787420667573D6
:10E1A00065202020203D20004C6F636B2066757336
:10E1B000652020203D20004D617220203720323024
:10E1C000313300312E362E3800342E332E350056A2
:10E1D00023202020414444522020206F7020636F70
:10E1E00064652020202020696E73747275637469E1
:10E1F0006F6E2061646472202020496E74657272B3
:10E20000757074006E6F20766563746F7200726A49
:10E210006D702020006A6D70200057686174207056
:10E220006F72743A00506F7274206E6F7420737541
:10E2300070706F72746564004D7573742062652030
:10E2400061206C6574746572002000577269747483
:10E25000696E672045450052656164696E672045B7
:10E26000450045452065727220636E743D00504F35
:10E27000525400303D5A65726F2061646472003FF1
:10E280003D43505520737461747300403D454550C3
:10E29000524F4D207465737400423D426C696E6B41
:10E2A000204C454400453D44756D70204545505215
:10E2B0004F4D00463D44756D7020464C415348001B
:10E2C000483D48656C70004C3D4C69737420492F83
:10E2D0004F20506F72747300513D51756974005234
:10E2E0003D44756D702052414D00563D73686F7707
:10E2F00020696E7465727275707420566563746FF0
:10E30000727300593D506F727420626C696E6B00BD
:10E310002A0011241FBECFEFD1E2DEBFCDBF01E046
:10E320000CBF12E0A0E0B2E0EEE1FDEF03E00BBFB6
:10E3300002C007900D92A030B107D9F712E0A0E01B
:10E34000B2E001C01D92AE30B107E1F70F9460F367
:10E350000D948DFE01E20EBF0FEF0DBF11241FBE05
:10E360000D9460F30D9400F020E030E040ED57E0B4
:10E3700005C0FA013197F1F72F5F3F4F2817390792
:10E38000C0F308959C01260F311DC901A0E0B0E043
:10E390002F5F3F4FABBFFC018791882361F08093D3
:10E3A000C6008091C00086FFFCCF8091C0008064D1
:10E3B0008093C000EACF08958DE08093C6008091DD
:10E3C000C00086FFFCCF8091C00080648093C000B5
:10E3D0008AE08093C6008091C00086FFFCCF8091C8
:10E3E000C00080648093C00008950F94C2F10F9420
:10E3F000DCF10895FC019081992359F09093C600B7
:10E400008091C00086FFFCCF8091C0008064809323
:10E41000C0003196992379F70895282F982F929567
:10E420009F70892F805D8A3308F0895F8093C600D2
:10E430008091C00086FFFCCF8091C00080648093F3
:10E44000C000822F8F70982F905D9A3308F0995FEB
:10E450009093C6008091C00086FFFCCF8091C000E1
:10E4600080648093C00008959C01FB01853691056E
:10E470001CF46330710594F0C90164E670E00F94F8
:10E480002EFE605D7F4F6093C6008091C00086FFC6
:10E49000FCCF8091C00080648093C0002B30310598
:10E4A00014F43297B4F0C90164E670E00F942EFEC4
:10E4B0006AE070E00F942EFE605D7F4F6093C600AF
:10E4C0008091C00086FFFCCF8091C0008064809363
:10E4D000C000C9016AE070E00F942EFEC0968093E0
:10E4E000C6008091C00086FFFCCF8091C000806490
:10E4F0008093C00008951F93182F8EE692EE60E07F
:10E500000F94C2F11093C6008091C00086FFFCCF2B
:10E510008091C00080648093C0000F94DCF11F9153
:10E5200008952F923F924F925F926F927F928F92B7
:10E530009F92AF92BF92CF92DF92EF92FF920F9392
:10E540001F93DF93CF93CDB7DEB762970FB6F894E2
:10E55000DEBF0FBECDBF382E622ECA01DB015C01CB
:10E560006D01772420E2222E2E010894411C511CBB
:10E570008BC081E0A81680E0B80681E0C80680E084
:10E58000D80628F0C601AA27BB270F940DF2BB2797
:10E59000AD2D9C2D8B2D0F940DF28A2D0F940DF225
:10E5A0002092C6008091C00086FFFCCF8091C00001
:10E5B00080648093C0009DE29093C6008091C0006B
:10E5C00086FFFCCF8091C00080648093C0002092C1
:10E5D000C6008091C00086FFFCCF8091C00080649F
:10E5E0008093C00019828601750188249924A1E0D6
:10E5F0003A1651F03A1620F0B2E03B1661F409C029
:10E600000BBFF701779007C0C7010F9477FE782EF4
:10E6100002C0F7017080872D0F940DF22092C60082
:10E620008091C00086FFFCCF8091C0008064809301
:10E63000C000872D8052F401EF70F0708F3520F408
:10E64000E40DF51D708204C0E40DF51D8EE280839B
:10E650000894E11CF11C011D111D0894811C911CE2
:10E6600090E18916910409F0C2CF80E190E0A0E02A
:10E67000B0E0A80EB91ECA1EDB1E198AC2010F9493
:10E68000FAF10F94DCF16A94662009F072CF629679
:10E690000FB6F894DEBF0FBECDBFCF91DF911F91B3
:10E6A0000F91FF90EF90DF90CF90BF90AF909F9031
:10E6B0008F907F906F905F904F903F902F90089534
:10E6C0002F923F924F925F926F927F928F929F9282
:10E6D000AF92BF92CF92DF92EF92FF920F931F9370
:10E6E000DF93CF93CDB7DEB7CD53D1400FB6F894BB
:10E6F000DEBF0FBECDBF01E20EBF0FEF0DBF94B75F
:10E70000F894A89514BE80916000886180936000A1
:10E7100010926000789493FF05C0E0910002F091A0
:10E7200001021995279A2F9A8091C00082608093E8
:10E73000C00080E18093C40088E18093C1000000A4
:10E74000EE24FF24870144E0A42EB12CCC24DD2448
:10E7500024C0C5010197F1F70894E11CF11C011DCB
:10E76000111D21E2E2162EE4F20620E0020720E06D
:10E77000120718F031E0C32ED12CC801B70127ECE5
:10E780003BE140E050E00F9441FE611571058105C9
:10E79000910519F485B1805885B98091C00087FD35
:10E7A00003C0C114D104A9F2A6014F5F5F4FC25E3E
:10E7B000DE4F59834883CE51D140C25EDE4F8881FF
:10E7C0009981CE51D140019711F00D9410FEC05D9A
:10E7D000DE4F19821882C053D14060E0C15DDE4F28
:10E7E0001882CF52D14088249924C35DDE4F19820C
:10E7F0001882CD52D140C05EDE4F188219821A8233
:10E800001B82C052D140CE5CDE4F188219821A8220
:10E810001B82C253D140EE24FF2487010BBFF701B6
:10E8200007911691C45CDE4F19830883CC53D14005
:10E830000D940BFEC25EDE4F28813981CE51D1404E
:10E840002130310509F52091C600C25EDE4F1982E4
:10E850001882CE51D14022C02F5F3F4F4F4F5F4FA4
:10E86000213082E138078AE7480780E0580780F0C6
:10E87000C45CDE4FE881F981CC53D140EF5FFF4F9C
:10E8800019F0EE27FF27099420E030E040E050E047
:10E890008091C00087FFE0CF2091C600C35DDE4FAE
:10E8A00048815981CD52D1404F5F5F4FC35DDE4FEC
:10E8B00059834883CD52D140213209F063C64A3092
:10E8C000510508F05FC60894811C911C53E0851621
:10E8D000910409F059C600E010E018C081E280936D
:10E8E000C6008091C00086FFFCCF8091C00080648C
:10E8F0008093C0002F5F3F4F2931310579F70F9486
:10E90000DCF10F5F1F4F0530110519F020E030E0FA
:10E91000E5CF10920A0210920B0210920C02109294
:10E920000D02109206021092070210920802109235
:10E930000902109202021092030210920402109235
:10E9400005028FEE90EE60E00F94F5F180E191EE1C
:10E9500060E00F94C2F18091C00087FFFCCF9091DE
:10E96000C600903608F09F759032B8F09093C600BC
:10E970008091C00086FFFCCF8091C00080648093AE
:10E98000C000A0E2A093C6008091C00086FFFCCF2B
:10E990008091C00080648093C000983409F4D7C18E
:10E9A0009934B8F4923409F459C1933458F490333B
:10E9B00019F1903308F4E3C59F33A1F1903409F0C5
:10E9C000DEC5BDC0953409F470C1963409F0D7C5D1
:10E9D00098C1923509F42BC2933538F49C3409F46C
:10E9E000F5C1913509F0CBC518C2963509F445C279
:10E9F000993509F0C4C567C483E792EE62E00F94CD
:10EA0000F5F110920602109207021092080210927D
:10EA1000090210920A0210920B0210920C0210923C
:10EA20000D0213C18FE792EE62E00F94F5F18FEEC5
:10EA300090EE60E00F94F5F181E291EE60E00F94CA
:10EA4000C2F187EB91EE60E00F94F5F180E391EE77
:10EA500060E00F94C2F184EE90EE60E00F94F5F167
:10EA60008FE391EE60E00F94C2F186E090E061E008
:10EA700070E00F9434F20F94DCF18DE591EE60E0DC
:10EA80000F94C2F189EC91EE60E00F94F5F18EE401
:10EA900091EE60E00F94C2F183EC91EE60E00F9490
:10EAA000F5F18CE691EE60E00F94C2F18EE10F94E7
:10EAB0000DF288E90F940DF281E00F940DF20F949E
:10EAC000DCF18BE791EE60E00F94C2F119E0E0E039
:10EAD000F0E010935700E4918E2F0F940DF20F94F5
:10EAE000DCF18AE891EE60E00F94C2F1E3E0F0E03F
:10EAF00010935700E4918E2F0F940DF20F94DCF1D8
:10EB000089E991EE60E00F94C2F1E2E0F0E0109349
:10EB10005700E4918E2F0F940DF20F94DCF188EAE8
:10EB200091EE60E00F94C2F1E1E0F0E01093570045
:10EB30001491812F0F940DF20F94DCF107CF8BE825
:10EB400092EE62E00F94F5F18BE492EE60E00F94A8
:10EB5000F5F10F94DCF100E010E019C0C8016F2D51
:10EB60000F947FFEFF2031F489E492EE60E00F9471
:10EB7000C2F10BC0F092C6008091C00086FFFCCFAE
:10EB80008091C00080648093C0000F5F1F4FC80158
:10EB900081519F41A0E0B0E0ABBFFC01F790BAE229
:10EBA000FB1621F0E2E000301E07C1F60F94DCF105
:10EBB0000F94DCF187E592EE60E00F94F5F10F948D
:10EBC000DCF1CC24DD2400E010E01EC0C8010F946D
:10EBD00077FEF82E882331F489E492EE60E00F94FA
:10EBE000C2F10BC08093C6008091C00086FFFCCFAD
:10EBF0008091C00080648093C000FE1419F00894D6
:10EC0000C11CD11C0F5F1F4FC80181519F41A0E063
:10EC1000B0E0ABBFFC01E790FAE2EF1621F022E092
:10EC20000030120799F60F94DCF10F94DCF182E6C4
:10EC300092EE60E00F94C2F1C60161E070E00F94C3
:10EC400034F20F94DCF10F94DCF110920202109276
:10EC50000302109204021092050278CE89E992EE26
:10EC600062E00F94F5F1279A2F9A16C02F9880E052
:10EC700090E0E0EDF7E03197F1F7019684369105E9
:10EC8000C1F72F9A80E090E0E0EDF7E03197F1F7DF
:10EC9000019684369105C1F78091C00087FFE6CFC9
:10ECA0008091C00087FFFCCF64C485EA92EE62E0E9
:10ECB0000F94F5F140910202509103026091040219
:10ECC0007091050281E020E10F9491F2809102029F
:10ECD00090910302A0910402B091050280509F4FD1
:10ECE000AF4FBF4F8093020290930302A0930402A0
:10ECF000B093050280509041A040B04008F426CE69
:10ED0000A4CF83EB92EE62E00F94F5F140910602FE
:10ED100050910702609108027091090280E020E1A1
:10ED20000F9491F28091060290910702A09108023F
:10ED3000B091090280509F4FAF4FBF4F80930602A2
:10ED400090930702A0930802B0930902FFCD80ECD4
:10ED500092EE62E00F94F5F183E792EE60E00F949B
:10ED6000F5F18FE792EE60E00F94F5F18BE892EE0B
:10ED700060E00F94F5F189E992EE60E00F94F5F10F
:10ED800085EA92EE60E00F94F5F183EB92EE60E09D
:10ED90000F94F5F180EC92EE60E00F94F5F187ECC2
:10EDA00092EE60E00F94F5F188ED92EE60E00F9442
:10EDB000F5F18FED92EE60E00F94F5F18AEE92EEB0
:10EDC00060E00F94F5F183E093EEBDCD87EC92EE19
:10EDD00062E00F94F5F181E40F947BF282E40F94EA
:10EDE0007BF283E40F947BF284E40F947BF285E45E
:10EDF0000F947BF286E40F947BF287E40F947BF20E
:10EE000088E40F947BF28AE40F947BF28BE40F94F6
:10EE10007BF28CE40F947BF299CD88ED92EE62E068
:10EE20000F94F5F1772473948824992409C48FED05
:10EE300092EE62E00F94F5F140910A0250910B02BC
:10EE400060910C0270910D0282E020E10F9491F22A
:10EE500080910A0290910B02A0910C02B0910D02D8
:10EE600080509F4FAF4FBF4F80930A0290930B0289
:10EE7000A0930C02B0930D0269CD8AEE92EE62E08F
:10EE80000F94F5F184EE90EE60E00F94F5F18FECC5
:10EE900091EE60E00F94F5F1662477244301CC5D98
:10EEA000DE4F19821882C452D140D401C301B695F5
:10EEB000A79597958795CA5DDE4F88839983AA8326
:10EEC000BB83C652D140CC5DDE4FA881B981C4520C
:10EED000D1401196CC5DDE4FB983A883C452D14096
:10EEE000CD0162E070E00F9434F2B0E2B093C6005E
:10EEF0008091C00086FFFCCF8091C0008064809329
:10EF0000C000EDE2E093C6008091C00086FFFCCF18
:10EF10008091C00080648093C000F0E2F093C6004E
:10EF20008091C00086FFFCCF8091C00080648093F8
:10EF3000C000CA5DDE4FE880F9800A811B81C6529D
:10EF4000D140BB27A12F902F8F2D0F940DF2CA5DBA
:10EF5000DE4F8881C652D1400F940DF2B0E2FB2EF5
:10EF6000F092C6008091C00086FFFCCF8091C00067
:10EF700080648093C0000DE30093C6008091C000C0
:10EF800086FFFCCF8091C00080648093C00010E2B7
:10EF90001093C6008091C00086FFFCCF8091C00016
:10EFA00080648093C0008BBEF3012791C65DDE4F65
:10EFB0002883CA52D140A22EBB24CC24DD2408943D
:10EFC000611C711C811C911C8BBEF3018791282E42
:10EFD0003324442455240894611C711C811C911C09
:10EFE0008BBEF3013791C55DDE4F3883CB52D140E4
:10EFF0000894611C711C811C911C8BBEF30147910C
:10F00000C45DDE4F4883CC52D140ADEFEA2EAFEF66
:10F01000FA2EAFEF0A2FAFEF1A2F6E0C7F1C801E57
:10F02000911E142D032DF22CEE24EA0CFB1C0C1D5A
:10F030001D1D0F940DF220E22093C6008091C000A8
:10F0400086FFFCCF8091C00080648093C000C65DC5
:10F05000DE4F8881CA52D1400F940DF230E23093D6
:10F06000C6008091C00086FFFCCF8091C000806404
:10F070008093C000C45DDE4F8881CC52D1400F9494
:10F080000DF240E24093C6008091C00086FFFCCFA5
:10F090008091C00080648093C000C55DDE4F888190
:10F0A000CB52D1400F940DF250E25093C6008091A4
:10F0B000C00086FFFCCF8091C00080648093C000B8
:10F0C0008FEFE8168FEFF80680E0080780E018075A
:10F0D00031F484E092EE60E00F94C2F1DFC0D80119
:10F0E000C7018070907CA070B0708050904CA040A0
:10F0F000B040D1F52FEF3FE340E050E0E222F322B1
:10F1000004231523CA5DDE4FA880B980CA80DB8046
:10F11000C652D140AE0CBF1CC01ED11EAA0CBB1CD7
:10F12000CC1CDD1C8EE092EE60E00F94C2F1BB2798
:10F13000A12F902F8F2D0F940DF28E2D0F940DF285
:10F1400030E23093C6008091C00086FFFCCF8091F2
:10F15000C00080648093C0004EE34093C60080915D
:10F16000C00086FFFCCF87C08EE09EEFA0E0B0E03D
:10F17000E822F9220A231B239CE0E91694E9F90608
:10F1800090E0090790E0190709F088C0C45DDE4FE0
:10F19000A881CC52D140EA2EFF2400E010E0102FCD
:10F1A0000F2DFE2CEE24C55DDE4FB881CB52D14031
:10F1B000EB0EF11C011D111DD601C501817090706F
:10F1C000A070B070DC0199278827E80EF91E0A1F8D
:10F1D0001B1F20EF30E040E050E0A222B322C42207
:10F1E000D52241E1AA0CBB1CCC1CDD1C4A95D1F7F1
:10F1F000EA0CFB1C0C1D1D1D81E090E0A0E0B0E0BE
:10F20000282239224A225B2235E1220C331C441C7D
:10F21000551C3A95D1F7E20CF31C041D151D57013E
:10F220006801AA0CBB1CCC1CDD1C85E192EE60E0E1
:10F230000F94C2F1C801AA27BB270F940DF2BB2778
:10F24000A12F902F8F2D0F940DF28E2D0F940DF274
:10F2500090E29093C6008091C00086FFFCCF809121
:10F26000C00080648093C000AEE3A093C60080918C
:10F27000C00086FFFCCF8091C00080648093C000F6
:10F28000C601AA27BB270F940DF2BB27AD2D9C2DDD
:10F290008B2D0F940DF28A2D0F940DF20F94DCF14B
:10F2A000CC5DDE4FE881F981C452D140F99709F471
:10F2B0004DCBF4E0EF2EF12C012D112D6E0C7F1CA7
:10F2C000801E911EF2CD83E093EE62E00F94F5F183
:10F2D0008AE192EE60E00F94C2F18091C00087FF56
:10F2E000FCCF1091C6001F751093C6008091C0001E
:10F2F00086FFFCCF8091C00080648093C0000F9493
:10F30000DCF1812F81548A3108F036C1163409F4BA
:10F3100095C0173490F4133409F44EC0143430F40B
:10F320001134F1F0123409F01DC130C0143409F465
:10F3300059C0153409F016C16BC01A3409F4C4C0A1
:10F340001B3438F4173409F48FC0183409F00AC19B
:10F35000A1C01B3409F4D2C01C3409F003C1E8C0B9
:10F360008FEF81B90DC082B1809582B980E090E0C5
:10F37000E0EDF7E03197F1F70196883C9105C1F790
:10F380008091C00087FFEFCF12B8EFC08FEF84B934
:10F390000DC085B1809585B980E090E0E0EDF7E0A3
:10F3A0003197F1F70196883C9105C1F78091C00033
:10F3B00087FFEFCF15B8D9C08FEF87B90DC088B1DF
:10F3C000809588B980E090E0E0EDF7E03197F1F7C3
:10F3D0000196883C9105C1F78091C00087FFEFCF6F
:10F3E00018B8C3C08FEF8AB90DC08BB180958BB9A7
:10F3F00080E090E0E0EDF7E03197F1F70196883C8E
:10F400009105C1F78091C00087FFEFCF1BB8ADC059
:10F410008FEF8DB90DC08EB180958EB980E090E0F0
:10F42000E0EDF7E03197F1F70196883C9105C1F7DF
:10F430008091C00087FFEFCF1EB897C08FEF80BBD1
:10F440000DC081B3809581BB80E090E0E0EDF7E0F6
:10F450003197F1F70196883C9105C1F78091C00082
:10F4600087FFEFCF11BA81C08FEF83BB0DC084B38C
:10F47000809584BB80E090E0E0EDF7E03197F1F714
:10F480000196883C9105C1F78091C00087FFEFCFBE
:10F4900014BA6BC08FEF809301010FC080910201FD
:10F4A00080958093020180E090E0E0EDF7E03197F5
:10F4B000F1F70196883C9105C1F78091C00087FF64
:10F4C000EDCF1092020151C08FEF809304010FC065
:10F4D0008091050180958093050180E090E0E0ED4A
:10F4E000F7E03197F1F70196883C9105C1F78091DB
:10F4F000C00087FFEDCF1092050137C08FEF8093DA
:10F5000007010FC08091080180958093080180E079
:10F5100090E0E0EDF7E03197F1F70196883C910536
:10F52000C1F78091C00087FFEDCF109208011DC088
:10F530008FEF80930A010FC080910B01809580931B
:10F540000B0180E090E0E0EDF7E03197F1F70196F4
:10F55000883C9105C1F78091C00087FFEDCF1092E4
:10F560000B0103C085E292EEEEC98091C00087FFD7
:10F57000FCCF8091C600EAC988E392EEE4C98CE131
:10F5800091EEE1C988249924933011F1943028F444
:10F59000913089F09230B8F408C0953061F195301F
:10F5A000F0F0963009F048C043C02B3109F042C951
:10F5B00091E06BE13FC96227C15DDE4F2883CF52E6
:10F5C000D14092E037C9B22FA0E0622793E032C960
:10F5D000822F90E0A82BB92B622794E02BC92E3004
:10F5E00009F039C3622795E0C05DDE4F19821882A9
:10F5F000C053D1401FC9E1E0F0E0EC0FFD1FC05D3A
:10F60000DE4F08811981C053D140E00FF11F2083E4
:10F610000F5F1F4FC05DDE4F19830883C053D14079
:10F6200062270A171B0709F005C9D80196E002C92D
:10F63000261709F010C303C0973009F0FBC87724E0
:10F640009981933109F412C19431C8F4963009F4C8
:10F65000D8C0973050F4923009F406C1933009F4C1
:10F660006DC0913009F059C253C0913109F477C08F
:10F67000923108F0BBC0903109F04FC2F5C098310B
:10F6800009F487C0993150F4953109F4EFC09531F0
:10F6900008F4C6C1963109F040C2C2C19A3109F4DA
:10F6A0006CC09A3108F491C09B3109F45BC09D3164
:10F6B00009F033C29D81903359F48F81882311F46E
:10F6C0009EE11CC0813011F091E018C098E916C08D
:10F6D000892F807591F0903539F4E0E0F0E089E011
:10F6E0008093570094910AC0983539F4E3E0F0E034
:10F6F00089E080935700949101C090E01A821B82A8
:10F700008D818C831D829E831F8227E030E009C299
:10F710001A8288E08B8381E48C8386E58D8382E581
:10F720008E8389E48F8383E5888780E589878FE5E9
:10F730008A8782E38B872BE030E0F3C18A818139AD
:10F7400041F0823941F0803911F48FE005C080E04A
:10F7500003C082E001C08AE01A828B8344C0772410
:10F76000739482C08D81882311F48EE12CC0813086
:10F7700011F081E028C088E926C01A82E1E0F0E0BB
:10F7800089E08093570084918B831C8224E030E0D1
:10F79000C8C18B81803589F48C81883039F4E2E0EE
:10F7A000F0E089E08093570084910DC0E0E0F0E044
:10F7B00089E080935700849106C0E3E0F0E089E09F
:10F7C0008093570084911A82DFCF8D81836C99E0FA
:10F7D000E1E0F0E0082E90935700E89507B600FCB2
:10F7E000FDCF1A821B8223E030E09BC180EC8A832C
:10F7F000CE5CDE4F188219821A821B82C253D1401E
:10F800008EC18A8190E0A0E0B0E0582F44273327D2
:10F8100022278B8190E0A0E0B0E0DC0199278827C7
:10F82000282B392B4A2B5B2B8D8190E0A0E0B0E098
:10F83000282B392B4A2B5B2B8C8190E0A0E0B0E089
:10F84000BA2FA92F982F8827282B392B4A2B5B2BCF
:10F85000220F331F441F551FC05EDE4F288339839C
:10F860004A835B83C052D1401A8259C13A81C95C34
:10F87000DE4F3883C753D140CA5CDE4F1882C6536F
:10F88000D1408B81C82EDD24CA5CDE4F488159816E
:10F89000C653D140C42AD52A933109F082C0CE5C28
:10F8A000DE4F88819981AA81BB81C253D1408050AB
:10F8B000904CA340B04030F583E0CE5CDE4FE88052
:10F8C000F9800A811B81C253D140F70100935B008C
:10F8D00080935700E89507B600FCFDCFCE5CDE4F65
:10F8E000088119812A813B81C253D14000501F4FAA
:10F8F0002F4F3F4FCE5CDE4F088319832A833B8313
:10F90000C253D140C05EDE4F488159816A817B81FC
