:100000000C944F010C9480010C9480010C9480019D
:100010000C9480010C9480010C9480010C9480015C
:100020000C9480010C9480010C9480010C9480014C
:100030000C9480010C9480010C9480010C9480013C
:100040000C9480010C9480010C9480010C9480012C
:100050000C9480010C9480010C9480010C949F0FEF
:100060000C9480010C9473100C9449100C94800132
:100070000C9480010C9480010C9480010C948001FC
:100080000C9480010C9480010C9480010C948001EC
:100090000C9413100C94E90F0C9480010C948001C3
:1000A0000C9480010C9480010C9480010C948001CC
:1000B0000C9480010C9480010C9480010C948001BC
:1000C0000C9480010C9480010C9480010C948001AC
:1000D0000C9480010C9480010C9480010C9480019C
:1000E0000C9480010C9413050C94E6040C942102EA
:1000F0000C94A9100C9425020C941D020C94CD02B2
:100100000C945C020C942F140C9481050C94F40153
:100110000C942F020C94F8010C941E060C948D0282
:100120000C944A090C94F0010C94FF010C94BC1D32
:100130000C9413020C942A020C948F050C940F0259
:100140000C9405020C9422050C946B060C947B1EF7
:100150000C9413190C94D7040C94FC010C94D10545
:100160000C9434140C942B020C9409020C949B15DF
:100170000C9437140C9417020C94EA01000021002F
:10018000240027002A002D00300033000101000068
:10019000040107010A0100002200250028002B00AD
:1001A0002E003100340002010000050108010B019E
:1001B000000020002300260029002C002F00320020
:1001C00000010000030106010901050505050705F9
:1001D00008080808020202020A0A080804040404C3
:1001E00001010101010101010303030303030303EF
:1001F000040707070C0C0C0C0C0C0C0C020202027E
:1002000006060606060606060B0B0B0B0B0B0B0B66
:100210000102102020080810204010204080020118
:1002200002010804020101020408102040808040FD
:1002300020100804020180040201804020100804FC
:10024000020108040201010204081020408001029A
:1002500004081020408000000A0B02090C0D0E0853
:10026000070304010000000000000000000000007F
:10027000000000000000000000000000000000007E
:10028000000012111000000000000000000000003B
:10029000000000000000000000000000A910112470
:1002A0001FBECFEFD1E2DEBFCDBF00E00CBF2EE01E
:1002B000A4E4BCE001C01D92A63AB207E1F71CE03D
:1002C000A0E0B2E0E4EDF1E400E00BBF02C0079073
:1002D0000D92A434B107D9F711E0CFE4D1E000E0EA
:1002E00006C021970109802FFE010E94C11ECE3455
:1002F000D10780E00807A9F70E942A120C94E82091
:100300000C940000FC01A089B18982E08C93A48543
:10031000B5851C92A685B7858FEC8C93108EA48929
:10032000B58986E08C93A289B3898C9180618C9386
:10033000A289B3898C9188608C93A289B3898C91AE
:1003400080688C930288F389E02D80818F7D808383
:10035000089596E0899FD0011124A354B24F90963E
:100360007C936E935F9791E091969C939197E09127
:100370002A0EF0912B0E9091290E992339F0309787
:1003800051F0811108C08091D90D1994309719F05E
:100390005C968C91FACF08958150823108F05AC052
:1003A000E82FF0E08827E852FE4F8F4F0C94C11ED3
:1003B000F801FC01EA01F001F4012A02FF01050243
:1003C00009020F02130217021D0221022A0225024E
:1003D0002B022F02809180008F77809380000895F8
:1003E000809180008F7DF9CF80918000877FF5CF4D
:1003F00084B58F7784BD089584B58F7DFBCF8091C0
:10040000B0008F778093B00008958091B0008F7D09
:10041000F9CF809190008F7780939000089580911C
:1004200090008F7DF9CF80919000877FF5CF8091EC
:10043000A0008F778093A00008958091A0008F7D09
:10044000F9CF8091A000877FF5CF809120018F7731
:10045000809320010895809120018F7DF9CF8091B4
:100460002001877FF5CFCF93DF93282F30E0F9016C
:10047000EA5AFD4F8491F901E05FFD4FD491F901F3
:10048000E653FE4FC491CC23A1F081110E94CC0110
:10049000EC2FF0E0EE0FFF1FE055FE4FA591B49159
:1004A000EC91ED2381E090E009F480E0DF91CF91C1
:1004B000089580E090E0FACF862F0C9433021F93CA
:1004C000CF93DF93282F30E0F901EA5AFD4F849152
:1004D000F901E05FFD4FD491F901E653FE4FC4915D
:1004E000CC23A9F0162F81110E94CC01EC2FF0E053
:1004F000EE0FFF1FEA56FE4FA591B4918FB7F89407
:10050000EC91111108C0D095DE23DC938FBFDF91F1
:10051000CF911F910895DE2BF8CF862F642F0C9476
:100520005F02CF93DF9390E0FC01E05FFD4F2491E9
:1005300086539E4FFC0184918823C9F090E0880F78
:10054000991FFC01E458FE4FA591B491FC01EA56B5
:10055000FE4FC591D49161110DC09FB7F8948C9155
:10056000209582238C938881282328839FBFDF9145
:10057000CF910895623051F49FB7F8943C91822F47
:10058000809583238C93E8812E2BEFCF8FB7F8943F
:10059000EC912E2B2C938FBFEACF862F642F0C94D7
:1005A00091023FB7F8948091740C9091750CA091D2
:1005B000760CB091770C26B5A89B05C02F3F19F09B
:1005C0000196A11DB11D3FBFBA2FA92F982F8827D3
:1005D000BC01CD01620F711D811D911D42E0660FAE
:1005E000771F881F991F4A95D1F708958F929F9280
:1005F000AF92BF92CF92DF92EF92FF924B015C01DC
:100600000E94D1026B017C010E94D1026C197D090C
:100610008E099F09683E734081059105A8F321E08A
:10062000821A9108A108B10888EEC80E83E0D81E8E
:10063000E11CF11C81149104A104B10429F7FF907D
:10064000EF90DF90CF90BF90AF909F908F900895E4
:100650002FB7F8946091700C7091710C8091720CAE
:100660009091730C2FBF08950F931F93CF93DF9337
:10067000C82FD62F86E0C89FF0011124E354F24F13
:1006800011A2878D90A181309105F1F058F0823050
:100690009105F1F1039709F440C0DF91CF911F91CB
:1006A0000F9108956623C9F361E070E08C2F0E94DA
:1006B000A9010E9428036093150E7093160E809373
:1006C000170E9093180EE9CF0E9428030091150E83
:1006D0001091160E2091170E3091180EAB01BC012F
:1006E000401B510B620B730B8091270E9091280ECB
:1006F000B0E0A0E084179507A607B70748F462E0CA
:1007000070E08C2FDF91CF911F910F910C94A90174
:1007100063E070E0D111C1CFF4CF70E060E0F1CFC1
:100720006F927F928F929F92AF92BF92CF92DF9201
:10073000EF92FF920F931F93CF93DF9381E080930B
:10074000290E0E9428030091190E10911A0E209173
:100750001B0E30911C0EAB01BC01401B510B620BF8
:10076000730B8091250E9091260EB0E0A0E08417C7
:100770009507A607B70708F014C1C0E08091230EC3
:10078000C81760F4E0911F0EF091200EEC0FF11DE0
:1007900062E080810E949102CF5FF0CF712C812CAA
:1007A000912C540183948091240E781608F05FC038
:1007B000072D10E0E091210EF091220EE00FF11FC5
:1007C00061E080810E949102E091210EF091220E61
:1007D000E00FF11F60E080810E945F02D501C4013B
:1007E000072C04C0880F991FAA1FBB1F0A94D2F7B9
:1007F0006C017C01E094F094612C8091230E6816CA
:10080000F8F4C62DD0E0E0911F0EF091200EEC0F11
:10081000FD1F80810E9433022496CC0FDD1FC3543C
:10082000D24F892B41F4888199818C299D29998304
:1008300088836394E2CF888199818E219F21F7CFAD
:10084000E091210EF091220EE00FF11F61E0808116
:100850000E945F028091210E9091220E080F191FB5
:1008600060E0F80180810E94910273949CCFCDEBEF
:10087000DDE0FE018FEF9FEF278D30A1232B21F4C8
:10088000148E968F858F11A236962DE0E93FF207E0
:1008900099F7F12C96E0D92E8091230EF81608F0E6
:1008A00050C0E12C0F2D10E0000F111F0B53124F01
:1008B0002091240EE21608F042C0F8016081718197
:1008C0000E2C02C0769567950A94E2F7F29E90018D
:1008D00011242E0D311DEDEBFDE080E0458D568D90
:1008E0002417350709F461C08F5F36968A30B1F757
:1008F00060FF23C0EDEBFDE090E080E0448D41110E
:1009000017C0E0911D0EF0911E0EE20FF31F408103
:10091000D89EF001D99EF00D1124E354F24F448F7C
:10092000368F258F10A2178E61E00E94340305C018
:10093000019636968A30910509F7E394B9CFF3947E
:10094000ABCF10E089A18111182F2696FDE0C93F99
:10095000DF07C1F70E9428036093190E70931A0EE7
:1009600080931B0E90931C0E1123D9F08091DE0D05
:100970008823B9F08091DC0D9091DD0D019789F409
:100980008091D90DDF91CF911F910F91FF90EF9042
:10099000DF90CF90BF90AF909F908F907F906F909F
:1009A00008951092290E80E0EDCF6170BECF0895BA
:1009B000DB0114964D915C9115976D917C91DC0152
:1009C000ED91FC910280F381E02D1994AF92BF92DA
:1009D000CF92DF92EF92FF920F931F93CF93DF930B
:1009E0006C017B018B01040F151FEB015E01AE183A
:1009F000BF08C017D10759F06991D601ED91FC915C
:100A00000190F081E02DC6011995892B79F7C50178
:100A1000DF91CF911F910F91FF90EF90DF90CF90DA
:100A2000BF90AF900895FC01538D448D252F30E089
:100A3000842F90E0821B930B541710F0CF960895EB
:100A400001970895FC01918D828D981761F0A28D18
:100A5000AE0FBF2FB11D5D968C91928D9F5F9F73DE
:100A6000928F90E008958FEF9FEF0895CF92DF92DD
:100A7000EF92FF920F931F93CF93DF938C01D0E0FF
:100A8000C0E00E94280360938B0C70938C0C8093C1
:100A90008D0C90938E0C83E89CE00E94220597FFBA
:100AA00028C00E942803C0908B0CD0908C0CE09042
:100AB0008D0CF0908E0C6C197D098E099F09C090E9
:100AC000870CD090880CE090890CF0908A0C6C1503
:100AD0007D058E059F05F8F2CE01DF91CF911F9124
:100AE0000F91FF90EF90DF90CF900895C2E0D0E09B
:100AF000F3CFF80181938F012197C1F3C1E0D0E0DA
:100B0000C0CFFC01918D828D981731F0828DE80F56
:100B1000F11D858D90E008958FEF9FEF0895FC0102
:100B2000918D228D892F90E0805C9F4F821B9109CF
:100B30008F739927089583E89CE00E948F0521E038
:100B4000892B09F420E0822F089580E29DE00E9425
:100B50008F0521E0892B09F420E0822F0895FC0104
:100B6000A48DA80FB92FB11DA35ABF4F2C91848D0E
:100B700090E001968F739927848FA689B7892C936B
:100B8000A089B1898C91837080648C93938D848DBE
:100B9000981306C00288F389E02D80818F7D8083C1
:100BA0000895EF92FF920F931F93CF93DF93EC0181
:100BB00081E0888F9B8D8C8D98131AC0E889F98904
:100BC000808185FF15C09FB7F894EE89FF89608307
:100BD000E889F98980818370806480839FBF81E088
:100BE00090E0DF91CF911F910F91FF90EF900895CA
:100BF000F62E0B8D10E00F5F1F4F0F731127E02EA5
:100C00008C8D8E110CC00FB607FCFACFE889F989DC
:100C1000808185FFF5CFCE010E94AF05F1CFEB8D2E
:100C2000EC0FFD2FF11DE35AFF4FF0829FB7F894B0
:100C30000B8FEA89FB8980818062CFCFCF93DF93CE
:100C4000EC01888D8823B9F0AA89BB89E889F989E4
:100C50008C9185FD03C0808186FD0DC00FB607FC19
:100C6000F7CF8C9185FFF2CF808185FFEDCFCE014C
:100C70000E94AF05E9CFDF91CF91089580E090E029
:100C8000892B29F00E94A50581110E94000080E0B7
:100C900090E0892B29F00E949B0581110E940000A1
:100CA00080E090E0892B49F080E090E0892B29F0EA
:100CB0000E94000081110E94000080E090E0892BDA
:100CC00049F080E090E0892B29F00E94000081111A
:100CD0000C940000089590E080E00895CF92DF9298
:100CE000EF92FF92CF93DF930E942803EB010E94C3
:100CF00028030E9428036B0183E89CE00E948F0573
:100D0000892B29F083E89CE00E942205F5CFCC1ABC
:100D1000DD0A88EEC81683E0D8065CF383E89CE021
:100D20000E948F05892B29F7DF91CF91FF90EF90DB
:100D3000DF90CF900895CF93DF93EC018A818111EA
:100D40000AC088810E943302019729F481E08A83D6
:100D5000DF91CF9108958A81811102C080E0F8CFA0
:100D600088810E943302892BC9F71A82F7CF4F92EC
:100D70005F926F927F928F929F92AF92BF92CF922B
:100D8000DF92EF92FF920F931F93CF93DF931F9207
:100D90001F92CDB7DEB78C0149832A83660F771F78
:100DA000F801EA5AFF4FE080F180EE0CFF1CF801D9
:100DB000CF01801B910B8E159F0514F41192F8CF73
:100DC0008981F801E60FF71F81838A81808368019A
:100DD00084E5C80ED11C60E0F60180810E945F02AC
:100DE0005801F2E5AF0EB11C480180E5880E911C58
:100DF0001E141F040CF5E1E0EE1AF108F801EE0DE7
:100E0000FF1D6080F5015080F401408088E0782E5D
:100E1000662D661F6627661F842D0E945F02660C82
:100E200061E0852D0E945F0260E0852D0E945F02D7
:100E30007A947110EDCFDCCF61E0F60180810F90E4
:100E40000F90DF91CF911F910F91FF90EF90DF9066
:100E5000CF90BF90AF909F908F907F906F905F905A
:100E60004F900C945F02EF92FF920F931F93CF93DA
:100E70007C018C0183E0000F111F8A95E1F70E5B66
:100E8000114FC1E0F80111928F0120E04C2FB70102
:100E900082E39EE00E94B706CF5FC93099F7CF91F9
:100EA0001F910F91FF90EF9008959F92AF92BF9284
:100EB000CF92DF92EF92FF920F931F93CF93DF9326
:100EC000CDB7DEB7C054D1090FB6F894DEBF0FBE60
:100ED000CDBFC955DF4F28813981C75AD040FE01A7
:100EE000319680E4DF011D928A95E9F749E1429F3E
:100EF000C001439F900D1124875E9D4F8F01BE015D
:100F0000675D7F4FAF0130E020E0FA01E20FF31F91
:100F1000DC01A20FB31FAC91A18B2F5F3F4F253097
:100F2000310599F70596485F5F4F4617570759F700
:100F3000FE01E15BFF4F7F019924939480E8A82E86
:100F4000B12CD12CC12CCB55DF4F88819981C55A4A
:100F5000D04018161906FCF4C5010C2C02C095955A
:100F600087950A94E2F7D70150962C915097F80193
:100F7000EC0DFD1D3081332389F1822B50968C932B
:100F8000D70150962C91492D70E060E0CE01815B35
:100F90009F4F0E94B706BFEFCB1ADB0AE8E0CE16E0
:100FA000D10489F6FFEFEF1AFF0A9394085F1F4FF1
:100FB00089E09812C6CFC05CDF4F0FB6F894DEBF51
:100FC0000FBECDBFDF91CF911F910F91FF90EF909A
:100FD000DF90CF90BF90AF909F900895809582232F
:100FE000F701808BCDCFCF93DF93EC0160E08E8152
:100FF0000E945F0261E08E810E945F0260E08E814C
:101000000E945F028BE891E00197F1F7DF91CF91A9
:101010000895CF92DF92EF92FF920F931F93CF9399
:10102000DF936C017C0187E0E80EF11CD0E0C0E0AA
:10103000062F10E0B8010C2E02C0759567950A9432
:10104000E2F76170F70181917F010E945F022196B2
:10105000C430D10579F7C601DF91CF911F910F916F
:10106000FF90EF90DF90CF900C94F307CF92DF9238
:10107000EF92FF920F931F93CF93DF93EC01F62E25
:10108000642F8C810E945F028D818F3F19F060E098
:101090000E945F020F2D10E08F8584FF25C06E0136
:1010A00087E0C80ED11CF12CE12CB8010E2C02C037
:1010B000759567950A94E2F76170F60181916F0169
:1010C0000E945F02FFEFEF1AFF0A88E0E816F104C2
:1010D00061F7CE01DF91CF911F910F91FF90EF90BB
:1010E000DF90CF900C94F307B80184E07595679575
:1010F0008A95E1F7CE010E9409086F2DCE01DF919C
:10110000CF911F910F91FF90EF90DF90CF900C94B3
:10111000090840E0682F8AE89EE00C94360881E0D8
:101120000E9489088BE39FE10197F1F70895CF931F
:10113000DF93813029F09091990E98609093990EE9
:1011400080939D0E10929E0E80E480939F0E80E10E
:101150008093A00E80E58093A10E61E080918E0EB9
:101160000E94910280918F0E8F3F19F061E00E94E2
:10117000910261E08091900E0E949102CAE8DEE047
:101180009E012A583E408091990E84FD0BC084E058
:1011900090E021962817390744F461E08E810E947F
:1011A0009102EECF88E090E0F4CF8BE39DE00197D1
:1011B000F1F760E080918E0E0E945F0260E0809106
:1011C000900E0E945F0280918F0E8F3F19F060E0B9
:1011D0000E945F028091990E84FD34C063E08AE82A
:1011E0009EE00E940908CBE4D6E4CE010197F1F716
:1011F00063E08AE89EE00E9409082197F1F763E026
:101200008AE89EE00E94090883E592E00197F1F7E1
:1012100062E08AE89EE00E9409088091990E80624F
:101220000E94890884E080939A0E8CE00E948908CD
:101230000E948F0882E080939B0E86E0DF91CF9121
:101240000C94890880620E9489088BE496E40197D7
:10125000F1F78091990E80620E94890883E592E0FF
:101260000197F1F78091990E80620E948908D5CF8D
:10127000643008F063E090919D0E691710F06FEFF5
:10128000690FE62FF0E0E657F14F9489890F8068E7
:101290000C94890841E00E94360881E090E00895AE
:1012A000FB0101900020E9F73197AF01461B570B76
:1012B000DC01ED91FC910280F381E02D1994CF9334
:1012C000DF93BC0180E29DE00E94D804EC016CE257
:1012D00079E080E29DE00E9450098C0F9D1FDF9114
:1012E000CF9108958F929F92AF92BF92CF92DF924B
:1012F000EF92FF920F931F93CF93DF93CDB7DEB79B
:10130000A1970FB6F894DEBF0FBECDBF6C01990F49
:10131000EE08FF08F7FE4BC06DE280E29DE00E9400
:10132000D1058C0122273327A9012C193D094E092B
:101330005F0919A2CE0181967C019AE0892E912C39
:10134000A12CB12CCA01B901A50194010E949F1ED4
:10135000605DF70162937F0121153105410551055B
:1013600089F790E080E0309729F0BF0180E29DE0AE
:101370000E945009080F191F6CE279E080E29DE09D
:101380000E945009800F911FA1960FB6F894DEBFFE
:101390000FBECDBFDF91CF911F910F91FF90EF90C6
:1013A000DF90CF90BF90AF909F908F900895A7014E
:1013B000960119A28E010F5D1F4F8AE0C82ED12C15
:1013C000E12CF12CCA01B901A70196010E949F1ED0
:1013D000605DF80162938F012115310541055105CA
:1013E00089F7309739F0BF0180E29DE00E945009F3
:1013F0008C01C2CF10E000E0BFCF0F931F93CF93BB
:10140000DF93EC010E9450098C016CE279E0CE017F
:101410000E945009800F911FDF91CF911F910F9172
:1014200008950C9450090E948F0860E080E00E94AB
:1014300038096FE279E08AE89EE00E94110A6CE2C6
:1014400071E080E090E00E94F60261E080E00E949E
:1014500038096AE379E08AE89EE00E94110A6CE2AA
:1014600071E080E090E00E94F60262E080E00E947D
:1014700038096BE479E08AE89EE00E94110A6CE288
:1014800071E080E090E00E94F60263E080E00E945C
:1014900038096CE579E08AE89EE00E94110A6CE266
:1014A00071E080E090E00E94F60264E080E00E943B
:1014B00038096CE679E08AE89EE00E94110A6CE245
:1014C00071E080E090E00E94F60265E080E00E941A
:1014D00038096BE779E08AE89EE00E94110A8FE202
:1014E0009EE00E949B068823D1F381E090E09093D8
:1014F0006E0C80936D0C0895CF93DF93FC010190E7
:101500000020E9F73197E81BF90BDC0138E0AD0169
:10151000481B590B4E175F0734F42D91ED012197AD
:1015200023272883F4CFDF91CF910895FC012481F4
:101530003581232B39F421E0FB018081882349F098
:1015400020E007C0808191810E94D82021E0892B72
:10155000B9F7822F0895DC0114968D919C9115970F
:101560006817790750F4ED91FC911197E60FF71F7A
:1015700015967C936E931497108208950F931F9382
:10158000CF93DF938C01EB01FC0180819181009767
:10159000E1F06881798161157105A9F0428153817B
:1015A0002C813D814217530770F00E94E1208C810D
:1015B0009D81F801958384831D821C82DF91CF91E8
:1015C0001F910F9108950E94651F88819981F801EC
:1015D000918380838A819B81938382838C819D8187
:1015E00095838483198218821B821A82E5CFCF9358
:1015F000DF93EC0188819981009711F00E94651FAB
:10160000198218821D821C821B821A82DF91CF915F
:101610000895FC0180819181009711F00C94651F61
:1016200008950F931F93CF93DF93EC0188819981E5
:10163000009759F02A813B812617370730F081E067
:10164000DF91CF911F910F9108958B016F5F7F4FB5
:101650000E94EE1F009759F0998388831B830A83A9
:101660002C813D81232B59F7FC011082E8CF80E0CB
:10167000E7CFEF92FF920F931F93CF93DF93FB017E
:1016800001900020E9F73197E61BF70BE1F07B01B1
:101690008C01DC011496CD91DC91CE0FDF1FBE01D1
:1016A0000E94110B882381F0F8012081318184810F
:1016B0009581B701820F931F0E94E120D8011596F2
:1016C000DC93CE93149781E0DF91CF911F910F911E
:1016D000FF90EF900895EF92FF920F931F93CF9397
:1016E000DF931F921F92CDB7DEB78C0169831A82F8
:1016F000FC01E480F580FFEFEF1AFF0AB7010E94BA
:10170000110B882381F0F80120813181848195813A
:10171000BE016F5F7F4F820F931F0E94E120F8018F
:10172000F582E48281E00F900F90DF91CF911F91BD
:101730000F91FF90EF900895EF92FF920F931F93F8
:10174000CF93DF93EC018617970781F0FB010081AF
:1017500011810115110539F0E480F580B7010E946F
:10176000110B81110BC0CE010E94F70ACE01DF914F
:10177000CF911F910F91FF90EF900895FD82EC8221
:10178000B801888199810E94E120F0CFEF92FF9209
:101790000F931F93CF93DF93EC017B011982188283
:1017A0001B821A821D821C82FB0101900020E9F736
:1017B00031978F01061B170BB8010E94110B811185
:1017C00009C0CE01DF91CF911F910F91FF90EF9053
:1017D0000C94F70A1D830C83B70188819981DF91EE
:1017E000CF911F910F91FF90EF900C94E1207F9289
:1017F0008F929F92AF92BF92CF92DF92EF92FF9221
:101800000F931F93CF93DF9300D0CDB7DEB77C014A
:101810006B016BE879E080E29DE00E94FD090E9487
:101820006E06B60183E89CE00E94FD09712C83E8F6
:101830009CE00E948F05892B39F0CE0101960E9411
:10184000360577247394F3CF772089F383E89CE0FF
:101850000E948F058C01892B51F7E8E7FCE08BE0B3
:10186000DF011D928A95E9F70E948F086FE979E000
:101870008AE89EE00E94110A61E080E00E94380937
:1018800065EA79E08AE89EE00E94110AB6018AE8DA
:101890009EE00E94110A61E67AE08AE89EE00E94DA
:1018A000110A6EE279E08AE89EE00E94FD0962E09A
:1018B00080E00E9438090E9428034B015C010E94CD
:1018C00028030E946E06D12C83E89CE00E948F05BD
:1018D000892BD9F083E89CE00E9422056801BFEFC4
:1018E000CB1ADB0AF801E858F34F808368E77CE005
:1018F00080E29DE00E94FD0969EA79E080E29DE0D6
:101900000E94FD098601D72CDFCFD11007C00E94AD
:1019100028034B015C010E942803D6CF0E942803B4
:10192000681979098A099B09643F7140810591050D
:101930005CF26BE879E080E29DE00E94FD0961ECD9
:1019400079E080E29DE00E94110A68E77CE0C7012F
:101950000E94C60BC7010F900F900F90DF91CF919F
:101960001F910F91FF90EF90DF90CF90BF90AF90BD
:101970009F908F907F900895BF92CF92DF92EF92C9
:10198000FF920F931F93CF93DF93CDB7DEB7C4566B
:10199000D1090FB6F894DEBF0FBECDBF0E948F08ED
:1019A00060E080E00E94380966ED79E08AE89EE018
:1019B0000E94110A68EC70E080E090E00E94F6025C
:1019C00061E080E00E94380965EE79E08AE89EE0F7
:1019D0000E94110A68EC70E080E090E00E94F6023C
:1019E00062E080E00E9438096EEE79E08AE89EE0CD
:1019F0000E94110A68EC70E080E090E00E94F6021C
:101A000063E080E00E9438096AEF79E08AE89EE0AE
:101A10000E94110A6EE279E0CE01815A9F4F0E9426
:101A2000C60B0E9490038823C9F0A5962EAD3FAD4A
:101A3000A5972230310508F042C0682FCE01815AA7
:101A40009F4F0E946B0B63E08CE00E943809BE013F
:101A5000615A7F4F8AE89EE00E94D8048FE29EE0A0
:101A60000E949B06882309F437C166E07AE0CE0124
:101A7000815A9F4F0E94960A882309F445C086E048
:101A800090E090936E0C80936D0C1092450C109228
:101A9000440CCE01815A9F4F0E94090BCC59DF4F55
:101AA0000FB6F894DEBF0FBECDBFDF91CF911F916F
:101AB0000F91FF90EF90DF90CF90BF90089563E07B
:101AC0008CE00E94380964E17AE08AE89EE00E9496
:101AD000110A63E08CE00E94380962E07AE08AE84B
:101AE0009EE00E94110A64E670E080E090E00E94AF
:101AF000F60263E08CE00E94380964E17AE08AE84B
:101B00009EE00E94110A9FCF68E07AE0CE01815AE0
:101B10009F4F0E94960A882369F086E090E0909398
:101B20006E0C80936D0C81E090E09093450C809357
:101B3000440CAFCF69E779E0CE01815A9F4F0E94F4
:101B4000960A882309F4A5CF60E080E00E94380956
:101B50006EE279E0CE01875A9F4F0E94C60B10E0DB
:101B600000E0F80195E0EE0FFF1F9A95E1F7EC5DBC
:101B7000FA4F80E2DE01119601900D928A95E1F70D
:101B80001F930F938DB79EB7885591090FB6F894A0
:101B90009EBF0FBE8DBFADB7BEB7119688E5E2E31D
:101BA000FEE001900D928A95E1F70E9455070FB66D
:101BB000F894DEBF0FBECDBF0E949003882391F042
:101BC0008A330CF05BC081330CF07FC0833209F4A0
:101BD0005FC0803309F465C062E370E080E090E0AC
:101BE0000E94F6028FE29EE00E949B06882309F481
:101BF000B8CFCE01875A9F4F0E945F0988E5E2E384
:101C0000FEE0DE01119601900D928A95E1F78E01BA
:101C10000F5F1F4FBB24B39480E8C82ED12CF12C4A
:101C2000E12C69968EAD9FAD6997181619069CF444
:101C300096010E2C02C0359527950A94E2F720955F
:101C4000F80180892823208B4B2D70E060E0CE01C5
:101C500001960E94B706FFEFEF1AFF0A88E0E81628
:101C6000F104F9F60F5F1F4FB39499E0B912D7CF83
:101C7000CE01875A9F4F0E94090B0BCF883509F080
:101C8000ABCF0150110908F0A7CF0EE110E0A4CFAF
:101C90000F5F1F4F0F31110509F09ECF10E000E0DC
:101CA0009BCFBE016F5F7F4FCE01875A9F4F0E942F
:101CB000390B61E080E00E943809BE01675A7F4F0E
:101CC0008AE89EE00E94D80487CF682FCE01875A09
:101CD0009F4F0E946B0BEDCF8CE29EE00E949B0613
:101CE000882309F49ECEA5966EAD7FADA5976115AC
:101CF000710509F496CE61507109CE01815A9F4F4A
:101D00000E94AB0A61E080E00E9438096AE07AE054
:101D10008AE89EE00E94110A61E080E00E94380992
:101D2000BE01615A7F4F8AE89EE00E94D80479CEB6
:101D3000FF920F931F93CF93DF93EC018B01FB0175
:101D4000F0800E94891EF81621F06F2DCE010E94AE
:101D5000911EF801F1802196CE010E94891EF8168D
:101D600021F06F2DCE010E94911EC801DF91CF910D
:101D70001F910F91FF9008950F931F93CF93DF93BF
:101D80008C01EB010E94891E8883C80101960E9484
:101D9000891E8983CE01DF91CF911F910F91089504
:101DA000CF93DF931F921F92CDB7DEB7BE016F5F57
:101DB0007F4F8AEF97E00E94BC0E89819A810F9035
:101DC0000F90DF91CF910895CF92DF92EF92FF9223
:101DD0000F931F93CF93DF93EC017B010E94D00EF2
:101DE000E816F906ACF06BE17AE080E29DE00E9433
:101DF000FD0983E2FE0111928A95E9F7CE01DF9198
:101E0000CF911F910F91FF90EF90DF90CF900895A9
:101E100083E28E9D80018F9D100D11247E01F3E2DF
:101E2000EF0EF11C6E010C1B1D0B0250184FC80168
:101E30008C0D9D1D0E94891EF60181936F01EE1687
:101E4000FF06A9F7DBCF7F928F929F92AF92BF924E
:101E5000CF92DF92EF92FF920F931F93CF93DF9376
:101E600000D01F92CDB7DEB7BE016F5F7F4F8CEF02
:101E700097E00E94BC0E89819A818F3F9F40C4F0F9
:101E80006FE27AE080E29DE00E94FD090F900F90E2
:101E90000F900F90DF91CF911F910F91FF90EF90D6
:101EA000DF90CF90BF90AF909F908F907F900895DC
:101EB0000E94D00E01969A838983BE016F5F7F4F87
:101EC0008AEF97E00E94980EBE016D5F7F4F8CEF06
:101ED00097E00E94BC0E0B811C811EAB0DABBE01B6
:101EE0006D5F7F4F8CEF97E00E94BC0E8B809C80D3
:101EF000CE0145966C01F12CE12CF60171906F0139
:101F00005401AE0CBF1CC5010E94891E781621F039
:101F1000672DC5010E94911EFFEFEF1AFF0A23E211
:101F2000E216F10451F70D5D1F4F1C830B83BE01B8
:101F30006D5F7F4F8CEF97E00E94980EA7CF1F92A6
:101F40000F920FB60F9211242F933F938F939F936D
:101F5000AF93BF938091700C9091710CA091720C13
:101F6000B091730C30916F0C23E0230F2D3758F58F
:101F70000196A11DB11D20936F0C8093700C90935E
:101F8000710CA093720CB093730C8091740C9091AF
:101F9000750CA091760CB091770C0196A11DB11D26
:101FA0008093740C9093750CA093760CB093770C7F
:101FB000BF91AF919F918F913F912F910F900FBE45
:101FC0000F901F90189526E8230F0296A11DB11DB2
:101FD000D2CF1F920F920FB60F9211240BB60F9211
:101FE0002F933F934F935F936F937F938F939F9321
:101FF000AF93BF93EF93FF9383E89CE00E94AF05FC
:10200000FF91EF91BF91AF919F918F917F916F91D0
:102010005F914F913F912F910F900BBE0F900FBE8C
:102020000F901F9018951F920F920FB60F921124C8
:102030000BB60F922F938F939F93EF93FF93E091A3
:10204000930CF091940C8081E091990CF0919A0C92
:1020500082FD1DC0908180919C0C8F5F8F732091B9
:102060009D0C821741F0E0919C0CF0E0ED57F34F8E
:10207000958F80939C0CFF91EF919F918F912F9161
:102080000F900BBE0F900FBE0F901F901895808180
:10209000F2CF1F920F920FB60F9211240BB60F9230
:1020A0002F933F934F935F936F937F938F939F9360
:1020B000AF93BF93EF93FF9380E29DE00E94AF0543
:1020C000FF91EF91BF91AF919F918F917F916F9110
:1020D0005F914F913F912F910F900BBE0F900FBECC
:1020E0000F901F9018951F920F920FB60F92112408
:1020F0000BB60F922F938F939F93EF93FF93E091E3
:10210000300DF091310D8081E091360DF091370D59
:1021100082FD1DC090818091390D8F5F8F7320915A
:102120003A0D821741F0E091390DF0E0E05EF24F98
:10213000958F8093390DFF91EF919F918F912F9102
:102140000F900BBE0F900FBE0F901F9018958081BF
:10215000F2CFCF93DF931092860C1092850C48EE4D
:1021600053E060E070E04093870C5093880C6093DC
:10217000890C70938A0C88E099E09093840C80938A
:10218000830C2DEC30E03093900C20938F0C2CECD2
:1021900030E03093920C2093910C28EC30E0309397
:1021A000940C2093930C29EC30E03093960C209300
:1021B000950C2AEC30E03093980C2093970C2EEC81
:1021C00030E030939A0C2093990C10929C0C109252
:1021D0009D0C10929E0C10929F0C1092230D109249
:1021E000220D4093240D5093250D6093260D70937E
:1021F000270D9093210D8093200D85EC90E0909316
:102200002D0D80932C0D84EC90E090932F0D8093F6
:102210002E0D80EC90E09093310D8093300D81EC89
:1022200090E09093330D8093320D82EC90E0909388
:10223000350D8093340D86EC90E09093370D8093AC
:10224000360D1092390D10923A0D10923B0D1092EE
:102250003C0D10928D0E10928C0E84E299E09093BA
:102260008B0E80938A0E8CE080938E0E8FEF80937E
:102270008F0E8BE08093900E85E08093910E84E02A
:102280008093920E83E08093930E82E08093940E6D
:102290001092950E1092960E1092970E1092980E24
:1022A0001092990E81E00E949708CAE0D0E0D09386
:1022B000830EC093820E88E090E09093850E809309
:1022C000840E89E090E09093870E8093860E81E0E3
:1022D00090E09093890E8093880E61E08AE00E94DE
:1022E000910261E08091840E0E94910261E08091F0
:1022F000860E0E94910261E08091860E0E945F022C
:10230000D093830EC093820EE2E4FEE082E89EE06A
:1023100011928E179F07E1F7D0E0C0E08091880E00
:102320009091890EC817D907B4F520E04FE0BE019F
:1023300082E39EE00E94B7068091880E9091890EFC
:10234000C817D9073CF427E04BE0BE0182E39EE0CA
:102350000E94B70620E049E0BE0182E39EE00E94B1
:10236000B7068091880E9091890EC817D9071CF482
:10237000CE010E9433078091880E9091890EC81774
:10238000D9073CF420E04CE0BE0182E39EE00E94CD
:10239000B7062196C3CF1092310E87E190E090935B
:1023A000300E80932F0E10922E0E88E190E09093C5
:1023B0002D0E80932C0E1092BF0D1092C30D109213
:1023C000C20D1092C40D8AE199E09093BE0D8093E6
:1023D000BD0DE9EDFDE085E19EE0108214821382DF
:1023E000158236968E179F07C1F783E092E090938F
:1023F000200E80931F0E80E092E09093220E809337
:10240000210E84E08093230E83E08093240E87E0E6
:1024100092E090931E0E80931D0E8AE090E09093C0
:10242000260E8093250E84EF91E09093280E8093E2
:10243000270E10922B0E10922A0E1092190E109247
:102440001A0E10921B0E10921C0E1092290EDF9184
:10245000CF910895CF93DF93CDB7DEB7C457D1099D
:102460000FB6F894DEBF0FBECDBF789484B58260FE
:1024700084BD84B5816084BD85B5826085BD85B528
:10248000816085BD80916E00816080936E001092A6
:102490008100809181008260809381008091810021
:1024A00081608093810080918000816080938000B2
:1024B0008091B10084608093B1008091B000816010
:1024C0008093B00080919100826080939100809110
:1024D0009100816080939100809190008160809351
:1024E00090008091A10082608093A1008091A10062
:1024F00081608093A1008091A00081608093A00002
:10250000809121018260809321018091210181606D
:10251000809321018091200181608093200180912E
:102520007A00846080937A0080917A008260809340
:102530007A0080917A00816080937A0080917A009D
:10254000806880937A001092C10080E29DE00E9432
:10255000820183E89CE00E9482011A8219828E0126
:102560000F5F1F4FB8018AEF97E00E94980E62E25A
:1025700075E08CEF97E00E94980E1A821982B801DC
:102580008DE990E00E94980E60E275E08FE990E09E
:102590000E94980E6BE37AE080E29DE00E94FD09C4
:1025A000E3E2DE2E7E0124E2E20EF11CF7012D2D86
:1025B00011922A95E9F781E027968FAF279781E658
:1025C00090E0E3969FAF8EAFE397BE016F587F4FC9
:1025D000CE0181599F4F0E94E120CE0181599F4F2A
:1025E0000E947C0A86E0EDE3FCE0DE01A75ABF4FC3
:1025F00001900D928A95E1F7BE01675A7F4FCE0197
:102600008D5A9F4F0E94E120CE018D5A9F4F0E940C
:102610007C0A83E390E0AF969FAF8EAFAF97BE0189
:1026200063597F4FCE0185599F4F0E94E120CE0113
:1026300085599F4F0E947C0ABE0161597F4FC70197
:102640000E94E120BE016D5A7F4FCE01C0960E94CC
:10265000E120BE0165597F4FCE01C8960E94E1205E
:10266000BE0161597F4F80E29DE00E94FD09BE01DD
:1026700065597F4F80E29DE00E94FD098DB79EB7AE
:1026800083970FB6F8949EBF0FBE8DBFADB7BEB790
:102690001196F7018D2D01900D928A95E1F70E9418
:1026A000230FF8012D2D11922A95E9F782E690E08B
:1026B000AB969FAF8EAFAB978DB79EB783960FB695
:1026C000F8949EBF0FBE8DBFBE0167597F4FCE01EC
:1026D00089599F4F0E94E120CE0189599F4F0E9446
:1026E0007C0A86E0EDE3FCE0DE01A35BBF4F0190D6
:1026F0000D928A95E1F7BE01635B7F4FCE01895B46
:102700009F4F0E94E120CE01895B9F4F0E947C0A6F
:1027100082E390E0A7969FAF8EAFA797BE016B595B
:102720007F4FCE01815A9F4F0E94E120CE01815AF6
:102730009F4F0E947C0ABE0169597F4FC8010E94C9
:10274000E120BE01695B7F4FCE010D960E94E12022
:10275000BE01615A7F4FCE0145960E94E120BE0125
:1027600069597F4F80E29DE00E94FD09BE01615AD8
:102770007F4F80E29DE00E94FD09EDB7FEB7B39761
:102780000FB6F894FEBF0FBEEDBFADB7BEB7119642
:10279000F80101900D92DA94E1F70E94230F2DB712
:1027A0003EB72D5D3F4F0FB6F8943EBF0FBE2DBF15
:1027B0006AE47AE080E29DE00E94110A0E94D00E55
:1027C0000E94720984E00E9497088091880E90917F
:1027D000890E1816190644F421E04CE070E060E020
:1027E00082E39EE00E94B7068091880E9091890E48
:1027F0001816190644F428E04AE070E060E082E32D
:102800009EE00E94B7068091880E9091890E18165E
:10281000190624F490E080E00E94330760E0809184
:102820002F0E0E94910260E080912C0E0E94910276
:102830007EE1472E512CE0916D0CF0916E0CE7304B
:10284000F10578F48827E85DFB4E8F4F0C94C11E8C
:102850002F1434149B151319BC1D7B1E37140E94B2
:10286000130A0E943E06E7CF0E94BC0CFACFC0902C
:10287000440CD090450C0E948F0860E080E00E94DC
:1028800038096AE57AE08AE89EE00E94110A6CE263
:1028900071E080E090E00E94F60261E080E00E943A
:1028A000380963E67AE08AE89EE00E94110A6CE249
:1028B00071E080E090E00E94F60262E080E00E9419
:1028C000380961E77AE08AE89EE00E94110A6CE22A
:1028D00071E080E090E00E94F60263E080E00E94F8
:1028E00038096AEF79E08AE89EE00E94110A6EE2F8
:1028F00079E0C8010E94C60B992493940E9490032A
:10290000882399F02D813E812230310508F05DC089
:10291000682FC8010E946B0B63E08CE00E943809AD
:10292000B8018AE89EE00E94D8048FE29EE00E94EF
:102930009B06B82E882309F48EC066E07AE0C801B1
:102940000E94960A882309F4AEC09092460C109219
:10295000470C66E07AE080E29DE00E94FD096BE7AB
:102960007AE080E29DE00E94110A8091460C90E09E
:102970000E9472096FE77AE080E29DE00E94110AEE
:102980008091470C90E00E9472090E946E060E949E
:102990008F0863E87AE08AE89EE00E94110A61E00D
:1029A00080E00E94380964E97AE08AE89EE00E94AB
:1029B000110AA12C83E89CE00E948F05892B51F11C
:1029C000C7010E943605AB2CF5CF63E08CE00E9476
:1029D00038096AE07AE08AE89EE00E94110A63E022
:1029E0008CE00E94380962E07AE08AE89EE00E946A
:1029F000110A68EE73E080E090E00E94F60263E066
:102A00008CE00E9438096AE07AE08AE89EE00E9441
:102A1000110A82CFAA2071F283E89CE00E948F0500
:102A2000892B41F60E946E060E948F0865EA7AE0C3
:102A30008AE89EE00E94110A68EE73E080E090E070
:102A40000E94F6020E948F0869EB7AE080E29DE026
:102A50000E94FD09BA2C8CE29EE00E949B0688230E
:102A6000E9F06D817E8161157105C1F061507109D8
:102A7000C8010E94AB0A61E080E00E9438096AE068
:102A80007AE08AE89EE00E94110A61E080E00E94FC
:102A90003809B8018AE89EE00E94D804BB2009F4F6
:102AA0002DCFC801B0C368E07AE0C8010E94960A41
:102AB0008823B9F31092460C9092470C68E07AE0B4
:102AC00080E29DE00E94FD096BE77AE080E29DE0F4
:102AD0000E94110A8091460C90E00E9472096FE7F3
:102AE0007AE080E29DE00E94110A8091470C90E01C
:102AF0000E94720931E0C316D10479F082E0C81651
:102B0000D10491F0C114D10409F0A5CFE2E0F0E0C6
:102B1000F0936E0CE0936D0C9ECF23E030E0309389
:102B20006E0C20936D0C97CF81E090E090936E0C2B
:102B300080936D0C90CF0E948F0860E080E00E942F
:102B400038096BEC7AE08AE89EE00E94110A6EE296
:102B500079E0CE01815A9F4F0E94C60BD12CC090C4
:102B6000460C8091470C882309F410C2C11054C050
:102B70008091480C9091490CFC0165E0EE0FFF1F1D
:102B80006A95E1F7EC5DFA4F20E2D80101900D92D1
:102B90002A95E1F79F938F93EDB7FEB7E855F109BA
:102BA0000FB6F894FEBF0FBEEDBFADB7BEB711961E
:102BB00088E5E2E3FEE001900D928A95E1F70E943C
:102BC00055072DB73EB7265A3F4F0FB6F8943EBF74
:102BD0000FBE2DBF0E9490038823F1F08A330CF0C2
:102BE00081C181330CF0A6C1833209F48FC18033D7
:102BF00009F499C1A5968EAD9FADA59761E00C979C
:102C000008F09FC180E00E943809BE01615A7F4FE1
:102C10008AE89EE00E94D8048FE29EE00E949B0614
:102C2000882309F4D9C1CE01815A9F4F0E945F09C0
:102C30006FED7AE080E29DE00E94FD0962E080E0B5
:102C40000E9438096FEE7AE08AE89EE00E94110A3D
:102C50006EE279E0CE01875A9F4F0E94C60BC0906A
:102C6000460C8091470C882309F436C2C11054C029
:102C70008091480C9091490CFC0155E0EE0FFF1F2C
:102C80005A95E1F7EC5DFA4F20E2D80101900D92E0
:102C90002A95E1F79F938F938DB79EB78855910939
:102CA0000FB6F8949EBF0FBE8DBFADB7BEB71196DD
:102CB00088E5E2E3FEE001900D928A95E1F70E943B
:102CC0005507EDB7FEB7E65AFF4F0FB6F894FEBFB3
:102CD0000FBEEDBF0E9490038823F1F08A330CF001
:102CE000A7C181330CF0CCC1833209F4B5C1803364
:102CF00009F4BFC16F968EAD9FAD6F9763E00897E3
:102D000008F0C5C180E00E943809BE01675A7F4FB4
:102D10008AE89EE00E94D8048FE29EE00E949B0613
:102D2000882309F409C2CE01875A9F4F0E945F0988
:102D3000A1966EAD7FADA197FB0101900020E9F750
:102D4000CF018DB69EB6861B970B2DB73EB7281BBD
:102D5000390B0FB6F8943EBF0FBE2DBF8DB79EB78F
:102D600001966C010E94E120C6010E947C0A6B96CC
:102D70006EAD7FAD6B97FB0101900020E9F7CF01AD
:102D8000861B970B2DB73EB7281B390B0FB6F8944F
:102D90003EBF0FBE2DBF8DB79EB701965C010E944E
:102DA000E120C5010E947C0A63E07BE080E29DE0B7
:102DB0000E94110AB60180E29DE00E94FD0964E1D3
:102DC0007BE080E29DE00E94110AB50180E29DE077
:102DD0000E94FD09B501CE01835B9F4F0E94C60B87
:102DE000B601CE018D5A9F4F0E94C60BD12CC12C2B
:102DF0000E94D00EC816D9060CF098C1B601C801C1
:102E00000E94E40E1DA21CA21FA21EA219A618A6B3
:102E1000BE01635B7F4FC7010E949C0B29961FAECA
:102E20001EAE29972B961FAE1EAE2B972D961FAE6A
:102E30001EAE2D97BE016D5A7F4FCE01895B9F4F0D
:102E40000E949C0B29966EAD7FAD2997C8010E9408
:102E5000D820892B51F46CA17DA1CE0145960E940A
:102E6000D820BB24B394892B09F0B12CCE01895B07
:102E70009F4F0E94090BC7010E94090BBB2009F458
:102E800051C183E2F801D70101900D928A95E1F7D3
:102E9000CE018D5A9F4F0E94090BCE01835B9F4F3D
:102EA0000E94090B8CA1811173C10E948F0860E000
:102EB00080E00E94380967E27BE08AE89EE00E9499
:102EC000110A61E080E00E94380961E37BE08AE852
:102ED0009EE00E94110A68EE73E080E090E00E949C
:102EE000F60284C1883509F085CE8091480C909116
:102EF000490C019797FD05C09093490C8093480CAD
:102F000079CE5092490C4092480C74CE8091480C76
:102F10009091490C01968F31910570F31092490CF4
:102F20001092480C67CEB801CE01815A9F4F0E9483
:102F3000390B60CE682FCE01815A9F4F0E946B0BD8
:102F400059CE80E00E9438096AE07AE08AE89EE083
:102F50000E94110A61E080E00E94380962E07AE094
:102F60008AE89EE00E94110A68EE73E080E090E03B
:102F70000E94F60261E080E00E9438096AE07AE08F
:102F80008AE89EE00E94110A61E03CCECC2009F460
:102F900043CED11041CE64ED7AE080E29DE00E9404
:102FA000FD0968ED7AE0C8010E94F70BB801CE0177
:102FB000815A9F4F0E94BE0AC8010E94090B63E01C
:102FC00080E00E943809BE01615A7F4F8AE89EE086
:102FD0000E94D804DC2C20CE8CE29EE00E949B064E
:102FE000882309F4BCCDA5966EAD7FADA59761157C
:102FF000710509F4B4CD61507109CE01815A9F4F1A
:103000000E94AB0A61E080E00E9438096AE07AE041
:103010008AE89EE00E94110A61E080E00E9438097F
:10302000BE01615A7F4F8AE89EE00E94D80497CD86
:10303000883509F05FCE8091480C9091490C01973A
:1030400097FD05C09093490C8093480C53CE509245
:10305000490C4092480C4ECE8091480C9091490CFE
:1030600001968F31910570F31092490C1092480C23
:1030700041CEB801CE01875A9F4F0E94390B3ACEFC
:10308000682FCE01875A9F4F0E946B0B33CE80E092
:103090000E9438096AE07AE08AE89EE00E94110AFC
:1030A00063E080E00E94380962E07AE08AE89EE00E
:1030B0000E94110A68EE73E080E090E00E94F60240
:1030C00063E080E00E9438096AE07AE08AE89EE0E6
:1030D0000E94110A63E016CECC2009F41DCED11057
:1030E0001BCE64ED7AE080E29DE00E94FD096AEF6C
:1030F0007AE0C8010E94F70BB801CE01875A9F4FB2
:103100000E94BE0AC8010E94090B63E080E00E9491
:103110003809BE01675A7F4F8AE89EE00E94D804B2
:10312000DC2CFACD9FEFC91AD90A62CE83E2F701EF
:1031300011928A95E9F7ACCE8CE29EE00E949B0644
:10314000882309F48CCD6F966EAD7FAD6F976115B6
:10315000710509F484CD61507109CE01875A9F4FE2
:103160000E94AB0A61E083E00E9438096AE07AE0DD
:103170008AE89EE00E94110A61E083E00E9438091B
:10318000BE01675A7F4F8AE89EE00E94D80467CD4F
:103190000E948F0860E080E00E9438096FE279E0C9
:1031A0008AE89EE00E94110A61E080E00E943809EE
:1031B000B7018AE89EE00E94110A83E2F701AAE4BF
:1031C000BCE001900D928A95E1F727968FAD279785
:1031D0008823E1F068EE73E080E090E00E94F60260
:1031E00084E090E090936E0C80936D0C0FB6F89491
:1031F0009EBE0FBE8DBECE01875A9F4F0E94090B07
:10320000CE01815A9F4F0E94090B2BCB68EE73E0D1
:1032100080E090E00E94F60225E030E030936E0CF2
:1032200020936D0CE3CF0E948F0860E080E00E9445
:1032300038096DE37BE08AE89EE00E94110A61E0B4
:1032400080E00E9438096BEC7AE08AE89EE00E94F8
:10325000110A6EE279E0CE01875A9F4F0E94C60B99
:103260008091480C9091490CFC0145E0EE0FFF1F46
:103270004A95E1F7EC5DFA4F20E2D80101900D92FA
:103280002A95E1F79F938F938DB79EB78855910943
:103290000FB6F8949EBF0FBE8DBFADB7BEB71196E7
:1032A00088E5E2E3FEE001900D928A95E1F70E9445
:1032B0005507EDB7FEB7E65AFF4F0FB6F894FEBFBD
:1032C0000FBEEDBF0E9490038823F1F08A330CF00B
:1032D0007BC281330CF0A0C2833209F489C28033EF
:1032E00009F493C26F968EAD9FAD6F9762E00D9714
:1032F00008F099C280E00E943809BE01675A7F4FEA
:103300008AE89EE00E94D8048FE29EE00E949B061D
:10331000882309F4ADC2CE01875A9F4F0E945F09EE
:103320000E948F0860E080E00E9438096DE37BE036
:103330008AE89EE00E94110A61E080E00E9438095C
:103340006AE47BE08AE89EE00E94110A6EE279E07E
:10335000CE018D5A9F4F0E94C60B8091480C9091D0
:10336000490CFC0135E0EE0FFF1F3A95E1F7EC5DEB
:10337000FA4F20E2D80101900D922A95E1F79F9330
:103380008F932DB73EB7285531090FB6F8943EBF3D
:103390000FBE2DBFADB7BEB7119688E5E2E3FEE0E4
:1033A00001900D928A95E1F70E9455078DB79EB75F
:1033B000865A9F4F0FB6F8949EBF0FBE8DBF0E94D6
:1033C00090038823F1F08A330CF07EC281330CF035
:1033D000A3C2833209F48CC2803309F496C2699681
:1033E0008EAD9FAD699762E0099708F09CC280E0BE
:1033F0000E943809BE016D5A7F4F8AE89EE00E9404
:10340000D8048FE29EE00E949B06882309F4B0C294
:10341000CE018D5A9F4F0E945F090E948F0860E085
:1034200080E00E9438096DE37BE08AE89EE00E941C
:10343000110A61E080E00E94380964E57BE08AE8D7
:103440009EE00E94110A6EE279E0CE01835B9F4FFD
:103450000E94C60B8091480C9091490CFC0125E01C
:10346000EE0FFF1F2A95E1F7EC5DFA4F20E2D8013D
:1034700001900D922A95E1F79F938F93EDB7FEB7D8
:10348000E855F1090FB6F894FEBF0FBEEDBFADB71A
:10349000BEB7119688E5E2E3FEE001900D928A95B1
:1034A000E1F70E9455072DB73EB7265A3F4F0FB69A
:1034B000F8943EBF0FBE2DBF0E9490038823F1F009
:1034C0008A330CF081C281330CF0A6C2833209F436
:1034D0008FC2803309F499C263968EAD9FAD639716
:1034E00062E00D9708F09FC280E00E943809BE019B
:1034F000635B7F4F8AE89EE00E94D8048FE29EE0E3
:103500000E949B06382E882309F4B8C2CE01835B43
:103510009F4F0E945F090E948F0883E2F70111927A
:103520008A95E9F76B966EAD7FAD6B97FB010190C5
:103530000020E9F7CF012DB73EB7E5963FAF2EAF9C
:10354000E597861B970BEDB7FEB7E81BF90B0FB697
:10355000F894FEBF0FBEEDBF2DB73EB72F5F3F4FB4
:103560006901C9010E94E120C6010E947C0A65969A
:103570006EAD7FAD6597FB0101900020E9F7CF01AB
:10358000861B970B2DB73EB7281B390B0FB6F89447
:103590003EBF0FBE2DBF8DB79EB701965C010E9446
:1035A000E120C5010E947C0A2F966EAD7FAD2F975A
:1035B000FB0101900020E9F7CF01861B970B2DB787
:1035C0003EB7281B390B0FB6F8943EBF0FBE2DBF78
:1035D0008DB79EB701963C010E94E120C3010E9475
:1035E0007C0AB601C7010E94E120B501CE01C09658
:1035F0000E94E120B301CE01C8960E94E120B601ED
:10360000CE01895B9F4F0E94C60B912C812C0E949A
:10361000D00E881699060CF02FC2B401C8010E9482
:10362000E40E29966EAD7FAD2997C8010E94D8207F
:10363000892B09F01DC2932CCE01895B9F4F0E94FC
:10364000090B9920E1F00E948F0860E080E00E9461
:10365000380962E67BE08AE89EE00E94110A61E098
:1036600080E00E94380960E77BE08AE89EE00E94E3
:10367000110A60ED77E080E090E00E94F602F6012A
:1036800001900020E9F7CF018C199D090997059752
:1036900038F10E948F0860E080E00E9438096AE7F4
:1036A0007BE08AE89EE00E94110A61E080E00E94CF
:1036B000380964E87BE08AE89EE00E94110A62E033
:1036C00080E00E9438096AE97BE08AE89EE00E9477
:1036D000110A60ED77E080E090E00E94F602932C02
:1036E000F50101900020E9F7CF0109978A159B05A4
:1036F000E9F00E948F0860E080E00E9438096DEADE
:103700007BE08AE89EE00E94110A61E080E00E946E
:10371000380969E87BE08AE89EE00E94110A60EDC2
:1037200077E080E090E00E94F602932CF301019094
:103730000020E9F7CF01861997090997059708F442
:10374000C9C10E948F0860E080E00E9438096CEBDC
:103750007BE08AE89EE00E94110A61E080E00E941E
:10376000380964E87BE08AE89EE00E94110A62E082
:1037700080E00E9438096AE97BE08AE89EE00E94C6
:10378000110A60ED77E080E090E00E94F602E1E04F
:10379000F0E0F0936E0CE0936D0CE5962EAD3FAD2E
:1037A000E5970FB6F8943EBF0FBE2DBFCE01835BE9
:1037B0009F4F0E94090BCE018D5A9F4F0E94090B0B
:1037C000CE01875A9F4F1FCD883509F08BCD809150
:1037D000480C9091490C019797FD05C09093490CB6
:1037E0008093480C7FCD5092490C4092480C7ACD82
:1037F0008091480C9091490C01968F31910570F39E
:103800001092490C1092480C6DCDB801CE01875A28
:103810009F4F0E94390B66CD682FCE01875A9F4F6C
:103820000E946B0B5FCD80E00E94380961E17AE075
:103830008AE89EE00E94110A62E080E00E94380956
:1038400062E07AE08AE89EE00E94110A68EE73E086
:1038500080E090E00E94F60262E080E00E94380979
:1038600061E17AE08AE89EE00E94110A62E042CDBE
:103870008CE29EE00E949B06882309F4F1CC6F96AF
:103880006EAD7FAD6F976115710509F4E9CC61509C
:103890007109CE01875A9F4F0E94AB0A62E080E017
:1038A0000E9438096AE07AE08AE89EE00E94110AE4
:1038B00062E080E00E943809BE01675A7F4F8AE8C3
:1038C0009EE00E94D804CCCC883509F088CD809148
:1038D000480C9091490C019797FD05C09093490CB5
:1038E0008093480C7CCD5092490C4092480C77CD87
:1038F0008091480C9091490C01968F31910570F39D
:103900001092490C1092480C6ACDB801CE018D5A24
:103910009F4F0E94390B63CD682FCE018D5A9F4F68
:103920000E946B0B5CCD80E00E94380961E17AE077
:103930008AE89EE00E94110A62E080E00E94380955
:1039400062E07AE08AE89EE00E94110A68EE73E085
:1039500080E090E00E94F60262E080E00E94380978
:1039600061E17AE08AE89EE00E94110A62E03FCDC0
:103970008CE29EE00E949B06882309F4EECC6996B7
:103980006EAD7FAD69976115710509F4E6CC6150A4
:103990007109CE018D5A9F4F0E94AB0A62E080E010
:1039A0000E9438096AE07AE08AE89EE00E94110AE3
:1039B00062E080E00E943809BE016D5A7F4F8AE8BC
:1039C0009EE00E94D804C9CC883509F085CD80914D
:1039D000480C9091490C019797FD05C09093490CB4
:1039E0008093480C79CD5092490C4092480C74CD8C
:1039F0008091480C9091490C01968F31910570F39C
:103A00001092490C1092480C67CDB801CE01835B2F
:103A10009F4F0E94390B60CD682FCE01835B9F4F73
:103A20000E946B0B59CD80E00E94380961E17AE079
:103A30008AE89EE00E94110A62E080E00E94380954
:103A400062E07AE08AE89EE00E94110A68EE73E084
:103A500080E090E00E94F60262E080E00E94380977
:103A600061E17AE08AE89EE00E94110A62E03CCDC2
:103A70009FEF891A990ACBCD912CDECD8CE29EE086
:103A80000E949B06882309F4E5CC63966EAD7FAD5A
:103A900063976115710509F4DDCC61507109CE01A0
:103AA000835B9F4F0E94AB0A62E080E00E9438096E
:103AB0006AE07AE08AE89EE00E94110A62E080E013
:103AC0000E943809BE01635B7F4F8AE89EE00E9436
:103AD000D804C0CC91105BCE27961FAE2797B601B5
:103AE000C7010E94E120B501CE01C0960E94E120ED
:103AF000B301CE01C8960E94E1206BEC7BE080E22E
:103B00009DE00E94110A0E948F0861E080E00E94FF
:103B1000380960EE7BE08AE89EE00E94110A68EEB8
:103B200073E080E090E00E94F6022DB73EB723528A
:103B300031090FB6F8943EBF0FBE2DBFADB7BEB76B
:103B4000119683E2F70101900D928A95E1F70E94A8
:103B5000230F8DB79EB783960FB6F8949EBF0FBE06
:103B60008DBF63EF7BE080E29DE00E94110A0E941E
:103B7000D00E0E9472090BCE0E948F0860E080E098
:103B80000E94380968E07CE08AE89EE00E94110A01
:103B90006CE271E080E090E00E94F60261E080E07B
:103BA0000E94380963E17CE08AE89EE00E94110AE5
:103BB0006CE271E080E090E00E94F60262E080E05A
:103BC0000E9438096BE17CE08AE89EE00E94110ABD
:103BD0006CE271E080E090E00E94F60263E080E039
:103BE0000E9438096AEF79E08AE89EE00E94110A93
:103BF0006EE279E0C8010E94C60B0E949003882300
:103C000099F02D813E812230310508F041C0682FA6
:103C1000C8010E946B0B63E08AE00E943809B8017A
:103C20008AE89EE00E94D8048FE29EE00E949B06F4
:103C3000882351F066E07AE0C8010E94960A882342
:103C400009F44DC00E94130A8CE29EE00E949B067C
:103C5000882399F26D817E816115710571F2615041
:103C60007109C8010E94AB0A61E080E00E94380936
:103C70006AE07AE08AE89EE00E94110A61E080E052
:103C80000E943809B8018AE89EE00E94D804B5CFA6
:103C900061E080E00E9438096AE07AE08AE89EE00C
:103CA0000E94110A61E080E00E94380962E07AE037
:103CB0008AE89EE00E94110A68EE73E080E090E0DE
:103CC0000E94F60261E080E00E9438096AE07AE032
:103CD0008AE89EE00E94110A61E080E09ECF68E0E1
:103CE0007AE0C8010E94960A882311F40C945115B9
:103CF0000E94BC0CA9CF6BE27CE080E29DE00E94B8
:103D0000FD096AE47CE080E29DE00E94FD090C94DC
:103D10003114F999FECF92BD81BDF89A992780B5EB
:103D20000895262FF999FECF1FBA92BD81BD20BDFF
:103D30000FB6F894FA9AF99A0FBE01960895A1E287
:103D40001A2EAA1BBB1BFD010DC0AA1FBB1FEE1F15
:103D5000FF1FA217B307E407F50720F0A21BB30B60
:103D6000E40BF50B661F771F881F991F1A9469F7DC
:103D700060957095809590959B01AC01BD01CF0138
:103D80000895EE0FFF1F881F8BBF0790F691E02D5F
:103D900019940F931F93CF93DF938230910510F402
:103DA00082E090E0E091A40EF091A50E30E020E0DA
:103DB000B0E0A0E0309799F42115310509F44AC02C
:103DC000281B390B24303105D8F58A819B81611578
:103DD000710589F1FB0193838283FE0111C040814B
:103DE00051810281138148175907E0F0481759079C
:103DF00099F4109761F012960C93129713961C93F6
:103E00003296CF01DF91CF911F910F9108950093CA
:103E1000A40E1093A50EF4CF2115310551F04217D1
:103E2000530738F0A901DB019A01BD01DF01F80158
:103E3000C1CFEF01F9CF9093A50E8093A40ECDCF03
:103E4000FE01E20FF31F81939193225031093983D0
:103E50002883D7CF2091A20E3091A30E232B41F4BB
:103E600020911502309116023093A30E2093A20EDA
:103E700020911302309114022115310541F42DB720
:103E80003EB74091170250911802241B350BE09168
:103E9000A20EF091A30EE217F307A0F42E1B3F0B26
:103EA0002817390778F0AC014E5F5F4F24173507AC
:103EB00048F04E0F5F1F5093A30E4093A20E8193C4
:103EC00091939FCFF0E0E0E09CCFCF93DF930097FA
:103ED000E9F0FC01329713821282A091A40EB091F6
:103EE000A50EED0130E020E01097A1F42081318192
:103EF000820F931F2091A20E3091A30E281739072D
:103F000009F061C0F093A30EE093A20EDF91CF9170
:103F10000895EA01CE17DF07E8F54A815B819E012B
:103F200041155105B1F7E901FB83EA8349915991A4
:103F3000C40FD51FEC17FD0761F4808191810296B3
:103F4000840F951FE90199838883828193819B83E4
:103F50008A83F0E0E0E012968D919C911397009790
:103F6000B9F52D913C911197CD010296820F931FC7
:103F70002091A20E3091A30E2817390739F63097F9
:103F800051F51092A50E1092A40EB093A30EA0931B
:103F9000A20EBCCFD383C28340815181840F951F71
:103FA000C817D90761F44E5F5F4F88819981480F28
:103FB000591F518340838A819B819383828321157A
:103FC000310509F0B0CFF093A50EE093A40E9ECF7B
:103FD000FD01DC01C0CF13821282D7CF4F925F92D6
:103FE0006F927F928F929F92AF92BF92CF92DF9209
:103FF000EF92FF920F931F93CF93DF938C01009763
:1040000099F4CB01DF91CF911F910F91FF90EF9029
:10401000DF90CF90BF90AF909F908F907F906F90E8
:104020005F904F900C94C91EFC01E60FF71F9C0196
:1040300022503109E217F30708F4AEC0D901CD913F
:10404000DC911197C617D70720F1C530D10578F05C
:10405000CE0104978617970750F0C61BD70B2297FF
:10406000C193D1936D937C93CF010E94651FC801CA
:10407000DF91CF911F910F91FF90EF90DF90CF9044
:10408000BF90AF909F908F907F906F905F904F9078
:1040900008955B01AC1ABD0A4C018C0E9D1EA091C7
:1040A000A40EB091A50E512C412CF12CE12C1097AF
:1040B00031F58091A20E9091A30E8815990509F013
:1040C0005CC04616570608F058C0809113029091C4
:1040D0001402009741F48DB79EB74091170250919A
:1040E0001802841B950BE817F90708F055C0F093E8
:1040F000A30EE093A20EF90171836083B8CF8D9176
:104100009C91119712966C90129713967C9013972E
:10411000A815B90559F56C0142E0C40ED11CCA14AA
:10412000DB0420F1AC014A195B09DA0112961597FC
:1041300080F06282738251834083D9016D937C93B6
:10414000E114F10471F0D7011396FC93EE931297EA
:104150008ECF22968C0F9D1FF90191838083F301EE
:10416000EFCFF093A50EE093A40E81CF4816590629
:1041700008F42C017D01D3019ACFCB010E94C91E06
:104180007C01009749F0AE01B8010E94CF20C80120
:104190000E94651F87016BCF10E000E068CFFB0134
:1041A000DC0102C001900D9241505040D8F70895B3
:1041B000FB01DC018D91019080190110D9F3990B5D
:1041C0000895FB01DC0101900D920020E1F70895B4
:0441D000F894FFCF91
:1041D4001E1F201A1B1C1D31323334353637383933
:1041E4005830230000A60E800000010101000100E8
:1041F40000000101010101010100000001010000B2
:10420400000101010101000100000001010101019F
:10421400000100000001010101010001010101018F
:104224000100000000010000000001000000000186
:10423400010101010101010100010000000101006F
:104244000000010100000001010101010001010160
:104254000101010000000001010101010100000051
:10426400000101010101010101010101000000003F
:104274000101010101010000000001000000000033
:104284000101010101000000000100010101010020
:104294000000010001010101010000000101000012
:1042A4000001010101010101000000010100000001
:1042B40001010101010100000100000000010000F2
:1042C40000000100000101010101010101010100DF
:1042D40000010000000001000000000100000101D5
:1042E40000000001000001000100010000010100C4
:1042F40000000100010000010000010001000000B5
:1043040000010000000001000000000100000000A6
:10431400010101010101010001010100010001018C
:104324000000000101000000010100000001010083
:104334000000010101000001010001000101000071
:104344000101010000000100000101000101000061
:104354000101000100010100000101010000000150
:104364000001010100010000000101000000010141
:104374000000000100010101000001010100010031
:104384000000010101010100010000000001000022
:104394000000000101010001000000010100000013
:1043A40001010001000100010101010101010100FD
:1043B40001000000010101010100010000010001F0
:1043C40000000001000101010101000000000001E2
:1043D40001010000000000010101010100010101CF
:1043E40001010000010000000001000000000100C4
:1043F40000000001000001000000010100000001B4
:1044040001000000010100000001000101010001A0
:104414000000000101000000010100000001000192
:104424000001000000010000010000000101000083
:10443400000101000000010100010001010100016F
:104444000101000000010001000100000001000062
:104454000001000100010000000101000000010052
:104464000100010000000100000000010000000044
:104474000100000101010101000000010000000130
:104484000000000100000001010101010100010020
:104494000100010101000000010000000101010010
:1044A40001000100010001000100010101010100FE
:1044B40001000100010101010100010001000001EE
:1044C40001010101000100000001010100000001DF
:1044D40000010101010100000001000000000100D1
:1044E40000000001000000000000000000010000C6
:1044F400A100FE07610000000000000000000000B1
:1045040000000000000000000000000000000000A7
:104514000000000062000000000000000000000035
:104524000000000000000000000000000000000087
:104534000000010063000000000000000000000013
:104544000000000000000000000000000000000067
:1045540000000200640000000000000000000000F1
:104564000000000000000000000000000000000047
:1045740000000300650000000000000000000000CF
:104584000000000000000000000000000000000027
:1045940000000400660000000000000000000000AD
:1045A4000000000000000000000000000000000007
:1045B400000005006700000000000000000000008B
:1045C40000000000000000000000000000000000E7
:1045D4000000060068000000000000000000000069
:1045E40000000000000000000000000000000000C7
:1045F4000000070069000000000000000000000047
:1046040000000000000000000000000000000000A6
:10461400000008006A000000000000000000000024
:104624000000000000000000000000000000000086
:10463400000009006B000000000000000000000002
:104644000000000000000000000000000000000066
:1046540000000A006C0000000000000000000000E0
:104664000000000000000000000000000000000046
:1046740000000B006D0000000000000000000000BE
:104684000000000000000000000000000000000026
:1046940000000C006E00000000000000000000009C
:1046A4000000000000000000000000000000000006
:1046B40000000D00C3B10000000000000000000075
:1046C40000000000000000000000000000000000E6
:1046D40000000E006F000000000000000000000059
:1046E40000000000000000000000000000000000C6
:1046F40000000F0070000000000000000000000037
:1047040000000000000000000000000000000000A5
:104714000000100071000000000000000000000014
:104724000000000000000000000000000000000085
:1047340000001100720000000000000000000000F2
:104744000000000000000000000000000000000065
:1047540000001200730000000000000000000000D0
:104764000000000000000000000000000000000045
:1047740000001300740000000000000000000000AE
:104784000000000000000000000000000000000025
:10479400000014007500000000000000000000008C
:1047A4000000000000000000000000000000000005
:1047B400000015007600000000000000000000006A
:1047C40000000000000000000000000000000000E5
:1047D4000000160077000000000000000000000048
:1047E40000000000000000000000000000000000C5
:1047F4000000170078000000000000000000000026
:1048040000000000000000000000000000000000A4
:104814000000180079000000000000000000000003
:104824000000000000000000000000000000000084
:10483400000019007A0000000000000000000000E1
:104844000000000000000000000000000000000064
:1048540000001A002A000000000000000000000010
:104864000000000000000000000000000000000044
:1048740000001B00230000000000000000000000F6
:104884000000000000000000000000000000000024
:1048940000001C00240000000000000000000000D4
:1048A4000000000000000000000000000000000004
:1048B40000001D00210000000000000000000000B6
:1048C40000000000000000000000000000000000E4
:1048D40000001E0000000000D105E60413051E06BA
:1048E4008F052205810500000000CD028D025C02C7
:1048F400000000004A09E6046B06D7040D0A0042D2
:1049040069656E76656E69646F00526F6265727474
:104914006F32303230303035343400456467617280
:10492400646F32303138303131313900436573616D
:104934007220323032303130383136004A6F73658C
:104944002032303230303138303000416E67656C9F
:104954002032303230313230333900456E74726F68
:104964002061206C6F6F70206E6F6D627265004CF9
:104974004F47494E00202D2000456E74726F206110
:1049840020656E20656E766961646F20616C676F67
:10499400004461746F206F6274656E69646F206493
:1049A4006520617070004D656E75205072696E638C
:1049B4006970616C00312E204C6F67696E00322E75
:1049C40020526567697374726F004F7063696F6E0C
:1049D4003A004D4158003100320020202020202090
:1049E4002020202020202020202000496E6465788B
:1049F400206F7574206F6620626F756E6473004556
:104A04004550524F4D2046554C4C00454550524F51
:104A14004D20524553455445440054616D616E69BF
:104A24006F20454550524F4D2000456E74726164AD
:104A3400613A00312E2041706C69636163696F6E65
:104A440000322E204B657950616400415050004B78
:104A5400657900204573706572616E646F202075FE
:104A64006E612000202020636F6E6578696F6E2E62
:104A74002E2E202000436F6E65637461646F206383
:104A84006F6E20657869746F0046696E616C20648E
:104A94006520636F6E6563746172004E6F6D627240
:104AA400653A2000417070004E6F6D62726500536C
:104AB400616C692064656C206E6F6D627265005074
:104AC400617373776F72643A200050617373776F08
:104AD4007264004E6F6D6272652063696672616410
:104AE4006F3A200050617373776F72642063696654
:104AF4007261646F3A2000496E636F727265637409
:104B04000043726564656E7469616C73003D3D5267
:104B14006567697374726F3D3D0043656C756C61C4
:104B2400723A2000436F6E74726173656E69613A04
:104B34002000456C207573756172696F207961007E
:104B4400657869737465203A2800456C206E6F6D32
:104B54006272650064656265207365722064652015
:104B6400382064696769746F73006D696E696D6F6D
:104B74002079203132206D6178696D6F00456C2099
:104B84006E756D65726F2064656265004C612063AB
:104B94006F6E74726173656E6961005573756172CD
:104BA400696F207265676973747261646F3A20007B
:104BB4005573756172696F20726567697374726188
:104BC400646F005573756172696F2052656769730C
:104BD400747261646F3A20004D656E752041444DD6
:104BE400494E00312E204C4F475300322E2043486B
:104BF40045434B2053544154555300536F7920750A
:104C04006E20636C69656E7465203A29003934300E
:044C1400363900002D
:00000001FF
