:100000000C945C010C948D010C948D010C948D0169
:100010000C948D010C948D010C948D010C948D0128
:100020000C948D010C948D010C948D010C948D0118
:100030000C948D010C948D010C948D010C948D0108
:100040000C948D010C948D010C948D010C948D01F8
:100050000C948D010C948D010C948D010C94861FD1
:100060000C948D010C945A200C9430200C948D012A
:100070000C948D010C948D010C948D010C948D01C8
:100080000C948D010C948D010C948D010C948D01B8
:100090000C94FA1F0C94D01F0C948D010C948D01BC
:1000A0000C948D010C948D010C948D010C948D0198
:1000B0000C948D010C948D010C948D010C948D0188
:1000C0000C948D010C948D010C948D010C948D0178
:1000D0000C948D010C948D010C948D010C948D0168
:1000E0000C948D010C94F7010C940C020C942005D7
:1000F0000C9438020C942A020C9409020C945709AF
:100100000C941F2C0C9412020C943C020C94B425F9
:100110000C9445300C9496310C94EF2A0C948E0577
:100120000C94FD010C9437020C94372F0C94200290
:100130000C949C050C9424020C942E020C94320214
:100140000C9490200C9472270C94B1280C9469277D
:100150000C949A020C9405020C9401020C944F2505
:100160000C9469020C9416020C94F3040C942F0561
:100170000C9475270C94DE050C94392A0C94E40435
:100180000C941C020C9478270C9478060C94DA02D8
:100190000C942B0600002100240027002A002D00CB
:1001A0003000330001010000040107010A010000D2
:1001B0002200250028002B002E003100340002010F
:1001C0000000050108010B010000200023002600AB
:1001D00029002C002F00320000010000030106015D
:1001E00009010505050507050808080802020202BD
:1001F0000A0A0808040404040101010101010101C3
:100200000303030303030303040707070C0C0C0C8D
:100210000C0C0C0C02020202060606060606060676
:100220000B0B0B0B0B0B0B0B010210202008081003
:100230002040102040800201020108040201010256
:10024000040810204080804020100804020180042F
:10025000020180402010080402010804020101028A
:100260000408102040800102040810204080000093
:100270000A0B02090C0D0E08070304010000000020
:10028000000000000000000000000000000000006E
:10029000000000000000000000001211100000002B
:1002A000000000000000000000000000000000004E
:1002B000000000009020963111241FBECFEFD1E244
:1002C000DEBFCDBF00E00CBF22E1ACEEBFE001C05D
:1002D0001D92A435B207E1F71FE0A0E0B2E0E0E82C
:1002E000F8E600E00BBF02C007900D92AC3EB107EC
:1002F000D9F711E0CBE5D1E000E006C02197010974
:10030000802FFE010E940732CA35D10780E008071E
:10031000A9F70E9415220C942E340C940000FC01C5
:10032000A089B18982E08C93A485B5851C92A685AD
:10033000B7858FEC8C93108EA489B58986E08C9359
:10034000A289B3898C9180618C93A289B3898C91A5
:1003500088608C93A289B3898C9180688C93028881
:10036000F389E02D80818F7D8083089596E0899FB9
:10037000D0011124AB59BE4E90967C936E935F973B
:1003800091E091969C939197E091D211F091D311C5
:100390009091D111992339F0309751F0811108C013
:1003A000809181111994309719F05C968C91FACF55
:1003B00008958150823108F05AC0E82FF0E0882774
:1003C000EB51FE4F8F4F0C94073205020902F701E3
:1003D000FD01010237020C02120216021C02200269
:1003E00024022A022E023702320238023C02809195
:1003F00080008F77809380000895809180008F7DAA
:10040000F9CF80918000877FF5CF84B58F7784BD49
:10041000089584B58F7DFBCF8091B0008F77809356
:10042000B00008958091B0008F7DF9CF8091900049
:100430008F77809390000895809190008F7DF9CF01
:1004400080919000877FF5CF8091A0008F77809377
:10045000A00008958091A0008F7DF9CF8091A00029
:10046000877FF5CF809120018F77809320010895B9
:10047000809120018F7DF9CF80912001877FF5CF7A
:10048000CF93DF93282F30E0F901E259FD4F84919B
:10049000F901E85DFD4FD491F901EE51FE4FC49191
:1004A000CC23A1F081110E94D901EC2FF0E0EE0FD6
:1004B000FF1FE853FE4FA591B491EC91ED2381E02D
:1004C00090E009F480E0DF91CF91089580E090E022
:1004D000FACF862F0C9440021F93CF93DF93282FDF
:1004E00030E0F901E259FD4F8491F901E85DFD4FDB
:1004F000D491F901EE51FE4FC491CC23A9F0162FEF
:1005000081110E94D901EC2FF0E0EE0FFF1FE255A0
:10051000FE4FA591B4918FB7F894EC91111108C0DA
:10052000D095DE23DC938FBFDF91CF911F9108958B
:10053000DE2BF8CF862F642F0C946C02CF93DF93C1
:1005400090E0FC01E85DFD4F24918E519E4FFC012F
:1005500084918823C9F090E0880F991FFC01EC5624
:10056000FE4FA591B491FC01E255FE4FC591D49187
:1005700061110DC09FB7F8948C91209582238C93C4
:100580008881282328839FBFDF91CF91089562300F
:1005900051F49FB7F8943C91822F809583238C93DC
:1005A000E8812E2BEFCF8FB7F894EC912E2B2C9364
:1005B0008FBFEACF862F642F0C949E023FB7F8942A
:1005C0008091271090912810A0912910B0912A10A5
:1005D00026B5A89B05C02F3F19F00196A11DB11D9E
:1005E0003FBFBA2FA92F982F8827BC01CD01620FDA
:1005F000711D811D911D42E0660F771F881F991F95
:100600004A95D1F708958F929F92AF92BF92CF9261
:10061000DF92EF92FF924B015C010E94DE026B01C0
:100620007C010E94DE026C197D098E099F09683EDB
:10063000734081059105A8F321E0821A9108A10871
:10064000B10888EEC80E83E0D81EE11CF11C8114AD
:100650009104A104B10429F7FF90EF90DF90CF90AF
:10066000BF90AF909F908F9008952FB7F8946091AE
:1006700023107091241080912510909126102FBF87
:1006800008950F931F93CF93DF93C82FD62F86E043
:10069000C89FF0011124EB59FE4E11A2878D90A145
:1006A00081309105F1F058F082309105F1F1039716
:1006B00009F440C0DF91CF911F910F9108956623F7
:1006C000C9F361E070E08C2F0E94B6010E943503EF
:1006D0006093BD117093BE118093BF119093C011B0
:1006E000E9CF0E9435030091BD111091BE112091F8
:1006F000BF113091C011AB01BC01401B510B620B0B
:10070000730B8091CF119091D011B0E0A0E08417CD
:100710009507A607B70748F462E070E08C2FDF91D9
:10072000CF911F910F910C94B60163E070E0D1114D
:10073000C1CFF4CF70E060E0F1CF6F927F928F92E3
:100740009F92AF92BF92CF92DF92EF92FF920F9360
:100750001F93CF93DF9381E08093D1110E943503E3
:100760000091C1111091C2112091C3113091C41197
:10077000AB01BC01401B510B620B730B8091CD117F
:100780009091CE11B0E0A0E084179507A607B707B7
:1007900008F014C1C0E08091CB11C81760F4E0915B
:1007A000C711F091C811EC0FF11D62E080810E9429
:1007B0009E02CF5FF0CF712C812C912C5401839439
:1007C0008091CC11781608F05FC0072D10E0E09101
:1007D000C911F091CA11E00FF11F61E080810E9400
:1007E0009E02E091C911F091CA11E00FF11F60E083
:1007F00080810E946C02D501C401072C04C0880FBF
:10080000991FAA1FBB1F0A94D2F76C017C01E094C8
:10081000F094612C8091CB116816F8F4C62DD0E0CD
:10082000E091C711F091C811EC0FFD1F80810E946B
:1008300040022496CC0FDD1FCB59DE4E892B41F4AC
:10084000888199818C299D29998388836394E2CF3B
:10085000888199818E219F21F7CFE091C911F09174
:10086000CA11E00FF11F61E080810E946C0280914B
:10087000C9119091CA11080F191F60E0F801808119
:100880000E949E0273949CCFC5E6D1E1FE018FEFDA
:100890009FEF278D30A1232B21F4148E968F858F07
:1008A00011A2369621E1E13AF20799F7F12C96E090
:1008B000D92E8091CB11F81608F050C0E12C0F2DE5
:1008C00010E0000F111F03591E4E2091CC11E216AB
:1008D00008F042C0F801608171810E2C02C076954B
:1008E00067950A94E2F7F29E900111242E0D311DB6
:1008F000E5E6F1E180E0458D568D2417350709F4D2
:1009000061C08F5F36968A30B1F760FF23C0E5E69D
:10091000F1E190E080E0448D411117C0E091C511F4
:10092000F091C611E20FF31F4081D89EF001D99ECD
:10093000F00D1124EB59FE4E448F368F258F10A2F7
:10094000178E61E00E94410305C0019636968A30F9
:10095000910509F7E394B9CFF394ABCF10E089A1E7
:100960008111182F2696F1E1C13ADF07C1F70E94E5
:1009700035036093C1117093C2118093C31190939A
:10098000C4111123D9F0809186118823B9F0809188
:10099000841190918511019789F480918111DF91E3
:1009A000CF911F910F91FF90EF90DF90CF90BF906C
:1009B000AF909F908F907F906F9008951092D1117B
:1009C00080E0EDCF6170BECF0895DB0114964D91AC
:1009D0005C9115976D917C91DC01ED91FC91028009
:1009E000F381E02D1994AF92BF92CF92DF92EF92F4
:1009F000FF920F931F93CF93DF936C017B018B01C9
:100A0000040F151FEB015E01AE18BF08C017D10718
:100A100059F06991D601ED91FC910190F081E02DA2
:100A2000C6011995892B79F7C501DF91CF911F91E7
:100A30000F91FF90EF90DF90CF90BF90AF9008950F
:100A4000FC01538D448D252F30E0842F90E0821BD4
:100A5000930B541710F0CF96089501970895FC0159
:100A6000918D828D981761F0A28DAE0FBF2FB11DB1
:100A70005D968C91928D9F5F9F73928F90E0089509
:100A80008FEF9FEF0895CF92DF92EF92FF920F9337
:100A90001F93CF93DF938C01D0E0C0E00E94350319
:100AA0006093331070933410809335109093361008
:100AB0008BE290E10E942F0597FF28C00E9435032A
:100AC000C0903310D0903410E0903510F090361074
:100AD0006C197D098E099F09C0902F10D09030109D
:100AE000E0903110F09032106C157D058E059F0559
:100AF000F8F2CE01DF91CF911F910F91FF90EF900F
:100B0000DF90CF900895C2E0D0E0F3CFF801819359
:100B10008F012197C1F3C1E0D0E0C0CFFC01918DDE
:100B2000828D981731F0828DE80FF11D858D90E050
:100B300008958FEF9FEF0895FC01918D228D892FED
:100B400090E0805C9F4F821B91098F7399270895D5
:100B50008BE290E10E949C0521E0892B09F420E0C2
:100B6000822F089588EC90E10E949C0521E0892B5A
:100B700009F420E0822F0895FC01A48DA80FB92F5D
:100B8000B11DA35ABF4F2C91848D90E001968F73B5
:100B90009927848FA689B7892C93A089B1898C91D4
:100BA000837080648C93938D848D981306C0028823
:100BB000F389E02D80818F7D80830895EF92FF92ED
:100BC0000F931F93CF93DF93EC0181E0888F9B8D70
:100BD0008C8D98131AC0E889F989808185FF15C02A
:100BE0009FB7F894EE89FF896083E889F98980814D
:100BF0008370806480839FBF81E090E0DF91CF911C
:100C00001F910F91FF90EF900895F62E0B8D10E03D
:100C10000F5F1F4F0F731127E02E8C8D8E110CC0AC
:100C20000FB607FCFACFE889F989808185FFF5CFF7
:100C3000CE010E94BC05F1CFEB8DEC0FFD2FF11D15
:100C4000E35AFF4FF0829FB7F8940B8FEA89FB8934
:100C500080818062CFCFCF93DF93EC01888D882392
:100C6000B9F0AA89BB89E889F9898C9185FD03C00F
:100C7000808186FD0DC00FB607FCF7CF8C9185FFF4
:100C8000F2CF808185FFEDCFCE010E94BC05E9CF78
:100C9000DF91CF91089580E090E0892B29F00E94A8
:100CA000B20581110E94000080E090E0892B29F0BC
:100CB0000E94A80581110E94000080E090E0892B2D
:100CC00049F080E090E0892B29F00E94000081111A
:100CD0000E94000080E090E0892B49F080E090E0E5
:100CE000892B29F00E94000081110C9400000895C6
:100CF00090E080E00895CF92DF92EF92FF92CF9341
:100D0000DF930E943503EB010E9435030E943503F7
:100D10006B018BE290E10E949C05892B29F08BE20C
:100D200090E10E942F05F5CFCC1ADD0A88EEC81697
:100D300083E0D8065CF38BE290E10E949C05892B4E
:100D400029F7DF91CF91FF90EF90DF90CF9008953A
:100D5000CF93DF93EC018A8181110AC088810E94C0
:100D60004002019729F481E08A83DF91CF910895B1
:100D70008A81811102C080E0F8CF88810E94400200
:100D8000892BC9F71A82F7CF4F925F926F927F92A9
:100D90008F929F92AF92BF92CF92DF92EF92FF928B
:100DA0000F931F93CF93DF931F921F92CDB7DEB7A0
:100DB0008C0149832A83660F771FF801EA5AFF4F97
:100DC000E080F180EE0CFF1CF801CF01801B910B3D
:100DD0008E159F0514F41192F8CF8981F801E60F62
:100DE000F71F81838A818083680184E5C80ED11C46
:100DF00060E0F60180810E946C025801F2E5AF0EBE
:100E0000B11C480180E5880E911C1E141F040CF5CE
:100E1000E1E0EE1AF108F801EE0DFF1D6080F5012A
:100E20005080F401408088E0782E662D661F66278A
:100E3000661F842D0E946C02660C61E0852D0E9465
:100E40006C0260E0852D0E946C027A947110EDCFE7
:100E5000DCCF61E0F60180810F900F90DF91CF91A0
:100E60001F910F91FF90EF90DF90CF90BF90AF90C8
:100E70009F908F907F906F905F904F900C946C023A
:100E8000EF92FF920F931F93CF937C018C0183E02D
:100E9000000F111F8A95E1F700511E4EC1E0F801C5
:100EA00011928F0120E04C2FB70180EE91E10E945A
:100EB000C406CF5FC93099F7CF911F910F91FF9072
:100EC000EF9008959F92AF92BF92CF92DF92EF92F0
:100ED000FF920F931F93CF93DF93CDB7DEB7C0542C
:100EE000D1090FB6F894DEBF0FBECDBFC955DF4F95
:100EF00028813981C75AD040FE01319680E4DF0154
:100F00001D928A95E9F749E1429FC001439F900DE8
:100F10001124875E9D4F8F01BE01675D7F4FAF013A
:100F200030E020E0FA01E20FF31FDC01A20FB31F53
:100F3000AC91A18B2F5F3F4F2530310599F7059676
:100F4000485F5F4F4617570759F7FE01E15BFF4FB8
:100F50007F019924939480E8A82EB12CD12CC12C28
:100F6000CB55DF4F88819981C55AD0401816190694
:100F7000FCF4C5010C2C02C0959587950A94E2F704
:100F8000D70150962C915097F801EC0DFD1D308142
:100F9000332389F1822B50968C93D70150962C9154
:100FA000492D70E060E0CE01815B9F4F0E94C40636
:100FB000BFEFCB1ADB0AE8E0CE16D10489F6FFEFCB
:100FC000EF1AFF0A9394085F1F4F89E09812C6CF6B
:100FD000C05CDF4F0FB6F894DEBF0FBECDBFDF9110
:100FE000CF911F910F91FF90EF90DF90CF90BF9026
:100FF000AF909F90089580958223F701808BCDCF8D
:10100000CF93DF93EC0160E08E810E946C0261E07F
:101010008E810E946C0260E08E810E946C028BE8DF
:1010200091E00197F1F7DF91CF910895CF92DF9290
:10103000EF92FF920F931F93CF93DF936C017C018C
:1010400087E0E80EF11CD0E0C0E0062F10E0B80108
:101050000C2E02C0759567950A94E2F76170F7014E
:1010600081917F010E946C022196C430D10579F7ED
:10107000C601DF91CF911F910F91FF90EF90DF900C
:10108000CF900C940008CF92DF92EF92FF920F93D3
:101090001F93CF93DF93EC01F62E642F8C810E9477
:1010A0006C028D818F3F19F060E00E946C020F2D61
:1010B00010E08F8584FF25C06E0187E0C80ED11C2B
:1010C000F12CE12CB8010E2C02C0759567950A949D
:1010D000E2F76170F60181916F010E946C02FFEFEF
:1010E000EF1AFF0A88E0E816F10461F7CE01DF91FC
:1010F000CF911F910F91FF90EF90DF90CF900C94C4
:101100000008B80184E0759567958A95E1F7CE01EE
:101110000E9416086F2DCE01DF91CF911F910F9184
:10112000FF90EF90DF90CF900C94160840E0682F6E
:1011300088E392E10C94430881E00E9496088BE3D7
:101140009FE10197F1F70895CF93DF93813029F064
:101150009091471298609093471280934B1210928F
:101160004C1280E480934D1280E180934E1280E512
:1011700080934F1261E080913C120E949E02809108
:101180003D128F3F19F061E00E949E0261E0809164
:101190003E120E949E02C8E3D2E19E0128533241D2
:1011A0008091471284FD0BC084E090E021962817BF
:1011B000390744F461E08E810E949E02EECF88E000
:1011C00090E0F4CF8BE39DE00197F1F760E0809130
:1011D0003C120E946C0260E080913E120E946C0200
:1011E00080913D128F3F19F060E00E946C02809167
:1011F000471284FD34C063E088E392E10E94160840
:10120000CBE4D6E4CE010197F1F763E088E392E105
:101210000E9416082197F1F763E088E392E10E94AB
:10122000160883E592E00197F1F762E088E392E126
:101230000E9416088091471280620E94960884E0FE
:10124000809348128CE00E9496080E949C0882E0DD
:101250008093491286E0DF91CF910C9496088062CA
:101260000E9496088BE496E40197F1F7809147126B
:1012700080620E94960883E592E00197F1F78091E1
:10128000471280620E949608D5CF643008F063E070
:1012900090914B12691710F06FEF690FE62FF0E095
:1012A000E85CFD4E9489890F80680C94960841E0B3
:1012B0000E94430881E090E00895FC01248135817B
:1012C000232B39F421E0FB018081882349F020E0C1
:1012D00007C0808191810E941E3421E0892BB9F7DB
:1012E000822F0895FB0101900020E9F73197AF01AB
:1012F000461B570BDC01ED91FC910280F381E02D40
:1013000019948F929F92AF92BF92EF92FF920F9398
:101310001F93CF93DF93CDB7DEB7A1970FB6F894A5
:10132000DEBF0FBECDBF7C01FA01CB0119A2223076
:1013300008F42AE08E010F5D1F4F822E912CB12CF4
:10134000A12CBF01A50194010E94E531F901CA0158
:101350006A300CF5605DD8016E938D01232B242B30
:10136000252B79F790E080E0109721F0BD01C701AF
:101370000E947209A1960FB6F894DEBF0FBECDBFD2
:10138000DF91CF911F910F91FF90EF90BF90AF90A1
:101390009F908F900895695CDECFCF92DF92EF929D
:1013A000FF92CF93DF936C01990FEE08FF08F7FED1
:1013B00023C06DE288EC90E10E94DE05EC01442739
:1013C0005527BA014C195D096E097F092AE088EC9E
:1013D00090E10E948109C80FD91F6EE279E088EC84
:1013E00090E10E9472098C0F9D1FDF91CF91FF90B9
:1013F000EF90DF90CF9008952AE0B701A60188EC26
:1014000090E10E948109EC01E8CF0F931F93CF93E5
:10141000DF93EC010E9472098C016EE279E0CE014B
:101420000E947209800F911FDF91CF911F910F9140
:1014300008950C947209CF93DF93FC010190002072
:10144000E9F73197E81BF90BDC0138E0AD01481BE7
:10145000590B4E175F0734F42D91ED012197232787
:101460002883F4CFDF91CF910895CF93DF93FC01D0
:1014700001900020E9F73197E81BF90BDC0138E017
:10148000AD01481B590B4E175F0734F42D91ED0148
:10149000219723272883F4CFDF91CF910895DC0192
:1014A00014968D919C9115976817790750F4ED91DA
:1014B000FC911197E60FF71F15967C936E93149786
:1014C000108208950F931F93CF93DF938C01EB014C
:1014D000FC01808191810097E1F06881798161153B
:1014E0007105A9F0428153812C813D814217530738
:1014F00070F00E9427348C819D81F801958384834C
:101500001D821C82DF91CF911F910F9108950E943F
:10151000AB3288819981F801918380838A819B8194
:10152000938382838C819D81958384831982188221
:101530001B821A82E5CFFC0180819181009711F016
:101540000C94AB3208950F931F93CF93DF93EC016C
:1015500088819981009759F02A813B8126173707A6
:1015600030F081E0DF91CF911F910F9108958B01B1
:101570006F5F7F4F0E943433009759F099838883BF
:101580001B830A832C813D81232B59F7FC01108298
:10159000E8CF80E0E7CFEF92FF920F931F93CF93B6
:1015A000DF93FB0101900020E9F73197E61BF70B71
:1015B000E1F07B018C01DC011496CD91DC91CE0F22
:1015C000DF1FBE010E94A30A882381F0F801208159
:1015D000318184819581B701820F931F0E94273446
:1015E000D8011596DC93CE93149781E0DF91CF91CB
:1015F0001F910F91FF90EF900895EF92FF920F933C
:101600001F93CF93DF931F921F92CDB7DEB78C014C
:1016100069831A82FC01E480F580FFEFEF1AFF0A6C
:10162000B7010E94A30A882381F0F801208131814B
:1016300084819581BE016F5F7F4F820F931F0E944F
:101640002734F801F582E48281E00F900F90DF915A
:10165000CF911F910F91FF90EF900895EF92FF921D
:101660000F931F93CF93DF93EC017B018A01BA01A3
:101670000E94A30A28813981811114C021153105E6
:1016800019F0C9010E94AB32198218821D821C8296
:101690001B821A82CE01DF91CF911F910F91FF9093
:1016A000EF9008951D830C83B701C9010E94273470
:1016B000F1CFFB0101900020E9F73197AF01461B04
:1016C000570B0C942E0B0F931F93CF93DF93CDB733
:1016D000DEB762970FB6F894DEBF0FBECDBF8C01A8
:1016E000CB01F801118210821382128215821482BA
:1016F0004AE0BE016F5F7F4F0E949A31BE016F5F6B
:101700007F4FC8010E94590B62960FB6F894DEBF56
:101710000FBECDBFDF91CF911F910F910895FB01B7
:10172000DC0111961C921E9213961C921E92129727
:1017300015961C921E9214978617970749F06081A0
:1017400071816115710521F0448155810C942E0B36
:101750000895FC0111821082138212821582148274
:10176000FB0101900020E9F73197AF01461B570BB1
:101770000C942E0B7F928F929F92AF92BF92CF923A
:10178000DF92EF92FF920F931F93CF93DF9300D0DE
:1017900000D000D0CDB7DEB78C010E949C0860E07D
:1017A00080E00E94450961E379E088E392E10E94CC
:1017B000190A6CE271E080E090E00E94030361E0AE
:1017C00080E00E9445096AE379E088E392E10E94A3
:1017D000190A6CE271E080E090E00E94030362E08D
:1017E00080E00E94450968E479E088E392E10E9484
:1017F000190A6CE271E080E090E00E94030363E06C
:1018000080E00E94450962E579E088E392E10E9468
:10181000190A60E379E0CE0101960E94A90B8824A1
:101820008394EE24E394F12C93E0C92ED12C22E092
:10183000A22EB12C0E949D038823B1F02D813E8100
:101840002230310508F046C0682FCE0101960E9473
:10185000FD0A63E08CE00E944509BE016F5F7F4F87
:1018600088E392E10E94E50487ED91E10E94A806D9
:10187000982E882309F482C06FE679E0CE010196A4
:101880000E945D09882309F4C4C08092051010925B
:1018900006100E947B060E949C0861E779E088E3BD
:1018A00092E10E94190A61E080E00E94450962E825
:1018B00079E088E392E10E94190A712C8BE290E1B1
:1018C0000E949C05892B59F1CE0107960E94430581
:1018D000792CF4CF63E08CE00E9445096AE579E059
:1018E00088E392E10E94190A63E08CE00E944509B6
:1018F0006BE679E088E392E10E94190A68EE73E0F2
:1019000080E090E00E94030363E08CE00E944509C0
:101910006AE579E088E392E10E94190A9ACF77207C
:1019200069F28BE290E10E949C05892B39F60E94B6
:101930007B060E949C0863E979E088E392E10E94BB
:10194000190A68EE73E080E090E00E9403030E94B1
:101950009C0867EA79E088EC90E10E94050A013072
:10196000110509F44CC00230110509F44DC00115F0
:10197000110521F4B0922110A092201084ED91E184
:101980000E94A806882301F16D817E816115710591
:10199000D9F061507109CE0101960E944F0A63E0AF
:1019A0008CE00E9445096AE579E088E392E10E94B3
:1019B000190A63E08CE00E944509BE016F5F7F4F0A
:1019C00088E392E10E94E504992009F433CFCE0127
:1019D00001960E949B0A29960FB6F894DEBF0FBEAF
:1019E000CDBFDF91CF911F910F91FF90EF90DF90CE
:1019F000CF90BF90AF909F908F907F900895D0929E
:101A00002110C0922010BACFF0922110E092201045
:101A1000B5CF69EB79E0CE0101960E945D0988237C
:101A2000B1F2109205108092061099CF4F925F92FA
:101A30006F927F92AF92BF92CF92DF92FF920F93FD
:101A40001F93CF93DF9300D0CDB7DEB76C015B015E
:101A50003A010E947B06B5018BE290E10E94050AE3
:101A6000F12C8BE290E10E949C05892B39F0CE018C
:101A700001960E944305FF24F394F3CFFF2089F3DE
:101A80008BE290E10E949C058C01892B51F7ECEED2
:101A9000FFE08BE0DF011D928A95E9F70E949C0828
:101AA000B30188E392E10E94190A61E080E00E949C
:101AB00045096BEB79E088E392E10E94190AB501D0
:101AC00088E392E10E94190A68E379E088E392E1F1
:101AD0000E94190A60E379E088E392E10E94050A16
:101AE00062E080E00E9445090E9435032B013C0121
:101AF0000E9435030E947B06B12C8BE290E10E948C
:101B00009C05892BD9F08BE290E10E942F055801AA
:101B1000BFEFAB1ABB0AF801E451F04F80836CEEC3
:101B20007FE088EC90E10E94050A6FEB79E088EC99
:101B300090E10E94050A8501BF2CDFCFBB2041F157
:101B40000E9435036419750986099709643F71403D
:101B50008105910594F267ED79E088EC90E10E94AF
:101B6000190A6CEE7FE0C6010E94A90BC6010F9016
:101B70000F900F90DF91CF911F910F91FF90DF9009
:101B8000CF90BF90AF907F906F905F904F900895EF
:101B90000E9435032B013C010E943503AECF0F9309
:101BA0001F93CF93DF938C01EB010E94CF31888389
:101BB000C80101960E94CF318983CE01DF91CF9178
:101BC0001F910F910895CF93DF931F921F92CDB76E
:101BD000DEB7BE016F5F7F4F8DE990E00E94CF0DB1
:101BE00089819A810F900F90DF91CF910895CF93C3
:101BF000DF931F921F92CDB7DEB7BE016F5F7F4F9D
:101C00008DE597E00E94CF0D89819A810F900F900A
:101C1000DF91CF910895AF92BF92CF92DF92EF9272
:101C2000FF920F931F93CF93DF931F921F92CDB715
:101C3000DEB78C016B0177FF19C06CEE79E088ECA0
:101C400090E10E94050A83E1F80111928A95E9F773
:101C5000C8010F900F90DF91CF911F910F91FF90CE
:101C6000EF90DF90CF90BF90AF900895BE016F5F6F
:101C70007F4F90E080E00E94CF0D89819A81C81645
:101C8000D906DCF683E18C9D70018D9DF00C11244A
:101C90005801F3E1AF0EB11C6801E01AF10AC70167
:101CA00004967C01C7018C0D9D1D0E94CF31F60169
:101CB00081936F01EA15FB05A9F7CACFCF92DF9296
:101CC000EF92FF920F931F93CF93DF93EC017B0171
:101CD00077FF15C06CEE79E088EC90E10E94050A70
:101CE00083E2FE0111928A95E9F7CE01DF91CF914F
:101CF0001F910F91FF90EF90DF90CF9008950E9479
:101D0000E30DE816F90634F783E28E9D80018F9D7E
:101D1000100D11247E01F3E2EF0EF11C6E010C1B7D
:101D20001D0B0F551F4FC8018C0D9D1D0E94CF31FB
:101D3000F60181936F01EE15FF05A9F7D6CF8F92BB
:101D40009F92AF92BF92DF92EF92FF920F931F93F9
:101D5000CF93DF93CDB7DEB7AF970FB6F894DEBF62
:101D60000FBECDBF7C015B014A0110E000E00E9484
:101D7000E30D081719070CF04AC0B801CE0101960F
:101D80000E945E0EB401CE018A960E948F0BB501AF
:101D9000CE0184960E948F0B6CA17DA1CE0101968D
:101DA0000E941E34892B51F46AA57BA5CE0145966D
:101DB0000E941E34DD24D394892B09F0D12CCE014E
:101DC00084960E949B0ACE018A960E949B0ADD207F
:101DD000D9F083E2FE013196D70101900D928A95E8
:101DE000E1F7C701AF960FB6F894DEBF0FBECDBFC7
:101DF000DF91CF911F910F91FF90EF90DF90BF90F7
:101E0000AF909F908F9008950F5F1F4FB0CF83E2E8
:101E1000F70111928A95E9F7E4CFCF92DF92EF9222
:101E2000FF920F931F93CF93DF93EC017B0177FF1A
:101E300015C06CEE79E088EC90E10E94050A81E122
:101E4000FE0111928A95E9F7CE01DF91CF911F91A2
:101E50000F91FF90EF90DF90CF9008950E94F70DC3
:101E6000E816F90634F781E18E9D80018F9D100DF3
:101E700011247E01F1E1EF0EF11C6E010C1B1D0B14
:101E80000F59184FC8018C0D9D1D0E94CF31F601CE
:101E900081936F01EE15FF05A9F7D6CF0F931F931E
:101EA000CF93DF93CDB7DEB761970FB6F894DEBF5F
:101EB0000FBECDBF10E000E00E94F70D0817190714
:101EC0004CF5B801CE0101960E940D0F60E07AE05A
:101ED00088EC90E10E94190A89819A810E94CD09BB
:101EE00067E07AE088EC90E10E94190A8B8190E02B
:101EF0000E94CD0960E17AE088EC90E10E94190A25
:101F0000BE016C5F7F4F88EC90E10E94050A0F5F75
:101F10001F4FD2CF61960FB6F894DEBF0FBECDBF74
:101F2000DF91CF911F910F910895FF920F931F930F
:101F3000CF93DF93EC01F62E08811981C8010E942E
:101F4000CF31F81621F06F2DC8010E94D731CE0194
:101F5000DF91CF911F910F91FF900895AF92BF92A3
:101F6000CF92DF92EF92FF920F931F93CF93DF9365
:101F70001F921F92CDB7DEB78B016B0123E2C20E19
:101F8000D11C7B015C01A61AB70AC5018E0D9F1DED
:101F90009A838983F70161917F01CE0101960E94A6
:101FA000950FEC14FD0489F7C8010F900F90DF9195
:101FB000CF911F910F91FF90EF90DF90CF90BF9046
:101FC000AF900895EF92FF920F931F93CF93DF93FB
:101FD0001F921F92CDB7DEB78C017B019A83898354
:101FE000FB016081CE0101960E94950F0F5F1F4F8C
:101FF0001A830983F7016181CE0101960E94950F32
:10200000C7010F900F90DF91CF911F910F91FF901B
:10201000EF900895CF93DF9300D01F92CDB7DEB736
:102020000E94E30D8F3F2FE092076CF06FE17AE0A2
:1020300088EC90E10E94050A0F900F900F900F908E
:10204000DF91CF91089501969A838983BE016F5FD6
:102050007F4F8DE990E00E94E20FBE016D5F7F4FE0
:102060008FE990E00E94CF0D8B819C819BA78AA76E
:10207000BE016D5F7F4F8FE990E00E94CF0DBE01E2
:10208000665F7F4F8B819C810E94AE0F8AA59BA5C6
:1020900083969C838B83BE016D5F7F4F8FE990E0B9
:1020A0000E94E20FC9CF2F923F924F925F926F92A0
:1020B0007F929F92AF92BF92CF92DF92EF92FF9268
:1020C0000F931F93CF93DF93CDB7DEB7C056D109DF
:1020D0000FB6F894DEBF0FBECDBF2DB73EB7A196A9
:1020E0003FAF2EAFA1970E949C08809106108823D5
:1020F000B9F080910510811113C060E00E9445097C
:102100006BE27AE088E392E10E94190A61E080E0E4
:102110000E94450968E37AE088E392E10E94190A87
:1021200060E379E0CE018D5A9F4F0E94A90BF12CFC
:102130000EE110E0E090051080910610882309F46C
:10214000DFC0E11055C08091031090910410FC0194
:1021500045E0EE0FFF1F4A95E1F7EA5DFA4F20E2F6
:10216000DE01119601900D922A95E1F79F938F93CE
:102170008DB79EB7885591090FB6F8949EBF0FBED4
:102180008DBFADB7BEB7119688E5E0EEF1E10190E5
:102190000D928A95E1F70E946207EDB7FEB7E65A05
:1021A000FF4F0FB6F894FEBF0FBEEDBF0E949D0318
:1021B0008823F1F08A330CF04DC081330CF074C0E9
:1021C000833209F45BC0803309F465C069968EAD33
:1021D0009FAD699762E00D9708F06DC080E00E94A6
:1021E0004509BE016D5A7F4F88E392E10E94E504E4
:1021F00087ED91E10E94A8068111BBC084ED91E1B9
:102200000E94A806882309F495CF69966EAD7FAD2C
:1022100069976115710509F48DCF61507109CE017F
:102220008D5A9F4F0E944F0A62E080E00E9445094C
:102230006AE579E088E392E10E94190A62E080E0B1
:102240000E944509BE016D5A7F4F88E392E10E94CA
:10225000E50470CF883509F0B9CF809103109091D3
:102260000410019797FD05C090930410809303100C
:10227000ADCF1093041000930310A8CF80910310EA
:102280009091041001968F31910570F31092041013
:10229000109203109BCFBE016F5F7F4FCE018D5A0E
:1022A0009F4F0E94CB0A92CF682FCE018D5A9F4F2D
:1022B0000E94FD0A8BCF80E00E94450961E679E02B
:1022C00088E392E10E94190A62E080E00E944509D9
:1022D0006BE679E088E392E10E94190A68EE73E008
:1022E00080E090E00E94030362E080E00E944509E4
:1022F00061E679E088E392E10E94190A62E06ECF1C
:10230000EE2009F475CFF11073CF61E47AE088EC28
:1023100090E10E94050A45E45AE06EE47AE0CE01BD
:1023200001960E94160DBE016F5F7F4FCE018D5A40
:102330009F4F0E94620ACE0101960E949B0ABE0135
:102340006D5A7F4F88EC90E10E94E5046FE679E0DA
:1023500088EC90E10E94190A63E080E00E94450940
:10236000BE016D5A7F4F88E392E10E94E504FE2C86
:102370003FCF0E949C08809106108823B9F080917D
:102380000510811113C060E00E9445096BE27AE0FC
:1023900088E392E10E94190A61E080E00E94450909
:1023A00065E57AE088E392E10E94190A60E379E04A
:1023B000CE01875A9F4F0E94A90BF12C0EE110E02D
:1023C000E090051080910610882309F4DFC0E11029
:1023D00055C08091031090910410FC0135E0EE0F80
:1023E000FF1F3A95E1F7EA5DFA4F20E2DE01119610
:1023F00001900D922A95E1F79F938F932DB73EB7E9
:10240000285531090FB6F8943EBF0FBE2DBFADB7AA
:10241000BEB7119688E5E0EEF1E101900D928A9544
:10242000E1F70E9462078DB79EB7865A9F4F0FB69D
:10243000F8949EBF0FBE8DBF0E949D038823F1F0CC
:102440008A330CF04DC081330CF074C0833209F430
:102450005BC0803309F465C06F968EAD9FAD6F97FA
:1024600062E0099708F06DC080E00E944509BE0156
:10247000675A7F4F88E392E10E94E50487ED91E17E
:102480000E94A8068111BBC084ED91E10E94A806BC
:10249000882309F495CF6F966EAD7FAD6F97611568
:1024A000710509F48DCF61507109CE01875A9F4F94
:1024B0000E944F0A62E080E00E9445096AE579E0E7
:1024C00088E392E10E94190A62E080E00E944509D7
:1024D000BE01675A7F4F88E392E10E94E50470CF06
:1024E000883509F0B9CF80910310909104100197BD
:1024F00097FD05C09093041080930310ADCF109307
:10250000041000930310A8CF809103109091041041
:1025100001968F31910570F3109204101092031000
:102520009BCFBE016F5F7F4FCE01875A9F4F0E94A6
:10253000CB0A92CF682FCE01875A9F4F0E94FD0A87
:102540008BCF80E00E94450961E679E088E392E163
:102550000E94190A62E080E00E9445096BE679E07A
:1025600088E392E10E94190A68EE73E080E090E04F
:102570000E94030362E080E00E94450961E679E081
:1025800088E392E10E94190A62E06ECFEE2009F41E
:1025900075CFF11073CF61E47AE088EC90E10E948E
:1025A000050A45E45AE06FE57AE0CE0101960E9403
:1025B000160DBE016F5F7F4FCE01875A9F4F0E945D
:1025C000620ACE0101960E949B0ABE01675A7F4FA4
:1025D00088EC90E10E94E5046FE679E088EC90E1F8
:1025E0000E94190A63E080E00E944509BE01675A13
:1025F0007F4F88E392E10E94E504FE2C3FCF0E94CA
:102600009C08809106108823B9F0809105108111F3
:1026100013C060E00E9445096BE27AE088E392E132
:102620000E94190A61E080E00E94450967E67AE0AD
:1026300088E392E10E94190A60E379E0CE01895BA8
:102640009F4F0E94A90BF12C0EE110E0E0900510C5
:1026500080910610882309F4E0C0E11055C08091F4
:10266000031090910410FC0125E0EE0FFF1F2A9546
:10267000E1F7EA5DFA4F20E2DE01119601900D923A
:102680002A95E1F79F938F93EDB7FEB7E855F109CF
:102690000FB6F894FEBF0FBEEDBFADB7BEB7119633
:1026A00088E5E0EEF1E101900D928A95E1F70E9454
:1026B00062072DB73EB7265A3F4F0FB6F8943EBF7C
:1026C0000FBE2DBF0E949D038823F1F08A330CF0CA
:1026D0004EC081330CF075C0833209F45CC0803386
:1026E00009F466C02D968EAD9FAD2D9762E00D97D3
:1026F00008F06EC080E00E944509BE01695B7F4F13
:1027000088E392E10E94E50487ED91E10E94A8062A
:10271000982E8111BBC084ED91E10E94A806882308
:1027200009F494CF2D966EAD7FAD2D97611571058F
:1027300009F48CCF61507109CE01895B9F4F0E94D3
:102740004F0A62E080E00E9445096AE579E088E38B
:1027500092E10E94190A62E080E00E944509BE01F0
:10276000695B7F4F88E392E10E94E5046FCF883573
:1027700009F0B8CF8091031090910410019797FD54
:1027800005C09093041080930310ACCF10930410F5
:1027900000930310A7CF809103109091041001962D
:1027A0008F31910570F310920410109203109ACF9C
:1027B000BE016F5F7F4FCE01895B9F4F0E94CB0AA6
:1027C00091CF682FCE01895B9F4F0E94FD0A8ACF6F
:1027D00080E00E94450961E679E088E392E10E9489
:1027E000190A62E080E00E9445096BE679E088E31F
:1027F00092E10E94190A68EE73E080E090E00E9486
:10280000030362E080E00E94450961E679E088E325
:1028100092E10E94190A62E06DCFEE2009F474CFB4
:10282000F11072CF61E47AE088EC90E10E94050A31
:1028300045E45AE065E77AE0CE0101960E94160D64
:10284000BE016F5F7F4FCE01895B9F4F0E94620A7E
:10285000CE0101960E949B0ABE01695B7F4F88EC06
:1028600090E10E94E5046FE679E088EC90E10E9437
:10287000190A63E080E00E944509BE01695B7F4F51
:1028800088E392E10E94E504FE2C3ECF0E949C0862
:102890002E0134E2430E511C83E2F20111928A951B
:1028A000E9F765966EAD7FAD6597FB01019000205D
:1028B000E9F7CF012DB63EB6861B970B2DB73EB775
:1028C000281B390B0FB6F8943EBF0FBE2DBF0DB7B6
:1028D0001EB70F5F1F4FC8010E942734C8010E9416
:1028E000350A6B966EAD7FAD6B97FB0101900020B2
:1028F000E9F7CF01861B970B2DB73EB7281B390B85
:102900000FB6F8943EBF0FBE2DBF8DB79EB7019690
:102910006C010E942734C6010E94350A29966EADCB
:102920007FAD2997FB0101900020E9F7CF01861BBD
:10293000970B2DB73EB7281B390B0FB6F8943EBF47
:102940000FBE2DBF8DB79EB701967C010E94273424
:10295000C7010E94350AB801C2010E942734B6019E
:10296000CE01C0960E942734B701CE01C8960E94BE
:1029700027343E019DE4690E711CB801C3010E9419
:10298000A90BB12CA12C0E94E30DA816B9060CF0DE
:10299000FAC0B501CE0101960E945E0E2F966EAD73
:1029A0007FAD2F97CE0101960E941E34892B09F02E
:1029B000E6C0B92CC3010E949B0ABB20E1F00E9433
:1029C0009C0860E080E00E9445096EE77AE088E3B9
:1029D00092E10E94190A61E080E00E9445096CE8DA
:1029E0007AE088E392E10E94190A60ED77E080E0E6
:1029F00090E00E940303F80101900020E9F7CF0165
:102A0000801B910B0997059738F10E949C0860E0A4
:102A100080E00E94450966E97AE088E392E10E943D
:102A2000190A61E080E00E94450960EA7AE088E3E3
:102A300092E10E94190A62E080E00E94450966EB7B
:102A40007AE088E392E10E94190A60ED77E080E085
:102A500090E00E940303B92CF60101900020E9F7F1
:102A6000CF0109978C159D05E9F00E949C0860E054
:102A700080E00E94450969EC7AE088E392E10E94D7
:102A8000190A61E080E00E94450965EA7AE088E37E
:102A900092E10E94190A60ED77E080E090E00E94E8
:102AA0000303B92CF70101900020E9F7CF018E193B
:102AB0009F090997059708F468C00E949C0860E088
:102AC00080E00E94450968ED7AE088E392E10E9487
:102AD000190A61E080E00E94450960EA7AE088E333
:102AE00092E10E94190A62E080E00E94450966EBCB
:102AF0007AE088E392E10E94190A60ED77E080E0D5
:102B000090E00E94030381E090E090932110809375
:102B100020100FB6F8943EBE0FBE2DBECE01895BCD
:102B20009F4F0E949B0ACE01875A9F4F0E949B0A8B
:102B3000CE018D5A9F4F0E949B0AA196EEADFFAD2C
:102B4000A1970FB6F894FEBF0FBEEDBFC05ADF4F7E
:102B50000FB6F894DEBF0FBECDBFDF91CF911F91AE
:102B60000F91FF90EF90DF90CF90BF90AF909F902C
:102B70007F906F905F904F903F902F900895EFEF70
:102B8000AE1ABE0A00CFB12C15CFB110BCCF67EE84
:102B90007AE088EC90E10E94050A80911C109091E7
:102BA0001D10019690931D1080931C100E94CD095A
:102BB00027961FAE2797B801C2010E942734B6019D
:102BC000CE01C0960E942734B701CE01C8960E945C
:102BD000273468EF7AE088EC90E10E94190A0E949D
:102BE0009C0861E080E00E94450968EE73E080E0A7
:102BF00090E00E9403032DB73EB7235231090FB670
:102C0000F8943EBF0FBE2DBFADB7BEB7119683E29D
:102C1000F20101900D928A95E1F70E940A108DB79A
:102C20009EB783960FB6F8949EBF0FBE8DBF6DE022
:102C30007BE088EC90E10E94190A0E94E30D0E945B
:102C4000CD0961CFAF92BF92CF92DF92EF92FF9208
:102C50000F931F93CF93DF931F921F92CDB7DEB7D1
:102C60008B016B0121E1C20ED11C7B015C01A61A14
:102C7000B70AC5018E0D9F1D9A838983F701619163
:102C80007F01CE0101960E94950FEC14FD0489F797
:102C9000C8010F900F90DF91CF911F910F91FF907E
:102CA000EF90DF90CF90BF90AF9008958F929F925A
:102CB000BF92CF92DF92EF92FF920F931F93CF9329
:102CC000DF93CDB7DEB761970FB6F894DEBF0FBEC6
:102CD000CDBF6C01B62E4A010E94F70D7C0110E0B9
:102CE00000E00E151F0574F5B801CE0101960E9493
:102CF0000D0F89819A818C159D0509F5BB82F40120
:102D000060817181CE0104960E942734BE016F5FFD
:102D10007F4F888999890E94221661960FB6F89490
:102D2000DEBF0FBECDBFDF91CF911F910F91FF90FE
:102D3000EF90DF90CF90BF909F908F9008950F5F9E
:102D40001F4FCFCF62E27BE088EC90E10E94050A42
:102D5000E4CF8F929F92AF92BF92CF92DF92EF9289
:102D6000FF920F931F93CF93DF93CDB7DEB7659795
:102D70000FB6F894DEBF0FBECDBF8D829E82AF82AC
:102D8000B886C986DA86EB86FC860D871E872F8774
:102D9000388B498B5A8B6B8B7C8B8D8B0E94F70DFC
:102DA00089309105CCF06EE37BE088EC90E10E94E5
:102DB000050A65960FB6F894DEBF0FBECDBFDF9152
:102DC000CF911F910F91FF90EF90DF90CF90BF9028
:102DD000AF909F908F90089501969A838983BE014A
:102DE0006F5F7F4F8DE597E00E94E20FBE016D5F40
:102DF0007F4F8FE597E00E94CF0D8B819C819D8B4B
:102E00008C8BBE016D5F7F4F8FE597E00E94CF0DE9
:102E1000BE016B5F7F4F8B819C810E9422168C8943
:102E20009D8941969C838B83BE016D5F7F4F8FE5AB
:102E300097E00E94E20FBDCFAF92BF92CF92DF9298
:102E4000EF92FF920F931F93CF93DF9300D01F92C7
:102E5000CDB7DEB7BE016F5F7F4F90E080E00E948C
:102E6000CF0D89819A8183369105ACF06FE17AE0CC
:102E700088EC90E10E94050A0F900F900F900F9040
:102E8000DF91CF911F910F91FF90EF90DF90CF9046
:102E9000BF90AF90089501969A838983BE016F5FBA
:102EA0007F4F90E080E00E94E20FBE016D5F7F4F98
:102EB00082E090E00E94CF0D0B811C811CA30BA32C
:102EC000BE016D5F7F4F82E090E00E94CF0DCB800E
:102ED000DC805E0185E2A80EB11CFE0172967F01C6
:102EE000CE1ADF0AC6018E0D9F1D9C838B83F701CE
:102EF00061917F01CE0103960E94950FEA14FB04B5
:102F000089F70D5E1F4F1C830B83BE016D5F7F4FE2
:102F100082E090E00E94E20FAFCF8F929F92AF923B
:102F2000BF92CF92DF92EF92FF920F931F93CF93B6
:102F3000DF93CDB7DEB7C655D1090FB6F894DEBF23
:102F40000FBECDBF27968FAE279728969FAE2897A6
:102F50002996AFAE29972A96BFAE2A972B96CFAE69
:102F60002B972C96DFAE2C972D96EFAE2D972E96A5
:102F7000FFAE2E972F960FAF2F9760961FAF6097DB
:102F800061962FAF619762963FAF629763964FAF9E
:102F9000639764965FAF649765966FAF6597669623
:102FA0007FAF669767968FAF67970DB71EB7809113
:102FB0002010909121100E94BA0B0E949C088091D1
:102FC0000610882369F080910510811109C062E024
:102FD0000E9445096FE57BE088E392E10E94190AAF
:102FE00060E379E0CE01805C9F4F0E94A90B3EE137
:102FF000E32EF12C8091051090910610992309F48D
:10300000DFC0811155C08091031090910410FC0124
:1030100025E0EE0FFF1F2A95E1F7EA5DFA4F20E267
:10302000DE01119601900D922A95E1F79F938F93FF
:103030002DB73EB7285531090FB6F8943EBF0FBEE5
:103040002DBFADB7BEB7119688E5E0EEF1E1019076
:103050000D928A95E1F70E9462078DB79EB7865A56
:103060009F4F0FB6F8949EBF0FBE8DBF0E949D0369
:103070008823F1F08A330CF04DC081330CF074C01A
:10308000833209F45BC0803309F465C026968EADA7
:103090009FAD269763E00D9708F06DC080E00E9419
:1030A0004509BE01605C7F4F88E392E10E94E50420
:1030B00087ED91E10E94A80681119AC084ED91E10B
:1030C0000E94A806882309F495CF26966EAD7FADA1
:1030D00026976115710509F48DCF61507109CE01F4
:1030E000805C9F4F0E944F0A61E083E00E94450987
:1030F0006AE579E088E392E10E94190A61E083E0E1
:103100000E944509BE01605C7F4F88E392E10E9406
:10311000E50470CF883509F0B9CF80910310909104
:103120000410019797FD05C090930410809303103D
:10313000ADCFF0920410E0920310A8CF809103105D
:103140009091041001968F31910570F31092041044
:10315000109203109BCFBE016F5F7F4FCE01805C4A
:103160009F4F0E94CB0A92CF682FCE01805C9F4F69
:103170000E94FD0A8BCF80E00E9445096AE579E054
:1031800088E392E10E94190A63E080E00E94450909
:103190006BE679E088E392E10E94190A68EE73E039
:1031A00080E090E00E94030363E080E00E94450914
:1031B0006AE579E088E392E10E94190A63E06ECF44
:1031C000882309F475CF40E359E065E77AE0CE0142
:1031D00001960E94160DBE016F5F7F4FCE01805C8D
:1031E0009F4F0E94620ACE0101960E949B0A60CF07
:1031F00022966EAD7FAD2297DB010D900020E9F79E
:10320000CD01EDB6FEB6861B970BEDB7FEB7E81BFA
:10321000F90B0FB6F894FEBF0FBEEDBF2DB73EB74A
:103220002F5F3F4F6901C9010E942734C6010E94E8
:10323000350AB601CE01C2960E94A90B6AED71E172
:10324000CE0184960E948F0BAE014E5C5F4FBE0193
:103250006C5D7F4FCE0101960E949F0ECE01849639
:103260000E949B0ACE01C2960E949B0A89818823F4
:1032700009F4B0C060E379E0CE0184960E94A90B06
:10328000AE014C5D5F4F60E028968EAD9FAD2897F4
:103290000E945616CE0184960E949B0A0E944E0FF1
:1032A000EBE0F0E181E1DF011D928A95E9F7809181
:1032B0000710909108109C012F5F3F4F309308102A
:1032C0002093071090930A10809309108AE0E9E494
:1032D000FCE0DE01D29601900D928A95E1F7BE01E5
:1032E0006E5C7F4FCE0184960E942734CE01849677
:1032F0000E94350ABE016C5D7F4F8BE090E10E9419
:103300002734EDB7FEB773970FB6F894FEBF0FBE24
:10331000EDBFADB7BEB7119683E1E9E0F0E10190F2
:103320000D928A95E1F70E941C176AE67BE088EC13
:1033300090E10E94050A809101109091021001977E
:1033400090930210809301100E94CD090E949C0866
:1033500060E080E00E94450960E87BE088E392E15C
:103360000E94190A60ED77E080E090E00E9403037C
:1033700085E090E090932110809320102DB73EB708
:103380002D5E3F4F0FB6F8943EBF0FBE2DBF0FB658
:10339000F894FEBE0FBEEDBECE01805C9F4F0E9432
:1033A0009B0A0FB6F8941EBF0FBE0DBFCA5ADF4F5F
:1033B0000FB6F894DEBF0FBECDBFDF91CF911F9146
:1033C0000F91FF90EF90DF90CF90BF90AF909F90C4
:1033D0008F9008958091FF0F909100100196909327
:1033E00000108093FF0F02970CF064C06FE87BE041
:1033F00088EC90E10E94050A0E949C0860E080E051
:103400000E94450964EC7BE088E392E10E94190A7E
:1034100061E080E00E9445096EEC7BE088E392E188
:103420000E94190AEBE0F0E181E1DF011D928A952B
:10343000E9F780910710909108109C012F5F3F4F92
:10344000309308102093071090930A10809309106E
:103450008EE0E3E5FCE0DE01D29601900D928A95C4
:10346000E1F7BE016E5C7F4FCE0184960E94273447
:10347000CE0184960E94350ABE016C5D7F4F8BE0C1
:1034800090E10E942734EDB7FEB773970FB6F8941A
:10349000FEBF0FBEEDBFADB7BEB7119683E1E9E049
:1034A000F0E101900D928A95E1F70E941C178AE0E5
:1034B00090E060CF6AED7BE088EC90E10E94050A25
:1034C0000E949C0860E080E00E94450964EC7BE07B
:1034D00088E392E10E94190A61E080E00E944509B8
:1034E0006EEC7BE088E392E10E94190AEBE0F0E1E8
:1034F00081E1DF011D928A95E9F780910710909193
:1035000008109C012F5F3F4F309308102093071045
:1035100090930A10809309108EE0E3E5FCE0DE0151
:10352000D29601900D928A95E1F7BE016E5C7F4FB5
:10353000CE0184960E942734CE0184960E94350ADB
:10354000BE016C5D7F4F8BE090E10E942734EDB7A8
:10355000FEB773970FB6F894FEBF0FBEEDBFADB7C1
:10356000BEB7119683E1E9E0F0E101900D928A95F2
:10357000E1F70E941C1760E177E280E090E00E9492
:1035800003036CE17CE088EC90E10E94050A109254
:1035900000101092FF0F81E090E0ECCEAF92BF924E
:1035A000CF92DF92EF92FF920F931F93CF93DF930F
:1035B000CDB7DEB7C954D1090FB6F894DEBF0FBE40
:1035C000CDBFEDB6FEB60E949C0880910610882300
:1035D00069F080910510811109C060E00E944509E1
:1035E00068E37AE088E392E10E94190A60E379E0F7
:1035F000CE01CE960E94A90BD12C0EE110E0C09016
:10360000051080910610882309F4DCC0C11055C054
:103610008091031090910410FC0135E0EE0FFF1F24
:103620003A95E1F7EA5DFA4F20E2DE01119601904A
:103630000D922A95E1F79F938F932DB73EB72855AA
:1036400031090FB6F8943EBF0FBE2DBFADB7BEB760
:10365000119688E5E0EEF1E101900D928A95E1F78F
:103660000E9462078DB79EB7865A9F4F0FB6F89497
:103670009EBF0FBE8DBF0E949D038823F1F08A3349
:103680000CF04CC081330CF072C0833209F45AC084
:10369000803309F464C024968EAD9FAD249761E019
:1036A0000C9708F06AC080E00E944509BE01625C88
:1036B0007F4F88E392E10E94E50487ED91E10E944B
:1036C000A8068111B7C084ED91E10E94A806882365
:1036D00009F495CF24966EAD7FAD249761157105E1
:1036E00009F48DCF61507109CE01CE960E944F0A28
:1036F00061E080E00E9445096AE579E088E392E1B3
:103700000E94190A61E080E00E944509BE01625CE6
:103710007F4F88E392E10E94E50471CF883509F07C
:10372000BACF8091031090910410019797FD05C0C6
:103730009093041080930310AECF10930410009365
:103740000310A9CF809103109091041001968F313E
:10375000910570F310920410109203109CCFBE01DB
:103760006F5F7F4FCE01CE960E94CB0A94CF682F19
:10377000CE01CE960E94FD0A8ECF80E00E944509C0
:103780006AE579E088E392E10E94190A61E080E04D
:103790000E9445096BE679E088E392E10E94190AEC
:1037A00068EE73E080E090E00E94030361E080E057
:1037B0000E9445096AE579E088E392E10E94190ACE
:1037C00061E071CFCC2009F478CFD11076CF61E4DD
:1037D0007AE088EC90E10E94050A41E65CE06EE444
:1037E0007AE0CE0101960E94160DBE016F5F7F4FF9
:1037F000CE01CE960E94620ACE0101960E949B0ADB
:10380000BE01625C7F4F88EC90E10E94E5046FE6A8
:1038100079E088EC90E10E94190A63E080E00E9460
:103820004509BE01625C7F4F88E392E10E94E50496
:10383000DC2C43CF80910610882369F0809105101D
:10384000811109C062E00E9445096FE57BE088E3D1
:1038500092E10E94190A60E379E0CE018C5B9F4FF0
:103860000E94A90BD12C0EE110E0C09005108091B0
:103870000610882309F4DDC0C11053C080910310E5
:1038800090910410FC0125E0EE0FFF1F2A95E1F74F
:10389000EA5DFA4F20E2DE01119601900D922A9521
:1038A000E1F79F938F93ADB7BEB7A855B1090FB697
:1038B000F894BEBF0FBEADBF119688E5E0EEF1E112
:1038C00001900D928A95E1F70E946207EDB7FEB76D
:1038D000E65AFF4F0FB6F894FEBF0FBEEDBF0E9431
:1038E0009D038823F1F08A330CF04DC081330CF036
:1038F00074C0833209F45BC0803309F465C02A9632
:103900008EAD9FAD2A9763E0099708F06DC080E007
:103910000E944509BE016C5B7F4F88E392E10E94E3
:10392000E50487ED91E10E94A8068111BBC084EDFA
:1039300091E10E94A806882309F497CF2A966EADDC
:103940007FAD2A976115710509F48FCF6150710918
:10395000CE018C5B9F4F0E944F0A61E083E00E9482
:1039600045096AE579E088E392E10E94190A61E07D
:1039700083E00E944509BE016C5B7F4F88E392E1C2
:103980000E94E50472CF883509F0B9CF8091031009
:1039900090910410019797FD05C0909304108093B7
:1039A0000310ADCF1093041000930310A8CF8091A3
:1039B00003109091041001968F31910570F31092CD
:1039C0000410109203109BCFBE016F5F7F4FCE019A
:1039D0008C5B9F4F0E94CB0A92CF682FCE018C5BED
:1039E0009F4F0E94FD0A8BCF80E00E9445096AE547
:1039F00079E088E392E10E94190A63E080E00E9486
:103A000045096BE679E088E392E10E94190A68EEC5
:103A100073E080E090E00E94030363E080E00E9496
:103A200045096AE579E088E392E10E94190A63E0BA
:103A30006ECFCC2009F475CFD11073CF61E47AE05A
:103A400088EC90E10E94050A41E65CE065E77AE0D7
:103A5000CE0101960E94160DBE016F5F7F4FCE0111
:103A60008C5B9F4F0E94620ACE0101960E949B0AC6
:103A7000BE016C5B7F4F88EC90E10E94E50469EB2E
:103A800079E088EC90E10E94190A63E080E00E94EE
:103A90004509BE016C5B7F4F88E392E10E94E5041B
:103AA000DC2C3FCF6EAD7FADDB010D900020E9F740
:103AB000CD01CDB6DEB6861B970BEDB7FEB7E81B82
:103AC000F90B0FB6F894FEBF0FBEEDBF0DB71EB7D2
:103AD0000F5F1F4FC8010E942734C8010E94350A9A
:103AE00026966EAD7FAD2697DB010D900020E9F79D
:103AF000CD01861B970BEDB7FEB7E81BF90B0FB690
:103B0000F894FEBF0FBEEDBF2DB73EB72F5F3F4FFE
:103B10005901C9010E942734C5010E94350AB50127
:103B2000CE01C1960E94A90BB801CE0184960E94D5
:103B3000A90BAE014F5C5F4FBE016C5D7F4FCE01A4
:103B400001960E949F0ECE0184960E949B0ACE0190
:103B5000C1960E949B0AB8018AED91E10E94590B1F
:103B60008981882309F4E6C00E949C0860E080E017
:103B70000E94450967E67CE088E392E10E94190A09
:103B800061E080E00E944509CE0101960E941B0A77
:103B9000BE016F5F7F4F88E392E10E94190A2BA15B
:103BA0008091071090910810EBE0F0E1222309F4D6
:103BB00079C021E1DF011D922A95E9F79C012F5F71
:103BC0003F4F309308102093071090930A10809372
:103BD00009108CE0E2E7FCE0DE01D19601900D9245
:103BE0008A95E1F7BE016F5C7F4FCE0184960E94FB
:103BF0002734CE0184960E94350ABE016C5D7F4F4A
:103C00008BE090E10E942734EDB7FEB773970FB6B3
:103C1000F894FEBF0FBEEDBFADB7BEB7119683E1FE
:103C2000E9E0F0E101900D928A95E1F70E941C17FE
:103C300068EE73E080E090E00E94030384E090E08F
:103C400090932110809320102DB73EB72D5E3F4FEB
:103C50000FB6F8943EBF0FBE2DBF0FB6F894DEBE70
:103C60000FBECDBECE018C5B9F4F0E949B0ACE0142
:103C7000CE960E949B0A0FB6F894FEBE0FBEEDBE14
:103C8000C75BDF4F0FB6F894DEBF0FBECDBFDF912D
:103C9000CF911F910F91FF90EF90DF90CF90BF9049
:103CA000AF90089521E1DF011D922A95E9F79C016B
:103CB0002F5F3F4F309308102093071090930A1006
:103CC000809309108DE0EEE7FCE0DE01D1960190D3
:103CD0000D928A95E1F7BE016F5C7F4FCE0184960D
:103CE0000E942734CE0184960E94350ABE016C5D85
:103CF0007F4F8BE090E10E942734EDB7FEB77397BA
:103D00000FB6F894FEBF0FBEEDBFADB7BEB71196AC
:103D100083E1E9E0F0E101900D928A95E1F70E94DC
:103D20001C1768EE73E080E090E00E94030385E0DA
:103D300090E086CF8091F70F9091F80F1816190632
:103D40000CF070C00E949C0864EC7BE088E392E178
:103D50000E94190A61E080E00E9445096EEC7BE058
:103D600088E392E10E94190AEBE0F0E181E1DF01D2
:103D70001D928A95E9F780910710909108109C0197
:103D80002F5F3F4F309308102093071090930A1035
:103D9000809309108CE0EBE8FCE0DE01D196019005
:103DA0000D928A95E1F7BE016F5C7F4FCE0184963C
:103DB0000E942734CE0184960E94350ABE016C5DB4
:103DC0007F4F8BE090E10E942734EDB7FEB77397E9
:103DD0000FB6F894FEBF0FBEEDBFADB7BEB71196DC
:103DE00083E1E9E0F0E101900D928A95E1F70E940C
:103DF0001C1760E177E280E090E00E9403031092DC
:103E0000F80F1092F70F81E090E0909321108093CB
:103E100020102DB73EB72D5E3F4F0FB6F8943EBF32
:103E20000FBE2DBF0E949C0860E080E00E94450903
:103E300064EC7BE088E392E10E94190A61E080E093
:103E40000E9445096EEC7BE088E392E10E94190A2A
:103E5000EBE0F0E181E1DF011D928A95E9F78091C5
:103E60000710909108109C012F5F3F4F309308106E
:103E70002093071090930A10809309108CE0EBE8D0
:103E8000FCE0DE01D19601900D928A95E1F7BE012A
:103E90006F5C7F4FCE0184960E942734CE018496BA
:103EA0000E94350ABE016C5D7F4F8BE090E10E945D
:103EB0002734EDB7FEB773970FB6F894FEBF0FBE69
:103EC000EDBFADB7BEB7119683E1E9E0F0E1019037
:103ED0000D928A95E1F70E941C178091FD0F909139
:103EE000FE0F01969093FE0F8093FD0F8091F70FC8
:103EF0009091F80F01969093F80F8093F70F68EE6A
:103F000073E080E090E00E9403039ECE1F920F9228
:103F10000FB60F9211242F933F938F939F93AF93DC
:103F2000BF938091231090912410A0912510B091FF
:103F300026103091221023E0230F2D3758F50196DB
:103F4000A11DB11D20932210809323109093241063
:103F5000A0932510B09326108091271090912810DF
:103F6000A0912910B0912A100196A11DB11D809336
:103F7000271090932810A0932910B0932A10BF9176
:103F8000AF919F918F913F912F910F900FBE0F9006
:103F90001F90189526E8230F0296A11DB11DD2CFC0
:103FA0001F920F920FB60F9211240BB60F922F9300
:103FB0003F934F935F936F937F938F939F93AF93B1
:103FC000BF93EF93FF938BE290E10E94BC05FF91BA
:103FD000EF91BF91AF919F918F917F916F915F9181
:103FE0004F913F912F910F900BBE0F900FBE0F90EE
:103FF0001F9018951F920F920FB60F9211240BB6B7
:104000000F922F938F939F93EF93FF93E0913B1029
:10401000F0913C108081E0914110F091421082FDBE
:104020001DC09081809144108F5F8F732091451047
:10403000821741F0E0914410F0E0E55DFF4E958F6E
:1040400080934410FF91EF919F918F912F910F904A
:104050000BBE0F900FBE0F901F9018958081F2CF6E
:104060001F920F920FB60F9211240BB60F922F933F
:104070003F934F935F936F937F938F939F93AF93F0
:10408000BF93EF93FF9388EC90E10E94BC05FF91F2
:10409000EF91BF91AF919F918F917F916F915F91C0
:1040A0004F913F912F910F900BBE0F900FBE0F902D
:1040B0001F9018951F920F920FB60F9211240BB6F6
:1040C0000F922F938F939F93EF93FF93E091D810CC
:1040D000F091D9108081E091DE10F091DF1082FD27
:1040E0001DC090818091E1108F5F8F732091E2104D
:1040F000821741F0E091E110F0E0E853FF4E958F18
:104100008093E110FF91EF919F918F912F910F90EC
:104110000BBE0F900FBE0F901F9018958081F2CFAD
:10412000CF93DF9310922E1010922D1048EE53E093
:1041300060E070E040932F10509330106093311086
:10414000709332108AE099E090932C1080932B109A
:104150002DEC30E030933810209337102CEC30E009
:1041600030933A102093391028EC30E030933C1013
:1041700020933B1029EC30E030933E1020933D100B
:104180002AEC30E03093401020933F102EEC30E0CA
:104190003093421020934110109244101092451019
:1041A00010924610109247101092CB101092CA1025
:1041B0004093CC105093CD106093CE107093CF10DD
:1041C0009093C9108093C81085EC90E09093D5101F
:1041D0008093D41084EC90E09093D7108093D61005
:1041E00080EC90E09093D9108093D81081EC90E00F
:1041F0009093DB108093DA1082EC90E09093DD10C6
:104200008093DC1086EC90E09093DF108093DE10BA
:104210001092E1101092E2101092E3101092E4104C
:1042200010923B1210923A1286E299E09093391262
:10423000809338128CE080933C128FEF80933D1274
:104240008BE080933E1285E080933F1284E0809360
:10425000401283E08093411282E0809342121092D8
:10426000431210924412109245121092461210926C
:10427000471281E00E94A408CAE0D0E0D093311236
:10428000C093301288E090E0909333128093321202
:1042900089E090E0909335128093341281E090E0B1
:1042A000909337128093361261E08AE00E949E025A
:1042B00061E0809132120E949E0261E0809134128E
:1042C0000E949E0261E0809134120E946C02D093A1
:1042D0003112C0933012E0EFF1E1119282E1E0334C
:1042E000F807D9F7D0E0C0E08091361290913712EC
:1042F000C817D907B4F520E04FE0BE0180EE91E188
:104300000E94C4068091361290913712C817D907BF
:104310003CF427E04BE0BE0180EE91E10E94C40630
:1043200020E049E0BE0180EE91E10E94C406809148
:10433000361290913712C817D9071CF4CE010E948B
:1043400040078091361290913712C817D9073CF474
:1043500020E04CE0BE0180EE91E10E94C40621966F
:10436000C3CF60E379E08AED91E10E94A90B10923E
:10437000D91187E190E09093D8118093D7111092D2
:10438000D61188E190E09093D5118093D4111092CA
:10439000671110926B1110926A1110926C118CE1DE
:1043A00099E09093661180936511E1E8F1E1108244
:1043B000148213821582369681E1ED3BF807B9F736
:1043C00083E092E09093C8118093C71180E092E05F
:1043D0009093CA118093C91184E08093CB1183E03C
:1043E0008093CC1187E092E09093C6118093C51121
:1043F0008AE090E09093CE118093CD1184EF91E00C
:104400009093D0118093CF111092D3111092D211AA
:104410001092C1111092C2111092C3111092C411C6
:104420001092D111DF91CF910895CF93DF93CDB743
:10443000DEB7C65ED1090FB6F894DEBF0FBECDBFA2
:10444000789484B5826084BD84B5816084BD85B56F
:10445000826085BD85B5816085BD80916E0081607B
:1044600080936E0010928100809181008260809321
:104470008100809181008160809381008091800023
:104480008160809380008091B10084608093B1004E
:104490008091B00081608093B00080919100826033
:1044A0008093910080919100816080939100809130
:1044B00090008160809390008091A1008260809341
:1044C000A1008091A10081608093A1008091A00053
:1044D00081608093A00080912101826080932101FE
:1044E0008091210181608093210180912001816070
:1044F0008093200180917A00846080937A0080917B
:104500007A00826080937A0080917A008160809343
:104510007A0080917A00806880937A001092C100BE
:1045200088EC90E10E948F018BE290E10E948F0164
:104530001A8219829E012F5F3F4F1901B9018DE93F
:1045400090E00E94E20F64E275E08FE990E00E9443
:10455000E20F1A821982B10190E080E00E94E20F1E
:1045600062E275E082E090E00E94E20F1A82198216
:10457000B1018DE597E00E94E20F60E275E08FE502
:1045800097E00E94E20F67E97CE088EC90E10E94EE
:10459000050A13E2D101E12F1D92EA95E9F781E0C6
:1045A0008BA38CE0ECE9FFE0DE01A156BF4F019048
:1045B0000D928A95E1F7BE0161567F4FCE01845876
:1045C0009F4F0E942734CE0184589F4F0E94350A86
:1045D00086E0E8EAFFE0DE01A653BF4F01900D92AE
:1045E0008A95E1F7BE0166537F4FCE018C539F4FF2
:1045F0000E942734CE018C539F4F0E94350A88E0D9
:10460000EEEAFFE0DE01A454BF4F01900D928A95BF
:10461000E1F7BE0164547F4FCE0182559F4F0E9447
:104620002734CE0182559F4F0E94350ABE0164583F
:104630007F4FC1010E942734BE016C537F4FCE01D2
:104640000D960E942734BE0162557F4FCE014596DC
:104650000E9427342DB73EB7235231090FB6F89484
:104660003EBF0FBE2DBFADB7BEB71196F101019091
:104670000D921A95E1F70E940A103E0139E5630E8A
:10468000711C81E1D3011D928A95E9F7EDB7FEB760
:10469000B3960FB6F894FEBF0FBEEDBF2301F3E053
:1046A0004F0E511C60E379E0C2010E942734D30110
:1046B0008C9011969C9011971296AC90129713962D
:1046C000BC9013971496CC9014971596DC90159780
:1046D0001696EC9016971796FC90179718960C91D3
:1046E000189719961C9119971A962C911A971B9640
:1046F0003C911B971C964C911C971D965C911D97A5
:104700001E966C911E971F967C911F9750968C91C8
:104710000E94A916F3013296CD51DF4FF983E88349
:10472000C35ED0402FE011922A95E9F781E090E036
:10473000D3018D939C9360E379E0C2010E942734FA
:10474000F30180809180A280B380C480D580E68010
:10475000F7800085118522853385448555856685DA
:10476000778580890E94A916CD51DF4FA881B98134
:10477000C35ED040EFE01D92EA95E9F782E090E059
:10478000D3018D939C9360E379E0C2010E942734AA
:10479000F30180809180A280B380C480D580E680C0
:1047A000F78000851185228533854485558566858A
:1047B000778580890E94A916CD51DF4FA881B981E4
:1047C000C35ED040EFE01D92EA95E9F783E090E008
:1047D000D3018D939C9360E379E0C2010E9427345A
:1047E000F30180809180A280B380C480D580E68070
:1047F000F78000851185228533854485558566853A
:10480000778580890E94A916CD51DF4FA881B98193
:10481000C35ED040EFE01D92EA95E9F784E090E0B6
:10482000D3018D939C9360E379E0C2010E94273409
:10483000F30180809180A280B380C480D580E6801F
:10484000F7800085118522853385448555856685E9
:10485000778580890E94A916CD51DF4FA881B98143
:10486000C35ED040EFE01D92EA95E9F785E090E065
:10487000D3018D939C9360E379E0C2010E942734B9
:10488000F30180809180A280B380C480D580E680CF
:10489000F780008511852285338544855585668599
:1048A000778580890E94A916CD51DF4FA881B981F3
:1048B000C35ED040EFE01D92EA95E9F786E090E014
:1048C000D3018D939C9360E379E0C2010E94273469
:1048D000F30180809180A280B380C480D580E6807F
:1048E000F780008511852285338544855585668549
:1048F000778580890E94A916CD51DF4FA881B981A3
:10490000C35ED040EFE01D92EA95E9F787E090E0C2
:10491000D3018D939C9360E379E0C2010E94273418
:10492000F30180809180A280B380C480D580E6802E
:10493000F7800085118522853385448555856685F8
:10494000778580890E94A916CD51DF4FA881B98152
:10495000C35ED040EFE01D92EA95E9F788E090E071
:10496000D3018D939C9360E379E0C2010E942734C8
:10497000F30180809180A280B380C480D580E680DE
:10498000F7800085118522853385448555856685A8
:10499000778580890E94A91684E00E94A4088091EE
:1049A0003612909137121816190644F421E04CE0A3
:1049B00070E060E080EE91E10E94C40680913612C2
:1049C000909137121816190644F428E04AE070E076
:1049D00060E080EE91E10E94C406809136129091D1
:1049E00037121816190624F490E080E00E94400760
:1049F00060E08091D7110E949E0260E08091D41106
:104A00000E949E022301F3E04F0E511C93012C5E85
:104A10003F4FCD51DF4F39832883C35ED040C30160
:104A20000C96CB51DF4F99838883C55ED0400E949E
:104A3000F70D5C0110E000E00A151B05B4F4B801A5
:104A4000C3010E940D0FD301ED90FC90BDE2EB0E6F
:104A5000F11C61E08E2D0E949E02F30162818E2D79
:104A60000E946C020F5F1F4FE7CFE0912010F09182
:104A70002110EC30F10508F032C28827ED5BFA4DC9
:104A80008F4F0C9407324F25B4257227752778274E
:104A9000B1286927392AEF2A1F2C372F45300E9469
:104AA0009C0860E080E00E94450967E67CE088E3BE
:104AB00092E10E94190A6CE271E080E090E00E94AD
:104AC000030361E080E00E9445096CEA7CE088E332
:104AD00092E10E94190A6CE271E080E090E00E948D
:104AE000030362E080E00E9445096DEB7CE088E30F
:104AF00092E10E94190A6CE271E080E090E00E946D
:104B0000030363E080E00E9445096EEC7CE088E3EB
:104B100092E10E94190A6CE271E080E090E00E944C
:104B2000030364E080E00E9445096EED7CE088E3C9
:104B300092E10E94190A6CE271E080E090E00E942C
:104B4000030365E080E00E9445096DEE7CE088E3A8
:104B500092E10E94190A87ED91E10E94A80688233C
:104B6000D1F381E090E0A4C60E949C0860E080E060
:104B70000E9445096DEF7CE088E392E10E94190AEA
:104B800068EC70E080E090E00E94030361E080E068
:104B90000E9445096CE07DE088E392E10E94190AD9
:104BA00068EC70E080E090E00E94030362E080E047
:104BB0000E94450965E17DE088E392E10E94190ABF
:104BC00068EC70E080E090E00E94030363E080E026
:104BD0000E94450962E579E088E392E10E94190AA2
:104BE00060E379E0CE0181569F4F0E94A90B0E949D
:104BF0009D038823D1F0CD55DF4F28813981C35AD9
:104C0000D0402230310588F5682FCE0181569F4F64
:104C10000E94FD0A63E08CE00E944509BE016156D6
:104C20007F4F88E392E10E94E50487ED91E10E94C5
:104C3000A806882309F41FC16FE679E0CE018156EA
:104C40009F4F0E945D098823A9F186E090E0909330
:104C500021108093201010921F1010921E10CE0170
:104C600081569F4F0E949B0A3AC163E08CE00E94EC
:104C7000450964E679E088E392E10E94190A63E05D
:104C80008CE00E9445096BE679E088E392E10E949E
:104C9000190A64E670E080E090E00E94030363E09C
:104CA0008CE00E94450964E679E088E392E10E9485
:104CB000190AB0CF69EB79E0CE0181569F4F0E946F
:104CC0005D09882369F086E090E09093211080933D
:104CD000201081E090E090931F1080931E10BFCFB2
:104CE0006BEE7CE0CE0181569F4F0E945D098823C8
:104CF00009F4B5CF60E080E00E94450960E379E007
:104D0000CE0184589F4F0E94A90B10E000E0F801EB
:104D100035E0EE0FFF1F3A95E1F7EA5DFA4F80E2CA
:104D2000D30101900D928A95E1F71F930F932DB750
:104D30003EB7285531090FB6F8943EBF0FBE2DBFC0
:104D4000ADB7BEB7119688E5E0EEF1E101900D92A6
:104D50008A95E1F70E9462078DB79EB7865A9F4FEA
:104D60000FB6F8949EBF0FBE8DBF0E949D0388238F
:104D700091F08A330CF053C081330CF075C083324C
:104D800009F457C0803309F45DC062E370E080E04D
:104D900090E00E94030387ED91E10E94A80688231A
:104DA00009F4B5CF88E5E0EEF1E1D10101900D9273
:104DB0008A95E1F78101BB24B394F12CE12C69962B
:104DC0008EAD9FAD699718161906B4F420E830E04F
:104DD0000E2C02C0359527950A94E2F72095D8014C
:104DE00050968C915097282350962C934B2D70E021
:104DF00060E0C1010E94C406BFEFEB1AFB0AE8E0C5
:104E0000EE16F104E1F60F5F1F4FB394F9E0BF1205
:104E1000D4CFCE0184589F4F0E949B0A20CF883563
:104E200009F0B3CF0150110908F0AFCF0EE110E047
:104E3000ACCF0F5F1F4F0F31110509F0A6CF10E067
:104E400000E0A3CFB301CE0184589F4F0E94CB0A4C
:104E500061E080E00E944509BE0164587F4F88E30D
:104E600092E10E94E50491CF682FCE0184589F4FB4
:104E70000E94FD0AEDCF84ED91E10E94A8068823EF
:104E800009F4B5CECD55DF4F68817981C35AD04042
:104E90006115710509F4ABCE61507109CE018156DF
:104EA0009F4F0E944F0A63E08CE00E9445096AE52B
:104EB00079E088E392E10E94190A63E08CE00E94A5
:104EC0004509BE0161567F4F88E392E10E94E504E7
:104ED0008ECE80911E1090911F100E94BA0B0E94DE
:104EE0004B06A5CD0E94CE1AFACF0E945310F7CFE1
:104EF0000E949C0860E080E00E94450961E27DE03C
:104F000088E392E10E94190A6CE271E080E090E08F
:104F10000E94030361E080E00E9445096CE27DE0AD
:104F200088E392E10E94190A6CE271E080E090E06F
:104F30000E94030362E080E00E94450964E37DE093
:104F400088E392E10E94190A6CE271E080E090E04F
:104F50000E94030363E080E00E94450962E579E076
:104F600088E392E10E94190A60E379E0CE0181565C
:104F70009F4F0E94A90B0E949D038823D1F0CD551D
:104F8000DF4F28813981C35AD0402230310540F5A6
:104F9000682FCE0181569F4F0E94FD0A63E08CE08E
:104FA0000E944509BE0161567F4F88E392E10E944D
:104FB000E50487ED91E10E94A806882309F4A3C0C7
:104FC0006FE679E0CE0181569F4F0E945D098823EC
:104FD00061F187E090E090932110809320103FCE04
:104FE00063E08CE00E9445096AE579E088E392E19C
:104FF0000E94190A63E08CE00E9445096BE679E0A3
:1050000088E392E10E94190A68EE73E080E090E084
:105010000E94030363E08CE00E9445096AE579E0A1
:1050200088E392E10E94190AB9CF69EB79E0CE01D9
:1050300081569F4F0E945D09882319F088E090E017
:10504000CACF64E47DE0CE0181569F4F0E94590B88
:10505000C156DF4F88819981CF59D040892B09F4FF
:10506000FECDEBE0F0E181E1DF011D928A95E9F7E9
:1050700080910710909108109C012F5F3F4F309353
:1050800008102093071090930A10809309108EE067
:10509000E6EBFFE0DE01A458BF4F01900D928A9528
:1050A000E1F7BE0164587F4FC3010E942734C3015A
:1050B0000E94350AB3018BE090E10E942734EDB7DE
:1050C000FEB773970FB6F894FEBF0FBEEDBFADB736
:1050D000BEB7119683E1E9E0F0E101900D928A9567
:1050E000E1F70E941C1781E090E0909321108093DB
:1050F00020102DB73EB72D5E3F4F0FB6F8943EBF40
:105100000FBE2DBFACCD84ED91E10E94A80688238F
:1051100009F431CFCD55DF4F68817981C35AD04032
:105120006115710509F427CF61507109CE018156CF
:105130009F4F0E944F0A63E08CE00E9445096AE598
:1051400079E088E392E10E94190A63E08CE00E9412
:105150004509BE0161567F4F88E392E10E94E50454
:105160000ACF0E9435036093F90F7093FA0F809372
:10517000FB0F9093FC0F0E949C0860E080E00E946F
:10518000450966E47DE088E392E10E94190A60E93E
:1051900071E080E090E00E9403030E949C0860E0C0
:1051A00080E00E94450963E57DE088E392E10E948A
:1051B000190A61E080E00E94450962E67DE088E32B
:1051C00092E10E94190A62E080E00E94450961E7CD
:1051D0007DE088E392E10E94190A63E080E00E948A
:1051E000450963E87DE088E392E10E94190A6EEECA
:1051F00072E080E090E00E9403030E949C0860E05F
:1052000080E00E94450962E579E088E392E10E942E
:10521000190A60E379E0CE0181569F4F0E94A90BE5
:105220000E9435030091F90F1091FA0F2091FB0FA6
:105230003091FC0F601B710B820B930B69357F4023
:105240008240910508F008C10E949D038823D1F097
:10525000CD55DF4F28813981C35AD04022303105E6
:1052600050F5682FCE0181569F4F0E94FD0A60E0E5
:105270008CE00E944509BE0161567F4F88E392E1B0
:105280000E94E50487ED91E10E94A806882309F4B5
:10529000B5C06FE679E0CE0181569F4F0E945D094F
:1052A000882371F164E97DE088EC90E10E94050AB1
:1052B00089E090E090CE60E08CE00E94450964E6D1
:1052C00079E088E392E10E94190A60E08CE00E9494
:1052D00045096BE679E088E392E10E94190A64E6E9
:1052E00070E080E090E00E94030360E08CE00E94A8
:1052F000450964E679E088E392E10E94190AB7CF94
:1053000069EB79E0CE0181569F4F0E945D098823A9
:1053100049F06EEA7DE088EC90E10E94050A8AE09F
:1053200090E059CE64E47DE0CE0181569F4F0E940B
:105330005D09882309F44FC0EBE0F0E181E1DF0172
:105340001D928A95E9F780910710909108109C01B1
:105350002F5F3F4F309308102093071090930A104F
:10536000809309108EE0E6EBFFE0DE01A458BF4F0A
:1053700001900D928A95E1F7BE0164587F4FC301F9
:105380000E942734C3010E94350AB3018BE090E1EB
:105390000E942734EDB7FEB773970FB6F894FEBF9F
:1053A0000FBEEDBFADB7BEB7119683E1E9E0F0E106
:1053B00001900D928A95E1F70E941C1781E090E020
:1053C000909321108093201067EC7DE088EC90E1B1
:1053D0000E94050A8ECE6BEB7CE0CE0181569F4F7A
:1053E0000E945D09882309F43ACC6EED7DE088ECDB
:1053F00090E10E94050A8BE090E0EDCD84ED91E113
:105400000E94A806882309F40BCFCD55DF4F688191
:105410007981C35AD0406115710509F401CF6150FB
:105420007109CE0181569F4F0E944F0A60E08CE0C7
:105430000E9445096AE579E088E392E10E94190A31
:1054400060E08CE00E944509BE0161567F4F88E311
:1054500092E10E94E504E4CE81E090E09093211077
:105460008093201065EF7DE088EC90E10E94050AB2
:10547000F6CB0E949C0860E080E00E9445096FE046
:105480007EE088E392E10E94190A61E080E00E94D8
:1054900045096CE17EE088E392E10E94190A62E02E
:1054A00080E00E94450968E27EE088E392E10E9484
:1054B000190A87ED91E10E94A806882309F481C0AA
:1054C0000E949C0870E060E0C3010E940B0E10E097
:1054D00000E0730132E0E30EF11C0E949C0860E0E2
:1054E00080E00E94450966E37EE088E392E10E9445
:1054F000190A61E080E00E944509D3016D917C9119
:10550000CE0184589F4F0E94630BBE0164587F4FA9
:1055100088E392E10E94E504CE0184589F4F0E94E7
:105520009B0A62E080E00E944509C7010E941B0AB5
:10553000B701CE0184589F4F0E94A90BBE01645849
:105540007F4F88E392E10E94E504CE0184589F4F8B
:105550000E949B0A87ED91E10E94A806882321F111
:105560000F5F1F4FBE0164587F4F90E080E00E94A4
:10557000CF0DEE968EAD9FADEE970817190714F07C
:1055800010E000E00E949C08B801CE0180539F4FBC
:105590000E940B0E83E1FE01E053FF4FD301019007
:1055A0000D928A95E1F799CF84ED91E10E94A806CA
:1055B000882381F284E090E0909321108093201062
:1055C00007C084ED91E10E94A806882309F471CFF9
:1055D0006CE271E080E090E00E94030380CC0E94C6
:1055E0009C0860E080E00E94450967E47EE088E373
:1055F00092E10E94190A61E080E00E94450965E598
:105600007EE088E392E10E94190A62E080E00E9455
:1056100045096CE17EE088E392E10E94190A63E0AB
:1056200080E00E94450968E27EE088E392E10E9402
:10563000190A87ED91E10E94A806882309F4F7C0B2
:105640000E949C0860E080E00E94450961E67EE0DF
:1056500088E392E10E94190A61E080E00E94450916
:1056600062E77EE088E392E10E94190A62E080E04E
:105670000E9445096CE77EE088E392E10E94190AE6
:1056800063E088E00E94450910E000E0F12CE12C85
:105690000E94F70D0817190774F4B801C3010E949E
:1056A0000D0FF3018281882319F0FFEFEF1AFF0A33
:1056B0000F5F1F4FEDCFB701C3010E94630BB30112
:1056C00088E392E10E94E504C3010E949B0A68EB13
:1056D0007BE080E090E00E9403030E949C0860E071
:1056E00080E00E94450961E67EE088E392E10E9445
:1056F000190A61E080E00E94450969E87EE088E3DC
:1057000092E10E94190A62E080E00E94450962E984
:105710007EE088E392E10E94190A63E088E00E943B
:1057200045096091FF0F709100108091FD0F9091DD
:10573000FE0F680F791FC3010E94630BB30188E35A
:1057400092E10E94E504C3010E949B0A68EB7BE0A2
:1057500080E090E00E9403030E949C0860E080E0EB
:105760000E94450961E67EE088E392E10E94190A01
:1057700061E080E00E9445096DE97EE088E392E106
:105780000E94190A62E080E00E94450966EA7EE014
:1057900088E392E10E94190A63E088E00E944509CB
:1057A0006BEE7CE088E392E10E94190A68EB7BE0F3
:1057B00080E090E00E9403030E949C0860E080E08B
:1057C0000E94450961E67EE088E392E10E94190AA1
:1057D00061E080E00E94450963EB7EE088E392E1AE
:1057E0000E94190A62E080E00E9445096DEB7EE0AC
:1057F00088E392E10E94190A63E088E00E9445096B
:105800000E94E30DBC0161507109C3010E94630B4A
:10581000B30188E392E10E94E504C3010E949B0A60
:1058200068EB7BE080E090E00E940303C3CE84ED50
:1058300091E10E94A806882309F4FBCEC9CE0E94FC
:10584000F70D7C0110E000E00E151F059CF4B80177
:10585000C3010E940D0FD30112968C9112978111F2
:105860002CC0ED90FC90C7010E94CD09BFEFEB1654
:10587000FB0631F568EC7EE088EC90E10E94050AB9
:105880000E949C0860E080E00E94450964EF7EE091
:1058900088E392E10E94190A61E080E00E944509D4
:1058A0006FED7EE088E392E10E94190A85E090E0C6
:1058B000909321108093201012CB0F5F1F4FC4CF05
:1058C00080912010909121100E94BA0B80910610B7
:1058D000882381F08091051081110CC00E949C08E2
:1058E00061E080E00E9445096FE57BE088E392E19A
:1058F0000E94190A60E379E0CE0182559F4F0E9411
:10590000A90B8091051090910610992309F4FAC40F
:10591000811156C08091031090910410FC0125E084
:10592000EE0FFF1F2A95E1F7EA5DFA4F20E2D3015F
:1059300001900D922A95E1F79F938F93EDB7FEB7F3
:10594000E855F1090FB6F894FEBF0FBEEDBFADB735
:10595000BEB7119688E5E0EEF1E101900D928A95CF
:10596000E1F70E9462072DB73EB7265A3F4F0FB6A8
:10597000F8943EBF0FBE2DBF0E949D03882301F106
:105980008A330CF051C081330CF074C0833209F4B7
:105990005DC0803309F467C0CE54DF4F88819981A0
:1059A000C25BD04063E00D9708F06BC080E00E94BE
:1059B0004509BE0162557F4F88E392E10E94E504EC
:1059C00087ED91E10E94A806811180C084ED91E1EC
:1059D0000E94A806882309F494CFCE54DF4F688133
:1059E0007981C25BD0406115710509F48ACF61509D
:1059F0007109CE0182559F4F0E944F0A61E083E0FA
:105A00000E9445096AE579E088E392E10E94190A5B
:105A100061E083E00E944509BE0162557F4F88E343
:105A200092E10E94E5046DCF883509F0B5CF8091F1
:105A3000031090910410019797FD05C090930410F6
:105A400080930310A9CF8EE190E0F8CF80910310EE
:105A50009091041001968F31910580F310920410FB
:105A60001092031099CFB301CE0182559F4F0E942F
:105A7000CB0A92CF682FCE0182559F4F0E94FD0A1C
:105A80008BCF80E00E9445096AE579E088E392E1E6
:105A90000E94190A63E080E00E9445096BE679E004
:105AA00088E392E10E94190A68EE73E080E090E0DA
:105AB0000E94030363E080E00E9445096AE579E003
:105AC00088E392E10E94190A63E070CFC255DF4F6C
:105AD00068817981CE5AD040DB010D900020E9F732
