:100000000C9441010C9472010C9472010C947201D5
:100010000C9472010C9472010C9472010C94720194
:100020000C9472010C9472010C9472010C94720184
:100030000C9472010C9472010C9472010C94720174
:100040000C9472010C9472010C9472010C94720164
:100050000C9472010C9472010C9472010C94A21015
:100060000C9472010C9476110C944C110C94720146
:100070000C9472010C9472010C9472010C94720134
:100080000C9472010C9472010C9472010C94720124
:100090000C9416110C94EC100C9472010C947201D7
:1000A0000C9472010C9472010C9472010C94720104
:1000B0000C9472010C9472010C9472010C947201F4
:1000C0000C9472010C9472010C9472010C947201E4
:1000D0000C9472010C9472010C9472010C947201D4
:1000E0000C9472010C9461020C942A060C942F0358
:1000F0000C943F050C948F050C942B050C94EF0485
:100100000C9475020C94DC050C9491020C941C0563
:100110000C944D050C948D020C947F020C94790282
:100120000C94DB080C9467020C94BE020C947102D0
:100130000C946B020C9487020C944C020C945E029B
:100140000C9456020C948C020C945A020C94AC1130
:100150000C9429060C9483020C9452020C94EF0226
:1001600000002100240027002A002D003000330069
:1001700001010000040107010A010000220025001E
:1001800028002B002E003100340002010000050180
:1001900008010B01000020002300260029002C008C
:1001A0002F003200000100000301060109010505CE
:1001B0000505070508080808020202020A0A0808DD
:1001C000040404040101010101010101030303030B
:1001D00003030303040707070C0C0C0C0C0C0C0C9A
:1001E0000202020206060606060606060B0B0B0BAB
:1001F0000B0B0B0B010210202008081020401020D0
:1002000040800201020108040201010204081020DA
:1002100040808040201008040201800402018040D8
:100220002010080402010804020101020408102041
:100230004080010204081020408000000A0B0209DF
:100240000C0D0E0807030401000000000000000070
:10025000000000000000000000000000000000009E
:10026000000000000000121110000000000000005B
:10027000000000000000000000000000000000007E
:10028000AC1111241FBECFEFD1E2DEBFCDBF00E025
:100290000CBF2CE0A2EABAE001C01D92A03DB2075B
:1002A000E1F71AE0A0E0B2E0E0E6F0E300E00BBF27
:1002B00002C007900D92A23AB107D9F711E0C1E44C
:1002C000D1E000E006C021970109802FFE010E94C5
:1002D0000716C034D10780E00807A9F70E942D1344
:1002E0000C942E180C940000FC01A089B18982E0C6
:1002F0008C93A485B5851C92A685B7858FEC8C93CD
:10030000108EA489B58986E08C93A289B3898C91DB
:1003100080618C93A289B3898C9188608C93A28927
:10032000B3898C9180688C930288F389E02D808159
:100330008F7D8083089596E0899FD0011124A95173
:10034000B44F90967C936E935F9791E091969C93B7
:100350009197E091540CF091550C9091530C992386
:1003600039F0309751F0811108C08091030C199435
:10037000309719F05C968C91FACF0895CF92DF9266
:10038000EF92FF920F931F9396E0899FF001112443
:10039000E951F44F11A2278D30A12130310551F1DF
:1003A00078F02230310509F451C02330310509F4C9
:1003B00052C01F910F91FF90EF90DF90CF90089562
:1003C0006623B9F361E070E00E949B012FB7F894B7
:1003D0008091A90A9091AA0AA091AB0AB091AC0AA7
:1003E0002FBF80933F0C9093400CA093410CB0938F
:1003F000420CDFCF9FB7F894C090A90AD090AA0A08
:10040000E090AB0AF090AC0A9FBF00913F0C1091B6
:10041000400C2091410C3091420CC01AD10AE20AE2
:10042000F30A0091510C1091520C30E020E00C15B1
:100430001D052E053F0550F462E070E01F910F91FD
:10044000FF90EF90DF90CF900C949B016111B1CFA2
:1004500063E070E0F3CF70E060E0F0CF8150823174
:1004600008F05AC0E82FF0E08827E65CFD4F8F4F78
:100470000C9407165A025E024C02520256028C027B
:10048000610267026B027102750279027F028302C8
:100490008C0287028D029102809180008F77809379
:1004A00080000895809180008F7DF9CF8091800039
:1004B000877FF5CF84B58F7784BD089584B58F7D10
:1004C000FBCF8091B0008F778093B000089580912A
:1004D000B0008F7DF9CF809190008F77809390004E
:1004E0000895809190008F7DF9CF80919000877F53
:1004F000F5CF8091A0008F778093A0000895809120
:10050000A0008F7DF9CF8091A000877FF5CF8091EB
:1005100020018F77809320010895809120018F7DA5
:10052000F9CF80912001877FF5CFCF93DF93282FDC
:1005300030E0F901E65CFD4F8491F901EC50FE4F8B
:10054000D491F901E255FE4FC491CC23A1F0811161
:100550000E942E02EC2FF0E0EE0FFF1FEC56FE4F34
:10056000A591B491EC91ED2381E090E009F480E055
:10057000DF91CF91089580E090E0FACF862F0C9420
:1005800095021F93CF93DF93282F30E0F901E65CAB
:10059000FD4F8491F901EC50FE4FD491F901E255E1
:1005A000FE4FC491CC23A9F0162F81110E942E0278
:1005B000EC2FF0E0EE0FFF1FE658FE4FA591B4912F
:1005C0008FB7F894EC91111108C0D095DE23DC931D
:1005D0008FBFDF91CF911F910895DE2BF8CF862F2B
:1005E000642F0C94C102CF93DF9390E0FC01EC5098
:1005F000FE4F249182559E4FFC0184918823C9F0BF
:1006000090E0880F991FFC01E05AFE4FA591B4912C
:10061000FC01E658FE4FC591D49161110DC09FB702
:10062000F8948C91209582238C93888128232883A9
:100630009FBFDF91CF910895623051F49FB7F89436
:100640003C91822F809583238C93E8812E2BEFCFD2
:100650008FB7F894EC912E2B2C938FBFEACF862F77
:10066000642F0C94F3026F927F928F929F92AF92BD
:10067000BF92CF92DF92EF92FF920F931F93CF938F
:10068000DF9381E08093530C8FB7F8944091A90ACF
:100690005091AA0A6091AB0A7091AC0A8FBF809109
:1006A000430C9091440CA091450CB091460C481B12
:1006B000590B6A0B7B0B80914F0C9091500CB0E062
:1006C000A0E084179507A607B70708F01DC1C0E092
:1006D00080914D0CC81760F4E091490CF0914A0CE0
:1006E000EC0FF11D62E080810E94F302CF5FF0CF3A
:1006F000712C812C912C5401839480914E0C78168E
:1007000008F05FC0072D10E0E0914B0CF0914C0C0D
:10071000E00FF11F61E080810E94F302E0914B0C39
:10072000F0914C0CE00FF11F60E080810E94C1024B
:10073000D501C401072C04C0880F991FAA1FBB1F35
:100740000A94D2F76C017C01E094F094612C8091C2
:100750004D0C6816F8F4C62DD0E0E091490CF091EC
:100760004A0CEC0FFD1F80810E9495022496CC0F4D
:10077000DD1FC951D44F892B41F4888199818C297F
:100780009D29998388836394E2CF888199818E2102
:100790009F21F7CFE0914B0CF0914C0CE00FF11F33
:1007A00061E080810E94C10280914B0C90914C0CC1
:1007B000080F191F60E0F80180810E94F302739412
:1007C0009CCFC7EEDBE0FE018FEF9FEF278D30A1BE
:1007D000232B21F4148E968F858F11A236962CE050
:1007E000E332F20799F7F12C96E0D92E80914D0C67
:1007F000F81608F050C0E12C0F2D10E0000F111F6B
:100800000151144F20914E0CE21608F042C0F8013D
:10081000608171810E2C02C0769567950A94E2F78B
:10082000F29E900111242E0D311DE7EEFBE080E0D9
:10083000458D568D2417350709F46AC08F5F3696AB
:100840008A30B1F760FF23C0E7EEFBE090E080E084
:10085000448D411117C0E091470CF091480CE20F14
:10086000F31F4081D89EF001D99EF00D1124E9516B
:10087000F44F448F368F258F10A2178E61E00E94AF
:10088000BE0105C0019636968A30910509F7E394BA
:10089000B9CFF394ABCF80E099A19111892F26961F
:1008A000FCE0C332DF07C1F79FB7F8944091A90A73
:1008B0005091AA0A6091AB0A7091AC0A9FBF409315
:1008C000430C5093440C6093450C7093460C882362
:1008D000D9F08091080C8823B9F08091060C909192
:1008E000070C019789F48091030CDF91CF911F9140
:1008F0000F91FF90EF90DF90CF90BF90AF909F90BF
:100900008F907F906F9008951092530C80E0EDCF00
:100910006170B5CF3FB7F8948091A50A9091A60A6F
:10092000A091A70AB091A80A26B5A89B05C02F3FA1
:1009300019F00196A11DB11D3FBFBA2FA92F982F05
:100940008827BC01CD01620F711D811D911D42E000
:10095000660F771F881F991F4A95D1F708958F92C8
:100960009F92AF92BF92CF92DF92EF92FF924B0194
:100970005C010E948A046B017C010E948A046C194C
:100980007D098E099F09683E734081059105A8F392
:1009900021E0821A9108A108B10888EEC80E83E010
:1009A000D81EE11CF11C81149104A104B10429F7A3
:1009B000FF90EF90DF90CF90BF90AF909F908F907F
:1009C0000895DB0114964D915C9115976D917C9182
:1009D000DC01ED91FC910280F381E02D1994AF923E
:1009E000BF92CF92DF92EF92FF920F931F93CF931C
:1009F000DF936C017B018B01040F151FEB015E017E
:100A0000AE18BF08C017D10759F06991D601ED9112
:100A1000FC910190F081E02DC6011995892B79F7A1
:100A2000C501DF91CF911F910F91FF90EF90DF9063
:100A3000CF90BF90AF900895FC01538D448D252F2A
:100A400030E0842F90E0821B930B541710F0CF9668
:100A5000089501970895FC01918D828D981761F09A
:100A6000A28DAE0FBF2FB11D5D968C91928D9F5FB1
:100A70009F73928F90E008958FEF9FEF0895FC0190
:100A8000918D828D981731F0828DE80FF11D858D43
:100A900090E008958FEF9FEF0895FC01918D228DD6
:100AA000892F90E0805C9F4F821B91098F7399275B
:100AB00008958DEA9AE00E944D0521E0892B09F402
:100AC00020E0822F08958AE49BE00E944D0521E0FA
:100AD000892B09F420E0822F0895FC01A48DA80F32
:100AE000B92FB11DA35ABF4F2C91848D90E0019670
:100AF0008F739927848FA689B7892C93A089B18990
:100B00008C91837080648C93938D848D981306C030
:100B10000288F389E02D80818F7D80830895EF9294
:100B2000FF920F931F93CF93DF93EC0181E0888FA7
:100B30009B8D8C8D98131AC0E889F989808185FF77
:100B400015C09FB7F894EE89FF896083E889F98919
:100B500080818370806480839FBF81E090E0DF911B
:100B6000CF911F910F91FF90EF900895F62E0B8D6E
:100B700010E00F5F1F4F0F731127E02E8C8D8E1129
:100B80000CC00FB607FCFACFE889F989808185FF90
:100B9000F5CFCE010E946D05F1CFEB8DEC0FFD2F4F
:100BA000F11DE35AFF4FF0829FB7F8940B8FEA894B
:100BB000FB8980818062CFCFCF93DF93EC01888D5A
:100BC0008823B9F0AA89BB89E889F9898C9185FDC8
:100BD00003C0808186FD0DC00FB607FCF7CF8C9156
:100BE00085FFF2CF808185FFEDCFCE010E946D059C
:100BF000E9CFDF91CF91089580E090E0892B29F033
:100C00000E94630581110E94000080E090E0892B22
:100C100029F00E94590581110E94000080E090E0B7
:100C2000892B49F080E090E0892B29F00E94000098
:100C300081110E94000080E090E0892B49F080E063
:100C400090E0892B29F00E94000081110C94000093
:100C50000895089590E080E00895CF93DF93EC012C
:100C60008A8181110AC088810E949502019729F426
:100C700081E08A83DF91CF9108958A81811102C03A
:100C800080E0F8CF88810E949502892BC9F71A82EB
:100C9000F7CF4F925F926F927F928F929F92AF9217
:100CA000BF92CF92DF92EF92FF920F931F93CF9359
:100CB000DF931F921F92CDB7DEB78C0149832A8341
:100CC000660F771FF801EA5AFF4FE080F180EE0CC3
:100CD000FF1CF801CF01801B910B8E159F0514F4AA
:100CE0001192F8CF8981F801E60FF71F81838A817D
:100CF0008083680184E5C80ED11C60E0F601808124
:100D00000E94C1025801F2E5AF0EB11C480180E516
:100D1000880E911C1E141F040CF5E1E0EE1AF10878
:100D2000F801EE0DFF1D6080F5015080F401408058
:100D300088E0782E662D661F6627661F842D0E9428
:100D4000C102660C61E0852D0E94C10260E0852D24
:100D50000E94C1027A947110EDCFDCCF61E0F60100
:100D600080810F900F90DF91CF911F910F91FF9095
:100D7000EF90DF90CF90BF90AF909F908F907F903B
:100D80006F905F904F900C94C102EF92FF920F937F
:100D90001F93CF937C018C0183E0000F111F8A9574
:100DA000E1F70459134FC1E0F80111928F0120E0DF
:100DB0004C2FB7018CE59CE00E944906CF5FC930FB
:100DC00099F7CF911F910F91FF90EF9008959F9207
:100DD000AF92BF92CF92DF92EF92FF920F931F9349
:100DE000CF93DF93CDB7DEB7C054D1090FB6F894D7
:100DF000DEBF0FBECDBFC955DF4F28813981C75A2D
:100E0000D040FE01319680E4DF011D928A95E9F71A
:100E100049E1429FC001439F900D1124855E9D4F83
:100E20008F01BE01675D7F4FAF0130E020E0FA0126
:100E3000E20FF31FDC01A20FB31FAC91A18B2F5F58
:100E40003F4F2530310599F70596485F5F4F4617AC
:100E5000570759F7FE01E15BFF4F7F0199249394F7
:100E600080E8A82EB12CD12CC12CCB55DF4F888126
:100E70009981C55AD04018161906FCF4C5010C2CEE
:100E800002C0959587950A94E2F7D70150962C9168
:100E90005097F801EC0DFD1D3081332389F1822B31
:100EA00050968C93D70150962C91492D70E060E0BC
:100EB000CE01815B9F4F0E944906BFEFCB1ADB0A30
:100EC000E8E0CE16D10489F6FFEFEF1AFF0A9394FB
:100ED000085F1F4F89E09812C6CFC05CDF4F0FB686
:100EE000F894DEBF0FBECDBFDF91CF911F910F9160
:100EF000FF90EF90DF90CF90BF90AF909F900895BC
:100F000080958223F701808BCDCFCF93DF93EC01C7
:100F100060E08E810E94C10261E08E810E94C10268
:100F200060E08E810E94C1028BE891E00197F1F7A9
:100F3000DF91CF910895CF92DF92EF92FF920F93BE
:100F40001F93CF93DF936C017C0187E0E80EF11CC7
:100F5000D0E0C0E0062F10E0B8010C2E02C075955D
:100F600067950A94E2F76170F70181917F010E9411
:100F7000C1022196C430D10579F7C601DF91CF9126
:100F80001F910F91FF90EF90DF90CF900C94850709
:100F9000CF92DF92EF92FF920F931F93CF93DF9345
:100FA000EC01F62E642F8C810E94C1028D818F3F4F
:100FB00019F060E00E94C1020F2D10E08F8584FFC0
:100FC00025C06E0187E0C80ED11CF12CE12CB801C0
:100FD0000E2C02C0759567950A94E2F76170F601D0
:100FE00081916F010E94C102FFEFEF1AFF0A88E0B2
:100FF000E816F10461F7CE01DF91CF911F910F91B7
:10100000FF90EF90DF90CF900C948507B80184E0BB
:10101000759567958A95E1F7CE010E949B076F2D24
:10102000CE01DF91CF911F910F91FF90EF90DF9054
:10103000CF900C949B0740E0682F84EB9CE00C94CD
:10104000C80781E00E941B088BE39FE10197F1F73D
:101050000895CF93DF93813029F09091C30C98606D
:101060009093C30C8093C70C1092C80C80E48093BB
:10107000C90C80E18093CA0C80E58093CB0C61E0C1
:101080008091B80C0E94F3028091B90C8F3F19F047
:1010900061E00E94F30261E08091BA0C0E94F302C9
:1010A000C4EBDCE09E01245B3C408091C30C84FDDA
:1010B0000BC084E090E021962817390744F461E0E2
:1010C0008E810E94F302EECF88E090E0F4CF8BE3B4
:1010D0009DE00197F1F760E08091B80C0E94C10299
:1010E00060E08091BA0C0E94C1028091B90C8F3FE0
:1010F00019F060E00E94C1028091C30C84FD34C0ED
:1011000063E084EB9CE00E949B07CBE4D6E4CE0135
:101110000197F1F763E084EB9CE00E949B07219725
:10112000F1F763E084EB9CE00E949B0783E592E08B
:101130000197F1F762E084EB9CE00E949B078091AD
:10114000C30C80620E941B0884E08093C40C8CE076
:101150000E941B080E94210882E08093C50C86E053
:10116000DF91CF910C941B0880620E941B088BE4D6
:1011700096E40197F1F78091C30C80620E941B08EE
:1011800083E592E00197F1F78091C30C80620E94A1
:101190001B08D5CF843008F083E09091C70C8917E5
:1011A00010F08FEF890FE82FF0E0EC54F34F8489B3
:1011B00080680C941B0841E00E94C80781E090E021
:1011C0000895DC0114968D919C9115976817790705
:1011D00050F4ED91FC911197E60FF71F15967C9353
:1011E0006E93149710820895FF920F931F93CF93DD
:1011F000DF93EC018B01FB01F0800E94CF15F81604
:1012000021F06F2DCE010E94D715F801F1802196B3
:10121000CE010E94CF15F81621F06F2DCE010E944D
:10122000D715C801DF91CF911F910F91FF900895BD
:101230000F931F93CF93DF938C01EB010E94CF1587
:101240008883C80101960E94CF158983CE01DF9162
:10125000CF911F910F910895FC0124813581232B9B
:1012600039F421E0FB018081882349F020E007C0A8
:10127000808191810E941E1821E0892BB9F7822F6D
:101280000895FB0101900020E9F73197AF01461B5B
:10129000570BDC01ED91FC910280F381E02D199454
:1012A000CF93DF93BC018AE49BE00E944109EC01EB
:1012B0006EE279E08AE49BE00E9441098C0F9D1F59
:1012C000DF91CF910895CF93DF93BC018AE49BE037
:1012D0000E94E104EC016EE279E08AE49BE00E9466
:1012E00041098C0F9D1FDF91CF9108950C94410906
:1012F0000E94210880E00E94CA0861E379E084EB43
:101300009CE00E9476096CE271E080E090E00E942F
:10131000AF0481E00E94CA086CE379E084EB9CE0B2
:101320000E9476096CE271E080E090E00E94AF04D8
:1013300082E00E94CA086DE479E084EB9CE00E94A0
:1013400076096CE271E080E090E00E94AF0483E0F7
:101350000E94CA086EE579E084EB9CE00E94760961
:101360006CE271E080E090E00E94AF0484E00E94B3
:10137000CA086DE679E084EB9CE00E9476096CE295
:1013800071E080E090E00E94AF0485E00E94CA080E
:101390006BE779E084EB9CE00E94760989E59CE0AC
:1013A0000E942D068823D1F381E090E09093010202
:1013B000809300020895CF93DF93FC0101900020F9
:1013C000E9F73197E81BF90BDC0138E0AD01481B68
:1013D000590B4E175F0734F42D91ED012197232708
:1013E0002883F4CFDF91CF9108950F931F93CF936C
:1013F000DF93EC0188819981009759F02A813B8124
:101400002617370730F081E0DF91CF911F910F91C0
:1014100008958B016F5F7F4F0E943417009759F03A
:10142000998388831B830A832C813D81232B59F761
:10143000FC011082E8CF80E0E7CFEF92FF920F939C
:101440001F93CF93DF93FB0101900020E9F73197C1
:10145000E61BF70BE1F07B018C01DC011496CD91CA
:10146000DC91CE0FDF1FBE010E94F509882381F0B9
:10147000F8012081318184819581B701820F931F0A
:101480000E942718D8011596DC93CE93149781E01B
:10149000DF91CF911F910F91FF90EF900895EF9200
:1014A000FF920F931F93CF93DF931F921F92CDB79D
:1014B000DEB78C0169831A82FC01E480F580FFEFBE
:1014C000EF1AFF0AB7010E94F509882381F0F8019D
:1014D0002081318184819581BE016F5F7F4F820FB2
:1014E000931F0E942718F801F582E48281E00F9093
:1014F0000F90DF91CF911F910F91FF90EF90089582
:10150000CF93DF93EC0188819981009711F00E94BD
:10151000AB16198218821D821C821B821A82DF91EF
:10152000CF910895EF92FF920F931F93CF93DF9384
:10153000EC018617970781F0FB01008111810115ED
:10154000110539F0E480F580B7010E94F509811199
:101550000BC0CE010E94800ACE01DF91CF911F9176
:101560000F91FF90EF900895FD82EC82B801888181
:1015700099810E942718F0CFEF92FF920F931F934B
:10158000CF93DF93EC017B01198218821B821A82B0
:101590001D821C82FB0101900020E9F731978F0129
:1015A000061B170BB8010E94F509811109C0CE0175
:1015B000DF91CF911F910F91FF90EF900C94800AD3
:1015C0001D830C83B70188819981DF91CF911F9191
:1015D0000F91FF90EF900C942718FC01808191816E
:1015E000009711F00C94AB1608952F923F924F92F2
:1015F0005F926F927F928F929F92AF92BF92CF92A3
:10160000DF92EF92FF920F931F93CF93DF93CDB7AB
:10161000DEB7C158D1090FB6F894DEBF0FBECDBFFB
:101620002DB73EB7C058DF4F39832883C058D0400C
:101630000E94210880E00E94CA086AE879E084EBF1
:101640009CE00E94760960E379E0CE018C589F4FC0
:101650000E94BC0A8E010F5F1F4F5EE1E52EF12C48
:101660008091A20A9091A30AFC0145E0EE0FFF1FB2
:101670004A95E1F7EE5DFA4F20E2D80101900D9214
:101680002A95E1F79F938F938DB79EB7885591095F
:101690000FB6F8949EBF0FBE8DBFADB7BEB7119603
:1016A00088E5ECE5FCE001900D928A95E1F70E9457
:1016B000E706EDB7FEB7E65AFF4F0FB6F894FEBF48
:1016C0000FBEEDBF0E9433038823E9F08A330CF08C
:1016D00098C181330CF0BDC1833209F4A6C18033B7
:1016E00009F4B0C1EA968EAD9FADEA970C9708F069
:1016F000B7C181E00E94CA08BE016C587F4F84EBDD
:101700009CE00E94E10489E59CE00E942D0688236C
:1017100009F4C8C1CE018C589F4F0E94630988EA22
:1017200099E00E9450090E94210880E00E94CA08A6
:1017300068EB79E084EB9CE00E94760960E379E055
:10174000CE0186589F4F0E94BC0A3EE1E32EF12C49
:101750008091A20A9091A30AFC0125E0EE0FFF1FE1
:101760002A95E1F7EE5DFA4F20E2D80101900D9243
:101770002A95E1F79F938F932DB73EB728553109EE
:101780000FB6F8943EBF0FBE2DBFADB7BEB71196D2
:1017900088E5ECE5FCE001900D928A95E1F70E9466
:1017A000E7068DB79EB7865A9F4F0FB6F8949EBF37
:1017B0000FBE8DBF0E9433038823F9F08A330CF0EB
:1017C0009BC181330CF0C0C1833209F4A9C18033BD
:1017D00009F4B3C1C258DF4F88819981CE57D040F8
:1017E000089708F0B8C181E00E94CA08BE01665897
:1017F0007F4F84EB9CE00E94E10489E59CE00E941D
:101800002D06882309F4E5C1CE0186589F4F0E941A
:101810006309E6966EAD7FADE697FB01019000206F
:10182000E9F7CF012DB63EB6861B970B2DB73EB715
:10183000281B390B0FB6F8943EBF0FBE2DBF8DB7D6
:101840009EB701967C010E942718C7010E94DB0900
:10185000EC966EAD7FADEC97FB0101900020E9F7AF
:10186000CF01861B970B2DB73EB7281B390B0FB640
:10187000F8943EBF0FBE2DBF8DB79EB701966C0189
:101880000E942718C6010E94DB0962EC79E08AE415
:101890009BE00E947609C7010E94500963ED79E040
:1018A0008AE49BE00E947609C6010E945009B601B5
:1018B000CE0182599F4F0E94BC0AB701CE018859C0
:1018C0009F4F0E94BC0A66247724601A710AD12CAB
:1018D000C12C7E0194E2E90EF11C2801E3E24E0ED8
:1018E000511CB7018EE897E00E9418098CA19DA1B8
:1018F000C816D9060CF067C1B7018EE897E00E94C0
:1019000018098CA19DA1C816D9060CF446C186EE13
:1019100099E00E945009F80123E211922A95E9F713
:101920001DA21CA21FA21EA219A618A6BE016259C2
:101930007F4FC7010E94920A29961FAE1EAE2997BB
:101940002B961FAE1EAE2B972D961FAE1EAE2D975B
:10195000BE0168597F4FCE01895B9F4F0E94920A5A
:1019600029966EAD7FAD2997C8010E941E18892B5C
:1019700051F46CA17DA1CE0145960E941E18BB2496
:10198000B394892B09F0B12CCE01895B9F4F0E9443
:10199000ED0AC7010E94ED0AF3E26F0E711CBB2035
:1019A00009F40DC183E2F801D70101900D928A95E7
:1019B000E1F7CE0188599F4F0E94ED0ACE0182596E
:1019C0009F4F0E94ED0A8CA181112FC10E94210816
:1019D00080E00E94CA0862E07AE084EB9CE00E940A
:1019E000760981E00E94CA086CE07AE084EB9CE012
:1019F0000E94760968EE73E080E090E00E94AF04F8
:101A00007EC1883509F06ECE8091A20A9091A30A1A
:101A1000019797FD05C09093A30A8093A20A62CE16
:101A2000F092A30AE092A20A5DCE8091A20A909160
:101A3000A30A01968F31910570F31092A30A1092B8
:101A4000A20A50CEB801CE018C589F4F0E941D0AA9
:101A500049CE682FCE018C589F4F0E944F0A42CE2C
:101A600081E00E94CA0863E979E084EB9CE00E946F
:101A7000760981E00E94CA0864EA79E084EB9CE080
:101A80000E94760968EE73E080E090E00E94AF0467
:101A900081E00E94CA0863E979E084EB9CE00E943F
:101AA000760927CE86E59CE00E942D06882309F45E
:101AB000D7CDEA966EAD7FADEA976115710509F451
:101AC000CFCD61507109CE018C589F4F0E94E10823
:101AD00081E00E94CA0863E979E084EB9CE00E94FF
:101AE000760981E00E94CA08BE016C587F4F84EBE2
:101AF0009CE00E94E104B4CD883509F06BCE809162
:101B0000A20A9091A30A019797FD05C09093A30A9A
:101B10008093A20A5FCEF092A30AE092A20A5ACE64
:101B20008091A20A9091A30A01968F31910570F3DA
:101B30001092A30A1092A20A4DCEB801CE01865887
:101B40009F4F0E941D0A46CE682FCE0186589F4F98
:101B50000E944F0A3FCE81E00E94CA0863E979E003
:101B600084EB9CE00E94760981E00E94CA0864EA46
:101B700079E084EB9CE00E94760968EE73E080E0F7
:101B800090E00E94AF0481E00E94CA0863E979E016
:101B900084EB9CE00E94760926CE580143013EE684
:101BA000831A38EF930AC4018A0D9B1D0E94CF153A
:101BB000F50181935F014E165F06A9F7B1CE2FEFB5
:101BC000C21AD20A8ECE83E2F70111928A95E9F702
:101BD000F0CE86E59CE00E942D06882309F4B8CD5E
:101BE000C258DF4F68817981CE57D04061157105A9
:101BF00009F4AECD61507109CE0186589F4F0E9405
:101C0000E10881E00E94CA0863E979E084EB9CE086
:101C10000E94760981E00E94CA08BE0166587F4F83
:101C200084EB9CE00E94E10493CD0E94210880E0B7
:101C30000E94CA0861E379E084EB9CE00E94760987
:101C400081E00E94CA08B70184EB9CE00E947609FB
:101C500027968FAD2797882309F4A5C068EE73E017
:101C600080E090E00E94AF0484E090E09093010255
:101C7000809300028AEF99E00E945009C090000210
:101C8000D09001020D2C000CEE08FF08F7FE6BC08F
:101C90006DE28AE49BE00E948F0522273327A90189
:101CA0002C193D094E095F09A8961FAEA89707E4B5
:101CB00010E00C0F1D1F005E1F4F9AE0C92ED12CA3
:101CC000E12CF12CCA01B901A70196010E94E5158A
:101CD000605DF80162938F012115310541055105C1
:101CE00089F70115110529F0B8018AE49BE00E94EB
:101CF00041096EE279E08AE49BE00E9441090FB657
:101D0000F8943EBE0FBE2DBECE0186589F4F0E9456
:101D1000ED0ACE018C589F4F0E94ED0AC058DF4F4C
:101D200028813981C058D0400FB6F8943EBF0FBE0D
:101D30002DBFCF57DF4F0FB6F894DEBF0FBECDBF1C
:101D4000DF91CF911F910F91FF90EF90DF90CF9097
:101D5000BF90AF909F908F907F906F905F904F90CB
:101D60003F902F900895A7019601A8961FAEA897BF
:101D700007E410E00C0F1D1F005E1F4F8AE0C82E05
:101D8000D12CE12CF12CCA01B901A70196010E94C6
:101D9000E515605DF80162938F012115310541055C
:101DA000510589F79ECF68EE73E080E090E00E94D5
:101DB000AF0485E090E090930102809300029FCFF2
:101DC000BF92CF92DF92EF92FF920F931F93CF9328
:101DD000DF93CDB7DEB7C458D1090FB6F894DEBF94
:101DE0000FBECDBF0E94210880E00E94CA0868E1B2
:101DF0007AE084EB9CE00E9476096CE271E080E07E
:101E000090E00E94AF0481E00E94CA0867E27AE095
:101E100084EB9CE00E9476096CE271E080E090E047
:101E20000E94AF0482E00E94CA0860E37AE084EB7B
:101E30009CE00E9476096CE271E080E090E00E94F4
:101E4000AF040E94210880E00E94CA086CE37AE097
:101E500084EB9CE00E94760960E379E0CE01815832
:101E60009F4F0E94BC0A90E8E92EF12C0E94330398
:101E70008823D1F0CD57DF4F28813981C358D04016
:101E80002230310508F04CC0682FCE0181589F4F99
:101E90000E944F0A81E00E94CA08BE0161587F4F2C
:101EA00084EB9CE00E94E10489E59CE00E942D0601
:101EB000882361F064E47AE0CE0181589F4F0E944C
:101EC0002C09882309F44EC00E94F50A86E59CE09F
:101ED0000E942D06882351F2CD57DF4F688179810A
:101EE000C358D0406115710509F261507109CE01E6
:101EF00081589F4F0E94E10881E00E94CA0863E96F
:101F000079E084EB9CE00E94760981E00E94CA0897
:101F1000BE0161587F4F84EB9CE00E94E104A6CF94
:101F200081E00E94CA0863E979E084EB9CE00E94AA
:101F3000760981E00E94CA0864EA79E084EB9CE0BB
:101F40000E94760968EE73E080E090E00E94AF04A2
:101F500081E00E94CA0863E979E084EB9CE00E947A
:101F6000760998CF66E47AE0CE0181589F4F0E94AF
:101F70002C098111CEC069E779E0CE0181589F4FCD
:101F80000E942C09882309F4C7C080E00E94CA0877
:101F900060E379E0CE0187589F4F0E94BC0A10E0B1
:101FA00000E0F80185E0EE0FFF1F8A95E1F7EE5D96
:101FB000FA4F80E2DE01A75ABF4F01900D928A9539
:101FC000E1F71F930F938DB79EB7885591090FB610
:101FD000F8949EBF0FBE8DBFADB7BEB7119688E512
:101FE000ECE5FCE001900D928A95E1F70E94E7068E
:101FF0000FB6F894DEBF0FBECDBF0E943303882317
:1020000091F08A330CF058C081330CF07BC08332DE
:1020100009F45CC0803309F462C062E370E080E0E0
:1020200090E00E94AF0489E59CE00E942D06882381
:1020300009F4B7CFCE0187589F4F0E94630988E506
:10204000ECE5FCE0DE01119601900D928A95E1F736
:102050008E010F5F1F4FBB24B394D12CC12C699606
:102060008EAD9FAD6997181619069CF497010C2C3C
:1020700002C0359527950A94E2F72095F8018089EA
:102080002823208B4B2D70E060E0CE0101960E944A
:102090004906FFEFCF1ADF0A88E0C816D104F9F627
:1020A0000F5F1F4FB39499E0B912D7CFCE01875875
:1020B0009F4F0E94ED0A0ACF883509F0AECF01503C
:1020C000110908F0AACF0EE110E0A7CF0F5F1F4F54
:1020D0000F31110509F0A1CF10E000E09ECFBE0145
:1020E000675A7F4FCE0187589F4F0E941D0A81E09B
:1020F0000E94CA08BE0167587F4F84EB9CE00E9493
:10210000E1048BCF682FCE0187589F4F0E944F0A62
:10211000EECF0E94E00EDACECE0181589F4F0E9492
:10212000ED0ACC57DF4F0FB6F894DEBF0FBECDBF20
:10213000DF91CF911F910F91FF90EF90DF90CF90A3
:10214000BF9008951F920F920FB60F9211242F93F4
:102150003F938F939F93AF93BF938091A90A9091E0
:10216000AA0AA091AB0AB091AC0A3091A40A23E06C
:10217000230F2D3758F50196A11DB11D2093A40AF8
:102180008093A90A9093AA0AA093AB0AB093AC0AD1
:102190008091A50A9091A60AA091A70AB091A80AD9
:1021A0000196A11DB11D8093A50A9093A60AA09344
:1021B000A70AB093A80ABF91AF919F918F913F91C9
:1021C0002F910F900FBE0F901F90189526E8230FA8
:1021D0000296A11DB11DD2CF1F920F920FB60F9282
:1021E00011240BB60F922F933F934F935F936F93EE
:1021F0007F938F939F93AF93BF93EF93FF938DEA5A
:102200009AE00E946D05FF91EF91BF91AF919F9170
:102210008F917F916F915F914F913F912F910F908F
:102220000BBE0F900FBE0F901F9018951F920F922C
:102230000FB60F9211240BB60F922F938F939F938B
:10224000EF93FF93E091BD0AF091BE0A8081E09187
:10225000C30AF091C40A82FD1DC090818091C60A14
:102260008F5F8F732091C70A821741F0E091C60AF1
:10227000F0E0E355F54F958F8093C60AFF91EF91FB
:102280009F918F912F910F900BBE0F900FBE0F90CB
:102290001F9018958081F2CF1F920F920FB60F9268
:1022A00011240BB60F922F933F934F935F936F932D
:1022B0007F938F939F93AF93BF93EF93FF938AE4A2
:1022C0009BE00E946D05FF91EF91BF91AF919F91AF
:1022D0008F917F916F915F914F913F912F910F90CF
:1022E0000BBE0F900FBE0F901F9018951F920F926C
:1022F0000FB60F9211240BB60F922F938F939F93CB
:10230000EF93FF93E0915A0BF0915B0B8081E0918A
:10231000600BF091610B82FD1DC090818091630B79
:102320008F5F8F732091640B821741F0E091630BF4
:10233000F0E0E65BF44F958F8093630BFF91EF9194
:102340009F918F912F910F900BBE0F900FBE0F900A
:102350001F9018958081F2CFCF93DF931092B00A2F
:102360001092AF0A48EE53E060E070E04093B10A8B
:102370005093B20A6093B30A7093B40A8AE099E06A
:102380009093AE0A8093AD0A2DEC30E03093BA0AF8
:102390002093B90A2CEC30E03093BC0A2093BB0A9E
:1023A00028EC30E03093BE0A2093BD0A29EC30E0DF
:1023B0003093C00A2093BF0A2AEC30E03093C20A5F
:1023C0002093C10A2EEC30E03093C40A2093C30A54
:1023D0001092C60A1092C70A1092C80A1092C90A2F
:1023E00010924D0B10924C0B40934E0B50934F0B91
:1023F0006093500B7093510B90934B0B80934A0B4F
:1024000085EC90E09093570B8093560B84EC90E012
:102410009093590B8093580B80EC90E090935B0B5A
:1024200080935A0B81EC90E090935D0B80935C0B52
:1024300082EC90E090935F0B80935E0B86EC90E0D3
:102440009093610B8093600B1092630B1092640B5E
:102450001092650B1092660B1092B70C1092B60C8E
:1024600086E299E09093B50C8093B40C8CE0809355
:10247000B80C8FEF8093B90C8BE08093BA0C85E099
:102480008093BB0C84E08093BC0C83E08093BD0CF4
:1024900082E08093BE0C1092BF0C1092C00C109280
:1024A000C10C1092C20C1092C30C81E00E9429084A
:1024B000CAE0D0E0D093AD0CC093AC0C88E090E0C3
:1024C0009093AF0C8093AE0C89E090E09093B10CA8
:1024D0008093B00C81E090E09093B30C8093B20CA9
:1024E00061E08AE00E94F30261E08091AE0C0E94FC
:1024F000F30261E08091B00C0E94F30261E08091F0
:10250000B00C0E94C102D093AD0CC093AC0CECE6B1
:10251000FCE08CEA9CE011928E179F07E1F7D0E077
:10252000C0E08091B20C9091B30CC817D907B4F5F4
:1025300020E04FE0BE018CE59CE00E9449068091BE
:10254000B20C9091B30CC817D9073CF427E04BE0CC
:10255000BE018CE59CE00E94490620E049E0BE01F6
:102560008CE59CE00E9449068091B20C9091B30CDE
:10257000C817D9071CF4CE010E94C5068091B20C81
:102580009091B30CC817D9073CF420E04CE0BE0191
:102590008CE59CE00E9449062196C3CF10925B0C0B
:1025A00087E190E090935A0C8093590C1092580C4C
:1025B00088E190E09093570C8093560C1092E90BB1
:1025C0001092ED0B1092EC0B1092EE0B8CE199E057
:1025D0009093E80B8093E70BE3E0FCE08FE39CE053
:1025E000108214821382158236968E179F07C1F7C8
:1025F00085E092E090934A0C8093490C82E092E04F
:1026000090934C0C80934B0C84E080934D0C83E0B2
:1026100080934E0C89E092E09093480C8093470C95
:102620008AE090E09093500C80934F0C84EF91E0FF
:102630009093520C8093510C1092550C1092540CA4
:102640001092430C1092440C1092450C1092460CC0
:102650001092530CDF91CF910895CF93DF93CDB7B4
:10266000DEB7CE55D1090FB6F894DEBF0FBECDBF91
:10267000789484B5826084BD84B5816084BD85B55D
:10268000826085BD85B5816085BD80916E00816069
:1026900080936E001092810080918100826080930F
:1026A0008100809181008160809381008091800011
:1026B0008160809380008091B10084608093B1003C
:1026C0008091B00081608093B00080919100826021
:1026D000809391008091910081608093910080911E
:1026E00090008160809390008091A100826080932F
:1026F000A1008091A10081608093A1008091A00041
:1027000081608093A00080912101826080932101EB
:10271000809121018160809321018091200181605D
:102720008093200180917A00846080937A00809168
:102730007A00826080937A0080917A008160809331
:102740007A0080917A00806880937A001092C100AC
:102750008AE49BE00E9474018DEA9AE00E94740171
:102760001A821982BE016F5F7F4F8EE897E00E9448
:10277000F40864E079E080E997E00E94F4081A82A6
:102780001982BE016F5F7F4F81E390E00E94F408E1
:1027900062E079E083E390E00E94F40888E49AE044
:1027A0000E94500983E2F82E8E010C5D1F4FF80144
:1027B0002F2D11922A95E9F781E027968FAF279761
:1027C00081E690E06F969FAF8EAF6F97BE01635A20
:1027D0007F4FCE01855A9F4F0E942718CE01855A00
:1027E0009F4F0E94DB0986E0ECE9FAE0DE01A35B83
:1027F000BF4F01900D928A95E1F7BE01635B7F4F59
:10280000CE01895B9F4F0E942718CE01895B9F4FA5
:102810000E94DB0981E390E06B969FAF8EAF6B97D0
:10282000BE01675A7F4FCE01895A9F4F0E942718D9
:10283000CE01895A9F4F0E94DB09BE01655A7F4F26
:10284000C8010E942718BE01695B7F4FCE01C09668
:102850000E942718BE01695A7F4FCE01C8960E9478
:102860002718CE01855A9F4F0E945009CE01895AE0
:102870009F4F0E945009F801DE01119601900D92C0
:10288000FA94E1F7BE016D5A7F4F80E997E00E940C
:10289000180965968EAD9FAD65978F3F9F400CF4EC
:1028A0004AC087E59AE00E94500984E00E94290806
:1028B0008091B20C9091B30C1816190644F421E0E3
:1028C0004CE070E060E08CE59CE00E94490680915D
:1028D000B20C9091B30C1816190644F428E04AE0A3
:1028E00070E060E08CE59CE00E9449068091B20CAB
:1028F0009091B30C1816190624F490E080E00E9421
:10290000C50660E08091590C0E94F30260E080915E
:10291000560C0E94F30280910002909101028130D6
:10292000910509F406C10CF05FC0892B09F4FEC0C3
:102930000E94FC05F0CFBE016D5A7F4F8EE897E0F4
:102940000E94180965968EAD9FAD659701966596B4
:102950009FAF8EAF6597BE016D5A7F4F8EE897E0AF
:102960000E94F408BE016B5A7F4F80E997E00E94F5
:1029700018096796CEACDFAC6797DAA2C9A2BE0190
:102980006B5A7F4F80E997E00E94180967966EACFA
:102990007FAC6797CE0101967C01B12CA12CF70189
:1029A00051907F0143018A0C9B1CC4010E94CF15EA
:1029B000581621F0652DC4010E94D715FFEFAF1AFC
:1029C000BF0A23E2A216B10451F783E2C80ED11C5C
:1029D0006796DFAECEAE6797BE016B5A7F4F80E938
:1029E00097E00E94F40861CF8230910509F4A4C0F9
:1029F000049709F09DCF0E94210880E00E94CA0838
:102A000063E67AE084EB9CE00E9476096CE271E078
:102A100080E090E00E94AF040E94210880E00E94C4
:102A2000CA086EE67AE084EB9CE00E94760981E0B9
:102A30000E94CA086CE77AE084EB9CE00E94760969
:102A40006CE271E080E090E00E94AF0482E00E94BE
:102A5000CA0861E87AE084EB9CE00E94760983E092
:102A60000E94CA086EE87AE084EB9CE00E94760936
:102A70006CE271E080E090E00E94AF040E942108C7
:102A800080E00E94CA086CE37AE084EB9CE00E943C
:102A9000760960E379E0C8010E94BC0A0E94330312
:102AA000882391F028A539A52230310508F047C0C8
:102AB000682FC8010E944F0A81E00E94CA08B8012D
:102AC00084EB9CE00E94E10489E59CE00E942D06D5
:102AD000882351F064E47AE0C8010E942C0988231D
:102AE00009F44FC00E94780986E59CE00E942D06FB
:102AF0008823A1F268A579A56115710579F2615065
:102B00007109C8010E94E10881E00E94CA0863E9D6
:102B100079E084EB9CE00E94760981E00E94CA087B
:102B2000B80184EB9CE00E94E104B8CF0E947809D0
:102B3000FFCE0E94E00EFCCE0E94F50AF9CE81E0A5
:102B40000E94CA0863E979E084EB9CE00E94760960
:102B500081E00E94CA0864EA79E084EB9CE00E946C
:102B6000760968EE73E080E090E00E94AF0481E0B7
:102B70000E94CA0863E979E084EB9CE00E94760930
:102B80009BCF66E47AE0C8010E942C09882319F0E3
:102B90000E94E00EA9CFC8010E94ED0AC9CEF999A2
:102BA000FECF92BD81BDF89A992780B50895262F52
:102BB000F999FECF1FBA92BD81BD20BD0FB6F89422
:102BC000FA9AF99A0FBE01960895A1E21A2EAA1B4D
:102BD000BB1BFD010DC0AA1FBB1FEE1FFF1FA217CD
:102BE000B307E407F50720F0A21BB30BE40BF50BCA
:102BF000661F771F881F991F1A9469F76095709553
:102C0000809590959B01AC01BD01CF010895EE0F19
:102C1000FF1F881F8BBF0790F691E02D19940F932B
:102C20001F93CF93DF938230910510F482E090E000
:102C3000E091CE0CF091CF0C30E020E0B0E0A0E0CD
:102C4000309799F42115310509F44AC0281B390B36
:102C500024303105D8F58A819B816115710589F190
:102C6000FB0193838283FE0111C040815181028167
:102C7000138148175907E0F04817590799F410973E
:102C800061F012960C93129713961C933296CF0113
:102C9000DF91CF911F910F9108950093CE0C109367
:102CA000CF0CF4CF2115310551F04217530738F0FE
:102CB000A901DB019A01BD01DF01F801C1CFEF01DC
:102CC000F9CF9093CF0C8093CE0CCDCFFE01E20FC5
:102CD000F31F819391932250310939832883D7CFF1
:102CE0002091CC0C3091CD0C232B41F42091170274
:102CF000309118023093CD0C2093CC0C209115020A
:102D0000309116022115310541F42DB73EB740919F
:102D1000190250911A02241B350BE091CC0CF09152
:102D2000CD0CE217F307A0F42E1B3F0B2817390731
:102D300078F0AC014E5F5F4F2417350748F04E0F17
:102D40005F1F5093CD0C4093CC0C819391939FCFF8
:102D5000F0E0E0E09CCFCF93DF930097E9F0FC0137
:102D6000329713821282A091CE0CB091CF0CED015C
:102D700030E020E01097A1F420813181820F931F71
:102D80002091CC0C3091CD0C2817390709F061C087
:102D9000F093CD0CE093CC0CDF91CF910895EA0134
:102DA000CE17DF07E8F54A815B819E014115510589
:102DB000B1F7E901FB83EA8349915991C40FD51F0B
:102DC000EC17FD0761F4808191810296840F951FB5
:102DD000E90199838883828193819B838A83F0E0D0
:102DE000E0E012968D919C9113970097B9F52D9183
:102DF0003C911197CD010296820F931F2091CC0C2C
:102E00003091CD0C2817390739F6309751F51092CB
:102E1000CF0C1092CE0CB093CD0CA093CC0CBCCFA9
:102E2000D383C28340815181840F951FC817D9076E
:102E300061F44E5F5F4F88819981480F591F51831C
:102E400040838A819B81938382832115310509F018
:102E5000B0CFF093CF0CE093CE0C9ECFFD01DC0100
:102E6000C0CF13821282D7CF4F925F926F927F9220
:102E70008F929F92AF92BF92CF92DF92EF92FF928A
:102E80000F931F93CF93DF938C01009799F4CB019D
:102E9000DF91CF911F910F91FF90EF90DF90CF9036
:102EA000BF90AF909F908F907F906F905F904F906A
:102EB0000C940F16FC01E60FF71F9C0122503109FC
:102EC000E217F30708F4AEC0D901CD91DC91119758
:102ED000C617D70720F1C530D10578F0CE01049789
:102EE0008617970750F0C61BD70B2297C193D19333
:102EF0006D937C93CF010E94AB16C801DF91CF91F7
:102F00001F910F91FF90EF90DF90CF90BF90AF9007
:102F10009F908F907F906F905F904F9008955B018E
:102F2000AC1ABD0A4C018C0E9D1EA091CE0CB09126
:102F3000CF0C512C412CF12CE12C109731F58091C4
:102F4000CC0C9091CD0C8815990509F05CC0461603
:102F5000570608F058C0809115029091160200970C
:102F600041F48DB79EB74091190250911A02841B0B
:102F7000950BE817F90708F055C0F093CD0CE093D6
:102F8000CC0CF90171836083B8CF8D919C9111971E
:102F900012966C90129713967C901397A815B9050A
:102FA00059F56C0142E0C40ED11CCA14DB0420F1B7
:102FB000AC014A195B09DA011296159780F062821A
:102FC000738251834083D9016D937C93E114F104A2
:102FD00071F0D7011396FC93EE9312978ECF229641
:102FE0008C0F9D1FF90191838083F301EFCFF09344
:102FF000CF0CE093CE0C81CF4816590608F42C0173
:103000007D01D3019ACFCB010E940F167C0100975E
:1030100049F0AE01B8010E941518C8010E94AB1614
:1030200087016BCF10E000E068CFFB01DC0102C03C
:1030300001900D9241505040D8F70895FB01DC01FA
:103040008D91019080190110D9F3990B0895FB011E
:10305000DC0101900D920020E1F70895F894FFCF74
:1030600002001E1F201A1B1C1D3132333435363727
:1030700038395830230000D00C80000001010100D5
:103080000100000001010101010101000000010136
:103090000000000101010101000100000001010127
:1030A0000101000100000001010101010001010115
:1030B000010101000000000100000000010000000B
:1030C00000010101010101010101000100000001F5
:1030D00001000000010100000001010101010001E7
:1030E00001010101010000000001010101010100D5
:1030F00000000001010101010101010101010000C5
:1031000000000101010101010000000001000000B8
:1031100000000101010101000000000100010101A6
:103120000100000001000101010101000000010196
:103130000000000101010101010100000001010086
:103140000000010101010101000001000000000177
:103150000000000001000001010101010101010165
:10316000010000010000000001000000000100005B
:103170000101000000010000010001000100000148
:103180000100000001000100000100000100010039
:10319000000000010000000001000000000100002C
:1031A0000000010101010101010001010100010014
:1031B0000101000000010100000001010000000108
:1031C00001000000010101000001010001000101F6
:1031D00000000101010000000100000101000101E7
:1031E00000000101000100010100000101010000D7
:1031F00000010001010100010000000101000000C8
:1032000001010000000100010101000001010100B5
:1032100001000000010101010100010000000001A6
:103220000000000000010101000100000001010098
:103230000000010100010001000101010101010183
:103240000100010000000101010101000100000175
:103250000001000000010001010101010000000067
:103260000001010100000000000101010101000155
:103270000101010100000100000000010000000048
:103280000100000000010000010000000101000039
:103290000001010000000101000000010001010126
:1032A0000001000000010100000001010000000118
:1032B0000001000100000001000001000000010108
:1032C00000000001010000000101000100010101F6
:1032D00000010101000000010001000100000001E7
:1032E00000000001000100010000000101000000D9
:1032F00001000100010000000100000000010000C9
:1033000000000100000101010101000000010000B6
:1033100000010000000100000001010101010100A5
:103320000100010001010100000001000000010195
:103330000100010001000100010001000101010183
:103340000100010001000101010101000100010073
:103350000001010101010001000000010101000064
:103360000001000101010101000000010000000056
:10337000010000000001000000000000000000014A
:1033800000006100000000000000000000000000DC
:10339000000000000000000000000000000000002D
:1033A00000006200000000000000000000000000BB
:1033B000000000000000000000000000000000000D
:1033C0000100630000000000000000000000000099
:1033D00000000000000000000000000000000000ED
:1033E0000200640000000000000000000000000077
:1033F00000000000000000000000000000000000CD
:103400000300650000000000000000000000000054
:1034100000000000000000000000000000000000AC
:103420000400660000000000000000000000000032
:10343000000000000000000000000000000000008C
:103440000500670000000000000000000000000010
:10345000000000000000000000000000000000006C
:1034600006006800000000000000000000000000EE
:10347000000000000000000000000000000000004C
:1034800007006900000000000000000000000000CC
:10349000000000000000000000000000000000002C
:1034A00008006A00000000000000000000000000AA
:1034B000000000000000000000000000000000000C
:1034C00009006B0000000000000000000000000088
:1034D00000000000000000000000000000000000EC
:1034E0000A006C0000000000000000000000000066
:1034F00000000000000000000000000000000000CC
:103500000B006D0000000000000000000000000043
:1035100000000000000000000000000000000000AB
:103520000C006E0000000000000000000000000021
:10353000000000000000000000000000000000008B
:103540000D00C3B1000000000000000000000000FA
:10355000000000000000000000000000000000006B
:103560000E006F00000000000000000000000000DE
:10357000000000000000000000000000000000004B
:103580000F007000000000000000000000000000BC
:10359000000000000000000000000000000000002B
:1035A000100071000000000000000000000000009A
:1035B000000000000000000000000000000000000B
:1035C0001100720000000000000000000000000078
:1035D00000000000000000000000000000000000EB
:1035E0001200730000000000000000000000000056
:1035F00000000000000000000000000000000000CB
:103600001300740000000000000000000000000033
:1036100000000000000000000000000000000000AA
:103620001400750000000000000000000000000011
:10363000000000000000000000000000000000008A
:1036400015007600000000000000000000000000EF
:10365000000000000000000000000000000000006A
:1036600016007700000000000000000000000000CD
:10367000000000000000000000000000000000004A
:1036800017007800000000000000000000000000AB
:10369000000000000000000000000000000000002A
:1036A0001800790000000000000000000000000089
:1036B000000000000000000000000000000000000A
:1036C00019007A0000000000000000000000000067
:1036D00000000000000000000000000000000000EA
:1036E0001A002A0000000000000000000000000096
:1036F00000000000000000000000000000000000CA
:103700001B0023000000000000000000000000007B
:1037100000000000000000000000000000000000A9
:103720001C00240000000000000000000000000059
:103730000000000000000000000000000000000089
:103740001D0021000000000000000000000000003B
:103750000000000000000000000000000000000069
:103760001E0035009207000000008F05EF041C05C5
:10377000DC054D052B053F05000000002F03EF027F
:10378000BE0200000000DB08EF042A0629060D0A2D
:10379000004269656E76656E69646F00526F62659E
:1037A00072746F32303230303035343400456467F3
:1037B0006172646F323031383031313139004365F4
:1037C000736172323032303130383136004A6F73C3
:1037D0006532303230303138303000416E67656CE0
:1037E000323032303132303339004E6F6D627265B3
:1037F0003A200020202020202020202020202020CF
:10380000202020004D41580053616C692064656C94
:10381000206E6F6D6272650050617373776F7264B2
:103820003A004E6F6D627265206369667261646F03
:103830003A200050617373776F7264206369667217
:1038400061646F3A2000496E646578206F7574205A
:103850006F6620626F756E64730042616E6465729C
:103860006100496E636F72726563740043726564D0
:10387000656E7469616C73004D656E752050726978
:103880006E636970616C00312E204C6F67696E0049
:10389000322E20526567697374726F004F706369CE
:1038A0006F6E3A0031003200454550524F4D205264
:1038B00045534554454400454550524F4D204655CB
:1038C0004C4C004D656E752041444D494E00312EE3
:1038D00020646973706C6179206465006C6F677334
:1038E00000322E20636865636B2064656C00737919
:1038F0007374656D20737461747573003934303678
:0239000039008C
:00000001FF
