:100000000C945A010C948B010C948B010C948B0171
:100010000C948B010C948B010C948B010C948B0130
:100020000C948B010C948B010C948B010C948B0120
:100030000C948B010C948B010C948B010C948B0110
:100040000C948B010C948B010C948B010C948B0100
:100050000C948B010C948B010C948B010C94541711
:100060000C948B010C9428180C94FE170C948B01A3
:100070000C948B010C948B010C948B010C948B01D0
:100080000C948B010C948B010C948B010C948B01C0
:100090000C94C8170C949E170C948B010C948B0134
:1000A0000C948B010C948B010C948B010C948B01A0
:1000B0000C948B010C948B010C948B010C948B0190
:1000C0000C948B010C948B010C948B010C948B0180
:1000D0000C948B010C948B010C948B010C948B0170
:1000E0000C948B010C9414020C94E5200C9465275D
:1000F0000C9479250C9455090C948C050C943002C1
:100100000C94392A0C9436020C94F5010C94E204F8
:100110000C942C020C9428020C94F02A0C942202C9
:100120000C9467020C949A050C9474250C944B2241
:100130000C9498020C942D050C94F1040C941E055B
:100140000C9403020C9410020C9435020C94DC0500
:100150000C943A020C943C260C944E1F0C94FB0118
:100160000C9476060C941F280C941E020C941828EC
:100170000C9429060C9407020C94E51E0C945E184E
:100180000C941A020C940A020C94D8020C94FF01ED
:1001900000002100240027002A002D003000330039
:1001A00001010000040107010A01000022002500EE
:1001B00028002B002E003100340002010000050150
:1001C00008010B01000020002300260029002C005C
:1001D0002F0032000001000003010601090105059E
:1001E0000505070508080808020202020A0A0808AD
:1001F00004040404010101010101010103030303DB
:1002000003030303040707070C0C0C0C0C0C0C0C69
:100210000202020206060606060606060B0B0B0B7A
:100220000B0B0B0B0102102020080810204010209F
:1002300040800201020108040201010204081020AA
:1002400040808040201008040201800402018040A8
:100250002010080402010804020101020408102011
:100260004080010204081020408000000A0B0209AF
:100270000C0D0E0807030401000000000000000040
:10028000000000000000000000000000000000006E
:10029000000000000000121110000000000000002B
:1002A000000000000000000000000000000000004E
:1002B0005E18F02A11241FBECFEFD1E2DEBFCDBF02
:1002C00000E00CBF21E1AAE0BFE001C01D92A7350C
:1002D000B207E1F71FE0A0E0B2E0E4E3FBE500E0F5
:1002E0000BBF02C007900D92AA30B107D9F711E0F9
:1002F000C9E5D1E000E006C021970109802FFE0189
:100300000E94612BC835D10780E00807A9F70E9439
:10031000E3190C94882D0C940000FC01A089B1898C
:1003200082E08C93A485B5851C92A685B7858FEC59
:100330008C93108EA489B58986E08C93A289B389A9
:100340008C9180618C93A289B3898C9188608C9305
:10035000A289B3898C9180688C930288F389E02DFF
:1003600080818F7D8083089596E0899FD00111243C
:10037000A859BF4E90967C936E935F9791E09196AB
:100380009C939197E091D510F091D6109091D41054
:10039000992339F0309751F0811108C08091841071
:1003A0001994309719F05C968C91FACF089581508A
:1003B000823108F05AC0E82FF0E08827ED51FE4F57
:1003C0008F4F0C94612B03020702F501FB01FF0123
:1003D00035020A02100214021A021E022202280228
:1003E0002C023502300236023A02809180008F776B
:1003F000809380000895809180008F7DF9CF809157
:100400008000877FF5CF84B58F7784BD089584B54C
:100410008F7DFBCF8091B0008F778093B0000895DF
:100420008091B0008F7DF9CF809190008F7780937D
:1004300090000895809190008F7DF9CF8091900079
:10044000877FF5CF8091A0008F778093A0000895DB
:100450008091A0008F7DF9CF8091A000877FF5CF9C
:10046000809120018F778093200108958091200151
:100470008F7DF9CF80912001877FF5CFCF93DF93D8
:10048000282F30E0F901E659FD4F8491F901EC5D28
:10049000FD4FD491F901E252FE4FC491CC23A1F05B
:1004A00081110E94D701EC2FF0E0EE0FFF1FEC53FB
:1004B000FE4FA591B491EC91ED2381E090E009F419
:1004C00080E0DF91CF91089580E090E0FACF862F11
:1004D0000C943E021F93CF93DF93282F30E0F90155
:1004E000E659FD4F8491F901EC5DFD4FD491F9017E
:1004F000E252FE4FC491CC23A9F0162F81110E9425
:10050000D701EC2FF0E0EE0FFF1FE655FE4FA5914F
:10051000B4918FB7F894EC91111108C0D095DE23F7
:10052000DC938FBFDF91CF911F910895DE2BF8CF21
:10053000862F642F0C946A02CF93DF9390E0FC0126
:10054000EC5DFD4F249182529E4FFC0184918823E3
:10055000C9F090E0880F991FFC01E057FE4FA5916C
:10056000B491FC01E655FE4FC591D49161110DC0C7
:100570009FB7F8948C91209582238C9388812823AF
:1005800028839FBFDF91CF910895623051F49FB7C8
:10059000F8943C91822F809583238C93E8812E2BB5
:1005A000EFCF8FB7F894EC912E2B2C938FBFEACF1F
:1005B000862F642F0C949C023FB7F89480911F0FF4
:1005C0009091200FA091210FB091220F26B5A89BEA
:1005D00005C02F3F19F00196A11DB11D3FBFBA2FD5
:1005E000A92F982F8827BC01CD01620F711D811D95
:1005F000911D42E0660F771F881F991F4A95D1F71A
:1006000008958F929F92AF92BF92CF92DF92EF9216
:10061000FF924B015C010E94DC026B017C010E9495
:10062000DC026C197D098E099F09683E73408105C3
:100630009105A8F321E0821A9108A108B10888EE7B
:10064000C80E83E0D81EE11CF11C81149104A104A2
:10065000B10429F7FF90EF90DF90CF90BF90AF905B
:100660009F908F9008952FB7F89460911B0F709111
:100670001C0F80911D0F90911E0F2FBF08950F9397
:100680001F93CF93DF93C82FD62F86E0C89FF0012A
:100690001124E859FF4E11A2878D90A18130910558
:1006A000F1F058F082309105F1F1039709F440C060
:1006B000DF91CF911F910F9108956623C9F361E0F7
:1006C00070E08C2F0E94B4010E9433036093C0102D
:1006D0007093C1108093C2109093C310E9CF0E9411
:1006E00033030091C0101091C1102091C2103091BD
:1006F000C310AB01BC01401B510B620B730B80910B
:10070000D2109091D310B0E0A0E084179507A6070F
:10071000B70748F462E070E08C2FDF91CF911F9112
:100720000F910C94B40163E070E0D111C1CFF4CF0C
:1007300070E060E0F1CF6F927F928F929F92AF92C4
:10074000BF92CF92DF92EF92FF920F931F93CF93BE
:10075000DF9381E08093D4100E9433030091C41092
:100760001091C5102091C6103091C710AB01BC018B
:10077000401B510B620B730B8091D0109091D110E4
:10078000B0E0A0E084179507A607B70708F014C1EA
:10079000C0E08091CE10C81760F4E091CA10F091CB
:1007A000CB10EC0FF11D62E080810E949C02CF5FB4
:1007B000F0CF712C812C912C540183948091CF1017
:1007C000781608F05FC0072D10E0E091CC10F09192
:1007D000CD10E00FF11F61E080810E949C02E0914A
:1007E000CC10F091CD10E00FF11F60E080810E94ED
:1007F0006A02D501C401072C04C0880F991FAA1FE3
:10080000BB1F0A94D2F76C017C01E094F094612C38
:100810008091CE106816F8F4C62DD0E0E091CA1091
:10082000F091CB10EC0FFD1F80810E943E022496B8
:10083000CC0FDD1FC859DF4E892B41F48881998187
:100840008C299D29998388836394E2CF888199813B
:100850008E219F21F7CFE091CC10F091CD10E00FC9
:10086000F11F61E080810E946A028091CC1090911A
:10087000CD10080F191F60E0F80180810E949C02D2
:1008800073949CCFC8E6D0E1FE018FEF9FEF278DD8
:1008900030A1232B21F4148E968F858F11A23696CA
:1008A00020E1E43AF20799F7F12C96E0D92E8091F5
:1008B000CE10F81608F050C0E12C0F2D10E0000FFC
:1008C000111F00591F4E2091CF10E21608F042C0B0
:1008D000F801608171810E2C02C0769567950A94AB
:1008E000E2F7F29E900111242E0D311DE8E6F0E1B1
:1008F00080E0458D568D2417350709F461C08F5F60
:1009000036968A30B1F760FF23C0E8E6F0E190E068
:1009100080E0448D411117C0E091C810F091C910DA
:10092000E20FF31F4081D89EF001D99EF00D1124F3
:10093000E859FF4E448F368F258F10A2178E61E045
:100940000E943F0305C0019636968A30910509F74B
:10095000E394B9CFF394ABCF10E089A18111182FA4
:100960002696F0E1C43ADF07C1F70E943303609393
:10097000C4107093C5108093C6109093C7101123B4
:10098000D9F0809189108823B9F0809187109091D7
:100990008810019789F480918410DF91CF911F9185
:1009A0000F91FF90EF90DF90CF90BF90AF909F900E
:1009B0008F907F906F9008951092D41080E0EDCFCB
:1009C0006170BECF0895DB0114964D915C9115972F
:1009D0006D917C91DC01ED91FC910280F381E02D21
:1009E0001994AF92BF92CF92DF92EF92FF920F9342
:1009F0001F93CF93DF936C017B018B01040F151FB5
:100A0000EB015E01AE18BF08C017D10759F069911C
:100A1000D601ED91FC910190F081E02DC601199570
:100A2000892B79F7C501DF91CF911F910F91FF902D
:100A3000EF90DF90CF90BF90AF900895FC01538D61
:100A4000448D252F30E0842F90E0821B930B5417A8
:100A500010F0CF96089501970895FC01918D828D35
:100A6000981761F0A28DAE0FBF2FB11D5D968C91CE
:100A7000928D9F5F9F73928F90E008958FEF9FEF0D
:100A80000895CF92DF92EF92FF920F931F93CF932F
:100A9000DF938C01D0E0C0E00E9433036093360FF7
:100AA0007093370F8093380F9093390F8EE29FE049
:100AB0000E942D0597FF28C00E943303C090360F77
:100AC000D090370FE090380FF090390F6C197D09F6
:100AD0008E099F09C090320FD090330FE090340FF1
:100AE000F090350F6C157D058E059F05F8F2CE014F
:100AF000DF91CF911F910F91FF90EF90DF90CF90FA
:100B00000895C2E0D0E0F3CFF80181938F012197DF
:100B1000C1F3C1E0D0E0C0CFFC01918D828D981768
:100B200031F0828DE80FF11D858D90E008958FEFF3
:100B30009FEF0895FC01918D228D892F90E0805CBC
:100B40009F4F821B91098F73992708958EE29FE032
:100B50000E949A0521E0892B09F420E0822F089554
:100B60008BEC9FE00E949A0521E0892B09F420E09C
:100B7000822F0895FC01A48DA80FB92FB11DA35A8F
:100B8000BF4F2C91848D90E001968F739927848FAD
:100B9000A689B7892C93A089B1898C9183708064D0
:100BA0008C93938D848D981306C00288F389E02D71
:100BB00080818F7D80830895EF92FF920F931F9322
:100BC000CF93DF93EC0181E0888F9B8D8C8D981300
:100BD0001AC0E889F989808185FF15C09FB7F8940C
:100BE000EE89FF896083E889F98980818370806458
:100BF00080839FBF81E090E0DF91CF911F910F91A3
:100C0000FF90EF900895F62E0B8D10E00F5F1F4FB1
:100C10000F731127E02E8C8D8E110CC00FB607FCC0
:100C2000FACFE889F989808185FFF5CFCE010E944E
:100C3000BA05F1CFEB8DEC0FFD2FF11DE35AFF4FFD
:100C4000F0829FB7F8940B8FEA89FB8980818062DC
:100C5000CFCFCF93DF93EC01888D8823B9F0AA8999
:100C6000BB89E889F9898C9185FD03C0808186FD67
:100C70000DC00FB607FCF7CF8C9185FFF2CF8081B6
:100C800085FFEDCFCE010E94BA05E9CFDF91CF916C
:100C9000089580E090E0892B29F00E94B005811131
:100CA0000E94000080E090E0892B29F00E94A605B8
:100CB00081110E94000080E090E0892B49F080E0E3
:100CC00090E0892B29F00E94000081110E94000011
:100CD00080E090E0892B49F080E090E0892B29F0BA
:100CE0000E94000081110C940000089590E080E0C3
:100CF0000895CF92DF92EF92FF92CF93DF930E94FD
:100D00003303EB010E9433030E9433036B018EE235
:100D10009FE00E949A05892B29F08EE29FE00E94B5
:100D20002D05F5CFCC1ADD0A88EEC81683E0D8066B
:100D30005CF38EE29FE00E949A05892B29F7DF91F0
:100D4000CF91FF90EF90DF90CF900895CF93DF93F6
:100D5000EC018A8181110AC088810E943E020197BC
:100D600029F481E08A83DF91CF9108958A818111EE
:100D700002C080E0F8CF88810E943E02892BC9F72B
:100D80001A82F7CF4F925F926F927F928F929F92CB
:100D9000AF92BF92CF92DF92EF92FF920F931F9389
:100DA000CF93DF931F921F92CDB7DEB78C0149839B
:100DB0002A83660F771FF801EA5AFF4FE080F1801F
:100DC000EE0CFF1CF801CF01801B910B8E159F05C7
:100DD00014F41192F8CF8981F801E60FF71F81838F
:100DE0008A818083680184E5C80ED11C60E0F60129
:100DF00080810E946A025801F2E5AF0EB11C4801E1
:100E000080E5880E911C1E141F040CF5E1E0EE1A1B
:100E1000F108F801EE0DFF1D6080F5015080F4012E
:100E2000408088E0782E662D661F6627661F842D19
:100E30000E946A02660C61E0852D0E946A0260E0F1
:100E4000852D0E946A027A947110EDCFDCCF61E0AB
:100E5000F60180810F900F90DF91CF911F910F913C
:100E6000FF90EF90DF90CF90BF90AF909F908F90CA
:100E70007F906F905F904F900C946A02EF92FF9278
:100E80000F931F93CF937C018C0183E0000F111F00
:100E90008A95E1F70D501F4EC1E0F80111928F01C4
:100EA00020E04C2FB70183EE90E10E94C206CF5F95
:100EB000C93099F7CF911F910F91FF90EF9008954E
:100EC0009F92AF92BF92CF92DF92EF92FF920F93D9
:100ED0001F93CF93DF93CDB7DEB7C054D1090FB6C0
:100EE000F894DEBF0FBECDBFC955DF4F28813981D1
:100EF000C75AD040FE01319680E4DF011D928A95E9
:100F0000E9F749E1429FC001439F900D1124875E9C
:100F10009D4F8F01BE01675D7F4FAF0130E020E044
:100F2000FA01E20FF31FDC01A20FB31FAC91A18BFA
:100F30002F5F3F4F2530310599F70596485F5F4F8A
:100F40004617570759F7FE01E15BFF4F7F019924D0
:100F5000939480E8A82EB12CD12CC12CCB55DF4F17
:100F600088819981C55AD04018161906FCF4C5012C
:100F70000C2C02C0959587950A94E2F7D7015096FC
:100F80002C915097F801EC0DFD1D3081332389F130
:100F9000822B50968C93D70150962C91492D70E05E
:100FA00060E0CE01815B9F4F0E94C206BFEFCB1A6B
:100FB000DB0AE8E0CE16D10489F6FFEFEF1AFF0A4C
:100FC0009394085F1F4F89E09812C6CFC05CDF4F33
:100FD0000FB6F894DEBF0FBECDBFDF91CF911F914A
:100FE0000F91FF90EF90DF90CF90BF90AF909F90C8
:100FF000089580958223F701808BCDCFCF93DF9327
:10100000EC0160E08E810E946A0261E08E810E94A4
:101010006A0260E08E810E946A028BE891E001978B
:10102000F1F7DF91CF910895CF92DF92EF92FF9287
:101030000F931F93CF93DF936C017C0187E0E80E41
:10104000F11CD0E0C0E0062F10E0B8010C2E02C069
:10105000759567950A94E2F76170F70181917F01B8
:101060000E946A022196C430D10579F7C601DF914A
:10107000CF911F910F91FF90EF90DF90CF900C9444
:10108000FE07CF92DF92EF92FF920F931F93CF93C1
:10109000DF93EC01F62E642F8C810E946A028D8111
:1010A0008F3F19F060E00E946A020F2D10E08F85DB
:1010B00084FF25C06E0187E0C80ED11CF12CE12C05
:1010C000B8010E2C02C0759567950A94E2F761701D
:1010D000F60181916F010E946A02FFEFEF1AFF0A89
:1010E00088E0E816F10461F7CE01DF91CF911F91FE
:1010F0000F91FF90EF90DF90CF900C94FE07B80116
:1011000084E0759567958A95E1F7CE010E941408F1
:101110006F2DCE01DF91CF911F910F91FF90EF9036
:10112000DF90CF900C94140840E0682F8BE391E19E
:101130000C94410881E00E9494088BE39FE10197A1
:10114000F1F70895CF93DF93813029F090914A1100
:10115000986090934A1180934E1110924F1180E441
:101160008093501180E18093511180E5809352115A
:1011700061E080913F110E949C02809140118F3F5D
:1011800019F061E00E949C0261E0809141110E948F
:101190009C02CBE3D1E19E012B53314180914A1156
:1011A00084FD0BC084E090E021962817390744F4B1
:1011B00061E08E810E949C02EECF88E090E0F4CF47
:1011C0008BE39DE00197F1F760E080913F110E9471
:1011D0006A0260E0809141110E946A028091401190
:1011E0008F3F19F060E00E946A0280914A1184FDED
:1011F00034C063E08BE391E10E941408CBE4D6E4B1
:10120000CE010197F1F763E08BE391E10E941408AE
:101210002197F1F763E08BE391E10E94140883E5E5
:1012200092E00197F1F762E08BE391E10E941408EC
:1012300080914A1180620E94940884E080934B114F
:101240008CE00E9494080E949A0882E080934C11DE
:1012500086E0DF91CF910C94940880620E949408FC
:101260008BE496E40197F1F780914A1180620E9425
:10127000940883E592E00197F1F780914A1180622A
:101280000E949408D5CF643008F063E090914E112D
:10129000691710F06FEF690FE62FF0E0E55CFE4E86
:1012A0009489890F80680C94940841E00E94410859
:1012B00081E090E00895FB0101900020E9F731976B
:1012C000AF01461B570BDC01ED91FC910280F381CD
:1012D000E02D1994CF93DF93BC018BEC9FE00E942B
:1012E000E304EC016EE279E08BEC9FE00E945B0985
:1012F0008C0F9D1FDF91CF9108958F929F92AF9297
:10130000BF92EF92FF920F931F93CF93DF93CDB7CE
:10131000DEB7A1970FB6F894DEBF0FBECDBF7C013C
:10132000FA01CB0119A2223008F42AE08E010F5DE8
:101330001F4F822E912CB12CA12CBF01A50194012D
:101340000E943F2BF901CA016A300CF5605DD8019B
:101350006E938D01232B242B252B79F790E080E0D1
:10136000109721F0BD01C7010E945B09A1960FB63D
:10137000F894DEBF0FBECDBFDF91CF911F910F91CB
:10138000FF90EF90BF90AF909F908F900895695C11
:10139000DECFCF92DF92EF92FF920F931F93CF9306
:1013A000DF93EC016A017B01E881F9810190F08112
:1013B000E02D6DE219958C0144275527BA014C198F
:1013C0005D096E097F092AE0CE010E947D09800F28
:1013D000911FDF91CF911F910F91FF90EF90DF90C0
:1013E000CF900895CF93DF93AC01990F660B770BE5
:1013F00077FF10C08BEC9FE00E94C909EC016EE200
:1014000079E08BEC9FE00E945B098C0F9D1FDF91C0
:10141000CF9108952AE08BEC9FE00E947D09EECFEA
:10142000AB01770F660B770B77FD0C94C9092AE0A7
:101430000C947D090F931F93CF93DF93EC010E94CF
:101440005B098C016EE279E0CE010E945B09800F9E
:10145000911FDF91CF911F910F9108950C945B091B
:10146000CF93DF93FC0101900020E9F73197E81B4F
:10147000F90BDC0138E0AD01481B590B4E175F0733
:1014800034F42D91ED01219723272883F4CFDF91A8
:10149000CF9108950F931F93CF93DF938C01EB01AE
:1014A000FC01808191810097E1F06881798161156B
:1014B0007105A9F0428153812C813D814217530768
:1014C00070F00E94812D8C819D81F8019583848329
:1014D0001D821C82DF91CF911F910F9108950E9470
:1014E000052C88819981F801918380838A819B8171
:1014F000938382838C819D81958384831982188252
:101500001B821A82E5CFFC0180819181009711F046
:101510000C94052C0895DC0114968D919C911597DF
:101520006817790750F4ED91FC911197E60FF71FBA
:1015300015967C936E93149710820895FC01248174
:101540003581232B39F421E0FB018081882349F088
:1015500020E007C0808191810E94782D21E0892BB5
:10156000B9F7822F08950F931F93CF93DF93EC0168
:1015700088819981009759F02A813B812617370786
:1015800030F081E0DF91CF911F910F9108958B0191
:101590006F5F7F4F0E948E2C009759F0998388834C
:1015A0001B830A832C813D81232B59F7FC01108278
:1015B000E8CF80E0E7CFEF92FF920F931F93CF9396
:1015C000DF93FB0101900020E9F73197E61BF70B51
:1015D000E1F07B018C01DC011496CD91DC91CE0F02
:1015E000DF1FBE010E94B30A882381F0F801208129
:1015F000318184819581B701820F931F0E94812DD3
:10160000D8011596DC93CE93149781E0DF91CF91AA
:101610001F910F91FF90EF900895EF92FF920F931B
:101620001F93CF93DF931F921F92CDB7DEB78C012C
:1016300069831A82FC01E480F580FFEFEF1AFF0A4C
:10164000B7010E94B30A882381F0F801208131811B
:1016500084819581BE016F5F7F4F820F931F0E942F
:10166000812DF801F582E48281E00F900F90DF91E7
:10167000CF911F910F91FF90EF900895EF92FF92FD
:101680000F931F93CF93DF93EC017B018A01BA0183
:101690000E94B30A28813981811114C021153105B6
:1016A00019F0C9010E94052C198218821D821C8222
:1016B0001B821A82CE01DF91CF911F910F91FF9073
:1016C000EF9008951D830C83B701C9010E94812DFD
:1016D000F1CFFB01DC0111961C921E9213961C9215
:1016E0001E92129715961C921E92149786179707B2
:1016F00049F0608171816115710521F04481558146
:101700000C943E0B0895FC01118210821382128208
:1017100015821482FB0101900020E9F73197AF0197
:10172000461B570B0C943E0B7F928F929F92AF9269
:10173000BF92CF92DF92EF92FF920F931F93CF93BE
:10174000DF9300D0CDB7DEB77C016B0161E379E0B8
:101750008BEC9FE00E941A0A0E947906B6018EE285
:101760009FE00E941A0A712C8EE29FE00E949A0567
:10177000892B39F0CE0101960E944105772473949C
:10178000F3CF772089F38EE29FE00E949A058C01C7
:10179000892B51F7E3E2FFE08BE0DF011D928A9590
:1017A000E9F70E949A0865E479E08BE391E10E94F1
:1017B0002E0A61E080E00E9443096BE479E08BE34C
:1017C00091E10E942E0AB6018BE391E10E942E0A5C
:1017D00060E97CE08BE391E10E942E0A60E379E00E
:1017E0008BE391E10E941A0A62E080E00E944309C3
:1017F0000E9433034B015C010E9433030E9479066F
:10180000D12C8EE29FE00E949A05892BD9F08EE2BE
:101810009FE00E942D056801BFEFCB1ADB0AF8019B
:10182000ED5DF04F808363E27FE08BEC9FE00E94F0
:101830001A0A6FE479E08BEC9FE00E941A0A860195
:10184000D72CDFCFD11007C00E9433034B015C01BE
:101850000E943303D6CF0E943303681979098A099D
:101860009B09643F7140810591055CF261E379E079
:101870008BEC9FE00E941A0A67E679E08BEC9FE010
:101880000E942E0A63E27FE0C7010E94830BC7011A
:101890000F900F900F90DF91CF911F910F91FF90BC
:1018A000EF90DF90CF90BF90AF909F908F907F9000
:1018B00008950F931F93CF93DF938C01EB010E9448
:1018C000292B8883C80101960E94292B8983CE0188
:1018D000DF91CF911F910F910895CF93DF931F92C6
:1018E0001F92CDB7DEB7BE016F5F7F4F8DE990E0ED
:1018F0000E94590C89819A810F900F90DF91CF91AE
:101900000895CF93DF931F921F92CDB7DEB7BE012C
:101910006F5F7F4F8DE597E00E94590C89819A8116
:101920000F900F90DF91CF910895AF92BF92CF9219
:10193000DF92EF92FF920F931F93CF93DF931F924B
:101940001F92CDB7DEB78C016B0177FF19C06CE732
:1019500079E08BEC9FE00E941A0A83E1F801119272
:101960008A95E9F7C8010F900F90DF91CF911F91F1
:101970000F91FF90EF90DF90CF90BF90AF900895C0
:10198000BE016F5F7F4F90E080E00E94590C89811B
:101990009A81C816D906DCF683E18C9D70018D9D75
:1019A000F00C11245801F3E1AF0EB11C6801E01AEC
:1019B000F10AC70104967C01C7018C0D9D1D0E9490
:1019C000292BF60181936F01EA15FB05A9F7CACF10
:1019D000CF92DF92EF92FF920F931F93CF93DF93FB
:1019E000EC017B010E946D0CE816F906ACF06CE787
:1019F00079E08BEC9FE00E941A0A83E2FE011192CB
:101A00008A95E9F7CE01DF91CF911F910F91FF9059
:101A1000EF90DF90CF90089583E28E9D80018F9D9F
:101A2000100D11247E01F3E2EF0EF11C6E010C1B70
:101A30001D0B0F551F4FC8018C0D9D1D0E94292B9A
:101A4000F60181936F01EE16FF06A9F7DBCF8F92A7
:101A50009F92AF92BF92DF92EF92FF920F931F93EC
:101A6000CF93DF93CDB7DEB7AF970FB6F894DEBF55
:101A70000FBECDBF7C015B014A0110E000E00E9477
:101A80006D0C081719070CF04AC0B801CE01019679
:101A90000E94E80CB401CE018A960E94690BB50140
:101AA000CE0184960E94690B6CA17DA1CE010196A6
:101AB0000E94782D892B51F46AA57BA5CE0145960D
:101AC0000E94782DDD24D394892B09F0D12CCE01EE
:101AD00084960E94830ACE018A960E94830ADD20A2
:101AE000D9F083E2FE013196D70101900D928A95DB
:101AF000E1F7C701AF960FB6F894DEBF0FBECDBFBA
:101B0000DF91CF911F910F91FF90EF90DF90BF90E9
:101B1000AF909F908F9008950F5F1F4FB0CF83E2DB
:101B2000F70111928A95E9F7E4CFCF92DF92EF9215
:101B3000FF920F931F93CF93DF93EC017B0177FF0D
:101B400015C06CE779E08BEC9FE00E941A0A81E1F6
:101B5000FE0111928A95E9F7CE01DF91CF911F9195
:101B60000F91FF90EF90DF90CF9008950E94810C2D
:101B7000E816F90634F781E18E9D80018F9D100DE6
:101B800011247E01F1E1EF0EF11C6E010C1B1D0B07
:101B90000F59184FC8018C0D9D1D0E94292BF6016D
:101BA00081936F01EE15FF05A9F7D6CF0F931F9311
:101BB000CF93DF93CDB7DEB761970FB6F894DEBF52
:101BC0000FBECDBF10E000E00E94810C081719077E
:101BD0004CF5B801CE0101960E94950D60E979E0BF
:101BE0008BEC9FE00E942E0A89819A810E94F20963
:101BF00067E979E08BEC9FE00E942E0A8B8190E0F0
:101C00000E94F20960EA79E08BEC9FE00E942E0AC4
:101C1000BE016C5F7F4F8BEC9FE00E941A0A0F5F42
:101C20001F4FD2CF61960FB6F894DEBF0FBECDBF67
:101C3000DF91CF911F910F910895FF920F931F9302
:101C4000CF93DF93EC01F62E08811981C8010E9421
:101C5000292BF81621F06F2DC8010E94312BCE01DF
:101C6000DF91CF911F910F91FF900895EF92FF9216
:101C70000F931F93CF93DF931F921F92CDB7DEB7C1
:101C80008C017B019A838983FB016081CE010196DF
:101C90000E941D0E0F5F1F4F1A830983F701618198
:101CA000CE0101960E941D0EC7010F900F90DF918B
:101CB000CF911F910F91FF90EF900895AF92BF9237
:101CC000CF92DF92EF92FF920F931F93CF93DF9308
:101CD0001F921F92CDB7DEB78B016B0121E1C20EBF
:101CE000D11C7B015C01A61AB70AC5018E0D9F1D90
:101CF0009A838983F70161917F01CE0101960E9449
:101D00001D0EEC14FD0489F7C8010F900F90DF91B0
:101D1000CF911F910F91FF90EF90DF90CF90BF90E8
:101D2000AF9008958F929F92BF92CF92DF92EF92E1
:101D3000FF920F931F93CF93DF93CDB7DEB76197D9
:101D40000FB6F894DEBF0FBECDBF6C01B62E4A01B0
:101D50000E94810C7C0110E000E00E151F0574F557
:101D6000B801CE0101960E94950D89819A818C154A
:101D70009D0509F5BB82F40160817181CE01049655
:101D80000E94812DBE016F5F7F4F888999890E94D3
:101D90005E0E61960FB6F894DEBF0FBECDBFDF9129
:101DA000CF911F910F91FF90EF90DF90CF90BF9058
:101DB0009F908F9008950F5F1F4FCFCF6FEA79E00C
:101DC0008BEC9FE00E941A0AE4CF8F929F92AF9211
:101DD000BF92CF92DF92EF92FF920F931F93CF9318
:101DE000DF93CDB7DEB7C654D1090FB6F894DEBF86
:101DF0000FBECDBF8EAA9FAAA8AEB9AECAAEDBAE4B
:101E0000ECAEFDAE0EAF1FAF21962FAF21972296FD
:101E10003FAF229723964FAF239724965FAF249727
:101E200025966FAF259726967FAF269727968FAF7B
:101E30002797EDB6FEB6182D0E949A0862E080E062
:101E40000E9443096BEC79E08BE391E10E942E0A3A
:101E500060E379E0CE01C0960E94830B3EE1C32E81
:101E6000D12C8091150F882309F458C08091140F4C
:101E7000811154C08091120F9091130FFC0125E045
:101E8000EE0FFF1F2A95E1F7EA5DFA4F20E2DE012F
:101E9000119601900D922A95E1F79F938F932DB79C
:101EA0003EB7285531090FB6F8943EBF0FBE2DBF7F
:101EB000ADB7BEB7119688E5E3EEF0E101900D9263
:101EC0008A95E1F70E9460078DB79EB7865A9F4FAB
:101ED0000FB6F8949EBF0FBE8DBF0E949B03682F64
:101EE0008823E1F08A330CF0C3C081330CF0E9C0E1
:101EF000833209F4D1C0803309F4DBC08CA99DA9D9
:101F000063E0089708F0E2C080E00E944309BE0148
:101F1000605D7F4F8BE391E10E94E3048AED90E1E5
:101F20000E94A606882309F4F6C0CE01C0960E943E
:101F30006A0968A979A9FB0101900020E9F7CF019E
:101F4000CDB6DEB6861B970B2DB73EB7281B390BD7
:101F50000FB6F8943EBF0FBE2DBF8DB79EB701964A
:101F60005C010E94812DC5010E94300AB501CE019D
:101F70008A960E94830B6DED70E1CE0184960E94DB
:101F8000690BAE01465D5F4FBE016C5D7F4FCE01B8
:101F900001960E94270DCE0184960E94830ACE01ED
:101FA0008A960E94830A8981882309F4DDC060E350
:101FB00079E0CE0184960E94830BAE014C5D5F4FA9
:101FC00060E0812F992D0E94920ECE0184960E948E
:101FD000830A0E94D60D145D61E0812F0E949C024D
:101FE00061E0812F0E946A0268EE73E080E090E079
:101FF0000E94010360E0812F0E946A020E949A08F9
:1020000060E080E00E9443096BEE79E08BE391E1B0
:102010000E942E0A60ED77E080E090E00E940103CC
:1020200085E090E09093190F8093180F0FB6F89405
:10203000DEBE0FBECDBECE01C0960E94830A0FB693
:10204000F894FEBE0FBEEDBECA5BDF4F0FB6F8942C
:10205000DEBF0FBECDBFDF91CF911F910F91FF90DB
:10206000EF90DF90CF90BF90AF909F908F900895AA
:10207000883509F043CF8091120F9091130F01978B
:1020800097FD05C09093130F8093120F37CFD09216
:10209000130FC092120F32CF8091120F9091130F35
:1020A00001968F31910570F31092130F1092120F59
:1020B00025CFBE016F5F7F4FCE01C0960E94DB0A25
:1020C0001DCFCE01C0960E940D0B18CF80E00E945C
:1020D000430966ED79E08BE391E10E942E0A63E00B
:1020E00080E00E94430967EE79E08BE391E10E9472
:1020F0002E0A68EE73E080E090E00E94010363E046
:1021000080E00E94430966ED79E08BE391E10E9453
:102110002E0A63E0F9CE87ED90E10E94A60688239F
:1021200009F49FCE6CA97DA96115710509F499CEBA
:1021300061507109CE01C0960E948B0A61E083E074
:102140000E94430966ED79E08BE391E10E942E0A3B
:1021500061E083E00E944309BE01605D7F4F8BE335
:1021600091E10E94E3047DCE8091100F9091110FB8
:1021700001969093110F8093100F0297FCF46AEF71
:1021800079E08BEC9FE00E941A0A0E949A0860E0B6
:1021900080E00E9443096FE27AE08BE391E10E94C4
:1021A0002E0A61E080E00E94430969E37AE08BE354
:1021B00091E10E942E0A8AE090E034CF65E47AE053
:1021C0008BEC9FE00E941A0A0E949A0860E080E06F
:1021D0000E9443096FE27AE08BE391E10E942E0AAC
:1021E00061E080E00E94430969E37AE08BE391E1DA
:1021F0000E942E0A60E177E280E090E00E940103F5
:1022000067E87AE08BEC9FE00E941A0A1092110FA7
:102210001092100F81E090E005CF8F929F92AF92C5
:10222000BF92CF92DF92EF92FF920F931F93CF93C3
:10223000DF93CDB7DEB765970FB6F894DEBF0FBE5C
:10224000CDBF8D829E82AF82B886C986DA86EB8644
:10225000FC860D871E872F87388B498B5A8B6B8B9B
:102260007C8B8D8B0E94810C89309105CCF064EBC6
:102270007AE08BEC9FE00E941A0A65960FB6F894FC
:10228000DEBF0FBECDBFDF91CF911F910F91FF90A9
:10229000EF90DF90CF90BF90AF909F908F90089578
:1022A00001969A838983BE016F5F7F4F8DE597E02A
:1022B0000E94360EBE016D5F7F4F8FE597E00E9452
:1022C000590C8B819C819D8B8C8BBE016D5F7F4FE8
:1022D0008FE597E00E94590CBE016B5F7F4F8B81A9
:1022E0009C810E945E0E8C899D8941969C838B8384
:1022F000BE016D5F7F4F8FE597E00E94360EBDCF28
:10230000AF92BF92CF92DF92EF92FF920F931F9303
:10231000CF93DF9300D01F92CDB7DEB7BE016F5FC2
:102320007F4F90E080E00E94590C89819A8183362A
:102330009105ACF065ED7AE08BEC9FE00E941A0A03
:102340000F900F900F900F90DF91CF911F910F91F1
:10235000FF90EF90DF90CF90BF90AF9008950196DF
:102360009A838983BE016F5F7F4F90E080E00E9477
:10237000360EBE016D5F7F4F82E090E00E94590CE7
:102380000B811C811CA30BA3BE016D5F7F4F82E0FC
:1023900090E00E94590CCB80DC805E0185E2A80EA3
:1023A000B11CFE0172967F01CE1ADF0AC6018E0DA6
:1023B0009F1D9C838B83F70161917F01CE01039662
:1023C0000E941D0EEA14FB0489F70D5E1F4F1C834B
:1023D0000B83BE016D5F7F4F82E090E00E94360E5E
:1023E000AFCFAF92BF92CF92DF92EF92FF920F9357
:1023F0001F93CF93DF9300D01F92CDB7DEB70E941B
:102400006D0C8F3F2FE09207ACF065ED7AE08BEC1E
:102410009FE00E941A0A0F900F900F900F90DF918B
:10242000CF911F910F91FF90EF90DF90CF90BF90D1
:10243000AF90089501969A838983BE016F5F7F4FA5
:102440008DE990E00E94360EBE016D5F7F4F8FE9EF
:1024500090E00E94590C0B811C811BAB0AABBE01A2
:102460006D5F7F4F8FE990E00E94590CCB80DC803C
:102470005E0185E3A80EB11CFE0172967F01CE1AA3
:10248000DF0AC6018E0D9F1D9C838B83F70161912E
:102490007F01CE0103960E941D0EEA14FB0489F70A
:1024A0000D5D1F4F1C830B83BE016D5F7F4F8FE956
:1024B00090E00E94360EAFCF2F923F924F925F92E4
:1024C0006F927F929F92AF92BF92CF92DF92EF92E4
:1024D000FF920F931F93CF93DF93CDB7DEB7C05614
:1024E000D1090FB6F894DEBF0FBECDBF2DB73EB7F2
:1024F000A1963FAF2EAFA1970E949A0860E080E0BE
:102500000E94430961EE7AE08BE391E10E942E0A7A
:1025100061E080E00E9443096EEE7AE08BE391E196
:102520000E942E0A60E379E0CE018D5A9F4F0E94EF
:10253000830B0EE110E08091120F9091130FFC01BC
:1025400045E0EE0FFF1F4A95E1F7EA5DFA4F20E202
:10255000DE01119601900D922A95E1F79F938F93DA
:102560008DB79EB7885591090FB6F8949EBF0FBEE0
:102570008DBFADB7BEB7119688E5E3EEF0E10190EF
:102580000D928A95E1F70E946007EDB7FEB7E65A13
:10259000FF4F0FB6F894FEBF0FBEEDBF0E949B0326
:1025A0008823F1F08A330CF0A1C281330CF0C8C249
:1025B000833209F4AFC2803309F4B9C269968EAD93
:1025C0009FAD699762E00D9708F0C1C280E00E945C
:1025D0004309BE016D5A7F4F8BE391E10E94E304F2
:1025E0008AED90E10E94A606882309F4D5C2CE01A7
:1025F0008D5A9F4F0E946A090E949A0860E080E00D
:102600000E94430961EE7AE08BE391E10E942E0A79
:1026100061E080E00E94430967EF7AE08BE391E19B
:102620000E942E0A60E379E0CE01875A9F4F0E94F4
:10263000830B0EE110E08091120F9091130FFC01BB
:1026400035E0EE0FFF1F3A95E1F7EA5DFA4F20E221
:10265000DE01119601900D922A95E1F79F938F93D9
:102660002DB73EB7285531090FB6F8943EBF0FBEBF
:102670002DBFADB7BEB7119688E5E3EEF0E101904E
:102680000D928A95E1F70E9460078DB79EB7865A32
:102690009F4F0FB6F8949EBF0FBE8DBF0E949B0345
:1026A0008823F1F08A330CF0A3C281330CF0CAC244
:1026B000833209F4B1C2803309F4BBC26F968EAD88
:1026C0009FAD6F9762E0099708F0C3C280E00E9457
:1026D0004309BE01675A7F4F8BE391E10E94E304F7
:1026E0008AED90E10E94A606882309F4D7C2CE01A4
:1026F000875A9F4F0E946A090E949A0860E080E012
:102700000E94430961EE7AE08BE391E10E942E0A78
:1027100061E080E00E94430961E07BE08BE391E1AE
:102720000E942E0A60E379E0CE01895B9F4F0E94F0
:10273000830B0EE110E08091120F9091130FFC01BA
:1027400025E0EE0FFF1F2A95E1F7EA5DFA4F20E240
:10275000DE01119601900D922A95E1F79F938F93D8
:10276000EDB7FEB7E855F1090FB6F894FEBF0FBEFE
:10277000EDBFADB7BEB7119688E5E3EEF0E101908D
:102780000D928A95E1F70E9460072DB73EB7265A51
:102790003F4F0FB6F8943EBF0FBE2DBF0E949B0364
:1027A0008823F1F08A330CF0A5C281330CF0CCC23F
:1027B000833209F4B3C2803309F4BDC22D968EADC5
:1027C0009FAD2D9762E00D9708F0C5C280E00E9492
:1027D0004309BE01695B7F4F8BE391E10E94E304F3
:1027E0008AED90E10E94A606982E882309F4DEC2A5
:1027F000CE01895B9F4F0E946A090E949A082E01B0
:1028000034E2430E511C83E2F20111928A95E9F7FA
:1028100065966EAD7FAD6597FB0101900020E9F7ED
:10282000CF012DB63EB6861B970B2DB73EB7281BA2
:10283000390B0FB6F8943EBF0FBE2DBF0DB71EB7B4
:102840000F5F1F4FC8010E94812DC8010E94300AEE
:102850006B966EAD7FAD6B97FB0101900020E9F7A1
:10286000CF01861B970B2DB73EB7281B390B0FB630
:10287000F8943EBF0FBE2DBF8DB79EB701966C0179
:102880000E94812DC6010E94300A29966EAD7FAD4F
:102890002997FB0101900020E9F7CF01861B970BD8
:1028A0002DB73EB7281B390B0FB6F8943EBF0FBEAD
:1028B0002DBF8DB79EB701967C010E94812DC70167
:1028C0000E94300AB801C2010E94812DB601CE01DA
:1028D000C0960E94812DB701CE01C8960E94812D1D
:1028E0003E019DE4690E711CB801C3010E94830B77
:1028F000B12CA12C0E946D0CA816B9060CF054C284
:10290000B501CE0101960E94E80C2F966EAD7FAD09
:102910002F97CE0101960E94782D892B09F040C295
:10292000B92CC3010E94830ABB20E1F00E949A08DF
:1029300060E080E00E9443096FE07BE08BE391E17F
:102940000E942E0A61E080E00E9443096DE17BE075
:102950008BE391E10E942E0A60ED77E080E090E049
:102960000E940103F80101900020E9F7CF01801BCC
:10297000910B0997059738F10E949A0860E080E072
:102980000E94430967E27BE08BE391E10E942E0AFB
:1029900061E080E00E94430961E37BE08BE391E129
:1029A0000E942E0A62E080E00E94430967E47BE017
:1029B0008BE391E10E942E0A60ED77E080E090E0E9
:1029C0000E940103B92CF60101900020E9F7CF0124
:1029D00009978C159D05E9F00E949A0860E080E057
:1029E0000E9443096AE57BE08BE391E10E942E0A95
:1029F00061E080E00E94430966E37BE08BE391E1C4
:102A00000E942E0A60ED77E080E090E00E940103D2
:102A1000B92CF70101900020E9F7CF018E199F0929
:102A20000997059708F4EEC10E949A0860E080E0DB
:102A30000E94430969E67BE08BE391E10E942E0A44
:102A400061E080E00E94430961E37BE08BE391E178
:102A50000E942E0A62E080E00E94430967E47BE066
:102A60008BE391E10E942E0A60ED77E080E090E038
:102A70000E94010381E090E09093190F8093180F5A
:102A80000FB6F8943EBE0FBE2DBECE01895B9F4FA0
:102A90000E94830ACE01875A9F4F0E94830ACE016B
:102AA0008D5A9F4F0E94830AA196EEADFFADA1976C
:102AB0000FB6F894FEBF0FBEEDBFC05ADF4F0FB682
:102AC000F894DEBF0FBECDBFDF91CF911F910F9164
:102AD000FF90EF90DF90CF90BF90AF909F907F904E
:102AE0006F905F904F903F902F900895883509F038
:102AF00065CD8091120F9091130F019797FD05C03E
:102B00009093130F8093120F59CD1093130F0093CE
:102B1000120F54CD8091120F9091130F01968F31A7
:102B2000910570F31092130F1092120F47CDBE0152
:102B30006F5F7F4FCE018D5A9F4F0E94DB0A3ECDC3
:102B4000682FCE018D5A9F4F0E940D0B37CD80E02C
:102B50000E9443096DED79E08BE391E10E942E0A1A
:102B600062E080E00E94430967EE79E08BE391E147
:102B70000E942E0A68EE73E080E090E00E9401035C
:102B800062E080E00E9443096DED79E08BE391E122
:102B90000E942E0A62E01ACD87ED90E10E94A606FF
:102BA000882309F4C8CC69966EAD7FAD699761152D
:102BB000710509F4C0CC61507109CE018D5A9F4F47
:102BC0000E948B0A62E080E00E94430966ED79E092
:102BD0008BE391E10E942E0A62E080E00E944309AB
:102BE000BE016D5A7F4F8BE391E10E94E304A3CCB9
:102BF000883509F063CD8091120F9091130F0197E2
:102C000097FD05C09093130F8093120F57CD10932B
:102C1000130F0093120F52CD8091120F9091130F4A
:102C200001968F31910570F31092130F1092120FCD
:102C300045CDBE016F5F7F4FCE01875A9F4F0E94E7
:102C4000DB0A3CCD682FCE01875A9F4F0E940D0BA7
:102C500035CD80E00E9443096DED79E08BE391E191
:102C60000E942E0A62E080E00E94430967EE79E04C
:102C70008BE391E10E942E0A68EE73E080E090E021
:102C80000E94010362E080E00E9443096DED79E05B
:102C90008BE391E10E942E0A62E018CD87ED90E16E
:102CA0000E94A606882309F4C6CC6F966EAD7FAD50
:102CB0006F976115710509F4BECC61507109CE01A1
:102CC000875A9F4F0E948B0A62E080E00E9443096E
:102CD00066ED79E08BE391E10E942E0A62E080E0EC
:102CE0000E944309BE01675A7F4F8BE391E10E9426
:102CF000E304A1CC883509F061CD8091120F909149
:102D0000130F019797FD05C09093130F8093120F37
:102D100055CD1093130F0093120F50CD8091120FC9
:102D20009091130F01968F31910570F31092130F4C
:102D30001092120F43CDBE016F5F7F4FCE01895BB2
:102D40009F4F0E94DB0A3ACD682FCE01895B9F4FCF
:102D50000E940D0B33CD80E00E9443096DED79E0B8
:102D60008BE391E10E942E0A62E080E00E94430919
:102D700067EE79E08BE391E10E942E0A68EE73E042
:102D800080E090E00E94010362E080E00E9443093D
:102D90006DED79E08BE391E10E942E0A62E016CDA1
:102DA000EFEFAE1ABE0AA6CDB12CBBCD87ED90E1F8
:102DB0000E94A606882309F4BECC2D966EAD7FAD89
:102DC0002D976115710509F4B6CC61507109CE01DA
:102DD000895B9F4F0E948B0A62E080E00E9443095A
:102DE00066ED79E08BE391E10E942E0A62E080E0DB
:102DF0000E944309BE01695B7F4F8BE391E10E9412
:102E0000E30499CCB11036CE27961FAE2797B801B0
:102E1000C2010E94812DB601CE01C0960E94812D73
:102E2000B701CE01C8960E94812D68E77BE08BEC4C
:102E30009FE00E942E0A0E949A0861E080E00E94B2
:102E400043096DE87BE08BE391E10E942E0A68EE76
:102E500073E080E090E00E9401032DB73EB723525B
:102E600031090FB6F8943EBF0FBE2DBFADB7BEB748
:102E7000119683E2F20101900D928A95E1F70E948A
:102E8000F1118DB79EB783960FB6F8949EBF0FBE13
:102E90008DBF60EA7BE08BEC9FE00E942E0A0E94CF
:102EA0006D0C0E94F209E6CD1F920F920FB60F92A1
:102EB00011242F933F938F939F93AF93BF93809150
:102EC0001B0F90911C0FA0911D0FB0911E0F309100
:102ED0001A0F23E0230F2D3758F50196A11DB11DC0
:102EE00020931A0F80931B0F90931C0FA0931D0F1C
:102EF000B0931E0F80911F0F9091200FA091210F72
:102F0000B091220F0196A11DB11D80931F0F9093C8
:102F1000200FA093210FB093220FBF91AF919F91EB
:102F20008F913F912F910F900FBE0F901F9018958A
:102F300026E8230F0296A11DB11DD2CF1F920F923A
:102F40000FB60F9211240BB60F922F933F934F930E
:102F50005F936F937F938F939F93AF93BF93EF9301
:102F6000FF938EE29FE00E94BA05FF91EF91BF911F
:102F7000AF919F918F917F916F915F914F913F9111
:102F80002F910F900BBE0F900FBE0F901F901895B2
:102F90001F920F920FB60F9211240BB60F922F9320
:102FA0008F939F93EF93FF93E0913E0FF0913F0F2C
:102FB0008081E091440FF091450F82FD1DC090810A
:102FC0008091470F8F5F8F732091480F821741F0D8
:102FD000E091470FF0E0E25DF04F958F8093470F4F
:102FE000FF91EF919F918F912F910F900BBE0F90BA
:102FF0000FBE0F901F9018958081F2CF1F920F92F5
:103000000FB60F9211240BB60F922F933F934F934D
:103010005F936F937F938F939F93AF93BF93EF9340
:10302000FF938BEC9FE00E94BA05FF91EF91BF9157
:10303000AF919F918F917F916F915F914F913F9150
:103040002F910F900BBE0F900FBE0F901F901895F1
:103050001F920F920FB60F9211240BB60F922F935F
:103060008F939F93EF93FF93E091DB0FF091DC0F31
:103070008081E091E10FF091E20F82FD1DC090810F
:103080008091E40F8F5F8F732091E50F821741F0DD
:10309000E091E40FF0E0E553F04F958F8093E40F5B
:1030A000FF91EF919F918F912F910F900BBE0F90F9
:1030B0000FBE0F901F9018958081F2CFCF93DF93B2
:1030C0001092310F1092300F48EE53E060E070E044
:1030D0004093320F5093330F6093340F7093350F3A
:1030E0008AE099E090932F0F80932E0F2DEC30E023
:1030F00030933B0F20933A0F2CEC30E030933D0F90
:1031000020933C0F28EC30E030933F0F20933E0F8C
:1031100029EC30E03093410F2093400F2AEC30E04F
:103120003093430F2093420F2EEC30E03093450F45
:103130002093440F1092470F1092480F1092490F9E
:1031400010924A0F1092CE0F1092CD0F4093CF0FD6
:103150005093D00F6093D10F7093D20F9093CC0FF8
:103160008093CB0F85EC90E09093D80F8093D70F8E
:1031700084EC90E09093DA0F8093D90F80EC90E08C
:103180009093DC0F8093DB0F81EC90E09093DE0F47
:103190008093DD0F82EC90E09093E00F8093DF0F3F
:1031A00086EC90E09093E20F8093E10F1092E40F91
:1031B0001092E50F1092E60F1092E70F10923E1159
:1031C00010923D1186E299E090933C1180933B115F
:1031D0008CE080933F118FEF809340118BE08093C0
:1031E000411185E08093421184E08093431183E094
:1031F0008093441182E08093451110924611109201
:103200004711109248111092491110924A1181E011
:103210000E94A208CAE0D0E0D0933411C0933311C9
:1032200088E090E0909336118093351189E090E02A
:10323000909338118093371181E090E090933A1188
:103240008093391161E08AE00E949C0261E08091E4
:1032500035110E949C0261E0809137110E949C020E
:1032600061E0809137110E946A02D0933411C093BB
:103270003311E3EFF0E1119281E1E333F807D9F77D
:10328000D0E0C0E08091391190913A11C817D90768
:10329000B4F520E04FE0BE0183EE90E10E94C2064B
:1032A0008091391190913A11C817D9073CF427E061
:1032B0004BE0BE0183EE90E10E94C20620E049E0AF
:1032C000BE0183EE90E10E94C20680913911909177
:1032D0003A11C817D9071CF4CE010E943E0780910D
:1032E000391190913A11C817D9073CF420E04CE00D
:1032F000BE0183EE90E10E94C2062196C3CF60E337
:1033000079E08DED90E10E94830B1092DC1087E153
:1033100090E09093DB108093DA101092D91088E13E
:1033200090E09093D8108093D71010926A1010926A
:103330006E1010926D1010926F108CE199E09093C6
:10334000691080936810E4E8F0E11082148213821F
:103350001582369680E1E03CF807B9F783E092E009
:103360009093CB108093CA1080E092E09093CD10A0
:103370008093CC1084E08093CE1083E08093CF10B4
:1033800087E092E09093C9108093C8108AE090E0A3
:103390009093D1108093D01084EF91E09093D3104C
:1033A0008093D2101092D6101092D5101092C410A3
:1033B0001092C5101092C6101092C7101092D4101F
:1033C000DF91CF910895CF93DF93CDB7DEB7C05E85
:1033D000D1090FB6F894DEBF0FBECDBF789484B587
:1033E000826084BD84B5816084BD85B5826085BD01
:1033F00085B5816085BD80916E00816080936E008F
:103400001092810080918100826080938100809180
:103410008100816080938100809180008160809331
:1034200080008091B10084608093B1008091B000F1
:1034300081608093B00080919100826080939100C0
:1034400080919100816080939100809190008160D3
:10345000809390008091A10082608093A100809170
:10346000A10081608093A1008091A0008160809381
:10347000A00080912101826080932101809121012F
:1034800081608093210180912001816080932001DF
:1034900080917A00846080937A0080917A008260C3
:1034A00080937A0080917A00816080937A00809185
:1034B0007A00806880937A001092C1008BEC9FE0C4
:1034C0000E948D018EE29FE00E948D011A82198276
:1034D0009E012F5F3F4FC552DF4F39832883CB5D5D
:1034E000D040B9018DE990E00E94360E64E275E0AB
:1034F0008FE990E00E94360E1A821982BE016F5F3A
:103500007F4F90E080E00E94360E62E275E082E03C
:1035100090E00E94360E1A821982BE016F5F7F4FC3
:103520008DE597E00E94360E60E275E08FE597E04A
:103530000E94360E65EB7BE08BEC9FE00E941A0A3E
:103540001E0139E5230E311C13E2F101212F1192E6
:103550002A95E9F781E0F10182A381E690E0CA5360
:10356000DF4F99838883C65CD040BE016A537F4F8A
:10357000CE018C539F4F0E94812DCE018C539F4FC3
:103580000E94300A86E0E3E0FFE0DE01AE54BF4F68
:1035900001900D928A95E1F7BE016E547F4FCE01E6
:1035A00084559F4F0E94812DCE0184559F4F0E94CC
:1035B000300A83E390E0CE53DF4F99838883C25C67
:1035C000D040BE016E537F4FCE0180549F4F0E946A
:1035D000812DCE0180549F4F0E94300ABE016C5352
:1035E0007F4FC1010E94812DBE0164557F4FC101F3
:1035F0000C960E94812DBE0160547F4FC1014496FC
:103600000E94812DBE016C537F4F8BEC9FE00E9486
:103610001A0ABE0160547F4F8BEC9FE00E941A0A89
:103620002DB73EB7235231090FB6F8943EBF0FBEF7
:103630002DBFADB7BEB71196F101812F01900D924C
:103640008A95E1F70E94F111C552DF4FE881F981B7
:10365000CB5DD040212F11922A95E9F782E690E0C8
:10366000C254DF4F99838883CE5BD0408DB79EB71D
:1036700083960FB6F8949EBF0FBE8DBFBE016254F5
:103680007F4FCE0184549F4F0E94812DCE018454E0
:103690009F4F0E94300A86E0E3E0FFE0DE01AA557A
:1036A000BF4F01900D928A95E1F7BE016A557F4F99
:1036B000CE0180569F4F0E94812DCE0180569F4F94
:1036C0000E94300A82E390E0C654DF4F99838883DA
:1036D000CA5BD040BE0166547F4FCE0188549F4FD5
:1036E0000E94812DCE0188549F4F0E94300ABE0156
:1036F00064547F4FCE0101960E94812DBE01605619
:103700007F4FCE010D960E94812DBE0168547F4FE0
:10371000CE0145960E94812DBE0164547F4F8BECF3
:103720009FE00E941A0ABE0168547F4F8BEC9FE015
:103730000E941A0AEDB7FEB7B3970FB6F894FEBF12
:103740000FBEEDBFADB7BEB71196FE013196019029
:103750000D921A95E1F70E94F1112E01FCE74F0E30
:10376000511C11E1320122E0620E711CF301212F84
:1037700011922A95E9F721E030E0F20131832083AC
:103780008DB79EB783960FB6F8949EBF0FBE8DBFC0
:1037900064EC7BE0C3010E94812DEDB7FEB7739707
:1037A0000FB6F894FEBF0FBEEDBFADB7BEB7119612
:1037B00083E1F20101900D928A95E1F70E94801158
:1037C000F301212F11922A95E9F722E030E0F2016E
:1037D000318320836FEC7BE0C3010E94812D8DB784
:1037E0009EB743970FB6F8949EBF0FBE8DBFADB77F
:1037F000BEB7119683E1F20101900D928A95E1F72F
:103800000E948011F301212F11922A95E9F723E0FC
:1038100030E0F201318320838DB79EB786960FB6D4
:10382000F8949EBF0FBE8DBF6FEC7BE0C3010E947A
:10383000812DEDB7FEB773970FB6F894FEBF0FBE9C
:10384000EDBFADB7BEB7119683E1F20101900D92C5
:103850008A95E1F70E948011F301212F11922A9598
:10386000E9F724E030E0F201318320836FEC7BE064
:10387000C3010E94812D8DB79EB743970FB6F89470
:103880009EBF0FBE8DBFADB7BEB7119683E1F201EB
:1038900001900D928A95E1F70E948011F301212F8A
:1038A00011922A95E9F725E030E0F2013183208377
:1038B0008DB79EB786960FB6F8949EBF0FBE8DBF8C
:1038C0006FEC7BE0C3010E94812DEDB7FEB77397CB
:1038D0000FB6F894FEBF0FBEEDBFADB7BEB71196E1
:1038E00083E1F20101900D928A95E1F70E94801127
:1038F000F301212F11922A95E9F726E030E0F20139
:10390000318320836FEC7BE0C3010E94812D8DB752
:103910009EB743970FB6F8949EBF0FBE8DBFADB74D
:10392000BEB7119683E1F20101900D928A95E1F7FD
:103930000E948011F301212F11922A95E9F727E0C7
:1039400030E0F201318320838DB79EB786960FB6A3
:10395000F8949EBF0FBE8DBF6FEC7BE0C3010E9449
:10396000812DEDB7FEB773970FB6F894FEBF0FBE6B
:10397000EDBFADB7BEB7119683E1F20101900D9294
:103980008A95E1F70E948011F301212F11922A9567
:10399000E9F728E030E0F201318320836FEC7BE02F
:1039A000C3010E94812D8DB79EB743970FB6F8943F
:1039B0009EBF0FBE8DBFADB7BEB7119683E1F201BA
:1039C00001900D928A95E1F70E9480113E019FE8D7
:1039D000690E711CF30111921A95E9F72DB73EB7E4
:1039E0002A5D3F4F0FB6F8943EBF0FBE2DBFC301F7
:1039F0000396C352DF4F99838883CD5DD04069ED34
:103A00007BE00E94812DF30180809180A280B380B1
:103A1000C480D580E680F7800085118522853385B6
:103A2000448555856685778580890E940D119301AF
:103A30002E5F3F4FC152DF4F39832883CF5DD04087
:103A4000F9012FE011922A95E9F721E030E0F30126
:103A5000318320836FED7BE0C352DF4F88819981F2
:103A6000CD5DD0400E94812DF30180809180A280A5
:103A7000B380C480D580E680F780008511852285DB
:103A80003385448555856685778580890E940D112B
:103A9000C152DF4FE881F981CF5DD0402FE0119214
:103AA0002A95E9F722E030E0F3013183208365EEC7
:103AB0007BE0C352DF4F88819981CD5DD0400E9469
:103AC000812DF30180809180A280B380C480D58055
:103AD000E680F780008511852285338544855585EC
:103AE0006685778580890E940D11C152DF4FE8817C
:103AF000F981CF5DD0402FE011922A95E9F723E0BC
:103B000030E0F301318320836BEE7BE0C352DF4F63
:103B100088819981CD5DD0400E94812DF301808004
:103B20009180A280B380C480D580E680F780008534
:103B300011852285338544855585668577858089FD
:103B40000E940D11C152DF4FE881F981CF5DD04055
:103B50002FE011922A95E9F724E030E0F301318358
:103B6000208360E379E0C352DF4F88819981CD5D86
:103B7000D0400E94812DF30180809180A280B3808B
:103B8000C480D580E680F780008511852285338545
:103B9000448555856685778580890E940D11C152BF
:103BA000DF4FE881F981CF5DD0402FE011922A9557
:103BB000E9F725E030E0F3013183208360E379E029
:103BC000C352DF4F88819981CD5DD0400E94812D05
:103BD000F30180809180A280B380C480D580E6808C
:103BE000F780008511852285338544855585668556
:103BF000778580890E940D11C152DF4FE881F981DC
:103C0000CF5DD0402FE011922A95E9F726E030E011
:103C1000F3013183208360E379E0C352DF4F888171
:103C20009981CD5DD0400E94812DF30180809180EB
:103C3000A280B380C480D580E680F780008511859E
:103C400022853385448555856685778580890E94E0
:103C50000D11C152DF4FE881F981CF5DD0402FE0D7
:103C600011922A95E9F727E030E0F30131832083B0
:103C700060E379E0C352DF4F88819981CD5DD04008
:103C80000E94812DF30180809180A280B380C48046
:103C9000D580E680F78000851185228533854485AF
:103CA00055856685778580890E940D11C152DF4F49
:103CB000E881F981CF5DD0402FE011922A95E9F794
:103CC00028E030E0F3013183208360E379E0C352E0
:103CD000DF4F88819981CD5DD0400E94812DF30115
:103CE00080809180A280B380C480D580E680F780F8
:103CF00000851185228533854485558566857785C0
:103D000080890E940D1161EF7BE08BEC9FE00E94A7
:103D10002E0A0E946D0C0E94F20984E00E94A20803
:103D20008091391190913A111816190644F421E046
:103D30004CE070E060E083EE90E10E94C20680916A
:103D4000391190913A111816190644F428E04AE006
:103D500070E060E083EE90E10E94C206809139112C
:103D600090913A111816190624F490E080E00E9410
:103D70003E0760E08091DA100E949C0260E0809132
:103D8000D7100E949C0291012E5F3F4FC352DF4F1C
:103D900039832883CD5DD040E091180FF091190F41
:103DA000EB30F10508F0A2C68827E652F14E8F4F9E
:103DB0000C94612BE51E4E1F4B22742579253C2661
:103DC000E520652718281F28392A0E949A0860E0F4
:103DD00080E00E94430961E07CE08BE391E10E9476
:103DE0002E0A6CE271E080E090E00E94010361E045
:103DF00080E00E9443096CE07CE08BE391E10E944B
:103E00002E0A6CE271E080E090E00E94010362E023
:103E100080E00E9443096DE17CE08BE391E10E9428
:103E20002E0A6CE271E080E090E00E94010363E002
:103E300080E00E9443096EE27CE08BE391E10E9406
:103E40002E0A6CE271E080E090E00E94010364E0E1
:103E500080E00E9443096EE37CE08BE391E10E94E5
:103E60002E0A6CE271E080E090E00E94010365E0C0
:103E700080E00E9443096DE47CE08BE391E10E94C5
:103E80002E0A8AED90E10E94A6068823D1F381E0F4
:103E900090E09093190F8093180F28C60E949A08FB
:103EA00060E080E00E9443096DE57CE08BE391E1F6
:103EB0000E942E0A68EC70E080E090E00E9401030E
:103EC00061E080E00E9443096CE67CE08BE391E1D5
:103ED0000E942E0A68EC70E080E090E00E940103EE
:103EE00062E080E00E94430965E77CE08BE391E1BA
:103EF0000E942E0A68EC70E080E090E00E940103CE
:103F000063E080E00E94430961E87CE08BE391E19B
:103F10000E942E0A60E379E0C3010E94830B0E9495
:103F20009B03882399F0F3012481358122303105E8
:103F300048F5682FC3010E940D0B63E08CE00E94DE
:103F40004309B3018BE391E10E94E3048AED90E120
:103F50000E94A606882309F411C16DED7BE0C30120
:103F60000E949E0A882399F186E090E09093190FB1
:103F70008093180F10920B0F10920A0FC3010E942A
:103F8000830AB4C563E08CE00E94430960EE79E0E7
:103F90008BE391E10E942E0A63E08CE00E944309CA
:103FA00067EE79E08BE391E10E942E0A64E670E00F
:103FB00080E090E00E94010363E08CE00E944309EE
:103FC00060EE79E08BE391E10E942E0AB6CF63EEBA
:103FD0007BE0C3010E949E0A882369F086E090E09E
:103FE0009093190F8093180F81E090E090930B0F3E
:103FF00080930A0FC3CF6BE47CE0C3010E949E0A4A
:10400000882309F4BBCF60E080E00E94430960E3AD
:1040100079E0C2010E94830B10E000E0F80165E046
:10402000EE0FFF1F6A95E1F7EA5DFA4F80E2D101DA
:1040300001900D928A95E1F71F930F932DB73EB72C
:10404000285531090FB6F8943EBF0FBE2DBFADB74E
:10405000BEB7119688E5E3EEF0E101900D928A95E6
:10406000E1F70E9460078DB79EB7865A9F4F0FB643
:10407000F8949EBF0FBE8DBF0E949B03882391F0D2
:104080008A330CF055C081330CF073C0833209F4CD
:1040900059C0803309F45FC062E370E080E090E0D3
:1040A0000E9401038AED90E10E94A606882309F48C
:1040B000B5CFC2010E946A0988E5E3EEF0E1DE01B6
:1040C000119601900D928A95E1F78E010F5F1F4FB7
:1040D000DD24D394F12CE12C69968EAD9FAD6997C8
:1040E00018161906A4F420E830E00E2C02C035950D
:1040F00027950A94E2F72095F80180892823208BE0
:104100004D2D70E060E0CE0101960E94C206FFEFE7
:10411000EF1AFF0A28E0E216F104F1F60F5F1F4FD5
:10412000D39439E0D312D6CFC2010E94830A26CF9E
:10413000883509F0B1CF0150110908F0ADCF0EE17B
:1041400010E0AACF0F5F1F4F0F31110509F0A4CF68
:1041500010E000E0A1CFB101C2010E94DB0A61E0E2
:1041600080E00E944309B2018BE391E10E94E304E5
:1041700093CF682FC2010E940D0BF1CF87ED90E124
:104180000E94A606882309F4CACEF30164817581D2
:104190006115710509F4C3CE61507109C3010E9414
:1041A0008B0A61E080E00E94430966ED79E08BE3D1
:1041B00091E10E942E0A61E080E00E944309B30170
:1041C0008BE391E10E94E304AACEE0900A0FF09005
:1041D0000B0F0E949A0860E080E00E94430969E8A2
:1041E0007CE08BE391E10E942E0A6CE271E080E0BA
:1041F00090E00E94010361E080E00E94430962E9CF
:104200007CE08BE391E10E942E0A6CE271E080E099
:1042100090E00E94010362E080E00E94430960EAAE
:104220007CE08BE391E10E942E0A6CE271E080E079
:1042300090E00E94010363E080E00E94430961E88E
:104240007CE08BE391E10E942E0A60E379E0C101FA
:104250000E94830B01E0CC24C394D12C0E949B03C9
:104260008823A1F0F101248135812230310508F045
:104270005DC0682FC1010E940D0B63E08CE00E94BD
:104280004309B1018BE391E10E94E3048AED90E1DF
:104290000E94A606182F882309F48EC06DED7BE0DE
:1042A000C1010E949E0A882309F4AFC00093140F35
:1042B0001092150F6DED7BE08BEC9FE00E941A0AC7
:1042C0006AEA7CE08BEC9FE00E942E0A8091140F3A
:1042D00090E00E94F2096EEA7CE08BEC9FE00E9485
:1042E0002E0A8091150F90E00E94F2090E94790633
:1042F0000E949A0862EB7CE08BE391E10E942E0A17
:1043000061E080E00E94430963EC7CE08BE391E193
:104310000E942E0AB12C8EE29FE00E949A05892B02
:1043200051F1C2010E944105B12EF5CF63E08CE04E
:104330000E94430966ED79E08BE391E10E942E0A29
:1043400063E08CE00E94430967EE79E08BE391E142
:104350000E942E0A68EE73E080E090E00E94010364
:1043600063E08CE00E94430966ED79E08BE391E124
:104370000E942E0A82CFBB2071F28EE29FE00E9443
:104380009A05892B41F60E9479060E949A0864EDED
:104390007CE08BE391E10E942E0A68EE73E080E0FE
:1043A00090E00E9401030E949A0868EE7CE08BEC8A
:1043B0009FE00E941A0A1B2D87ED90E10E94A6063D
:1043C0008823F1F0F1016481758161157105C1F0F7
:1043D00061507109C1010E948B0A61E080E00E9476
:1043E000430966ED79E08BE391E10E942E0A61E0DA
:1043F00080E00E944309B1018BE391E10E94E30454
:10440000112309F42BCFC101BACD63EE7BE0C101CA
:104410000E949E0A8823B9F31092140F0093150F7F
:1044200063EE7BE08BEC9FE00E941A0A6AEA7CE074
:104430008BEC9FE00E942E0A8091140F90E00E9466
:10444000F2096EEA7CE08BEC9FE00E942E0A8091DC
:10445000150F90E00E94F209F1E0EF16F10479F0F7
:1044600022E0E216F10491F0E114F10409F0A4CF86
:1044700082E090E09093190F8093180F9DCFE3E0B6
:10448000F0E0F093190FE093180F96CFD092190F28
:10449000C092180F91CF0E949A0860E080E00E94BD
:1044A00043096EEE7AE08BE391E10E942E0A60E30D
:1044B00079E0CE018A559F4F0E94830B10E0009156
:1044C000140F8091150F882309F4D4C1011156C02F
:1044D0008091120F9091130FFC0145E0EE0FFF1F2A
:1044E0004A95E1F7EA5DFA4F20E2D10101900D9281
:1044F0002A95E1F79F938F932DB73EB72855310941
:104500000FB6F8943EBF0FBE2DBFADB7BEB7119624
:1045100088E5E3EEF0E101900D928A95E1F70E94C3
:1045200060078DB79EB7865A9F4F0FB6F8949EBF0F
:104530000FBE8DBF0E949B03882301F18A330CF0CC
:1045400043C181330CF06AC1833209F453C1803313
:1045500009F45DC1C655DF4F88819981CA5AD040A0
:1045600061E00C9708F061C180E00E944309BE0140
:104570006A557F4F8BE391E10E94E3048AED90E15D
:104580000E94A606882309F49BC1CE018A559F4F3D
:104590000E946A0965E07DE08BEC9FE00E941A0AA8
:1045A00062E080E00E9443096BEC79E08BE391E1EB
:1045B0000E942E0A60E379E0CE0180569F4F0E9450
:1045C000830B0091140F8091150F882309F4FCC10F
:1045D000011156C08091120F9091130FFC0135E02C
:1045E000EE0FFF1F3A95E1F7EA5DFA4F20E2D101A5
:1045F00001900D922A95E1F79F938F932DB73EB7C7
:10460000285531090FB6F8943EBF0FBE2DBFADB788
:10461000BEB7119688E5E3EEF0E101900D928A9520
:10462000E1F70E9460078DB79EB7865A9F4F0FB67D
:10463000F8949EBF0FBE8DBF0E949B03882301F19B
:104640008A330CF06BC181330CF092C1833209F4D0
:104650007BC1803309F485C1CC55DF4F88819981B6
:10466000C45AD04063E0089708F089C180E00E94F6
:104670004309BE0160567F4F8BE391E10E94E30442
:104680008AED90E10E94A606882309F4C3C1CE01F9
:1046900080569F4F0E946A09CA55DF4F6881798111
:1046A000C65AD040FB0101900020E9F7CF01EDB6DA
:1046B000FEB6861B970B2DB73EB7281B390B0FB6DE
:1046C000F8943EBF0FBE2DBF0DB71EB70F5F1F4F33
:1046D000C8010E94812DC8010E94300AC056DF4FD8
:1046E00068817981C05AD040FB0101900020E9F730
:1046F000CF01861B970B2DB73EB7281B390B0FB682
:10470000F8943EBF0FBE2DBF8DB79EB701966C01CA
:104710000E94812DC6010E94300A6EE17DE08BEC83
:104720009FE00E942E0AB8018BEC9FE00E941A0ABB
:104730006FE27DE08BEC9FE00E942E0AB6018BECCD
:104740009FE00E941A0AB601C2010E94830BB801C1
:10475000C3010E94830BA201B301C1010E94270D76
:10476000C3010E94830AC2010E94830AF8010190DA
:104770000020E9F73197AF01401B510BB8018DEDD7
:1047800090E10E943E0BF1018081811171C10E9474
:104790009A0860E080E00E9443096FE27AE08BE3D0
:1047A00091E10E942E0A61E080E00E94430969E3E2
:1047B0007AE08BE391E10E942E0A68EE73E080E0DC
:1047C00090E00E94010379C1883509F0C3CE809141
:1047D000120F9091130F019797FD05C09093130F3F
:1047E0008093120FB7CEEEE1F0E0F093130FE09359
:1047F000120FB0CE8091120F9091130F01968F314E
:10480000910560F31092130F1092120FA3CEB10115
:10481000CE018A559F4F0E94DB0A9CCE682FCE01A5
:104820008A559F4F0E940D0B95CE80E00E94430950
:1048300066ED79E08BE391E10E942E0A61E080E071
:104840000E94430967EE79E08BE391E10E942E0A12
:1048500068EE73E080E090E00E94010361E080E098
:104860000E94430966ED79E08BE391E10E942E0AF4
:1048700061E07ACE002309F481CE11117FCE6AEF78
:104880007CE08BEC9FE00E941A0A6EEF7CE0C10195
:104890000E94940BB101CE018A559F4F0E944A0A93
:1048A000C1010E94830A63E080E00E944309BE01C7
:1048B0006A557F4F8BE391E10E94E304102F5ECE97
:1048C00087ED90E10E94A606882309F4F8CDC6552D
:1048D000DF4F68817981CA5AD0406115710509F4AA
:1048E000EECD61507109CE018A559F4F0E948B0A0F
:1048F00061E080E00E94430966ED79E08BE391E19D
:104900000E942E0A61E080E00E944309BE016A55C0
:104910007F4F8BE391E10E94E304D1CD883509F00C
:104920009BCE8091120F9091130F019797FD05C0B8
:104930009093130F8093120F8FCEEEE1F0E0F0937F
:10494000130FE093120F88CE8091120F9091130FE6
:1049500001968F31910560F31092130F1092120F90
:104960007BCEB101CE0180569F4F0E94DB0A74CEF0
:10497000682FCE0180569F4F0E940D0B6DCE80E0B8
:104980000E94430966ED79E08BE391E10E942E0AD3
:1049900063E080E00E94430967EE79E08BE391E1F8
:1049A0000E942E0A68EE73E080E090E00E9401030E
:1049B00063E080E00E94430966ED79E08BE391E1DA
:1049C0000E942E0A63E052CE002309F459CE111141
:1049D00057CE6AEF7CE08BEC9FE00E941A0A65E1FB
:1049E0007DE0C1010E94940BB101CE0180569F4F22
:1049F0000E944A0AC1010E94830A63E080E00E948B
:104A00004309BE0160567F4F8BE391E10E94E304AE
:104A1000102F36CE87ED90E10E94A606882309F478
:104A2000D0CDCC55DF4F68817981C45AD040611513
:104A3000710509F4C6CD61507109CE0180569F4FB2
:104A40000E948B0A61E083E00E94430966ED79E0F1
:104A50008BE391E10E942E0A61E083E00E9443090A
:104A6000BE0160567F4F8BE391E10E94E304A9CD24
:104A70000E949A0860E080E00E94430961E07CE0C7
:104A80008BE391E10E942E0A61E080E00E944309DD
:104A9000B1018BE391E10E942E0AF10182A18823EA
:104AA000D1F068EE73E080E090E00E94010384E0C2
:104AB00090E09093190F8093180F0FB6F894FEBEF4
:104AC0000FBEEDBECE0180569F4F0E94830ACE01DD
:104AD0008A559F4F54CA68EE73E080E090E00E94D0
:104AE000010385E090E0E5CF0E945C120E94490638
:104AF00053C90E949A0860E080E00E94430962E482
:104B00007DE08BE391E10E942E0A6CE271E080E08F
:104B100090E00E94010361E080E00E9443096DE49F
:104B20007DE08BE391E10E942E0A6CE271E080E06F
:104B300090E00E94010362E080E00E94430965E585
:104B40007DE08BE391E10E942E0A6CE271E080E04F
:104B500090E00E94010363E080E00E94430961E865
:104B60007CE08BE391E10E942E0A60E379E0C101D1
:104B70000E94830B0E949B03882399F0F1012481FA
:104B800035812230310508F5682FC1010E940D0BD7
:104B900063E08CE00E944309B1018BE391E10E9444
:104BA000E3048AED90E10E94A6068823F1F16DED01
:104BB0007BE0C1010E949E0A882361F187E090E0BA
:104BC0009093190F8093180F1ECC63E08CE00E9425
:104BD000430966ED79E08BE391E10E942E0A63E0E0
:104BE0008CE00E94430967EE79E08BE391E10E943B
:104BF0002E0A68EE73E080E090E00E94010363E01B
:104C00008CE00E94430966ED79E08BE391E10E941C
:104C10002E0ABECF63EE7BE0C1010E949E0A88236C
:104C200009F4F1CB88E090E0CBCF87ED90E10E94D2
:104C3000A606882309F49ECFF10164817581611570
:104C4000710509F497CF61507109C1010E948B0A67
:104C500061E080E00E94430966ED79E08BE391E139
:104C60000E942E0A61E080E00E944309B1018BE3BB
:104C700091E10E94E3047ECF0E94330360930C0F06
:104C800070930D0F80930E0F90930F0F0E949A0850
:104C900060E080E00E94430965E67DE08BE391E1FE
:104CA0000E942E0A60E971E080E090E00E9401031A
:104CB0000E949A0860E080E00E94430962E77DE07C
:104CC0008BE391E10E942E0A61E080E00E9443099B
:104CD00061E87DE08BE391E10E942E0A62E080E0D2
:104CE0000E94430960E97DE08BE391E10E942E0A76
:104CF00063E080E00E94430962EA7DE08BE391E19A
:104D00000E942E0A6EEE72E080E090E00E940103A5
:104D10000E949A0860E080E00E94430961E87CE01C
:104D20008BE391E10E942E0A60E379E0C1010E94C9
:104D3000830B0E94330300910C0F10910D0F2091F3
:104D40000E0F30910F0F601B710B820B930B6935A7
:104D50007F408240910508F0AFC00E949B038823EA
:104D600099F0F101248135812230310520F5682F39
:104D7000C1010E940D0B60E08CE00E944309B1016B
:104D80008BE391E10E94E3048AED90E10E94A60684
:104D9000882309F46AC06DED7BE0C1010E949E0A80
:104DA000882371F163EB7DE08BEC9FE00E941A0A8F
:104DB00089E090E005CF60E08CE00E94430960EE5E
:104DC00079E08BE391E10E942E0A60E08CE00E9482
:104DD000430967EE79E08BE391E10E942E0A64E6D5
:104DE00070E080E090E00E94010360E08CE00E94AF
:104DF000430960EE79E08BE391E10E942E0ABBCF7C
:104E000063EE7BE0C1010E949E0A882349F06DECAD
:104E10007DE08BEC9FE00E941A0A8AE090E0D0CE01
:104E200069EE7BE0C1010E949E0A882369F081E05F
:104E300090E09093190F8093180F66EE7DE08BEC55
:104E40009FE00E941A0ADFCA6BE17CE0C1010E9468
:104E50009E0A882309F4D7CA6DEF7DE08BEC9FE0B2
:104E60000E941A0A81E090E0ABCE87ED90E10E94AB
:104E7000A606882309F45DCFF1016481758161156F
:104E8000710509F456CF61507109C1010E948B0A66
:104E900061E080E00E94430966ED79E08BE391E1F7
:104EA0000E942E0A61E080E00E944309B1018BE379
:104EB00091E10E94E3043DCF81E090E09093190FCF
:104EC0008093180F64E17EE0BACF0E949A0860E0F8
:104ED00080E00E9443096EE27EE08BE391E10E9454
:104EE0002E0A61E080E00E9443096BE37EE08BE3E1
:104EF00091E10E942E0A62E080E00E94430967E48B
:104F00007EE08BE391E10E942E0A8AED90E10E94FF
:104F1000A606882309F484C00E949A0870E060E025
:104F2000C1010E94950C10E000E00E949A0860E028
:104F300080E00E94430965E57EE08BE391E10E94F9
:104F40002E0A61E080E00E944309F1018081918195
:104F5000F3011182108213821282158214824AE0B8
:104F6000B2010E94F42AF20101900020E9F7319782
:104F7000AF0144195509B201C3010E943E0BB301B0
:104F80008BE391E10E94E304C3010E94830A62E083
:104F900080E00E944309C352DF4F68817981CD5D73
:104FA000D040C2010E94830BB2018BE391E10E94C9
:104FB000E304C2010E94830A8AED90E10E94A606E2
:104FC000882309F10F5F1F4FB20190E080E00E943B
:104FD000590CF201808191810817190714F010E033
:104FE00000E00E949A08B801CE0188539F4F0E94AA
:104FF000950C83E1FE01E853FF4FD10101900D9222
:105000008A95E1F792CF87ED90E10E94A60688236A
:1050100099F26CE271E080E090E00E94010366CDBD
:1050200087ED90E10E94A606882309F46ECFF1CFA8
:1050300066E67EE08BEC9FE00E941A0A57CD0E9444
:10504000810C7C0110E000E00E151F0584F4B8010E
:10505000C1010E94950DF1018281811128C000815A
:105060001181C8010E94F2090F3F100719F564E78A
:105070007EE08BEC9FE00E941A0A0E949A0860E092
:1050800080E00E94430960EA7EE08BE391E10E94A8
:105090002E0A61E080E00E9443096BE87EE08BE32A
:1050A00091E10E942E0A85E090E00C94491F0F5F69
:1050B0001F4FCACF0E949A0861E080E00E94430916
:1050C0006BEC79E08BE391E10E942E0A60E379E0DA
:1050D000CE0180569F4F0E94830B8091150F88232D
:1050E00009F45AC08091140F811156C08091120F9B
:1050F0009091130FFC0125E0EE0FFF1F2A95E1F7B9
:10510000EA5DFA4F20E2D10101900D922A95E1F774
:105110009F938F932DB73EB7285531090FB6F8945A
:105120003EBF0FBE2DBFADB7BEB7119688E5E3EE0B
:10513000F0E101900D928A95E1F70E9460078DB72A
:105140009EB7865A9F4F0FB6F8949EBF0FBE8DBF75
:105150000E949B03882301F18A330CF0ADC0813398
:105160000CF0D4C0833209F4BDC0803309F4C7C049
:10517000CC55DF4F88819981C45AD04063E00897AD
:1051800008F0CBC080E00E944309BE0160567F4F0B
:105190008BE391E10E94E3048AED90E10E94A60670
:1051A000882309F4DFC0CE0180569F4F0E946A0910
:1051B000C056DF4F68817981C05AD040FB01019011
:1051C0000020E9F7CF01EDB6FEB6861B970B2DB791
:1051D0003EB7281B390B0FB6F8943EBF0FBE2DBF4C
:1051E0008DB79EB701966C010E94812DC6010E9469
:1051F000300AB601C2010E94830B6DED70E1C3015C
:105200000E94690BA201B301C1010E94270DC301D5
:105210000E94830AC2010E94830AF10180818823CF
:1052200009F4CEC06DED70E1C2010E94690BA201CC
:1052300061E0C8010E94920EC2010E94830A0E948E
:10524000D60D045D61E0802F0E949C0261E0802FFA
:105250000E946A0268EE73E080E090E00E94010321
:1052600060E0802F0E946A0260EB7EE08BEC9FE0A2
:105270000E941A0A0E949A0861E080E00E94430995
:1052800064ED7EE08BE391E10E942E0A60E971E01B
:1052900080E090E00E94010385E090E09093190F78
:1052A0008093180F0FB6F894FEBE0FBEEDBECE0170
:1052B00080569F4F0C94BF1F883509F059CF8091BD
:1052C000120F9091130F019797FD05C09093130F44
:1052D0008093120F4DCFEEE1F0E0F093130FE093C7
:1052E000120F46CF8091120F9091130F01968F31BC
:1052F000910560F31092130F1092120F39CFB10184
:10530000CE0180569F4F0E94DB0A32CF682FCE011C
:1053100080569F4F0E940D0B2BCF80E00E944309C7
:1053200066ED79E08BE391E10E942E0A63E080E074
:105330000E94430967EE79E08BE391E10E942E0A17
:1053400068EE73E080E090E00E94010363E080E09B
:105350000E94430966ED79E08BE391E10E942E0AF9
:1053600063E010CF87ED90E10E94A606882309F440
:10537000B4CECC55DF4F68817981C45AD0406115D5
:10538000710509F4AACE61507109CE0180569F4F74
:105390000E948B0A61E083E00E94430966ED79E098
:1053A0008BE391E10E942E0A61E083E00E944309B1
:1053B000BE0160567F4F8BE391E10E94E3048DCEE6
:1053C0008091100F9091110F01969093110F80937F
:1053D000100F0297FCF46AEF79E08BEC9FE00E94DB
:1053E0001A0A0E949A0860E080E00E9443096FE276
:1053F0007AE08BE391E10E942E0A61E080E00E9456
:10540000430969E37AE08BE391E10E942E0A89E087
:1054100090E044CF65E47AE08BEC9FE00E941A0AAA
:105420000E949A0860E080E00E9443096FE27AE0FF
:105430008BE391E10E942E0A61E080E00E94430923
:1054400069E37AE08BE391E10E942E0A60E177E262
:1054500080E090E00E94010367E87AE08BEC9FE037
:105460000E941A0A1092110F1092100F81E090E022
:1054700015CF10E000E00E94810C08171907A4F472
:10548000B801C1010E94950DF1018281882349F084
:105490008091160F9091170F01969093170F80939C
:1054A000160F0F5F1F4FE7CF8091160F9091170FC8
:1054B000009789F40E949A0860E080E00E94430906
:1054C0006EED7EE08BE391E10E942E0A60ED77E0C5
:1054D00080E090E0A2CD8130910519F570E060E0A8
:1054E000C1010E94950DF10180809180A280B3805E
:1054F000C480D580E680F7800085118522853385BC
:10550000448555856685778580890E94E50E809162
:10551000160F9091170F01979093170F8093160F06
:10552000C2CD0E94F2090E949A0860E080E00E94C9
:1055300043096FEE7EE08BE391E10E942E0A10E0BA
:1055400000E08091160F9091170F08171907E4F4E7
:10555000B801C1010E94950DF1018281882389F073
:10556000E080F18061E0600F80E00E944309B701B4
:105570008BE391E10E94100AB7018BEC9FE00E943F
:10558000100A0F5F1F4FDDCF0E949B03682F8FEC27
:10559000860F8930C8F7062E000C770B615371090E
:1055A0008091160F9091170F681779070CF09ECA1B
:1055B000C1010E94950DF10180809180A280B3808D
:1055C000C480D580E680F7800085118522853385EB
:1055D000448555856685778580890E94E50E86CA53
:1055E0008DED90E10C94830ABB274A3031F4992366
:1055F00022F4BDE2909581959F4F0C94002BBB2720
:10560000FB015527AA27880F991FAA1FA41710F07E
:10561000A41B83955051B9F7A05DAA3308F0A95D8A
:10562000A193009779F7B111B1931192CB010C942A
:10563000192BDC01FC01672F71917723E1F7329779
:1056400004C07C916D9370836291AE17BF07C8F35D
:105650000895F999FECF92BD81BDF89A992780B53A
:105660000895262FF999FECF1FBA92BD81BD20BDA6
:105670000FB6F894FA9AF99A0FBE01960895A1E22E
:105680001A2EAA1BBB1BFD010DC0AA1FBB1FEE1FBC
:10569000FF1FA217B307E407F50720F0A21BB30B07
:1056A000E40BF50B661F771F881F991F1A9469F783
:1056B00060957095809590959B01AC01BD01CF01DF
:1056C0000895EE0FFF1F881F8BBF0790F691E02D06
:1056D00019940F931F93CF93DF938230910510F4A9
:1056E00082E090E0E0915511F091561130E020E019
:1056F000B0E0A0E0309799F42115310509F44AC0D3
:10570000281B390B24303105D8F58A819B8161151E
:10571000710589F1FB0193838283FE0111C04081F1
:1057200051810281138148175907E0F04817590742
:1057300099F4109761F012960C93129713961C939C
:105740003296CF01DF91CF911F910F910895009371
:10575000551110935611F4CF2115310551F0421710
:10576000530738F0A901DB019A01BD01DF01F801FF
:10577000C1CFEF01F9CF9093561180935511CDCF42
:10578000FE01E20FF31F8193919322503109398377
:105790002883D7CF2091531130915411232B41F4FA
:1057A0002091150230911602309354112093531119
:1057B00020911302309114022115310541F42DB7C7
:1057C0003EB74091170250911802241B350BE0910F
:1057D0005311F0915411E217F307A0F42E1B3F0B65
:1057E0002817390778F0AC014E5F5F4F2417350753
:1057F00048F04E0F5F1F5093541140935311819303
:1058000091939FCFF0E0E0E09CCFCF93DF930097A0
:10581000E9F0FC01329713821282A0915511B091E8
:105820005611ED0130E020E01097A1F42081318184
:10583000820F931F2091531130915411281739076B
:1058400009F061C0F0935411E0935311DF91CF91AF
:105850000895EA01CE17DF07E8F54A815B819E01D2
:1058600041155105B1F7E901FB83EA83499159914B
:10587000C40FD51FEC17FD0761F48081918102965A
:10588000840F951FE90199838883828193819B838B
:105890008A83F0E0E0E012968D919C911397009737
:1058A000B9F52D913C911197CD010296820F931F6E
:1058B00020915311309154112817390739F6309738
:1058C00051F51092561110925511B0935411A093A6
:1058D0005311BCCFD383C28340815181840F951F64
:1058E000C817D90761F44E5F5F4F88819981480FCF
:1058F000591F518340838A819B8193838283211521
:10590000310509F0B0CFF0935611E09355119ECFB9
:10591000FD01DC01C0CF13821282D7CF4F925F927C
:105920006F927F928F929F92AF92BF92CF92DF92AF
:10593000EF92FF920F931F93CF93DF938C01009709
:1059400099F4CB01DF91CF911F910F91FF90EF90D0
:10595000DF90CF90BF90AF909F908F907F906F908F
:105960005F904F900C94692BFC01E60FF71F9C0190
:1059700022503109E217F30708F4AEC0D901CD91E6
:10598000DC911197C617D70720F1C530D10578F003
:10599000CE0104978617970750F0C61BD70B2297A6
:1059A000C193D1936D937C93CF010E94052CC801C4
:1059B000DF91CF911F910F91FF90EF90DF90CF90EB
:1059C000BF90AF909F908F907F906F905F904F901F
:1059D00008955B01AC1ABD0A4C018C0E9D1EA0916E
:1059E0005511B0915611512C412CF12CE12C1097EE
:1059F00031F580915311909154118815990509F052
:105A00005CC04616570608F058C08091130290916A
:105A10001402009741F48DB79EB740911702509140
:105A20001802841B950BE817F90708F055C0F0938E
:105A30005411E0935311F90171836083B8CF8D91B4
:105A40009C91119712966C90129713967C901397D5
:105A5000A815B90559F56C0142E0C40ED11CCA1451
:105A6000DB0420F1AC014A195B09DA0112961597A3
:105A700080F06282738251834083D9016D937C935D
:105A8000E114F10471F0D7011396FC93EE93129791
:105A90008ECF22968C0F9D1FF90191838083F30195
:105AA000EFCFF0935611E093551181CF4816590668
:105AB00008F42C017D01D3019ACFCB010E94692B00
:105AC0007C01009749F0AE01B8010E946F2DC8011A
:105AD0000E94052C87016BCF10E000E068CFFB012E
