:100000000C9441010C9472010C9472010C947201D5
:100010000C9472010C9472010C9472010C94720194
:100020000C9472010C9472010C9472010C94720184
:100030000C9472010C9472010C9472010C94720174
:100040000C9472010C9472010C9472010C94720164
:100050000C9472010C9472010C9472010C944B0B71
:100060000C9472010C94BF0B0C94950B0C947201C0
:100070000C9472010C9472010C9472010C94720134
:100080000C9472010C9472010C9472010C94720124
:100090000C9472010C9472010C9472010C94720114
:1000A0000C9472010C9472010C9472010C94720104
:1000B0000C9472010C9472010C9472010C947201F4
:1000C0000C9472010C9472010C9472010C947201E4
:1000D0000C9472010C9472010C9472010C947201D4
:1000E0000C9472010C9413050C9444020C94A60514
:1000F0000C9425020C9452020C94F7050C946A029D
:100100000C9421050C9497020C942F020C94F50B7F
:100110000C9440020C94C8020C94BA040C94590537
:100120000C9460020C942B020C94FF040C944E026D
:100130000C94F8050C9466020C944A020C945C0230
:100140000C9408030C9437020C943A020C94650248
:100150000C9458020C9448070C9433020C94F0044D
:1001600000002100240027002A002D003000330069
:1001700001010000040107010A010000220025001E
:1001800028002B002E003100340002010000050180
:1001900008010B01000020002300260029002C008C
:1001A0002F003200000100000301060109010505CE
:1001B0000505070508080808020202020A0A0808DD
:1001C000040404040101010101010101030303030B
:1001D00003030303040707070C0C0C0C0C0C0C0C9A
:1001E0000202020206060606060606060B0B0B0BAB
:1001F0000B0B0B0B010210202008081020401020D0
:1002000040800201020108040201010204081020DA
:1002100040808040201008040201800402018040D8
:100220002010080402010804020101020408102041
:100230004080010204081020408000000A0B0209DF
:100240000C0D0E0807030401000000000000000070
:10025000000000000000000000000000000000009E
:10026000000000000000121110000000000000005B
:10027000000000000000000000000000000000007E
:10028000F50B11241FBECFEFD1E2DEBFCDBF00E0E2
:100290000CBF2BE0A0E3BAE001C01D92A13CB20765
:1002A000E1F71AE0A0E0B2E0E4E8F2E200E00BBF20
:1002B00002C007900D92A033B107D9F711E0C1E455
:1002C000D1E000E006C021970109802FFE010E94C5
:1002D000190FC034D10780E00807A9F70E94E80D84
:1002E0000C9440110C94000096E0899FD0011124D9
:1002F000A852B54F90967C936E935F9791E091963C
:100300009C939197E091450BF091460B9091440B93
:10031000992339F0309751F0811108C08091F40A87
:100320001994309719F05C968C91FACF0895CF927A
:10033000DF92EF92FF920F931F9396E0899FF00157
:100340001124E852F54F11A2278D30A1213031053B
:1003500051F178F02230310509F451C023303105D4
:1003600009F452C01F910F91FF90EF90DF90CF9052
:1003700008956623B9F361E070E00E9474012FB71D
:10038000F8948091370A9091380AA091390AB09177
:100390003A0A2FBF8093300B9093310BA093320B0E
:1003A000B093330BDFCF9FB7F894C090370AD0904B
:1003B000380AE090390AF0903A0A9FBF0091300B5A
:1003C0001091310B2091320B3091330BC01AD10AAE
:1003D000E20AF30A0091420B1091430B30E020E057
:1003E0000C151D052E053F0550F462E070E01F91CD
:1003F0000F91FF90EF90DF90CF900C9474016111FA
:10040000B1CF63E070E0F3CF70E060E0F0CF8150F7
:10041000823108F05AC0E82FF0E08827ED5EFD4FEA
:100420008F4F0C94190F3302370225022B022F0233
:1004300065023A02400244024A024E025202580247
:100440005C026502600266026A02809180008F771A
:10045000809380000895809180008F7DF9CF8091F6
:100460008000877FF5CF84B58F7784BD089584B5EC
:100470008F7DFBCF8091B0008F778093B00008957F
:100480008091B0008F7DF9CF809190008F7780931D
:1004900090000895809190008F7DF9CF8091900019
:1004A000877FF5CF8091A0008F778093A00008957B
:1004B0008091A0008F7DF9CF8091A000877FF5CF3C
:1004C000809120018F7780932001089580912001F1
:1004D0008F7DF9CF80912001877FF5CFCF93DF9378
:1004E000282F30E0F901E65CFD4F8491F901EC50D2
:1004F000FE4FD491F901E255FE4FC491CC23A1F0F7
:1005000081110E940702EC2FF0E0EE0FFF1FEC5666
:10051000FE4FA591B491EC91ED2381E090E009F4B8
:1005200080E0DF91CF91089580E090E0FACF862FB0
:100530000C946E021F93CF93DF93282F30E0F901C4
:10054000E65CFD4F8491F901EC50FE4FD491F90126
:10055000E255FE4FC491CC23A9F0162F81110E94C1
:100560000702EC2FF0E0EE0FFF1FE658FE4FA591BB
:10057000B4918FB7F894EC91111108C0D095DE2397
:10058000DC938FBFDF91CF911F910895DE2BF8CFC1
:10059000862F642F0C949A02CF93DF9390E0FC0196
:1005A000EC50FE4F249182559E4FFC01849188238C
:1005B000C9F090E0880F991FFC01E05AFE4FA59109
:1005C000B491FC01E658FE4FC591D49161110DC064
:1005D0009FB7F8948C91209582238C93888128234F
:1005E00028839FBFDF91CF910895623051F49FB768
:1005F000F8943C91822F809583238C93E8812E2B55
:10060000EFCF8FB7F894EC912E2B2C938FBFEACFBE
:10061000862F642F0C94CC026F927F928F929F92C0
:10062000AF92BF92CF92DF92EF92FF920F931F9300
:10063000CF93DF9381E08093440B8FB7F894409180
:10064000370A5091380A6091390A70913A0A8FBF7F
:100650008091340B9091350BA091360BB091370BF4
:10066000481B590B6A0B7B0B8091400B9091410BFF
:10067000B0E0A0E084179507A607B70708F01DC1F2
:10068000C0E080913E0BC81760F4E0913A0BF09106
:100690003B0BEC0FF11D62E080810E94CC02CF5F2A
:1006A000F0CF712C812C912C5401839480913F0BBD
:1006B000781608F05FC0072D10E0E0913C0BF09138
:1006C0003D0BE00FF11F61E080810E94CC02E091C0
:1006D0003C0BF0913D0BE00FF11F60E080810E9428
:1006E0009A02D501C401072C04C0880F991FAA1FC4
:1006F000BB1F0A94D2F76C017C01E094F094612C4A
:1007000080913E0B6816F8F4C62DD0E0E0913A0BCC
:10071000F0913B0BEC0FFD1F80810E946E0224962E
:10072000CC0FDD1FC852D54F892B41F488819981A8
:100730008C299D29998388836394E2CF888199814C
:100740008E219F21F7CFE0913C0BF0913D0BE00F04
:10075000F11F61E080810E949A0280913C0B909190
:100760003D0B080F191F60E0F80180810E94CC0248
:1007700073949CCFC8EDDAE0FE018FEF9FEF278DD9
:1007800030A1232B21F4148E968F858F11A23696DB
:100790002BE0E431F20799F7F12C96E0D92E809105
:1007A0003E0BF81608F050C0E12C0F2D10E0000FA2
:1007B000111F0052154F20913F0BE21608F042C066
:1007C000F801608171810E2C02C0769567950A94BC
:1007D000E2F7F29E900111242E0D311DE8EDFAE0B2
:1007E00080E0458D568D2417350709F46AC08F5F68
:1007F00036968A30B1F760FF23C0E8EDFAE090E06A
:1008000080E0448D411117C0E091380BF091390B15
:10081000E20FF31F4081D89EF001D99EF00D112404
:10082000E852F54F448F368F258F10A2178E61E066
:100830000E94970105C0019636968A30910509F706
:10084000E394B9CFF394ABCF80E099A19111892FB4
:100850002696FBE0C431DF07C1F79FB7F8944091BB
:10086000370A5091380A6091390A70913A0A9FBF4D
:100870004093340B5093350B6093360B7093370BCA
:100880008823D9F08091F90A8823B9F08091F70A7A
:100890009091F80A019789F48091F40ADF91CF9141
:1008A0001F910F91FF90EF90DF90CF90BF90AF908E
:1008B0009F908F907F906F9008951092440B80E0EE
:1008C000EDCF6170B5CF3FB7F8948091330A909126
:1008D000340AA091350AB091360A26B5A89B05C006
:1008E0002F3F19F00196A11DB11D3FBFBA2FA92FAF
:1008F000982F8827BC01CD01620F711D811D911DAC
:1009000042E0660F771F881F991F4A95D1F7089517
:100910008F929F92AF92BF92CF92DF92EF92FF920F
:100920004B015C010E9463046B017C010E94630423
:100930006C197D098E099F09683E734081059105F8
:10094000A8F321E0821A9108A108B10888EEC80E28
:1009500083E0D81EE11CF11C81149104A104B104B0
:1009600029F7FF90EF90DF90CF90BF90AF909F90CE
:100970008F900895AF92BF92CF92DF92EF92FF9245
:100980000F931F93CF93DF936C017B018B01040FB7
:10099000151FEB015E01AE18BF08C017D10759F053
:1009A0006991D601ED91FC910190F081E02DC60195
:1009B0001995892B79F7C501DF91CF911F910F917F
:1009C000FF90EF90DF90CF90BF90AF900895FC0123
:1009D000448155816081718185EA9BE00C94BA0461
:1009E000FC01538D448D252F30E0842F90E0821B35
:1009F000930B541710F0CF96089501970895FC01BA
:100A0000918D828D981761F0A28DAE0FBF2FB11D11
:100A10005D968C91928D9F5F9F73928F90E0089569
:100A20008FEF9FEF0895FC01918D828D981731F023
:100A3000828DE80FF11D858D90E008958FEF9FEF77
:100A40000895FC01918D228D892F90E0805C9F4F4D
:100A5000821B91098F73992708958BE39AE00E9476
:100A6000210521E0892B09F420E0822F0895FC0163
:100A7000A48DA80FB92FB11DA35ABF4F2C91848DFF
:100A800090E001968F739927848FA689B7892C935C
:100A9000A089B1898C91837080648C93938D848DAF
:100AA000981306C00288F389E02D80818F7D8083B2
:100AB0000895EF92FF920F931F93CF93DF93EC0172
:100AC00081E0888F9B8D8C8D98131AC0E889F989F5
:100AD000808185FF15C09FB7F894EE89FF896083F8
:100AE000E889F98980818370806480839FBF81E079
:100AF00090E0DF91CF911F910F91FF90EF900895BB
:100B0000F62E0B8D10E00F5F1F4F0F731127E02E95
:100B10008C8D8E110CC00FB607FCFACFE889F989CD
:100B2000808185FFF5CFCE010E943705F1CFEB8D97
:100B3000EC0FFD2FF11DE35AFF4FF0829FB7F894A1
:100B40000B8FEA89FB8980818062CFCFCF93DF93BF
:100B5000EC01888D8823B9F0AA89BB89E889F989D5
:100B60008C9185FD03C0808186FD0DC00FB607FC0A
:100B7000F7CF8C9185FFF2CF808185FFEDCFCE013D
:100B80000E943705E9CFDF91CF91089580E090E092
:100B9000892B29F00E942D0581110E94000080E020
:100BA00090E0892B49F080E090E0892B29F00E94A9
:100BB000000081110E94000080E090E0892B49F044
:100BC00080E090E0892B29F00E94000081110E94B2
:100BD000000080E090E0892B49F080E090E0892BD4
:100BE00029F00E94000081110C94000008950895DE
:100BF00090E080E00895CF93DF93EC018A8181112A
:100C00000AC088810E946E02019729F481E08A83DC
:100C1000DF91CF9108958A81811102C080E0F8CFE1
:100C200088810E946E02892BC9F71A82F7CF4F92F2
:100C30005F926F927F928F929F92AF92BF92CF926C
:100C4000DF92EF92FF920F931F93CF93DF931F9248
:100C50001F92CDB7DEB78C0149832A83660F771FB9
:100C6000F801EA5AFF4FE080F180EE0CFF1CF8011A
:100C7000CF01801B910B8E159F0514F41192F8CFB4
:100C80008981F801E60FF71F81838A8180836801DB
:100C900084E5C80ED11C60E0F60180810E949A02B2
:100CA0005801F2E5AF0EB11C480180E5880E911C99
:100CB0001E141F040CF5E1E0EE1AF108F801EE0D28
:100CC000FF1D6080F5015080F401408088E0782E9F
:100CD000662D661F6627661F842D0E949A02660C89
:100CE00061E0852D0E949A0260E0852D0E949A02A3
:100CF0007A947110EDCFDCCF61E0F60180810F9026
:100D00000F90DF91CF911F910F91FF90EF90DF90A7
:100D1000CF90BF90AF909F908F907F906F905F909B
:100D20004F900C949A02CF93DF93EC0160E08E8198
:100D30000E949A0261E08E810E949A0260E08E8198
:100D40000E949A028BE891E00197F1F7DF91CF9131
:100D50000895CF92DF92EF92FF920F931F93CF935C
:100D6000DF936C017C0187E0E80EF11CD0E0C0E06D
:100D7000062F10E0B8010C2E02C0759567950A94F5
:100D8000E2F76170F70181917F010E949A0221963A
:100D9000C430D10579F7C601DF91CF911F910F9132
:100DA000FF90EF90DF90CF900C949306CF92DF925C
:100DB000EF92FF920F931F93CF93DF93EC01F62EE8
:100DC000642F8C810E949A028D818F3F19F060E020
:100DD0000E949A020F2D10E08F8584FF25C06E01BE
:100DE00087E0C80ED11CF12CE12CB8010E2C02C0FA
:100DF000759567950A94E2F76170F60181916F012C
:100E00000E949A02FFEFEF1AFF0A88E0E816F10449
:100E100061F7CE01DF91CF911F910F91FF90EF907D
:100E2000DF90CF900C949306B80184E07595679598
:100E30008A95E1F7CE010E94A9066F2DCE01DF91C0
:100E4000CF911F910F91FF90EF90DF90CF900C9476
:100E5000A90640E0682F85EA9BE00C94D60681E065
:100E60000E9429078BE39FE10197F1F708958430F1
:100E700008F083E09091B80B891710F08FEF890F7D
:100E8000E82FF0E0EB55F44F848980680C94290733
:100E900041E00E94D60681E090E00895FB010190B8
:100EA0000020E9F73197AF01461B570BDC01ED91AC
:100EB000FC910280F381E02D19940C944E070E945E
:100EC0002F0780E00E94370768E279E085EA9BE01F
:100ED0000E945D076CE271E080E090E00E9488046F
:100EE00081E00E94370763E379E085EA9BE00E9496
:100EF0005D076CE271E080E090E00E94880482E08F
:100F00000E94370764E479E085EA9BE00E945D0770
:100F10006CE271E080E090E00E94880483E00E942F
:100F2000370765E579E085EA9BE00E945D076CE2A2
:100F300071E080E090E00E94880484E00E9437071E
:100F400064E679E085EA9BE00E945D076CE271E06F
:100F500080E090E00E94880485E00E94370762E705
:100F600079E085EA9BE00E945D078AE49BE00E94AD
:100F7000FB058823D1F381E090E09093310A8093C0
:100F8000300A0895FC0180819181009711F00C9442
:100F9000BD0F0895DC0114968D919C9115976817EB
:100FA000790750F4ED91FC911197E60FF71F159614
:100FB0007C936E93149710820895FC0124813581EF
:100FC000232B39F421E0FB018081882349F020E0C4
:100FD00007C0808191810E94301121E0892BB9F7EF
:100FE000822F08950F931F93CF93DF93EC01888195
:100FF0009981009759F02A813B812617370730F0F5
:1010000081E0DF91CF911F910F9108958B016F5F68
:101010007F4F0E944610009759F0998388831B8365
:101020000A832C813D81232B59F7FC011082E8CFE4
:1010300080E0E7CFCF93DF93EC01198218821B8207
:101040001A821D821C8270E060E00E94F2072881F3
:10105000398181110FC02115310519F0C9010E9494
:10106000BD0F198218821D821C821B821A82DF9199
:10107000CF9108951D821C8261E17AE0C901DF9160
:10108000CF910C943911EF92FF920F931F93CF934E
:10109000DF931F921F92CDB7DEB78C0169831A824E
:1010A000FC01E480F580FFEFEF1AFF0AB7010E9410
:1010B000F207882381F0F8012081318184819581B4
:1010C000BE016F5F7F4F820F931F0E943911F8019D
:1010D000F582E48281E00F900F90DF91CF911F9114
:1010E0000F91FF90EF9008952F923F924F925F9251
:1010F0006F927F928F929F92AF92BF92CF92DF9228
:10110000EF92FF920F931F93CF93DF93CDB7DEB78C
:10111000C45CD1090FB6F894DEBF0FBECDBF0E94EC
:101120002F0780E00E94370761E879E085EA9BE0BD
:101130000E945D076CE271E080E090E00E9488040C
:1011400081E00E94370760E979E085EA9BE00E9430
:101150005D076CE271E080E090E00E94880482E02C
:101160000E94370769E979E085EA9BE00E945D0704
:101170006CE271E080E090E00E9488040E942F07FA
:1011800080E00E94370765EA79E085EA9BE00E94EB
:101190005D07CE0181549F4F0E941A080E940C03E4
:1011A0008823C1F0CD53DF4F28813981C35CD04003
:1011B0002230310508F048C0682FCE0181549F4F7E
:1011C0000E94430881E00E943707CE0181549F4F5F
:1011D0000E94E7048AE49BE00E94FB05882361F0FB
:1011E0006EE27AE0CE0181549F4F0E94DD07882392
:1011F00009F44CC00E94700A87E49BE00E94FB0542
:10120000882361F2CD53DF4F68817981C35CD04080
:101210006115710519F261507109CE0181549F4F1A
:101220000E94CA0781E00E9437076DEA79E085EAEB
:101230009BE00E945D0781E00E943707CE01815448
:101240009F4F0E94E704AACF81E00E9437076DEA12
:1012500079E085EA9BE00E945D0781E00E94370704
:101260006EEB79E085EA9BE00E945D0768EE73E033
:1012700080E090E00E94880481E00E9437076DEAD8
:1012800079E085EA9BE00E945D079CCF62EC79E003
:10129000CE0181549F4F0E94DD078111FFC060E79E
:1012A00079E0CE0181549F4F0E94DD07882309F425
:1012B000F8C00E942F07CE0187549F4F0E941A0842
:1012C00010E000E05E0189E9A80EB11C4E0199E52D
:1012D000890E911C99E1392E20E8422E512CF801FB
:1012E00085E0EE0FFF1F8A95E1F7E05EFA4F80E29E
:1012F000D50101900D928A95E1F788E5EDE4FBE0D8
:10130000DE01119601900D928A95E1F7F40180E4D7
:1013100011928A95E9F7309EC001319E900D1124FB
:10132000875E9D4F3401B401685D7F4FA40130E0BA
:1013300020E0FA01E20FF31FDC01A20FB31FAC9112
:10134000A18B2F5F3F4F2530310599F70596485FF8
:101350005F4F4617570759F7FE0131967F01222448
:101360002394D12CC12C69968EAD9FAD6997181628
:101370001906D4F4C2010C2C02C0959587950A94E5
:10138000E2F7F7012089F301EC0DFD1D30813323D5
:1013900089F1822BF701808B2089422D70E060E07B
:1013A000CE0101960E941706FFEFCF1ADF0A88E0F0
:1013B000C816D104C1F69FEFE91AF90A2394E8E0B0
:1013C0006E0E711CF9E02F12CCCF0E940C03882303
:1013D00009F485CF8A338CF481330CF058C0833202
:1013E000A1F08033D1F062E370E080E090E00E94F1
:1013F000880475CF80958223CDCF8835A1F7015021
:10140000110988F70EE110E0EECF0F5F1F4F0F318B
:10141000110549F710E000E0E6CFF501019000204A
:10142000E9F73197EA19FB0939F1C354DF4FE88036
:10143000F980CD5BD040EE0EFF1EB701CE01875480
:101440009F4F0E94F2078823B9F0C754DF4F2881CD
:101450003981C95BD040C354DF4F88819981CD5B0E
:10146000D040B501820F931F0E943911C354DF4F42
:10147000F982E882CD5BD0400E942F0780E00E9475
:101480003707CE0187549F4F0E94E704ACCF682FE7
:10149000CE0187549F4F0E944308EECF0E947408EC
:1014A000ABCECE0181549F4F0E94C207CC53DF4F79
:1014B0000FB6F894DEBF0FBECDBFDF91CF911F9165
:1014C0000F91FF90EF90DF90CF90BF90AF909F90E3
:1014D0008F907F906F905F904F903F902F900895E6
:1014E000CF93DF9300D000D0CDB7DEB70E942F0797
:1014F00080E00E94370764EC79E085EA9BE00E9477
:101500005D076CE271E080E090E00E9488040E9438
:101510002F0780E00E9437076FEC79E085EA9BE0B7
:101520000E945D0781E00E9437076DED79E085EA52
:101530009BE00E945D076CE271E080E090E00E9419
:10154000880482E00E94370762EE79E085EA9BE03A
:101550000E945D0783E00E9437076FEE79E085EA1D
:101560009BE00E945D076CE271E080E090E00E94E9
:1015700088040E942F0780E00E94370765EA79E01F
:1015800085EA9BE00E945D07CE0101960E941A0841
:101590000E940C03882391F02D813E812230310579
:1015A00008F03FC0682FCE0101960E94430881E0F9
:1015B0000E943707CE0101960E94E7048AE49BE06F
:1015C0000E94FB05882359F06EE27AE0CE01019675
:1015D0000E94DD07882309F446C00E945F0787E464
:1015E0009BE00E94FB05882399F26D817E81611545
:1015F000710571F261507109CE0101960E94CA070E
:1016000081E00E9437076DEA79E085EA9BE00E945D
:101610005D0781E00E943707CE0101960E94E70432
:10162000B7CF81E00E9437076DEA79E085EA9BE059
:101630000E945D0781E00E9437076EEB79E085EA42
:101640009BE00E945D0768EE73E080E090E00E94FE
:10165000880481E00E9437076DEA79E085EA9BE023
:101660000E945D07A4CF62EC79E0CE0101960E9452
:10167000DD07882319F00E947408B1CFCE010196CE
:101680000E94C20726960FB6F894DEBF0FBECDBFEC
:10169000DF91CF9108951F920F920FB60F921124F0
:1016A0002F933F938F939F93AF93BF938091370A6C
:1016B0009091380AA091390AB0913A0A3091320AD1
:1016C00023E0230F2D3758F50196A11DB11D20935E
:1016D000320A8093370A9093380AA093390AB0935C
:1016E0003A0A8091330A9091340AA091350AB09158
:1016F000360A0196A11DB11D8093330A9093340AD6
:10170000A093350AB093360ABF91AF919F918F9104
:101710003F912F910F900FBE0F901F90189526E8C4
:10172000230F0296A11DB11DD2CF1F920F920FB6AB
:101730000F9211240BB60F922F933F934F935F9309
:101740006F937F938F939F93AF93BF93EF93FF9389
:101750008BE39AE00E943705FF91EF91BF91AF9123
:101760009F918F917F916F915F914F913F912F91B9
:101770000F900BBE0F900FBE0F901F9018951F92E9
:101780000F920FB60F9211240BB60F922F938F93D7
:101790009F93EF93FF93E0914B0AF0914C0A808165
:1017A000E091510AF091520A82FD1DC09081809112
:1017B000540A8F5F8F732091550A821741F0E09190
:1017C000540AF0E0E55CF54F958F8093540AFF9141
:1017D000EF919F918F912F910F900BBE0F900FBEA5
:1017E0000F901F9018958081F2CFEF92FF921F9378
:1017F000CF93DF9310923E0A10923D0A88EE93E059
:10180000A0E0B0E080933F0A9093400AA093410A81
:10181000B093420A84E099E090933C0A80933B0A9B
:1018200085EC90E09093480A8093470A84EC90E01E
:1018300090934A0A8093490A80EC90E090934C0A76
:1018400080934B0A81EC90E090934E0A80934D0A6E
:1018500082EC90E09093500A80934F0A86EC90E0DF
:101860009093520A8093510A1092540A1092550A8A
:101870001092560A1092570A1092A80B1092A70BBA
:1018800080E299E09093A60B8093A50B8CE0809367
:10189000A90B8FEF8093AA0B8BE08093AB0B85E0B5
:1018A0008093AC0B84E08093AD0B83E08093AE0B10
:1018B00082E08093AF0B1092B00B1092B10B10929C
:1018C000B20B1092B30B1092B40B81E08093B80B63
:1018D0001092B90B80E48093BA0B80E18093BB0B2C
:1018E00080E58093BC0B61E08CE00E94CC0280918B
:1018F000AA0B8F3F19F061E00E94CC0261E0809159
:10190000AB0B0E94CC02C5EADBE09E01255A3B40AE
:101910008091B40B84FD0BC084E090E021962817E1
:10192000390744F461E08E810E94CC02EECF88E05A
:1019300090E0F4CF8BE39DE00197F1F760E08091B8
:10194000A90B0E949A0260E08091AB0B0E949A0260
:101950008091AA0B8F3F19F060E00E949A0280915B
:10196000B40B84FDBEC063E085EA9BE00E94A9063B
:10197000CBE4D6E4CE010197F1F763E085EA9BE082
:101980000E94A9062197F1F763E085EA9BE00E9497
:10199000A90683E592E00197F1F762E085EA9BE012
:1019A0000E94A9068091B40B80620E94290784E0FE
:1019B0008093B50B8CE00E9429070E942F0782E0DC
:1019C0008093B60B86E00E942907CAE0D0E0D0934E
:1019D0009E0BC0939D0B88E090E09093A00B8093AA
:1019E0009F0B89E090E09093A20B8093A10B81E084
:1019F00090E09093A40B8093A30B61E08AE00E9497
:101A0000CC0261E080919F0B0E94CC0261E080914A
:101A1000A10B0E94CC0261E08091A10B0E949A026E
:101A2000D0939E0BC0939D0BEDE5FBE08DE99BE011
:101A300011928E179F07E1F7D0E0C0E08091A30BD1
:101A40009091A40BC817D9070CF061C020E04FE0BB
:101A5000BE018DE49BE00E9417068091A30B90913C
:101A6000A40BC817D9073CF427E04BE0BE018DE476
:101A70009BE00E94170620E049E0BE018DE49BE058
:101A80000E9417068091A30B9091A40BC817D90749
:101A9000C4F4CE0123E0880F991F2A95E1F79C0139
:101AA000235A344F790111E0F70111927F0120E0B0
:101AB000412FBE018DE49BE00E9417061F5F193085
:101AC00099F78091A30B9091A40BC817D9073CF408
:101AD00020E04CE0BE018DE49BE00E9417062196B9
:101AE000ADCF80620E9429078BE496E40197F1F75D
:101AF0008091B40B80620E94290783E592E00197F0
:101B0000F1F78091B40B80620E9429074BCF1092AD
:101B10004C0B87E190E090934B0B80934A0B109213
:101B2000490B88E190E09093480B8093470B10920B
:101B3000DA0A1092DE0A1092DD0A1092DF0A86E1BC
:101B400099E09093D90A8093D80AE4EFFAE01082E2
:101B500014821382158236962BE0E033F207B9F730
:101B600083E092E090933B0B80933A0B80E092E00D
:101B700090933D0B80933C0B84E080933E0B83E07D
:101B800080933F0B87E092E09093390B8093380B62
:101B90008AE090E09093410B8093400B84EF91E0BA
:101BA0009093430B8093420B1092460B1092450B7F
:101BB0001092340B1092350B1092360B1092370B9B
:101BC0001092440BDF91CF911F91FF90EF900895F9
:101BD000CF93DF93CDB7DEB76B970FB6F894DEBF28
:101BE0000FBECDBF789484B5826084BD84B581601A
:101BF00084BD85B5826085BD85B5816085BD8091D8
:101C00006E00816080936E0010928100809181004F
:101C10008260809381008091810081608093810047
:101C2000809180008160809380008091B100846009
:101C30008093B1008091B00081608093B00080916A
:101C400091008260809391008091910081608093E7
:101C50009100809190008160809390008091A1001C
:101C600082608093A1008091A10081608093A10097
:101C70008091A00081608093A0008091210182600A
:101C800080932101809121018160809321018091C5
:101C9000200181608093200180917A00846080938C
:101CA0007A0080917A00826080937A0080917A0035
:101CB000816080937A0080917A00806880937A00B6
:101CC0001092C100E0914B0AF0914C0A82E08083AF
:101CD000E091470AF091480A1082E091490AF09198
:101CE0004A0A8FEC80831092530AE0914F0AF091D8
:101CF000500A86E08083E0914D0AF0914E0A80817F
:101D000080618083E0914D0AF0914E0A8081886065
:101D10008083E0914D0AF0914E0A80818068808333
:101D2000E0914D0AF0914E0A80818F7D808389E099
:101D3000E7E2FAE0DE01539601900D928A95E1F711
:101D40008E01065F1F4FBE016D5E7F4FC8010E946E
:101D50003911F80101900020E9F73197AF01401BDC
:101D6000510BD80198E09D01201B310B241735073A
:101D700044F48D919D01215031098927F901808317
:101D8000F2CF6DEF79E08BE39AE00E945D07B80136
:101D90008BE39AE00E944E076FE07AE08BE39AE0D3
:101DA0000E944E07B8018E010F5F1F4FC8010E94AD
:101DB0003911F80101900020E9F73197AF01401B7C
:101DC000510BD80198E09D01201B310B24173507DA
:101DD00044F48D919D01215031098927F9018083B7
:101DE000F2CF62E17AE08BE39AE00E945D07B801EE
:101DF0008BE39AE00E944E076FE07AE08BE39AE073
:101E00000E944E078091300A9091310A81309105ED
:101E100051F08230910551F0892B11F40E945F0737
:101E20000E94C605EFCF0E947408FACF0E94700A84
:101E3000F7CFEE0FFF1F881F8BBF0790F691E02DA5
:101E400019940F931F93CF93DF938230910510F471
:101E500082E090E0E091BF0BF091C00B30E020E019
:101E6000B0E0A0E0309799F42115310509F44AC09B
:101E7000281B390B24303105D8F58A819B816115E7
:101E8000710589F1FB0193838283FE0111C04081BA
:101E900051810281138148175907E0F0481759070B
:101EA00099F4109761F012960C93129713961C9365
:101EB0003296CF01DF91CF911F910F91089500933A
:101EC000BF0B1093C00BF4CF2115310551F0421711
:101ED000530738F0A901DB019A01BD01DF01F801C8
:101EE000C1CFEF01F9CF9093C00B8093BF0BCDCF43
:101EF000FE01E20FF31F8193919322503109398340
:101F00002883D7CF2091BD0B3091BE0B232B41F4FA
:101F100020911502309116023093BE0B2093BD0B19
:101F200020911302309114022115310541F42DB78F
:101F30003EB74091170250911802241B350BE091D7
:101F4000BD0BF091BE0BE217F307A0F42E1B3F0B65
:101F50002817390778F0AC014E5F5F4F241735071B
:101F600048F04E0F5F1F5093BE0B4093BD0B819303
:101F700091939FCFF0E0E0E09CCFCF93DF93009769
:101F8000E9F0FC01329713821282A091BF0BB0914D
:101F9000C00BED0130E020E01097A1F420813181E9
:101FA000820F931F2091BD0B3091BE0B281739076C
:101FB00009F061C0F093BE0BE093BD0BDF91CF91B0
:101FC0000895EA01CE17DF07E8F54A815B819E019B
:101FD00041155105B1F7E901FB83EA834991599114
:101FE000C40FD51FEC17FD0761F480819181029623
:101FF000840F951FE90199838883828193819B8354
:102000008A83F0E0E0E012968D919C9113970097FF
:10201000B9F52D913C911197CD010296820F931F36
:102020002091BD0B3091BE0B2817390739F6309738
:1020300051F51092C00B1092BF0BB093BE0BA09342
:10204000BD0BBCCFD383C28340815181840F951FC8
:10205000C817D90761F44E5F5F4F88819981480F97
:10206000591F518340838A819B81938382832115E9
:10207000310509F0B0CFF093C00BE093BF0B9ECFBA
:10208000FD01DC01C0CF13821282D7CF4F925F9245
:102090006F927F928F929F92AF92BF92CF92DF9278
:1020A000EF92FF920F931F93CF93DF938C010097D2
:1020B00099F4CB01DF91CF911F910F91FF90EF9099
:1020C000DF90CF90BF90AF909F908F907F906F9058
:1020D0005F904F900C94210FFC01E60FF71F9C01BD
:1020E00022503109E217F30708F4AEC0D901CD91AF
:1020F000DC911197C617D70720F1C530D10578F0CC
:10210000CE0104978617970750F0C61BD70B22976E
:10211000C193D1936D937C93CF010E94BD0FC801F1
:10212000DF91CF911F910F91FF90EF90DF90CF90B3
:10213000BF90AF909F908F907F906F905F904F90E7
:1021400008955B01AC1ABD0A4C018C0E9D1EA09136
:10215000BF0BB091C00B512C412CF12CE12C1097EE
:1021600031F58091BD0B9091BE0B8815990509F052
:102170005CC04616570608F058C080911302909133
:102180001402009741F48DB79EB740911702509109
:102190001802841B950BE817F90708F055C0F09357
:1021A000BE0BE093BD0BF90171836083B8CF8D91B5
:1021B0009C91119712966C90129713967C9013979E
:1021C000A815B90559F56C0142E0C40ED11CCA141A
:1021D000DB0420F1AC014A195B09DA01129615976C
:1021E00080F06282738251834083D9016D937C9326
:1021F000E114F10471F0D7011396FC93EE9312975A
:102200008ECF22968C0F9D1FF90191838083F3015D
:10221000EFCFF093C00BE093BF0B81CF4816590668
:1022200008F42C017D01D3019ACFCB010E94210F2C
:102230007C01009749F0AE01B8010E942711C80146
:102240000E94BD0F87016BCF10E000E068CFFB015B
:10225000DC0102C001900D9241505040D8F7089522
:10226000FB01DC018D91019080190110D9F3990BCC
:102270000895FB01DC0101900D920020E1F7089523
:04228000F894FFCF00
:102284001E1F201A1B1C1D313233343536373839A2
:102294005830230000C10B8000000101010001003F
:1022A4000000010101010101010000000101000021
:1022B400000101010101000100000001010101010F
:1022C40000010000000101010101000101010101FF
:1022D40001000000000100000000010000000001F6
:1022E40001010101010101010001000000010100DF
:1022F40000000101000000010101010100010101D0
:1023040001010100000000010101010101000000C0
:1023140000010101010101010101010100000000AE
:1023240001010101010100000000010000000000A2
:10233400010101010100000000010001010101008F
:102344000000010001010101010000000101000081
:102354000001010101010101000000010100000070
:102364000101010101010000010000000001000061
:10237400000001000001010101010101010101004E
:102384000001000000000100000000010000010144
:102394000000000100000100010001000001010033
:1023A4000000010001000001000001000100000024
:1023B4000001000000000100000000010000000016
:1023C40001010101010101000101010001000101FC
:1023D40000000001010000000101000000010100F3
:1023E40000000101010000010100010001010000E1
:1023F40001010100000001000001010001010000D1
:1024040001010001000101000001010100000001BF
:1024140000010101000100000001010000000101B0
:1024240000000001000101010000010101000100A0
:102434000000010101010100010000000001000091
:102444000000000101010001000000010100000082
:10245400010100010001000101010101010101006C
:10246400010000000101010101000100000100015F
:102474000000000100010101010100000000000151
:10248400010100000000000101010101000101013E
:102494000101000001000000000100000000010033
:1024A4000000000100000100000001010000000123
:1024B4000100000001010000000100010101000110
:1024C4000000000101000000010100000001000102
:1024D40000010000000100000100000001010000F3
:1024E40000010100000001010001000101010001DF
:1024F40001010000000100010001000000010000D2
:1025040000010001000100000001010000000100C1
:1025140001000100000001000000000100000000B3
:10252400010000010101010100000001000000019F
:10253400000000010000000101010101010001008F
:10254400010001010100000001000000010101007F
:10255400010001000100010001000101010101006D
:10256400010001000101010101000100010000015D
:10257400010101010001000000010101000000014E
:102584000001010101010000000100000000010040
:102594000000000100000000000000000001000035
:1025A40061000000000000000000000000000000C6
:1025B4000000000000000000000000000000000017
:1025C40062000000000000000000000000000000A5
:1025D40000000000000000000000000000000100F6
:1025E4006300000000000000000000000000000084
:1025F40000000000000000000000000000000200D5
:102604006400000000000000000000000000000062
:1026140000000000000000000000000000000300B3
:102624006500000000000000000000000000000041
:102634000000000000000000000000000000040092
:102644006600000000000000000000000000000020
:102654000000000000000000000000000000050071
:1026640067000000000000000000000000000000FF
:102674000000000000000000000000000000060050
:1026840068000000000000000000000000000000DE
:10269400000000000000000000000000000007002F
:1026A40069000000000000000000000000000000BD
:1026B400000000000000000000000000000008000E
:1026C4006A0000000000000000000000000000009C
:1026D40000000000000000000000000000000900ED
:1026E4006B0000000000000000000000000000007B
:1026F40000000000000000000000000000000A00CC
:102704006C00000000000000000000000000000059
:1027140000000000000000000000000000000B00AA
:102724006D00000000000000000000000000000038
:1027340000000000000000000000000000000C0089
:102744006E00000000000000000000000000000017
:1027540000000000000000000000000000000D0068
:10276400C3B10000000000000000000000000000F1
:1027740000000000000000000000000000000E0047
:102784006F000000000000000000000000000000D6
:1027940000000000000000000000000000000F0026
:1027A40070000000000000000000000000000000B5
:1027B4000000000000000000000000000000100005
:1027C4007100000000000000000000000000000094
:1027D40000000000000000000000000000001100E4
:1027E4007200000000000000000000000000000073
:1027F40000000000000000000000000000001200C3
:102804007300000000000000000000000000000051
:1028140000000000000000000000000000001300A1
:102824007400000000000000000000000000000030
:102834000000000000000000000000000000140080
:10284400750000000000000000000000000000000F
:10285400000000000000000000000000000015005F
:1028640076000000000000000000000000000000EE
:10287400000000000000000000000000000016003E
:1028840077000000000000000000000000000000CD
:10289400000000000000000000000000000017001D
:1028A40078000000000000000000000000000000AC
:1028B40000000000000000000000000000001800FC
:1028C400790000000000000000000000000000008B
:1028D40000000000000000000000000000001900DB
:1028E4007A0000000000000000000000000000006A
:1028F40000000000000000000000000000001A00BA
:102904002A00000000000000000000000000000099
:1029140000000000000000000000000000001B0098
:102924002300000000000000000000000000000080
:1029340000000000000000000000000000001C0077
:10294400240000000000000000000000000000005F
:1029540000000000000000000000000000001D0056
:102964002100000000000000000000000000000042
:1029740000000000000000000000000000001E0035
:10298400000000005905BA04F004A6052105FF045F
:102994001305000000000803C802970200000000AD
:1029A4004807BA04F805F7054269656E76656E69ED
:1029B400646F00526F626572746F3230323030303F
:1029C400353434004564676172646F3230313830B5
:1029D4003131313900436573617232303230313014
:1029E400383136004A6F7365323032303031383026
:1029F4003000416E67656C323032303132303339F9
:102A0400004D656E75205072696E636970616C006B
:102A1400312E204C6F67696E00322E205265676933
:102A24007374726F004F7063696F6E3A00202020D8
:102A340020202020202020202020202020004D4164
:102A4400580032004D656E752041444D494E0031A9
:102A54002E20646973706C6179206465006C6F6703
:102A64007300322E20636865636B2064656C0073A9
:102A7400797374656D20737461747573004D656E3C
:102A840073616A65206369667261646F3A20000D40
:102A94000A004D656E73616A6520646573636966D7
:102AA4007261646F3A200034393530373433310081
:00000001FF
