:100000000C945C010C948D010C948D010C948D0169
:100010000C948D010C948D010C948D010C948D0128
:100020000C948D010C948D010C948D010C948D0118
:100030000C948D010C948D010C948D010C948D0108
:100040000C948D010C948D010C948D010C948D01F8
:100050000C948D010C948D010C948D010C94B61CA4
:100060000C948D010C948A1D0C94601D0C948D01D0
:100070000C948D010C948D010C948D010C948D01C8
:100080000C948D010C948D010C948D010C948D01B8
:100090000C942A1D0C94001D0C948D010C948D0160
:1000A0000C948D010C948D010C948D010C948D0198
:1000B0000C948D010C948D010C948D010C948D0188
:1000C0000C948D010C948D010C948D010C948D0178
:1000D0000C948D010C948D010C948D010C948D0168
:1000E0000C948D010C94BC250C94F1260C949A026E
:1000F0000C94D8220C9427290C9416020C94852475
:100100000C94E4040C94452D0C9401020C94DA0236
:100110000C9497050C9475280C94532E0C94200283
:100120000C9469020C94FD010C94E5040C942E02CD
:100130000C9473060C9473220C9412020C942A05EE
:100140000C94F7010C9452090C94C01D0C940C02F1
:100150000C941B050C9424020C94B9250C942606CF
:100160000C943C020C94B4250C94512A0C941C025F
:100170000C9432020C94D9050C947C2F0C942A0216
:100180000C9437020C9405020C9438020C9409026A
:100190000C94890500002100240027002A002D006E
:1001A0003000330001010000040107010A010000D2
:1001B0002200250028002B002E003100340002010F
:1001C0000000050108010B010000200023002600AB
:1001D00029002C002F00320000010000030106015D
:1001E00009010505050507050808080802020202BD
:1001F0000A0A0808040404040101010101010101C3
:100200000303030303030303040707070C0C0C0C8D
:100210000C0C0C0C02020202060606060606060676
:100220000B0B0B0B0B0B0B0B010210202008081003
:100230002040102040800201020108040201010256
:10024000040810204080804020100804020180042F
:10025000020180402010080402010804020101028A
:100260000408102040800102040810204080000093
:100270000A0B02090C0D0E08070304010000000020
:10028000000000000000000000000000000000006E
:10029000000000000000000000001211100000002B
:1002A000000000000000000000000000000000004E
:1002B00000000000C01D7C2F11241FBECFEFD1E233
:1002C000DEBFCDBF00E00CBF21E1A8E8BFE001C068
:1002D0001D92AC3EB207E1F71FE0A0E0B2E0ECE413
:1002E000F4E600E00BBF02C007900D92A838B107FA
:1002F000D9F711E0CBE5D1E000E006C02197010974
:10030000802FFE010E94ED2FCA35D10780E008073B
:10031000A9F70E94451F0C9414320C940000FC01B4
:10032000A089B18982E08C93A485B5851C92A685AD
:10033000B7858FEC8C93108EA489B58986E08C9359
:10034000A289B3898C9180618C93A289B3898C91A5
:1003500088608C93A289B3898C9180688C93028881
:10036000F389E02D80818F7D8083089596E0899FB9
:10037000D0011124A350BF4E90967C936E935F974B
:1003800091E091969C939197E0916A11F0916B1195
:1003900090916911992339F0309751F0811108C07B
:1003A000809119111994309719F05C968C91FACFBD
:1003B00008958150823108F05AC0E82FF0E0882774
:1003C000EB51FE4F8F4F0C94ED2F05020902F70100
:1003D000FD01010237020C02120216021C02200269
:1003E00024022A022E023702320238023C02809195
:1003F00080008F77809380000895809180008F7DAA
:10040000F9CF80918000877FF5CF84B58F7784BD49
:10041000089584B58F7DFBCF8091B0008F77809356
:10042000B00008958091B0008F7DF9CF8091900049
:100430008F77809390000895809190008F7DF9CF01
:1004400080919000877FF5CF8091A0008F77809377
:10045000A00008958091A0008F7DF9CF8091A00029
:10046000877FF5CF809120018F77809320010895B9
:10047000809120018F7DF9CF80912001877FF5CF7A
:10048000CF93DF93282F30E0F901E259FD4F84919B
:10049000F901E85DFD4FD491F901EE51FE4FC49191
:1004A000CC23A1F081110E94D901EC2FF0E0EE0FD6
:1004B000FF1FE853FE4FA591B491EC91ED2381E02D
:1004C00090E009F480E0DF91CF91089580E090E022
:1004D000FACF862F0C9440021F93CF93DF93282FDF
:1004E00030E0F901E259FD4F8491F901E85DFD4FDB
:1004F000D491F901EE51FE4FC491CC23A9F0162FEF
:1005000081110E94D901EC2FF0E0EE0FFF1FE255A0
:10051000FE4FA591B4918FB7F894EC91111108C0DA
:10052000D095DE23DC938FBFDF91CF911F9108958B
:10053000DE2BF8CF862F642F0C946C02CF93DF93C1
:1005400090E0FC01E85DFD4F24918E519E4FFC012F
:1005500084918823C9F090E0880F991FFC01EC5624
:10056000FE4FA591B491FC01E255FE4FC591D49187
:1005700061110DC09FB7F8948C91209582238C93C4
:100580008881282328839FBFDF91CF91089562300F
:1005900051F49FB7F8943C91822F809583238C93DC
:1005A000E8812E2BEFCF8FB7F894EC912E2B2C9364
:1005B0008FBFEACF862F642F0C949E023FB7F8942A
:1005C0008091B40F9091B50FA091B60FB091B70F75
:1005D00026B5A89B05C02F3F19F00196A11DB11D9E
:1005E0003FBFBA2FA92F982F8827BC01CD01620FDA
:1005F000711D811D911D42E0660F771F881F991F95
:100600004A95D1F708958F929F92AF92BF92CF9261
:10061000DF92EF92FF924B015C010E94DE026B01C0
:100620007C010E94DE026C197D098E099F09683EDB
:10063000734081059105A8F321E0821A9108A10871
:10064000B10888EEC80E83E0D81EE11CF11C8114AD
:100650009104A104B10429F7FF90EF90DF90CF90AF
:10066000BF90AF909F908F9008952FB7F8946091AE
:10067000B00F7091B10F8091B20F9091B30F2FBF57
:1006800008950F931F93CF93DF93C82FD62F86E043
:10069000C89FF0011124E350FF4E11A2878D90A155
:1006A00081309105F1F058F082309105F1F1039716
:1006B00009F440C0DF91CF911F910F9108956623F7
:1006C000C9F361E070E08C2F0E94B6010E943503EF
:1006D0006093551170935611809357119093581150
:1006E000E9CF0E94350300915511109156112091C8
:1006F000571130915811AB01BC01401B510B620BDB
:10070000730B8091671190916811B0E0A0E084179D
:100710009507A607B70748F462E070E08C2FDF91D9
:10072000CF911F910F910C94B60163E070E0D1114D
:10073000C1CFF4CF70E060E0F1CF6F927F928F92E3
:100740009F92AF92BF92CF92DF92EF92FF920F9360
:100750001F93CF93DF9381E0809369110E9435034B
:100760000091591110915A1120915B1130915C1137
:10077000AB01BC01401B510B620B730B80916511E7
:1007800090916611B0E0A0E084179507A607B7071F
:1007900008F014C1C0E080916311C81760F4E091C3
:1007A0005F11F0916011EC0FF11D62E080810E94F9
:1007B0009E02CF5FF0CF712C812C912C5401839439
:1007C00080916411781608F05FC0072D10E0E09169
:1007D0006111F0916211E00FF11F61E080810E94D0
:1007E0009E02E0916111F0916211E00FF11F60E053
:1007F00080810E946C02D501C401072C04C0880FBF
:10080000991FAA1FBB1F0A94D2F76C017C01E094C8
:10081000F094612C809163116816F8F4C62DD0E035
:10082000E0915F11F0916011EC0FFD1F80810E943B
:1008300040022496CC0FDD1FC350DF4E892B41F4BC
:10084000888199818C299D29998388836394E2CF3B
:10085000888199818E219F21F7CFE0916111F091DC
:100860006211E00FF11F61E080810E946C028091B3
:10087000611190916211080F191F60E0F8018081E9
:100880000E949E0273949CCFCDEFD0E1FE018FEFCA
:100890009FEF278D30A1232B21F4148E968F858F07
:1008A00011A2369621E1E933F20799F7F12C96E08F
:1008B000D92E80916311F81608F050C0E12C0F2D4D
:1008C00010E0000F111F0B5F1E4E20916411E21605
:1008D00008F042C0F801608171810E2C02C076954B
:1008E00067950A94E2F7F29E900111242E0D311DB6
:1008F000EDEFF0E180E0458D568D2417350709F4C2
:1009000061C08F5F36968A30B1F760FF23C0EDEF8C
:10091000F0E190E080E0448D411117C0E0915D115D
:10092000F0915E11E20FF31F4081D89EF001D99E35
:10093000F00D1124E350FF4E448F368F258F10A207
:10094000178E61E00E94410305C0019636968A30F9
:10095000910509F7E394B9CFF394ABCF10E089A1E7
:100960008111182F2696F1E1C933DF07C1F70E94E4
:1009700035036093591170935A1180935B119093D2
:100980005C111123D9F080911E118823B9F0809158
:100990001C1190911D11019789F480911911DF911B
:1009A000CF911F910F91FF90EF90DF90CF90BF906C
:1009B000AF909F908F907F906F90089510926911E3
:1009C00080E0EDCF6170BECF0895AF92BF92CF921D
:1009D000DF92EF92FF920F931F93CF93DF936C01FF
:1009E0007B018B01040F151FEB015E01AE18BF08E0
:1009F000C017D10759F06991D601ED91FC91019092
:100A0000F081E02DC6011995892B79F7C501DF9199
:100A1000CF911F910F91FF90EF90DF90CF90BF90FB
:100A2000AF900895FC01448155816081718180ED12
:100A300091E10C94E504FC01538D448D252F30E0A9
:100A4000842F90E0821B930B541710F0CF960895DB
:100A500001970895FC01918D828D981761F0A28D08
:100A6000AE0FBF2FB11D5D968C91928D9F5F9F73CE
:100A7000928F90E008958FEF9FEF0895CF92DF92CD
:100A8000EF92FF920F931F93CF93DF938C01D0E0EF
:100A9000C0E00E9435036093CB0F7093CC0F80931E
:100AA000CD0F9093CE0F83EC9FE00E942A0597FF15
:100AB00028C00E943503C090CB0FD090CC0FE0909F
:100AC000CD0FF090CE0F6C197D098E099F09C09053
:100AD000C70FD090C80FE090C90FF090CA0F6C15E7
:100AE0007D058E059F05F8F2CE01DF91CF911F9114
:100AF0000F91FF90EF90DF90CF900895C2E0D0E08B
:100B0000F3CFF80181938F012197C1F3C1E0D0E0C9
:100B1000C0CFFC01918D828D981731F0828DE80F46
:100B2000F11D858D90E008958FEF9FEF0895FC01F2
:100B3000918D228D892F90E0805C9F4F821B9109BF
:100B40008F739927089583EC9FE00E94970521E019
:100B5000892B09F420E0822F089580E690E10E941D
:100B6000970521E0892B09F420E0822F0895FC01EC
:100B7000A48DA80FB92FB11DA35ABF4F2C91848DFE
:100B800090E001968F739927848FA689B7892C935B
:100B9000A089B1898C91837080648C93938D848DAE
:100BA000981306C00288F389E02D80818F7D8083B1
:100BB0000895EF92FF920F931F93CF93DF93EC0171
:100BC00081E0888F9B8D8C8D98131AC0E889F989F4
:100BD000808185FF15C09FB7F894EE89FF896083F7
:100BE000E889F98980818370806480839FBF81E078
:100BF00090E0DF91CF911F910F91FF90EF900895BA
:100C0000F62E0B8D10E00F5F1F4F0F731127E02E94
:100C10008C8D8E110CC00FB607FCFACFE889F989CC
:100C2000808185FFF5CFCE010E94B705F1CFEB8D16
:100C3000EC0FFD2FF11DE35AFF4FF0829FB7F894A0
:100C40000B8FEA89FB8980818062CFCFCF93DF93BE
:100C5000EC01888D8823B9F0AA89BB89E889F989D4
:100C60008C9185FD03C0808186FD0DC00FB607FC09
:100C7000F7CF8C9185FFF2CF808185FFEDCFCE013C
:100C80000E94B705E9CFDF91CF91089580E090E011
:100C9000892B29F00E94AD0581110E94000080E09F
:100CA00090E0892B29F00E94A30581110E94000089
:100CB00080E090E0892B49F080E090E0892B29F0DA
:100CC0000E94000081110E94000080E090E0892BCA
:100CD00049F080E090E0892B29F00E94000081110A
:100CE0000C940000089590E080E00895CF92DF9288
:100CF000EF92FF92CF93DF930E943503EB010E94A6
:100D000035030E9435036B0183EC9FE00E94970539
:100D1000892B29F083EC9FE00E942A05F5CFCC1A9D
:100D2000DD0A88EEC81683E0D8065CF383EC9FE00A
:100D30000E949705892B29F7DF91CF91FF90EF90C3
:100D4000DF90CF900895CF93DF93EC018A818111DA
:100D50000AC088810E944002019729F481E08A83B9
:100D6000DF91CF9108958A81811102C080E0F8CF90
:100D700088810E944002892BC9F71A82F7CF4F92CF
:100D80005F926F927F928F929F92AF92BF92CF921B
:100D9000DF92EF92FF920F931F93CF93DF931F92F7
:100DA0001F92CDB7DEB78C0149832A83660F771F68
:100DB000F801EA5AFF4FE080F180EE0CFF1CF801C9
:100DC000CF01801B910B8E159F0514F41192F8CF63
:100DD0008981F801E60FF71F81838A81808368018A
:100DE00084E5C80ED11C60E0F60180810E946C028F
:100DF0005801F2E5AF0EB11C480180E5880E911C48
:100E00001E141F040CF5E1E0EE1AF108F801EE0DD6
:100E1000FF1D6080F5015080F401408088E0782E4D
:100E2000662D661F6627661F842D0E946C02660C65
:100E300061E0852D0E946C0260E0852D0E946C02AD
:100E40007A947110EDCFDCCF61E0F60180810F90D4
:100E50000F90DF91CF911F910F91FF90EF90DF9056
:100E6000CF90BF90AF909F908F907F906F905F904A
:100E70004F900C946C02EF92FF920F931F93CF93BD
:100E80007C018C0183E0000F111F8A95E1F7085760
:100E90001E4EC1E0F80111928F0120E04C2FB701E6
:100EA00088E791E10E94BF06CF5FC93099F7CF91E3
:100EB0001F910F91FF90EF9008959F92AF92BF9274
:100EC000CF92DF92EF92FF920F931F93CF93DF9316
:100ED000CDB7DEB7C054D1090FB6F894DEBF0FBE50
:100EE000CDBFC955DF4F28813981C75AD040FE0197
:100EF000319680E4DF011D928A95E9F749E1429F2E
:100F0000C001439F900D1124875E9D4F8F01BE014C
:100F1000675D7F4FAF0130E020E0FA01E20FF31F81
:100F2000DC01A20FB31FAC91A18B2F5F3F4F253087
:100F3000310599F70596485F5F4F4617570759F7F0
:100F4000FE01E15BFF4F7F019924939480E8A82E76
:100F5000B12CD12CC12CCB55DF4F88819981C55A3A
:100F6000D04018161906FCF4C5010C2C02C095954A
:100F700087950A94E2F7D70150962C915097F80183
:100F8000EC0DFD1D3081332389F1822B50968C931B
:100F9000D70150962C91492D70E060E0CE01815B25
:100FA0009F4F0E94BF06BFEFCB1ADB0AE8E0CE16C8
:100FB000D10489F6FFEFEF1AFF0A9394085F1F4FE1
:100FC00089E09812C6CFC05CDF4F0FB6F894DEBF41
:100FD0000FBECDBFDF91CF911F910F91FF90EF908A
:100FE000DF90CF90BF90AF909F900895809582231F
:100FF000F701808BCDCFCF93DF93EC0160E08E8142
:101000000E946C0261E08E810E946C0260E08E8121
:101010000E946C028BE891E00197F1F7DF91CF918C
:101020000895CF92DF92EF92FF920F931F93CF9389
:10103000DF936C017C0187E0E80EF11CD0E0C0E09A
:10104000062F10E0B8010C2E02C0759567950A9422
:10105000E2F76170F70181917F010E946C02219695
:10106000C430D10579F7C601DF91CF911F910F915F
:10107000FF90EF90DF90CF900C94FB07CF92DF9220
:10108000EF92FF920F931F93CF93DF93EC01F62E15
:10109000642F8C810E946C028D818F3F19F060E07B
:1010A0000E946C020F2D10E08F8584FF25C06E0119
:1010B00087E0C80ED11CF12CE12CB8010E2C02C027
:1010C000759567950A94E2F76170F60181916F0159
:1010D0000E946C02FFEFEF1AFF0A88E0E816F104A5
:1010E00061F7CE01DF91CF911F910F91FF90EF90AB
:1010F000DF90CF900C94FB07B80184E0759567955D
:101100008A95E1F7CE010E9411086F2DCE01DF9183
:10111000CF911F910F91FF90EF90DF90CF900C94A3
:10112000110840E0682F80ED91E10C943E0881E0C9
:101130000E9491088BE39FE10197F1F70895CF9307
:10114000DF93813029F09091DF1198609093DF1147
:101150008093E3111092E41180E48093E51180E123
:101160008093E61180E58093E71161E08091D411CE
:101170000E949E028091D5118F3F19F061E00E947C
:101180009E0261E08091D6110E949E02C0EDD1E1E5
:101190009E01205D31418091DF1184FD0BC084E010
:1011A00090E021962817390744F461E08E810E946F
:1011B0009E02EECF88E090E0F4CF8BE39DE00197B4
:1011C000F1F760E08091D4110E946C0260E08091A0
:1011D000D6110E946C028091D5118F3F19F060E00A
:1011E0000E946C028091DF1184FD34C063E080EDC9
:1011F00091E10E941108CBE4D6E4CE010197F1F70A
:1012000063E080ED91E10E9411082197F1F763E01E
:1012100080ED91E10E94110883E592E00197F1F7DA
:1012200062E080ED91E10E9411088091DF118062FF
:101230000E94910884E08093E0118CE00E94910864
:101240000E94970882E08093E11186E0DF91CF91C0
:101250000C94910880620E9491088BE496E40197B7
:10126000F1F78091DF1180620E94910883E592E09E
:101270000197F1F78091DF1180620E949108D5CF2C
:10128000643008F063E09091E311691710F06FEF9C
:10129000690FE62FF0E0E053FE4E9489890F8068D5
:1012A0000C94910841E00E943E0881E090E008958E
:1012B000FC0124813581232B39F421E0FB0180815D
:1012C000882349F020E007C0808191810E94043288
:1012D00021E0892BB9F7822F0895FB0101900020AE
:1012E000E9F73197AF01461B570BDC01ED91FC91FB
:1012F0000280F381E02D19948F929F92AF92BF925A
:10130000EF92FF920F931F93CF93DF93CDB7DEB78A
:10131000A1970FB6F894DEBF0FBECDBF7C01FA01D6
:10132000CB0119A2223008F42AE08E010F5D1F4F75
:10133000822E912CB12CA12CBF01A50194010E94F9
:10134000CB2FF901CA016A300CF5605DD8016E93AC
:101350008D01232B242B252B79F790E080E010972B
:1013600021F0BD01C7010E946D09A1960FB6F89446
:10137000DEBF0FBECDBFDF91CF911F910F91FF90C8
:10138000EF90BF90AF909F908F900895695CDECFF3
:10139000CF92DF92EF92FF92CF93DF936C01990F80
:1013A000EE08FF08F7FE23C06DE280E690E10E94A0
:1013B000D905EC0144275527BA014C195D096E097E
:1013C0007F092AE080E690E10E947C09C80FD91FBE
:1013D0006EE279E080E690E10E946D098C0F9D1F1E
:1013E000DF91CF91FF90EF90DF90CF9008952AE0AA
:1013F000B701A60180E690E10E947C09EC01E8CFEC
:101400000F931F93CF93DF93EC010E946D098C0122
:101410006EE279E0CE010E946D09800F911FDF918D
:10142000CF911F910F9108950C946D09CF93DF9385
:10143000FC0101900020E9F73197E81BF90BDC0172
:1014400038E0AD01481B590B4E175F0734F42D915E
:10145000ED01219723272883F4CFDF91CF910895C1
:10146000CF93DF93FC0101900020E9F73197E81B4F
:10147000F90BDC0138E0AD01481B590B4E175F0733
:1014800034F42D91ED01219723272883F4CFDF91A8
:10149000CF910895DC0114968D919C911597681752
:1014A000790750F4ED91FC911197E60FF71F15960F
:1014B0007C936E931497108208950F931F93CF938C
:1014C000DF938C01EB01FC01808191810097E1F0B9
:1014D0006881798161157105A9F0428153812C8160
:1014E0003D814217530770F00E940D328C819D811F
:1014F000F801958384831D821C82DF91CF911F9117
:101500000F9108950E94913088819981F80191830B
:1015100080838A819B81938382838C819D81958343
:101520008483198218821B821A82E5CFFC01808194
:101530009181009711F00C94913008950F931F93AF
:10154000CF93DF93EC0188819981009759F02A812C
:101550003B812617370730F081E0DF91CF911F9153
:101560000F9108958B016F5F7F4F0E941A31009792
:1015700059F0998388831B830A832C813D81232B17
:1015800059F7FC011082E8CF80E0E7CFEF92FF929D
:101590000F931F93CF93DF93FB0101900020E9F796
:1015A0003197E61BF70BE1F07B018C01DC0114960F
:1015B000CD91DC91CE0FDF1FBE010E949E0A8823D1
:1015C00081F0F8012081318184819581B701820FFA
:1015D000931F0E940D32D8011596DC93CE93149779
:1015E00081E0DF91CF911F910F91FF90EF900895CF
:1015F000EF92FF920F931F93CF93DF931F921F924F
:10160000CDB7DEB78C0169831A82FC01E480F580D6
:10161000FFEFEF1AFF0AB7010E949E0A882381F0AC
:10162000F8012081318184819581BE016F5F7F4FF8
:10163000820F931F0E940D32F801F582E48281E04F
:101640000F900F90DF91CF911F910F91FF90EF902E
:101650000895EF92FF920F931F93CF93DF93EC01C6
:101660007B018A01BA010E949E0A28813981811179
:1016700014C02115310519F0C9010E949130198259
:1016800018821D821C821B821A82CE01DF91CF91AB
:101690001F910F91FF90EF9008951D830C83B70168
:1016A000C9010E940D32F1CFFB0101900020E9F742
:1016B0003197AF01461B570B0C94290B0F931F93C7
:1016C000CF93DF93CDB7DEB762970FB6F894DEBF46
:1016D0000FBECDBF8C01CB01F801118210821382A5
:1016E0001282158214824AE0BE016F5F7F4F0E9412
:1016F000802FBE016F5F7F4FC8010E94540B62961E
:101700000FB6F894DEBF0FBECDBFDF91CF911F9112
:101710000F910895FB01DC0111961C921E92139605
:101720001C921E92129715961C921E921497861761
:10173000970749F0608171816115710521F044813D
:1017400055810C94290B0895FC011182108213829B
:10175000128215821482FB0101900020E9F7319773
:10176000AF01461B570B0C94290B4F925F926F925F
:101770007F92AF92BF92CF92DF92FF920F931F930F
:10178000CF93DF9300D0CDB7DEB76C015B010E9431
:101790007606B50183EC9FE00E94000AF12C83ECF1
:1017A0009FE00E949705892B39F0CE0101960E9497
:1017B0003E05FF24F394F3CFFF2089F383EC9FE0F1
:1017C0000E9497058C01892B51F7E8EBFFE08BE035
:1017D000DF011D928A95E9F70E94970861E379E09D
:1017E00080ED91E10E94140A61E080E00E944009CE
:1017F00067E379E080ED91E10E94140AB50180ED84
:1018000091E10E94140A67E87CE080ED91E10E947A
:10181000140A60E379E080ED91E10E94000A62E041
:1018200080E00E9440090E9435032B013C010E9488
:1018300035030E947606B12C83EC9FE00E94970549
:10184000892BD9F083EC9FE00E942A055801BFEF55
:10185000AB1ABB0AF801E854F04F808368EB7FE0D5
:1018600080E690E10E94000A6BE379E080E690E177
:101870000E94000A8501BF2CDFCFBB2041F10E94EE
:1018800035036419750986099709643F714081051C
:10189000910594F263E579E080E690E10E94140AF4
:1018A00068EB7FE0C6010E94A40BC6010F900F9069
:1018B0000F90DF91CF911F910F91FF90DF90CF900C
:1018C000BF90AF907F906F905F904F9008950E946F
:1018D00035032B013C010E943503AECF0F931F93BC
:1018E000CF93DF938C01EB010E94B52F8883C80151
:1018F00001960E94B52F8983CE01DF91CF911F9170
:101900000F910895CF93DF931F921F92CDB7DEB74B
:10191000BE016F5F7F4F8DE990E00E946E0C898160
:101920009A810F900F90DF91CF910895CF93DF931D
:101930001F921F92CDB7DEB7BE016F5F7F4F8DE55F
:1019400097E00E946E0C89819A810F900F90DF9131
:10195000CF910895AF92BF92CF92DF92EF92FF9214
:101960000F931F93CF93DF931F921F92CDB7DEB7D4
:101970008C016B0177FF19C068E679E080E690E1A1
:101980000E94000A83E1F80111928A95E9F7C801E3
:101990000F900F90DF91CF911F910F91FF90EF90DB
:1019A000DF90CF90BF90AF900895BE016F5F7F4FE3
:1019B00090E080E00E946E0C89819A81C816D90659
:1019C000DCF683E18C9D70018D9DF00C1124580193
:1019D000F3E1AF0EB11C6801E01AF10AC7010496E9
:1019E0007C01C7018C0D9D1D0E94B52FF6018193CE
:1019F0006F01EA15FB05A9F7CACFCF92DF92EF92EC
:101A0000FF920F931F93CF93DF93EC017B0177FF3E
:101A100015C068E679E080E690E10E94000A83E262
:101A2000FE0111928A95E9F7CE01DF91CF911F91C6
:101A30000F91FF90EF90DF90CF9008950E94820C5D
:101A4000E816F90634F783E28E9D80018F9D100D14
:101A500011247E01F3E2EF0EF11C6E010C1B1D0B35
:101A60000F551F4FC8018C0D9D1D0E94B52FF6010B
:101A700081936F01EE15FF05A9F7D6CF8F929F9244
:101A8000AF92BF92DF92EF92FF920F931F93CF938B
:101A9000DF93CDB7DEB7AF970FB6F894DEBF0FBEBA
:101AA000CDBF7C015B014A0110E000E00E94820C86
:101AB000081719070CF04AC0B801CE0101960E9420
:101AC000FD0CB401CE018A960E948A0BB501CE01AD
:101AD00084960E948A0B6CA17DA1CE0101960E9482
:101AE0000432892B51F46AA57BA5CE0145960E944C
:101AF0000432DD24D394892B09F0D12CCE018496B5
:101B00000E94960ACE018A960E94960ADD20D9F09C
:101B100083E2FE013196D70101900D928A95E1F79B
:101B2000C701AF960FB6F894DEBF0FBECDBFDF91F1
:101B3000CF911F910F91FF90EF90DF90BF90AF90EA
:101B40009F908F9008950F5F1F4FB0CF83E2F701F2
:101B500011928A95E9F7E4CFCF92DF92EF92FF924C
:101B60000F931F93CF93DF93EC017B0177FF15C099
:101B700068E679E080E690E10E94000A81E1FE01DA
:101B800011928A95E9F7CE01DF91CF911F910F91C4
:101B9000FF90EF90DF90CF9008950E94960CE8168A
:101BA000F90634F781E18E9D80018F9D100D11247F
:101BB0007E01F1E1EF0EF11C6E010C1B1D0B0F59A4
:101BC000184FC8018C0D9D1D0E94B52FF601819301
:101BD0006F01EE15FF05A9F7D6CF0F931F93CF9393
:101BE000DF93CDB7DEB761970FB6F894DEBF0FBEB7
:101BF000CDBF10E000E00E94960C081719074CF5C5
:101C0000B801CE0101960E94AC0D6CE779E080E648
:101C100090E10E94140A89819A810E94C80963E8B0
:101C200079E080E690E10E94140A8B8190E00E94A6
:101C3000C8096CE879E080E690E10E94140ABE01D0
:101C40006C5F7F4F80E690E10E94000A0F5F1F4F9C
:101C5000D2CF61960FB6F894DEBF0FBECDBFDF9135
:101C6000CF911F910F910895FF920F931F93CF93E0
:101C7000DF93EC01F62E08811981C8010E94B52F6F
:101C8000F81621F06F2DC8010E94BD2FCE01DF9103
:101C9000CF911F910F91FF900895AF92BF92CF9275
:101CA000DF92EF92FF920F931F93CF93DF931F92D8
:101CB0001F92CDB7DEB78B016B0123E2C20ED11CA0
:101CC0007B015C01A61AB70AC5018E0D9F1D9A8380
:101CD0008983F70161917F01CE0101960E94340E44
:101CE000EC14FD0489F7C8010F900F90DF91CF919C
:101CF0001F910F91FF90EF90DF90CF90BF90AF902A
:101D00000895EF92FF920F931F93CF93DF931F924B
:101D10001F92CDB7DEB78C017B019A838983FB01CB
:101D20006081CE0101960E94340E0F5F1F4F1A830F
:101D30000983F7016181CE0101960E94340EC7012B
:101D40000F900F90DF91CF911F910F91FF90EF9027
:101D50000895CF93DF9300D01F92CDB7DEB70E94D6
:101D6000820C8F3F2FE092076CF06BE979E080E600
:101D700090E10E94000A0F900F900F900F90DF915A
:101D8000CF91089501969A838983BE016F5F7F4F3B
:101D90008DE990E00E94810EBE016D5F7F4F8FE95B
:101DA00090E00E946E0C8B819C819BA78AA7BE014C
:101DB0006D5F7F4F8FE990E00E946E0CBE01665F01
:101DC0007F4F8B819C810E944D0E8AA59BA5839697
:101DD0009C838B83BE016D5F7F4F8FE990E00E94F3
:101DE000810EC9CF2F923F924F925F926F927F9256
:101DF0009F92AF92BF92CF92DF92EF92FF920F939A
:101E00001F93CF93DF93CDB7DEB7C056D1090FB67E
:101E1000F894DEBF0FBECDBF2DB73EB7A1963FAF42
:101E20002EAFA1970E94970860E080E00E944009D1
:101E300067EA79E080ED91E10E94140A61E080E0B8
:101E40000E94400964EB79E080ED91E10E94140A60
:101E500060E379E0CE018D5A9F4F0E94A40B0EE102
:101E600010E08091920F9091930FFC0145E0EE0FEE
:101E7000FF1F4A95E1F7EA5DFA4F20E2DE01119675
:101E800001900D922A95E1F79F938F938DB79EB79E
:101E9000885591090FB6F8949EBF0FBE8DBFADB7A0
:101EA000BEB7119688E5E8E7F1E101900D928A95B9
:101EB000E1F70E945D07EDB7FEB7E65AFF4F0FB698
:101EC000F894FEBF0FBEEDBF0E949D038823E1F092
:101ED0008A330CF049C081330CF070C0833209F4AE
:101EE00057C0803309F461C069968EAD9FAD699784
:101EF00062E00D9708F069C080E00E944009CE01C1
:101F00008D5A9F4F0E9412058FE691E10E94A30611
:101F1000811180C08CE691E10E94A306882309F418
:101F2000A0CF69966EAD7FAD69976115710509F413
:101F300098CF61507109CE018D5A9F4F0E944A0A75
:101F400062E080E00E94400961EC79E080ED91E17F
:101F50000E94140A62E080E00E944009CE018D5A7E
:101F60009F4F0E9412057DCF883509F0BDCF80912B
:101F7000920F9091930F019797FD05C09093930F47
:101F80008093920FB1CF1093930F0093920FACCF29
:101F90008091920F9091930F01968F31910570F37C
:101FA0001092930F1092920F9FCFBE016F5F7F4FE1
:101FB000CE018D5A9F4F0E94C60A96CF682FCE0140
:101FC0008D5A9F4F0E94F80A8FCF80E00E944009EF
:101FD00068EC79E080ED91E10E94140A62E080E013
:101FE0000E9440096DEB79E080ED91E10E94140AB6
:101FF00068EE73E080E090E00E94030362E080E01E
:102000000E94400968EC79E080ED91E10E94140A99
:1020100062E072CF0E94970860E080E00E94400971
:1020200067EA79E080ED91E10E94140A61E080E0C6
:102030000E94400962ED79E080ED91E10E94140A6E
:1020400060E379E0CE01875A9F4F0E94A40B0EE116
:1020500010E08091920F9091930FFC0135E0EE0F0C
:10206000FF1F3A95E1F7EA5DFA4F20E2DE01119693
:1020700001900D922A95E1F79F938F932DB73EB76C
:10208000285531090FB6F8943EBF0FBE2DBFADB72E
:10209000BEB7119688E5E8E7F1E101900D928A95C7
:1020A000E1F70E945D078DB79EB7865A9F4F0FB626
:1020B000F8949EBF0FBE8DBF0E949D038823E1F060
:1020C0008A330CF049C081330CF070C0833209F4BC
:1020D00057C0803309F461C06F968EAD9FAD6F9786
:1020E00062E0099708F069C080E00E944009CE01D3
:1020F000875A9F4F0E9412058FE691E10E94A30626
:10210000811180C08CE691E10E94A306882309F426
:10211000A0CF6F966EAD7FAD6F976115710509F415
:1021200098CF61507109CE01875A9F4F0E944A0A89
:1021300062E080E00E94400961EC79E080ED91E18D
:102140000E94140A62E080E00E944009CE01875A92
:102150009F4F0E9412057DCF883509F0BDCF809139
:10216000920F9091930F019797FD05C09093930F55
:102170008093920FB1CF1093930F0093920FACCF37
:102180008091920F9091930F01968F31910570F38A
:102190001092930F1092920F9FCFBE016F5F7F4FEF
:1021A000CE01875A9F4F0E94C60A96CF682FCE0154
:1021B000875A9F4F0E94F80A8FCF80E00E94400903
:1021C00068EC79E080ED91E10E94140A62E080E021
:1021D0000E9440096DEB79E080ED91E10E94140AC4
:1021E00068EE73E080E090E00E94030362E080E02C
:1021F0000E94400968EC79E080ED91E10E94140AA8
:1022000062E072CF0E94970860E080E00E9440097F
:1022100067EA79E080ED91E10E94140A61E080E0D4
:102220000E9440096CED79E080ED91E10E94140A72
:1022300060E379E0CE01895B9F4F0E94A40B0EE121
:1022400010E08091920F9091930FFC0125E0EE0F2A
:10225000FF1F2A95E1F7EA5DFA4F20E2DE011196B1
:1022600001900D922A95E1F79F938F93EDB7FEB7FA
:10227000E855F1090FB6F894FEBF0FBEEDBFADB73C
:10228000BEB7119688E5E8E7F1E101900D928A95D5
:10229000E1F70E945D072DB73EB7265A3F4F0FB6B4
:1022A000F8943EBF0FBE2DBF0E949D038823E1F02E
:1022B0008A330CF04AC081330CF071C0833209F4C8
:1022C00058C0803309F462C02D968EAD9FAD2D9716
:1022D00062E00D9708F06AC080E00E944009CE01DC
:1022E000895B9F4F0E9412058FE691E10E94A30631
:1022F000982E811180C08CE691E10E94A30688236C
:1023000009F49FCF2D966EAD7FAD2D9761157105A8
:1023100009F497CF61507109CE01895B9F4F0E94EC
:102320004A0A62E080E00E94400961EC79E080EDB9
:1023300091E10E94140A62E080E00E944009CE010F
:10234000895B9F4F0E9412057CCF883509F0BCCF76
:102350008091920F9091930F019797FD05C09093F4
:10236000930F8093920FB0CF1093930F0093920F1F
:10237000ABCF8091920F9091930F01968F31910581
:1023800070F31092930F1092920F9ECFBE016F5F69
:102390007F4FCE01895B9F4F0E94C60A95CF682F61
:1023A000CE01895B9F4F0E94F80A8ECF80E00E9489
:1023B000400968EC79E080ED91E10E94140A62E046
:1023C00080E00E9440096DEB79E080ED91E10E9490
:1023D000140A68EE73E080E090E00E94030362E07C
:1023E00080E00E94400968EC79E080ED91E10E9474
:1023F000140A62E071CF0E9497082E0134E2430E66
:10240000511C83E2F20111928A95E9F765966EAD4F
:102410007FAD6597FB0101900020E9F7CF012DB654
:102420003EB6861B970B2DB73EB7281B390B0FB650
:10243000F8943EBF0FBE2DBF0DB71EB70F5F1F4FE5
:10244000C8010E940D32C8010E94300A6B966EAD21
:102450007FAD6B97FB0101900020E9F7CF01861B50
:10246000970B2DB73EB7281B390B0FB6F8943EBF1C
:102470000FBE2DBF8DB79EB701966C010E940D3225
:10248000C6010E94300A29966EAD7FAD2997FB01E7
:1024900001900020E9F7CF01861B970B2DB73EB7BF
:1024A000281B390B0FB6F8943EBF0FBE2DBF8DB75A
:1024B0009EB701967C010E940D32C7010E94300A2E
:1024C000B801C2010E940D32B601CE01C0960E9431
:1024D0000D32B701CE01C8960E940D323E019DE437
:1024E000690E711CB801C3010E94A40BB12CA12C70
:1024F0000E94820CA816B9060CF0FAC0B501CE01F4
:1025000001960E94FD0C2F966EAD7FAD2F97CE01E8
:1025100001960E940432892B09F0E6C0B92CC30150
:102520000E94960ABB20E1F00E94970860E080E0DC
:102530000E9440096AEE79E080ED91E10E94140A60
:1025400061E080E00E94400968EF79E080ED91E170
:102550000E94140A60ED77E080E090E00E9403039F
:10256000F80101900020E9F7CF01801B910B09973A
:10257000059738F10E94970860E080E00E944009CA
:1025800062E07AE080ED91E10E94140A61E080E06F
:102590000E9440096CE07AE080ED91E10E94140A0B
:1025A00062E080E00E94400962E27AE080ED91E121
:1025B0000E94140A60ED77E080E090E00E9403033F
:1025C000B92CF60101900020E9F7CF0109978C158D
:1025D0009D05E9F00E94970860E080E00E944009B4
:1025E00065E37AE080ED91E10E94140A61E080E009
:1025F0000E94400961E17AE080ED91E10E94140AB5
:1026000060ED77E080E090E00E940303B92CF701D1
:1026100001900020E9F7CF018E199F0909970597CE
:1026200008F468C00E94970860E080E00E944009BA
:1026300064E47AE080ED91E10E94140A61E080E0B8
:102640000E9440096CE07AE080ED91E10E94140A5A
:1026500062E080E00E94400962E27AE080ED91E170
:102660000E94140A60ED77E080E090E00E9403038E
:1026700081E090E09093AE0F8093AD0F0FB6F89489
:102680003EBE0FBE2DBECE01895B9F4F0E94960AB3
:10269000CE01875A9F4F0E94960ACE018D5A9F4FB6
:1026A0000E94960AA196EEADFFADA1970FB6F894E1
:1026B000FEBF0FBEEDBFC05ADF4F0FB6F894DEBFAE
:1026C0000FBECDBFDF91CF911F910F91FF90EF9083
:1026D000DF90CF90BF90AF909F907F906F905F9072
:1026E0004F903F902F900895EFEFAE1ABE0A00CFA3
:1026F000B12C15CFB110BCCF27961FAE2797B801CC
:10270000C2010E940D32B601CE01C0960E940D3268
:10271000B701CE01C8960E940D3263E57AE080E6EB
:1027200090E10E94140A0E94970861E080E00E94F4
:10273000400968EE73E080E090E00E9403032DB74B
:102740003EB7235231090FB6F8943EBF0FBE2DBFDE
:10275000ADB7BEB7119683E2F20101900D928A9552
:10276000E1F70E94A90E8DB79EB783960FB6F89435
:102770009EBF0FBE8DBF68E67AE080E690E10E94C2
:10278000140A0E94820C0E94C80972CFAF92BF92B5
:10279000CF92DF92EF92FF920F931F93CF93DF932D
:1027A0001F921F92CDB7DEB78B016B0121E1C20EE4
:1027B000D11C7B015C01A61AB70AC5018E0D9F1DB5
:1027C0009A838983F70161917F01CE0101960E946E
:1027D000340EEC14FD0489F7C8010F900F90DF91BF
:1027E000CF911F910F91FF90EF90DF90CF90BF900E
:1027F000AF9008958F929F92BF92CF92DF92EF9207
:10280000FF920F931F93CF93DF93CDB7DEB76197FE
:102810000FB6F894DEBF0FBECDBF6C01B62E4A01D5
:102820000E94960C7C0110E000E00E151F0574F567
:10283000B801CE0101960E94AC0D89819A818C1558
:102840009D0509F5BB82F40160817181CE0104967A
:102850000E940D32BE016F5F7F4F888999890E9467
:10286000C61361960FB6F894DEBF0FBECDBFDF91E1
:10287000CF911F910F91FF90EF90DF90CF90BF907D
:102880009F908F9008950F5F1F4FCFCF6DE77AE035
:1028900080E690E10E94000AE4CF8F929F92AF926F
:1028A000BF92CF92DF92EF92FF920F931F93CF933D
:1028B000DF93CDB7DEB765970FB6F894DEBF0FBED6
:1028C000CDBF8D829E82AF82B886C986DA86EB86BE
:1028D000FC860D871E872F87388B498B5A8B6B8B15
:1028E0007C8B8D8B0E94960C89309105CCF069E928
:1028F0007AE080E690E10E94000A65960FB6F894AF
:10290000DEBF0FBECDBFDF91CF911F910F91FF9022
:10291000EF90DF90CF90BF90AF909F908F900895F1
:1029200001969A838983BE016F5F7F4F8DE597E0A3
:102930000E94810EBE016D5F7F4F8FE597E00E9480
:102940006E0C8B819C819D8B8C8BBE016D5F7F4F4C
:102950008FE597E00E946E0CBE016B5F7F4F8B810D
:102960009C810E94C6138C899D8941969C838B8390
:10297000BE016D5F7F4F8FE597E00E94810EBDCF56
:10298000AF92BF92CF92DF92EF92FF920F931F937D
:10299000CF93DF9300D01F92CDB7DEB7BE016F5F3C
:1029A0007F4F90E080E00E946E0C89819A8183368F
:1029B0009105ACF06BE979E080E690E10E94000AB5
:1029C0000F900F900F900F90DF91CF911F910F916B
:1029D000FF90EF90DF90CF90BF90AF900895019659
:1029E0009A838983BE016F5F7F4F90E080E00E94F1
:1029F000810EBE016D5F7F4F82E090E00E946E0C01
:102A00000B811C811CA30BA3BE016D5F7F4F82E075
:102A100090E00E946E0CCB80DC805E0185E2A80E07
:102A2000B11CFE0172967F01CE1ADF0AC6018E0D1F
:102A30009F1D9C838B83F70161917F01CE010396DB
:102A40000E94340EEA14FB0489F70D5E1F4F1C83AD
:102A50000B83BE016D5F7F4F82E090E00E94810E8C
:102A6000AFCF8F929F92AF92BF92CF92DF92EF92B1
:102A7000FF920F931F93CF93DF93CDB7DEB7C65569
:102A8000D1090FB6F894DEBF0FBECDBF27968FAE2B
:102A9000279728969FAE28972996AFAE29972A9612
:102AA000BFAE2A972B96CFAE2B972C96DFAE2C97E6
:102AB0002D96EFAE2D972E96FFAE2E972F960FAF39
:102AC0002F9760961FAF609761962FAF61976296C0
:102AD0003FAF629763964FAF639764965FAF64971B
:102AE00065966FAF659766967FAF669767968FAF6F
:102AF00067970DB71EB70E94970862E080E00E94BA
:102B000040096AEB7AE080ED91E10E94140A60E3EB
:102B100079E0CE01805C9F4F0E94A40B3EE1E32E42
:102B2000F12C8091950F882309F457C08091940F60
:102B3000811153C08091920F9091930FFC0125E079
:102B4000EE0FFF1F2A95E1F7EA5DFA4F20E2DE0162
:102B5000119601900D922A95E1F79F938F932DB7CF
:102B60003EB7285531090FB6F8943EBF0FBE2DBFB2
:102B7000ADB7BEB7119688E5E8E7F1E101900D9297
:102B80008A95E1F70E945D078DB79EB7865A9F4FE1
:102B90000FB6F8949EBF0FBE8DBF0E949D03882381
:102BA000E1F08A330CF049C081330CF070C08332FD
:102BB00009F457C0803309F461C026968EAD9FADED
:102BC000269763E0089708F069C080E00E944009FA
:102BD000CE01805C9F4F0E9412058FE691E10E941A
:102BE000A306811180C08CE691E10E94A306882390
:102BF00009F497CF26966EAD7FAD269761157105C6
:102C000009F48FCF61507109CE01805C9F4F0E9403
:102C10004A0A61E083E00E94400961EC79E080EDBE
:102C200091E10E94140A61E083E00E944009CE0114
:102C3000805C9F4F0E94120574CF883509F0BDCF8C
:102C40008091920F9091930F019797FD05C09093FB
:102C5000930F8093920FB1CFF092930FE092920F67
:102C6000ACCF8091920F9091930F01968F31910587
:102C700070F31092930F1092920F9FCFBE016F5F6F
:102C80007F4FCE01805C9F4F0E94C60A96CF682F6F
:102C9000CE01805C9F4F0E94F80A8FCF80E00E9497
:102CA000400961EC79E080ED91E10E94140A63E053
:102CB00080E00E9440096DEB79E080ED91E10E9497
:102CC000140A68EE73E080E090E00E94030363E082
:102CD00080E00E94400961EC79E080ED91E10E9482
:102CE000140A63E072CF22966EAD7FAD2297DB01AE
:102CF0000D900020E9F7CD01CDB6DEB6861B970B0F
:102D0000EDB7FEB7E81BF90B0FB6F894FEBF0FBE88
:102D1000EDBF2DB73EB72F5F3F4F7901C9010E942C
:102D20000D32C7010E94300AB701CE01C2960E943F
:102D3000A40B62E771E1CE0184960E948A0BAE017A
:102D40004E5C5F4FBE016C5D7F4FCE0101960E94CD
:102D50003E0DCE0184960E94960ACE01C2960E9434
:102D6000960A8981882309F49FC060E379E0CE0147
:102D700084960E94A40BAE014C5D5F4F60E02896E4
:102D80008EAD9FAD28970E94FA13CE0184960E94C3
:102D9000960A0E94ED0DEAE9FFE081E1DF011D9254
:102DA0008A95E9F78091960F9091970F9C012F5F7C
:102DB0003F4F3093970F2093960F9093990F8093E6
:102DC000980F8AE0EEE8FBE0DE01D29601900D92CA
:102DD0008A95E1F7BE016E5C7F4FCE0184960E941A
:102DE0000D32CE0184960E94300ABE016C5D7F4F89
:102DF0008AE99FE00E940D32EDB7FEB773970FB6D8
:102E0000F894FEBF0FBEEDBFADB7BEB7119683E11C
:102E1000E8E9FFE001900D928A95E1F70E94C01465
:102E20000E94970860E080E00E94400965EC7AE02B
:102E300080ED91E10E94140A60ED77E080E090E07F
:102E40000E94030385E090E09093AE0F8093AD0F56
:102E50002DB73EB72D5E3F4F0FB6F8943EBF0FBE65
:102E60002DBF0FB6F894DEBE0FBECDBECE01805C86
:102E70009F4F0E94960A0FB6F8941EBF0FBE0DBF5B
:102E8000CA5ADF4F0FB6F894DEBF0FBECDBFDF9139
:102E9000CF911F910F91FF90EF90DF90CF90BF9057
:102EA000AF909F908F9008958091900F9091910F87
:102EB00001969093910F8093900F02970CF064C04D
:102EC00064ED7AE080E690E10E94000A0E94970893
:102ED00060E080E00E94400969E07BE080ED91E1E4
:102EE0000E94140A61E080E00E94400963E17BE0F7
:102EF00080ED91E10E94140AEAE9FFE081E1DF013F
:102F00001D928A95E9F78091960F9091970F9C01F9
:102F10002F5F3F4F3093970F2093960F9093990F09
:102F20008093980F8EE0E8E9FBE0DE01D2960190F5
:102F30000D928A95E1F7BE016E5C7F4FCE018496BB
:102F40000E940D32CE0184960E94300ABE016C5D53
:102F50007F4F8AE99FE00E940D32EDB7FEB773976D
:102F60000FB6F894FEBF0FBEEDBFADB7BEB711965A
:102F700083E1E8E9FFE001900D928A95E1F70E9474
:102F8000C0148AE090E060CF6FE17BE080E690E1E2
:102F90000E94000A0E94970860E080E00E944009B9
:102FA00069E07BE080ED91E10E94140A61E080E03D
:102FB0000E94400963E17BE080ED91E10E94140AE8
:102FC000EAE9FFE081E1DF011D928A95E9F780914E
:102FD000960F9091970F9C012F5F3F4F3093970F63
:102FE0002093960F9093990F8093980F8EE0E8E9C5
:102FF000FBE0DE01D29601900D928A95E1F7BE01C9
:103000006E5C7F4FCE0184960E940D32CE01849675
:103010000E94300ABE016C5D7F4F8AE99FE00E94EA
:103020000D32EDB7FEB773970FB6F894FEBF0FBE23
:10303000EDBFADB7BEB7119683E1E8E9FFE00190BF
:103040000D928A95E1F70E94C01460E177E280E07A
:1030500090E00E94030361E67BE080E690E10E943D
:10306000000A1092910F1092900F81E090E0ECCE48
:10307000AF92BF92CF92DF92EF92FF920F931F9386
:10308000CF93DF93CDB7DEB7C954D1090FB6F8940B
:10309000DEBF0FBECDBFEDB6FEB60E94970860E062
:1030A00080E00E94400964EB79E080ED91E10E94AC
:1030B000140A60E379E0CE01CE960E94A40B10E0E2
:1030C0005EE1C52ED12C0091940F8091950F88233D
:1030D00009F4D6C0011152C08091920F9091930FC4
:1030E000FC0145E0EE0FFF1F4A95E1F7EA5DFA4F5C
:1030F00020E2DE01119601900D922A95E1F79F934F
:103100008F932DB73EB7285531090FB6F8943EBFBF
:103110000FBE2DBFADB7BEB7119688E5E8E7F1E168
:1031200001900D928A95E1F70E945D078DB79EB7D9
:10313000865A9F4F0FB6F8949EBF0FBE8DBF0E9458
:103140009D038823D9F08A330CF046C081330CF0FC
:103150006CC0833209F454C0803309F45EC02496F5
:103160008EAD9FAD249761E00C9708F064C080E0BD
:103170000E944009CE01CE960E9412058FE691E191
:103180000E94A3068111A2C08CE691E10E94A306D1
:10319000882309F498CF24966EAD7FAD24976115EE
:1031A000710509F490CF61507109CE01CE960E944D
:1031B0004A0A61E080E00E94400961EC79E080ED1C
:1031C00091E10E94140A61E080E00E944009CE0172
:1031D000CE960E94120577CF883509F0C0CF809136
:1031E000920F9091930F019797FD05C09093930FC5
:1031F0008093920FB4CFD092930FC092920FAFCF23
:103200008091920F9091930F01968F31910570F3F9
:103210001092930F1092920FA2CFBE016F5F7F4F5B
:10322000CE01CE960E94C60A9ACF682FCE01CE96C6
:103230000E94F80A94CF80E00E94400961EC79E096
:1032400080ED91E10E94140A61E080E00E94400953
:103250006DEB79E080ED91E10E94140A68EE73E075
:1032600080E090E00E94030361E080E00E9440095A
:1032700061EC79E080ED91E10E94140A61E077CF82
:10328000002309F47BCF111179CF66EA7BE080E659
:1032900090E10E94000A6AEA7BE0CE0101960E945A
:1032A000B50BBE016F5F7F4FCE01CE960E945D0AC7
:1032B000CE0101960E94960A63E080E00E944009D8
:1032C000CE01CE960E941205102F58CF62E080E00A
:1032D0000E9440096AEB7AE080ED91E10E94140AB5
:1032E00060E379E0CE018C5B9F4F0E94A40B3EE12E
:1032F000C32ED12C0091940F8091950F882309F44F
:10330000D9C0011151C08091920F9091930FFC018F
:1033100025E0EE0FFF1F2A95E1F7EA5DFA4F20E264
:10332000DE01119601900D922A95E1F79F938F93FC
:10333000ADB7BEB7A855B1090FB6F894BEBF0FBE62
:10334000ADBF119688E5E8E7F1E101900D928A950D
:10335000E1F70E945D07EDB7FEB7E65AFF4F0FB6E3
:10336000F894FEBF0FBEEDBF0E949D038823E1F0DD
:103370008A330CF049C081330CF070C0833209F4F9
:1033800057C0803309F461C02A968EAD9FAD2A974D
:1033900063E0099708F069C080E00E944009CE010F
:1033A0008C5B9F4F0E9412058FE691E10E94A3065D
:1033B0008111A8C08CE691E10E94A306882309F43C
:1033C00099CF2A966EAD7FAD2A976115710509F4E4
:1033D00091CF61507109CE018C5B9F4F0E944A0AC8
:1033E00061E083E00E94400961EC79E080ED91E1C9
:1033F0000E94140A61E083E00E944009CE018C5BC8
:103400009F4F0E94120576CF883509F0BDCF80917D
:10341000920F9091930F019797FD05C09093930F92
:103420008093920FB1CFD092930FC092920FACCFF6
:103430008091920F9091930F01968F31910570F3C7
:103440001092930F1092920F9FCFBE016F5F7F4F2C
:10345000CE018C5B9F4F0E94C60A96CF682FCE018B
:103460008C5B9F4F0E94F80A8FCF80E00E9440093A
:1034700061EC79E080ED91E10E94140A63E080E064
:103480000E9440096DEB79E080ED91E10E94140A01
:1034900068EE73E080E090E00E94030363E080E068
:1034A0000E94400961EC79E080ED91E10E94140AEC
:1034B00063E072CF002309F477CF111175CF66EA6C
:1034C0007BE080E690E10E94000A61EB7BE0CE01A8
:1034D00001960E94B50BBE016F5F7F4FCE018C5BE2
:1034E0009F4F0E945D0ACE0101960E94960A63E0FA
:1034F00080E00E944009CE018C5B9F4F0E94120524
:10350000102F52CF6EAD7FADDB010D900020E9F79B
:10351000CD01CDB6DEB6861B970BEDB7FEB7E81B27
:10352000F90B0FB6F894FEBF0FBEEDBF0DB71EB777
:103530000F5F1F4FC8010E940D32C8010E94300A60
:1035400026966EAD7FAD2697DB010D900020E9F742
:10355000CD01861B970BEDB7FEB7E81BF90B0FB635
:10356000F894FEBF0FBEEDBF2DB73EB72F5F3F4FA4
:103570005901C9010E940D32C5010E94300AB501EE
:10358000CE01C1960E94A40BB801CE0184960E9480
:10359000A40BAE014F5C5F4FBE016C5D7F4FCE014F
:1035A00001960E943E0DCE0184960E94960ACE019D
:1035B000C1960E94960AB80182E791E10E94540BDD
:1035C0008981882309F4E6C00E94970860E080E0C2
:1035D0000E9440096AEB7BE080ED91E10E94140AB1
:1035E00061E080E00E944009CE0101960E94160A27
:1035F000BE016F5F7F4F80ED91E10E94140A2BA105
:103600008091960F9091970FEAE9FFE0222309F449
:1036100079C021E1DF011D922A95E9F79C012F5F16
:103620003F4F3093970F2093960F9093990F80936D
:10363000980F8CE0E5ECFBE0DE01D19601900D9255
:103640008A95E1F7BE016F5C7F4FCE0184960E94A0
:103650000D32CE0184960E94300ABE016C5D7F4F10
:103660008AE99FE00E940D32EDB7FEB773970FB65F
:10367000F894FEBF0FBEEDBFADB7BEB7119683E1A4
:10368000E8E9FFE001900D928A95E1F70E94C014ED
:1036900068EE73E080E090E00E94030384E090E035
:1036A0009093AE0F8093AD0F2DB73EB72D5E3F4F79
:1036B0000FB6F8943EBF0FBE2DBF0FB6F894DEBE16
:1036C0000FBECDBECE018C5B9F4F0E94960ACE01ED
:1036D000CE960E94960A0FB6F894FEBE0FBEEDBEBF
:1036E000C75BDF4F0FB6F894DEBF0FBECDBFDF91D3
:1036F000CF911F910F91FF90EF90DF90CF90BF90EF
:10370000AF90089521E1DF011D922A95E9F79C0110
:103710002F5F3F4F3093970F2093960F9093990F01
:103720008093980F8DE0E1EDFBE0DE01D1960190F2
:103730000D928A95E1F7BE016F5C7F4FCE018496B2
:103740000E940D32CE0184960E94300ABE016C5D4B
:103750007F4F8AE99FE00E940D32EDB7FEB7739765
:103760000FB6F894FEBF0FBEEDBFADB7BEB7119652
:1037700083E1E8E9FFE001900D928A95E1F70E946C
:10378000C01468EE73E080E090E00E94030385E0DF
:1037900090E086CF8091880F9091890F18161906B6
:1037A0000CF070C00E94970869E07BE080ED91E129
:1037B0000E94140A61E080E00E94400963E17BE01E
:1037C00080ED91E10E94140AEAE9FFE081E1DF0166
:1037D0001D928A95E9F78091960F9091970F9C0121
:1037E0002F5F3F4F3093970F2093960F9093990F31
:1037F0008093980F8CE0EEEDFBE0DE01D196019016
:103800000D928A95E1F7BE016F5C7F4FCE018496E1
:103810000E940D32CE0184960E94300ABE016C5D7A
:103820007F4F8AE99FE00E940D32EDB7FEB7739794
:103830000FB6F894FEBF0FBEEDBFADB7BEB7119681
:1038400083E1E8E9FFE001900D928A95E1F70E949B
:10385000C01460E177E280E090E00E9403031092E0
:10386000890F1092880F81E090E09093AE0F8093C3
:10387000AD0F2DB73EB72D5E3F4F0FB6F8943EBF4C
:103880000FBE2DBF0E94970860E080E00E944009B3
:1038900069E07BE080ED91E10E94140A61E080E044
:1038A0000E94400963E17BE080ED91E10E94140AEF
:1038B000EAE9FFE081E1DF011D928A95E9F7809155
:1038C000960F9091970F9C012F5F3F4F3093970F6A
:1038D0002093960F9093990F8093980F8CE0EEEDC4
:1038E000FBE0DE01D19601900D928A95E1F7BE01D1
:1038F0006F5C7F4FCE0184960E940D32CE0184967C
:103900000E94300ABE016C5D7F4F8AE99FE00E94F1
:103910000D32EDB7FEB773970FB6F894FEBF0FBE2A
:10392000EDBFADB7BEB7119683E1E8E9FFE00190C6
:103930000D928A95E1F70E94C01480918E0F9091AC
:103940008F0F019690938F0F80938E0F8091880F29
:103950009091890F01969093890F8093880F68EE5C
:1039600073E080E090E00E9403039ECE1F920F92CE
:103970000FB60F9211242F933F938F939F93AF9382
:10398000BF938091B00F9091B10FA091B20FB09101
:10399000B30F3091AF0F23E0230F2D3758F5019669
:1039A000A11DB11D2093AF0F8093B00F9093B10F65
:1039B000A093B20FB093B30F8091B40F9091B50F55
:1039C000A091B60FB091B70F0196A11DB11D8093C4
:1039D000B40F9093B50FA093B60FB093B70FBF91EC
:1039E000AF919F918F913F912F910F900FBE0F90AC
:1039F0001F90189526E8230F0296A11DB11DD2CF66
:103A00001F920F920FB60F9211240BB60F922F93A5
:103A10003F934F935F936F937F938F939F93AF9356
:103A2000BF93EF93FF9383EC9FE00E94B705FF9154
:103A3000EF91BF91AF919F918F917F916F915F9126
:103A40004F913F912F910F900BBE0F900FBE0F9093
:103A50001F9018951F920F920FB60F9211240BB65C
:103A60000F922F938F939F93EF93FF93E091D30F38
:103A7000F091D40F8081E091D90FF091DA0F82FD9F
:103A80001DC090818091DC0F8F5F8F732091DD0FBF
:103A9000821741F0E091DC0FF0E0ED53F04F958F8D
:103AA0008093DC0FFF91EF919F918F912F910F9059
:103AB0000BBE0F900FBE0F901F9018958081F2CF14
:103AC0001F920F920FB60F9211240BB60F922F93E5
:103AD0003F934F935F936F937F938F939F93AF9396
:103AE000BF93EF93FF9380E690E10E94B705FF91AB
:103AF000EF91BF91AF919F918F917F916F915F9166
:103B00004F913F912F910F900BBE0F900FBE0F90D2
:103B10001F9018951F920F920FB60F9211240BB69B
:103B20000F922F938F939F93EF93FF93E0917010D9
:103B3000F09171108081E0917610F091771082FD04
:103B40001DC09081809179108F5F8F7320917A10C2
:103B5000821741F0E0917910F0E0E05AFF4E958F26
:103B600080937910FF91EF919F918F912F910F90FA
:103B70000BBE0F900FBE0F901F9018958081F2CF53
:103B8000CF93DF931092C60F1092C50F48EE53E00B
:103B900060E070E04093C70F5093C80F6093C90F67
:103BA0007093CA0F8AE099E09093C40F8093C30F7B
:103BB0002DEC30E03093D00F2093CF0F2CEC30E081
:103BC0003093D20F2093D10F28EC30E03093D40FF4
:103BD0002093D30F29EC30E03093D60F2093D50FEC
:103BE0002AEC30E03093D80F2093D70F2EEC30E042
:103BF0003093DA0F2093D90F1092DC0F1092DD0F63
:103C00001092DE0F1092DF0F10926310109262106C
:103C10004093641050936510609366107093671022
:103C2000909361108093601085EC90E090936D10FC
:103C300080936C1084EC90E090936F1080936E10E2
:103C400080EC90E0909371108093701081EC90E084
:103C5000909373108093721082EC90E090937510A3
:103C60008093741086EC90E0909377108093761098
:103C70001092791010927A1010927B1010927C1092
:103C80001092D3111092D21186E299E09093D11143
:103C90008093D0118CE08093D4118FEF8093D51155
:103CA0008BE08093D61185E08093D71184E08093D8
:103CB000D81183E08093D91182E08093DA111092B9
:103CC000DB111092DC111092DD111092DE111092B6
:103CD000DF1181E00E949F08CAE0D0E0D093C911B3
:103CE000C093C81188E090E09093CB118093CA11E3
:103CF00089E090E09093CD118093CC1181E090E029
:103D00009093CF118093CE1161E08AE00E949E02D1
:103D100061E08091CA110E949E0261E08091CC1105
:103D20000E949E0261E08091CC110E946C02D093AF
:103D3000C911C093C811E8E8F1E1119281E1E83CB2
:103D4000F807D9F7D0E0C0E08091CE119091CF1163
:103D5000C817D907B4F520E04FE0BE0188E791E12C
:103D60000E94BF068091CE119091CF11C817D9073C
:103D70003CF427E04BE0BE0188E791E10E94BF06DA
:103D800020E049E0BE0188E791E10E94BF068091F2
:103D9000CE119091CF11C817D9071CF4CE010E9403
:103DA0003B078091CE119091CF11C817D9073CF4F1
:103DB00020E04CE0BE0188E791E10E94BF06219619
:103DC000C3CF60E379E082E791E10E94A40B1092F7
:103DD000711187E190E09093701180936F111092B0
:103DE0006E1188E190E090936D1180936C111092A8
:103DF000FF101092031110920211109204118CE125
:103E000099E09093FE108093FD10E9E1F1E11082BA
:103E1000148213821582369681E1E535F807B9F7E9
:103E200083E092E09093601180935F1180E092E0D4
:103E3000909362118093611184E08093631183E019
:103E40008093641187E092E090935E1180935D11FE
:103E50008AE090E0909366118093651184EF91E081
:103E6000909368118093671110926B1110926A11F0
:103E70001092591110925A1110925B1110925C110C
:103E800010926911DF91CF910895CF93DF93CDB751
:103E9000DEB7C65DD1090FB6F894DEBF0FBECDBF49
:103EA000789484B5826084BD84B5816084BD85B515
:103EB000826085BD85B5816085BD80916E00816021
:103EC00080936E00109281008091810082608093C7
:103ED00081008091810081608093810080918000C9
:103EE0008160809380008091B10084608093B100F4
:103EF0008091B00081608093B000809191008260D9
:103F000080939100809191008160809391008091D5
:103F100090008160809390008091A10082608093E6
:103F2000A1008091A10081608093A1008091A000F8
:103F300081608093A00080912101826080932101A3
:103F40008091210181608093210180912001816015
:103F50008093200180917A00846080937A00809120
:103F60007A00826080937A0080917A0081608093E9
:103F70007A0080917A00806880937A001092C10064
:103F800080E690E10E948F0183EC9FE00E948F0108
:103F90001A8219829E012F5F3F4F1901B9018DE9E5
:103FA00090E00E94810E64E275E08FE990E00E944B
:103FB000810E1A821982B10190E080E00E94810E88
:103FC00062E275E082E090E00E94810E1A8219821E
:103FD000B1018DE597E00E94810E60E275E08FE50A
:103FE00097E00E94810E6AEE7BE080E690E10E94FD
:103FF000000A13E2D101E12F1D92EA95E9F781E071
:104000008BA381E690E0C054DF4F99838883C05C26
:10401000D040BE0160547F4FCE0182549F4F0E941A
:104020000D32CE0182549F4F0E94300A86E0ECE4AC
:10403000FFE0DE01A156BF4F01900D928A95E1F796
:10404000BE0161567F4FCE0184589F4F0E940D32B2
:10405000CE0184589F4F0E94300A81E390E0C454FF
:10406000DF4F99838883CC5BD040BE0164547F4F7F
:10407000CE0182559F4F0E940D32CE0182559F4F37
:104080000E94300ABE0162547F4FC1010E940D326E
:10409000BE0164587F4FCE010D960E940D32BE01C5
:1040A00062557F4FCE0145960E940D322DB73EB727
:1040B000235231090FB6F8943EBF0FBE2DBFADB7E6
:1040C000BEB71196F10101900D921A95E1F70E9489
:1040D000A90E3E0139E5630E711C81E1D3011D92E9
:1040E0008A95E9F7EDB7FEB7B3960FB6F894FEBF21
:1040F0000FBEEDBF2301F3E04F0E511C60E379E0EA
:10410000C2010E940D32D3018C9011969C901197A0
:104110001296AC9012971396BC9013971496CC906D
:1041200014971596DC9015971696EC90169717969F
:10413000FC90179718960C91189719961C9119973F
:104140001A962C911A971B963C911B971C964C9192
:104150001C971D965C911D971E966C911E971F963D
:104160007C911F9750968C910E944D14F3013296CA
:10417000CB52DF4FF983E883C55DD0402FE0119229
:104180002A95E9F781E090E0D3018D939C9360E359
:1041900079E0C2010E940D32F30180809180A280FB
:1041A000B380C480D580E680F780008511852285A4
:1041B0003385448555856685778580890E944D14B1
:1041C000CB52DF4FA881B981C55DD040EFE01D9291
:1041D000EA95E9F782E090E0D3018D939C9360E348
:1041E00079E0C2010E940D32F30180809180A280AB
:1041F000B380C480D580E680F78000851185228554
:104200003385448555856685778580890E944D1460
:10421000CB52DF4FA881B981C55DD040EFE01D9240
:10422000EA95E9F783E090E0D3018D939C9360E3F6
:1042300079E0C2010E940D32F30180809180A2805A
:10424000B380C480D580E680F78000851185228503
:104250003385448555856685778580890E944D1410
:10426000CB52DF4FA881B981C55DD040EFE01D92F0
:10427000EA95E9F784E090E0D3018D939C9360E3A5
:1042800079E0C2010E940D32F30180809180A2800A
:10429000B380C480D580E680F780008511852285B3
:1042A0003385448555856685778580890E944D14C0
:1042B000CB52DF4FA881B981C55DD040EFE01D92A0
:1042C000EA95E9F785E090E0D3018D939C9360E354
:1042D00079E0C2010E940D32F30180809180A280BA
:1042E000B380C480D580E680F78000851185228563
:1042F0003385448555856685778580890E944D1470
:10430000CB52DF4FA881B981C55DD040EFE01D924F
:10431000EA95E9F786E090E0D3018D939C9360E302
:1043200079E0C2010E940D32F30180809180A28069
:10433000B380C480D580E680F78000851185228512
:104340003385448555856685778580890E944D141F
:10435000CB52DF4FA881B981C55DD040EFE01D92FF
:10436000EA95E9F787E090E0D3018D939C9360E3B1
:1043700079E0C2010E940D32F30180809180A28019
:10438000B380C480D580E680F780008511852285C2
:104390003385448555856685778580890E944D14CF
:1043A000CB52DF4FA881B981C55DD040EFE01D92AF
:1043B000EA95E9F788E090E0D3018D939C9360E360
:1043C00079E0C2010E940D32F30180809180A280C9
:1043D000B380C480D580E680F78000851185228572
:1043E0003385448555856685778580890E944D147F
:1043F00084E00E949F088091CE119091CF111816F1
:10440000190644F421E04CE070E060E088E791E1B7
:104410000E94BF068091CE119091CF1118161906F7
:1044200044F428E04AE070E060E088E791E10E940F
:10443000BF068091CE119091CF111816190624F461
:1044400090E080E00E943B0760E080916F110E9445
:104450009E0260E080916C110E949E022301F3E0B5
:104460004F0E511C93012C5E3F4FCB52DF4F3983CF
:104470002883C55DD0400E94960C5C0110E000E0EE
:104480000A151B05B4F4B801C3010E94AC0DD30199
:10449000ED90FC90BDE2EB0EF11C61E08E2D0E94D0
:1044A0009E02F30162818E2D0E946C020F5F1F4FEE
:1044B000E7CFE091AD0FF091AE0FEC30F10508F0D1
:1044C00055C38827E959FD4D8F4F0C94ED2F73226A
:1044D000D822B425B925BC25F1268524752827299D
:1044E000512A452D532E0E94970860E080E00E94DB
:1044F00040096AEB7BE080ED91E10E94140A6CE2D6
:1045000071E080E090E00E94030361E080E00E949F
:1045100040096FEF7BE080ED91E10E94140A6CE2AC
:1045200071E080E090E00E94030362E080E00E947E
:10453000400960E17CE080ED91E10E94140A6CE2A8
:1045400071E080E090E00E94030363E080E00E945D
:10455000400961E27CE080ED91E10E94140A6CE286
:1045600071E080E090E00E94030364E080E00E943C
:10457000400961E37CE080ED91E10E94140A6CE265
:1045800071E080E090E00E94030365E080E00E941B
:10459000400960E47CE080ED91E10E94140A8FE61E
:1045A00091E10E94A3068823D1F381E090E0B2C795
:1045B0000E94970860E080E00E94400960E57CE08E
:1045C00080ED91E10E94140A68EC70E080E090E0D8
:1045D0000E94030361E080E00E9440096FE57CE0F7
:1045E00080ED91E10E94140A68EC70E080E090E0B8
:1045F0000E94030362E080E00E94400968E67CE0DC
:1046000080ED91E10E94140A68EC70E080E090E097
:104610000E94030363E080E00E94400964E77CE0BD
:1046200080ED91E10E94140A60E379E0CE018156A9
:104630009F4F0E94A40B0E949D038823C1F0CD557B
:10464000DF4F28813981C35AD0402230310568F5C7
:10465000682FCE0181569F4F0E94F80A63E08CE0DC
:104660000E944009CE0181569F4F0E9412058FE69D
:1046700091E10E94A306882309F41BC16CE77CE04A
:10468000CE0181569F4F0E945809882399F186E0F8
:1046900090E09093AE0F8093AD0F1092AC0F1092FC
:1046A000AB0FCE0181569F4F37C263E08CE00E9472
:1046B00040096BEC79E080ED91E10E94140A63E01F
:1046C0008CE00E9440096DEB79E080ED91E10E9461
:1046D000140A64E670E080E090E00E94030363E067
:1046E0008CE00E9440096BEC79E080ED91E10E9442
:1046F000140AB4CF6EE77CE0CE0181569F4F0E9432
:104700005809882369F086E090E09093AE0F80937B
:10471000AD0F81E090E09093AC0F8093AB0FC1CFD1
:104720006EE37CE0CE0181569F4F0E94580988239A
:1047300009F4B7CF60E080E00E94400960E379E0CF
:10474000CE0184589F4F0E94A40B10E000E0F801B6
:1047500055E0EE0FFF1F5A95E1F7EA5DFA4F80E250
:10476000D30101900D928A95E1F71F930F932DB716
:104770003EB7285531090FB6F8943EBF0FBE2DBF86
:10478000ADB7BEB7119688E5E8E7F1E101900D926B
:104790008A95E1F70E945D078DB79EB7865A9F4FB5
:1047A0000FB6F8949EBF0FBE8DBF0E949D03882355
:1047B00091F08A330CF053C081330CF073C0833214
:1047C00009F457C0803309F45DC062E370E080E013
:1047D00090E00E9403038FE691E10E94A3068823E4
:1047E00009F4B5CF88E5E8E7F1E1D10101900D9238
:1047F0008A95E1F78101BB24B394F12CE12C6996F1
:104800008EAD9FAD699718161906B4F420E830E014
:104810000E2C02C0359527950A94E2F72095D80111
:1048200050968C915097282350962C934B2D70E0E6
:1048300060E0C1010E94BF06BFEFEB1AFB0AE8E08F
:10484000EE16F104E1F60F5F1F4FB394F9E0BF12CB
:10485000D4CFCE0184589F4F0E94960A22CF88352C
:1048600009F0B3CF0150110908F0AFCF0EE110E00D
:10487000ACCF0F5F1F4F0F31110509F0A6CF10E02D
:1048800000E0A3CFB301CE0184589F4F0E94C60A17
:1048900061E080E00E944009CE0184589F4F0E9451
:1048A000120593CF682FCE0184589F4F0E94F80ABB
:1048B000EFCF8CE691E10E94A306882309F4BBCEDA
:1048C000CD55DF4F68817981C35AD040611571059C
:1048D00009F4B1CE61507109CE0181569F4F0E94FB
:1048E0004A0A63E08CE00E94400961EC79E080EDC7
:1048F00091E10E94140A63E08CE00E944009CE011D
:1049000081569F4F0E94120596CE0091AB0F1091D9
:10491000AC0F0E94970860E080E00E94400960E8C8
:104920007CE080ED91E10E94140A6CE271E080E08D
:1049300090E00E94030361E080E00E94400969E882
:104940007CE080ED91E10E94140A6CE271E080E06D
:1049500090E00E94030362E080E00E94400967E962
:104960007CE080ED91E10E94140A6CE271E080E04D
:1049700090E00E94030363E080E00E94400964E746
:104980007CE080ED91E10E94140A60E379E0C301CC
:104990000E94A40B88248394EE24E394F12C42E03B
:1049A000A42EB12C0E949D03882399F0D301149664
:1049B0002D913C912230310508F041C0682FC30190
:1049C0000E94F80A63E08CE00E944009C3010E9443
:1049D00012058FE691E10E94A306982E882309F420
:1049E00074C06CE77CE0C3010E945809882309F475
:1049F00096C08092940F1092950F0E9476060E94A6
:104A0000970861EA7CE080ED91E10E94140A61E080
:104A100080E00E94400962EB7CE080ED91E10E9421
:104A2000140AD12C83EC9FE00E949705892B61F139
:104A3000CE0184589F4F0E943E05D92CF3CF63E0EE
:104A40008CE00E94400961EC79E080ED91E10E94E8
:104A5000140A63E08CE00E9440096DEB79E080ED80
:104A600091E10E94140A68EE73E080E090E00E94F9
:104A7000030363E08CE00E94400961EC79E080ED83
:104A800091E10E94140A9ECFDD2061F283EC9FE049
:104A90000E949705892B31F60E9476060E9497089E
:104AA00063EC7CE080ED91E10E94140A68EE73E013
:104AB00080E090E00E9403030E94970867ED7CE08D
:104AC00080E690E10E94000A9D2C8CE691E10E9414
:104AD000A3068823E9F0D30114966D917C916115AA
:104AE0007105B1F061507109C3010E944A0A63E087
:104AF0008CE00E94400961EC79E080ED91E10E9438
:104B0000140A63E08CE00E944009C3010E94120570
:104B1000992009F447CFC3010E94960A27C06EE787
:104B20007CE0C3010E9458098823A9F31092940FD6
:104B30008092950F0130110559F00230110579F07E
:104B40000115110511F6B092AE0FA092AD0FBDCFB9
:104B5000E3E0F0E0F093AE0FE093AD0FB6CFF0924C
:104B6000AE0FE092AD0FB1CF0E9438180E944606FA
:104B700082CC0E94F20EFACF0E94970860E080E09B
:104B80000E94400969EE7CE080ED91E10E94140AE8
:104B90006CE271E080E090E00E94030361E080E05D
:104BA0000E94400964EF7CE080ED91E10E94140ACC
:104BB0006CE271E080E090E00E94030362E080E03C
:104BC0000E9440096CEF7CE080ED91E10E94140AA4
:104BD0006CE271E080E090E00E94030363E080E01B
:104BE0000E94400964E77CE080ED91E10E94140A94
:104BF00060E379E0CE0181569F4F0E94A40B0E9492
:104C00009D038823C1F0CD55DF4F28813981C35AD8
:104C1000D0402230310530F5682FCE0181569F4FAC
:104C20000E94F80A63E08CE00E944009CE018156A0
:104C30009F4F0E9412058FE691E10E94A3068823F0
:104C400009F4A3C06CE77CE0CE0181569F4F0E941F
:104C50005809882361F187E090E09093AE0F80932C
:104C6000AD0F1FCD63E08CE00E94400961EC79E05C
:104C700080ED91E10E94140A63E08CE00E944009FB
:104C80006DEB79E080ED91E10E94140A68EE73E02B
:104C900080E090E00E94030363E08CE00E94400902
:104CA00061EC79E080ED91E10E94140ABBCF6EE7E0
:104CB0007CE0CE0181569F4F0E945809882319F04D
:104CC00088E090E0CACF6CE07DE0CE0181569F4F36
:104CD0000E94540BC156DF4F88819981CF59D04033
:104CE000892B09F4DECCEAE9FFE081E1DF011D92C6
:104CF0008A95E9F78091960F9091970F9C012F5F0D
:104D00003F4F3093970F2093960F9093990F809376
:104D1000980F8EE0E2E5FFE0DE01A458BF4F01905E
:104D20000D928A95E1F7BE0164587F4FC3010E943E
:104D30000D32C3010E94300AB3018AE99FE00E944C
:104D40000D32EDB7FEB773970FB6F894FEBF0FBEE6
:104D5000EDBFADB7BEB7119683E1E8E9FFE0019082
:104D60000D928A95E1F70E94C01481E090E0909343
:104D7000AE0F8093AD0F2DB73EB72D5E3F4F0FB6F0
:104D8000F8943EBF0FBE2DBF8CCC8CE691E10E9403
:104D9000A306882309F433CFCD55DF4F688179818D
:104DA000C35AD0406115710509F429CF61507109CA
:104DB000CE0181569F4F0E944A0A63E08CE00E9418
:104DC000400961EC79E080ED91E10E94140A63E012
:104DD0008CE00E944009CE0181569F4F0E9412052F
:104DE0000ECF0E94350360938A0F70938B0F8093D0
:104DF0008C0F90938D0F0E94970860E080E00E94D6
:104E000040096EE07DE080ED91E10E94140A60E9C6
:104E100071E080E090E00E9403030E94970860E048
:104E200080E00E9440096BE17DE080ED91E10E940D
:104E3000140A61E080E00E9440096AE27DE080EDB2
:104E400091E10E94140A62E080E00E94400969E357
:104E50007DE080ED91E10E94140A63E080E00E9411
:104E600040096BE47DE080ED91E10E94140A6EEE52
:104E700072E080E090E00E9403030E94970860E0E7
:104E800080E00E94400964E77CE080ED91E10E94AF
:104E9000140A60E379E0CE0181569F4F0E94A40B73
:104EA0000E94350300918A0F10918B0F20918C0F77
:104EB00030918D0F601B710B820B930B69357F4016
:104EC0008240910508F004C10E949D038823C1F02F
:104ED000CD55DF4F28813981C35AD040223031056A
:104EE00040F5682FCE0181569F4F0E94F80A60E07E
:104EF0008CE00E944009CE0181569F4F0E9412050E
:104F00008FE691E10E94A306882309F4B5C06CE7FF
:104F10007CE0CE0181569F4F0E945809882371F191
:104F20006CE57DE080E690E10E94000A89E090E077
:104F300094CE60E08CE00E9440096BEC79E080ED5B
:104F400091E10E94140A60E08CE00E9440096DEB40
:104F500079E080ED91E10E94140A64E670E080E05F
:104F600090E00E94030360E08CE00E9440096BEC3B
:104F700079E080ED91E10E94140AB9CF6EE77CE000
:104F8000CE0181569F4F0E945809882349F066E759
:104F90007DE080E690E10E94000A8AE090E05DCE2C
:104FA0006CE07DE0CE0181569F4F0E945809882316
:104FB00009F44FC0EAE9FFE081E1DF011D928A9523
:104FC000E9F78091960F9091970F9C012F5F3F4FCB
:104FD0003093970F2093960F9093990F8093980F8B
:104FE0008EE0E2E5FFE0DE01A458BF4F01900D9294
:104FF0008A95E1F7BE0164587F4FC3010E940D32CC
:10500000C3010E94300AB3018AE99FE00E940D3279
:10501000EDB7FEB773970FB6F894FEBF0FBEEDBFA6
:10502000ADB7BEB7119683E1E8E9FFE001900D92BC
:105030008A95E1F70E94C01481E090E09093AE0F52
:105040008093AD0F6FE87DE080E690E10E94000A5A
:1050500092CE6EE07CE0CE0181569F4F0E945809AF
:10506000882309F41ECB66EA7DE080E690E10E9489
:10507000000A8BE090E0F1CD8CE691E10E94A3065E
:10508000882309F40DCFCD55DF4F68817981C35A4C
:10509000D0406115710509F403CF61507109CE014B
:1050A00081569F4F0E944A0A61E080E00E944009B9
:1050B00061EC79E080ED91E10E94140A61E080E00A
:1050C0000E944009CE0181569F4F0E941205E8CEF2
:1050D00081E090E09093AE0F8093AD0F6DEB7DE09B
:1050E00080E690E10E94000ADCCA0E94970860E016
:1050F00080E00E94400967ED7DE080ED91E10E9433
:10510000140A61E080E00E94400964EE7DE080EDD9
:1051100091E10E94140A62E080E00E94400960EF81
:105120007DE080ED91E10E94140A8FE691E10E94FA
:10513000A306882309F47DC00E94970870E060E010
:10514000C3010E94AA0C10E000E0730132E0E30EFC
:10515000F11C0E94970860E080E00E9440096EEF19
:105160007DE080ED91E10E94140A61E080E00E9400
:105170004009D3016D917C91CE0184589F4F0E94CC
:105180005E0BCE0184589F4F0E941205CE018458B9
:105190009F4F0E94960A62E080E00E944009C7018A
:1051A0000E94160AB701CE0184589F4F0E94A40B9B
:1051B000CE0184589F4F0E941205CE0184589F4F04
:1051C0000E94960A8FE691E10E94A306882321F1AE
:1051D0000F5F1F4FBE0164587F4F90E080E00E9438
:1051E0006E0CEE968EAD9FADEE970817190714F072
:1051F00010E000E00E949708B801CE018E539F4F47
:105200000E94AA0C83E1FE01EE53FF4FD3010190EF
:105210000D928A95E1F79DCF8CE691E10E94A3065D
:10522000882381F284E090E09093AE0F8093AD0FDD
:1052300007C08CE691E10E94A306882309F475CF8C
:105240006CE271E080E090E00E9403038FCC0E944A
:10525000970860E080E00E9440096FE07EE080ED0A
:1052600091E10E94140A61E080E00E9440096DE132
:105270007EE080ED91E10E94140A62E080E00E94ED
:10528000400964EE7DE080ED91E10E94140A63E044
:1052900080E00E94400960EF7DE080ED91E10E9496
:1052A000140A8FE691E10E94A306882309F4F1C055
:1052B0000E94970860E080E00E94400969E27EE079
:1052C00080ED91E10E94140A61E080E00E944009B3
:1052D0006AE37EE080ED91E10E94140A62E080E0E2
:1052E0000E94400964E47EE080ED91E10E94140A8E
:1052F00063E088E00E94400910E000E0F12CE12C1E
:105300000E94960C0817190774F4B801C3010E9493
:10531000AC0DF3018281882319F0FFEFEF1AFF0A29
:105320000F5F1F4FEDCFB701C3010E945E0BC3019A
:105330000E941205C3010E94960A68EB7BE080E0A0
:1053400090E00E9403030E94970860E080E00E94C2
:10535000400969E27EE080ED91E10E94140A61E07B
:1053600080E00E94400961E57EE080ED91E10E94CD
:10537000140A62E080E00E9440096AE57EE080ED68
:1053800091E10E94140A63E088E00E944009609164
:10539000900F7091910F80918E0F90918F0F680FE9
:1053A000791FC3010E945E0BC3010E941205C30155
:1053B0000E94960A68EB7BE080E090E00E94030385
:1053C0000E94970860E080E00E94400969E27EE068
:1053D00080ED91E10E94140A61E080E00E944009A2
:1053E00065E67EE080ED91E10E94140A62E080E0D3
:1053F0000E9440096EE67EE080ED91E10E94140A71
:1054000063E088E00E9440096CE07DE080ED91E17E
:105410000E94140A68EB7BE080E090E00E940303A6
:105420000E94970860E080E00E94400969E27EE007
:1054300080ED91E10E94140A61E080E00E94400941
:105440006BE77EE080ED91E10E94140A62E080E06B
:105450000E94400965E87EE080ED91E10E94140A17
:1054600063E088E00E9440090E94820CBC01615008
:105470007109C3010E945E0BC3010E941205C301A2
:105480000E94960A68EB7BE080E090E00E940303B4
:10549000C9CE8CE691E10E94A306882309F401CFCE
:1054A000CFCE0E94960C7C0110E000E00E151F0587
:1054B0009CF4B801C3010E94AC0DD30112968C91EB
:1054C000129781112CC0ED90FC90C7010E94C80971
:1054D000BFEFEB16FB0631F560E97EE080E690E178
:1054E0000E94000A0E94970860E080E00E94400944
:1054F0006CEB7EE080ED91E10E94140A61E080E0B7
:105500000E94400967EA7EE080ED91E10E94140A62
:1055100085E090E09093AE0F8093AD0F27CB0F5FA7
:105520001F4FC4CF0E94970861E080E00E944009AD
:105530006AEB7AE080ED91E10E94140A60E379E081
:10554000CE0182559F4F0E94A40B8091950F882316
:1055500009F458C08091940F811154C08091920F2A
:105560009091930FFC0125E0EE0FFF1F2A95E1F7C4
:10557000EA5DFA4F20E2D30101900D922A95E1F7FE
:105580009F938F93EDB7FEB7E855F1090FB6F894E6
:10559000FEBF0FBEEDBFADB7BEB7119688E5E8E719
:1055A000F1E101900D928A95E1F70E945D072DB718
:1055B0003EB7265A3F4F0FB6F8943EBF0FBE2DBFE1
:1055C0000E949D038823F1F08A330CF04DC0813393
:1055D0000CF070C0833209F459C0803309F463C001
:1055E000CE54DF4F88819981C25BD04063E0089739
:1055F00008F067C080E00E944009CE0182559F4FAD
:105600000E9412058FE691E10E94A30681117EC0DF
:105610008CE691E10E94A306882309F496CFCE542C
:10562000DF4F68817981C25BD0406115710509F453
:105630008CCF61507109CE0182559F4F0E944A0A5A
:1056400061E083E00E94400961EC79E080ED91E146
:105650000E94140A61E083E00E944009CE01825555
:105660009F4F0E94120571CF883509F0B9CF809104
:10567000920F9091930F019797FD05C09093930F10
:105680008093920FADCF8EE190E0F8CF8091920F92
:105690009091930F01968F31910580F31092930FA3
:1056A0001092920F9DCFB301CE0182559F4F0E9461
:1056B000C60A96CF682FCE0182559F4F0E94F80AE6
:1056C0008FCF80E00E94400961EC79E080ED91E1AC
:1056D0000E94140A63E080E00E9440096DEB79E0CB
:1056E00080ED91E10E94140A68EE73E080E090E0A2
:1056F0000E94030363E080E00E94400961EC79E0CE
:1057000080ED91E10E94140A63E074CFC255DF4F2F
:1057100068817981CE5AD040DB010D900020E9F7F5
:10572000CD010DB71EB7861B970BEDB7FEB7E81B73
:10573000F90B0FB6F894FEBF0FBEEDBF2DB73EB705
:105740002F5F3F4F5901C9010E940D32C5010E94D0
:10575000300AB501CE0184589F4F0E94A40B62E726
:1057600071E1CE0181569F4F0E948A0BAE014458D1
:105770005F4FBE0161567F4FC3010E943E0DCE01B7
:1057800081569F4F0E94960ACE0184589F4F0E94D7
:10579000960AD3018C91882309F48DC062E771E1E8
:1057A000CE0184589F4F0E948A0BAE0144585F4F30
:1057B00061E0C7010E94FA13CE0184589F4F0E94F6
:1057C000960A0E94ED0D6CEC7EE080E690E10E946E
:1057D000000AEAE9FFE081E1DF011D928A95E9F71D
:1057E0008091960F9091970F9C012F5F3F4F3093C0
:1057F000970F2093960F9093990F8093980F8BE0BB
:10580000E0E6FFE0DE01A156BF4F01900D928A95C0
:10581000E1F7BE0161567F4FCE0184589F4F0E9431
:105820000D32CE0184589F4F0E94300ABE01645849
:105830007F4F8AE99FE00E940D32EDB7FEB7739764
:105840000FB6F894FEBF0FBEEDBFADB7BEB7119651
:1058500083E1E8E9FFE001900D928A95E1F70E946B
:10586000C0140E94970861E080E00E94400960EF48
:105870007EE080ED91E10E94140A60E971E080E031
:1058800090E00E94030385E090E09093AE0F809338
:10589000AD0F2DB73EB72D5E3F4F0FB6F8943EBF0C
:1058A0000FBE2DBF0FB6F8941EBF0FBE0DBFCE01A9
:1058B00082559F4F31C98091900F9091910F019621
:1058C0009093910F8093900F02970CF067C064ED56
:1058D0007AE080E690E10E94000A0E94970860E06A
:1058E00080E00E94400969E07BE080ED91E10E9448
:1058F000140A61E080E00E94400963E17BE080EDF2
:1059000091E10E94140AEAE9FFE081E1DF011D92C2
:105910008A95E9F78091960F9091970F9C012F5FE0
:105920003F4F3093970F2093960F9093990F80934A
:10593000980F8FE0EBE6FFE0DE01A156BF4F01902C
:105940000D928A95E1F7BE0161567F4FCE018458D2
:105950009F4F0E940D32CE0184589F4F0E94300A03
:10596000BE0164587F4F8AE99FE00E940D32EDB777
:10597000FEB773970FB6F894FEBF0FBEEDBFADB77D
:10598000BEB7119683E1E8E9FFE001900D928A9598
:10599000E1F70E94C01489E090E077CF6FE17BE0EF
:1059A00080E690E10E94000A0E94970860E080E093
:1059B0000E94400969E07BE080ED91E10E94140AB9
:1059C00061E080E00E94400963E17BE080ED91E1CD
:1059D0000E94140AEAE9FFE081E1DF011D928A9545
:1059E000E9F78091960F9091970F9C012F5F3F4FA1
:1059F0003093970F2093960F9093990F8093980F61
:105A00008FE0EBE6FFE0DE01A156BF4F01900D9263
:105A10008A95E1F7BE0161567F4FCE0184589F4FB2
:105A20000E940D32CE0184589F4F0E94300ABE0161
:105A300064587F4F8AE99FE00E940D32EDB7FEB7B0
:105A400073970FB6F894FEBF0FBEEDBFADB7BEB7EC
:105A5000119683E1E8E9FFE001900D928A95E1F764
:105A60000E94C01460E177E280E090E00E940303AE
:105A700061E67BE080E690E10E94000A1092910FBF
:105A80001092900F81E090E000CFF12CE12C10E01B
:105A900000E00E94960CE816F9067CF4B701C301F9
:105AA0000E94AC0DD30112968C91882311F00F5FE8
:105AB0001F4FBFEFEB1AFB0AECCF0115110589F45C
:105AC0000E94970860E080E00E9440096AEF7EE053
:105AD00080ED91E10E94140A60ED77E080E090E0B3
