:100000000C9441010C9472010C9472010C947201D5
:100010000C9472010C9472010C9472010C94720194
:100020000C9472010C9472010C9472010C94720184
:100030000C9472010C9472010C9472010C94720174
:100040000C9472010C9472010C9472010C94720164
:100050000C9472010C9472010C9472010C942A0796
:100060000C9472010C94FE070C94D4070C9472014A
:100070000C9472010C9472010C9472010C94720134
:100080000C9472010C9472010C9472010C94720124
:100090000C949E070C9474070C9472010C947201DA
:1000A0000C9472010C9472010C9472010C94720104
:1000B0000C9472010C9472010C9472010C947201F4
:1000C0000C9472010C9472010C9472010C947201E4
:1000D0000C9472010C9472010C9472010C947201D4
:1000E0000C9472010C9471020C944C020C949C03BD
:1000F0000C94E2040C9456020C9405040C946702D0
:100100000C9452020C94D4030C94F9050C949102B3
:100110000C9479020C94E1040C9434080C9494042B
:100120000C94F7030C9475020C946B020C9461020E
:100130000C948C020C9487020C94A7030C945E021E
:100140000C945A020C9483020C9447040C948D0274
:100150000C947F020C94A4030C94A0030C94E3036E
:1001600000002100240027002A002D003000330069
:1001700001010000040107010A010000220025001E
:1001800028002B002E003100340002010000050180
:1001900008010B01000020002300260029002C008C
:1001A0002F003200000100000301060109010505CE
:1001B0000505070508080808020202020A0A0808DD
:1001C000040404040101010101010101030303030B
:1001D00003030303040707070C0C0C0C0C0C0C0C9A
:1001E0000202020206060606060606060B0B0B0BAB
:1001F0000B0B0B0B010210202008081020401020D0
:1002000040800201020108040201010204081020DA
:1002100040808040201008040201800402018040D8
:100220002010080402010804020101020408102041
:100230004080010204081020408000000A0B0209DF
:100240000C0D0E0807030401000000000000000070
:10025000000000000000000000000000000000009E
:10026000000000000000121110000000000000005B
:10027000000000000000000000000000000000007E
:10028000340811241FBECFEFD1E2DEBFCDBF00E0A6
:100290000CBF25E0A4EEB2E001C01D92A231B2076E
:1002A000E1F712E0A0E0B2E0E0EEFEE100E00BBF1B
:1002B00002C007900D92A43EB107D9F711E0C1E446
:1002C000D1E000E006C021970109802FFE010E94C5
:1002D000500DC034D10780E00807A9F70E94AD098E
:1002E0000C946E0F0C940000FC01A089B18982E08F
:1002F0008C93A485B5851C92A685B7858FEC8C93CD
:10030000108EA489B58986E08C93A289B3898C91DB
:1003100080618C93A289B3898C9188608C93A28927
:10032000B3898C9180688C930288F389E02D808159
:100330008F7D8083089596E0899FD0011124A75D69
:10034000BB4F90967C936E935F9791E091969C93B0
:100350009197E0919604F0919704909195049923D8
:1003600039F0309751F0811108C0809145041994FB
:10037000309719F05C968C91FACF0895CF92DF9266
:10038000EF92FF920F931F9396E0899FF001112443
:10039000E75DFB4F11A2278D30A12130310551F1CE
:1003A00078F02230310509F451C02330310509F4C9
:1003B00052C01F910F91FF90EF90DF90CF90089562
:1003C0006623B9F361E070E00E949B012FB7F894B7
:1003D0008091EB029091EC02A091ED02B091EE02BF
:1003E0002FBF8093810490938204A0938304B093E1
:1003F0008404DFCF9FB7F894C090EB02D090EC025A
:10040000E090ED02F090EE029FBF00918104109108
:1004100082042091830430918404C01AD10AE20A34
:10042000F30A009193041091940430E020E00C153D
:100430001D052E053F0550F462E070E01F910F91FD
:10044000FF90EF90DF90CF900C949B016111B1CFA2
:1004500063E070E0F3CF70E060E0F0CF8150823174
:1004600008F05AC0E82FF0E08827E65CFD4F8F4F78
:100470000C94500D5A025E024C02520256028C023B
:10048000610267026B027102750279027F028302C8
:100490008C0287028D029102809180008F77809379
:1004A00080000895809180008F7DF9CF8091800039
:1004B000877FF5CF84B58F7784BD089584B58F7D10
:1004C000FBCF8091B0008F778093B000089580912A
:1004D000B0008F7DF9CF809190008F77809390004E
:1004E0000895809190008F7DF9CF80919000877F53
:1004F000F5CF8091A0008F778093A0000895809120
:10050000A0008F7DF9CF8091A000877FF5CF8091EB
:1005100020018F77809320010895809120018F7DA5
:10052000F9CF80912001877FF5CFCF93DF93282FDC
:1005300030E0F901E65CFD4F8491F901EC50FE4F8B
:10054000D491F901E255FE4FC491CC23A1F0811161
:100550000E942E02EC2FF0E0EE0FFF1FEC56FE4F34
:10056000A591B491EC91ED2381E090E009F480E055
:10057000DF91CF91089580E090E0FACF80919D04C3
:1005800081110AC080919B040E949502019721F479
:1005900081E080939D04089580919D04811102C0A3
:1005A00080E0089580919B040E949502892BC1F7F9
:1005B00010929D04F5CF1F93CF93DF93282F30E047
:1005C000F901E65CFD4F8491F901EC50FE4FD491A6
:1005D000F901E255FE4FC491CC23A9F0162F8111E9
:1005E0000E942E02EC2FF0E0EE0FFF1FE658FE4FA8
:1005F000A591B4918FB7F894EC91111108C0D095E2
:10060000DE23DC938FBFDF91CF911F910895DE2B06
:10061000F8CFCF93DF9390E0FC01EC50FE4F249194
:1006200082559E4FFC0184918823C9F090E0880F89
:10063000991FFC01E05AFE4FA591B491FC01E658C8
:10064000FE4FC591D49161110DC09FB7F8948C9164
:10065000209582238C938881282328839FBFDF9154
:10066000CF910895623051F49FB7F8943C91822F56
:10067000809583238C93E8812E2BEFCF8FB7F8944E
:10068000EC912E2B2C938FBFEACF3FB7F89480913B
:10069000E7029091E802A091E902B091EA0226B542
:1006A000A89B05C02F3F19F00196A11DB11D3FBFAA
:1006B000BA2FA92F982F8827BC01CD01620F711D79
:1006C000811D911D42E0660F771F881F991F4A9573
:1006D000D1F708958F929F92AF92BF92CF92DF92FF
:1006E000EF92FF924B015C010E9445036B017C017C
:1006F0000E9445036C197D098E099F09683E73406D
:1007000081059105A8F321E0821A9108A108B1089A
:1007100088EEC80E83E0D81EE11CF11C8114910400
:10072000A104B10429F7FF90EF90DF90CF90BF9024
:10073000AF909F908F900895862F642F0C9409039B
:10074000862F642F0C94DB02862F0C949502AF92B7
:10075000BF92CF92DF92EF92FF920F931F93CF93AE
:10076000DF936C017B018B01040F151FEB015E0110
:10077000AE18BF08C017D10759F06991D601ED91A5
:10078000FC910190F081E02DC6011995892B79F734
:10079000C501DF91CF911F910F91FF90EF90DF90F6
:1007A000CF90BF90AF900895FC01538D448D252FBD
:1007B00030E0842F90E0821B930B541710F0CF96FB
:1007C000089501970895FC01918D828D981761F02D
:1007D000A28DAE0FBF2FB11D5D968C91928D9F5F44
:1007E0009F73928F90E008958FEF9FEF0895FC0123
:1007F000918D828D981731F0828DE80FF11D858DD6
:1008000090E008958FEF9FEF0895FC01918D228D68
:10081000892F90E0805C9F4F821B91098F739927ED
:1008200008958FEE92E00E94050421E0892B09F4DF
:1008300020E0822F08958CE893E00E94050421E0D7
:10084000892B09F420E0822F0895FC01A48DA80FC4
:10085000B92FB11DA35ABF4F2C91848D90E0019602
:100860008F739927848FA689B7892C93A089B18922
:100870008C91837080648C93938D848D981306C0C3
:100880000288F389E02D80818F7D80830895EF9227
:10089000FF920F931F93CF93DF93EC0181E0888F3A
:1008A0009B8D8C8D98131AC0E889F989808185FF0A
:1008B00015C09FB7F894EE89FF896083E889F989AC
:1008C00080818370806480839FBF81E090E0DF91AE
:1008D000CF911F910F91FF90EF900895F62E0B8D01
:1008E00010E00F5F1F4F0F731127E02E8C8D8E11BC
:1008F0000CC00FB607FCFACFE889F989808185FF23
:10090000F5CFCE010E942504F1CFEB8DEC0FFD2F2A
:10091000F11DE35AFF4FF0829FB7F8940B8FEA89DD
:10092000FB8980818062CFCFCF93DF93EC01888DEC
:100930008823B9F0AA89BB89E889F9898C9185FD5A
:1009400003C0808186FD0DC00FB607FCF7CF8C91E8
:1009500085FFF2CF808185FFEDCFCE010E94250477
:10096000E9CFDF91CF91089580E090E0892B29F0C5
:100970000E941B0481110E94000080E090E0892BFE
:1009800029F00E94110481110E94000080E090E093
:10099000892B49F080E090E0892B29F00E9400002B
:1009A00081110E94000080E090E0892B49F080E0F6
:1009B00090E0892B29F00E94000081110C94000026
:1009C0000895089590E080E00895CF92DF92EF922D
:1009D000FF920F931F93CF93DF931F921F92CDB778
:1009E000DEB769834A83880F991F0091F404109140
:1009F000F504000F111FEEE9F4E09F012E59344079
:100A00002017310714F41192F8CF2981FC01E25626
:100A1000FB4F21838A81808360E08091F2040E94F1
:100A2000DB021016110604F501501109F801E25617
:100A3000FB4FE080D090F004C090EE0488E0F82EE8
:100A40006E2D661F6627661F8C2D0E94DB02EE0C42
:100A500061E08D2D0E94DB0260E08D2D0E94DB02A3
:100A6000FA94F110EDCFDDCF61E08091F2040F90A8
:100A70000F90DF91CF911F910F91FF90EF90DF903A
:100A8000CF900C94DB02EF92FF920F931F93CF93C2
:100A90007C018C0183E0000F111F8A95E1F702555C
:100AA0001B4FC1E0F80111928F0140E06C2FC7018C
:100AB0000E94E504CF5FC930A9F7CF911F910F9134
:100AC000FF90EF900895CF93DF93EC0160E08E816B
:100AD0000E94DB0261E08E810E94DB0260E08E8179
:100AE0000E94DB028BE891E00197F1F7DF91CF9153
:100AF0000895CF92DF92EF92FF920F931F93CF93BF
:100B0000DF936C017C0187E0E80EF11CD0E0C0E0CF
:100B1000062F10E0B8010C2E02C0759567950A9457
:100B2000E2F76170F70181917F010E94DB0221965B
:100B3000C430D10579F7C601DF91CF911F910F9194
:100B4000FF90EF90DF90CF900C946305CF92DF92EF
:100B5000EF92FF920F931F93CF93DF93EC01F62E4A
:100B6000642F8C810E94DB028D818F3F19F060E041
:100B70000E94DB020F2D10E08F8584FF25C06E01DF
:100B800087E0C80ED11CF12CE12CB8010E2C02C05C
:100B9000759567950A94E2F76170F60181916F018E
:100BA0000E94DB02FFEFEF1AFF0A88E0E816F1046B
:100BB00061F7CE01DF91CF911F910F91FF90EF90E0
:100BC000DF90CF900C946305B80184E0759567952C
:100BD0008A95E1F7CE010E9479056F2DCE01DF9154
:100BE000CF911F910F91FF90EF90DF90CF900C94D9
:100BF000790541E00E94A60581E090E0089540E07B
:100C00000C94A60561E086EF94E00E94FF058BE35B
:100C10009FE10197F1F70895CF93DF93823029F494
:100C200090910505986090930505809309051092B1
:100C30000A0580E480930B0580E180930C0580E534
:100C400080930D0561E08091FA040E940903809170
:100C5000FB048F3F19F061E00E94090361E080917D
:100C6000FC040E940903C6EFD4E09E01265F3440D5
:100C70008091050584FD0BC084E090E02196281743
:100C8000390744F461E08E810E940903EECF88E0C9
:100C900090E0F4CF8BE39DE00197F1F760E0809165
:100CA000FA040E94DB0260E08091FC040E94DB02F7
:100CB0008091FB048F3F19F060E00E94DB0260919D
:100CC000050564FD3AC063E086EF94E00E94790573
:100CD000CBE4D6E4CE010197F1F763E086EF94E030
:100CE0000E9479052197F1F763E086EF94E00E9476
:100CF000790583E592E00197F1F762E086EF94E0F1
:100D00000E94790560910505606286EF94E00E947B
:100D1000FF0584E0809306056CE086EF94E00E9476
:100D2000FF050E94020682E08093070566E086EFD9
:100D300094E0DF91CF910C94FF05606286EF94E020
:100D40000E94FF058BE496E40197F1F76091050599
:100D5000606286EF94E00E94FF0583E592E00197D0
:100D6000F1F760910505606286EF94E00E94FF054F
:100D7000C9CF443008F043E0FC012389421710F04A
:100D80004FEF420FFC01E40FF11D2489620F6068F0
:100D90000C94FF05CF92DF92FF920F931F93CF9396
:100DA000DF93EC01F62E60E40E94FF0500E012E004
:100DB00088E0C82E82E0D82EF80161918F01CE0123
:100DC0000E94F905C016D106B9F740E06F2DCE019B
:100DD0000E94B90660E0CE01DF91CF911F910F9183
:100DE000FF90DF90CF900C94F905FC01019000205A
:100DF000E9F73197AF01481B590BBC0186EF94E02E
:100E00000C94A7030F931F93CF93DF93EC0188817A
:100E10009981009759F02A813B812617370730F0D6
:100E200081E0DF91CF911F910F9108958B016F5F4A
:100E30007F4F0E947D0E009759F0998388831B8312
:100E40000A832C813D81232B59F7FC011082E8CFC6
:100E500080E0E7CF1F920F920FB60F9211242F93CD
:100E60003F938F939F93AF93BF938091EB029091A9
:100E7000EC02A091ED02B091EE023091E60223E087
:100E8000230F2D3758F50196A11DB11D2093E602C1
:100E90008093EB029093EC02A093ED02B093EE02EC
:100EA0008091E7029091E802A091E902B091EA02F4
:100EB0000196A11DB11D8093E7029093E802A093D3
:100EC000E902B093EA02BF91AF919F918F913F9158
:100ED0002F910F900FBE0F901F90189526E8230FAB
:100EE0000296A11DB11DD2CF1F920F920FB60F9285
:100EF00011240BB60F922F933F934F935F936F93F1
:100F00007F938F939F93AF93BF93EF93FF938FEE56
:100F100092E00E942504FF91EF91BF91AF919F91C4
:100F20008F917F916F915F914F913F912F910F9092
:100F30000BBE0F900FBE0F901F9018951F920F922F
:100F40000FB60F9211240BB60F922F938F939F938E
:100F5000EF93FF93E091FF02F09100038081E09115
:100F60000503F091060382FD1DC090818091080366
:100F70008F5F8F7320910903821741F0E09108037E
:100F8000F0E0E151FD4F958F80930803FF91EF91C1
:100F90009F918F912F910F900BBE0F900FBE0F90CE
:100FA0001F9018958081F2CF1F920F920FB60F926B
:100FB00011240BB60F922F933F934F935F936F9330
:100FC0007F938F939F93AF93BF93EF93FF938CE89F
:100FD00093E00E942504FF91EF91BF91AF919F9103
:100FE0008F917F916F915F914F913F912F910F90D2
:100FF0000BBE0F900FBE0F901F9018951F920F926F
:101000000FB60F9211240BB60F922F938F939F93CD
:10101000EF93FF93E0919C03F0919D038081E09119
:10102000A203F091A30382FD1DC090818091A503CE
:101030008F5F8F732091A603821741F0E091A50383
:10104000F0E0E457FC4F958F8093A503FF91EF915B
:101050009F918F912F910F900BBE0F900FBE0F900D
:101060001F9018958081F2CFCF93DF931092F202F8
:101070001092F10248EE53E060E070E04093F3021A
:101080005093F4026093F5027093F60285E292E0C9
:101090009093F0028093EF022DEC30E03093FC024D
:1010A0002093FB022CEC30E03093FE022093FD02F3
:1010B00028EC30E0309300032093FF0229EC30E06D
:1010C00030930203209301032AEC30E030930403B1
:1010D000209303032EEC30E03093060320930503A6
:1010E000109208031092090310920A0310920B0346
:1010F00010928F0310928E034093900350939103AC
:10110000609392037093930390938D0380938C0369
:1011100085EC90E0909399038093980384EC90E0A1
:1011200090939B0380939A0380EC90E090939D03AF
:1011300080939C0381EC90E090939F0380939E03A7
:1011400082EC90E09093A1038093A00386EC90E062
:101150009093A3038093A2031092A5031092A60379
:101160001092A7031092A8031092F9041092F804A9
:1011700081E492E09093F7048093F6048CE08093EE
:10118000FA048FEF8093FB048BE08093FC0485E0EE
:101190008093FD0484E08093FE0483E08093FF0449
:1011A00082E08093000510920105109202051092D2
:1011B0000305109204051092050581E00E940C06BB
:1011C000CAE0D0E0D093EF04C093EE0488E090E052
:1011D0009093F1048093F00489E090E09093F304FD
:1011E0008093F20481E090E09093F5048093F404FE
:1011F00061E08AE00E94090361E08091F0040E94AE
:10120000090361E08091F2040E94090361E080918A
:10121000F2040E94DB02D093EF04C093EE04EEEAE6
:10122000F4E08EEE94E011928E179F07E1F7D0E084
:10123000C0E08091F4049091F504C817D90774F5C3
:1012400040E06FE0CE010E94E5048091F4049091AB
:10125000F504C817D9072CF447E06BE0CE010E94D3
:10126000E50440E069E0CE010E94E5048091F404C9
:101270009091F504C817D9071CF4CE010E944305CC
:101280008091F4049091F504C817D9072CF440E03C
:101290006CE0CE010E94E5042196CBCF10929D0414
:1012A00087E190E090939C0480939B0410929A04B1
:1012B00088E190E0909399048093980410922B0415
:1012C00010922F0410922E041092300487E392E0C3
:1012D00090932A0480932904E5E4F4E081E894E003
:1012E000108214821382158236968E179F07C1F7DB
:1012F0008BE092E090938C0480938B0488E092E0E2
:1013000090938E0480938D0484E080938F0483E017
:10131000809390048FE092E090938A0480938904F4
:101320008AE090E0909392048093910484EF91E09E
:1013300090939404809393041092970410929604CF
:1013400010928504109286041092870410928804EB
:1013500010929504DF91CF910895CF93DF93CDB78D
:10136000DEB76A970FB6F894DEBF0FBECDBF789494
:1013700084B5826084BD84B5816084BD85B582609A
:1013800085BD85B5816085BD80916E00816080934B
:101390006E001092810080918100826080938100B4
:1013A00080918100816080938100809180008160C4
:1013B000809380008091B10084608093B10080911F
:1013C000B00081608093B000809191008260809332
:1013D00091008091910081608093910080919000B4
:1013E0008160809390008091A10082608093A10031
:1013F0008091A10081608093A1008091A000816014
:101400008093A000809121018260809321018091CE
:10141000210181608093210180912001816080936E
:10142000200180917A00846080937A0080917A0014
:10143000826080937A0080917A00816080937A0044
:1014400080917A00806880937A001092C1008CE8C5
:1014500093E00E9474018FEE92E00E94740182E09A
:101460000E940C068091F4049091F5041816190658
:1014700034F441E06CE090E080E00E94E50480916B
:10148000F4049091F5041816190634F448E06AE063
:1014900090E080E00E94E5048091F4049091F504CE
:1014A0001816190624F490E080E00E94430560E0DD
:1014B00080919B040E94090360E0809198040E943F
:1014C0000903412C512C32014394AA24AA94BA2C2A
:1014D0008091E4029091E502009731F0019709F4C0
:1014E000E2C00E94B404F4CF0E9402068091F80486
:1014F0009091F9049C838B8301E412E01A830983A1
:101500008091FA048D838091FB048E838091FC048A
:101510008F8388E0EDEFF4E0DE01189601900D92E4
:101520008A95E1F780910505888B80910605898B66
:10153000809107058A8B809108058B8B8091090526
:101540008C8B80910A0590910B05A0910C05B091B0
:101550000D058D8B9E8BAF8BB88F70E060E0CE0158
:1015600001960E94CA0640E061E086EF94E00E9486
:10157000B90689E492E00E94F5068091F804909102
:10158000F9049C838B831A8309838091FA048D83E9
:101590008091FB048E838091FC048F8388E0EDEFC3
:1015A000F4E0DE01189601900D928A95E1F78091A2
:1015B0000505888B80910605898B809107058A8BAC
:1015C000809108058B8B809109058C8B80910A0591
:1015D00090910B05A0910C05B0910D058D8B9E8B04
:1015E000AF8BB88F6BE070E0CE0101960E94CA0607
:1015F0006CE271E080E090E00E946A0341E060E00C
:1016000086EF94E00E94B90684E592E00E94F50618
:101610006CE271E080E090E00E946A0342E060E0EA
:1016200086EF94E00E94B90685E692E00E94F506F6
:101630006CE271E080E090E00E946A0343E060E0C9
:1016400086EF94E00E94B90686E792E00E94F506D4
:101650006CE271E080E090E00E946A0344E060E0A8
:1016600086EF94E00E94B90685E892E00E94F506B4
:101670006CE271E080E090E00E946A0345E060E087
:1016800086EF94E00E94B90683E992E00E94F50695
:101690000E94BE028823E1F381E090E09093E5028E
:1016A0008093E4021ECF0E94020640E060E086EFD5
:1016B00094E00E94B90682EA92E00E94F5066CE28C
:1016C00071E080E090E00E946A0341E060E086EF14
:1016D00094E00E94B90681EB92E00E94F5066CE26C
:1016E00071E080E090E00E946A0342E060E086EFF3
:1016F00094E00E94B9068AEB92E00E94F5066CE243
:1017000071E080E090E00E946A030E94020640E0DF
:1017100060E086EF94E00E94B90686EC92E00E94B9
:10172000F5061A8219821C821B821E821D8270E0BD
:1017300060E0CE0101960E94020729813A81811161
:1017400043C02115310519F0C9010E94F40D1A8218
:1017500019821E821D821C821B8251E050939504C7
:101760008FB7F8944091EB025091EC026091ED023A
:101770007091EE028FBF8091850490918604A091B4
:101780008704B0918804481B590B6A0B7B0B80912E
:10179000910490919204B0E0A0E084179507A60709
:1017A000B70708F027C110E080918F041817A0F444
:1017B000E0918B04F0918C04E10FF11D62E08081D7
:1017C0000E9409031F5FF0CF1E821D826EED72E042
:1017D000C9010E94670FC1CF312C80919004381647
:1017E00008F061C0E32CF12CE0918D04F0918E049F
:1017F000EE0DFF1D61E080810E940903E0918D04E0
:10180000F0918E04EE0DFF1D60E080810E94DB02EE
:10181000D301C201032C04C0880F991FAA1FBB1F4C
:101820000A94D2F74C016C01C094D094212C809181
:101830008F04281608F5022D10E0E0918B04F0913A
:101840008C04E00FF11F80810E9495020C5F1F4FF6
:10185000000F111FF801E75DFB4F892B41F48081D8
:10186000918188299929918380832394E0CF808175
:1018700091818C219D21F7CFE0918D04F0918E0410
:10188000EE0DFF1D61E080810E94DB0280918D04DE
:1018900090918E04E80EF91E60E0F70180810E94AD
:1018A000090333949ACF09E214E07801F701878D98
:1018B00090A1892B21F4148EB68EA58E11A2F6E08C
:1018C000EF0EF11C55E6E51654E0F50679F7912C7C
:1018D00080918F04981608F053C0812CC92CD12C0C
:1018E000CC0CDD1CC6018F5C9B4F6C0120919004D9
:1018F000821608F043C0F60160817181082C02C095
:10190000769567950A94E2F7929E90011124280D2E
:10191000311DE9E2F4E080E0458D568D241735074E
:1019200009F4BCC08F5F36968A30B1F760FF24C0DF
:10193000E9E2F4E090E080E0448D411118C0E091CC
:101940008904F0918A04E20FF31F408156E0589F0A
:10195000F001599FF00D1124E75DFB4F448F368F46
:10196000258F10A2178E61E00E94BE0105C001966E
:1019700036968A30910501F78394B8CF9394A8CF17
:1019800080E0F80191A19111892F0A5F1F4FE016A5
:10199000F106B9F79FB7F8944091EB025091EC0231
:1019A0006091ED027091EE029FBF409385045093C9
:1019B000860460938704709388048823D9F080910B
:1019C0004A048823B9F08091480490914904019712
:1019D00089F480914504811110C00E94BE028823C1
:1019E00009F4BBCE89819A81009709F47ACD0E94CF
:1019F000F40D77CD10929504F0CF0D811E81023049
:101A0000110538F5898F1A8E0F5F1F4FB801CE016F
:101A100001960E940207882369F029813A818D810D
:101A20009E81BE01675E7F4F820F931F0E94670FEA
:101A30001E830D8341E060E086EF94E00E94B906CA
:101A40004D815E8169817A8186EF94E00E94A703CF
:101A5000C4CF41E060E086EF94E00E94B9068EECCE
:101A600092E00E94F50641E060E086EF94E00E947B
:101A7000B9068FED92E00E94F50668EE73E080E013
:101A800090E00E946A0341E060E086EF94E00E94EB
:101A9000B9068EEC92E00E94F506CCCF617064CF5F
:101AA000EE0FFF1F881F8BBF0790F691E02D199452
:101AB0000F931F93CF93DF938230910510F482E050
:101AC00090E0E0911005F091110530E020E0B0E0E9
:101AD000A0E0309799F42115310509F44AC0281B7C
:101AE000390B24303105D8F58A819B816115710548
:101AF00089F1FB0193838283FE0111C040815181F2
:101B00000281138148175907E0F04817590799F4E3
:101B1000109761F012960C93129713961C933296BD
:101B2000CF01DF91CF911F910F9108950093100580
:101B300010931105F4CF2115310551F042175307C9
:101B400038F0A901DB019A01BD01DF01F801C1CF25
:101B5000EF01F9CF9093110580931005CDCFFE01D1
:101B6000E20FF31F81939193225031093983288327
:101B7000D7CF20910E0530910F05232B41F42091F2
:101B80001D0230911E0230930F0520930E05209107
:101B90001B0230911C022115310541F42DB73EB7CF
:101BA00040911F0250912002241B350BE0910E053D
:101BB000F0910F05E217F307A0F42E1B3F0B281737
:101BC000390778F0AC014E5F5F4F2417350748F0B6
:101BD0004E0F5F1F50930F0540930E058193919315
:101BE0009FCFF0E0E0E09CCFCF93DF930097E9F048
:101BF000FC01329713821282A0911005B091110559
:101C0000ED0130E020E01097A1F420813181820FB6
:101C1000931F20910E0530910F052817390709F001
:101C200061C0F0930F05E0930E05DF91CF91089509
:101C3000EA01CE17DF07E8F54A815B819E01411575
:101C40005105B1F7E901FB83EA8349915991C40F2A
:101C5000D51FEC17FD0761F4808191810296840FF6
:101C6000951FE90199838883828193819B838A836D
:101C7000F0E0E0E012968D919C9113970097B9F5F2
:101C80002D913C911197CD010296820F931F2091C7
:101C90000E0530910F052817390739F6309751F5A1
:101CA0001092110510921005B0930F05A0930E0528
:101CB000BCCFD383C28340815181840F951FC81745
:101CC000D90761F44E5F5F4F88819981480F591F92
:101CD000518340838A819B819383828321153105BF
:101CE00009F0B0CFF0931105E09310059ECFFD01F0
:101CF000DC01C0CF13821282D7CF4F925F926F92D6
:101D00007F928F929F92AF92BF92CF92DF92EF928B
:101D1000FF920F931F93CF93DF938C01009799F459
:101D2000CB01DF91CF911F910F91FF90EF90DF904A
:101D3000CF90BF90AF909F908F907F906F905F906B
:101D40004F900C94580DFC01E60FF71F9C01225098
:101D50003109E217F30708F4AEC0D901CD91DC9147
:101D60001197C617D70720F1C530D10578F0CE01FD
:101D700004978617970750F0C61BD70B2297C1937D
:101D8000D1936D937C93CF010E94F40DC801DF9134
:101D9000CF911F910F91FF90EF90DF90CF90BF9068
:101DA000AF909F908F907F906F905F904F9008952D
:101DB0005B01AC1ABD0A4C018C0E9D1EA091100552
:101DC000B0911105512C412CF12CE12C109731F5DB
:101DD00080910E0590910F058815990509F05CC05A
:101DE0004616570608F058C080911B0290911C02BD
:101DF000009741F48DB79EB740911F025091200289
:101E0000841B950BE817F90708F055C0F0930F05F0
:101E1000E0930E05F90171836083B8CF8D919C9199
:101E2000119712966C90129713967C901397A815A1
:101E3000B90559F56C0142E0C40ED11CCA14DB048B
:101E400020F1AC014A195B09DA011296159780F06E
:101E50006282738251834083D9016D937C93E11434
:101E6000F10471F0D7011396FC93EE9312978ECF85
:101E700022968C0F9D1FF90191838083F301EFCF90
:101E8000F0931105E093100581CF4816590608F428
:101E90002C017D01D3019ACFCB010E94580D7C010A
:101EA000009749F0AE01B8010E945E0FC8010E9480
:101EB000F40D87016BCF10E000E068CFFB01DC017F
:101EC00002C001900D9241505040D8F70895FB0197
:101ED000DC0101900D920020E1F70895F894FFCF06
:101EE00000010316181603011E1F201A1B1C1D31AA
:101EF00032333435363738395830230000120580F4
:101F000000000000004704A703D40394040504E381
:101F100003F703000000009C03A003A403000000DB
:101F200000F905A703E204E1044269656E76656E77
:101F300069646F00526F626572746F323032303094
:101F400030353434004564676172646F3230313843
:101F500030313131390043657361723230323031A2
:101F600030383136004A6F736532303230303138B4
:101F7000303000416E67656C323032303132303390
:101F800039004D656E75205072696E636970616CC1
:101F900000312E204C6F67696E00322E205265672B
:101FA000697374726F004F7063696F6E3A0020201E
:101FB0002020202020202020202020202020004D14
:041FC0004158000084
:00000001FF
