:020000040000FA
:100000000C945C010C948D010C948D010C948D0169
:100010000C948D010C948D010C948D010C948D0128
:100020000C948D010C948D010C948D010C948D0118
:100030000C948D010C948D010C948D010C948D0108
:100040000C948D010C948D010C948D010C948D01F8
:100050000C948D010C948D010C948D010C94DB1B80
:100060000C948D010C94AF1C0C94851C0C948D0188
:100070000C948D010C948D010C948D010C948D01C8
:100080000C948D010C948D010C948D010C948D01B8
:100090000C944F1C0C94251C0C948D010C948D0118
:1000A0000C948D010C948D010C948D010C948D0198
:1000B0000C948D010C948D010C948D010C948D0188
:1000C0000C948D010C948D010C948D010C948D0178
:1000D0000C948D010C948D010C948D010C948D0168
:1000E0000C948D010C9401220C949A020C9416022B
:1000F0000C94E4040C9401020C94DA020C9497051D
:100100000C9420020C9469020C94FD010C94E504FB
:100110000C942E020C9473060C94F7270C94E5248F
:100120000C9412020C942A050C9422290C94DD24C0
:100130000C94F7010C9452090C94E51C0C94CC2BF4
:100140000C940C020C941B050C9424020C94E224D5
:100150000C9426060C949C210C943C020C941C02DA
:100160000C94EF250C9432020C94D9050C94E82DD4
:100170000C94B0230C942A020C94D82C0C943702C3
:100180000C9405020C9448270C9438020C94090234
:100190000C94890500002100240027002A002D006E
:1001A0003000330001010000040107010A010000D2
:1001B0002200250028002B002E003100340002010F
:1001C0000000050108010B010000200023002600AB
:1001D00029002C002F00320000010000030106015D
:1001E00009010505050507050808080802020202BD
:1001F0000A0A0808040404040101010101010101C3
:100200000303030303030303040707070C0C0C0C8D
:100210000C0C0C0C02020202060606060606060676
:100220000B0B0B0B0B0B0B0B010210202008081003
:100230002040102040800201020108040201010256
:10024000040810204080804020100804020180042F
:10025000020180402010080402010804020101028A
:100260000408102040800102040810204080000093
:100270000A0B02090C0D0E08070304010000000020
:10028000000000000000000000000000000000006E
:10029000000000000000000000001211100000002B
:1002A000000000000000000000000000000000004E
:1002B00000000000E51CE82D11241FBECFEFD1E2A5
:1002C000DEBFCDBF00E00CBF21E1A6E9BFE001C069
:1002D0001D92AA3FB207E1F71FE0A0E0B2E0E4E21E
:1002E000F1E600E00BBF02C007900D92A639B107FE
:1002F000D9F711E0CBE5D1E000E006C02197010974
:10030000802FFE010E94592ECA35D10780E00807D0
:10031000A9F70E946A1E0C9480300C940000FC0126
:10032000A089B18982E08C93A485B5851C92A685AD
:10033000B7858FEC8C93108EA489B58986E08C9359
:10034000A289B3898C9180618C93A289B3898C91A5
:1003500088608C93A289B3898C9180688C93028881
:10036000F389E02D80818F7D8083089596E0899FB9
:10037000D0011124A55FBE4E90967C936E935F973B
:1003800091E091969C939197E0917811F091791179
:1003900090917711992339F0309751F0811108C06D
:1003A000809127111994309719F05C968C91FACFAF
:1003B00008958150823108F05AC0E82FF0E0882774
:1003C000EB51FE4F8F4F0C94592E05020902F70195
:1003D000FD01010237020C02120216021C02200269
:1003E00024022A022E023702320238023C02809195
:1003F00080008F77809380000895809180008F7DAA
:10040000F9CF80918000877FF5CF84B58F7784BD49
:10041000089584B58F7DFBCF8091B0008F77809356
:10042000B00008958091B0008F7DF9CF8091900049
:100430008F77809390000895809190008F7DF9CF01
:1004400080919000877FF5CF8091A0008F77809377
:10045000A00008958091A0008F7DF9CF8091A00029
:10046000877FF5CF809120018F77809320010895B9
:10047000809120018F7DF9CF80912001877FF5CF7A
:10048000CF93DF93282F30E0F901E259FD4F84919B
:10049000F901E85DFD4FD491F901EE51FE4FC49191
:1004A000CC23A1F081110E94D901EC2FF0E0EE0FD6
:1004B000FF1FE853FE4FA591B491EC91ED2381E02D
:1004C00090E009F480E0DF91CF91089580E090E022
:1004D000FACF862F0C9440021F93CF93DF93282FDF
:1004E00030E0F901E259FD4F8491F901E85DFD4FDB
:1004F000D491F901EE51FE4FC491CC23A9F0162FEF
:1005000081110E94D901EC2FF0E0EE0FFF1FE255A0
:10051000FE4FA591B4918FB7F894EC91111108C0DA
:10052000D095DE23DC938FBFDF91CF911F9108958B
:10053000DE2BF8CF862F642F0C946C02CF93DF93C1
:1005400090E0FC01E85DFD4F24918E519E4FFC012F
:1005500084918823C9F090E0880F991FFC01EC5624
:10056000FE4FA591B491FC01E255FE4FC591D49187
:1005700061110DC09FB7F8948C91209582238C93C4
:100580008881282328839FBFDF91CF91089562300F
:1005900051F49FB7F8943C91822F809583238C93DC
:1005A000E8812E2BEFCF8FB7F894EC912E2B2C9364
:1005B0008FBFEACF862F642F0C949E023FB7F8942A
:1005C0008091C20F9091C30FA091C40FB091C50F3D
:1005D00026B5A89B05C02F3F19F00196A11DB11D9E
:1005E0003FBFBA2FA92F982F8827BC01CD01620FDA
:1005F000711D811D911D42E0660F771F881F991F95
:100600004A95D1F708958F929F92AF92BF92CF9261
:10061000DF92EF92FF924B015C010E94DE026B01C0
:100620007C010E94DE026C197D098E099F09683EDB
:10063000734081059105A8F321E0821A9108A10871
:10064000B10888EEC80E83E0D81EE11CF11C8114AD
:100650009104A104B10429F7FF90EF90DF90CF90AF
:10066000BF90AF909F908F9008952FB7F8946091AE
:10067000BE0F7091BF0F8091C00F9091C10F2FBF1F
:1006800008950F931F93CF93DF93C82FD62F86E043
:10069000C89FF0011124E55FFE4E11A2878D90A145
:1006A00081309105F1F058F082309105F1F1039716
:1006B00009F440C0DF91CF911F910F9108956623F7
:1006C000C9F361E070E08C2F0E94B6010E943503EF
:1006D0006093631170936411809365119093661118
:1006E000E9CF0E94350300916311109164112091AC
:1006F000651130916611AB01BC01401B510B620BBF
:10070000730B8091751190917611B0E0A0E0841781
:100710009507A607B70748F462E070E08C2FDF91D9
:10072000CF911F910F910C94B60163E070E0D1114D
:10073000C1CFF4CF70E060E0F1CF6F927F928F92E3
:100740009F92AF92BF92CF92DF92EF92FF920F9360
:100750001F93CF93DF9381E0809377110E9435033D
:1007600000916711109168112091691130916A11FF
:10077000AB01BC01401B510B620B730B80917311D9
:1007800090917411B0E0A0E084179507A607B70711
:1007900008F014C1C0E080917111C81760F4E091B5
:1007A0006D11F0916E11EC0FF11D62E080810E94DD
:1007B0009E02CF5FF0CF712C812C912C5401839439
:1007C00080917211781608F05FC0072D10E0E0915B
:1007D0006F11F0917011E00FF11F61E080810E94B4
:1007E0009E02E0916F11F0917011E00FF11F60E037
:1007F00080810E946C02D501C401072C04C0880FBF
:10080000991FAA1FBB1F0A94D2F76C017C01E094C8
:10081000F094612C809171116816F8F4C62DD0E027
:10082000E0916D11F0916E11EC0FFD1F80810E941F
:1008300040022496CC0FDD1FC55FDE4E892B41F4AC
:10084000888199818C299D29998388836394E2CF3B
:10085000888199818E219F21F7CFE0916F11F091CE
:100860007011E00FF11F61E080810E946C028091A5
:100870006F1190917011080F191F60E0F8018081CD
:100880000E949E0273949CCFCBE0D1E1FE018FEFDA
:100890009FEF278D30A1232B21F4148E968F858F07
:1008A00011A2369621E1E734F20799F7F12C96E090
:1008B000D92E80917111F81608F050C0E12C0F2D3F
:1008C00010E0000F111F0D5E1E4E20917211E216F6
:1008D00008F042C0F801608171810E2C02C076954B
:1008E00067950A94E2F7F29E900111242E0D311DB6
:1008F000EBE0F1E180E0458D568D2417350709F4D2
:1009000061C08F5F36968A30B1F760FF23C0EBE09D
:10091000F1E190E080E0448D411117C0E0916B114E
:10092000F0916C11E20FF31F4081D89EF001D99E27
:10093000F00D1124E55FFE4E448F368F258F10A2F7
:10094000178E61E00E94410305C0019636968A30F9
:10095000910509F7E394B9CFF394ABCF10E089A1E7
:100960008111182F2696F1E1C734DF07C1F70E94E5
:1009700035036093671170936811809369119093A8
:100980006A111123D9F080912C118823B9F080913C
:100990002A1190912B11019789F480912711DF91F1
:1009A000CF911F910F91FF90EF90DF90CF90BF906C
:1009B000AF909F908F907F906F90089510927711D5
:1009C00080E0EDCF6170BECF0895AF92BF92CF921D
:1009D000DF92EF92FF920F931F93CF93DF936C01FF
:1009E0007B018B01040F151FEB015E01AE18BF08E0
:1009F000C017D10759F06991D601ED91FC91019092
:100A0000F081E02DC6011995892B79F7C501DF9199
:100A1000CF911F910F91FF90EF90DF90CF90BF90FB
:100A2000AF900895FC0144815581608171818EED04
:100A300091E10C94E504FC01538D448D252F30E0A9
:100A4000842F90E0821B930B541710F0CF960895DB
:100A500001970895FC01918D828D981761F0A28D08
:100A6000AE0FBF2FB11D5D968C91928D9F5F9F73CE
:100A7000928F90E008958FEF9FEF0895CF92DF92CD
:100A8000EF92FF920F931F93CF93DF938C01D0E0EF
:100A9000C0E00E9435036093D90F7093DA0F809302
:100AA000DB0F9093DC0F81ED9FE00E942A0597FFFA
:100AB00028C00E943503C090D90FD090DA0FE09083
:100AC000DB0FF090DC0F6C197D098E099F09C09037
:100AD000D50FD090D60FE090D70FF090D80F6C15AF
:100AE0007D058E059F05F8F2CE01DF91CF911F9114
:100AF0000F91FF90EF90DF90CF900895C2E0D0E08B
:100B0000F3CFF80181938F012197C1F3C1E0D0E0C9
:100B1000C0CFFC01918D828D981731F0828DE80F46
:100B2000F11D858D90E008958FEF9FEF0895FC01F2
:100B3000918D228D892F90E0805C9F4F821B9109BF
:100B40008F739927089581ED9FE00E94970521E01A
:100B5000892B09F420E0822F08958EE690E10E940F
:100B6000970521E0892B09F420E0822F0895FC01EC
:100B7000A48DA80FB92FB11DA35ABF4F2C91848DFE
:100B800090E001968F739927848FA689B7892C935B
:100B9000A089B1898C91837080648C93938D848DAE
:100BA000981306C00288F389E02D80818F7D8083B1
:100BB0000895EF92FF920F931F93CF93DF93EC0171
:100BC00081E0888F9B8D8C8D98131AC0E889F989F4
:100BD000808185FF15C09FB7F894EE89FF896083F7
:100BE000E889F98980818370806480839FBF81E078
:100BF00090E0DF91CF911F910F91FF90EF900895BA
:100C0000F62E0B8D10E00F5F1F4F0F731127E02E94
:100C10008C8D8E110CC00FB607FCFACFE889F989CC
:100C2000808185FFF5CFCE010E94B705F1CFEB8D16
:100C3000EC0FFD2FF11DE35AFF4FF0829FB7F894A0
:100C40000B8FEA89FB8980818062CFCFCF93DF93BE
:100C5000EC01888D8823B9F0AA89BB89E889F989D4
:100C60008C9185FD03C0808186FD0DC00FB607FC09
:100C7000F7CF8C9185FFF2CF808185FFEDCFCE013C
:100C80000E94B705E9CFDF91CF91089580E090E011
:100C9000892B29F00E94AD0581110E94000080E09F
:100CA00090E0892B29F00E94A30581110E94000089
:100CB00080E090E0892B49F080E090E0892B29F0DA
:100CC0000E94000081110E94000080E090E0892BCA
:100CD00049F080E090E0892B29F00E94000081110A
:100CE0000C940000089590E080E00895CF92DF9288
:100CF000EF92FF92CF93DF930E943503EB010E94A6
:100D000035030E9435036B0181ED9FE00E9497053A
:100D1000892B29F081ED9FE00E942A05F5CFCC1A9E
:100D2000DD0A88EEC81683E0D8065CF381ED9FE00B
:100D30000E949705892B29F7DF91CF91FF90EF90C3
:100D4000DF90CF900895CF93DF93EC018A818111DA
:100D50000AC088810E944002019729F481E08A83B9
:100D6000DF91CF9108958A81811102C080E0F8CF90
:100D700088810E944002892BC9F71A82F7CF4F92CF
:100D80005F926F927F928F929F92AF92BF92CF921B
:100D9000DF92EF92FF920F931F93CF93DF931F92F7
:100DA0001F92CDB7DEB78C0149832A83660F771F68
:100DB000F801EA5AFF4FE080F180EE0CFF1CF801C9
:100DC000CF01801B910B8E159F0514F41192F8CF63
:100DD0008981F801E60FF71F81838A81808368018A
:100DE00084E5C80ED11C60E0F60180810E946C028F
:100DF0005801F2E5AF0EB11C480180E5880E911C48
:100E00001E141F040CF5E1E0EE1AF108F801EE0DD6
:100E1000FF1D6080F5015080F401408088E0782E4D
:100E2000662D661F6627661F842D0E946C02660C65
:100E300061E0852D0E946C0260E0852D0E946C02AD
:100E40007A947110EDCFDCCF61E0F60180810F90D4
:100E50000F90DF91CF911F910F91FF90EF90DF9056
:100E6000CF90BF90AF909F908F907F906F905F904A
:100E70004F900C946C02EF92FF920F931F93CF93BD
:100E80007C018C0183E0000F111F8A95E1F70A565F
:100E90001E4EC1E0F80111928F0120E04C2FB701E6
:100EA00086E891E10E94BF06CF5FC93099F7CF91E4
:100EB0001F910F91FF90EF9008959F92AF92BF9274
:100EC000CF92DF92EF92FF920F931F93CF93DF9316
:100ED000CDB7DEB7C054D1090FB6F894DEBF0FBE50
:100EE000CDBFC955DF4F28813981C75AD040FE0197
:100EF000319680E4DF011D928A95E9F749E1429F2E
:100F0000C001439F900D1124875E9D4F8F01BE014C
:100F1000675D7F4FAF0130E020E0FA01E20FF31F81
:100F2000DC01A20FB31FAC91A18B2F5F3F4F253087
:100F3000310599F70596485F5F4F4617570759F7F0
:100F4000FE01E15BFF4F7F019924939480E8A82E76
:100F5000B12CD12CC12CCB55DF4F88819981C55A3A
:100F6000D04018161906FCF4C5010C2C02C095954A
:100F700087950A94E2F7D70150962C915097F80183
:100F8000EC0DFD1D3081332389F1822B50968C931B
:100F9000D70150962C91492D70E060E0CE01815B25
:100FA0009F4F0E94BF06BFEFCB1ADB0AE8E0CE16C8
:100FB000D10489F6FFEFEF1AFF0A9394085F1F4FE1
:100FC00089E09812C6CFC05CDF4F0FB6F894DEBF41
:100FD0000FBECDBFDF91CF911F910F91FF90EF908A
:100FE000DF90CF90BF90AF909F900895809582231F
:100FF000F701808BCDCFCF93DF93EC0160E08E8142
:101000000E946C0261E08E810E946C0260E08E8121
:101010000E946C028BE891E00197F1F7DF91CF918C
:101020000895CF92DF92EF92FF920F931F93CF9389
:10103000DF936C017C0187E0E80EF11CD0E0C0E09A
:10104000062F10E0B8010C2E02C0759567950A9422
:10105000E2F76170F70181917F010E946C02219695
:10106000C430D10579F7C601DF91CF911F910F915F
:10107000FF90EF90DF90CF900C94FB07CF92DF9220
:10108000EF92FF920F931F93CF93DF93EC01F62E15
:10109000642F8C810E946C028D818F3F19F060E07B
:1010A0000E946C020F2D10E08F8584FF25C06E0119
:1010B00087E0C80ED11CF12CE12CB8010E2C02C027
:1010C000759567950A94E2F76170F60181916F0159
:1010D0000E946C02FFEFEF1AFF0A88E0E816F104A5
:1010E00061F7CE01DF91CF911F910F91FF90EF90AB
:1010F000DF90CF900C94FB07B80184E0759567955D
:101100008A95E1F7CE010E9411086F2DCE01DF9183
:10111000CF911F910F91FF90EF90DF90CF900C94A3
:10112000110840E0682F8EED91E10C943E0881E0BB
:101130000E9491088BE39FE10197F1F70895CF9307
:10114000DF93813029F09091ED1198609093ED112B
:101150008093F1111092F21180E48093F31180E1F9
:101160008093F41180E58093F51161E08091E211A4
:101170000E949E028091E3118F3F19F061E00E946E
:101180009E0261E08091E4110E949E02CEEDD1E1C9
:101190009E012E5D31418091ED1184FD0BC084E0F4
:1011A00090E021962817390744F461E08E810E946F
:1011B0009E02EECF88E090E0F4CF8BE39DE00197B4
:1011C000F1F760E08091E2110E946C0260E0809192
:1011D000E4110E946C028091E3118F3F19F060E0EE
:1011E0000E946C028091ED1184FD34C063E08EEDAD
:1011F00091E10E941108CBE4D6E4CE010197F1F70A
:1012000063E08EED91E10E9411082197F1F763E010
:101210008EED91E10E94110883E592E00197F1F7CC
:1012200062E08EED91E10E9411088091ED118062E3
:101230000E94910884E08093EE118CE00E94910856
:101240000E94970882E08093EF1186E0DF91CF91B2
:101250000C94910880620E9491088BE496E40197B7
:10126000F1F78091ED1180620E94910883E592E090
:101270000197F1F78091ED1180620E949108D5CF1E
:10128000643008F063E09091F111691710F06FEF8E
:10129000690FE62FF0E0E252FE4E9489890F8068D4
:1012A0000C94910841E00E943E0881E090E008958E
:1012B000FC0124813581232B39F421E0FB0180815D
:1012C000882349F020E007C0808191810E9470301E
:1012D00021E0892BB9F7822F0895FB0101900020AE
:1012E000E9F73197AF01461B570BDC01ED91FC91FB
:1012F0000280F381E02D19948F929F92AF92BF925A
:10130000EF92FF920F931F93CF93DF93CDB7DEB78A
:10131000A1970FB6F894DEBF0FBECDBF7C01FA01D6
:10132000CB0119A2223008F42AE08E010F5D1F4F75
:10133000822E912CB12CA12CBF01A50194010E94F9
:10134000372EF901CA016A300CF5605DD8016E9341
:101350008D01232B242B252B79F790E080E010972B
:1013600021F0BD01C7010E946D09A1960FB6F89446
:10137000DEBF0FBECDBFDF91CF911F910F91FF90C8
:10138000EF90BF90AF909F908F900895695CDECFF3
:10139000CF92DF92EF92FF92CF93DF936C01990F80
:1013A000EE08FF08F7FE23C06DE28EE690E10E9492
:1013B000D905EC0144275527BA014C195D096E097E
:1013C0007F092AE08EE690E10E947C09C80FD91FB0
:1013D0006EE279E08EE690E10E946D098C0F9D1F10
:1013E000DF91CF91FF90EF90DF90CF9008952AE0AA
:1013F000B701A6018EE690E10E947C09EC01E8CFDE
:101400000F931F93CF93DF93EC010E946D098C0122
:101410006EE279E0CE010E946D09800F911FDF918D
:10142000CF911F910F9108950C946D09CF93DF9385
:10143000FC0101900020E9F73197E81BF90BDC0172
:1014400038E0AD01481B590B4E175F0734F42D915E
:10145000ED01219723272883F4CFDF91CF910895C1
:10146000DC0114968D919C9115976817790750F4BB
:10147000ED91FC911197E60FF71F15967C936E93F3
:101480001497108208950F931F93CF93DF938C01CD
:10149000EB01FC01808191810097E1F06881798105
:1014A00061157105A9F0428153812C813D8142175C
:1014B000530770F00E9479308C819D81F8019583EB
:1014C00084831D821C82DF91CF911F910F9108951B
:1014D0000E94FD2E88819981F801918380838A8101
:1014E0009B81938382838C819D81958384831982E0
:1014F00018821B821A82E5CFFC01808191810097BE
:1015000011F00C94FD2E08950F931F93CF93DF934A
:10151000EC0188819981009759F02A813B81261737
:10152000370730F081E0DF91CF911F910F9108953F
:101530008B016F5F7F4F0E94862F009759F0998330
:1015400088831B830A832C813D81232B59F7FC015F
:101550001082E8CF80E0E7CFEF92FF920F931F93C6
:10156000CF93DF93FB0101900020E9F73197E61B51
:10157000F70BE1F07B018C01DC011496CD91DC913D
:10158000CE0FDF1FBE010E94840A882381F0F8017C
:101590002081318184819581B701820F931F0E9440
:1015A0007930D8011596DC93CE93149781E0DF91C2
:1015B000CF911F910F91FF90EF900895EF92FF92BE
:1015C0000F931F93CF93DF931F921F92CDB7DEB778
:1015D0008C0169831A82FC01E480F580FFEFEF1A29
:1015E000FF0AB7010E94840A882381F0F801208154
:1015F000318184819581BE016F5F7F4F820F931F80
:101600000E947930F801F582E48281E00F900F901A
:10161000DF91CF911F910F91FF90EF900895EF927E
:10162000FF920F931F93CF93DF93EC017B018A010D
:10163000BA010E94840A28813981811114C02115C0
:10164000310519F0C9010E94FD2E198218821D82F0
:101650001C821B821A82CE01DF91CF911F910F91C4
:10166000FF90EF9008951D830C83B701C9010E947C
:101670007930F1CFFB0101900020E9F73197AF01FC
:10168000461B570B0C940F0B0F931F93CF93DF93B5
:10169000CDB7DEB762970FB6F894DEBF0FBECDBFF1
:1016A0008C01CB01F8011182108213821282158203
:1016B00014824AE0BE016F5F7F4F0E94EC2DBE0195
:1016C0006F5F7F4FC8010E943A0B62960FB6F89485
:1016D000DEBF0FBECDBFDF91CF911F910F91089557
:1016E000FB01DC0111961C921E9213961C921E9215
:1016F000129715961C921E9214978617970749F019
:10170000608171816115710521F0448155810C94CE
:101710000F0B0895FC011182108213821282158230
:101720001482FB0101900020E9F73197AF01461BBD
:10173000570B0C940F0B4F925F926F927F92AF9268
:10174000BF92CF92DF92FF920F931F93CF93DF93BD
:1017500000D0CDB7DEB76C015B010E947606B50103
:1017600081ED9FE00E94000AF12C81ED9FE00E9434
:101770009705892B39F0CE0101960E943E05FF2482
:10178000F394F3CFFF2089F381ED9FE00E9497054A
:101790008C01892B51F7E6ECFFE08BE0DF011D9215
:1017A0008A95E9F70E94970861E379E08EED91E16F
:1017B0000E94140A61E080E00E94400967E379E03A
:1017C0008EED91E10E94140AB5018EED91E10E9427
:1017D000140A67E87CE08EED91E10E94140A60E350
:1017E00079E08EED91E10E94000A62E080E00E94C3
:1017F00040090E9435032B013C010E9435030E94E1
:101800007606B12C81ED9FE00E949705892BD9F0D7
:1018100081ED9FE00E942A055801BFEFAB1ABB0A79
:10182000F801EA53F04F808366EC7FE08EE690E1AA
:101830000E94000A6BE379E08EE690E10E94000AC4
:101840008501BF2CDFCFBB2041F10E943503641915
:10185000750986099709643F71408105910594F2E5
:1018600063E579E08EE690E10E94140A66EC7FE081
:10187000C6010E948A0BC6010F900F900F90DF9156
:10188000CF911F910F91FF90DF90CF90BF90AF90BD
:101890007F906F905F904F9008950E9435032B01C9
:1018A0003C010E943503AECF0F931F93CF93DF937C
:1018B0008C01EB010E94212E8883C80101960E94B1
:1018C000212E8983CE01DF91CF911F910F91089531
:1018D000CF93DF931F921F92CDB7DEB7BE016F5F2C
:1018E0007F4F8DE990E00E94540C89819A810F907E
:1018F0000F90DF91CF910895CF93DF931F921F92A6
:10190000CDB7DEB7BE016F5F7F4F8DE597E00E94D8
:10191000540C89819A810F900F90DF91CF91089597
:10192000AF92BF92CF92DF92EF92FF920F931F93ED
:10193000CF93DF931F921F92CDB7DEB78C016B015F
:1019400077FF19C068E679E08EE690E10E94000A10
:1019500083E1F80111928A95E9F7C8010F900F9081
:10196000DF91CF911F910F91FF90EF90DF90CF907B
:10197000BF90AF900895BE016F5F7F4F90E080E011
:101980000E94540C89819A81C816D906DCF683E13D
:101990008C9D70018D9DF00C11245801F3E1AF0E68
:1019A000B11C6801E01AF10AC70104967C01C70165
:1019B0008C0D9D1D0E94212EF60181936F01EA1569
:1019C000FB05A9F7CACFCF92DF92EF92FF920F9358
:1019D0001F93CF93DF93EC017B0177FF15C068E67F
:1019E00079E08EE690E10E94000A83E2FE01119206
:1019F0008A95E9F7CE01DF91CF911F910F91FF906A
:101A0000EF90DF90CF9008950E94680CE816F906D9
:101A100034F783E28E9D80018F9D100D11247E018D
:101A2000F3E2EF0EF11C6E010C1B1D0B0F551F4F47
:101A3000C8018C0D9D1D0E94212EF60181936F011E
:101A4000EE15FF05A9F7D6CF8F929F92AF92BF9266
:101A5000DF92EF92FF920F931F93CF93DF93CDB757
:101A6000DEB7AF970FB6F894DEBF0FBECDBF7C01D7
:101A70005B014A0110E000E00E94680C081719079A
:101A80000CF04AC0B801CE0101960E94E30CB401EB
:101A9000CE018A960E94700BB501CE0184960E94F9
:101AA000700B6CA17DA1CE0101960E947030892B34
:101AB00051F46AA57BA5CE0145960E947030DD24C5
:101AC000D394892B09F0D12CCE0184960E947C0AF4
:101AD000CE018A960E947C0ADD20D9F083E2FE01C5
:101AE0003196D70101900D928A95E1F7C701AF9623
:101AF0000FB6F894DEBF0FBECDBFDF91CF911F911F
:101B00000F91FF90EF90DF90BF90AF909F908F90DC
:101B100008950F5F1F4FB0CF83E2F70111928A95AE
:101B2000E9F7E4CFCF92DF92EF92FF920F931F93EA
:101B3000CF93DF93EC017B0177FF15C068E679E076
:101B40008EE690E10E94000A81E1FE0111928A95E1
:101B5000E9F7CE01DF91CF911F910F91FF90EF90A8
:101B6000DF90CF9008950E947C0CE816F90634F7B8
:101B700081E18E9D80018F9D100D11247E01F1E188
:101B8000EF0EF11C6E010C1B1D0B0F59184FC801F5
:101B90008C0D9D1D0E94212EF60181936F01EE1583
:101BA000FF05A9F7D6CF0F931F93CF93DF93CDB740
:101BB000DEB761970FB6F894DEBF0FBECDBF10E061
:101BC00000E00E947C0C081719074CF5B801CE0103
:101BD00001960E94920D6CE779E08EE690E10E94FA
:101BE000140A89819A810E94C80963E879E08EE627
:101BF00090E10E94140A8B8190E00E94C8096CE871
:101C000079E08EE690E10E94140ABE016C5F7F4F7E
:101C10008EE690E10E94000A0F5F1F4FD2CF6196BF
:101C20000FB6F894DEBF0FBECDBFDF91CF911F91ED
:101C30000F910895FF920F931F93CF93DF93EC01C1
:101C4000F62E08811981C8010E94212EF81621F074
:101C50006F2DC8010E94292ECE01DF91CF911F91D7
:101C60000F91FF900895AF92BF92CF92DF92EF92C3
:101C7000FF920F931F93CF93DF931F921F92CDB7C5
:101C8000DEB78B016B0123E2C20ED11C7B015C012C
:101C9000A61AB70AC5018E0D9F1D9A838983F70185
:101CA00061917F01CE0101960E941A0EEC14FD0491
:101CB00089F7C8010F900F90DF91CF911F910F917D
:101CC000FF90EF90DF90CF90BF90AF900895EF928C
:101CD000FF920F931F93CF93DF931F921F92CDB765
:101CE000DEB78C017B019A838983FB016081CE0181
:101CF00001960E941A0E0F5F1F4F1A830983F70186
:101D00006181CE0101960E941A0EC7010F900F90BB
:101D1000DF91CF911F910F91FF90EF900895CF9396
:101D2000DF9300D01F92CDB7DEB70E94680C8F3FC3
:101D30002FE092076CF06BE979E08EE690E10E946B
:101D4000000A0F900F900F900F90DF91CF910895A0
:101D500001969A838983BE016F5F7F4F8DE990E082
:101D60000E94670EBE016D5F7F4F8FE990E00E9479
:101D7000540C8B819C819BA78AA7BE016D5F7F4F0E
:101D80008FE990E00E94540CBE01665F7F4F8B810B
:101D90009C810E94330E8AA59BA583969C838B838E
:101DA000BE016D5F7F4F8FE990E00E94670EC9CF43
:101DB0002F923F924F925F926F927F929F92AF923B
:101DC000BF92CF92DF92EF92FF920F931F93CF9328
:101DD000DF93CDB7DEB7C056D1090FB6F894DEBF9A
:101DE0000FBECDBF2DB73EB7A1963FAF2EAFA19787
:101DF0000E94970860E080E00E94400967EA79E06D
:101E00008EED91E10E94140A61E080E00E94400999
:101E100064EB79E08EED91E10E94140A60E379E0D1
:101E2000CE018D5A9F4F0E948A0B0EE110E08091E7
:101E3000A00F9091A10FFC0145E0EE0FFF1F4A9506
:101E4000E1F7EA5DFA4F20E2DE01119601900D9272
:101E50002A95E1F79F938F938DB79EB78855910987
:101E60000FB6F8949EBF0FBE8DBFADB7BEB711962B
:101E700088E5E6E8F1E101900D928A95E1F70E948C
:101E80005D07EDB7FEB7E65AFF4F0FB6F894FEBFF9
:101E90000FBEEDBF0E949D038823E1F08A330CF052
:101EA00049C081330CF070C0833209F457C08033CD
:101EB00009F461C069968EAD9FAD699762E00D9798
:101EC00008F069C080E00E944009CE018D5A9F4F02
:101ED0000E9412058DE791E10E94A306811180C046
:101EE0008AE791E10E94A306882309F4A0CF6996AE
:101EF0006EAD7FAD69976115710509F498CF61509A
:101F00007109CE018D5A9F4F0E94300A62E080E035
:101F10000E94400961EC79E08EED91E10E94140A83
:101F200062E080E00E944009CE018D5A9F4F0E94DE
:101F300012057DCF883509F0BDCF8091A00F90911B
:101F4000A10F019797FD05C09093A10F8093A00F5B
:101F5000B1CF1093A10F0093A00FACCF8091A00F31
:101F60009091A10F01968F31910570F31092A10FFE
:101F70001092A00F9FCFBE016F5F7F4FCE018D5A91
:101F80009F4F0E94AC0A96CF682FCE018D5A9F4F6B
:101F90000E94DE0A8FCF80E00E94400968EC79E061
:101FA0008EED91E10E94140A62E080E00E944009F7
:101FB0006DEB79E08EED91E10E94140A68EE73E01A
:101FC00080E090E00E94030362E080E00E9440090C
:101FD00068EC79E08EED91E10E94140A62E072CF24
:101FE0000E94970860E080E00E94400967EA79E07B
:101FF0008EED91E10E94140A61E080E00E944009A8
:1020000062ED79E08EED91E10E94140A60E379E0DF
:10201000CE01875A9F4F0E948A0B0EE110E08091FB
:10202000A00F9091A10FFC0135E0EE0FFF1F3A9534
:10203000E1F7EA5DFA4F20E2DE01119601900D9280
:102040002A95E1F79F938F932DB73EB72855310915
:102050000FB6F8943EBF0FBE2DBFADB7BEB71196F9
:1020600088E5E6E8F1E101900D928A95E1F70E949A
:102070005D078DB79EB7865A9F4F0FB6F8949EBFE7
:102080000FBE8DBF0E949D038823E1F08A330CF0C0
:1020900049C081330CF070C0833209F457C08033DB
:1020A00009F461C06F968EAD9FAD6F9762E009979E
:1020B00008F069C080E00E944009CE01875A9F4F16
:1020C0000E9412058DE791E10E94A306811180C054
:1020D0008AE791E10E94A306882309F4A0CF6F96B6
:1020E0006EAD7FAD6F976115710509F498CF6150A2
:1020F0007109CE01875A9F4F0E94300A62E080E04A
:102100000E94400961EC79E08EED91E10E94140A91
:1021100062E080E00E944009CE01875A9F4F0E94F2
:1021200012057DCF883509F0BDCF8091A00F909129
:10213000A10F019797FD05C09093A10F8093A00F69
:10214000B1CF1093A10F0093A00FACCF8091A00F3F
:102150009091A10F01968F31910570F31092A10F0C
:102160001092A00F9FCFBE016F5F7F4FCE01875AA5
:102170009F4F0E94AC0A96CF682FCE01875A9F4F7F
:102180000E94DE0A8FCF80E00E94400968EC79E06F
:102190008EED91E10E94140A62E080E00E94400905
:1021A0006DEB79E08EED91E10E94140A68EE73E028
:1021B00080E090E00E94030362E080E00E9440091A
:1021C00068EC79E08EED91E10E94140A62E072CF32
:1021D0000E94970860E080E00E94400967EA79E089
:1021E0008EED91E10E94140A61E080E00E944009B6
:1021F0006CED79E08EED91E10E94140A60E379E0E4
:10220000CE01895B9F4F0E948A0B0EE110E0809106
:10221000A00F9091A10FFC0125E0EE0FFF1F2A9562
:10222000E1F7EA5DFA4F20E2DE01119601900D928E
:102230002A95E1F79F938F93EDB7FEB7E855F10923
:102240000FB6F894FEBF0FBEEDBFADB7BEB7119687
:1022500088E5E6E8F1E101900D928A95E1F70E94A8
:102260005D072DB73EB7265A3F4F0FB6F8943EBFD5
:102270000FBE2DBF0E949D038823E1F08A330CF02E
:102280004AC081330CF071C0833209F458C08033E6
:1022900009F462C02D968EAD9FAD2D9762E00D972B
:1022A00008F06AC080E00E944009CE01895B9F4F20
:1022B0000E9412058DE791E10E94A306982E8111DC
:1022C00080C08AE791E10E94A306882309F49FCF8A
:1022D0002D966EAD7FAD2D976115710509F497CFE1
:1022E00061507109CE01895B9F4F0E94300A62E004
:1022F00080E00E94400961EC79E08EED91E10E945E
:10230000140A62E080E00E944009CE01895B9F4F81
:102310000E9412057CCF883509F0BCCF8091A00FB8
:102320009091A10F019797FD05C09093A10F809305
:10233000A00FB0CF1093A10F0093A00FABCF80914F
:10234000A00F9091A10F01968F31910570F310921B
:10235000A10F1092A00F9ECFBE016F5F7F4FCE01E5
:10236000895B9F4F0E94AC0A95CF682FCE01895B95
:102370009F4F0E94DE0A8ECF80E00E94400968ECE9
:1023800079E08EED91E10E94140A62E080E00E9403
:1023900040096DEB79E08EED91E10E94140A68EE40
:1023A00073E080E090E00E94030362E080E00E941E
:1023B000400968EC79E08EED91E10E94140A62E038
:1023C00071CF0E9497082E0134E2430E511C83E224
:1023D000F20111928A95E9F765966EAD7FAD65972A
:1023E000FB0101900020E9F7CF012DB63EB6861B18
:1023F000970B2DB73EB7281B390B0FB6F8943EBF8D
:102400000FBE2DBF0DB71EB70F5F1F4FC8010E9433
:102410007930C8010E94160A6B966EAD7FAD6B973E
:10242000FB0101900020E9F7CF01861B970B2DB728
:102430003EB7281B390B0FB6F8943EBF0FBE2DBF19
:102440008DB79EB701966C010E947930C6010E943B
:10245000160A29966EAD7FAD2997FB0101900020E9
:10246000E9F7CF01861B970B2DB73EB7281B390B19
:102470000FB6F8943EBF0FBE2DBF8DB79EB7019625
:102480007C010E947930C7010E94160AB801C2017E
:102490000E947930B601CE01C0960E947930B70112
:1024A000CE01C8960E9479303E019DE4690E711CF0
:1024B000B801C3010E948A0BB12CA12C0E94680CA8
:1024C000A816B9060CF0FAC0B501CE0101960E941B
:1024D000E30C2F966EAD7FAD2F97CE0101960E9433
:1024E0007030892B09F0E6C0B92CC3010E947C0A28
:1024F000BB20E1F00E94970860E080E00E94400964
:102500006AEE79E08EED91E10E94140A61E080E0CC
:102510000E94400968EF79E08EED91E10E94140A73
:1025200060ED77E080E090E00E940303F801019005
:102530000020E9F7CF01801B910B0997059738F12F
:102540000E94970860E080E00E94400962E07AE023
:102550008EED91E10E94140A61E080E00E94400942
:102560006CE07AE08EED91E10E94140A62E080E076
:102570000E94400962E27AE08EED91E10E94140A25
:1025800060ED77E080E090E00E940303B92CF60153
:1025900001900020E9F7CF0109978C159D05E9F01E
:1025A0000E94970860E080E00E94400965E37AE0BD
:1025B0008EED91E10E94140A61E080E00E944009E2
:1025C00061E17AE08EED91E10E94140A60ED77E01E
:1025D00080E090E00E940303B92CF70101900020F5
:1025E000E9F7CF018E199F090997059708F468C08C
:1025F0000E94970860E080E00E94400964E47AE06D
:102600008EED91E10E94140A61E080E00E94400991
:102610006CE07AE08EED91E10E94140A62E080E0C5
:102620000E94400962E27AE08EED91E10E94140A74
:1026300060ED77E080E090E00E94030381E090E0AD
:102640009093BC0F8093BB0F0FB6F8943EBE0FBEA5
:102650002DBECE01895B9F4F0E947C0ACE01875A16
:102660009F4F0E947C0ACE018D5A9F4F0E947C0A88
:10267000A196EEADFFADA1970FB6F894FEBF0FBEC9
:10268000EDBFC05ADF4F0FB6F894DEBF0FBECDBF0F
:10269000DF91CF911F910F91FF90EF90DF90CF903E
:1026A000BF90AF909F907F906F905F904F903F90C2
:1026B0002F900895EFEFAE1ABE0A00CFB12C15CFC0
:1026C000B110BCCF27961FAE2797B801C2010E9458
:1026D0007930B601CE01C0960E947930B701CE01A3
:1026E000C8960E94793063E57AE08EE690E10E9418
:1026F000140A0E94970861E080E00E94400968EE99
:1027000073E080E090E00E9403032DB73EB72352B0
:1027100031090FB6F8943EBF0FBE2DBFADB7BEB79F
:10272000119683E2F20101900D928A95E1F70E94E1
:102730008F0E8DB79EB783960FB6F8949EBF0FBECF
:102740008DBF68E67AE08EE690E10E94140A0E944E
:10275000680C0E94C80972CFAF92BF92CF92DF92ED
:10276000EF92FF920F931F93CF93DF931F921F92CD
:10277000CDB7DEB78B016B0121E1C20ED11C7B010D
:102780005C01A61AB70AC5018E0D9F1D9A83898325
:10279000F70161917F01CE0101960E941A0EEC149F
:1027A000FD0489F7C8010F900F90DF91CF911F9121
:1027B0000F91FF90EF90DF90CF90BF90AF90089572
:1027C0008F929F92BF92CF92DF92EF92FF920F93E0
:1027D0001F93CF93DF93CDB7DEB761970FB6F89411
:1027E000DEBF0FBECDBF6C01B62E4A010E947C0C2D
:1027F0007C0110E000E00E151F0574F5B801CE0154
:1028000001960E94920D89819A818C159D0509F58A
:10281000BB82F40160817181CE0104960E947930FF
:10282000BE016F5F7F4F888999890E94AC136196C2
:102830000FB6F894DEBF0FBECDBFDF91CF911F91D1
:102840000F91FF90EF90DF90CF90BF909F908F906F
:1028500008950F5F1F4FCFCF6DE77AE08EE690E1CE
:102860000E94000AE4CF8F929F92AF92BF92CF92C4
:10287000DF92EF92FF920F931F93CF93DF93CDB729
:10288000DEB765970FB6F894DEBF0FBECDBF8D8261
:102890009E82AF82B886C986DA86EB86FC860D8773
:1028A0001E872F87388B498B5A8B6B8B7C8B8D8B3C
:1028B0000E947C0C89309105CCF069E97AE08EE6C3
:1028C00090E10E94000A65960FB6F894DEBF0FBE35
:1028D000CDBFDF91CF911F910F91FF90EF90DF90CF
:1028E000CF90BF90AF909F908F90089501969A835C
:1028F0008983BE016F5F7F4F8DE597E00E94670E71
:10290000BE016D5F7F4F8FE597E00E94540C8B8175
:102910009C819D8B8C8BBE016D5F7F4F8FE597E017
:102920000E94540CBE016B5F7F4F8B819C810E9483
:10293000AC138C899D8941969C838B83BE016D5F0E
:102940007F4F8FE597E00E94670EBDCFAF92BF9299
:10295000CF92DF92EF92FF920F931F93CF93DF936B
:1029600000D01F92CDB7DEB7BE016F5F7F4F90E002
:1029700080E00E94540C89819A8183369105ACF0E5
:102980006BE979E08EE690E10E94000A0F900F90CB
:102990000F900F90DF91CF911F910F91FF90EF90CB
:1029A000DF90CF90BF90AF90089501969A8389836E
:1029B000BE016F5F7F4F90E080E00E94670EBE0116
:1029C0006D5F7F4F82E090E00E94540C0B811C8170
:1029D0001CA30BA3BE016D5F7F4F82E090E00E94BD
:1029E000540CCB80DC805E0185E2A80EB11CFE0198
:1029F00072967F01CE1ADF0AC6018E0D9F1D9C8341
:102A00008B83F70161917F01CE0103960E941A0E1C
:102A1000EA14FB0489F70D5E1F4F1C830B83BE0174
:102A20006D5F7F4F82E090E00E94670EAFCF8F9284
:102A30009F92AF92BF92CF92DF92EF92FF920F934D
:102A40001F93CF93DF93CDB7DEB7C654D1090FB62E
:102A5000F894DEBF0FBECDBF8EAA9FAAA8AEB9AEB6
:102A6000CAAEDBAEECAEFDAE0EAF1FAF21962FAF00
:102A7000219722963FAF229723964FAF2397249614
:102A80005FAF249725966FAF259726967FAF269741
:102A900027968FAF27970DB71EB70E94970862E061
:102AA00080E00E9440096AEB7AE08EED91E10E949D
:102AB000140A60E379E0CE01C0960E948A0B3EE1E1
:102AC000E32EF12C8091A30F882309F454C0809148
:102AD000A20F811150C08091A00F9091A10FFC0115
:102AE00025E0EE0FFF1F2A95E1F7EA5DFA4F20E29D
:102AF000DE01119601900D922A95E1F79F938F9335
:102B00002DB73EB7285531090FB6F8943EBF0FBE1A
:102B10002DBFADB7BEB7119688E5E6E8F1E10190AB
:102B20000D928A95E1F70E945D078DB79EB7865A90
:102B30009F4F0FB6F8949EBF0FBE8DBF0E949D039E
:102B40008823C9F08A330CF042C081330CF067C08F
:102B5000833209F44FC0803309F459C08CA99DA970
:102B600063E0089708F061C080E00E944009CE0150
:102B7000C0960E9412058DE791E10E94A306811183
:102B800079C08AE791E10E94A306882309F49ACFCD
:102B90006CA97DA96115710509F494CF6150710983
:102BA000CE01C0960E94300A61E083E00E94400995
:102BB00061EC79E08EED91E10E94140A61E083E01E
:102BC0000E944009CE01C0960E9412057BCF883535
:102BD00029F68091A00F9091A10F019797FD05C054
:102BE0009093A10F8093A00FB9CFF092A10FE09224
:102BF000A00FB4CF8091A00F9091A10F01968F31BB
:102C0000910570F31092A10F1092A00FA7CFBE01F3
:102C10006F5F7F4FCE01C0960E94AC0A9FCF682F96
:102C2000CE01C0960E94DE0A99CF80E00E94400942
:102C300061EC79E08EED91E10E94140A63E080E09E
:102C40000E9440096DEB79E08EED91E10E94140A3B
:102C500068EE73E080E090E00E94030363E080E0B0
:102C60000E94400961EC79E08EED91E10E94140A26
:102C700063E07ACF68A979A9DB010D900020E9F71C
:102C8000CD01CDB6DEB6861B970BEDB7FEB7E81BC0
:102C9000F90B0FB6F894FEBF0FBEEDBF2DB73EB7D0
:102CA0002F5F3F4F7901C9010E947930C7010E940F
:102CB000160AB701CE018A960E948A0B60E871E17C
:102CC000CE0184960E94700BAE01465D5F4FBE013F
:102CD0006C5D7F4FCE0101960E94240DCE0184963B
:102CE0000E947C0ACE018A960E947C0A89818823F0
:102CF00009F486C060E379E0CE0184960E948A0BD5
:102D0000AE014C5D5F4F60E08EA99FA90E94E01369
:102D1000CE0184960E947C0A0E94D30DE8EAFFE06F
:102D200081E1DF011D928A95E9F78091A40F9091CE
:102D3000A50F9C012F5F3F4F3093A50F2093A40F49
:102D40009093A70F8093A60F65EC7AE0CF010E94C5
:102D50007930EDB7FEB773970FB6F894FEBF0FBE8C
:102D6000EDBFADB7BEB7119683E1E6EAFFE0019093
:102D70000D928A95E1F70E94A6140E94970860E0E0
:102D800080E00E9440096FEC7AE08EED91E10E94B4
:102D9000140A60ED77E080E090E00E94030385E094
:102DA00090E09093BC0F8093BB0F2DB73EB72D5E84
:102DB0003F4F0FB6F8943EBF0FBE2DBF0FB6F8942D
:102DC000DEBE0FBECDBECE01C0960E947C0A0FB6FD
:102DD000F8941EBF0FBE0DBFCA5BDF4F0FB6F8944D
:102DE000DEBF0FBECDBFDF91CF911F910F91FF903E
:102DF000EF90DF90CF90BF90AF909F908F9008950D
:102E000080919E0F90919F0F019690939F0F8093BA
:102E10009E0F02970CF04EC06EED7AE08EE690E1C8
:102E20000E94000A0E94970860E080E00E9440092A
:102E300063E17BE08EED91E10E94140A61E080E0A5
:102E40000E9440096DE17BE08EED91E10E94140A41
:102E5000E8EAFFE081E1DF011D928A95E9F78091C0
:102E6000A40F9091A50F9C012F5F3F4F3093A50FAA
:102E70002093A40F9093A70F8093A60F69E27BE0A5
:102E8000CF010E947930EDB7FEB773970FB6F89473
:102E9000FEBF0FBEEDBFADB7BEB7119683E1E6EA48
:102EA000FFE001900D928A95E1F70E94A6148AE056
:102EB00090E077CF67E37BE08EE690E10E94000A26
:102EC0000E94970860E080E00E94400963E17BE097
:102ED0008EED91E10E94140A61E080E00E944009B9
:102EE0006DE17BE08EED91E10E94140AE8EAFFE0DB
:102EF00081E1DF011D928A95E9F78091A40F9091FD
:102F0000A50F9C012F5F3F4F3093A50F2093A40F77
:102F10009093A70F8093A60F69E27BE0CF010E94F8
:102F20007930EDB7FEB773970FB6F894FEBF0FBEBA
:102F3000EDBFADB7BEB7119683E1E6EAFFE00190C1
:102F40000D928A95E1F70E94A61460E177E280E095
:102F500090E00E94030369E77BE08EE690E10E9427
:102F6000000A10929F0F10929E0F81E090E019CFFF
:102F7000AF92BF92CF92DF92EF92FF920F931F9387
:102F8000CF93DF93CDB7DEB7EB970FB6F894DEBFE4
:102F90000FBECDBFEDB6FEB60E94970860E080E0A0
:102FA0000E94400964EB79E08EED91E10E94140AE1
:102FB00060E379E0CE01C0960E948A0B10E05EE1EA
:102FC000C52ED12C0091A20F8091A30F882309F464
:102FD000D1C0011150C08091A00F9091A10FFC01B0
:102FE00045E0EE0FFF1F4A95E1F7EA5DFA4F20E258
:102FF000DE01119601900D922A95E1F79F938F9330
:103000002DB73EB7285531090FB6F8943EBF0FBE15
:103010002DBFADB7BEB7119688E5E6E8F1E10190A6
:103020000D928A95E1F70E945D078DB79EB7865A8B
:103030009F4F0FB6F8949EBF0FBE8DBF0E949D0399
:103040008823C9F08A330CF042C081330CF067C08A
:10305000833209F44FC0803309F459C08CA99DA96B
:1030600061E00C9708F061C080E00E944009CE0149
:10307000C0960E9412058DE791E10E94A30681117E
:103080009FC08AE791E10E94A306882309F49ACFA2
:103090006CA97DA96115710509F494CF615071097E
:1030A000CE01C0960E94300A61E080E00E94400993
:1030B00061EC79E08EED91E10E94140A61E080E01C
:1030C0000E944009CE01C0960E9412057BCF883530
:1030D00029F68091A00F9091A10F019797FD05C04F
:1030E0009093A10F8093A00FB9CFD092A10FC0925F
:1030F000A00FB4CF8091A00F9091A10F01968F31B6
:10310000910570F31092A10F1092A00FA7CFBE01EE
:103110006F5F7F4FCE01C0960E94AC0A9FCF682F91
:10312000CE01C0960E94DE0A99CF80E00E9440093D
:1031300061EC79E08EED91E10E94140A61E080E09B
:103140000E9440096DEB79E08EED91E10E94140A36
:1031500068EE73E080E090E00E94030361E080E0AD
:103160000E94400961EC79E08EED91E10E94140A21
:1031700061E07ACF002309F47ECF11117CCF66EA9B
:103180007BE08EE690E10E94000A6AEA7BE0CE01D5
:1031900001960E949B0BBE016F5F7F4FCE01C096D0
:1031A0000E94430ACE0101960E947C0A63E080E0FF
:1031B0000E944009CE01C0960E941205102F5BCFDD
:1031C00062E080E00E9440096AEB7AE08EED91E1D6
:1031D0000E94140A60E379E0CE01C6960E948A0B31
:1031E0003EE1C32ED12C0091A20F8091A30F882322
:1031F00009F4CFC001114EC08091A00F9091A10F92
:10320000FC0125E0EE0FFF1F2A95E1F7EA5DFA4F7A
:1032100020E2DE01119601900D922A95E1F79F932D
:103220008F93ADB7BEB7A855B1090FB6F894BEBF1E
:103230000FBEADBF119688E5E6E8F1E101900D9271
:103240008A95E1F70E945D07EDB7FEB7E65AFF4F9A
:103250000FB6F894FEBF0FBEEDBF0E949D038823FA
:10326000C9F08A330CF042C081330CF067C083325E
:1032700009F44FC0803309F459C08AAD9BAD63E0B7
:10328000099708F061C080E00E944009CE01C6960F
:103290000E9412058DE791E10E94A30681119FC053
:1032A0008AE791E10E94A306882309F49CCF6AADC6
:1032B0007BAD6115710509F496CF61507109CE019E
:1032C000C6960E94300A61E083E00E94400961ECEA
:1032D00079E08EED91E10E94140A61E083E00E94A2
:1032E0004009CE01C6960E9412057DCF883529F689
:1032F0008091A00F9091A10F019797FD05C0909329
:10330000A10F8093A00FB9CFD092A10FC092A00FB0
:10331000B4CF8091A00F9091A10F01968F319105AC
:1033200070F31092A10F1092A00FA7CFBE016F5F94
:103330007F4FCE01C6960E94AC0A9FCF682FCE0168
:10334000C6960E94DE0A99CF80E00E94400961EC97
:1033500079E08EED91E10E94140A63E080E00E9422
:1033600040096DEB79E08EED91E10E94140A68EE60
:1033700073E080E090E00E94030363E080E00E943D
:10338000400961EC79E08EED91E10E94140A63E05E
:103390007ACF002309F47ECF11117CCF66EA7BE05F
:1033A0008EE690E10E94000A61EB7BE0CE0101967F
:1033B0000E949B0BBE016F5F7F4FCE01C6960E949D
:1033C000430ACE0101960E947C0A63E080E00E94DD
:1033D0004009CE01C6960E941205102F5BCF68A946
:1033E00079A9DB010D900020E9F7CD01CDB6DEB65D
:1033F000861B970BEDB7FEB7E81BF90B0FB6F894D9
:10340000FEBF0FBEEDBF2DB73EB72F5F3F4F590137
:10341000C9010E947930C5010E94160A6EA97FA9D0
:10342000DB010D900020E9F7CD01861B970BEDB76E
:10343000FEB7E81BF90B0FB6F894FEBF0FBEEDBF49
:103440000DB71EB70F5F1F4FC8010E947930C8012A
:103450000E94160AB801CE018A960E948A0BB50115
:10346000CE0184960E948A0BAE01465D5F4FBE017D
:103470006C5D7F4F8E010F5F1F4FC8010E94240DAE
:10348000CE0184960E947C0ACE018A960E947C0A14
:10349000B50180E891E10E943A0B8981882309F403
:1034A000CAC00E94970860E080E00E9440096AEB71
:1034B0007BE08EED91E10E94140A61E080E00E94C1
:1034C0004009F80101900020E9F73197AF01401B56
:1034D000510BD80198E09D01201B310B24173507B3
:1034E00044F48D919D01215031098927F901808390
:1034F000F2CFB8018EED91E10E94140A2BA18091C8
:10350000A40F9091A50FE8EAFFE0222309F461C01F
:1035100021E1DF011D922A95E9F79C012F5F3F4FC2
:103520003093A50F2093A40F9093A70F8093A60F1D
:1035300065EC7BE0CF010E947930EDB7FEB7739761
:103540000FB6F894FEBF0FBEEDBFADB7BEB7119674
:1035500083E1E6EAFFE001900D928A95E1F70E948F
:10356000A61468EE73E080E090E00E94030384E01C
:1035700090E09093BC0F8093BB0F2DB73EB72D5EAC
:103580003F4F0FB6F8943EBF0FBE2DBF0FB6F89455
:10359000DEBE0FBECDBECE01C6960E947C0ACE0115
:1035A000C0960E947C0A0FB6F894FEBE0FBEEDBE18
:1035B000EB960FB6F894DEBF0FBECDBFDF91CF9173
:1035C0001F910F91FF90EF90DF90CF90BF90AF9041
:1035D000089521E1DF011D922A95E9F79C012F5FF3
:1035E0003F4F3093A50F2093A40F9093A70F809384
:1035F000A60F61ED7BE0CF010E947930EDB7FEB7F9
:1036000073970FB6F894FEBF0FBEEDBFADB7BEB750
:10361000119683E1E6EAFFE001900D928A95E1F7C9
:103620000E94A61468EE73E080E090E00E9403031D
:1036300085E090E09ECF8091960F9091970F18169D
:1036400019060CF05AC00E94970863E17BE08EEDEA
:1036500091E10E94140A61E080E00E9440096DE15E
:103660007BE08EED91E10E94140AE8EAFFE081E13F
:10367000DF011D928A95E9F78091A40F9091A50F23
:103680009C012F5F3F4F3093A50F2093A40F909381
:10369000A70F8093A60F6EED7BE0CF010E947930DB
:1036A000EDB7FEB773970FB6F894FEBF0FBEEDBF30
:1036B000ADB7BEB7119683E1E6EAFFE001900D9247
:1036C0008A95E1F70E94A61460E177E280E090E03D
:1036D0000E9403031092970F1092960F81E090E0E2
:1036E0009093BC0F8093BB0F2DB73EB72D5E3F4F1D
:1036F0000FB6F8943EBF0FBE2DBF0E94970860E042
:1037000080E00E94400963E17BE08EED91E10E9440
:10371000140A61E080E00E9440096DE17BE08EEDDB
:1037200091E10E94140AE8EAFFE081E1DF011D92C5
:103730008A95E9F78091A40F9091A50F9C012F5FC6
:103740003F4F3093A50F2093A40F9093A70F809322
:10375000A60F6EED7BE0CF010E947930EDB7FEB78A
:1037600073970FB6F894FEBF0FBEEDBFADB7BEB7EF
:10377000119683E1E6EAFFE001900D928A95E1F768
:103780000E94A61480919C0F90919D0F019690939A
:103790009D0F80939C0F8091960F9091970F0196AB
:1037A0009093970F8093960F68EE73E080E090E01F
:1037B0000E940303E2CE1F920F920FB60F921124C4
:1037C0002F933F938F939F93AF93BF938091BE0F9F
:1037D0009091BF0FA091C00FB091C10F3091BD0F5C
:1037E00023E0230F2D3758F50196A11DB11D20931D
:1037F000BD0F8093BE0F9093BF0FA093C00FB093E7
:10380000C10F8091C20F9091C30FA091C40FB091CE
:10381000C50F0196A11DB11D8093C20F9093C30FD8
:10382000A093C40FB093C50FBF91AF919F918F919B
:103830003F912F910F900FBE0F901F90189526E883
:10384000230F0296A11DB11DD2CF1F920F920FB66A
:103850000F9211240BB60F922F933F934F935F93C8
:103860006F937F938F939F93AF93BF93EF93FF9348
:1038700081ED9FE00E94B705FF91EF91BF91AF915D
:103880009F918F917F916F915F914F913F912F9178
:103890000F900BBE0F900FBE0F901F9018951F92A8
:1038A0000F920FB60F9211240BB60F922F938F9396
:1038B0009F93EF93FF93E091E10FF091E20F8081EE
:1038C000E091E70FF091E80F82FD1DC0908180919B
:1038D000EA0F8F5F8F732091EB0F821741F0E09119
:1038E000EA0FF0E0EF52F04F958F8093EA0FFF91CF
:1038F000EF919F918F912F910F900BBE0F900FBE64
:103900000F901F9018958081F2CF1F920F920FB6E3
:103910000F9211240BB60F922F933F934F935F9307
:103920006F937F938F939F93AF93BF93EF93FF9387
:103930008EE690E10E94B705FF91EF91BF91AF91A4
:103940009F918F917F916F915F914F913F912F91B7
:103950000F900BBE0F900FBE0F901F9018951F92E7
:103960000F920FB60F9211240BB60F922F938F93D5
:103970009F93EF93FF93E0917E10F0917F108081F1
:10398000E0918410F091851082FD1DC0908180919E
:1039900087108F5F8F7320918810821741F0E0911C
:1039A0008710F0E0E259FF4E958F80938710FF91CA
:1039B000EF919F918F912F910F900BBE0F900FBEA3
:1039C0000F901F9018958081F2CFCF93DF931092C4
:1039D000D40F1092D30F48EE53E060E070E04093B4
:1039E000D50F5093D60F6093D70F7093D80F8AE0FE
:1039F00099E09093D20F8093D10F2DEC30E030936B
:103A0000DE0F2093DD0F2CEC30E03093E00F20939D
:103A1000DF0F28EC30E03093E20F2093E10F29EC28
:103A200030E03093E40F2093E30F2AEC30E0309342
:103A3000E60F2093E50F2EEC30E03093E80F209353
:103A4000E70F1092EA0F1092EB0F1092EC0F10920A
:103A5000ED0F1092711010927010409372105093ED
:103A60007310609374107093751090936F1080931F
:103A70006E1085EC90E090937B1080937A1084EC2C
:103A800090E090937D1080937C1080EC90E0909378
:103A90007F1080937E1081EC90E090938110809352
:103AA000801082EC90E0909383108093821086ECDB
:103AB00090E090938510809384101092871010925C
:103AC00088101092891010928A101092E1111092B1
:103AD000E01186E299E09093DF118093DE118CE093
:103AE0008093E2118FEF8093E3118BE08093E411D8
:103AF00085E08093E51184E08093E61183E0809374
:103B0000E71182E08093E8111092E9111092EA1116
:103B10001092EB111092EC111092ED1181E00E94C5
:103B20009F08CAE0D0E0D093D711C093D61188E0A7
:103B300090E09093D9118093D81189E090E0909310
:103B4000DB118093DA1181E090E09093DD11809396
:103B5000DC1161E08AE00E949E0261E08091D81150
:103B60000E949E0261E08091DA110E949E0261E053
:103B70008091DA110E946C02D093D711C093D611B4
:103B8000E6E9F1E1119281E1E63DF807D9F7D0E0ED
:103B9000C0E08091DC119091DD11C817D907B4F510
:103BA00020E04FE0BE0186E891E10E94BF068091CF
:103BB000DC119091DD11C817D9073CF427E04BE0E8
:103BC000BE0186E891E10E94BF0620E049E0BE0107
:103BD00086E891E10E94BF068091DC119091DD1191
:103BE000C817D9071CF4CE010E943B078091DC1155
:103BF0009091DD11C817D9073CF420E04CE0BE01DC
:103C000086E891E10E94BF062196C3CF60E379E088
:103C100080E891E10E948A0B10927F1187E190E089
:103C200090937E1180937D1110927C1188E190E039
:103C300090937B1180937A1110920D1110921111B3
:103C400010921011109212118CE199E090930C11C6
:103C500080930B11E7E2F1E1108214821382158246
:103C6000369681E1E336F807B9F783E092E0909366
:103C70006E1180936D1180E092E0909370118093AB
:103C80006F1184E08093711183E08093721187E05B
:103C900092E090936C1180936B118AE090E0909386
:103CA00074118093731184EF91E090937611809357
:103CB000751110927911109278111092671110926B
:103CC00068111092691110926A1110927711DF91A8
:103CD000CF910895CF93DF93CDB7DEB7CB5DD109F8
:103CE0000FB6F894DEBF0FBECDBF789484B5826066
:103CF00084BD84B5816084BD85B5826085BD85B590
:103D0000816085BD80916E00816080936E0010920D
:103D10008100809181008260809381008091810088
:103D20008160809381008091800081608093800019
:103D30008091B10084608093B1008091B000816077
:103D40008093B00080919100826080939100809177
:103D500091008160809391008091900081608093B8
:103D600090008091A10082608093A1008091A100C9
:103D700081608093A1008091A00081608093A00069
:103D800080912101826080932101809121018160D5
:103D90008093210180912001816080932001809196
:103DA0007A00846080937A0080917A0082608093A8
:103DB0007A0080917A00816080937A0080917A0005
:103DC000806880937A001092C1008EE690E10E9494
:103DD0008F0181ED9FE00E948F011A8219829E015E
:103DE0002F5F3F4F1901B9018DE990E00E94670EE6
:103DF00064E275E08FE990E00E94670E1A821982F2
:103E0000B10190E080E00E94670E62E275E082E01E
:103E100090E00E94670E1A821982B1018DE597E049
:103E20000E94670E60E275E08FE597E00E94670EE2
:103E30006AEE7BE08EE690E10E94000A13E2D10177
:103E4000E12F1D92EA95E9F781E08BA38CE0E2E88F
:103E5000FFE0DE01A156BF4F01900D928A95E1F778
:103E6000BE0161567F4FCE0184589F4F0E9479302A
:103E7000CE0184589F4F0E94160A86E0E8E8FFE0D2
:103E8000DE01AF53BF4F01900D928A95E1F7BE015D
:103E90006F537F4FCE0185549F4F0E947930CE01E2
:103EA00085549F4F0E94160A88E0EEE8FFE0DE018D
:103EB000AD54BF4F01900D928A95E1F7BE016D544C
:103EC0007F4FCE0185559F4F0E947930CE01855599
:103ED0009F4F0E94160ABE0164587F4FC1010E9485
:103EE0007930BE0165547F4FCE010D960E94793026
:103EF000BE0165557F4FCE0145960E9479302DB7A2
:103F00003EB7235231090FB6F8943EBF0FBE2DBF06
:103F1000ADB7BEB71196F10101900D921A95E1F778
:103F20000E948F0E3E0139E5630E711C81E1D301C1
:103F30001D928A95E9F7EDB7FEB7B3960FB6F894E0
:103F4000FEBF0FBEEDBF2301F3E04F0E511C60E337
:103F500079E0C2010E947930D3018C9011969C9037
:103F600011971296AC9012971396BC9013971496D3
:103F7000CC9014971596DC9015971696EC901697A2
:103F80001796FC90179718960C91189719961C91F4
:103F900019971A962C911A971B963C911B971C9671
:103FA0004C911C971D965C911D971E966C911E97C7
:103FB0001F967C911F9750968C910E943314F301A9
:103FC0003296C652DF4FF983E883CA5DD0402FE0B6
:103FD00011922A95E9F781E090E0D3018D939C93AB
:103FE00060E379E0C2010E947930F3018080918022
:103FF000A280B380C480D580E680F78000851185DB
:1040000022853385448555856685778580890E941C
:104010003314C652DF4FA881B981CA5DD040EFE0AA
:104020001D92EA95E9F782E090E0D3018D939C938D
:1040300060E379E0C2010E947930F30180809180D1
:10404000A280B380C480D580E680F780008511858A
:1040500022853385448555856685778580890E94CC
:104060003314C652DF4FA881B981CA5DD040EFE05A
:104070001D92EA95E9F783E090E0D3018D939C933C
:1040800060E379E0C2010E947930F3018080918081
:10409000A280B380C480D580E680F780008511853A
:1040A00022853385448555856685778580890E947C
:1040B0003314C652DF4FA881B981CA5DD040EFE00A
:1040C0001D92EA95E9F784E090E0D3018D939C93EB
:1040D00060E379E0C2010E947930F3018080918031
:1040E000A280B380C480D580E680F78000851185EA
:1040F00022853385448555856685778580890E942C
:104100003314C652DF4FA881B981CA5DD040EFE0B9
:104110001D92EA95E9F785E090E0D3018D939C9399
:1041200060E379E0C2010E947930F30180809180E0
:10413000A280B380C480D580E680F7800085118599
:1041400022853385448555856685778580890E94DB
:104150003314C652DF4FA881B981CA5DD040EFE069
:104160001D92EA95E9F786E090E0D3018D939C9348
:1041700060E379E0C2010E947930F3018080918090
:10418000A280B380C480D580E680F7800085118549
:1041900022853385448555856685778580890E948B
:1041A0003314C652DF4FA881B981CA5DD040EFE019
:1041B0001D92EA95E9F787E090E0D3018D939C93F7
:1041C00060E379E0C2010E947930F3018080918040
:1041D000A280B380C480D580E680F78000851185F9
:1041E00022853385448555856685778580890E943B
:1041F0003314C652DF4FA881B981CA5DD040EFE0C9
:104200001D92EA95E9F788E090E0D3018D939C93A5
:1042100060E379E0C2010E947930F30180809180EF
:10422000A280B380C480D580E680F78000851185A8
:1042300022853385448555856685778580890E94EA
:10424000331484E00E949F088091DC119091DD116D
:104250001816190644F421E04CE070E060E086E8AE
:1042600091E10E94BF068091DC119091DD1118163A
:10427000190644F428E04AE070E060E086E891E145
:104280000E94BF068091DC119091DD11181619066D
:1042900024F490E080E00E943B0760E080917D1173
:1042A0000E949E0260E080917A110E949E0223018A
:1042B000F3E04F0E511C93012C5E3F4FC652DF4F6F
:1042C00039832883CA5DD0400E947C0C5C0110E0D9
:1042D00000E00A151B05B4F4B801C3010E94920D59
:1042E000D301ED90FC90BDE2EB0EF11C61E08E2D50
:1042F0000E949E02F30162818E2D0E946C020F5F6C
:104300001F4FE7CFE091BB0FF091BC0FEC30F105F0
:1043100008F055C38827E057FE4D8F4F0C94592E57
:104320009C210122DD24E224E524EF25B023482747
:10433000F7272229CC2BD82C0E94970860E080E038
:104340000E9440096AEB7BE08EED91E10E94140A25
:104350006CE271E080E090E00E94030361E080E0A5
:104360000E9440096FEF7BE08EED91E10E94140AFC
:104370006CE271E080E090E00E94030362E080E084
:104380000E94400960E17CE08EED91E10E94140AF8
:104390006CE271E080E090E00E94030363E080E063
:1043A0000E94400961E27CE08EED91E10E94140AD6
:1043B0006CE271E080E090E00E94030364E080E042
:1043C0000E94400961E37CE08EED91E10E94140AB5
:1043D0006CE271E080E090E00E94030365E080E021
:1043E0000E94400960E47CE08EED91E10E94140A95
:1043F0008DE791E10E94A3068823D1F381E090E04C
:1044000058C70E94970860E080E00E94400960E57C
:104410007CE08EED91E10E94140A68EC70E080E08F
:1044200090E00E94030361E080E00E9440096FE594
:104430007CE08EED91E10E94140A68EC70E080E06F
:1044400090E00E94030362E080E00E94400968E679
:104450007CE08EED91E10E94140A68EC70E080E04F
:1044600090E00E94030363E080E00E94400964E75B
:104470007CE08EED91E10E94140A60E379E0CE01C8
:1044800081569F4F0E948A0B0E949D038823C1F092
:10449000CD55DF4F28813981C35AD04022303105B4
:1044A00078F5682FCE0181569F4F0E94DE0A63E0A7
:1044B0008CE00E944009CE0181569F4F0E94120558
:1044C0008DE791E10E94A306882309F41DC16CE7E2
:1044D0007CE0CE0181569F4F0E9458098823A9F1A4
:1044E00086E090E09093BC0F8093BB0F1092BA0FC0
:1044F0001092B90FCE0181569F4F0E947C0A5FC275
:1045000063E08CE00E9440096BEC79E08EED91E174
:104510000E94140A63E08CE00E9440096DEB79E090
:104520008EED91E10E94140A64E670E080E090E074
:104530000E94030363E08CE00E9440096BEC79E089
:104540008EED91E10E94140AB2CF6EE77CE0CE01BD
:1045500081569F4F0E945809882369F086E090E0B9
:104560009093BC0F8093BB0F81E090E09093BA0FC3
:104570008093B90FBFCF6EE37CE0CE0181569F4F91
:104580000E945809882309F4B5CF60E080E00E94BA
:10459000400960E379E0CE0184589F4F0E948A0B66
:1045A00010E000E0F80155E0EE0FFF1F5A95E1F72B
:1045B000EA5DFA4F80E2D30101900D928A95E1F70E
:1045C0001F930F932DB73EB7285531090FB6F894B6
:1045D0003EBF0FBE2DBFADB7BEB7119688E5E6E86A
:1045E000F1E101900D928A95E1F70E945D078DB788
:1045F0009EB7865A9F4F0FB6F8949EBF0FBE8DBFD1
:104600000E949D03882391F08A330CF053C08133BC
:104610000CF073C0833209F457C0803309F45DC0D5
:1046200062E370E080E090E00E9403038DE791E197
:104630000E94A306882309F4B5CF88E5E6E8F1E1F6
:10464000D10101900D928A95E1F78101BB24B394C9
:10465000F12CE12C69968EAD9FAD6997181619065D
:10466000B4F420E830E00E2C02C0359527950A946A
:10467000E2F72095D80150968C91509728235096B8
:104680002C934B2D70E060E0C1010E94BF06BFEF8C
:10469000EB1AFB0AE8E0EE16F104E1F60F5F1F4F9C
:1046A000B394F9E0BF12D4CFCE0184589F4F0E943B
:1046B0007C0A20CF883509F0B3CF0150110908F0EA
:1046C000AFCF0EE110E0ACCF0F5F1F4F0F311105E0
:1046D00009F0A6CF10E000E0A3CFB301CE018458CB
:1046E0009F4F0E94AC0A61E080E00E944009CE0129
:1046F00084589F4F0E94120593CF682FCE01845893
:104700009F4F0E94DE0AEFCF8AE791E10E94A30645
:10471000882309F4B9CECD55DF4F68817981C35A1A
:10472000D0406115710509F4AFCE61507109CE0119
:1047300081569F4F0E94300A63E08CE00E9440093E
:1047400061EC79E08EED91E10E94140A63E08CE067
:104750000E944009CE0181569F4F0E94120594CEBF
:104760000091B90F1091BA0F0E94970860E080E0A5
:104770000E94400960E87CE08EED91E10E94140AFD
:104780006CE271E080E090E00E94030361E080E071
:104790000E94400969E87CE08EED91E10E94140AD4
:1047A0006CE271E080E090E00E94030362E080E050
:1047B0000E94400967E97CE08EED91E10E94140AB5
:1047C0006CE271E080E090E00E94030363E080E02F
:1047D0000E94400964E77CE08EED91E10E94140A9A
:1047E00060E379E0C3010E948A0B88248394EE245D
:1047F000E394F12C42E0A42EB12C0E949D03882367
:1048000099F0D30114962D913C912230310508F096
:1048100041C0682FC3010E94DE0A63E08CE00E9461
:104820004009C3010E9412058DE791E10E94A30691
:10483000982E882309F474C06CE77CE0C3010E94C1
:104840005809882309F494C08092A20F1092A30FF4
:104850000E9476060E94970861EA7CE08EED91E165
:104860000E94140A61E080E00E94400962EB7CE053
:104870008EED91E10E94140AD12C81ED9FE00E94FF
:104880009705892B61F1CE0184589F4F0E943E0508
:10489000D92CF3CF63E08CE00E94400961EC79E011
:1048A0008EED91E10E94140A63E08CE00E944009C1
:1048B0006DEB79E08EED91E10E94140A68EE73E0F1
:1048C00080E090E00E94030363E08CE00E944009D6
:1048D00061EC79E08EED91E10E94140A9ECFDD201B
:1048E00061F281ED9FE00E949705892B31F60E94CD
:1048F00076060E94970863EC7CE08EED91E10E94C1
:10490000140A68EE73E080E090E00E9403030E94C6
:10491000970867ED7CE08EE690E10E94000A9D2CEE
:104920008AE791E10E94A3068823E9F0D301149657
:104930006D917C9161157105B1F061507109C301F0
:104940000E94300A63E08CE00E94400961EC79E04B
:104950008EED91E10E94140A63E08CE00E94400910
:10496000C3010E941205992009F447CFC301C5CDA8
:104970006EE77CE0C3010E9458098823B9F31092C6
:10498000A20F8092A30F0130110559F002301105DA
:1049900079F00115110521F6B092BC0FA092BB0F62
:1049A000BFCFE3E0F0E0F093BC0FE093BB0FB8CFD4
:1049B000F092BC0FE092BB0FB3CF0E94B8170E94D9
:1049C000460682CC0E94D80EFACF0E94970860E07B
:1049D00080E00E94400969EE7CE08EED91E10E944A
:1049E000140A6CE271E080E090E00E94030361E051
:1049F00080E00E94400964EF7CE08EED91E10E942E
:104A0000140A6CE271E080E090E00E94030362E02F
:104A100080E00E9440096CEF7CE08EED91E10E9405
:104A2000140A6CE271E080E090E00E94030363E00E
:104A300080E00E94400964E77CE08EED91E10E94F5
:104A4000140A60E379E0C3010E948A0B0E949D036F
:104A5000882389F0F301248135812230310500F566
:104A6000682FC3010E94DE0A63E08CE00E944009C7
:104A7000C3010E9412058DE791E10E94A3068823DD
:104A800009F487C06CE77CE0C3010E9458098823C1
:104A900061F187E090E09093BC0F8093BB0F66CFED
:104AA00063E08CE00E94400961EC79E08EED91E1D9
:104AB0000E94140A63E08CE00E9440096DEB79E0EB
:104AC0008EED91E10E94140A68EE73E080E090E0C0
:104AD0000E94030363E08CE00E94400961EC79E0EE
:104AE0008EED91E10E94140ABFCF6EE77CE0C30116
:104AF0000E945809882319F088E090E0CCCF6CE040
:104B00007DE0C3010E943A0BD3018D919C91892BCA
:104B100009F42CCFE8EAFFE081E1DF011D928A95DC
:104B2000E9F78091A40F9091A50F9C012F5F3F4F53
:104B30003093A50F2093A40F9093A70F8093A60FF7
:104B40006EE07DE0CF010E947930EDB7FEB773973C
:104B50000FB6F894FEBF0FBEEDBFADB7BEB711964E
:104B600083E1E6EAFFE001900D928A95E1F70E9469
:104B7000A61481E090E09093BC0F8093BB0F2DB7FB
:104B80003EB72D5E3F4F0FB6F8943EBF0FBE2DBF10
:104B9000EDCE8AE791E10E94A306882309F456CF5F
:104BA000D30114966D917C916115710509F44ECF76
:104BB00061507109C3010E94300A63E08CE00E94D9
:104BC000400961EC79E08EED91E10E94140A63E006
:104BD0008CE00E944009C3010E94120537CF0E9459
:104BE00035036093980F7093990F80939A0F909369
:104BF0009B0F0E94970860E080E00E9440096CE1F2
:104C00007DE08EED91E10E94140A60E971E080E0A0
:104C100090E00E9403030E94970860E080E00E94F9
:104C2000400969E27DE08EED91E10E94140A61E0A5
:104C300080E00E94400968E37DE08EED91E10E94F2
:104C4000140A62E080E00E94400967E47DE08EED96
:104C500091E10E94140A63E080E00E94400969E546
:104C60007DE08EED91E10E94140A6EEE72E080E02C
:104C700090E00E9403030E94970860E080E00E9499
:104C8000400964E77CE08EED91E10E94140A60E344
:104C900079E0C3010E948A0B0E9435030091980FAE
:104CA0001091990F20919A0F30919B0F601B710BFF
:104CB000820B930B69357F408240910508F0DBC081
:104CC0000E949D03882389F0F301248135812230DD
:104CD000310510F5682FC3010E94DE0A60E08CE008
:104CE0000E944009C3010E9412058DE791E10E94D4
:104CF000A306882309F499C06CE77CE0C3010E94F5
:104D00005809882371F16AE67DE08EE690E10E9401
:104D1000000A89E090E0BFCE60E08CE00E9440098C
:104D20006BEC79E08EED91E10E94140A60E08CE07A
:104D30000E9440096DEB79E08EED91E10E94140A2A
:104D400064E670E080E090E00E94030360E08CE0A5
:104D50000E9440096BEC79E08EED91E10E94140A0B
:104D6000BDCF6EE77CE0C3010E945809882349F05B
:104D700064E87DE08EE690E10E94000A8AE090E01F
:104D80008ACE6CE07DE0C3010E9458098823E1F1DE
:104D9000E8EAFFE081E1DF011D928A95E9F7809161
:104DA000A40F9091A50F9C012F5F3F4F3093A50F4B
:104DB0002093A40F9093A70F8093A60F6EE07DE041
:104DC000CF010E947930EDB7FEB773970FB6F89414
:104DD000FEBF0FBEEDBFADB7BEB7119683E1E6EAE9
:104DE000FFE001900D928A95E1F70E94A61481E000
:104DF00090E09093BC0F8093BB0F6DE97DE08EE651
:104E000090E10E94000ABBCE6EE07CE0C3010E94EC
:104E10005809882309F4AACD64EB7DE08EE690E181
:104E20000E94000A8BE090E036CE8AE791E10E9472
:104E3000A306882309F430CFD30114966D917C9199
:104E40006115710509F428CF61507109C3010E94F1
:104E5000300A61E080E00E94400961EC79E08EED6B
:104E600091E10E94140A61E080E00E944009C301C0
:104E70000E94120511CF81E090E09093BC0F8093C7
:104E8000BB0F6BEC7DE08EE690E10E94000A6ECDD8
:104E90000E94970860E080E00E94400965EE7DE096
:104EA0008EED91E10E94140A61E080E00E944009C9
:104EB00062EF7DE08EED91E10E94140A62E080E0F5
:104EC0000E9440096EEF7DE08EED91E10E94140A90
:104ED0008DE791E10E94A306882309F47AC00E941D
:104EE000970870E060E0C3010E94900C10E000E0C1
:104EF0007301B2E0EB0EF11C0E94970860E080E0C5
:104F00000E9440096CE07EE08EED91E10E94140A5F
:104F100061E080E00E944009F30160817181CE016F
:104F200084589F4F0E94440BCE0184589F4F0E948B
:104F30001205CE0184589F4F0E947C0A62E080E0F7
:104F40000E944009B701CE0184589F4F0E948A0BEE
:104F5000CE0184589F4F0E941205CE0184589F4F66
:104F60000E947C0A8DE791E10E94A306882321F12B
:104F70000F5F1F4FBE0164587F4F90E080E00E949A
:104F8000540CEE968EAD9FADEE970817190714F0EE
:104F900010E000E00E949708B801CE0189539F4FAE
:104FA0000E94900C83E1FE01E953FF4FD301019071
:104FB0000D928A95E1F7A0CF8AE791E10E94A306BE
:104FC000882381F284E090E09093BC0F8093BB0F24
:104FD00007C08AE791E10E94A306882309F478CFED
:104FE0006CE271E080E090E00E940303E8CC0E9454
:104FF000970860E080E00E9440096DE17EE08EED60
:1050000091E10E94140A61E080E00E9440096BE295
:105010007EE08EED91E10E94140A62E080E00E9441
:10502000400962EF7DE08EED91E10E94140A63E099
:1050300080E00E9440096EEF7DE08EED91E10E94DC
:10504000140A8DE791E10E94A306882309F4F2C0B7
:105050000E94970860E080E00E94400967E37EE0DC
:105060008EED91E10E94140A61E080E00E94400907
:1050700068E47EE08EED91E10E94140A62E080E037
:105080000E94400962E57EE08EED91E10E94140AE3
:1050900063E088E00E94400910E000E0F12CE12C80
:1050A0000E947C0C081719077CF4B801C3010E9408
:1050B000920DD30112968C91882319F0BFEFEB1A51
:1050C000FB0A0F5F1F4FECCFB701C3010E94440BD7
:1050D000C3010E941205C3010E947C0A68EB7BE0B9
:1050E00080E090E00E9403030E94970860E080E067
:1050F0000E94400967E37EE08EED91E10E94140A70
:1051000061E080E00E9440096FE57EE08EED91E174
:105110000E94140A62E080E00E94400968E67EE096
:105120008EED91E10E94140A63E088E00E9440093C
:1051300060919E0F70919F0F80919C0F90919D0F99
:10514000680F791FC3010E94440BC3010E9412051E
:10515000C3010E947C0A68EB7BE080E090E00E9443
:1051600003030E94970860E080E00E94400967E323
:105170007EE08EED91E10E94140A61E080E00E94E1
:10518000400963E77EE08EED91E10E94140A62E03F
:1051900080E00E9440096CE77EE08EED91E10E9484
:1051A000140A63E088E00E9440096CE07DE08EED27
:1051B00091E10E94140A68EB7BE080E090E00E949D
:1051C00003030E94970860E080E00E94400967E3C3
:1051D0007EE08EED91E10E94140A61E080E00E9481
:1051E000400969E87EE08EED91E10E94140A62E0D8
:1051F00080E00E94400963E97EE08EED91E10E942B
:10520000140A63E088E00E9440090E94680CBC0117
:1052100061507109C3010E94440BC3010E94120531
:10522000C3010E947C0A68EB7BE080E090E00E9472
:105230000303C8CE8AE791E10E94A306882309F4FC
:1052400000CFCECE0E947C0C7C0110E000E00E1559
:105250001F058CF4B801C3010E94920DF3018281F5
:1052600081112CC0E080F180C7010E94C809FFEFC6
:10527000EF16FF0631F56EE97EE08EE690E10E94C2
:10528000000A0E94970860E080E00E9440096AECF2
:105290007EE08EED91E10E94140A61E080E00E94C0
:1052A000400965EB7EE08EED91E10E94140A85E0F5
:1052B00090E09093BC0F8093BB0F81CB0F5F1F4F8B
:1052C000C6CF0E94970861E080E00E9440096AEB27
:1052D0007AE08EED91E10E94140A60E379E0CE015C
:1052E00085559F4F0E948A0B8091A30F882309F454
:1052F00058C08091A20F811154C08091A00F90914D
:10530000A10FFC0125E0EE0FFF1F2A95E1F7EA5DF2
:10531000FA4F20E2D30101900D922A95E1F79F9375
:105320008F932DB73EB7285531090FB6F8943EBF7D
:105330000FBE2DBFADB7BEB7119688E5E6E8F1E127
:1053400001900D928A95E1F70E945D078DB79EB797
:10535000865A9F4F0FB6F8949EBF0FBE8DBF0E9416
:105360009D038823F1F08A330CF04DC081330CF09B
:1053700074C0833209F45DC0803309F467C0C1553D
:10538000DF4F88819981CF5AD04063E0089708F0B9
:105390006BC080E00E944009CE0185559F4F0E945E
:1053A00012058DE791E10E94A306811182C08AE770
:1053B00091E10E94A306882309F496CFC155DF4FDF
:1053C00068817981CF5AD0406115710509F48CCF7D
:1053D00061507109CE0185559F4F0E94300A61E0EE
:1053E00083E00E94400961EC79E08EED91E10E943A
:1053F000140A61E083E00E944009CE0185559F4F69
:105400000E94120571CF883509F0B9CF8091A00FA5
:105410009091A10F019797FD05C09093A10F8093E4
:10542000A00FADCFAEE1B0E0B093A10FA093A00F5D
:10543000A6CF8091A00F9091A10F01968F31910579
:1054400060F31092A10F1092A00F99CFB301CE017B
:1054500085559F4F0E94AC0A92CF682FCE0185558B
:105460009F4F0E94DE0A8BCF80E00E94400961ECD2
:1054700079E08EED91E10E94140A63E080E00E94E1
:1054800040096DEB79E08EED91E10E94140A68EE1F
:1054900073E080E090E00E94030363E080E00E94FC
:1054A000400961EC79E08EED91E10E94140A63E01D
:1054B00070CFC555DF4F68817981CB5AD040FB0151
:1054C00001900020E9F7CF010DB71EB7861B970B9F
:1054D0002DB73EB7281B390B0FB6F8943EBF0FBE51
:1054E0002DBF8DB79EB701965C010E947930C50132
:1054F0000E94160AB501CE0184589F4F0E948A0B64
:1055000060E871E1CE0181569F4F0E94700BAE01A1
:1055100044585F4FBE0161567F4FC3010E94240D66
:10552000CE0181569F4F0E947C0ACE0184589F4F26
:105530000E947C0AD3018C91882309F475C060E82D
:1055400071E1CE0184589F4F0E94700BAE01445808
:105550005F4F61E0C7010E94E013CE0184589F4F66
:105560000E947C0A0E94D30D6AED7EE08EE690E1F7
:105570000E94000AE8EAFFE081E1DF011D928A95BE
:10558000E9F78091A40F9091A50F9C012F5F3F4FE9
:105590003093A50F2093A40F9093A70F8093A60F8D
:1055A0006EEF7EE0CF010E947930EDB7FEB77397C2
:1055B0000FB6F894FEBF0FBEEDBFADB7BEB71196E4
:1055C00083E1E6EAFFE001900D928A95E1F70E94FF
:1055D000A6140E94970861E080E00E94400969E0FB
:1055E0007FE08EED91E10E94140A60E971E080E0B5
:1055F00090E00E94030385E090E09093BC0F8093BD
:10560000BB0F2DB73EB72D5E3F4F0FB6F8943EBF90
:105610000FBE2DBF0FB6F8941EBF0FBE0DBFCE013B
:1056200085559F4F0C947D2280919E0F90919F0FE6
:10563000019690939F0F80939E0F02970CF04EC09F
:105640006EED7AE08EE690E10E94000A0E949708D3
:1056500060E080E00E94400963E17BE08EED91E133
:105660000E94140A61E080E00E9440096DE17BE045
:105670008EED91E10E94140AE8EAFFE081E1DF018A
:105680001D928A95E9F78091A40F9091A50F9C0136
:105690002F5F3F4F3093A50F2093A40F9093A70F38
:1056A0008093A60F63E17FE0CF010E947930EDB7D0
:1056B000FEB773970FB6F894FEBF0FBEEDBFADB740
:1056C000BEB7119683E1E6EAFFE001900D928A955C
:1056D000E1F70E94A61489E090E08FCF67E37BE0BA
:1056E0008EE690E10E94000A0E94970860E080E048
:1056F0000E94400963E17BE08EED91E10E94140A73
:1057000061E080E00E9440096DE17BE08EED91E177
:105710000E94140AE8EAFFE081E1DF011D928A9508
:10572000E9F78091A40F9091A50F9C012F5F3F4F47
:105730003093A50F2093A40F9093A70F8093A60FEB
:1057400063E17FE0CF010E947930EDB7FEB7739738
:105750000FB6F894FEBF0FBEEDBFADB7BEB7119642
:1057600083E1E6EAFFE001900D928A95E1F70E945D
:10577000A61460E177E280E090E00E94030369E70D
:105780007BE08EE690E10E94000A10929F0F10923B
:105790009E0F81E090E031CFF12CE12C10E000E091
:1057A0000E947C0CE816F9067CF4B701C3010E9444
:1057B000920DD30112968C91882311F00F5F1F4F29
:1057C000BFEFEB1AFB0AECCF0115110589F40E941B
:1057D000970860E080E00E94400962E27FE08EED81
:1057E00091E10E94140A60ED77E080E090E0FCCB4C
:1057F000B12CA12CF12CE12CB701C3010E94920D18
:10580000F3018281882361F0609180117091811190
:10581000C2010E947030892B19F4FFEFAF1ABF0A42
:105820002FEFE21AF20A0E151F0531F7AA94AB28E2
:10583000D9F4F12CE12CB701C3010E94920DD301E0
:105840001296AC90AA2051F0609180117091811154
:10585000C2010E947030892B09F496C0BFEFEB1A89
:10586000FB0A0E151F0539F70E94970860E080E0DB
:105870000E94400963E37FE08EED91E10E94140AEB
:10588000F12CE12CB701C3010E94920DD3011296B5
:105890008C91882361F16091801170918111C20116
:1058A0000E947030892B19F561E06E0D80E00E9436
:1058B0004009F30180809180092C000CAA08BB08E4
:1058C0002AE0B501A401B7FE0EC041E06DE28EED05
:1058D00091E10E943E0844275527BA014819590909
:1058E0006A097B092AE08EED91E10E947C09FFEFB5
:1058F000EF1AFF0A0E151F0529F60E949D03682F57
:105900008FEC860F8930C8F7062E000C770B615399
:105910007109601771070CF052C8C3010E94920D03
:10592000D3018C9011969C9011971296AC9012977F
:105930001396BC9013971496CC9014971596DC9000
:1059400015971696EC9016971796FC901797189641
:105950000C91189719961C9119971A962C911A97D1
:105960001B963C911B971C964C911C971D965C9125
:105970001D971E966C911E971F967C911F975096AF
:105980008C910E9417151BC8F30180809180B38011
:10599000C480D580E680F780008511852285338517
:1059A000448555856685778580890E9417157FCC4B
:1059B0000E947C0C7C0110E000E00E151F050CF429
:1059C000E4C0F12CE12C0E94680CE816F90614F0F2
:1059D0000C94DF24B701CE0184589F4F0E94E30C42
:1059E0006091801170918111CE0184589F4F0E9467
:1059F00070308C01892B09F0C4C060E871E1CE01E0
:105A000081569F4F0E94700B0E94680C5C01F12C24
:105A1000E12CEA14FB040CF0ADC0B701C3010E94F5
:105A2000E30CC156DF4F68817981CF59D040C30163
:105A30000E947030892B09F099C08CE0F301282F67
:105A400011922A95E9F798E0F3013C96DF011D9247
:105A50009A95E9F7C652DF4FE881F981CA5DD040D7
:105A600011928A95E9F7B301D30190968D919C919B
:105A70000E94330ECE0181569F4F0E947C0AE8EAB5
:105A8000FFE081E1DF011D928A95E9F78091A40F83
:105A90009091A50F9C012F5F3F4F3093A50F20934E
:105AA000A40F9093A70F8093A60F69E57FE0CF0125
:105AB0000E947930EDB7FEB773970FB6F894FEBF2A
:105AC0000FBEEDBFADB7BEB7119683E1E6EAFFE0CA
:105AD00001900D928A95E1F70E94A61460E080E0A3
