:020000040000FA
:100000000C9453010C9484010C9484010C9484018D
:100010000C9484010C9484010C9484010C9484014C
:100020000C9484010C9484010C9484010C9484013C
:100030000C9484010C9484010C9484010C9484012C
:100040000C9484010C9484010C9484010C9484011C
:100050000C9484010C9484010C9484010C945E0D26
:100060000C9484010C94320E0C94080E0C948401B0
:100070000C9484010C9484010C9484010C948401EC
:100080000C9484010C9484010C9484010C948401DC
:100090000C94D20D0C94A80D0C9484010C94840142
:1000A0000C9484010C9484010C9484010C948401BC
:1000B0000C9484010C9484010C9484010C948401AC
:1000C0000C9484010C9484010C9484010C9484019C
:1000D0000C9484010C9484010C9484010C9484018C
:1000E0000C9484010C940D190C9417020C94EE01DD
:1000F0000C9413020C94DB040C9460020C946A12AE
:100100000C9491020C9426050C944E090C94FC015D
:100110000C9485050C9429020C9417050C94220666
:100120000C94B21E0C942E020C94F4010C94250233
:100130000C9400020C94FF110C94680E0C94DE1DBC
:100140000C9493050C9421020C946F060C94F80106
:100150000C94EA040C94D5050C941A140C942F02F8
:100160000C9481150C9409020C941B020C9403024C
:100170000C9433020C940D020C94A41E0C94D10226
:100180000C94B51E00002100240027002A002D0039
:100190003000330001010000040107010A010000E2
:1001A0002200250028002B002E003100340002011F
:1001B0000000050108010B010000200023002600BB
:1001C00029002C002F00320000010000030106016D
:1001D00009010505050507050808080802020202CD
:1001E0000A0A0808040404040101010101010101D3
:1001F0000303030303030303040707070C0C0C0C9E
:100200000C0C0C0C02020202060606060606060686
:100210000B0B0B0B0B0B0B0B010210202008081013
:100220002040102040800201020108040201010266
:10023000040810204080804020100804020180043F
:10024000020180402010080402010804020101029A
:1002500004081020408001020408102040800000A3
:100260000A0B02090C0D0E08070304010000000030
:10027000000000000000000000000000000000007E
:10028000000000000000000000001211100000003B
:10029000000000000000000000000000000000005E
:1002A00000000000680E11241FBECFEFD1E2DEBFB8
:1002B000CDBF00E00CBF2EE0A0E6BCE001C01D9267
:1002C000A03CB207E1F71CE0A0E0B2E0E2E3F2E418
:1002D00000E00BBF02C007900D92A036B107D9F71E
:1002E00011E0C3E5D1E000E006C021970109802FAD
:1002F000FE010E94F01EC235D10780E00807A9F771
:100300000E94E90F0C9417210C940000FC01A089B5
:10031000B18982E08C93A485B5851C92A685B785AA
:100320008FEC8C93108EA489B58986E08C93A2897A
:10033000B3898C9180618C93A289B3898C918860F8
:100340008C93A289B3898C9180688C930288F389FD
:10035000E02D80818F7D8083089596E0899FD00174
:100360001124A952B24F90967C936E935F9791E0BF
:1003700091969C939197E091440EF091450E909147
:10038000430E992339F0309751F0811108C08091C4
:10039000F30D1994309719F05C968C91FACF08956B
:1003A0008150823108F05AC0E82FF0E08827E452EB
:1003B000FE4F8F4F0C94F01EFC010002EE01F40181
:1003C000F8012E02030209020D02130217021B029A
:1003D000210225022E0229022F0233028091800081
:1003E0008F77809380000895809180008F7DF9CF72
:1003F00080918000877FF5CF84B58F7784BD089585
:1004000084B58F7DFBCF8091B0008F778093B00053
:1004100008958091B0008F7DF9CF809190008F7703
:10042000809390000895809190008F7DF9CF809106
:100430009000877FF5CF8091A0008F778093A000F8
:1004400008958091A0008F7DF9CF8091A000877FD3
:10045000F5CF809120018F778093200108958091BE
:1004600020018F7DF9CF80912001877FF5CFCF9339
:10047000DF93282F30E0F901E25AFD4F8491F90112
:10048000E85EFD4FD491F901EE52FE4FC491CC23AA
:10049000A1F081110E94D001EC2FF0E0EE0FFF1FC0
:1004A000E854FE4FA591B491EC91ED2381E090E0EA
:1004B00009F480E0DF91CF91089580E090E0FACFD9
:1004C000862F0C9437021F93CF93DF93282F30E0B1
:1004D000F901E25AFD4F8491F901E85EFD4FD49194
:1004E000F901EE52FE4FC491CC23A9F0162F8111D1
:1004F0000E94D001EC2FF0E0EE0FFF1FE256FE4FFE
:10050000A591B4918FB7F894EC91111108C0D095D2
:10051000DE23DC938FBFDF91CF911F910895DE2BF7
:10052000F8CF862F642F0C946302CF93DF9390E073
:10053000FC01E85EFD4F24918E529E4FFC01849198
:100540008823C9F090E0880F991FFC01EC57FE4FFB
:10055000A591B491FC01E256FE4FC591D491611171
:100560000DC09FB7F8948C91209582238C9388813D
:10057000282328839FBFDF91CF910895623051F4E3
:100580009FB7F8943C91822F809583238C93E881C8
:100590002E2BEFCF8FB7F894EC912E2B2C938FBF8F
:1005A000EACF862F642F0C9495023FB7F894809180
:1005B0008E0C90918F0CA091900CB091910C26B55F
:1005C000A89B05C02F3F19F00196A11DB11D3FBF8B
:1005D000BA2FA92F982F8827BC01CD01620F711D5A
:1005E000811D911D42E0660F771F881F991F4A9554
:1005F000D1F708958F929F92AF92BF92CF92DF92E0
:10060000EF92FF924B015C010E94D5026B017C01CD
:100610000E94D5026C197D098E099F09683E7340BE
:1006200081059105A8F321E0821A9108A108B1087B
:1006300088EEC80E83E0D81EE11CF11C81149104E1
:10064000A104B10429F7FF90EF90DF90CF90BF9005
:10065000AF909F908F9008952FB7F89460918A0C77
:1006600070918B0C80918C0C90918D0C2FBF089504
:100670000F931F93CF93DF93C82FD62F86E0C89F89
:10068000F0011124E952F24F11A2878D90A181301F
:100690009105F1F058F082309105F1F1039709F4DA
:1006A00040C0DF91CF911F910F9108956623C9F348
:1006B00061E070E08C2F0E94AD010E942C036093DA
:1006C0002F0E7093300E8093310E9093320EE9CF3F
:1006D0000E942C0300912F0E1091300E2091310EAC
:1006E0003091320EAB01BC01401B510B620B730BFE
:1006F0008091410E9091420EB0E0A0E084179507E2
:10070000A607B70748F462E070E08C2FDF91CF9125
:100710001F910F910C94AD0163E070E0D111C1CF36
:10072000F4CF70E060E0F1CF6F927F928F929F9252
:10073000AF92BF92CF92DF92EF92FF920F931F93EF
:10074000CF93DF9381E08093430E0E942C030091AE
:10075000330E1091340E2091350E3091360EAB01D0
:10076000BC01401B510B620B730B80913F0E9091AB
:10077000400EB0E0A0E084179507A607B70708F081
:1007800014C1C0E080913D0EC81760F4E091390EAD
:10079000F0913A0EEC0FF11D62E080810E9495020B
:1007A000CF5FF0CF712C812C912C540183948091D8
:1007B0003E0E781608F05FC0072D10E0E0913B0E6A
:1007C000F0913C0EE00FF11F61E080810E949502E4
:1007D000E0913B0EF0913C0EE00FF11F60E0808154
:1007E0000E946302D501C401072C04C0880F991F21
:1007F000AA1FBB1F0A94D2F76C017C01E094F0940D
:10080000612C80913D0E6816F8F4C62DD0E0E09181
:10081000390EF0913A0EEC0FFD1F80810E943702D5
:100820002496CC0FDD1FC952D24F892B41F4888109
:1008300099818C299D29998388836394E2CF88814B
:1008400099818E219F21F7CFE0913B0EF0913C0ED4
:10085000E00FF11F61E080810E94630280913B0EF6
:1008600090913C0E080F191F60E0F80180810E94F2
:10087000950273949CCFC7EDDDE0FE018FEF9FEFF3
:10088000278D30A1232B21F4148E968F858F11A2F2
:1008900036962EE0E331F20799F7F12C96E0D92E47
:1008A00080913D0EF81608F050C0E12C0F2D10E09D
:1008B000000F111F0152124F20913E0EE21608F058
:1008C00042C0F801608171810E2C02C07695679557
:1008D0000A94E2F7F29E900111242E0D311DE7EDEE
:1008E000FDE080E0458D568D2417350709F461C081
:1008F0008F5F36968A30B1F760FF23C0E7EDFDE0E9
:1009000090E080E0448D411117C0E091370EF091E6
:10091000380EE20FF31F4081D89EF001D99EF00DF2
:100920001124E952F24F448F368F258F10A2178E73
:1009300061E00E94380305C0019636968A30910521
:1009400009F7E394B9CFF394ABCF10E089A18111FB
:10095000182F2696FEE0C331DF07C1F70E942C0353
:100960006093330E7093340E8093350E9093360E51
:100970001123D9F08091F80D8823B9F08091F60DFC
:100980009091F70D019789F48091F30DDF91CF914C
:100990001F910F91FF90EF90DF90CF90BF90AF909D
:1009A0009F908F907F906F9008951092430E80E0FB
:1009B000EDCF6170BECF0895DB0114964D915C912F
:1009C00015976D917C91DC01ED91FC910280F38192
:1009D000E02D1994AF92BF92CF92DF92EF92FF92E7
:1009E0000F931F93CF93DF936C017B018B01040F57
:1009F000151FEB015E01AE18BF08C017D10759F0F3
:100A00006991D601ED91FC910190F081E02DC60134
:100A10001995892B79F7C501DF91CF911F910F911E
:100A2000FF90EF90DF90CF90BF90AF900895FC01C2
:100A3000538D448D252F30E0842F90E0821B930B43
:100A4000541710F0CF96089501970895FC01918DE9
:100A5000828D981761F0A28DAE0FBF2FB11D5D96EC
:100A60008C91928D9F5F9F73928F90E008958FEF8E
:100A70009FEF0895CF92DF92EF92FF920F931F9313
:100A8000CF93DF938C01D0E0C0E00E942C036093F1
:100A9000A50C7093A60C8093A70C9093A80C8DE9DD
:100AA0009CE00E94260597FF28C00E942C03C0905E
:100AB000A50CD090A60CE090A70CF090A80C6C1997
:100AC0007D098E099F09C090A10CD090A20CE090E6
:100AD000A30CF090A40C6C157D058E059F05F8F213
:100AE000CE01DF91CF911F910F91FF90EF90DF909A
:100AF000CF900895C2E0D0E0F3CFF80181938F0149
:100B00002197C1F3C1E0D0E0C0CFFC01918D828D6F
:100B1000981731F0828DE80FF11D858D90E00895D2
:100B20008FEF9FEF0895FC01918D228D892F90E02A
:100B3000805C9F4F821B91098F73992708958DE9DF
:100B40009CE00E94930521E0892B09F420E0822F8C
:100B500008958AE39DE00E94930521E0892B09F422
:100B600020E0822F0895FC01A48DA80FB92FB11D9C
:100B7000A35ABF4F2C91848D90E001968F739927D3
:100B8000848FA689B7892C93A089B1898C918370B1
:100B900080648C93938D848D981306C00288F389AA
:100BA000E02D80818F7D80830895EF92FF920F93D7
:100BB0001F93CF93DF93EC0181E0888F9B8D8C8D09
:100BC00098131AC0E889F989808185FF15C09FB7FD
:100BD000F894EE89FF896083E889F98980818370C0
:100BE000806480839FBF81E090E0DF91CF911F916F
:100BF0000F91FF90EF900895F62E0B8D10E00F5F90
:100C00001F4F0F731127E02E8C8D8E110CC00FB665
:100C100007FCFACFE889F989808185FFF5CFCE01FD
:100C20000E94B305F1CFEB8DEC0FFD2FF11DE35AC0
:100C3000FF4FF0829FB7F8940B8FEA89FB89808180
:100C40008062CFCFCF93DF93EC01888D8823B9F0FA
:100C5000AA89BB89E889F9898C9185FD03C08081C7
:100C600086FD0DC00FB607FCF7CF8C9185FFF2CF44
:100C7000808185FFEDCFCE010E94B305E9CFDF91E2
:100C8000CF91089580E090E0892B29F00E94A9057A
:100C900081110E94000080E090E0892B29F00E94E1
:100CA0009F0581110E94000080E090E0892B49F0AF
:100CB00080E090E0892B29F00E94000081110E94C1
:100CC000000080E090E0892B49F080E090E0892BE3
:100CD00029F00E94000081110C940000089590E01A
:100CE00080E00895CF92DF92EF92FF92CF93DF934F
:100CF0000E942C03EB010E942C030E942C036B0129
:100D00008DE99CE00E949305892B29F08DE99CE0F8
:100D10000E942605F5CFCC1ADD0A88EEC81683E0BE
:100D2000D8065CF38DE99CE00E949305892B29F796
:100D3000DF91CF91FF90EF90DF90CF900895CF9308
:100D4000DF93EC018A8181110AC088810E943702F9
:100D5000019729F481E08A83DF91CF9108958A81F8
:100D6000811102C080E0F8CF88810E943702892B70
:100D7000C9F71A82F7CF4F925F926F927F928F924C
:100D80009F92AF92BF92CF92DF92EF92FF920F931A
:100D90001F93CF93DF931F921F92CDB7DEB78C01C5
:100DA00049832A83660F771FF801EA5AFF4FE080D4
:100DB000F180EE0CFF1CF801CF01801B910B8E150A
:100DC0009F0514F41192F8CF8981F801E60FF71FFF
:100DD00081838A818083680184E5C80ED11C60E02C
:100DE000F60180810E9463025801F2E5AF0EB11C4A
:100DF000480180E5880E911C1E141F040CF5E1E0EB
:100E0000EE1AF108F801EE0DFF1D6080F50150802B
:100E1000F401408088E0782E662D661F6627661FE5
:100E2000842D0E946302660C61E0852D0E9463029E
:100E300060E0852D0E9463027A947110EDCFDCCFC3
:100E400061E0F60180810F900F90DF91CF911F91AB
:100E50000F91FF90EF90DF90CF90BF90AF909F9059
:100E60008F907F906F905F904F900C946302EF9201
:100E7000FF920F931F93CF937C018C0183E0000FAF
:100E8000111F8A95E1F7045A114FC1E0F801119240
:100E90008F0120E04C2FB7018CE49EE00E94BB063E
:100EA000CF5FC93099F7CF911F910F91FF90EF90CD
:100EB00008959F92AF92BF92CF92DF92EF92FF92EE
:100EC0000F931F93CF93DF93CDB7DEB7C054D109F3
:100ED0000FB6F894DEBF0FBECDBFC955DF4F2881D6
:100EE0003981C75AD040FE01319680E4DF011D925E
:100EF0008A95E9F749E1429FC001439F900D112473
:100F0000855E9D4F8F01BE01675D7F4FAF0130E071
:100F100020E0FA01E20FF31FDC01A20FB31FAC9136
:100F2000A18B2F5F3F4F2530310599F70596485F1C
:100F30005F4F4617570759F7FE01E15BFF4F7F01EF
:100F40009924939480E8A82EB12CD12CC12CCB5598
:100F5000DF4F88819981C55AD04018161906FCF4D4
:100F6000C5010C2C02C0959587950A94E2F7D7012C
:100F700050962C915097F801EC0DFD1D30813323D4
:100F800089F1822B50968C93D70150962C91492D44
:100F900070E060E0CE01815B9F4F0E94BB06BFEF17
:100FA000CB1ADB0AE8E0CE16D10489F6FFEFEF1A80
:100FB000FF0A9394085F1F4F89E09812C6CFC05C68
:100FC000DF4F0FB6F894DEBF0FBECDBFDF91CF91DC
:100FD0001F910F91FF90EF90DF90CF90BF90AF9057
:100FE0009F90089580958223F701808BCDCFCF937A
:100FF000DF93EC0160E08E810E94630261E08E81EC
:101000000E94630260E08E810E9463028BE891E09F
:101010000197F1F7DF91CF910895CF92DF92EF9290
:10102000FF920F931F93CF93DF936C017C0187E0B6
:10103000E80EF11CD0E0C0E0062F10E0B8010C2E45
:1010400002C0759567950A94E2F76170F701819186
:101050007F010E9463022196C430D10579F7C60151
:10106000DF91CF911F910F91FF90EF90DF90CF9084
:101070000C94F707CF92DF92EF92FF920F931F939A
:10108000CF93DF93EC01F62E642F8C810E946302D4
:101090008D818F3F19F060E00E9463020F2D10E0F8
:1010A0008F8584FF25C06E0187E0C80ED11CF12C0E
:1010B000E12CB8010E2C02C0759567950A94E2F7F1
:1010C0006170F60181916F010E946302FFEFEF1AD8
:1010D000FF0A88E0E816F10461F7CE01DF91CF91B5
:1010E0001F910F91FF90EF90DF90CF900C94F70736
:1010F000B80184E0759567958A95E1F7CE010E9465
:101100000D086F2DCE01DF91CF911F910F91FF90B0
:10111000EF90DF90CF900C940D0840E0682F84EAA8
:101120009EE00C943A0881E00E948D088BE39FE1D9
:101130000197F1F70895CF93DF93813029F09091D3
:10114000B30E98609093B30E8093B70E1092B80EC2
:1011500080E48093B90E80E18093BA0E80E580939D
:10116000BB0E61E08091A80E0E9495028091A90EAD
:101170008F3F19F061E00E94950261E08091AA0E14
:101180000E949502C4EADEE09E01245A3E4080910E
:10119000B30E84FD0BC084E090E021962817390738
:1011A00044F461E08E810E949502EECF88E090E0E9
:1011B000F4CF8BE39DE00197F1F760E08091A80EFA
:1011C0000E94630260E08091AA0E0E9463028091F7
:1011D000A90E8F3F19F060E00E9463028091B30E68
:1011E00084FD34C063E084EA9EE00E940D08CBE4F5
:1011F000D6E4CE010197F1F763E084EA9EE00E9415
:101200000D082197F1F763E084EA9EE00E940D0843
:1012100083E592E00197F1F762E084EA9EE00E94A4
:101220000D088091B30E80620E948D0884E0809347
:10123000B40E8CE00E948D080E94930882E0809397
:10124000B50E86E0DF91CF910C948D0880620E94EC
:101250008D088BE496E40197F1F78091B30E8062DC
:101260000E948D0883E592E00197F1F78091B30E1B
:1012700080620E948D08D5CF643008F063E09091C1
:10128000B70E691710F06FEF690FE62FF0E0EC551D
:10129000F14F9489890F80680C948D0841E00E9479
:1012A0003A0881E090E00895FB0101900020E9F701
:1012B0003197AF01461B570BDC01ED91FC91028089
:1012C000F381E02D1994CF93DF93BC018AE39DE075
:1012D0000E94DC04EC016EE279E08AE39DE00E946A
:1012E00054098C0F9D1FDF91CF9108958F929F928B
:1012F000AF92BF92CF92DF92EF92FF920F931F9324
:10130000CF93DF93CDB7DEB7A1970FB6F894DEBFCA
:101310000FBECDBF6C01990FEE08FF08F7FE4BC062
:101320006DE28AE39DE00E94D5058C0122273327D8
:10133000A9012C193D094E095F0919A2CE01819618
:101340007C019AE0892E912CA12CB12CCA01B90103
:10135000A50194010E94CE1E605DF70162937F019A
:10136000211531054105510589F790E080E030975E
:1013700029F0BF018AE39DE00E945409080F191F5C
:101380006EE279E08AE39DE00E945409800F911F8C
:10139000A1960FB6F894DEBF0FBECDBFDF91CF91FF
:1013A0001F910F91FF90EF90DF90CF90BF90AF9083
:1013B0009F908F900895A701960119A28E010F5D4D
:1013C0001F4F8AE0C82ED12CE12CF12CCA01B901A3
:1013D000A70196010E94CE1E605DF80162938F0105
:1013E000211531054105510589F7309739F0BF01C5
:1013F0008AE39DE00E9454098C01C2CF10E000E016
:10140000BFCF0F931F93CF93DF93EC010E9454093A
:101410008C016EE279E0CE010E945409800F911F89
:10142000DF91CF911F910F9108950C945409CF93A0
:10143000DF93FC0101900020E9F73197E81BF90BDD
:10144000DC0138E0AD01481B590B4E175F0734F43F
:101450002D91ED01219723272883F4CFDF91CF91A0
:101460000895FC0124813581232B39F421E0FB010F
:101470008081882349F020E007C0808191810E940B
:10148000072121E0892BB9F7822F0895DC011496FA
:101490008D919C9115976817790750F4ED91FC9107
:1014A0001197E60FF71F15967C936E931497108291
:1014B00008950F931F93CF93DF938C01EB01FC01F1
:1014C000808191810097E1F06881798161157105D2
:1014D000A9F0428153812C813D814217530770F05E
:1014E0000E9410218C819D81F801958384831D8247
:1014F0001C82DF91CF911F910F9108950E94941F3C
:1015000088819981F801918380838A819B8193836B
:1015100082838C819D8195838483198218821B82AA
:101520001A82E5CFCF93DF93EC01888199810097F0
:1015300011F00E94941F198218821D821C821B8246
:101540001A82DF91CF910895FC01808191810097EB
:1015500011F00C94941F08950F931F93CF93DF9372
:10156000EC0188819981009759F02A813B812617E7
:10157000370730F081E0DF91CF911F910F910895EF
:101580008B016F5F7F4F0E941D20009759F0998358
:1015900088831B830A832C813D81232B59F7FC010F
:1015A0001082E8CF80E0E7CFEF92FF920F931F9376
:1015B000CF93DF93FB0101900020E9F73197E61B01
:1015C000F70BE1F07B018C01DC011496CD91DC91ED
:1015D000CE0FDF1FBE010E94AC0A882381F0F80104
:1015E0002081318184819581B701820F931F0E94F0
:1015F0001021D8011596DC93CE93149781E0DF91EA
:10160000CF911F910F91FF90EF900895EF92FF926D
:101610000F931F93CF93DF931F921F92CDB7DEB727
:101620008C0169831A82FC01E480F580FFEFEF1AD8
:10163000FF0AB7010E94AC0A882381F0F8012081DB
:10164000318184819581BE016F5F7F4F820F931F2F
:101650000E941021F801F582E48281E00F900F9042
:10166000DF91CF911F910F91FF90EF900895EF922E
:10167000FF920F931F93CF93DF93EC018617970789
:1016800081F0FB01008111810115110539F0E48021
:10169000F580B7010E94AC0A81110BC0CE010E94F7
:1016A000920ACE01DF91CF911F910F91FF90EF90A1
:1016B0000895FD82EC82B801888199810E941021F1
:1016C000F0CFEF92FF920F931F93CF93DF93EC0134
:1016D0007B01198218821B821A821D821C82FB01E7
:1016E00001900020E9F731978F01061B170BB80115
:1016F0000E94AC0A811109C0CE01DF91CF911F91E8
:101700000F91FF90EF900C94920A1D830C83B70108
:1017100088819981DF91CF911F910F91FF90EF9078
:101720000C9410217F928F929F92AF92BF92CF9292
:10173000DF92EF92FF920F931F93CF93DF9300D02E
:10174000CDB7DEB77C016B0161E379E08AE39DE010
:101750000E94010A0E947206B6018DE99CE00E9477
:10176000010A712C8DE99CE00E949305892B39F0C8
:10177000CE0101960E943A0577247394F3CF772027
:1017800089F38DE99CE00E9493058C01892B51F728
:10179000E2E9FCE08BE0DF011D928A95E9F70E9407
:1017A000930865E479E084EA9EE00E94150A61E00E
:1017B00080E00E943C096BE479E084EA9EE00E94AC
:1017C000150AB60184EA9EE00E94150A63E67AE0F3
:1017D00084EA9EE00E94150A60E379E084EA9EE0D4
:1017E0000E94010A62E080E00E943C090E942C03F2
:1017F0004B015C010E942C030E947206D12C8DE9E2
:101800009CE00E949305892BD9F08DE99CE00E9411
:1018100026056801BFEFCB1ADB0AF801EE56F34F3D
:10182000808362E97CE08AE39DE00E94010A6FE424
:1018300079E08AE39DE00E94010A8601D72CDFCF80
:10184000D11007C00E942C034B015C010E942C03A5
:10185000D6CF0E942C03681979098A099B09643F35
:101860007140810591055CF261E379E08AE39DE0D6
:101870000E94010A67E679E08AE39DE00E94150A6A
:1018800062E97CE0C7010E94610BC7010F900F90D5
:101890000F90DF91CF911F910F91FF90EF90DF900C
:1018A000CF90BF90AF909F908F907F900895FF92C0
:1018B0000F931F93CF93DF93EC018B01FB01F0801B
:1018C0000E94B81EF81621F06F2DCE010E94C01E96
:1018D000F801F1802196CE010E94B81EF81621F081
:1018E0006F2DCE010E94C01EC801DF91CF911F91C4
:1018F0000F91FF9008950F931F93CF93DF938C0167
:10190000EB010E94B81E8883C80101960E94B81E90
:101910008983CE01DF91CF911F910F910895CF93CD
:10192000DF931F921F92CDB7DEB7BE016F5F7F4F6F
:101930008AEF97E00E947B0C89819A810F900F902B
:10194000DF91CF910895CF92DF92EF92FF920F93A4
:101950001F93CF93DF93EC017B010E948F0CE8165D
:10196000F906ACF06CE779E08AE39DE00E94010A99
:1019700083E2FE0111928A95E9F7CE01DF91CF91C2
:101980001F910F91FF90EF90DF90CF90089583E229
:101990008E9D80018F9D100D11247E01F3E2EF0ECC
:1019A000F11C6E010C1B1D0B0250184FC8018C0D51
:1019B0009D1D0E94B81EF60181936F01EE16FF0671
:1019C000A9F7DBCF7F928F929F92AF92BF92CF9277
:1019D000DF92EF92FF920F931F93CF93DF9300D08C
:1019E0001F92CDB7DEB7BE016F5F7F4F8CEF97E0E0
:1019F0000E947B0C89819A818F3F9F40C4F060E9EF
:101A000079E08AE39DE00E94010A0F900F900F9009
:101A10000F90DF91CF911F910F91FF90EF90DF908A
:101A2000CF90BF90AF909F908F907F9008950E942D
:101A30008F0C01969A838983BE016F5F7F4F8AEF77
:101A400097E00E94570CBE016D5F7F4F8CEF97E0CF
:101A50000E947B0C0B811C811EAB0DABBE016D5F28
:101A60007F4F8CEF97E00E947B0C8B809C80CE0197
:101A700045966C01F12CE12CF60171906F01540137
:101A8000AE0CBF1CC5010E94B81E781621F0672D50
:101A9000C5010E94C01EFFEFEF1AFF0A23E2E21603
:101AA000F10451F70D5D1F4F1C830B83BE016D5F69
:101AB0007F4F8CEF97E00E94570CA7CF1F920F9299
:101AC0000FB60F9211242F933F938F939F93AF9351
:101AD000BF9380918A0C90918B0CA0918C0CB0914B
:101AE0008D0C3091890C23E0230F2D3758F501968A
:101AF000A11DB11D2093890C80938A0C90938B0CAF
:101B0000A0938C0CB0938D0C80918E0C90918F0CC7
:101B1000A091900CB091910C0196A11DB11D8093E4
:101B20008E0C90938F0CA093900CB093910CBF915E
:101B3000AF919F918F913F912F910F900FBE0F907A
:101B40001F90189526E8230F0296A11DB11DD2CF34
:101B50001F920F920FB60F9211240BB60F922F9374
:101B60003F934F935F936F937F938F939F93AF9325
:101B7000BF93EF93FF938DE99CE00E94B305FF9123
:101B8000EF91BF91AF919F918F917F916F915F91F5
:101B90004F913F912F910F900BBE0F900FBE0F9062
:101BA0001F9018951F920F920FB60F9211240BB62B
:101BB0000F922F938F939F93EF93FF93E091AD0C30
:101BC000F091AE0C8081E091B30CF091B40C82FDE9
:101BD0001DC090818091B60C8F5F8F732091B70CE0
:101BE000821741F0E091B60CF0E0E356F34F958F89
:101BF0008093B60CFF91EF919F918F912F910F9051
:101C00000BBE0F900FBE0F901F9018958081F2CFE2
:101C10001F920F920FB60F9211240BB60F922F93B3
:101C20003F934F935F936F937F938F939F93AF9364
:101C3000BF93EF93FF938AE39DE00E94B305FF916A
:101C4000EF91BF91AF919F918F917F916F915F9134
:101C50004F913F912F910F900BBE0F900FBE0F90A1
:101C60001F9018951F920F920FB60F9211240BB66A
:101C70000F922F938F939F93EF93FF93E0914A0DD1
:101C8000F0914B0D8081E091500DF091510D82FD4E
:101C90001DC090818091530D8F5F8F732091540DE3
:101CA000821741F0E091530DF0E0E65CF24F958F22
:101CB0008093530DFF91EF919F918F912F910F90F2
:101CC0000BBE0F900FBE0F901F9018958081F2CF22
:101CD000CF93DF931092A00C10929F0C48EE53E02C
:101CE00060E070E04093A10C5093A20C6093A30CB1
:101CF0007093A40C8AE099E090939E0C80939D0CC5
:101D00002DEC30E03093AA0C2093A90C2CEC30E0A1
:101D10003093AC0C2093AB0C28EC30E03093AE0C3D
:101D20002093AD0C29EC30E03093B00C2093AF0C35
:101D30002AEC30E03093B20C2093B10C2EEC30E062
:101D40003093B40C2093B30C1092B60C1092B70CD5
:101D50001092B80C1092B90C10923D0D10923C0DDF
:101D600040933E0D50933F0D6093400D7093410D95
:101D700090933B0D80933A0D85EC90E09093470D46
:101D80008093460D84EC90E09093490D8093480D2C
:101D900080EC90E090934B0D80934A0D81EC90E0A5
:101DA00090934D0D80934C0D82EC90E090934F0DED
:101DB00080934E0D86EC90E09093510D8093500DE2
:101DC0001092530D1092540D1092550D1092560D05
:101DD0001092A70E1092A60E86E299E09093A50E9F
:101DE0008093A40E8CE08093A80E8FEF8093A90EB1
:101DF0008BE08093AA0E85E08093AB0E84E0809305
:101E0000AC0E83E08093AD0E82E08093AE0E109214
:101E1000AF0E1092B00E1092B10E1092B20E109240
:101E2000B30E81E00E949B08CAE0D0E0D0939D0EE3
:101E3000C0939C0E88E090E090939F0E80939E0E3E
:101E400089E090E09093A10E8093A00E81E090E055
:101E50009093A30E8093A20E61E08AE00E94950207
:101E600061E080919E0E0E94950261E08091A00E3B
:101E70000E94950261E08091A00E0E946302D093BF
:101E80009D0EC0939C0EECE5FEE08CE99EE0119265
:101E90008E179F07E1F7D0E0C0E08091A20E9091ED
:101EA000A30EC817D907B4F520E04FE0BE018CE4BB
:101EB0009EE00E94BB068091A20E9091A30EC817CF
:101EC000D9073CF427E04BE0BE018CE49EE00E9481
:101ED000BB0620E049E0BE018CE49EE00E94BB0608
:101EE0008091A20E9091A30EC817D9071CF4CE01C1
:101EF0000E9437078091A20E9091A30EC817D907B0
:101F00003CF420E04CE0BE018CE49EE00E94BB0665
:101F10002196C3CF10924B0E87E190E090934A0E2A
:101F20008093490E1092480E88E190E09093470EFE
:101F30008093460E1092D90D1092DD0D1092DC0D9B
:101F40001092DE0D8CE199E09093D80D8093D70D1F
:101F5000E3EFFDE08FE29EE010821482138215828F
:101F600036968E179F07C1F785E092E090933A0E60
:101F70008093390E82E092E090933C0E80933B0E6A
:101F800084E080933D0E83E080933E0E89E092E0F2
:101F90009093380E8093370E8AE090E09093400E35
:101FA00080933F0E84EF91E09093420E8093410E18
:101FB0001092450E1092440E1092330E1092340E71
:101FC0001092350E1092360E1092430EDF91CF9183
:101FD0000895CF93DF93CDB7DEB7CD5CD1090FB6AF
:101FE000F894DEBF0FBECDBF789484B5826084BD07
:101FF00084B5816084BD85B5826085BD85B581600D
:1020000085BD80916E00816080936E00109281008A
:102010008091810082608093810080918100816045
:102020008093810080918000816080938000809106
:10203000B10084608093B1008091B0008160809392
:10204000B000809191008260809391008091910016
:1020500081608093910080919000816080939000D6
:102060008091A10082608093A1008091A100816095
:102070008093A1008091A00081608093A000809156
:1020800021018260809321018091210181608093F0
:1020900021018091200181608093200180917A004C
:1020A000846080937A0080917A00826080937A00C5
:1020B00080917A00816080937A0080917A008068B4
:1020C00080937A001092C1008AE39DE00E9486010D
:1020D0008DE99CE00E9486011A8219829E012F5F81
:1020E0003F4F3901B9018AEF97E00E94570C64E233
:1020F00075E08CEF97E00E94570C1A821982B301A9
:102100008DE990E00E94570C62E275E08FE990E063
:102110000E94570C6CE979E08AE39DE00E94010A75
:102120008E01075A1F4F83E2D82EF8012D2D1192F0
:102130002A95E9F781E0F80182A381E690E0C9538E
:10214000DF4F99838883C75CD040BE0169537F4FBE
:10215000CE018B539F4F0E941021CE018B539F4F76
:102160000E94170A86E0EAE5FCE0DE01A555BF4FB4
:1021700001900D928A95E1F7BE0165557F4FCE0122
:102180008B559F4F0E941021CE018B559F4F0E946F
:10219000170A83E390E0CD53DF4F99838883C35CB4
:1021A000D040BE016D537F4FCE018F539F4F0E9491
:1021B0001021CE018F539F4F0E94170ABE016B530F
:1021C0007F4FC8010E941021BE016B557F4FC8018F
:1021D0000C960E941021BE016F537F4FC801449698
:1021E0000E941021BE016B537F4F8AE39DE00E9445
:1021F000010ABE016F537F4F8AE39DE00E94010AEE
:102200002DB73EB7235231090FB6F8943EBF0FBE2B
:102210002DBFADB7BEB71196F8018D2D01900D926F
:102220008A95E1F70E94E20CF3012D2D11922A9577
:10223000E9F782E690E0C154DF4F99838883CF5B52
:10224000D0408DB79EB783960FB6F8949EBF0FBE51
:102250008DBFBE0161547F4FCE0183549F4F0E94BA
:102260001021CE0183549F4F0E94170A86E0EAE5B1
:10227000FCE0DE01A156BF4F01900D928A95E1F777
:102280007E019CE7E90EF11CBE0161567F4FC7013C
:102290000E941021C7010E94170A82E390E0C954EE
:1022A000DF4F99838883C75BD040BE0169547F4F5D
:1022B000CE018F549F4F0E941021CE018F549F4F0B
:1022C0000E94170ABE0163547F4FC3010E94102170
:1022D000B701CE010D960E941021BE016F547F4FB1
:1022E000CE0145960E941021BE0163547F4F8AE3C0
:1022F0009DE00E94010ABE016F547F4F8AE39DE07A
:102300000E94010AEDB7FEB7B3970FB6F894FEBF6F
:102310000FBEEDBFADB7BEB71196F30101900D92A0
:10232000DA94E1F70E94E20C2DB73EB72D5D3F4FE6
:102330000FB6F8943EBF0FBE2DBF6BEA79E08AE37B
:102340009DE00E94150A0E948F0C0E94760984E08D
:102350000E949B088091A20E9091A30E1816190658
:1023600044F421E04CE070E060E08CE49EE00E94E8
:10237000BB068091A20E9091A30E1816190644F484
:1023800028E04AE070E060E08CE49EE00E94BB063A
:102390008091A20E9091A30E1816190624F490E0D5
:1023A00080E00E94370760E08091490E0E9495020C
:1023B00060E08091460E0E949502BEE12B2E312CEA
:1023C000C8014496C453DF4F99838883CC5CD040C6
:1023D000E0910002F0910102E930F10508F077C0C8
:1023E0008827EA50FE4E8F4F0C94F01EFF116A12A0
:1023F00081150D19DE1DA41E1A14B21EB51E0E94F1
:10240000930860E080E00E943C096BEB79E084EA8D
:102410009EE00E94150A6CE271E080E090E00E946C
:10242000FA0261E080E00E943C0966EC79E084EA0F
:102430009EE00E94150A6CE271E080E090E00E944C
:10244000FA0262E080E00E943C0967ED79E084EAEC
:102450009EE00E94150A6CE271E080E090E00E942C
:10246000FA0263E080E00E943C0968EE79E084EAC9
:102470009EE00E94150A6CE271E080E090E00E940C
:10248000FA0264E080E00E943C0968EF79E084EAA7
:102490009EE00E94150A6CE271E080E090E00E94EC
:1024A000FA0265E080E00E943C0967E07AE084EA95
:1024B0009EE00E94150A89E49EE00E949F06882300
:1024C000D1F381E090E090930102809300020E949A
:1024D00042067ECF0E94930860E080E00E943C09A3
:1024E00067E17AE084EA9EE00E94150A68EC70E0F9
:1024F00080E090E00E94FA0261E080E00E943C09E6
:1025000066E27AE084EA9EE00E94150A68EC70E0D8
:1025100080E090E00E94FA0262E080E00E943C09C4
:102520006FE27AE084EA9EE00E94150A68EC70E0AF
:1025300080E090E00E94FA0263E080E00E943C09A3
:102540006BE37AE084EA9EE00E94150A60E379E09A
:10255000CE0181569F4F0E94610B0E9494038823F5
:10256000D1F0CD55DF4F28813981C35AD040223078
:10257000310588F5682FCE0181569F4F0E94060BCA
:1025800063E08CE00E943C09BE0161567F4F84EA03
:102590009EE00E94DC0489E49EE00E949F0688235E
:1025A00009F41AC167E47AE0CE0181569F4F0E9478
:1025B000310A8823A9F186E090E09093010280938C
:1025C00000021092610C1092600CCE0181569F4F58
:1025D0000E94A40A7CCF63E08CE00E943C0965E580
:1025E0007AE084EA9EE00E94150A63E08CE00E9493
:1025F0003C0963E47AE084EA9EE00E94150A64E6FE
:1026000070E080E090E00E94FA0263E08CE00E94BB
:102610003C0965E57AE084EA9EE00E94150AB0CFA5
:1026200069E47AE0CE0181569F4F0E94310A8823E7
:1026300069F086E090E0909301028093000281E0CF
:1026400090E09093610C8093600CBFCF65E07AE0DE
:10265000CE0181569F4F0E94310A882309F4B5CFDD
:1026600060E080E00E943C0960E379E0C7010E94DD
:10267000610BD12CC12CF601A5E0EE0FFF1FAA952E
:10268000E1F7EA5DFA4F80E2D80101900D928A9558
:10269000E1F7DF92CF92EDB7FEB7E855F1090FB63B
:1026A000F894FEBF0FBEEDBFADB7BEB7119688E57B
:1026B000ECE4FEE001900D928A95E1F70E94590743
:1026C0002DB73EB7265A3F4F0FB6F8943EBF0FBE08
:1026D0002DBF0E949403882391F08A330CF052C0DE
:1026E00081330CF074C0833209F458C0803309F48C
:1026F00060C062E370E080E090E00E94FA0289E44A
:102700009EE00E949F06882309F4B5CFC7010E946E
:10271000630988E5ECE4FEE0D30101900D928A950F
:10272000E1F7630199249394B12CA12C69968EADA5
:102730009FAD6997181619069CF420E830E00A2C22
:1027400002C0359527950A94E2F72095F601808915
:102750002823208B492D70E060E0C3010E94BB0656
:10276000FFEFAF1ABF0A28E0A216B104F9F63FEF57
:10277000C31AD30A939489E09812D6CFC7010E9456
:10278000A40A23CF883509F0B4CF31E0C31AD108A9
:1027900008F0AFCFEEE1CE2ED12CABCF9FEFC91A10
:1027A000D90AEFE1CE16D10409F0A3CFD12CC12C68
:1027B000A0CFB801C7010E94D40A61E080E00E9466
:1027C0003C09B70184EA9EE00E94DC0492CF682FA6
:1027D000C7010E94060BF1CF86E49EE00E949F068F
:1027E000882309F4BACECD55DF4F68817981C35A69
:1027F000D0406115710509F4B0CE61507109CE0168
:1028000081569F4F0E94460A61E080E00E943C0989
:102810006BE47AE084EA9EE00E94150A61E080E0C1
:102820000E943C09BE0161567F4F84EA9EE00E94EF
:10283000DC0493CEC090600CD090610C0E94930891
:1028400060E080E00E943C096CE57AE084EA9EE06A
:102850000E94150A6CE271E080E090E00E94FA02AA
:1028600061E080E00E943C0965E67AE084EA9EE04F
:102870000E94150A6CE271E080E090E00E94FA028A
:1028800062E080E00E943C0963E77AE084EA9EE02F
:102890000E94150A6CE271E080E090E00E94FA026A
:1028A00063E080E00E943C096BE37AE084EA9EE00A
:1028B0000E94150A60E379E0C8010E94610B55246B
:1028C0005394AA24A394B12C0E9494038823A1F0CA
:1028D000F801248135812230310508F05DC0682F70
:1028E000C8010E94060B63E08CE00E943C09B8011D
:1028F00084EA9EE00E94DC0489E49EE00E949F0638
:10290000982E882309F48EC067E47AE0C8010E94FB
:10291000310A882309F4AFC05092620C1092630C04
:1029200067E47AE08AE39DE00E94010A6DE77AE0BD
:102930008AE39DE00E94150A8091620C90E00E945B
:10294000760961E87AE08AE39DE00E94150A8091A9
:10295000630C90E00E9476090E9472060E94930820
:1029600065E87AE084EA9EE00E94150A61E080E072
:102970000E943C0966E97AE084EA9EE00E94150A1A
:10298000812C8DE99CE00E949305892B51F1C701B0
:102990000E943A05892CF5CF63E08CE00E943C0947
:1029A0006BE47AE084EA9EE00E94150A63E08CE022
:1029B0000E943C0963E47AE084EA9EE00E94150AE2
:1029C00068EE73E080E090E00E94FA0263E08CE041
:1029D0000E943C096BE47AE084EA9EE00E94150ABA
:1029E00082CF882071F28DE99CE00E949305892BAB
:1029F00041F60E9472060E94930867EA7AE084EA30
:102A00009EE00E94150A68EE73E080E090E00E946C
:102A1000FA020E9493086BEB7AE08AE39DE00E9441
:102A2000010A982C86E49EE00E949F068823F1F01C
:102A3000F8016481758161157105C1F061507109FA
:102A4000C8010E94460A61E080E00E943C096BE4F4
:102A50007AE084EA9EE00E94150A61E080E00E942C
:102A60003C09B80184EA9EE00E94DC04992009F444
:102A70002BCFC801ADCD69E47AE0C8010E94310ACC
:102A80008823B9F31092620C5092630C69E47AE0E7
:102A90008AE39DE00E94010A6DE77AE08AE39DE007
:102AA0000E94150A8091620C90E00E94760961E80C
:102AB0007AE08AE39DE00E94150A8091630C90E021
:102AC0000E947609F1E0CF16D10479F022E0C21617
:102AD000D10491F0C114D10409F0A4CF82E090E0B8
:102AE00090930102809300029DCFE3E0F0E0F09329
:102AF0000102E093000296CFB0920102A092000280
:102B000091CF0E94930860E080E00E943C096DEC48
:102B10007AE084EA9EE00E94150A60E379E0CE0143
:102B200089549F4F0E94610BD12CC090620C809100
:102B3000630C882309F427C2C11056C08091640C2D
:102B40009091650CFC0165E0EE0FFF1F6A95E1F7BF
:102B5000EA5DFA4F20E2D80101900D922A95E1F743
:102B60009F938F932DB73EB7285531090FB6F89430
:102B70003EBF0FBE2DBFADB7BEB7119688E5ECE4E2
:102B8000FEE001900D928A95E1F70E9459078DB7FA
:102B90009EB7865A9F4F0FB6F8949EBF0FBE8DBF4B
:102BA0000E949403882301F18A330CF098C1813389
:102BB0000CF0BDC1833209F4A6C1803309F4B0C161
:102BC000C554DF4F88819981CB5BD04061E00C9781
:102BD00008F0B4C180E00E943C09BE0169547F4FF7
:102BE00084EA9EE00E94DC0489E49EE00E949F0645
:102BF000882309F4EEC1CE0189549F4F0E946309D6
:102C000061EE7AE08AE39DE00E94010A62E080E0E2
:102C10000E943C0961EF7AE084EA9EE00E94150A76
:102C200060E379E0CE018F549F4F0E94610BC0900A
:102C3000620C8091630C882309F44DC2C11056C008
:102C40008091640C9091650CFC0155E0EE0FFF1F24
:102C50005A95E1F7EA5DFA4F20E2D80101900D9212
:102C60002A95E1F79F938F93EDB7FEB7E855F109E9
:102C70000FB6F894FEBF0FBEEDBFADB7BEB711964D
:102C800088E5ECE4FEE001900D928A95E1F70E9460
:102C900059072DB73EB7265A3F4F0FB6F8943EBF9F
:102CA0000FBE2DBF0E949403882301F18A330CF0DC
:102CB000BEC181330CF0E3C1833209F4CCC180334F
:102CC00009F4D6C1CB54DF4F88819981C55BD040D0
:102CD00063E0089708F0DAC180E00E943C09BE0179
:102CE0006F547F4F84EA9EE00E94DC0489E49EE0FA
:102CF0000E949F06882309F41EC2CE018F549F4F65
:102D00000E946309C954DF4F68817981C75BD04055
:102D1000FB0101900020E9F7CF018DB69EB6861B1E
:102D2000970B2DB73EB7281B390B0FB6F8943EBF53
:102D30000FBE2DBF8DB79EB701966C010E9410216A
:102D4000C6010E94170ACF54DF4F68817981C15BA9
:102D5000D040FB0101900020E9F7CF01861B970BC3
:102D60002DB73EB7281B390B0FB6F8943EBF0FBEE8
:102D70002DBF8DB79EB701965C010E941021C50141
:102D80000E94170A65E07BE08AE39DE00E94150A35
:102D9000B6018AE39DE00E94010A66E17BE08AE3D6
:102DA0009DE00E94150AB5018AE39DE00E94010A98
:102DB000B501CE018B559F4F0E94610BB601CE012C
:102DC00085559F4F0E94610BD12CC12C0E948F0C06
:102DD000C816D9060CF0A9C1B601C8010E94A30CFF
:102DE000F701118210821382128215821482BE01B1
:102DF0006B557F4FC7010E94370BC156DF4F1982B9
:102E00001882CF59D040CF55DF4F19821882C15A4E
:102E1000D040CD55DF4F19821882C35AD040BE0131
:102E200065557F4FCE0181569F4F0E94370BC1568B
:102E3000DF4F68817981CF59D040C8010E940721B6
:102E4000892B79F4F70160817181C453DF4F888148
:102E50009981CC5CD0400E940721BB24B394892B7C
:102E600009F0B12CCE0181569F4F0E94A40AC701E0
:102E70000E94A40ABB2009F454C183E2F801D701DF
:102E800001900D928A95E1F7CE0185559F4F0E94E2
:102E9000A40ACE018B559F4F0E94A40AF70180819E
:102EA000811177C10E94930860E080E00E943C0994
:102EB00069E27BE084EA9EE00E94150A61E080E01E
:102EC0000E943C0963E37BE084EA9EE00E94150ACD
:102ED00068EE73E080E090E00E94FA0287C18835D6
:102EE00009F06ECE8091640C9091650C019797FD6E
:102EF00005C09093650C8093640C62CE3092650C93
:102F00002092640C5DCE8091640C9091650C0196CA
:102F10008F31910570F31092650C1092640C50CEB5
:102F2000B801CE0189549F4F0E94D40A49CE682F20
:102F3000CE0189549F4F0E94060B42CE80E00E9432
:102F40003C096BE47AE084EA9EE00E94150A61E0A5
:102F500080E00E943C0963E47AE084EA9EE00E94FB
:102F6000150A68EE73E080E090E00E94FA0261E0EA
:102F700080E00E943C096BE47AE084EA9EE00E94D3
:102F8000150A61E027CECC2009F42ECED1102CCE2C
:102F900066ED7AE08AE39DE00E94010A6AED7AE03C
:102FA000C8010E94920BB801CE0189549F4F0E9424
:102FB000590AC8010E94A40A63E080E00E943C090B
:102FC000BE0169547F4F84EA9EE00E94DC04DC2C41
:102FD0000BCE86E49EE00E949F06882309F4A5CDCF
:102FE000C554DF4F68817981CB5BD0406115710595
:102FF00009F49BCD61507109CE0189549F4F0E9405
:10300000460A61E080E00E943C096BE47AE084EAD1
:103010009EE00E94150A61E080E00E943C09BE012A
:1030200069547F4F84EA9EE00E94DC047ECD88359F
:1030300009F048CE8091640C9091650C019797FD42
:1030400005C09093650C8093640C3CCE3092650C67
:103050002092640C37CE8091640C9091650C01969F
:103060008F31910570F31092650C1092640C2ACE8A
:10307000B801CE018F549F4F0E94D40A23CE682FEF
:10308000CE018F549F4F0E94060B1CCE80E00E9401
:103090003C096BE47AE084EA9EE00E94150A63E052
:1030A00080E00E943C0963E47AE084EA9EE00E94AA
:1030B000150A68EE73E080E090E00E94FA0263E097
:1030C00080E00E943C096BE47AE084EA9EE00E9482
:1030D000150A63E001CECC2009F408CED11006CE4B
:1030E00066ED7AE08AE39DE00E94010A6CEF7AE0E7
:1030F000C8010E94920BB801CE018F549F4F0E94CD
:10310000590AC8010E94A40A63E080E00E943C09B9
:10311000BE016F547F4F84EA9EE00E94DC04DC2CE9
:10312000E5CDFFEFCF1ADF0A51CE83E2F70111920E
:103130008A95E9F7A9CE86E49EE00E949F0688233F
:1031400009F475CDCB54DF4F68817981C55BD040E0
:103150006115710509F46BCD61507109CE018F5471
:103160009F4F0E94460A61E083E00E943C096BE4A5
:103170007AE084EA9EE00E94150A61E083E00E9402
:103180003C09BE016F547F4F84EA9EE00E94DC043C
:103190004ECD0E94930860E080E00E943C096BEBFA
:1031A00079E084EA9EE00E94150A61E080E00E94D6
:1031B0003C09B70184EA9EE00E94150A83E2F70108
:1031C000A6E6BCE001900D928A95E1F7F70182A195
:1031D0008823D1F068EE73E080E090E00E94FA026C
:1031E00084E090E090930102809300020FB6F8947F
:1031F0009EBE0FBE8DBECE018F549F4F0E94A40A6B
:10320000CE0189549F4FE4C968EE73E080E090E0FE
:103210000E94FA0285E090E0E5CF0E94930860E00A
:1032200080E00E943C096FE37BE084EA9EE00E941C
:10323000150A61E080E00E943C096DEC7AE084EAC6
:103240009EE00E94150A60E379E0CE018F549F4F03
:103250000E94610B8091640C9091650CFC0145E02B
:10326000EE0FFF1F4A95E1F7EA5DFA4F20E2D80121
:1032700001900D922A95E1F79F938F932DB73EB75A
:10328000285531090FB6F8943EBF0FBE2DBFADB71C
:10329000BEB7119688E5ECE4FEE001900D928A95A8
:1032A000E1F70E9459078DB79EB7865A9F4F0FB618
:1032B000F8949EBF0FBE8DBF0E949403882301F136
:1032C0008A330CF09EC281330CF0C3C2833209F4FE
:1032D000ACC2803309F4B6C2CB54DF4F88819981E8
:1032E000C55BD04062E00D9708F0BAC280E00E9452
:1032F0003C09BE016F547F4F84EA9EE00E94DC04CB
:1033000089E49EE00E949F06882309F4CEC2CE0184
:103310008F549F4F0E9463090E94930860E080E0F1
:103320000E943C096FE37BE084EA9EE00E94150A5C
:1033300061E080E00E943C096CE47BE084EA9EE06E
:103340000E94150A60E379E0CE0185559F4F0E94E7
:10335000610B8091640C9091650CFC0135E0EE0FDF
:10336000FF1F3A95E1F7EA5DFA4F20E2D80101909C
:103370000D922A95E1F79F938F93EDB7FEB7E8552D
:10338000F1090FB6F894FEBF0FBEEDBFADB7BEB7E3
:10339000119688E5ECE4FEE001900D928A95E1F744
:1033A0000E9459072DB73EB7265A3F4F0FB6F894E3
:1033B0003EBF0FBE2DBF0E949403882301F18A33C4
:1033C0000CF0A1C281330CF0C6C2833209F4AFC243
:1033D000803309F4B9C2C155DF4F88819981CF5A32
:1033E000D04062E0099708F0BDC280E00E943C092D
:1033F000BE0165557F4F84EA9EE00E94DC0489E4AB
:103400009EE00E949F06882309F4D1C2CE01855513
:103410009F4F0E9463090E94930860E080E00E9431
:103420003C096FE37BE084EA9EE00E94150A61E0BC
:1034300080E00E943C0966E57BE084EA9EE00E9411
:10344000150A60E379E0CE018B559F4F0E94610B16
:103450008091640C9091650CFC0125E0EE0FFF1F3C
:103460002A95E1F7EA5DFA4F20E2D80101900D922A
:103470002A95E1F79F938F938DB79EB78855910951
:103480000FB6F8949EBF0FBE8DBFADB7BEB71196F5
:1034900088E5ECE4FEE001900D928A95E1F70E9448
:1034A0005907EDB7FEB7E65AFF4F0FB6F894FEBFC7
:1034B0000FBEEDBF0E949403882301F18A330CF004
:1034C000A4C281330CF0C9C2833209F4B2C2803382
:1034D00009F4BCC2C755DF4F88819981C95AD040D1
:1034E00062E00D9708F0C0C280E00E943C09BE0176
:1034F0006B557F4F84EA9EE00E94DC0489E49EE0E5
:103500000E949F06C753DF4F8883C95CD040882341
:1035100009F4D5C2CE018B559F4F0E9463090E94CA
:10352000930883E2F70111928A95E9F7CF54DF4FB0
:1035300068817981C15BD040FB0101900020E9F7EF
:10354000CF012DB73EB7C653DF4F39832883CA5CFE
:10355000D040861B970BEDB7FEB7E81BF90B0FB6F3
:10356000F894FEBF0FBEEDBF2DB73EB72F5F3F4FA4
:103570006901C9010E941021C6010E94170AC555A0
:10358000DF4F68817981CB5AD040FB010190002048
:10359000E9F7CF01861B970B2DB73EB7281B390BD8
:1035A0000FB6F8943EBF0FBE2DBF8DB79EB70196E4
:1035B0004C010E941021C4010E94170ACB55DF4F15
:1035C00068817981C55AD040FB0101900020E9F75C
:1035D000CF01861B970B2DB73EB7281B390B0FB6B3
:1035E000F8943EBF0FBE2DBF8DB79EB701962C013C
:1035F0000E941021C2010E94170AB601C7010E9451
:103600001021B401C7010C960E941021B201C7011C
:1036100044960E941021B601CE0181569F4F0E9410
:10362000610BB12CA12C0E948F0CA816B9060CF0CE
:1036300044C2B501C8010E94A30CC156DF4F688186
:103640007981CF59D040C8010E940721892B09F008
:1036500030C2C753DF4FB880C95CD040CE0181561D
:103660009F4F0E94A40ABB20E1F00E94930860E0F3
:1036700080E00E943C0964E67BE084EA9EE00E94D0
:10368000150A61E080E00E943C0962E77BE084EA81
:103690009EE00E94150A60ED77E080E090E00E94D5
:1036A000FA02F60101900020E9F7CF018C199D097B
:1036B0000997059758F10E94930860E080E00E9406
:1036C0003C096CE77BE084EA9EE00E94150A61E019
:1036D00080E00E943C0966E87BE084EA9EE00E946C
:1036E000150A62E080E00E943C096CE97BE084EA14
:1036F0009EE00E94150A60ED77E080E090E00E9475
:10370000FA02C753DF4FB880C95CD040F401019082
:103710000020E9F7CF0109978815990509F10E9462
:10372000930860E080E00E943C096FEA7BE084EA55
:103730009EE00E94150A61E080E00E943C096BE86F
:103740007BE084EA9EE00E94150A60ED77E080E06D
:1037500090E00E94FA02C753DF4FB880C95CD040A6
:10376000F20101900020E9F7CF018419950909972A
:10377000059708F4D2C10E94930860E080E00E949F
:103780003C096EEB7BE084EA9EE00E94150A61E052
:1037900080E00E943C0966E87BE084EA9EE00E94AB
:1037A000150A62E080E00E943C096CE97BE084EA53
:1037B0009EE00E94150A60ED77E080E090E00E94B4
:1037C000FA0281E090E09093010280930002C653D8
:1037D000DF4FE881F981CA5CD0400FB6F894FEBF94
:1037E0000FBEEDBFCE018B559F4F0E94A40ACE01A4
:1037F00085559F4F0E94A40ACE018F549F4F0C9471
:10380000E812883509F068CD8091640C9091650CC0
:10381000019797FD05C09093650C8093640C5CCD77
:103820003092650C2092640C57CD8091640C90917D
:10383000650C01968F31910570F31092650C109212
:10384000640C4ACDB801CE018F549F4F0E94D40A18
:1038500043CD682FCE018F549F4F0E94060B3CCD65
:1038600080E00E943C0962E57AE084EA9EE00E94E2
:10387000150A62E080E00E943C0963E47AE084EA91
:103880009EE00E94150A68EE73E080E090E00E94DE
:10389000FA0262E080E00E943C0962E57AE084EA94
:1038A0009EE00E94150A62E021CD86E49EE00E941F
:1038B0009F06882309F4CECCCB54DF4F68817981F1
:1038C000C55BD0406115710509F4C4CC6150710924
:1038D000CE018F549F4F0E94460A62E080E00E9412
:1038E0003C096BE47AE084EA9EE00E94150A62E0FB
:1038F00080E00E943C09BE016F547F4F84EA9EE045
:103900000E94DC04A7CC883509F065CD8091640C59
:103910009091650C019797FD05C09093650C80937D
:10392000640C59CD3092650C2092640C54CD80917A
:10393000640C9091650C01968F31910570F3109293
:10394000650C1092640C47CDB801CE0185559F4F90
:103950000E94D40A40CD682FCE0185559F4F0E940A
:10396000060B39CD80E00E943C0962E57AE084EAEA
:103970009EE00E94150A62E080E00E943C0963E438
:103980007AE084EA9EE00E94150A68EE73E080E027
:1039900090E00E94FA0262E080E00E943C0962E549
:1039A0007AE084EA9EE00E94150A62E01ECD86E479
:1039B0009EE00E949F06882309F4CBCCC155DF4FBF
:1039C00068817981CF5AD0406115710509F4C1CC65
:1039D00061507109CE0185559F4F0E94460A62E0F1
:1039E00080E00E943C096BE47AE084EA9EE00E9459
:1039F000150A62E080E00E943C09BE0165557F4FD8
:103A000084EA9EE00E94DC04A4CC883509F062CDF3
:103A10008091640C9091650C019797FD05C090937F
:103A2000650C8093640C56CD3092650C2092640C2A
:103A300051CD8091640C9091650C01968F31910568
:103A400070F31092650C1092640C44CDB801CE0155
:103A50008B559F4F0E94D40A3DCD682FCE018B55C8
:103A60009F4F0E94060B36CD80E00E943C0962E524
:103A70007AE084EA9EE00E94150A62E080E00E94FB
:103A80003C0963E47AE084EA9EE00E94150A68EE4D
:103A900073E080E090E00E94FA0262E080E00E9421
:103AA0003C0962E57AE084EA9EE00E94150A62E041
:103AB0001BCD9FEFA91AB90AB6CDB12CCFCD86E4A4
:103AC0009EE00E949F06882309F4C2CCC755DF4FB1
:103AD00068817981C95AD0406115710509F4B8CC63
:103AE00061507109CE018B559F4F0E94460A62E0DA
:103AF00080E00E943C096BE47AE084EA9EE00E9448
:103B0000150A62E080E00E943C09BE016B557F4FC0
:103B100084EA9EE00E94DC049BCCB11052CEF701F7
:103B200012A2B601C7010E941021B401C7010C9670
:103B30000E941021B201C70144960E9410216DEC31
:103B40007BE08AE39DE00E94150A0E94930861E0F1
:103B500080E00E943C0962EE7BE084EA9EE00E94E5
:103B6000150A68EE73E080E090E00E94FA022DB73B
:103B70003EB7235231090FB6F8943EBF0FBE2DBF9A
:103B8000ADB7BEB7119683E2F70101900D928A9509
:103B9000E1F70E94E20C8DB79EB783960FB6F894BA
:103BA0009EBF0FBE8DBF65EF7BE08AE39DE00E9464
:103BB000150A0E948F0C0E94760903CE0E9493087A
:103BC00060E080E00E943C096AE07CE084EA9EE0DC
:103BD0000E94150A6CE271E080E090E00E94FA0217
:103BE00061E080E00E943C0965E17CE084EA9EE0BF
:103BF0000E94150A6CE271E080E090E00E94FA02F7
:103C000062E080E00E943C096DE17CE084EA9EE095
:103C10000E94150A6CE271E080E090E00E94FA02D6
:103C200063E080E00E943C096BE37AE084EA9EE076
:103C30000E94150A60E379E0C8010E94610B0E94AE
:103C40009403882399F0F8012481358122303105CD
:103C500018F5682FC8010E94060B63E08CE00E94F3
:103C60003C09B80184EA9EE00E94DC0489E49EE0FD
:103C70000E949F06882309F440C067E47AE0C801E7
:103C80000E94310A882369F187E090E09093010255
:103C9000809300020C94391563E08CE00E943C098B
:103CA0006BE47AE084EA9EE00E94150A63E08CE00F
:103CB0000E943C0963E47AE084EA9EE00E94150ACF
:103CC00068EE73E080E090E00E94FA0263E08CE02E
:103CD0000E943C096BE47AE084EA9EE00E94150AA7
:103CE000BCCF69E47AE0C8010E94310A882311F44C
:103CF0000C94391588E090E0C9CF86E49EE00E94DC
:103D00009F06882309F49BCFF801648175816115B2
:103D1000710509F494CF61507109C8010E94460AE7
:103D200061E080E00E943C096BE47AE084EA9EE076
:103D30000E94150A61E080E00E943C09B80184EA13
:103D40009EE00E94DC047BCF6DE27CE08AE39DE094
:103D50000E94010A66E67CE08AE39DE00E94010A77
:103D60000C9467126FE37CE0F7CF6CE47CE0F4CF57
:103D7000F999FECF92BD81BDF89A992780B5089533
:103D8000262FF999FECF1FBA92BD81BD20BD0FB677
:103D9000F894FA9AF99A0FBE01960895A1E21A2EA4
:103DA000AA1BBB1BFD010DC0AA1FBB1FEE1FFF1FDF
:103DB000A217B307E407F50720F0A21BB30BE40B2F
:103DC000F50B661F771F881F991F1A9469F7609576
:103DD0007095809590959B01AC01BD01CF01089530
:103DE000EE0FFF1F881F8BBF0790F691E02D1994EF
:103DF0000F931F93CF93DF938230910510F482E0ED
:103E000090E0E091BE0EF091BF0E30E020E0B0E017
:103E1000A0E0309799F42115310509F44AC0281B18
:103E2000390B24303105D8F58A819B8161157105E4
:103E300089F1FB0193838283FE0111C0408151818E
:103E40000281138148175907E0F04817590799F480
:103E5000109761F012960C93129713961C9332965A
:103E6000CF01DF91CF911F910F9108950093BE0E66
:103E70001093BF0EF4CF2115310551F042175307AF
:103E800038F0A901DB019A01BD01DF01F801C1CFC2
:103E9000EF01F9CF9093BF0E8093BE0ECDCFFE0100
:103EA000E20FF31F819391932250310939832883C4
:103EB000D7CF2091BC0E3091BD0E232B41F4209121
:103EC0001702309118023093BD0E2093BC0E209142
:103ED0001502309116022115310541F42DB73EB778
:103EE0004091190250911A02241B350BE091BC0E2F
:103EF000F091BD0EE217F307A0F42E1B3F0B28171D
:103F0000390778F0AC014E5F5F4F2417350748F052
:103F10004E0F5F1F5093BD0E4093BC0E8193919343
:103F20009FCFF0E0E0E09CCFCF93DF930097E9F0E4
:103F3000FC01329713821282A091BE0EB091BF0E87
:103F4000ED0130E020E01097A1F420813181820F53
:103F5000931F2091BC0E3091BD0E2817390709F030
:103F600061C0F093BD0EE093BC0EDF91CF91089538
:103F7000EA01CE17DF07E8F54A815B819E01411512
:103F80005105B1F7E901FB83EA8349915991C40FC7
:103F9000D51FEC17FD0761F4808191810296840F93
:103FA000951FE90199838883828193819B838A830A
:103FB000F0E0E0E012968D919C9113970097B9F58F
:103FC0002D913C911197CD010296820F931F209164
:103FD000BC0E3091BD0E2817390739F6309751F5D0
:103FE0001092BF0E1092BE0EB093BD0EA093BC0EE9
:103FF000BCCFD383C28340815181840F951FC817E2
:10400000D90761F44E5F5F4F88819981480F591F2E
:10401000518340838A819B8193838283211531055B
:1040200009F0B0CFF093BF0EE093BE0E9ECFFD011E
:10403000DC01C0CF13821282D7CF4F925F926F9272
:104040007F928F929F92AF92BF92CF92DF92EF9228
:10405000FF920F931F93CF93DF938C01009799F4F6
:10406000CB01DF91CF911F910F91FF90EF90DF90E7
:10407000CF90BF90AF909F908F907F906F905F9008
:104080004F900C94F81EFC01E60FF71F9C01225084
:104090003109E217F30708F4AEC0D901CD91DC91E4
:1040A0001197C617D70720F1C530D10578F0CE019A
:1040B00004978617970750F0C61BD70B2297C1931A
:1040C000D1936D937C93CF010E94941FC801DF911F
:1040D000CF911F910F91FF90EF90DF90CF90BF9005
:1040E000AF909F908F907F906F905F904F900895CA
:1040F0005B01AC1ABD0A4C018C0E9D1EA091BE0E38
:10410000B091BF0E512C412CF12CE12C109731F5C0
:104110008091BC0E9091BD0E8815990509F05CC088
:104120004616570608F058C0809115029091160265
:10413000009741F48DB79EB74091190250911A0231
:10414000841B950BE817F90708F055C0F093BD0ED6
:10415000E093BC0EF90171836083B8CF8D919C917F
:10416000119712966C90129713967C901397A8153E
:10417000B90559F56C0142E0C40ED11CCA14DB0428
:1041800020F1AC014A195B09DA011296159780F00B
:104190006282738251834083D9016D937C93E114D1
:1041A000F10471F0D7011396FC93EE9312978ECF22
:1041B00022968C0F9D1FF90191838083F301EFCF2D
:1041C000F093BF0EE093BE0E81CF4816590608F457
:1041D0002C017D01D3019ACFCB010E94F81E7C01F6
:1041E000009749F0AE01B8010E94FE20C8010E946C
:1041F000941F87016BCF10E000E068CFFB01DC016A
:1042000002C001900D9241505040D8F70895FB0133
:10421000DC018D91019080190110D9F3990B08955B
:10422000FB01DC0101900D920020E1F70895F89464
:10423000FFCF04001E1F201A1B1C1D3132333435E2
:10424000363738395830230000C00E800000010195
:104250000100010000000101010101010100000055
:104260000101000000010101010100010000000145
:104270000101010100010000000101010101000133
:104280000101010101000000000100000000010027
:104290000000000101010101010101010001000014
:1042A0000001010000000101000000010101010105
:1042B00000010101010101000000000101010101F3
:1042C00001000000000101010101010101010101E2
:1042D00000000000010101010101000000000100D7
:1042E00000000000010101010100000000010001C7
:1042F00001010100000001000101010101000000B5
:1043000001010000000101010101010100000001A3
:104310000100000001010101010100000100000095
:104320000001000000000100000101010101010184
:104330000101010000010000000001000000000177
:104340000000010100000001000001000100010067
:104350000001010000000100010000010000010057
:104360000100000000010000000001000000000149
:104370000000000001010101010101000101010033
:104380000100010100000001010000000101000026
:104390000001010000000101010000010100010015
:1043A0000101000001010100000001000001010005
:1043B00001010000010100010001010000010101F3
:1043C00000000001000101010001000000010100E6
:1043D00000000101000000010001010100000101D5
:1043E00001000100000001010101010001000000C5
:1043F00000010000000000010101000100000001B7
:1044000001000000010100010001000101010101A2
:104410000101010001000000010101010100010092
:104420000001000100000001000101010101000084
:104430000000000101010000000000010101010174
:104440000001010101010000010000000001000065
:104450000000010000000001000001000000010157
:104460000000000101000000010100000001000146
:104470000101000100000001010000000101000035
:104480000001000100010000000100000100000027
:104490000101000000010100000001010001000114
:1044A0000101000101010000000100010001000004
:1044B00000010000000100010001000000010100F6
:1044C00000000100010001000000010000000001E7
:1044D00000000000010000010101010100000001D5
:1044E00000000001000000010000000101010101C5
:1044F00001000100010001010100000001000000B5
:1045000001010100010001000100010001000101A1
:104510000101010001000100010101010100010090
:104520000100000101010101000100000001010181
:104530000000000100010101010100000001000074
:104540000000010000000001000000000000000069
:1045500000010000A100FE07610000000000000053
:10456000000000000000000000000000000000004B
:1045700000000000000000006200000000000000D9
:10458000000000000000000000000000000000002B
:1045900000000000000001006300000000000000B7
:1045A000000000000000000000000000000000000B
:1045B0000000000000000200640000000000000095
:1045C00000000000000000000000000000000000EB
:1045D0000000000000000300650000000000000073
:1045E00000000000000000000000000000000000CB
:1045F0000000000000000400660000000000000051
:1046000000000000000000000000000000000000AA
:10461000000000000000050067000000000000002E
:10462000000000000000000000000000000000008A
:10463000000000000000060068000000000000000C
:10464000000000000000000000000000000000006A
:1046500000000000000007006900000000000000EA
:10466000000000000000000000000000000000004A
:1046700000000000000008006A00000000000000C8
:10468000000000000000000000000000000000002A
:1046900000000000000009006B00000000000000A6
:1046A000000000000000000000000000000000000A
:1046B0000000000000000A006C0000000000000084
:1046C00000000000000000000000000000000000EA
:1046D0000000000000000B006D0000000000000062
:1046E00000000000000000000000000000000000CA
:1046F0000000000000000C006E0000000000000040
:1047000000000000000000000000000000000000A9
:104710000000000000000D00C3B100000000000018
:104720000000000000000000000000000000000089
:104730000000000000000E006F00000000000000FC
:104740000000000000000000000000000000000069
:104750000000000000000F007000000000000000DA
:104760000000000000000000000000000000000049
:1047700000000000000010007100000000000000B8
:104780000000000000000000000000000000000029
:104790000000000000001100720000000000000096
:1047A0000000000000000000000000000000000009
:1047B0000000000000001200730000000000000074
:1047C00000000000000000000000000000000000E9
:1047D0000000000000001300740000000000000052
:1047E00000000000000000000000000000000000C9
:1047F0000000000000001400750000000000000030
:1048000000000000000000000000000000000000A8
:10481000000000000000150076000000000000000D
:104820000000000000000000000000000000000088
:1048300000000000000016007700000000000000EB
:104840000000000000000000000000000000000068
:1048500000000000000017007800000000000000C9
:104860000000000000000000000000000000000048
:1048700000000000000018007900000000000000A7
:104880000000000000000000000000000000000028
:1048900000000000000019007A0000000000000085
:1048A0000000000000000000000000000000000008
:1048B0000000000000001A002A00000000000000B4
:1048C00000000000000000000000000000000000E8
:1048D0000000000000001B0023000000000000009A
:1048E00000000000000000000000000000000000C8
:1048F0000000000000001C00240000000000000078
:1049000000000000000000000000000000000000A7
:104910000000000000001D00210000000000000059
:104920000000000000000000000000000000000087
:104930000000000000001E0000000000D505EA0491
:104940001705220693052605850500000000D10203
:1049500091026002000000004E09EA046F06DB04C9
:104960000D0A00456E74726F2061206C6F6F7020AD
:104970006E6F6D627265004C4F47494E00202D20CE
:1049800000456E74726F206120656E20656E7669D9
:1049900061646F20616C676F004461746F206F62A7
:1049A00074656E69646F2064652061707000496E83
:1049B000646578206F7574206F6620626F756E6411
:1049C0007300454550524F4D2046554C4C004545CF
:1049D00050524F4D20524553455445440054616D4B
:1049E000616E696F20454550524F4D200042696508
:1049F0006E76656E69646F00526F626572746F32B5
:104A00003032303030353434004564676172646F61
:104A100032303138303131313900436573617220C1
:104A2000323032303130383136004A6F73652032DF
:104A3000303230303138303000416E67656C2032B2
:104A40003032303132303339004D656E752050725E
:104A5000696E636970616C00312E204C6F67696EFE
:104A600000322E20526567697374726F004F706355
:104A7000696F6E3A004D415800310032002020200D
:104A80002020202020202020202020202000456ED3
:104A900074726164613A00312E2041706C69636107
:104AA00063696F6E00322E204B657950616400415E
:104AB0005050004B657900204573706572616E64DB
:104AC0006F2020756E612000202020636F6E657856
:104AD000696F6E2E2E2E202000436F6E6563746109
:104AE000646F20636F6E20657869746F0046696E2D
:104AF000616C20646520636F6E6563746172004E43
:104B00006F6D6272653A2000417070004E6F6D6289
:104B100072650053616C692064656C206E6F6D6214
:104B200072650050617373776F72643A2000506150
:104B30007373776F7264004E6F6D62726520636984
:104B4000667261646F3A200050617373776F7264AC
:104B5000206369667261646F3A2000496E636F7208
:104B6000726563740043726564656E7469616C7329
:104B7000003D3D526567697374726F3D3D0043654A
:104B80006C756C61723A2000436F6E74726173656C
:104B90006E69613A2000456C207573756172696FAA
:104BA00020796100657869737465203A2800456C46
:104BB000206E6F6D62726500646562652073657258
:104BC00020646520382064696769746F73006D69BB
:104BD0006E696D6F2079203132206D6178696D6F5B
:104BE00000456C206E756D65726F206465626500AE
:104BF0004C6120636F6E74726173656E69610055FC
:104C000073756172696F207265676973747261642C
:104C10006F3A20005573756172696F20726567691C
:104C200073747261646F005573756172696F20529D
:104C300065676973747261646F3A20004D656E75C3
:104C40002041444D494E00312E204C4F47530032F5
:104C50002E20434845434B20535441545553005351
:104C60006F7920756E20636C69656E7465203A29D2
:104C700000566572206C6F73206C6F677300566509
:104C80007220656C2073746174757300393430362A
:024C90003900E9
:020000040003F7
:10E000000D9489F10D94B2F10D94B2F10D94B2F129
:10E010000D94B2F10D94B2F10D94B2F10D94B2F1F0
:10E020000D94B2F10D94B2F10D94B2F10D94B2F1E0
:10E030000D94B2F10D94B2F10D94B2F10D94B2F1D0
:10E040000D94B2F10D94B2F10D94B2F10D94B2F1C0
:10E050000D94B2F10D94B2F10D94B2F10D94B2F1B0
:10E060000D94B2F10D94B2F10D94B2F10D94B2F1A0
:10E070000D94B2F10D94B2F10D94B2F10D94B2F190
:10E080000D94B2F10D94B2F10D94B2F10D94B2F180
:10E090000D94B2F10D94B2F10D94B2F10D94B2F170
:10E0A0000D94B2F10D94B2F10D94B2F10D94B2F160
:10E0B0000D94B2F10D94B2F10D94B2F10D94B2F150
:10E0C0000D94B2F10D94B2F10D94B2F10D94B2F140
:10E0D0000D94B2F10D94B2F10D94B2F10D94B2F130
:10E0E0000D94B2F141546D656761323536300041AF
:10E0F000726475696E6F206578706C6F72657220DE
:10E1000073746B3530305632206279204D4C530099
:10E11000426F6F746C6F616465723E004875683F52
:10E1200000436F6D70696C6564206F6E203D200048
:10E130004350552054797065202020203D20005FF9
:10E140005F4156525F415243485F5F3D2000415658
:10E1500052204C696243205665723D20004743437C
:10E160002056657273696F6E203D20004350552024
:10E1700049442020202020203D20004C6F7720663D
:10E18000757365202020203D20004869676820665F
:10E190007573652020203D200045787420667573D6
:10E1A00065202020203D20004C6F636B2066757336
:10E1B000652020203D20004D617220203720323024
:10E1C000313300312E362E3800342E332E350056A2
:10E1D00023202020414444522020206F7020636F70
:10E1E00064652020202020696E73747275637469E1
:10E1F0006F6E2061646472202020496E74657272B3
:10E20000757074006E6F20766563746F7200726A49
:10E210006D702020006A6D70200057686174207056
:10E220006F72743A00506F7274206E6F7420737541
:10E2300070706F72746564004D7573742062652030
:10E2400061206C6574746572002000577269747483
:10E25000696E672045450052656164696E672045B7
:10E26000450045452065727220636E743D00504F35
:10E27000525400303D5A65726F2061646472003FF1
:10E280003D43505520737461747300403D454550C3
:10E29000524F4D207465737400423D426C696E6B41
:10E2A000204C454400453D44756D70204545505215
:10E2B0004F4D00463D44756D7020464C415348001B
:10E2C000483D48656C70004C3D4C69737420492F83
:10E2D0004F20506F72747300513D51756974005234
:10E2E0003D44756D702052414D00563D73686F7707
:10E2F00020696E7465727275707420566563746FF0
:10E30000727300593D506F727420626C696E6B00BD
:10E310002A0011241FBECFEFD1E2DEBFCDBF01E046
:10E320000CBF12E0A0E0B2E0EEE1FDEF03E00BBFB6
:10E3300002C007900D92A030B107D9F712E0A0E01B
:10E34000B2E001C01D92AE30B107E1F70F9460F367
:10E350000D948DFE01E20EBF0FEF0DBF11241FBE05
:10E360000D9460F30D9400F020E030E040ED57E0B4
:10E3700005C0FA013197F1F72F5F3F4F2817390792
:10E38000C0F308959C01260F311DC901A0E0B0E043
:10E390002F5F3F4FABBFFC018791882361F08093D3
:10E3A000C6008091C00086FFFCCF8091C0008064D1
:10E3B0008093C000EACF08958DE08093C6008091DD
:10E3C000C00086FFFCCF8091C00080648093C000B5
:10E3D0008AE08093C6008091C00086FFFCCF8091C8
:10E3E000C00080648093C00008950F94C2F10F9420
:10E3F000DCF10895FC019081992359F09093C600B7
:10E400008091C00086FFFCCF8091C0008064809323
:10E41000C0003196992379F70895282F982F929567
:10E420009F70892F805D8A3308F0895F8093C600D2
:10E430008091C00086FFFCCF8091C00080648093F3
:10E44000C000822F8F70982F905D9A3308F0995FEB
:10E450009093C6008091C00086FFFCCF8091C000E1
:10E4600080648093C00008959C01FB01853691056E
:10E470001CF46330710594F0C90164E670E00F94F8
:10E480002EFE605D7F4F6093C6008091C00086FFC6
:10E49000FCCF8091C00080648093C0002B30310598
:10E4A00014F43297B4F0C90164E670E00F942EFEC4
:10E4B0006AE070E00F942EFE605D7F4F6093C600AF
:10E4C0008091C00086FFFCCF8091C0008064809363
:10E4D000C000C9016AE070E00F942EFEC0968093E0
:10E4E000C6008091C00086FFFCCF8091C000806490
:10E4F0008093C00008951F93182F8EE692EE60E07F
:10E500000F94C2F11093C6008091C00086FFFCCF2B
:10E510008091C00080648093C0000F94DCF11F9153
:10E5200008952F923F924F925F926F927F928F92B7
:10E530009F92AF92BF92CF92DF92EF92FF920F9392
:10E540001F93DF93CF93CDB7DEB762970FB6F894E2
:10E55000DEBF0FBECDBF382E622ECA01DB015C01CB
:10E560006D01772420E2222E2E010894411C511CBB
:10E570008BC081E0A81680E0B80681E0C80680E084
:10E58000D80628F0C601AA27BB270F940DF2BB2797
:10E59000AD2D9C2D8B2D0F940DF28A2D0F940DF225
:10E5A0002092C6008091C00086FFFCCF8091C00001
:10E5B00080648093C0009DE29093C6008091C0006B
:10E5C00086FFFCCF8091C00080648093C0002092C1
:10E5D000C6008091C00086FFFCCF8091C00080649F
:10E5E0008093C00019828601750188249924A1E0D6
:10E5F0003A1651F03A1620F0B2E03B1661F409C029
:10E600000BBFF701779007C0C7010F9477FE782EF4
:10E6100002C0F7017080872D0F940DF22092C60082
:10E620008091C00086FFFCCF8091C0008064809301
:10E63000C000872D8052F401EF70F0708F3520F408
:10E64000E40DF51D708204C0E40DF51D8EE280839B
:10E650000894E11CF11C011D111D0894811C911CE2
:10E6600090E18916910409F0C2CF80E190E0A0E02A
:10E67000B0E0A80EB91ECA1EDB1E198AC2010F9493
:10E68000FAF10F94DCF16A94662009F072CF629679
:10E690000FB6F894DEBF0FBECDBFCF91DF911F91B3
:10E6A0000F91FF90EF90DF90CF90BF90AF909F9031
:10E6B0008F907F906F905F904F903F902F90089534
:10E6C0002F923F924F925F926F927F928F929F9282
:10E6D000AF92BF92CF92DF92EF92FF920F931F9370
:10E6E000DF93CF93CDB7DEB7CD53D1400FB6F894BB
:10E6F000DEBF0FBECDBF01E20EBF0FEF0DBF94B75F
:10E70000F894A89514BE80916000886180936000A1
:10E7100010926000789493FF05C0E0910002F091A0
:10E7200001021995279A2F9A8091C00082608093E8
:10E73000C00080E18093C40088E18093C1000000A4
:10E74000EE24FF24870144E0A42EB12CCC24DD2448
:10E7500024C0C5010197F1F70894E11CF11C011DCB
:10E76000111D21E2E2162EE4F20620E0020720E06D
:10E77000120718F031E0C32ED12CC801B70127ECE5
:10E780003BE140E050E00F9441FE611571058105C9
:10E79000910519F485B1805885B98091C00087FD35
:10E7A00003C0C114D104A9F2A6014F5F5F4FC25E3E
:10E7B000DE4F59834883CE51D140C25EDE4F8881FF
:10E7C0009981CE51D140019711F00D9410FEC05D9A
:10E7D000DE4F19821882C053D14060E0C15DDE4F28
:10E7E0001882CF52D14088249924C35DDE4F19820C
:10E7F0001882CD52D140C05EDE4F188219821A8233
:10E800001B82C052D140CE5CDE4F188219821A8220
:10E810001B82C253D140EE24FF2487010BBFF701B6
:10E8200007911691C45CDE4F19830883CC53D14005
:10E830000D940BFEC25EDE4F28813981CE51D1404E
:10E840002130310509F52091C600C25EDE4F1982E4
:10E850001882CE51D14022C02F5F3F4F4F4F5F4FA4
:10E86000213082E138078AE7480780E0580780F0C6
:10E87000C45CDE4FE881F981CC53D140EF5FFF4F9C
:10E8800019F0EE27FF27099420E030E040E050E047
:10E890008091C00087FFE0CF2091C600C35DDE4FAE
:10E8A00048815981CD52D1404F5F5F4FC35DDE4FEC
:10E8B00059834883CD52D140213209F063C64A3092
:10E8C000510508F05FC60894811C911C53E0851621
:10E8D000910409F059C600E010E018C081E280936D
:10E8E000C6008091C00086FFFCCF8091C00080648C
:10E8F0008093C0002F5F3F4F2931310579F70F9486
:10E90000DCF10F5F1F4F0530110519F020E030E0FA
:10E91000E5CF10920A0210920B0210920C02109294
:10E920000D02109206021092070210920802109235
:10E930000902109202021092030210920402109235
:10E9400005028FEE90EE60E00F94F5F180E191EE1C
:10E9500060E00F94C2F18091C00087FFFCCF9091DE
:10E96000C600903608F09F759032B8F09093C600BC
:10E970008091C00086FFFCCF8091C00080648093AE
:10E98000C000A0E2A093C6008091C00086FFFCCF2B
:10E990008091C00080648093C000983409F4D7C18E
:10E9A0009934B8F4923409F459C1933458F490333B
:10E9B00019F1903308F4E3C59F33A1F1903409F0C5
:10E9C000DEC5BDC0953409F470C1963409F0D7C5D1
:10E9D00098C1923509F42BC2933538F49C3409F46C
:10E9E000F5C1913509F0CBC518C2963509F445C279
:10E9F000993509F0C4C567C483E792EE62E00F94CD
:10EA0000F5F110920602109207021092080210927D
:10EA1000090210920A0210920B0210920C0210923C
:10EA20000D0213C18FE792EE62E00F94F5F18FEEC5
:10EA300090EE60E00F94F5F181E291EE60E00F94CA
:10EA4000C2F187EB91EE60E00F94F5F180E391EE77
:10EA500060E00F94C2F184EE90EE60E00F94F5F167
:10EA60008FE391EE60E00F94C2F186E090E061E008
:10EA700070E00F9434F20F94DCF18DE591EE60E0DC
:10EA80000F94C2F189EC91EE60E00F94F5F18EE401
:10EA900091EE60E00F94C2F183EC91EE60E00F9490
:10EAA000F5F18CE691EE60E00F94C2F18EE10F94E7
:10EAB0000DF288E90F940DF281E00F940DF20F949E
:10EAC000DCF18BE791EE60E00F94C2F119E0E0E039
:10EAD000F0E010935700E4918E2F0F940DF20F94F5
:10EAE000DCF18AE891EE60E00F94C2F1E3E0F0E03F
:10EAF00010935700E4918E2F0F940DF20F94DCF1D8
:10EB000089E991EE60E00F94C2F1E2E0F0E0109349
:10EB10005700E4918E2F0F940DF20F94DCF188EAE8
:10EB200091EE60E00F94C2F1E1E0F0E01093570045
:10EB30001491812F0F940DF20F94DCF107CF8BE825
:10EB400092EE62E00F94F5F18BE492EE60E00F94A8
:10EB5000F5F10F94DCF100E010E019C0C8016F2D51
:10EB60000F947FFEFF2031F489E492EE60E00F9471
:10EB7000C2F10BC0F092C6008091C00086FFFCCFAE
:10EB80008091C00080648093C0000F5F1F4FC80158
:10EB900081519F41A0E0B0E0ABBFFC01F790BAE229
:10EBA000FB1621F0E2E000301E07C1F60F94DCF105
:10EBB0000F94DCF187E592EE60E00F94F5F10F948D
:10EBC000DCF1CC24DD2400E010E01EC0C8010F946D
:10EBD00077FEF82E882331F489E492EE60E00F94FA
:10EBE000C2F10BC08093C6008091C00086FFFCCFAD
:10EBF0008091C00080648093C000FE1419F00894D6
:10EC0000C11CD11C0F5F1F4FC80181519F41A0E063
:10EC1000B0E0ABBFFC01E790FAE2EF1621F022E092
:10EC20000030120799F60F94DCF10F94DCF182E6C4
:10EC300092EE60E00F94C2F1C60161E070E00F94C3
:10EC400034F20F94DCF10F94DCF110920202109276
:10EC50000302109204021092050278CE89E992EE26
:10EC600062E00F94F5F1279A2F9A16C02F9880E052
:10EC700090E0E0EDF7E03197F1F7019684369105E9
:10EC8000C1F72F9A80E090E0E0EDF7E03197F1F7DF
:10EC9000019684369105C1F78091C00087FFE6CFC9
:10ECA0008091C00087FFFCCF64C485EA92EE62E0E9
:10ECB0000F94F5F140910202509103026091040219
:10ECC0007091050281E020E10F9491F2809102029F
:10ECD00090910302A0910402B091050280509F4FD1
:10ECE000AF4FBF4F8093020290930302A0930402A0
:10ECF000B093050280509041A040B04008F426CE69
:10ED0000A4CF83EB92EE62E00F94F5F140910602FE
:10ED100050910702609108027091090280E020E1A1
:10ED20000F9491F28091060290910702A09108023F
:10ED3000B091090280509F4FAF4FBF4F80930602A2
:10ED400090930702A0930802B0930902FFCD80ECD4
:10ED500092EE62E00F94F5F183E792EE60E00F949B
:10ED6000F5F18FE792EE60E00F94F5F18BE892EE0B
:10ED700060E00F94F5F189E992EE60E00F94F5F10F
:10ED800085EA92EE60E00F94F5F183EB92EE60E09D
:10ED90000F94F5F180EC92EE60E00F94F5F187ECC2
:10EDA00092EE60E00F94F5F188ED92EE60E00F9442
:10EDB000F5F18FED92EE60E00F94F5F18AEE92EEB0
:10EDC00060E00F94F5F183E093EEBDCD87EC92EE19
:10EDD00062E00F94F5F181E40F947BF282E40F94EA
:10EDE0007BF283E40F947BF284E40F947BF285E45E
:10EDF0000F947BF286E40F947BF287E40F947BF20E
:10EE000088E40F947BF28AE40F947BF28BE40F94F6
:10EE10007BF28CE40F947BF299CD88ED92EE62E068
:10EE20000F94F5F1772473948824992409C48FED05
:10EE300092EE62E00F94F5F140910A0250910B02BC
