:100000000C945C010C948D010C948D010C948D0169
:100010000C948D010C948D010C948D010C948D0128
:100020000C948D010C948D010C948D010C948D0118
:100030000C948D010C948D010C948D010C948D0108
:100040000C948D010C948D010C948D010C948D01F8
:100050000C948D010C948D010C948D010C94831CD7
:100060000C948D010C94571D0C942D1D0C948D0136
:100070000C948D010C948D010C948D010C948D01C8
:100080000C948D010C948D010C948D010C948D01B8
:100090000C94F71C0C94CD1C0C948D010C948D01C8
:1000A0000C948D010C948D010C948D010C948D0198
:1000B0000C948D010C948D010C948D010C948D0188
:1000C0000C948D010C948D010C948D010C948D0178
:1000D0000C948D010C948D010C948D010C948D0168
:1000E0000C948D010C94F7010C942D290C940C02A6
:1000F0000C9420050C94A0230C9438020C942A0232
:100100000C94D1290C9409020C94D12E0C9457090B
:100110000C9412020C943C020C94D0270C94012BEA
:100120000C94A52F0C948E050C94FD010C943702B1
:100130000C9420020C949C050C9424020C942E0226
:100140000C9432020C948D1D0C943B230C94A92D1D
:100150000C9452250C94BF260C949A020C94050220
:100160000C9401020C9469020C9416020C94F30492
:100170000C942F050C94BA260C94DE050C94E40420
:100180000C941C020C9478060C94C2260C94DA028F
:100190000C942B0600002100240027002A002D00CB
:1001A0003000330001010000040107010A010000D2
:1001B0002200250028002B002E003100340002010F
:1001C0000000050108010B010000200023002600AB
:1001D00029002C002F00320000010000030106015D
:1001E00009010505050507050808080802020202BD
:1001F0000A0A0808040404040101010101010101C3
:100200000303030303030303040707070C0C0C0C8D
:100210000C0C0C0C02020202060606060606060676
:100220000B0B0B0B0B0B0B0B010210202008081003
:100230002040102040800201020108040201010256
:10024000040810204080804020100804020180042F
:10025000020180402010080402010804020101028A
:100260000408102040800102040810204080000093
:100270000A0B02090C0D0E08070304010000000020
:10028000000000000000000000000000000000006E
:10029000000000000000000000001211100000002B
:1002A000000000000000000000000000000000004E
:1002B000000000008D1DA52F11241FBECFEFD1E23D
:1002C000DEBFCDBF00E00CBF22E1AAEFBFE001C05E
:1002D0001D92A236B207E1F71FE0A0E0B2E0EEE91E
:1002E000F4E600E00BBF02C007900D92AA3FB107F1
:1002F000D9F711E0CBE5D1E000E006C02197010974
:10030000802FFE010E941630CA35D10780E0080711
:10031000A9F70E94121F0C943D320C940000FC01BE
:10032000A089B18982E08C93A485B5851C92A685AD
:10033000B7858FEC8C93108EA489B58986E08C9359
:10034000A289B3898C9180618C93A289B3898C91A5
:1003500088608C93A289B3898C9180688C93028881
:10036000F389E02D80818F7D8083089596E0899FB9
:10037000D0011124AD58BE4E90967C936E935F973A
:1003800091E091969C939197E091E011F091E111A9
:100390009091DF11992339F0309751F0811108C005
:1003A00080918F111994309719F05C968C91FACF47
:1003B00008958150823108F05AC0E82FF0E0882774
:1003C000EB51FE4F8F4F0C94163005020902F701D6
:1003D000FD01010237020C02120216021C02200269
:1003E00024022A022E023702320238023C02809195
:1003F00080008F77809380000895809180008F7DAA
:10040000F9CF80918000877FF5CF84B58F7784BD49
:10041000089584B58F7DFBCF8091B0008F77809356
:10042000B00008958091B0008F7DF9CF8091900049
:100430008F77809390000895809190008F7DF9CF01
:1004400080919000877FF5CF8091A0008F77809377
:10045000A00008958091A0008F7DF9CF8091A00029
:10046000877FF5CF809120018F77809320010895B9
:10047000809120018F7DF9CF80912001877FF5CF7A
:10048000CF93DF93282F30E0F901E259FD4F84919B
:10049000F901E85DFD4FD491F901EE51FE4FC49191
:1004A000CC23A1F081110E94D901EC2FF0E0EE0FD6
:1004B000FF1FE853FE4FA591B491EC91ED2381E02D
:1004C00090E009F480E0DF91CF91089580E090E022
:1004D000FACF862F0C9440021F93CF93DF93282FDF
:1004E00030E0F901E259FD4F8491F901E85DFD4FDB
:1004F000D491F901EE51FE4FC491CC23A9F0162FEF
:1005000081110E94D901EC2FF0E0EE0FFF1FE255A0
:10051000FE4FA591B4918FB7F894EC91111108C0DA
:10052000D095DE23DC938FBFDF91CF911F9108958B
:10053000DE2BF8CF862F642F0C946C02CF93DF93C1
:1005400090E0FC01E85DFD4F24918E519E4FFC012F
:1005500084918823C9F090E0880F991FFC01EC5624
:10056000FE4FA591B491FC01E255FE4FC591D49187
:1005700061110DC09FB7F8948C91209582238C93C4
:100580008881282328839FBFDF91CF91089562300F
:1005900051F49FB7F8943C91822F809583238C93DC
:1005A000E8812E2BEFCF8FB7F894EC912E2B2C9364
:1005B0008FBFEACF862F642F0C949E023FB7F8942A
:1005C00080912A1090912B10A0912C10B0912D1099
:1005D00026B5A89B05C02F3F19F00196A11DB11D9E
:1005E0003FBFBA2FA92F982F8827BC01CD01620FDA
:1005F000711D811D911D42E0660F771F881F991F95
:100600004A95D1F708958F929F92AF92BF92CF9261
:10061000DF92EF92FF924B015C010E94DE026B01C0
:100620007C010E94DE026C197D098E099F09683EDB
:10063000734081059105A8F321E0821A9108A10871
:10064000B10888EEC80E83E0D81EE11CF11C8114AD
:100650009104A104B10429F7FF90EF90DF90CF90AF
:10066000BF90AF909F908F9008952FB7F8946091AE
:1006700026107091271080912810909129102FBF7B
:1006800008950F931F93CF93DF93C82FD62F86E043
:10069000C89FF0011124ED58FE4E11A2878D90A144
:1006A00081309105F1F058F082309105F1F1039716
:1006B00009F440C0DF91CF911F910F9108956623F7
:1006C000C9F361E070E08C2F0E94B6010E943503EF
:1006D0006093CB117093CC118093CD119093CE1178
:1006E000E9CF0E9435030091CB111091CC112091DC
:1006F000CD113091CE11AB01BC01401B510B620BEF
:10070000730B8091DD119091DE11B0E0A0E08417B1
:100710009507A607B70748F462E070E08C2FDF91D9
:10072000CF911F910F910C94B60163E070E0D1114D
:10073000C1CFF4CF70E060E0F1CF6F927F928F92E3
:100740009F92AF92BF92CF92DF92EF92FF920F9360
:100750001F93CF93DF9381E08093DF110E943503D5
:100760000091CF111091D0112091D1113091D2115F
:10077000AB01BC01401B510B620B730B8091DB1171
:100780009091DC11B0E0A0E084179507A607B707A9
:1007900008F014C1C0E08091D911C81760F4E0914D
:1007A000D511F091D611EC0FF11D62E080810E940D
:1007B0009E02CF5FF0CF712C812C912C5401839439
:1007C0008091DA11781608F05FC0072D10E0E091F3
:1007D000D711F091D811E00FF11F61E080810E94E4
:1007E0009E02E091D711F091D811E00FF11F60E067
:1007F00080810E946C02D501C401072C04C0880FBF
:10080000991FAA1FBB1F0A94D2F76C017C01E094C8
:10081000F094612C8091D9116816F8F4C62DD0E0BF
:10082000E091D511F091D611EC0FFD1F80810E944F
:1008300040022496CC0FDD1FCD58DE4E892B41F4AB
:10084000888199818C299D29998388836394E2CF3B
:10085000888199818E219F21F7CFE091D711F09166
:10086000D811E00FF11F61E080810E946C0280913D
:10087000D7119091D811080F191F60E0F8018081FD
:100880000E949E0273949CCFC3E7D1E1FE018FEFDB
:100890009FEF278D30A1232B21F4148E968F858F07
:1008A00011A2369621E1EF3AF20799F7F12C96E082
:1008B000D92E8091D911F81608F050C0E12C0F2DD7
:1008C00010E0000F111F05581E4E2091DA11E2169C
:1008D00008F042C0F801608171810E2C02C076954B
:1008E00067950A94E2F7F29E900111242E0D311DB6
:1008F000E3E7F1E180E0458D568D2417350709F4D3
:1009000061C08F5F36968A30B1F760FF23C0E3E79E
:10091000F1E190E080E0448D411117C0E091D311E6
:10092000F091D411E20FF31F4081D89EF001D99EBF
:10093000F00D1124ED58FE4E448F368F258F10A2F6
:10094000178E61E00E94410305C0019636968A30F9
:10095000910509F7E394B9CFF394ABCF10E089A1E7
:100960008111182F2696F1E1CF3ADF07C1F70E94D7
:1009700035036093CF117093D0118093D111909370
:10098000D2111123D9F0809194118823B9F080916C
:10099000921190919311019789F480918F11DF91B9
:1009A000CF911F910F91FF90EF90DF90CF90BF906C
:1009B000AF909F908F907F906F9008951092DF116D
:1009C00080E0EDCF6170BECF0895DB0114964D91AC
:1009D0005C9115976D917C91DC01ED91FC91028009
:1009E000F381E02D1994AF92BF92CF92DF92EF92F4
:1009F000FF920F931F93CF93DF936C017B018B01C9
:100A0000040F151FEB015E01AE18BF08C017D10718
:100A100059F06991D601ED91FC910190F081E02DA2
:100A2000C6011995892B79F7C501DF91CF911F91E7
:100A30000F91FF90EF90DF90CF90BF90AF9008950F
:100A4000FC01538D448D252F30E0842F90E0821BD4
:100A5000930B541710F0CF96089501970895FC0159
:100A6000918D828D981761F0A28DAE0FBF2FB11DB1
:100A70005D968C91928D9F5F9F73928F90E0089509
:100A80008FEF9FEF0895CF92DF92EF92FF920F9337
:100A90001F93CF93DF938C01D0E0C0E00E94350319
:100AA00060934110709342108093431090934410D0
:100AB00089E390E10E942F0597FF28C00E9435032B
:100AC000C0904110D0904210E0904310F09044103C
:100AD0006C197D098E099F09C0903D10D0903E1081
:100AE000E0903F10F09040106C157D058E059F053D
:100AF000F8F2CE01DF91CF911F910F91FF90EF900F
:100B0000DF90CF900895C2E0D0E0F3CFF801819359
:100B10008F012197C1F3C1E0D0E0C0CFFC01918DDE
:100B2000828D981731F0828DE80FF11D858D90E050
:100B300008958FEF9FEF0895FC01918D228D892FED
:100B400090E0805C9F4F821B91098F7399270895D5
:100B500089E390E10E949C0521E0892B09F420E0C3
:100B6000822F089586ED90E10E949C0521E0892B5B
:100B700009F420E0822F0895FC01A48DA80FB92F5D
:100B8000B11DA35ABF4F2C91848D90E001968F73B5
:100B90009927848FA689B7892C93A089B1898C91D4
:100BA000837080648C93938D848D981306C0028823
:100BB000F389E02D80818F7D80830895EF92FF92ED
:100BC0000F931F93CF93DF93EC0181E0888F9B8D70
:100BD0008C8D98131AC0E889F989808185FF15C02A
:100BE0009FB7F894EE89FF896083E889F98980814D
:100BF0008370806480839FBF81E090E0DF91CF911C
:100C00001F910F91FF90EF900895F62E0B8D10E03D
:100C10000F5F1F4F0F731127E02E8C8D8E110CC0AC
:100C20000FB607FCFACFE889F989808185FFF5CFF7
:100C3000CE010E94BC05F1CFEB8DEC0FFD2FF11D15
:100C4000E35AFF4FF0829FB7F8940B8FEA89FB8934
:100C500080818062CFCFCF93DF93EC01888D882392
:100C6000B9F0AA89BB89E889F9898C9185FD03C00F
:100C7000808186FD0DC00FB607FCF7CF8C9185FFF4
:100C8000F2CF808185FFEDCFCE010E94BC05E9CF78
:100C9000DF91CF91089580E090E0892B29F00E94A8
:100CA000B20581110E94000080E090E0892B29F0BC
:100CB0000E94A80581110E94000080E090E0892B2D
:100CC00049F080E090E0892B29F00E94000081111A
:100CD0000E94000080E090E0892B49F080E090E0E5
:100CE000892B29F00E94000081110C9400000895C6
:100CF00090E080E00895CF92DF92EF92FF92CF9341
:100D0000DF930E943503EB010E9435030E943503F7
:100D10006B0189E390E10E949C05892B29F089E30E
:100D200090E10E942F05F5CFCC1ADD0A88EEC81697
:100D300083E0D8065CF389E390E10E949C05892B4F
:100D400029F7DF91CF91FF90EF90DF90CF9008953A
:100D5000CF93DF93EC018A8181110AC088810E94C0
:100D60004002019729F481E08A83DF91CF910895B1
:100D70008A81811102C080E0F8CF88810E94400200
:100D8000892BC9F71A82F7CF4F925F926F927F92A9
:100D90008F929F92AF92BF92CF92DF92EF92FF928B
:100DA0000F931F93CF93DF931F921F92CDB7DEB7A0
:100DB0008C0149832A83660F771FF801EA5AFF4F97
:100DC000E080F180EE0CFF1CF801CF01801B910B3D
:100DD0008E159F0514F41192F8CF8981F801E60F62
:100DE000F71F81838A818083680184E5C80ED11C46
:100DF00060E0F60180810E946C025801F2E5AF0EBE
:100E0000B11C480180E5880E911C1E141F040CF5CE
:100E1000E1E0EE1AF108F801EE0DFF1D6080F5012A
:100E20005080F401408088E0782E662D661F66278A
:100E3000661F842D0E946C02660C61E0852D0E9465
:100E40006C0260E0852D0E946C027A947110EDCFE7
:100E5000DCCF61E0F60180810F900F90DF91CF91A0
:100E60001F910F91FF90EF90DF90CF90BF90AF90C8
:100E70009F908F907F906F905F904F900C946C023A
:100E8000EF92FF920F931F93CF937C018C0183E02D
:100E9000000F111F8A95E1F702501E4EC1E0F801C4
:100EA00011928F0120E04C2FB7018EEE91E10E944C
:100EB000C406CF5FC93099F7CF911F910F91FF9072
:100EC000EF9008959F92AF92BF92CF92DF92EF92F0
:100ED000FF920F931F93CF93DF93CDB7DEB7C0542C
:100EE000D1090FB6F894DEBF0FBECDBFC955DF4F95
:100EF00028813981C75AD040FE01319680E4DF0154
:100F00001D928A95E9F749E1429FC001439F900DE8
:100F10001124875E9D4F8F01BE01675D7F4FAF013A
:100F200030E020E0FA01E20FF31FDC01A20FB31F53
:100F3000AC91A18B2F5F3F4F2530310599F7059676
:100F4000485F5F4F4617570759F7FE01E15BFF4FB8
:100F50007F019924939480E8A82EB12CD12CC12C28
:100F6000CB55DF4F88819981C55AD0401816190694
:100F7000FCF4C5010C2C02C0959587950A94E2F704
:100F8000D70150962C915097F801EC0DFD1D308142
:100F9000332389F1822B50968C93D70150962C9154
:100FA000492D70E060E0CE01815B9F4F0E94C40636
:100FB000BFEFCB1ADB0AE8E0CE16D10489F6FFEFCB
:100FC000EF1AFF0A9394085F1F4F89E09812C6CF6B
:100FD000C05CDF4F0FB6F894DEBF0FBECDBFDF9110
:100FE000CF911F910F91FF90EF90DF90CF90BF9026
:100FF000AF909F90089580958223F701808BCDCF8D
:10100000CF93DF93EC0160E08E810E946C0261E07F
:101010008E810E946C0260E08E810E946C028BE8DF
:1010200091E00197F1F7DF91CF910895CF92DF9290
:10103000EF92FF920F931F93CF93DF936C017C018C
:1010400087E0E80EF11CD0E0C0E0062F10E0B80108
:101050000C2E02C0759567950A94E2F76170F7014E
:1010600081917F010E946C022196C430D10579F7ED
:10107000C601DF91CF911F910F91FF90EF90DF900C
:10108000CF900C940008CF92DF92EF92FF920F93D3
:101090001F93CF93DF93EC01F62E642F8C810E9477
:1010A0006C028D818F3F19F060E00E946C020F2D61
:1010B00010E08F8584FF25C06E0187E0C80ED11C2B
:1010C000F12CE12CB8010E2C02C0759567950A949D
:1010D000E2F76170F60181916F010E946C02FFEFEF
:1010E000EF1AFF0A88E0E816F10461F7CE01DF91FC
:1010F000CF911F910F91FF90EF90DF90CF900C94C4
:101100000008B80184E0759567958A95E1F7CE01EE
:101110000E9416086F2DCE01DF91CF911F910F9184
:10112000FF90EF90DF90CF900C94160840E0682F6E
:1011300086E492E10C94430881E00E9496088BE3D8
:101140009FE10197F1F70895CF93DF93813029F064
:101150009091551298609093551280935912109265
:101160005A1280E480935B1280E180935C1280E5E8
:1011700080935D1261E080914A120E949E028091EC
:101180004B128F3F19F061E00E949E0261E0809156
:101190004C120E949E02C6E4D2E19E0126543241C6
:1011A0008091551284FD0BC084E090E021962817B1
:1011B000390744F461E08E810E949E02EECF88E000
:1011C00090E0F4CF8BE39DE00197F1F760E0809130
:1011D0004A120E946C0260E080914C120E946C02E4
:1011E00080914B128F3F19F060E00E946C02809159
:1011F000551284FD34C063E086E492E10E94160833
:10120000CBE4D6E4CE010197F1F763E086E492E106
:101210000E9416082197F1F763E086E492E10E94AC
:10122000160883E592E00197F1F762E086E492E127
:101230000E9416088091551280620E94960884E0F0
:10124000809356128CE00E9496080E949C0882E0CF
:101250008093571286E0DF91CF910C9496088062BC
:101260000E9496088BE496E40197F1F7809155125D
:1012700080620E94960883E592E00197F1F78091E1
:10128000551280620E949608D5CF643008F063E062
:1012900090915912691710F06FEF690FE62FF0E087
:1012A000EA5BFD4E9489890F80680C94960841E0B2
:1012B0000E94430881E090E00895FC01248135817B
:1012C000232B39F421E0FB018081882349F020E0C1
:1012D00007C0808191810E942D3221E0892BB9F7CE
:1012E000822F0895FB0101900020E9F73197AF01AB
:1012F000461B570BDC01ED91FC910280F381E02D40
:101300001994CF93DF93BC0186ED90E10E94E50430
:10131000EC016EE279E086ED90E10E9472098C0F9B
:101320009D1FDF91CF9108958F929F92AF92BF92B0
:10133000EF92FF920F931F93CF93DF93CDB7DEB75A
:10134000A1970FB6F894DEBF0FBECDBF7C01FA01A6
:10135000CB0119A2223008F42AE08E010F5D1F4F45
:10136000822E912CB12CA12CBF01A50194010E94C9
:10137000F42FF901CA016A300CF5605DD8016E9353
:101380008D01232B242B252B79F790E080E01097FB
:1013900021F0BD01C7010E947209A1960FB6F89411
:1013A000DEBF0FBECDBFDF91CF911F910F91FF9098
:1013B000EF90BF90AF909F908F900895695CDECFC3
:1013C000CF92DF92EF92FF920F931F93CF93DF9311
:1013D000EC016A017B01E881F9810190F081E02D47
:1013E0006DE219958C0144275527BA014C195D0906
:1013F0006E097F092AE0CE010E949409800F911F97
:10140000DF91CF911F910F91FF90EF90DF90CF90E0
:101410000895CF93DF93AC01990F660B770B77FF9D
:1014200010C086ED90E10E94E009EC016EE279E0E7
:1014300086ED90E10E9472098C0F9D1FDF91CF9184
:1014400008952AE086ED90E10E949409EECFAB0169
:10145000770F660B770B77FD0C94E0092AE00C946C
:1014600094090F931F93CF93DF93EC010E947209AD
:101470008C016EE279E0CE010E947209800F911F0B
:10148000DF91CF911F910F9108950C947209CF9322
:10149000DF93FC0101900020E9F73197E81BF90B7D
:1014A000DC0138E0AD01481B590B4E175F0734F4DF
:1014B0002D91ED01219723272883F4CFDF91CF9140
:1014C0000895DC0114968D919C9115976817790702
:1014D00050F4ED91FC911197E60FF71F15967C9350
:1014E0006E931497108208950F931F93CF93DF93F9
:1014F0008C01EB01FC01808191810097E1F0688112
:10150000798161157105A9F0428153812C813D815A
:101510004217530770F00E9436328C819D81F8018A
:10152000958384831D821C82DF91CF911F910F913F
:1015300008950E94BA3088819981F801918380834F
:101540008A819B81938382838C819D81958384830F
:10155000198218821B821A82E5CFFC018081918159
:10156000009711F00C94BA3008950F931F93CF9306
:10157000DF93EC0188819981009759F02A813B81A2
:101580002617370730F081E0DF91CF911F910F913F
:1015900008958B016F5F7F4F0E944331009759F090
:1015A000998388831B830A832C813D81232B59F7E0
:1015B000FC011082E8CF80E0E7CFEF92FF920F931B
:1015C0001F93CF93DF93FB0101900020E9F7319740
:1015D000E61BF70BE1F07B018C01DC011496CD9149
:1015E000DC91CE0FDF1FBE010E94B50A882381F077
:1015F000F8012081318184819581B701820F931F89
:101600000E943632D8011596DC93CE93149781E070
:10161000DF91CF911F910F91FF90EF900895EF927E
:10162000FF920F931F93CF93DF931F921F92CDB71B
:10163000DEB78C0169831A82FC01E480F580FFEF3C
:10164000EF1AFF0AB7010E94B50A882381F0F8015A
:101650002081318184819581BE016F5F7F4F820F30
:10166000931F0E943632F801F582E48281E00F90E8
:101670000F90DF91CF911F910F91FF90EF90089500
:10168000EF92FF920F931F93CF93DF93EC017B01B7
:101690008A01BA010E94B50A28813981811114C0DA
:1016A0002115310519F0C9010E94BA30198218823A
:1016B0001D821C821B821A82CE01DF91CF911F9165
:1016C0000F91FF90EF9008951D830C83B701C9011E
:1016D0000E943632F1CFFB0101900020E9F73197EB
:1016E000AF01461B570B0C94400B0F931F93CF93E6
:1016F000DF93CDB7DEB762970FB6F894DEBF0FBEAB
:10170000CDBF8C01CB01F8011182108213821282AD
:10171000158214824AE0BE016F5F7F4F0E94A92F9D
:10172000BE016F5F7F4FC8010E946B0B62960FB6C0
:10173000F894DEBF0FBECDBFDF91CF911F910F9107
:101740000895FB01DC0111961C921E9213961C92C7
:101750001E92129715961C921E9214978617970741
:1017600049F0608171816115710521F044815581D5
:101770000C94400B0895FC01118210821382128296
:1017800015821482FB0101900020E9F73197AF0127
:10179000461B570B0C94400B7F928F929F92AF92F7
:1017A000BF92CF92DF92EF92FF920F931F93CF934E
:1017B000DF9300D0CDB7DEB77C016B0161E379E048
:1017C00086ED90E10E94310A0E947B06B60189E312
:1017D00090E10E94310A712C89E390E10E949C05FE
:1017E000892B39F0CE0101960E944305772473942A
:1017F000F3CF772089F389E390E10E949C058C0167
:10180000892B51F7EEE2F0E18BE0DF011D928A9522
:10181000E9F70E949C0865E479E086E492E10E9481
:10182000450A61E080E00E9445096BE479E086E4C6
:1018300092E10E94450AB60186E492E10E94450ABF
:1018400060E07DE086E492E10E94450A60E379E091
:1018500086E492E10E94310A62E080E00E9445093C
:101860000E9435034B015C010E9435030E947B06F8
:10187000D12C89E390E10E949C05892BD9F089E362
:1018800090E10E942F056801BFEFCB1ADB0AF80137
:10189000E25DFF4E80836EE270E186ED90E10E9492
:1018A000310A6FE479E086ED90E10E94310A860109
:1018B000D72CDFCFD11007C00E9435034B015C014C
:1018C0000E943503D6CF0E943503681979098A0929
:1018D0009B09643F7140810591055CF261E379E009
:1018E00086ED90E10E94310A67E679E086ED90E1AD
:1018F0000E94450A6EE270E1C7010E94BB0BC7015E
:101900000F900F900F90DF91CF911F910F91FF904B
:10191000EF90DF90CF90BF90AF909F908F907F908F
:1019200008950F931F93CF93DF938C01EB010E94D7
:10193000DE2F8883C80101960E94DE2F8983CE01A5
:10194000DF91CF911F910F910895CF93DF931F9255
:101950001F92CDB7DEB7BE016F5F7F4F8DE990E07C
:101960000E94910C89819A810F900F90DF91CF9105
:101970000895CF93DF931F921F92CDB7DEB7BE01BC
:101980006F5F7F4F8DE597E00E94910C89819A816E
:101990000F900F90DF91CF910895AF92BF92CF92A9
:1019A000DF92EF92FF920F931F93CF93DF931F92DB
:1019B0001F92CDB7DEB78C016B0177FF19C06CE7C2
:1019C00079E086ED90E10E94310A83E1F8011192FD
:1019D0008A95E9F7C8010F900F90DF91CF911F9181
:1019E0000F91FF90EF90DF90CF90BF90AF90089550
:1019F000BE016F5F7F4F90E080E00E94910C898173
:101A00009A81C816D906DCF683E18C9D70018D9D04
:101A1000F00C11245801F3E1AF0EB11C6801E01A7B
:101A2000F10AC70104967C01C7018C0D9D1D0E941F
:101A3000DE2FF60181936F01EA15FB05A9F7CACFE6
:101A4000CF92DF92EF92FF920F931F93CF93DF938A
:101A5000EC017B0177FF15C06CE779E086ED90E142
:101A60000E94310A83E2FE0111928A95E9F7CE01C4
:101A7000DF91CF911F910F91FF90EF90DF90CF906A
:101A800008950E94A50CE816F90634F783E28E9DAE
:101A900080018F9D100D11247E01F3E2EF0EF11CE9
:101AA0006E010C1B1D0B0F551F4FC8018C0D9D1D8A
:101AB0000E94DE2FF60181936F01EE15FF05A9F755
:101AC000D6CF8F929F92AF92BF92DF92EF92FF920A
:101AD0000F931F93CF93DF93CDB7DEB7AF970FB6BA
:101AE000F894DEBF0FBECDBF7C015B014A0110E060
:101AF00000E00E94A50C081719070CF04AC0B801B5
:101B0000CE0101960E94200DB401CE018A960E945A
:101B1000A10BB501CE0184960E94A10B6CA17DA101
:101B2000CE0101960E942D32892B51F46AA57BA526
:101B3000CE0145960E942D32DD24D394892B09F0E5
:101B4000D12CCE0184960E94AD0ACE018A960E94C5
:101B5000AD0ADD20D9F083E2FE013196D701019074
:101B60000D928A95E1F7C701AF960FB6F894DEBFE4
:101B70000FBECDBFDF91CF911F910F91FF90EF90DE
:101B8000DF90BF90AF909F908F9008950F5F1F4F91
:101B9000B0CF83E2F70111928A95E9F7E4CFCF92B3
:101BA000DF92EF92FF920F931F93CF93DF93EC019D
:101BB0007B0177FF15C06CE779E086ED90E10E942C
:101BC000310A81E1FE0111928A95E9F7CE01DF9198
:101BD000CF911F910F91FF90EF90DF90CF900895DC
:101BE0000E94B90CE816F90634F781E18E9D800158
:101BF0008F9D100D11247E01F1E1EF0EF11C6E019D
:101C00000C1B1D0B0F59184FC8018C0D9D1D0E94F8
:101C1000DE2FF60181936F01EE15FF05A9F7D6CFF0
:101C20000F931F93CF93DF93CDB7DEB761970FB6B6
:101C3000F894DEBF0FBECDBF10E000E00E94B90CEB
:101C4000081719074CF5B801CE0101960E94CF0D77
:101C500060E979E086ED90E10E94450A89819A81E8
:101C60000E94090A67E979E086ED90E10E94450A41
:101C70008B8190E00E94090A60EA79E086ED90E1AC
:101C80000E94450ABE016C5F7F4F86ED90E10E9485
:101C9000310A0F5F1F4FD2CF61960FB6F894DEBFA7
:101CA0000FBECDBFDF91CF911F910F910895FF928D
:101CB0000F931F93CF93DF93EC01F62E08811981C8
:101CC000C8010E94DE2FF81621F06F2DC8010E9476
:101CD000E62FCE01DF91CF911F910F91FF900895D4
:101CE000AF92BF92CF92DF92EF92FF920F931F932A
:101CF000CF93DF931F921F92CDB7DEB78B016B019D
:101D000023E2C20ED11C7B015C01A61AB70AC501F1
:101D10008E0D9F1D9A838983F70161917F01CE010A
:101D200001960E94570EEC14FD0489F7C8010F902C
:101D30000F90DF91CF911F910F91FF90EF90DF9067
:101D4000CF90BF90AF900895EF92FF920F931F93A3
:101D5000CF93DF931F921F92CDB7DEB78C017B012B
:101D60009A838983FB016081CE0101960E94570E00
:101D70000F5F1F4F1A830983F7016181CE0101961E
:101D80000E94570EC7010F900F90DF91CF911F91C6
:101D90000F91FF90EF900895CF93DF9300D01F92A3
:101DA000CDB7DEB70E94A50C8F3F2FE092076CF0F5
:101DB0006FEA79E086ED90E10E94310A0F900F9072
:101DC0000F900F90DF91CF91089501969A838983A8
:101DD000BE016F5F7F4F8DE990E00E94A40EBE01AF
:101DE0006D5F7F4F8FE990E00E94910C8B819C8109
:101DF0009BA78AA7BE016D5F7F4F8FE990E00E948D
:101E0000910CBE01665F7F4F8B819C810E94700E9A
:101E10008AA59BA583969C838B83BE016D5F7F4FB4
:101E20008FE990E00E94A40EC9CF2F923F924F926B
:101E30005F926F927F929F92AF92BF92CF92DF920A
:101E4000EF92FF920F931F93CF93DF93CDB7DEB73F
:101E5000C056D1090FB6F894DEBF0FBECDBF2DB767
:101E60003EB7A1963FAF2EAFA1970E949C0860E0BD
:101E700080E00E9445096BEB79E086E492E10E94E4
:101E8000450A61E080E00E94450968EC79E086E45B
:101E900092E10E94450A60E379E0CE018D5A9F4F9E
:101EA0000E94BB0B0EE110E08091191090911A1066
:101EB000FC0145E0EE0FFF1F4A95E1F7EA5DFA4F9E
:101EC00020E2DE01119601900D922A95E1F79F9391
:101ED0008F938DB79EB7885591090FB6F8949EBF22
:101EE0000FBE8DBFADB7BEB7119688E5EEEEF1E13E
:101EF00001900D928A95E1F70E946207EDB7FEB757
:101F0000E65AFF4F0FB6F894FEBF0FBEEDBF0E941A
:101F10009D038823F1F08A330CF0A1C281330CF0C9
:101F2000C8C2833209F4AFC2803309F4B9C26996DA
:101F30008EAD9FAD699762E00D9708F0C1C280E059
:101F40000E944509BE016D5A7F4F86E492E10E94CE
:101F5000E50485EE91E10E94A806882309F4D5C224
:101F6000CE018D5A9F4F0E9481090E949C0860E01B
:101F700080E00E9445096BEB79E086E492E10E94E3
:101F8000450A61E080E00E94450965ED79E086E45C
:101F900092E10E94450A60E379E0CE01875A9F4FA3
:101FA0000E94BB0B0EE110E08091191090911A1065
:101FB000FC0135E0EE0FFF1F3A95E1F7EA5DFA4FBD
:101FC00020E2DE01119601900D922A95E1F79F9390
:101FD0008F932DB73EB7285531090FB6F8943EBF01
:101FE0000FBE2DBFADB7BEB7119688E5EEEEF1E19D
:101FF00001900D928A95E1F70E9462078DB79EB716
:10200000865A9F4F0FB6F8949EBF0FBE8DBF0E9499
:102010009D038823F1F08A330CF0A3C281330CF0C6
:10202000CAC2833209F4B1C2803309F4BBC26F96CD
:102030008EAD9FAD6F9762E0099708F0C3C280E054
:102040000E944509BE01675A7F4F86E492E10E94D3
:10205000E50485EE91E10E94A806882309F4D7C221
:10206000CE01875A9F4F0E9481090E949C0860E020
:1020700080E00E9445096BEB79E086E492E10E94E2
:10208000450A61E080E00E94450960EF79E086E45E
:1020900092E10E94450A60E379E0CE01895B9F4F9F
:1020A0000E94BB0B0EE110E08091191090911A1064
:1020B000FC0125E0EE0FFF1F2A95E1F7EA5DFA4FDC
:1020C00020E2DE01119601900D922A95E1F79F938F
:1020D0008F93EDB7FEB7E855F1090FB6F894FEBF40
:1020E0000FBEEDBFADB7BEB7119688E5EEEEF1E1DC
:1020F00001900D928A95E1F70E9462072DB73EB7D5
:10210000265A3F4F0FB6F8943EBF0FBE2DBF0E9418
:102110009D038823F1F08A330CF0A5C281330CF0C3
:10212000CCC2833209F4B3C2803309F4BDC22D9608
:102130008EAD9FAD2D9762E00D9708F0C5C280E08F
:102140000E944509BE01695B7F4F86E492E10E94CF
:10215000E50485EE91E10E94A806982E882309F4F3
:10216000DEC2CE01895B9F4F0E9481090E949C08BC
:102170002E0134E2430E511C83E2F20111928A9542
:10218000E9F765966EAD7FAD6597FB010190002084
:10219000E9F7CF012DB63EB6861B970B2DB73EB79C
:1021A000281B390B0FB6F8943EBF0FBE2DBF0DB7DD
:1021B0001EB70F5F1F4FC8010E943632C8010E9430
:1021C000470A6B966EAD7FAD6B97FB0101900020C7
:1021D000E9F7CF01861B970B2DB73EB7281B390BAC
:1021E0000FB6F8943EBF0FBE2DBF8DB79EB70196B8
:1021F0006C010E943632C6010E94470A29966EADD4
:102200007FAD2997FB0101900020E9F7CF01861BE4
:10221000970B2DB73EB7281B390B0FB6F8943EBF6E
:102220000FBE2DBF8DB79EB701967C010E9436323E
:10223000C7010E94470AB801C2010E943632B601A6
:10224000CE01C0960E943632B701CE01C8960E94D8
:1022500036323E019DE4690E711CB801C3010E9433
:10226000BB0BB12CA12C0E94A50CA816B9060CF032
:1022700054C2B501CE0101960E94200D2F966EAD7D
:102280007FAD2F97CE0101960E942D32892B09F048
:1022900040C2B92CC3010E94AD0ABB20E1F00E94EC
:1022A0009C0860E080E00E9445096EEF79E086E4DA
:1022B00092E10E94450A61E080E00E9445096CE0DD
:1022C0007AE086E492E10E94450A60ED77E080E0E2
:1022D00090E00E940303F80101900020E9F7CF018C
:1022E000801B910B0997059738F10E949C0860E0CC
:1022F00080E00E94450966E17AE086E492E10E946E
:10230000450A61E080E00E94450960E27AE086E4E7
:1023100092E10E94450A62E080E00E94450966E37E
:102320007AE086E492E10E94450A60ED77E080E081
:1023300090E00E940303B92CF60101900020E9F718
:10234000CF0109978C159D05E9F00E949C0860E07B
:1023500080E00E94450969E47AE086E492E10E9407
:10236000450A61E080E00E94450965E27AE086E482
:1023700092E10E94450A60ED77E080E090E00E94E3
:102380000303B92CF70101900020E9F7CF018E1962
:102390009F090997059708F4EEC10E949C0860E028
:1023A00080E00E94450968E57AE086E492E10E94B7
:1023B000450A61E080E00E94450960E27AE086E437
:1023C00092E10E94450A62E080E00E94450966E3CE
:1023D0007AE086E492E10E94450A60ED77E080E0D1
:1023E00090E00E94030381E090E09093241080939A
:1023F00023100FB6F8943EBE0FBE2DBECE01895BF2
:102400009F4F0E94AD0ACE01875A9F4F0E94AD0A8E
:10241000CE018D5A9F4F0E94AD0AA196EEADFFAD41
:10242000A1970FB6F894FEBF0FBEEDBFC05ADF4FA5
:102430000FB6F894DEBF0FBECDBFDF91CF911F91D5
:102440000F91FF90EF90DF90CF90BF90AF909F9053
:102450007F906F905F904F903F902F9008958835B8
:1024600009F065CD8091191090911A10019797FD90
:1024700005C090931A108093191059CD10931A101B
:102480000093191054CD8091191090911A10019653
:102490008F31910570F310921A101092191047CDD8
:1024A000BE016F5F7F4FCE018D5A9F4F0E94DD0AA4
:1024B0003ECD682FCE018D5A9F4F0E940F0B37CD16
:1024C00080E00E94450966EE79E086E492E10E9490
:1024D000450A62E080E00E94450961ED79E086E40A
:1024E00092E10E94450A68EE73E080E090E00E946D
:1024F000030362E080E00E94450966EE79E086E42D
:1025000092E10E94450A62E01ACD82EE91E10E94BA
:10251000A806882309F4C8CC69966EAD7FAD69978B
:102520006115710509F4C0CC61507109CE018D5A55
:102530009F4F0E94610A62E080E00E9445096FEDB2
:1025400079E086E492E10E94450A62E080E00E9420
:102550004509BE016D5A7F4F86E492E10E94E50471
:10256000A3CC883509F063CD8091191090911A1091
:10257000019797FD05C090931A108093191057CDBD
:1025800010931A100093191052CD80911910909148
:102590001A1001968F31910570F310921A10109253
:1025A000191045CDBE016F5F7F4FCE01875A9F4FF7
:1025B0000E94DD0A3CCD682FCE01875A9F4F0E94B2
:1025C0000F0B35CD80E00E94450966EE79E086E488
:1025D00092E10E94450A62E080E00E94450961EDB7
:1025E00079E086E492E10E94450A68EE73E080E0BB
:1025F00090E00E94030362E080E00E94450966EEDD
:1026000079E086E492E10E94450A62E018CD82EE0C
:1026100091E10E94A806882309F4C6CC6F966EAD9E
:102620007FAD6F976115710509F4BECC61507109DA
:10263000CE01875A9F4F0E94610A62E080E00E94AB
:1026400045096FED79E086E492E10E94450A62E077
:1026500080E00E944509BE01675A7F4F86E492E1FF
:102660000E94E504A1CC883509F061CD8091191054
:1026700090911A10019797FD05C090931A108093BE
:10268000191055CD10931A100093191050CD809148
:10269000191090911A1001968F31910570F31092D4
:1026A0001A101092191043CDBE016F5F7F4FCE01FB
:1026B000895B9F4F0E94DD0A3ACD682FCE01895B6E
:1026C0009F4F0E940F0B33CD80E00E94450966EEBC
:1026D00079E086E492E10E94450A62E080E00E948F
:1026E000450961ED79E086E492E10E94450A68EED1
:1026F00073E080E090E00E94030362E080E00E94CB
:10270000450966EE79E086E492E10E94450A62E0BE
:1027100016CDEFEFAE1ABE0AA6CDB12CBBCD82EE20
:1027200091E10E94A806882309F4BECC2D966EADD7
:102730007FAD2D976115710509F4B6CC6150710913
:10274000CE01895B9F4F0E94610A62E080E00E9497
:1027500045096FED79E086E492E10E94450A62E066
:1027600080E00E944509BE01695B7F4F86E492E1EB
:102770000E94E50499CCB11036CE27961FAE27975C
:10278000B801C2010E943632B601CE01C0960E9445
:102790003632B701CE01C8960E94363267E67AE03B
:1027A00086ED90E10E94450A0E949C0861E080E06D
:1027B0000E9445096CE77AE086E492E10E94450AAE
:1027C00068EE73E080E090E00E9403032DB73EB70F
:1027D000235231090FB6F8943EBF0FBE2DBFADB7DF
:1027E000BEB7119683E2F20101900D928A95E1F74E
:1027F0000E94CC0E8DB79EB783960FB6F8949EBFFD
:102800000FBE8DBF6FE87AE086ED90E10E94450A29
:102810000E94A50C0E94090AE6CDAF92BF92CF920A
:10282000DF92EF92FF920F931F93CF93DF931F924C
:102830001F92CDB7DEB78B016B0121E1C20ED11C17
:102840007B015C01A61AB70AC5018E0D9F1D9A83F4
:102850008983F70161917F01CE0101960E94570E95
:10286000EC14FD0489F7C8010F900F90DF91CF9110
:102870001F910F91FF90EF90DF90CF90BF90AF909E
:1028800008958F929F92BF92CF92DF92EF92FF9224
:102890000F931F93CF93DF93CDB7DEB761970FB63A
:1028A000F894DEBF0FBECDBF6C01B62E4A010E9468
:1028B000B90C7C0110E000E00E151F0574F5B8019D
:1028C000CE0101960E94CF0D89819A818C159D05BC
:1028D00009F5BB82F40160817181CE0104960E94EA
:1028E0003632BE016F5F7F4F888999890E940D142F
:1028F00061960FB6F894DEBF0FBECDBFDF91CF91CA
:102900001F910F91FF90EF90DF90CF90BF909F901D
:102910008F9008950F5F1F4FCFCF64EA7AE086ED66
:1029200090E10E94310AE4CF8F929F92AF92BF92C2
:10293000CF92DF92EF92FF920F931F93CF93DF938B
:10294000CDB7DEB765970FB6F894DEBF0FBECDBF2B
:102950008D829E82AF82B886C986DA86EB86FC8637
:102960000D871E872F87388B498B5A8B6B8B7C8BFF
:102970008D8B0E94B90C89309105CCF060EC7AE027
:1029800086ED90E10E94310A65960FB6F894DEBF9D
:102990000FBECDBFDF91CF911F910F91FF90EF90B0
:1029A000DF90CF90BF90AF909F908F900895019649
:1029B0009A838983BE016F5F7F4F8DE597E00E9408
:1029C000A40EBE016D5F7F4F8FE597E00E94910CD2
:1029D0008B819C819D8B8C8BBE016D5F7F4F8FE5C2
:1029E00097E00E94910CBE016B5F7F4F8B819C81B1
:1029F0000E940D148C899D8941969C838B83BE0116
:102A00006D5F7F4F8FE597E00E94A40EBDCFAF9220
:102A1000BF92CF92DF92EF92FF920F931F93CF93CB
:102A2000DF9300D01F92CDB7DEB7BE016F5F7F4F3F
:102A300090E080E00E94910C89819A818336910513
:102A4000ACF06FEA79E086ED90E10E94310A0F90D8
:102A50000F900F900F90DF91CF911F910F91FF90EA
:102A6000EF90DF90CF90BF90AF90089501969A833A
:102A70008983BE016F5F7F4F90E080E00E94A40ECB
:102A8000BE016D5F7F4F82E090E00E94910C0B8150
:102A90001C811CA30BA3BE016D5F7F4F82E090E001
:102AA0000E94910CCB80DC805E0185E2A80EB11CF7
:102AB000FE0172967F01CE1ADF0AC6018E0D9F1DA0
:102AC0009C838B83F70161917F01CE0103960E9465
:102AD000570EEA14FB0489F70D5E1F4F1C830B830E
:102AE000BE016D5F7F4F82E090E00E94A40EAFCFE9
:102AF0008F929F92AF92BF92CF92DF92EF92FF920E
:102B00000F931F93CF93DF93CDB7DEB7C654D10990
:102B10000FB6F894DEBF0FBECDBF8EAA9FAAA8AE97
:102B2000B9AECAAEDBAEECAEFDAE0EAF1FAF2196B6
:102B30002FAF219722963FAF229723964FAF23972F
:102B400024965FAF249725966FAF259726967FAF83
:102B5000269727968FAF27970DB71EB70E949C0820
:102B600062E080E00E94450961EE7AE086E492E14D
:102B70000E94450A60E379E0CE01C0960E94BB0B3B
:102B80003EE1E32EF12C80911C10882309F457C0FC
:102B900080911B10811153C08091191090911A10CF
:102BA000FC0125E0EE0FFF1F2A95E1F7EA5DFA4FE1
:102BB00020E2DE01119601900D922A95E1F79F9394
:102BC0008F932DB73EB7285531090FB6F8943EBF05
:102BD0000FBE2DBFADB7BEB7119688E5EEEEF1E1A1
:102BE00001900D928A95E1F70E9462078DB79EB71A
:102BF000865A9F4F0FB6F8949EBF0FBE8DBF0E949E
:102C00009D038823E1F08A330CF0EAC081330CF095
:102C100010C1833209F4F8C0803309F402C18CA9D1
:102C20009DA963E0089708F00AC180E00E94450969
:102C3000BE01605D7F4F86E492E10E94E50485EE6F
:102C400091E10E94A806882309F41EC1CE01C09616
:102C50000E94810968A979A9DB010D900020E9F79C
:102C6000CD01CDB6DEB6861B970BEDB7FEB7E81BE0
:102C7000F90B0FB6F894FEBF0FBEEDBF2DB73EB7F0
:102C80002F5F3F4F7901C9010E943632C7010E9470
:102C9000470AB701CE018A960E94BB0B68EE71E12C
:102CA000CE0184960E94A10BAE01465D5F4FBE012E
:102CB0006C5D7F4FCE0101960E94610DCE0184961E
:102CC0000E94AD0ACE018A960E94AD0A89818823AE
:102CD00009F403C160E379E0CE0184960E94BB0B46
:102CE000AE014C5D5F4F60E08EA99FA90E94411428
:102CF000CE0184960E94AD0A0E94100EE8E0F0E139
:102D000081E1DF011D928A95E9F78091041090918D
:102D100005109C012F5F3F4F309305102093041046
:102D200090930710809306106CEE7AE0CF010E941A
:102D30003632EDB7FEB773970FB6F894FEBF0FBEED
:102D4000EDBFADB7BEB7119683E1E6E0F0E10190CB
:102D50000D928A95E1F70E9407150E949C0860E099
:102D600080E00E94450966EF7AE086E492E10E94E5
:102D7000450A60ED77E080E090E00E94030385E083
:102D800090E090932410809323102DB73EB72D5ED2
:102D90003F4F0FB6F8943EBF0FBE2DBF0FB6F8944D
:102DA000DEBE0FBECDBECE01C0960E94AD0A0FB6EC
:102DB000F8941EBF0FBE0DBFCA5BDF4F0FB6F8946D
:102DC000DEBF0FBECDBFDF91CF911F910F91FF905E
:102DD000EF90DF90CF90BF90AF909F908F9008952D
:102DE000883509F01CCF8091191090911A10019725
:102DF00097FD05C090931A108093191010CFF09290
:102E00001A10E09219100BCF8091191090911A109E
:102E100001968F31910570F310921A1010921910CB
:102E2000FECEBE016F5F7F4FCE01C0960E94DD0ACD
:102E3000F6CE682FCE01C0960E940F0BF0CE80E038
:102E40000E9445096FED79E086E492E10E94450A0F
:102E500063E080E00E94450961ED79E086E492E15B
:102E60000E94450A68EE73E080E090E00E94030350
:102E700063E080E00E9445096FED79E086E492E12D
:102E80000E94450A63E0D1CE82EE91E10E94A8063D
:102E9000882309F478CE6CA97DA96115710509F420
:102EA00072CE61507109CE01C0960E94610A61E044
:102EB00083E00E9445096FED79E086E492E10E948B
:102EC000450A61E083E00E944509BE01605D7F4FD5
:102ED00086E492E10E94E50456CE80910210909122
:102EE00003100196909303108093021002970CF048
:102EF0004EC065E07BE086ED90E10E94310A0E94C1
:102F00009C0860E080E00E9445096AE37BE086E47B
:102F100092E10E94450A61E080E00E94450964E474
:102F20007BE086E492E10E94450AE8E0F0E181E17D
:102F3000DF011D928A95E9F78091041090910510A8
:102F40009C012F5F3F4F3093051020930410909306
:102F500007108093061060E57BE0CF010E943632B7
:102F6000EDB7FEB773970FB6F894FEBF0FBEEDBF77
:102F7000ADB7BEB7119683E1E6E0F0E101900D92A6
:102F80008A95E1F70E9407158AE090E0FACE6EE597
:102F90007BE086ED90E10E94310A0E949C0860E08F
:102FA00080E00E9445096AE37BE086E492E10E94AA
:102FB000450A61E080E00E94450964E47BE086E424
:102FC00092E10E94450AE8E0F0E181E1DF011D9213
:102FD0008A95E9F780910410909105109C012F5F6C
:102FE0003F4F309305102093041090930710809367
:102FF000061060E57BE0CF010E943632EDB7FEB7E8
:1030000073970FB6F894FEBF0FBEEDBFADB7BEB756
:10301000119683E1E6E0F0E101900D928A95E1F7E7
:103020000E94071560E177E280E090E00E940303D0
:1030300060EA7BE086ED90E10E94310A1092031075
:103040001092021081E090E09CCEAF92BF92CF929E
:10305000DF92EF92FF920F931F93CF93DF93CDB741
:10306000DEB7EB970FB6F894DEBF0FBECDBFEDB65F
:10307000FEB60E949C0860E080E00E94450968EC72
:1030800079E086E492E10E94450A60E379E0CE01AE
:10309000C0960E94BB0B10E05EE1C52ED12C0091C2
:1030A0001B1080911C10882309F4D3C1011153C057
:1030B0008091191090911A10FC0145E0EE0FFF1F4E
:1030C0004A95E1F7EA5DFA4F20E2DE0111960190A0
:1030D0000D922A95E1F79F938F932DB73EB7285510
:1030E00031090FB6F8943EBF0FBE2DBFADB7BEB7C6
:1030F000119688E5EEEEF1E101900D928A95E1F7E7
:103100000E9462078DB79EB7865A9F4F0FB6F894FC
:103110009EBF0FBE8DBF0E949D038823E1F08A33BE
:103120000CF043C181330CF069C1833209F451C101
:10313000803309F45BC18CA99DA961E00C9708F06C
:1031400063C180E00E944509BE01605D7F4F86E457
:1031500092E10E94E50485EE91E10E94A806882391
:1031600009F4A0C1CE01C0960E94810968ED7BE000
:1031700086ED90E10E94310A62E080E00E944509FC
:1031800061EE7AE086E492E10E94450A60E379E02C
:10319000CE01C6960E94BB0B3EE1C32ED12C0091FE
:1031A0001B1080911C10882309F4F9C1011151C032
:1031B0008091191090911A10FC0125E0EE0FFF1F6D
:1031C0002A95E1F7EA5DFA4F20E2DE0111960190BF
:1031D0000D922A95E1F79F938F93ADB7BEB7A8558F
:1031E000B1090FB6F894BEBF0FBEADBF119688E50A
:1031F000EEEEF1E101900D928A95E1F70E946207EF
:10320000EDB7FEB7E65AFF4F0FB6F894FEBF0FBEFC
:10321000EDBF0E949D038823E1F08A330CF06BC15F
:1032200081330CF091C1833209F479C1803309F400
:1032300083C18AAD9BAD63E0089708F08BC180E045
:103240000E944509BE016A5C7F4F86E492E10E94BC
:10325000E50485EE91E10E94A806882309F4C8C11F
:10326000CE01C6960E94810968A979A9DB010D905B
:103270000020E9F7CD01CDB6DEB6861B970BEDB782
:10328000FEB7E81BF90B0FB6F894FEBF0FBEEDBFFB
:103290002DB73EB72F5F3F4F5901C9010E9436320B
:1032A000C5010E94470A6EA97FA9DB010D9000208D
:1032B000E9F7CD01861B970BEDB7FEB7E81BF90BBD
:1032C0000FB6F894FEBF0FBEEDBF0DB71EB70F5F70
:1032D0001F4FC8010E943632C8010E94470A61EFA1
:1032E0007BE086ED90E10E94450AB50186ED90E114
:1032F0000E94310A62E07CE086ED90E10E94450A7E
:10330000B80186ED90E10E94310AB801CE018A969B
:103310000E94BB0BB501CE0184960E94BB0BAE018F
:10332000465D5F4FBE016C5D7F4F8E010F5F1F4F8B
:10333000C8010E94610DCE0184960E94AD0ACE01A3
:103340008A960E94AD0AB50188EE91E10E946B0B4E
:103350008981882309F417C20E949C0860E080E0FC
:103360000E94450965E17CE086E492E10E94450AFD
:1033700061E080E00E944509F80101900020E9F732
:103380003197AF01401B510BD80198E09D01201BE4
:10339000310B241735070CF054C18D919D0121503C
:1033A00031098927F9018083F1CF883509F0C3CE2F
:1033B0008091191090911A10019797FD05C0909374
:1033C0001A1080931910B7CED0921A10C09219100B
:1033D000B2CE8091191090911A1001968F319105FB
:1033E00070F310921A1010921910A5CEBE016F5FE3
:1033F0007F4FCE01C0960E94DD0A9DCE682FCE0180
:10340000C0960E940F0B97CE80E00E9445096FED99
:1034100079E086E492E10E94450A61E080E00E9442
:10342000450961ED79E086E492E10E94450A68EE83
:1034300073E080E090E00E94030361E080E00E947E
:1034400045096FED79E086E492E10E94450A61E06A
:1034500078CE002309F47FCE11117DCE6DEC7BE098
:1034600086ED90E10E94310A61ED7BE0CE0101968C
:103470000E94CC0BBE016F5F7F4FCE01C0960E94B1
:10348000740ACE0101960E94AD0A63E080E00E94BA
:103490004509BE01605D7F4F86E492E10E94E5042C
:1034A000102F59CE82EE91E10E94A806882309F4DC
:1034B000F6CD6CA97DA96115710509F4F0CD6150B7
:1034C0007109CE01C0960E94610A61E080E00E940D
:1034D00045096FED79E086E492E10E94450A61E0DA
:1034E00080E00E944509BE01605D7F4F86E492E165
:1034F0000E94E504D4CD883509F09BCE8091191047
:1035000090911A10019797FD05C090931A1080931F
:1035100019108FCED0921A10C09219108ACE8091B5
:10352000191090911A1001968F31910570F3109235
:103530001A10109219107DCEBE016F5F7F4FCE0121
:10354000C6960E94DD0A75CE682FCE01C6960E94EF
:103550000F0B6FCE80E00E9445096FED79E086E4A5
:1035600092E10E94450A63E080E00E94450961ED16
:1035700079E086E492E10E94450A68EE73E080E01B
:1035800090E00E94030363E080E00E9445096FED34
:1035900079E086E492E10E94450A63E050CE002380
:1035A00009F457CE111155CE6DEC7BE086ED90E11C
:1035B0000E94310A68EE7BE0CE0101960E94CC0B9E
:1035C000BE016F5F7F4FCE01C6960E94740ACE0186
:1035D00001960E94AD0A63E080E00E944509BE01A9
:1035E0006A5C7F4F86E492E10E94E504102F31CEA1
:1035F00082EE91E10E94A806882309F4D0CD6AAD3D
:103600007BAD6115710509F4CACD61507109CE0118
:10361000C6960E94610A61E083E00E9445096FED51
:1036200079E086E492E10E94450A61E083E00E942D
:103630004509BE016A5C7F4F86E492E10E94E50481
:10364000AECDB80186E492E10E94450A2BA180919B
:10365000041090910510E8E0F0E1222309F461C024
:1036600021E1DF011D922A95E9F79C012F5F3F4F71
:103670003093051020930410909307108093061048
:1036800060E27CE0CF010E943632EDB7FEB773975F
:103690000FB6F894FEBF0FBEEDBFADB7BEB7119623
:1036A00083E1E6E0F0E101900D928A95E1F70E9456
:1036B000071568EE73E080E090E00E94030384E069
:1036C00090E090932410809323102DB73EB72D5E89
:1036D0003F4F0FB6F8943EBF0FBE2DBF0FB6F89404
:1036E000DEBE0FBECDBECE01C6960E94AD0ACE0193
:1036F000C0960E94AD0A0FB6F894FEBE0FBEEDBE96
:10370000EB960FB6F894DEBF0FBECDBFDF91CF9121
:103710001F910F91FF90EF90DF90CF90BF90AF90EF
:10372000089521E1DF011D922A95E9F79C012F5FA1
:103730003F4F30930510209304109093071080930F
:1037400006106CE27CE0CF010E943632EDB7FEB786
:1037500073970FB6F894FEBF0FBEEDBFADB7BEB7FF
:10376000119683E1E6E0F0E101900D928A95E1F790
:103770000E94071568EE73E080E090E00E9403036A
:1037800085E090E09ECF8091FA0F9091FB0F181684
:1037900019060CF05AC00E949C086AE37BE086E49C
:1037A00092E10E94450A61E080E00E94450964E4DC
:1037B0007BE086E492E10E94450AE8E0F0E181E1E5
:1037C000DF011D928A95E9F7809104109091051010
:1037D0009C012F5F3F4F309305102093041090936E
:1037E00007108093061069E37CE0CF010E94363217
:1037F000EDB7FEB773970FB6F894FEBF0FBEEDBFDF
:10380000ADB7BEB7119683E1E6E0F0E101900D920D
:103810008A95E1F70E94071560E177E280E090E089
:103820000E9403031092FB0F1092FA0F81E090E0C8
:1038300090932410809323102DB73EB72D5E3F4FF9
:103840000FB6F8943EBF0FBE2DBF0E949C0860E0EB
:1038500080E00E9445096AE37BE086E492E10E94F1
:10386000450A61E080E00E94450964E47BE086E46B
:1038700092E10E94450AE8E0F0E181E1DF011D925A
:103880008A95E9F780910410909105109C012F5FB3
:103890003F4F3093051020930410909307108093AE
:1038A000061069E37CE0CF010E943632EDB7FEB727
:1038B00073970FB6F894FEBF0FBEEDBFADB7BEB79E
:1038C000119683E1E6E0F0E101900D928A95E1F72F
:1038D0000E9407158091001090910110019690931D
:1038E0000110809300108091FA0F9091FB0F0196C8
:1038F0009093FB0F8093FA0F68EE73E080E090E006
:103900000E940303E2CE1F920F920FB60F92112472
:103910002F933F938F939F93AF93BF9380912610E4
:1039200090912710A0912810B09129103091251066
:1039300023E0230F2D3758F50196A11DB11D2093CB
:1039400025108093261090932710A0932810B093F1
:10395000291080912A1090912B10A0912C10B091D9
:103960002D100196A11DB11D80932A1090932B104C
:10397000A0932C10B0932D10BF91AF919F918F9178
:103980003F912F910F900FBE0F901F90189526E832
:10399000230F0296A11DB11DD2CF1F920F920FB619
:1039A0000F9211240BB60F922F933F934F935F9377
:1039B0006F937F938F939F93AF93BF93EF93FF93F7
:1039C00089E390E10E94BC05FF91EF91BF91AF9117
:1039D0009F918F917F916F915F914F913F912F9127
:1039E0000F900BBE0F900FBE0F901F9018951F9257
:1039F0000F920FB60F9211240BB60F922F938F9345
:103A00009F93EF93FF93E0914910F0914A108081CA
:103A1000E0914F10F091501082FD1DC09081809177
:103A200052108F5F8F7320915310821741F0E091F5
:103A30005210F0E0E75CFF4E958F80935210FF919B
:103A4000EF919F918F912F910F900BBE0F900FBE12
:103A50000F901F9018958081F2CF1F920F920FB692
:103A60000F9211240BB60F922F933F934F935F93B6
:103A70006F937F938F939F93AF93BF93EF93FF9336
:103A800086ED90E10E94BC05FF91EF91BF91AF914F
:103A90009F918F917F916F915F914F913F912F9166
:103AA0000F900BBE0F900FBE0F901F9018951F9296
:103AB0000F920FB60F9211240BB60F922F938F9384
:103AC0009F93EF93FF93E091E610F091E7108081D0
:103AD000E091EC10F091ED1082FD1DC0908180917D
:103AE000EF108F5F8F732091F010821741F0E091FB
:103AF000EF10F0E0EA52FF4E958F8093EF10FF91A8
:103B0000EF919F918F912F910F900BBE0F900FBE51
:103B10000F901F9018958081F2CFCF93DF93109272
:103B20003C1010923B1048EE53E060E070E0409390
:103B30003D1050933E1060933F10709340108AE008
:103B400099E090933A10809339102DEC30E0309347
:103B50004610209345102CEC30E030934810209311
:103B6000471028EC30E030934A102093491029EC9C
:103B700030E030934C1020934B102AEC30E030931F
:103B80004E1020934D102EEC30E0309350102093C7
:103B90004F10109252101092531010925410109215
:103BA00055101092D9101092D8104093DA105093FB
:103BB000DB106093DC107093DD109093D71080932E
:103BC000D61085EC90E09093E3108093E21084ECA3
:103BD00090E09093E5108093E41080EC90E0909357
:103BE000E7108093E61081EC90E09093E9108093C9
:103BF000E81082EC90E09093EB108093EA1086EC52
:103C000090E09093ED108093EC101092EF101092D2
:103C1000F0101092F1101092F210109249121092BE
:103C2000481286E299E090934712809346128CE006
:103C300080934A128FEF80934B128BE080934C124B
:103C400085E080934D1284E080934E1283E0809350
:103C50004F1282E080935012109251121092521221
:103C600010925312109254121092551281E00E9439
:103C7000A408CAE0D0E0D0933F12C0933E1288E07F
:103C800090E0909341128093401289E090E09093ED
:103C900043128093421281E090E09093451280930A
:103CA000441261E08AE00E949E0261E0809140122D
:103CB0000E949E0261E0809142120E949E0261E099
:103CC000809142120E946C02D0933F12C0933E1228
:103CD000EEEFF1E1119282E1EE33F807D9F7D0E08F
:103CE000C0E08091441290914512C817D907B4F5ED
:103CF00020E04FE0BE018EEE91E10E94C40680916B
:103D0000441290914512C817D9073CF427E04BE0C4
:103D1000BE018EEE91E10E94C40620E049E0BE01A2
:103D20008EEE91E10E94C40680914412909145125A
:103D3000C817D9071CF4CE010E9440078091441295
:103D400090914512C817D9073CF420E04CE0BE0121
:103D50008EEE91E10E94C4062196C3CF60E379E024
:103D600088EE91E10E94BB0B1092E71187E190E091
:103D70009093E6118093E5111092E41188E190E0B0
:103D80009093E3118093E2111092751110927911C2
:103D90001092781110927A118CE199E0909374113D
:103DA00080937311EFE8F1E110821482138215827F
:103DB000369681E1EB3CF807B9F783E092E0909307
:103DC000D6118093D51180E092E09093D811809322
:103DD000D71184E08093D91183E08093DA1187E0D2
:103DE00092E09093D4118093D3118AE090E0909365
:103DF000DC118093DB1184EF91E09093DE118093CE
:103E0000DD111092E1111092E0111092CF11109279
:103E1000D0111092D1111092D2111092DF11DF91B6
:103E2000CF910895CF93DF93CDB7DEB7CD5DD109A4
:103E30000FB6F894DEBF0FBECDBF789484B5826014
:103E400084BD84B5816084BD85B5826085BD85B53E
:103E5000816085BD80916E00816080936E001092BC
:103E60008100809181008260809381008091810037
:103E700081608093810080918000816080938000C8
:103E80008091B10084608093B1008091B000816026
:103E90008093B00080919100826080939100809126
:103EA0009100816080939100809190008160809367
:103EB00090008091A10082608093A1008091A10078
:103EC00081608093A1008091A00081608093A00018
:103ED0008091210182608093210180912101816084
:103EE0008093210180912001816080932001809145
:103EF0007A00846080937A0080917A008260809357
:103F00007A0080917A00816080937A0080917A00B3
:103F1000806880937A001092C10086ED90E10E9443
:103F20008F0189E390E10E948F011A8219829E011C
:103F30002F5F3F4FC652DF4F39832883CA5DD04081
:103F4000B9018DE990E00E94A40E64E275E08FE96A
:103F500090E00E94A40E1A821982BE016F5F7F4F0B
:103F600090E080E00E94A40E62E275E082E090E0C2
:103F70000E94A40E1A821982BE016F5F7F4F8DE5E9
:103F800097E00E94A40E60E275E08FE597E00E9442
:103F9000A40E65E47CE086ED90E10E94310A2E01DA
:103FA00039E5430E511C13E2D201E12F1D92EA952F
:103FB000E9F7E1E0D2019296EC9381E690E0CB53F1
:103FC000DF4F99838883C55CD040BE016B537F4F20
:103FD000CE018D539F4F0E943632CE018D539F4F9D
:103FE0000E94470A86E0E3EFFFE0DE01AF54BF4FD7
:103FF00001900D928A95E1F7BE016F547F4FCE017B
:1040000085559F4F0E943632CE0185559F4F0E94A5
:10401000470A83E390E0CF53DF4F99838883C15CE5
:10402000D040BE016F537F4FCE0181549F4F0E94FD
:104030003632CE0181549F4F0E94470ABE016D5314
:104040007F4FC2010E943632BE0165557F4FC201CB
:104050000C960E943632BE0161547F4FC2014496D5
:104060000E943632BE016D537F4F86ED90E10E9473
:10407000310ABE0161547F4F86ED90E10E94310A02
:104080002DB73EB7235231090FB6F8943EBF0FBE8D
:104090002DBFADB7BEB71196F201812F01900D92E1
:1040A0008A95E1F70E94CC0EC652DF4FA881B981F4
:1040B000CA5DD040E12F1D92EA95E9F782E690E0D3
:1040C000C354DF4F99838883CD5BD0402DB73EB773
:1040D0002D5D3F4F0FB6F8943EBF0FBE2DBFBE0102
:1040E00063547F4FCE0185549F4F0E943632CE01DC
:1040F00085549F4F0E94470A86E0E3EFFFE0DE0110
:10410000AB55BF4F01900D928A95E1F7BE016B55FB
:104110007F4FCE0181569F4F0E943632CE0181568D
:104120009F4F0E94470A82E390E0C754DF4F998374
:104130008883C95BD040BE0167547F4FCE0189544C
:104140009F4F0E943632CE0189549F4F0E94470AEA
:10415000BE0165547F4FCE0101960E943632BE01EA
:1041600061567F4FCE010D960E943632BE016954D2
:104170007F4FCE0145960E943632BE0165547F4F77
:1041800086ED90E10E94310ABE0169547F4F86EDB1
:1041900090E10E94310A8DB79EB783970FB6F894CD
:1041A0009EBF0FBE8DBFADB7BEB71196FE01319653
:1041B00001900D921A95E1F70E94CC0E1E019CE72A
:1041C000290E311C81E1D1011D928A95E9F721E088
:1041D000F10122838DB79EB783960FB6F8949EBFE8
:1041E0000FBE8DBF310193E0690E711C64E57CE068
:1041F000C3010E943632D1018C9011969C90119788
:104200001296AC9012971396BC9013971496CC907C
:1042100014971596DC9015971696EC9016971796AE
:10422000FC90179718960C91189719961C9119974E
:104230001A962C911A971B963C911B971C964C91A1
:104240001C971D965C911D971E966C911E971F964C
:104250007C911F9750968C910E949414F101329694
:10426000C452DF4FF983E883CC5DD0402FE0119238
:104270002A95E9F781E090E0D10111969C938E9305
:10428000E1E01296EC936AE57CE0C3010E943632CD
:10429000D1018C9011969C9011971296AC90129728
:1042A0001396BC9013971496CC9014971596DC90A7
:1042B00015971696EC9016971796FC9017971896E8
:1042C0000C91189719961C9119971A962C911A9778
:1042D0001B963C911B971C964C911C971D965C91CC
:1042E0001D971E966C911E971F967C911F97509656
:1042F0008C910E949414C452DF4FE881F981CC5D07
:10430000D0402FE011922A95E9F782E090E0D101A8
:1043100011969C938E93E1E01296EC9360E67CE01C
:10432000C3010E943632D1018C9011969C90119756
:104330001296AC9012971396BC9013971496CC904B
:1043400014971596DC9015971696EC90169717967D
:10435000FC90179718960C91189719961C9119971D
:104360001A962C911A971B963C911B971C964C9170
:104370001C971D965C911D971E966C911E971F961B
:104380007C911F9750968C910E949414C452DF4FD9
:10439000E881F981CC5DD0402FE011922A95E9F7B0
:1043A00083E090E0D1018D939C9366E67CE0C301AD
:1043B0000E943632F10180809180A280B380C48057
:1043C000D580E680F7800085118522853385448578
:1043D00055856685778580890E949414C452DF4F85
:1043E000A881B981CC5DD040EFE01D92EA95E9F754
:1043F00084E090E0D1018D939C9360E379E0C30168
:104400000E943632F10180809180A280B380C48006
:10441000D580E680F7800085118522853385448527
:1044200055856685778580890E949414C452DF4F34
:10443000A881B981CC5DD040EFE01D92EA95E9F703
:1044400085E090E0D1018D939C9360E379E0C30116
:104450000E943632F10180809180A280B380C480B6
:10446000D580E680F78000851185228533854485D7
:1044700055856685778580890E949414C452DF4FE4
:10448000A881B981CC5DD040EFE01D92EA95E9F7B3
:1044900086E090E0D1018D939C9360E379E0C301C5
:1044A0000E943632F10180809180A280B380C48066
:1044B000D580E680F7800085118522853385448587
:1044C00055856685778580890E949414C452DF4F94
:1044D000A881B981CC5DD040EFE01D92EA95E9F763
:1044E00087E090E0D1018D939C9360E379E0C30174
:1044F0000E943632F10180809180A280B380C48016
:10450000D580E680F7800085118522853385448536
:1045100055856685778580890E949414C452DF4F43
:10452000A881B981CC5DD040EFE01D92EA95E9F712
:1045300088E090E0D1018D939C9360E379E0C30122
:104540000E943632F10180809180A280B380C480C5
:10455000D580E680F78000851185228533854485E6
:1045600055856685778580890E9494146CE67CE089
:1045700086ED90E10E94450A0E94A50C0E94090A5E
:1045800084E00E94A408809144129091451218166C
:10459000190644F421E04CE070E060E08EEE91E119
:1045A0000E94C40680914412909145121816190673
:1045B00044F428E04AE070E060E08EEE91E10E9471
:1045C000C40680914412909145121816190624F4DD
:1045D00090E080E00E94400760E08091E5110E9439
:1045E0009E0260E08091E2110E949E023201F3E09F
:1045F0006F0E711C92012C5E3F4FC452DF4F398306
:104600002883CC5DD0400E94B90C6C0110E000E022
:104610000C151D05B4F4B801C2010E94CF0DD201E2
:10462000ED90FC90BDE2EB0EF11C61E08E2D0E943E
:104630009E02F20162818E2D0E946C020F5F1F4F5D
:10464000E7CFE0912310F0912410EC30F10508F051
:1046500093C38827E15DFC4D8F4F0C9416303B23AC
:10466000A023BA26BF26C226D02752252D29D1291C
:10467000012BA92DD12E0E949C0860E080E00E94B1
:10468000450965E17CE086E492E10E94450A6CE21E
:1046900071E080E090E00E94030361E080E00E940E
:1046A00045096CE77CE086E492E10E94450A6CE2F1
:1046B00071E080E090E00E94030362E080E00E94ED
:1046C00045096DE87CE086E492E10E94450A6CE2CF
:1046D00071E080E090E00E94030363E080E00E94CC
:1046E00045096EE97CE086E492E10E94450A6CE2AD
:1046F00071E080E090E00E94030364E080E00E94AB
:1047000045096EEA7CE086E492E10E94450A6CE28B
:1047100071E080E090E00E94030365E080E00E9489
:1047200045096DEB7CE086E492E10E94450A85EE46
:1047300091E10E94A8068823D1F381E090E09AC716
:104740000E949C0860E080E00E9445096DEC7CE0DE
:1047500086E492E10E94450A68EC70E080E090E017
:104760000E94030361E080E00E9445096CED7CE05B
:1047700086E492E10E94450A68EC70E080E090E0F7
:104780000E94030362E080E00E94450965EE7CE040
:1047900086E492E10E94450A68EC70E080E090E0D7
:1047A0000E94030363E080E00E94450961EF7CE022
:1047B00086E492E10E94450A60E379E0CE018156E9
:1047C0009F4F0E94BB0B0E949D038823D1F0CD55C3
:1047D000DF4F28813981C35AD0402230310588F516
:1047E000682FCE0181569F4F0E940F0B63E08CE033
:1047F0000E944509BE0161567F4F86E492E10E9406
:10480000E50485EE91E10E94A806882309F41CC105
:1048100068E57CE0CE0181569F4F0E945D098823A8
:10482000A9F186E090E090932410809323101092D9
:10483000221010922110CE0181569F4F0E94AD0A86
:104840009BC263E08CE00E94450969EE79E086E452
:1048500092E10E94450A63E08CE00E94450961ED07
:1048600079E086E492E10E94450A64E670E080E027
:1048700090E00E94030363E08CE00E94450969EE2A
:1048800079E086E492E10E94450AB0CF6EE57CE0D3
:10489000CE0181569F4F0E945D09882369F086E012
:1048A00090E0909324108093231081E090E0909307
:1048B000221080932110BFCF6BEB7CE0CE0181569C
:1048C0009F4F0E945D09882309F4B5CF60E080E026
:1048D0000E94450960E379E0C1010E94BB0B10E032
:1048E00000E0F80155E0EE0FFF1F5A95E1F7EA5D91
:1048F000FA4F80E2D20101900D928A95E1F71F9361
:104900000F932DB73EB7285531090FB6F8943EBF27
:104910000FBE2DBFADB7BEB7119688E5EEEEF1E143
:1049200001900D928A95E1F70E9462078DB79EB7BC
:10493000865A9F4F0FB6F8949EBF0FBE8DBF0E9440
:104940009D03882391F08A330CF058C081330CF01A
:1049500076C0833209F45CC0803309F462C062E33C
:1049600070E080E090E00E94030385EE91E10E94F8
:10497000A806882309F4B5CFC1010E94810988E502
:10498000EEEEF1E1DE01119601900D928A95E1F7CC
:104990008E010F5F1F4FDD24D394F12CE12C69961B
:1049A0008EAD9FAD699718161906BCF420E830E06B
:1049B0000E2C02C0359527950A94E2F72095D80170
:1049C00050968C915097282350962C934D2D70E043
:1049D00060E0CE0101960E94C406BFEFEB1AFB0A0D
:1049E000E8E0EE16F104D9F60F5F1F4FD394F9E01B
:1049F000DF12D3CFC1010E94AD0A1DCF883509F067
:104A0000AECF0150110908F0AACF0EE110E0A7CFF8
:104A10000F5F1F4F0F31110509F0A1CF10E000E02B
:104A20009ECFB201C1010E94DD0A61E080E00E94D8
:104A30004509B10186E492E10E94E50490CF682F18
:104A4000C1010E940F0BF1CF82EE91E10E94A806F6
:104A5000882309F4B8CECD55DF4F68817981C35AD8
:104A6000D0406115710509F4AECE61507109CE01D7
:104A700081569F4F0E94610A63E08CE00E944509C5
:104A80006FED79E086E492E10E94450A63E08CE0F4
:104A90000E944509BE0161567F4F86E492E10E9463
:104AA000E50491CE00912110109122100E949C08E3
:104AB00060E080E00E94450969EF7CE086E492E1D5
:104AC0000E94450A6CE271E080E090E00E940303DE
:104AD00061E080E00E94450962E07DE086E492E1C9
:104AE0000E94450A6CE271E080E090E00E940303BE
:104AF00062E080E00E94450960E17DE086E492E1A9
:104B00000E94450A6CE271E080E090E00E9403039D
:104B100063E080E00E94450961EF7CE086E492E179
:104B20000E94450A60E379E0C2010E94BB0BAA24FF
:104B3000A394EE24E394F12C42E0C42ED12C0E94E5
:104B40009D038823A9F0D20114962D913C91223027
:104B5000310508F05DC0682FC2010E940F0B63E0B1
:104B60008CE00E944509B20186E492E10E94E504CE
:104B700085EE91E10E94A806B82E882309F48EC024
:104B800068E57CE0C2010E945D09882309F4B0C099
:104B9000A0921B1010921C1068E57CE086ED90E15D
:104BA0000E94310A6AE17DE086ED90E10E94450AAB
:104BB00080911B1090E00E94090A6EE17DE086ED75
:104BC00090E10E94450A80911C1090E00E94090A21
:104BD0000E947B060E949C0862E27DE086E492E1EE
:104BE0000E94450A61E080E00E94450963E37DE0A0
:104BF00086E492E10E94450A912C89E390E10E94AB
:104C00009C05892B51F1C1010E9443059B2CF5CFD6
:104C100063E08CE00E9445096FED79E086E492E163
:104C20000E94450A63E08CE00E94450961ED79E04D
:104C300086E492E10E94450A68EE73E080E090E02D
:104C40000E94030363E08CE00E9445096FED79E068
:104C500086E492E10E94450A82CF992071F289E3AD
:104C600090E10E949C05892B41F60E947B060E94E0
:104C70009C0864E47DE086E492E10E94450A68EEC7
:104C800073E080E090E00E9403030E949C0868E5C6
:104C90007DE086ED90E10E94310AB92C82EE91E12F
:104CA0000E94A8068823F9F0D20114966D917C9198
:104CB00061157105C1F061507109C2010E94610A5C
:104CC00063E08CE00E9445096FED79E086E492E1B3
:104CD0000E94450A63E08CE00E944509B20186E427
:104CE00092E10E94E504BB2009F429CFC201A6CDC0
:104CF0006EE57CE0C2010E945D098823B9F3109241
:104D00001B10A0921C106EE57CE086ED90E10E94E5
:104D1000310A6AE17DE086ED90E10E94450A8091CA
:104D20001B1090E00E94090A6EE17DE086ED90E1A3
:104D30000E94450A80911C1090E00E94090A0130EF
:104D4000110561F00230110581F00115110509F01E
:104D5000A5CFD0922410C0922310A0CFE3E0F0E0C2
:104D6000F0932410E093231099CFF0922410E09256
:104D7000231094CF0E9425180E944B0644CC0E9419
:104D8000150FFACF0E949C0860E080E00E94450960
:104D90006AE67DE086E492E10E94450A6CE271E0F9
:104DA00080E090E00E94030361E080E00E944509FA
:104DB00065E77DE086E492E10E94450A6CE271E0DD
:104DC00080E090E00E94030362E080E00E944509D9
:104DD0006DE77DE086E492E10E94450A6CE271E0B5
:104DE00080E090E00E94030363E080E00E944509B8
:104DF00061EF7CE086E492E10E94450A60E379E09D
:104E0000C2010E94BB0B0E949D03882399F0F2010E
:104E1000248135812230310510F5682FC2010E94AE
:104E20000F0B63E08CE00E944509B20186E492E139
:104E30000E94E50485EE91E10E94A806882309F40A
:104E400087C068E57CE0C2010E945D09882361F1AA
:104E500087E090E0909324108093231047CF63E085
:104E60008CE00E9445096FED79E086E492E10E94B2
:104E7000450A63E08CE00E94450961ED79E086E433
:104E800092E10E94450A68EE73E080E090E00E94A3
:104E9000030363E08CE00E9445096FED79E086E44E
:104EA00092E10E94450ABDCF6EE57CE0C2010E94FE
:104EB0005D09882319F088E090E0CCCF64E67CE0BF
:104EC000C2010E946B0BD2018D919C91892B09F438
:104ED0000DCFE8E0F0E181E1DF011D928A95E9F76D
:104EE00080910410909105109C012F5F3F4F3093EB
:104EF00005102093041090930710809306106DE81E
:104F00007DE0CF010E943632EDB7FEB773970FB642
:104F1000F894FEBF0FBEEDBFADB7BEB7119683E1EB
:104F2000E6E0F0E101900D928A95E1F70E94071505
:104F300081E090E090932410809323102DB73EB72A
:104F40002D5E3F4F0FB6F8943EBF0FBE2DBFCECEA5
:104F500082EE91E10E94A806882309F454CFD20181
:104F600014966D917C916115710509F44CCF6150D7
:104F70007109C2010E94610A63E08CE00E94450948
:104F80006FED79E086E492E10E94450A63E08CE0EF
:104F90000E944509B20186E492E10E94E50433CF04
:104FA0000E9435036093FC0F7093FD0F8093FE0FFA
:104FB0009093FF0F0E949C0860E080E00E944509EA
:104FC0006BE97DE086E492E10E94450A60E971E0C8
:104FD00080E090E00E9403030E949C0860E080E073
:104FE0000E94450968EA7DE086E492E10E94450A54
:104FF00061E080E00E94450967EB7DE086E492E194
:105000000E94450A62E080E00E94450966EC7DE06E
:1050100086E492E10E94450A63E080E00E9445092F
:1050200068ED7DE086E492E10E94450A6EEE72E052
:1050300080E090E00E9403030E949C0860E080E012
:105040000E94450961EF7CE086E492E10E94450AF6
:1050500060E379E0C2010E94BB0B0E94350300911E
:10506000FC0F1091FD0F2091FE0F3091FF0F601B80
:10507000710B820B930B69357F408240910508F0DC
:10508000DFC00E949D03882399F0F20124813581BD
:105090002230310520F5682FC2010E940F0B60E01D
:1050A0008CE00E944509B20186E492E10E94E50489
:1050B00085EE91E10E94A806882309F499C068E56D
:1050C0007CE0C2010E945D09882371F169EE7DE0F8
:1050D00086ED90E10E94310A89E090E0BBCE60E06D
:1050E0008CE00E94450969EE79E086E492E10E9435
:1050F000450A60E08CE00E94450961ED79E086E4B4
:1051000092E10E94450A64E670E080E090E00E942F
:10511000030360E08CE00E94450969EE79E086E4D3
:1051200092E10E94450ABBCF6EE57CE0C2010E947D
:105130005D09882349F063E07EE086ED90E10E94FE
:10514000310A8AE090E086CE64E67CE0C2010E94EB
:105150005D098823E1F1E8E0F0E181E1DF011D92E2
:105160008A95E9F780910410909105109C012F5FBA
:105170003F4F3093051020930410909307108093B5
:1051800006106DE87DE0CF010E943632EDB7FEB724
:1051900073970FB6F894FEBF0FBEEDBFADB7BEB7A5
:1051A000119683E1E6E0F0E101900D928A95E1F736
:1051B0000E94071581E090E09093241080932310C3
:1051C0006CE17EE086ED90E10E94310AB7CE6BE89B
:1051D0007CE0C2010E945D09882309F487CD63E366
:1051E0007EE086ED90E10E94310A8BE090E032CEC5
:1051F00082EE91E10E94A806882309F42ECFD20105
:1052000014966D917C916115710509F426CF61505A
:105210007109C2010E94610A61E080E00E944509B3
:105220006FED79E086E492E10E94450A61E080E05A
:105230000E944509B20186E492E10E94E5040DCF87
:1052400081E090E090932410809323106AE47EE044
:1052500086ED90E10E94310A49CD0E949C0860E0F1
:1052600080E00E94450964E67EE086E492E10E94C7
:10527000450A61E080E00E94450961E77EE086E43E
:1052800092E10E94450A62E080E00E9445096DE7D4
:105290007EE086E492E10E94450A85EE91E10E945B
:1052A000A806882309F46FC00E949C0870E060E0A3
:1052B000C2010E94CD0C10E000E07201B2E0EB0EE2
:1052C000F11C0E949C0860E080E00E9445096BE8A8
:1052D0007EE086E492E10E94450A61E080E00E945F
:1052E0004509F20160817181C1010E94750BB10114
:1052F00086E492E10E94E504C1010E94AD0A62E0E9
:1053000080E00E944509B701C1010E94BB0BB101B9
:1053100086E492E10E94E504C1010E94AD0A85EE97
:1053200091E10E94A806882309F10F5F1F4FB10188
:1053300090E080E00E94910CD1018D919C91081722
:10534000190714F010E000E00E949C08B801CE019B
:1053500089539F4F0E94CD0C83E1FE01E953FF4F1B
:10536000D20101900D928A95E1F7ABCF82EE91E1E7
:105370000E94A806882399F284E090E0909324107C
:105380008093231007C082EE91E10E94A806882333
:1053900009F483CF6CE271E080E090E00E940303A7
:1053A000EBCC0E949C0860E080E00E9445096CE91B
:1053B0007EE086E492E10E94450A61E080E00E947E
:1053C00045096AEA7EE086E492E10E94450A62E0CD
:1053D00080E00E94450961E77EE086E492E10E9458
:1053E000450A63E080E00E9445096DE77EE086E4BF
:1053F00092E10E94450A85EE91E10E94A806882369
:1054000009F4F7C00E949C0860E080E00E94450912
:1054100066EB7EE086E492E10E94450A61E080E06E
:105420000E94450967EC7EE086E492E10E94450A0D
:1054300062E080E00E94450961ED7EE086E492E151
:105440000E94450A63E088E00E94450910E000E000
:10545000F12CE12C0E94B90C0817190774F4B8015B
:10546000C2010E94CF0DF2018281882319F0FFEF63
:10547000EF1AFF0A0F5F1F4FEDCFB701C2010E9465
:10548000750BB20186E492E10E94E504C2010E941C
:10549000AD0A68EB7BE080E090E00E9403030E948D
:1054A0009C0860E080E00E94450966EB7EE086E4AF
:1054B00092E10E94450A61E080E00E9445096EED9C
:1054C0007EE086E492E10E94450A62E080E00E946C
:1054D000450967EE7EE086E492E10E94450A63E0BA
:1054E00088E00E944509609102107091031080913C
:1054F000001090910110680F791FC2010E94750B76
:10550000B20186E492E10E94E504C2010E94AD0A64
:1055100068EB7BE080E090E00E9403030E949C081F
:1055200060E080E00E94450966EB7EE086E492E15F
:105530000E94450A61E080E00E94450962EF7EE03A
:1055400086E492E10E94450A62E080E00E944509FB
:105550006BEF7EE086E492E10E94450A63E088E01A
:105560000E94450964E67CE086E492E10E94450AD7
:1055700068EB7BE080E090E00E9403030E949C08BF
:1055800060E080E00E94450966EB7EE086E492E1FF
:105590000E94450A61E080E00E94450968E07FE0E2
:1055A00086E492E10E94450A62E080E00E9445099B
:1055B00062E17FE086E492E10E94450A63E088E0D0
:1055C0000E9445090E94A50CBC0161507109C201ED
:1055D0000E94750BB20186E492E10E94E504C201CB
:1055E0000E94AD0A68EB7BE080E090E00E9403033C
:1055F000C3CE82EE91E10E94A806882309F4FBCE77
:10560000C9CE0E94B90C7C0110E000E00E151F0508
:105610009CF4B801C2010E94CF0DD20112968C9168
:10562000129781112CC0ED90FC90C7010E94090ACD
:10563000BFEFEB16FB0631F56DE17FE086ED90E103
:105640000E94310A0E949C0860E080E00E944509A7
:1056500069E47FE086E492E10E94450A61E080E02F
:105660000E94450964E37FE086E492E10E94450AD6
:1056700085E090E090932410809323107DCB0F5F02
:105680001F4FC4CF0E949C0861E080E00E94450942
:1056900061EE7AE086E492E10E94450A60E379E0F7
:1056A000CE018B559F4F0E94BB0B80911C1088230D
:1056B00009F45AC080911B10811156C080911910B5
:1056C00090911A10FC0125E0EE0FFF1F2A95E1F7DB
:1056D000EA5DFA4F20E2D20101900D922A95E1F79E
:1056E0009F938F93EDB7FEB7E855F1090FB6F89485
:1056F000FEBF0FBEEDBFADB7BEB7119688E5EEEEAB
:10570000F1E101900D928A95E1F70E9462072DB7B1
:105710003EB7265A3F4F0FB6F8943EBF0FBE2DBF7F
:105720000E949D03882301F18A330CF0DAC0813393
:105730000CF0FDC0833209F4E6C0803309F4F0C0F8
:10574000C755DF4F88819981C95AD04063E00897D7
:1057500008F0F4C080E00E944509BE016B557F4F00
:1057600086E492E10E94E50485EE91E10E94A8069C
:10577000882309F408C1CE018B559F4F0E948109EF
:10578000CB55DF4F68817981C55AD040DB010D9040
:105790000020E9F7CD010DB71EB7861B970BEDB7BB
:1057A000FEB7E81BF90B0FB6F894FEBF0FBEEDBFB6
:1057B0002DB73EB72F5F3F4F6901C9010E943632B6
:1057C000C6010E94470AB601C1010E94BB0B68EEE8
:1057D00071E1CE0181569F4F0E94A10BA101BE0134
:1057E00061567F4FC2010E94610DCE0181569F4FCD
:1057F0000E94AD0AC1010E94AD0AD2018C9188239A
:1058000009F4EFC068EE71E1C1010E94A10BA10192
:1058100061E0C7010E944114C1010E94AD0A0E94CB
:10582000100E69E57FE086ED90E10E94310AE8E024
:10583000F0E181E1DF011D928A95E9F78091041082
:10584000909105109C012F5F3F4F309305102093DE
:10585000041090930710809306106DE77FE0CF014E
:105860000E943632EDB7FEB773970FB6F894FEBFBD
:105870000FBEEDBFADB7BEB7119683E1E6E0F0E134
:1058800001900D928A95E1F70E9407150E949C08ED
:1058900061E080E00E94450968E87FE086E492E1EB
:1058A0000E94450A60E971E080E090E00E940303F5
:1058B00085E090E090932410809323102DB73EB79D
:1058C0002D5E3F4F0FB6F8943EBF0FBE2DBF0FB6F3
:1058D000F8941EBF0FBE0DBFCE018B559F4F0C9489
:1058E0001E24883509F02CCF8091191090911A1040
:1058F000019797FD05C090931A108093191020CF3F
:105900008EE190E0F8CF8091191090911A100196D5
:105910008F31910580F310921A101092191010CF48
:10592000B201CE018B559F4F0E94DD0A09CF682F2F
:10593000CE018B559F4F0E940F0B02CF80E00E943B
:1059400045096FED79E086E492E10E94450A63E043
:1059500080E00E94450961ED79E086E492E10E94D1
:10596000450A68EE73E080E090E00E94030363E084
:1059700080E00E9445096FED79E086E492E10E94A3
:10598000450A63E0E7CE82EE91E10E94A8068823F3
:1059900009F48BCEC755DF4F68817981C95AD04051
:1059A0006115710509F481CE61507109CE018B55E5
:1059B0009F4F0E94610A61E083E00E9445096FEDFC
:1059C00079E086E492E10E94450A61E083E00E946A
:1059D0004509BE016B557F4F86E492E10E94E504C4
:1059E00064CE809102109091031001969093031061
:1059F0008093021002970CF04EC065E07BE086EDCC
:105A000090E10E94310A0E949C0860E080E00E94C0
:105A100045096AE37BE086E492E10E94450A61E081
:105A200080E00E94450964E47BE086E492E10E9404
:105A3000450AE8E0F0E181E1DF011D928A95E9F78E
:105A400080910410909105109C012F5F3F4F30937F
:105A5000051020930410909307108093061062E9BC
:105A60007FE0CF010E943632EDB7FEB773970FB6D5
:105A7000F894FEBF0FBEEDBFADB7BEB7119683E180
:105A8000E6E0F0E101900D928A95E1F70E9407159A
:105A900089E090E00FCF6EE57BE086ED90E10E941B
:105AA000310A0E949C0860E080E00E9445096AE398
:105AB0007BE086E492E10E94450A61E080E00E947A
:105AC000450964E47BE086E492E10E94450AE8E04F
:105AD000F0E181E1DF011D928A95E9F780910410E0
