:020000040000FA
:100000000C945C010C948D010C948D010C948D0169
:100010000C948D010C948D010C948D010C948D0128
:100020000C948D010C948D010C948D010C948D0118
:100030000C948D010C948D010C948D010C948D0108
:100040000C948D010C948D010C948D010C948D01F8
:100050000C948D010C948D010C948D010C94D81C82
:100060000C948D010C94AC1D0C94821D0C948D018C
:100070000C948D010C948D010C948D010C948D01C8
:100080000C948D010C948D010C948D010C948D01B8
:100090000C944C1D0C94221D0C948D010C948D011C
:1000A0000C948D010C948D010C948D010C948D0198
:1000B0000C948D010C948D010C948D010C948D0188
:1000C0000C948D010C948D010C948D010C948D0178
:1000D0000C948D010C948D010C948D010C948D0168
:1000E0000C948D010C94FE220C949A020C9416022E
:1000F0000C94E4040C948A2E0C9401020C94DA0201
:100100000C9497050C9420020C9469020C94FD0148
:100110000C94E5040C942E020C9473060C94E225C6
:100120000C9412020C942A050C94DA250C94F70115
:100130000C94AB240C9452090C94E21D0C940C0208
:100140000C941B050C9424020C949B280C947C2D7D
:100150000C94DF250C9417270C9426060C949922F6
:100160000C943C020C941C020C9432020C94D905A1
:100170000C94C42F0C942A020C9437020C940502A0
:100180000C94772A0C944D290C9438020C94090293
:100190000C94890500002100240027002A002D006E
:1001A0003000330001010000040107010A010000D2
:1001B0002200250028002B002E003100340002010F
:1001C0000000050108010B010000200023002600AB
:1001D00029002C002F00320000010000030106015D
:1001E00009010505050507050808080802020202BD
:1001F0000A0A0808040404040101010101010101C3
:100200000303030303030303040707070C0C0C0C8D
:100210000C0C0C0C02020202060606060606060676
:100220000B0B0B0B0B0B0B0B010210202008081003
:100230002040102040800201020108040201010256
:10024000040810204080804020100804020180042F
:10025000020180402010080402010804020101028A
:100260000408102040800102040810204080000093
:100270000A0B02090C0D0E08070304010000000020
:10028000000000000000000000000000000000006E
:10029000000000000000000000001211100000002B
:1002A000000000000000000000000000000000004E
:1002B00000000000E21DC42F11241FBECFEFD1E2C9
:1002C000DEBFCDBF00E00CBF22E1ACEDBFE001C05E
:1002D0001D92A434B207E1F71FE0A0E0B2E0ECED1C
:1002E000F4E600E00BBF02C007900D92AC3DB107F1
:1002F000D9F711E0CBE5D1E000E006C02197010974
:10030000802FFE010E943530CA35D10780E00807F2
:10031000A9F70E94671F0C945C320C940000FC014A
:10032000A089B18982E08C93A485B5851C92A685AD
:10033000B7858FEC8C93108EA489B58986E08C9359
:10034000A289B3898C9180618C93A289B3898C91A5
:1003500088608C93A289B3898C9180688C93028881
:10036000F389E02D80818F7D8083089596E0899FB9
:10037000D0011124AB5ABE4E90967C936E935F973A
:1003800091E091969C939197E091C211F091C311E5
:100390009091C111992339F0309751F0811108C023
:1003A000809171111994309719F05C968C91FACF65
:1003B00008958150823108F05AC0E82FF0E0882774
:1003C000EB51FE4F8F4F0C94353005020902F701B7
:1003D000FD01010237020C02120216021C02200269
:1003E00024022A022E023702320238023C02809195
:1003F00080008F77809380000895809180008F7DAA
:10040000F9CF80918000877FF5CF84B58F7784BD49
:10041000089584B58F7DFBCF8091B0008F77809356
:10042000B00008958091B0008F7DF9CF8091900049
:100430008F77809390000895809190008F7DF9CF01
:1004400080919000877FF5CF8091A0008F77809377
:10045000A00008958091A0008F7DF9CF8091A00029
:10046000877FF5CF809120018F77809320010895B9
:10047000809120018F7DF9CF80912001877FF5CF7A
:10048000CF93DF93282F30E0F901E259FD4F84919B
:10049000F901E85DFD4FD491F901EE51FE4FC49191
:1004A000CC23A1F081110E94D901EC2FF0E0EE0FD6
:1004B000FF1FE853FE4FA591B491EC91ED2381E02D
:1004C00090E009F480E0DF91CF91089580E090E022
:1004D000FACF862F0C9440021F93CF93DF93282FDF
:1004E00030E0F901E259FD4F8491F901E85DFD4FDB
:1004F000D491F901EE51FE4FC491CC23A9F0162FEF
:1005000081110E94D901EC2FF0E0EE0FFF1FE255A0
:10051000FE4FA591B4918FB7F894EC91111108C0DA
:10052000D095DE23DC938FBFDF91CF911F9108958B
:10053000DE2BF8CF862F642F0C946C02CF93DF93C1
:1005400090E0FC01E85DFD4F24918E519E4FFC012F
:1005500084918823C9F090E0880F991FFC01EC5624
:10056000FE4FA591B491FC01E255FE4FC591D49187
:1005700061110DC09FB7F8948C91209582238C93C4
:100580008881282328839FBFDF91CF91089562300F
:1005900051F49FB7F8943C91822F809583238C93DC
:1005A000E8812E2BEFCF8FB7F894EC912E2B2C9364
:1005B0008FBFEACF862F642F0C949E023FB7F8942A
:1005C00080910C1090910D10A0910E10B0910F1011
:1005D00026B5A89B05C02F3F19F00196A11DB11D9E
:1005E0003FBFBA2FA92F982F8827BC01CD01620FDA
:1005F000711D811D911D42E0660F771F881F991F95
:100600004A95D1F708958F929F92AF92BF92CF9261
:10061000DF92EF92FF924B015C010E94DE026B01C0
:100620007C010E94DE026C197D098E099F09683EDB
:10063000734081059105A8F321E0821A9108A10871
:10064000B10888EEC80E83E0D81EE11CF11C8114AD
:100650009104A104B10429F7FF90EF90DF90CF90AF
:10066000BF90AF909F908F9008952FB7F8946091AE
:1006700008107091091080910A1090910B102FBFF3
:1006800008950F931F93CF93DF93C82FD62F86E043
:10069000C89FF0011124EB5AFE4E11A2878D90A144
:1006A00081309105F1F058F082309105F1F1039716
:1006B00009F440C0DF91CF911F910F9108956623F7
:1006C000C9F361E070E08C2F0E94B6010E943503EF
:1006D0006093AD117093AE118093AF119093B011F0
:1006E000E9CF0E9435030091AD111091AE11209118
:1006F000AF113091B011AB01BC01401B510B620B2B
:10070000730B8091BF119091C011B0E0A0E08417ED
:100710009507A607B70748F462E070E08C2FDF91D9
:10072000CF911F910F910C94B60163E070E0D1114D
:10073000C1CFF4CF70E060E0F1CF6F927F928F92E3
:100740009F92AF92BF92CF92DF92EF92FF920F9360
:100750001F93CF93DF9381E08093C1110E943503F3
:100760000091B1111091B2112091B3113091B411D7
:10077000AB01BC01401B510B620B730B8091BD118F
:100780009091BE11B0E0A0E084179507A607B707C7
:1007900008F014C1C0E08091BB11C81760F4E0916B
:1007A000B711F091B811EC0FF11D62E080810E9449
:1007B0009E02CF5FF0CF712C812C912C5401839439
:1007C0008091BC11781608F05FC0072D10E0E09111
:1007D000B911F091BA11E00FF11F61E080810E9420
:1007E0009E02E091B911F091BA11E00FF11F60E0A3
:1007F00080810E946C02D501C401072C04C0880FBF
:10080000991FAA1FBB1F0A94D2F76C017C01E094C8
:10081000F094612C8091BB116816F8F4C62DD0E0DD
:10082000E091B711F091B811EC0FFD1F80810E948B
:1008300040022496CC0FDD1FCB5ADE4E892B41F4AB
:10084000888199818C299D29998388836394E2CF3B
:10085000888199818E219F21F7CFE091B911F09184
:10086000BA11E00FF11F61E080810E946C0280915B
:10087000B9119091BA11080F191F60E0F801808139
:100880000E949E0273949CCFC5E5D1E1FE018FEFDB
:100890009FEF278D30A1232B21F4148E968F858F07
:1008A00011A2369621E1E139F20799F7F12C96E091
:1008B000D92E8091BB11F81608F050C0E12C0F2DF5
:1008C00010E0000F111F035A1E4E2091BC11E216BA
:1008D00008F042C0F801608171810E2C02C076954B
:1008E00067950A94E2F7F29E900111242E0D311DB6
:1008F000E5E5F1E180E0458D568D2417350709F4D3
:1009000061C08F5F36968A30B1F760FF23C0E5E59E
:10091000F1E190E080E0448D411117C0E091B51104
:10092000F091B611E20FF31F4081D89EF001D99EDD
:10093000F00D1124EB5AFE4E448F368F258F10A2F6
:10094000178E61E00E94410305C0019636968A30F9
:10095000910509F7E394B9CFF394ABCF10E089A1E7
:100960008111182F2696F1E1C139DF07C1F70E94E6
:1009700035036093B1117093B2118093B3119093CA
:10098000B4111123D9F0809176118823B9F08091A8
:10099000741190917511019789F480917111DF9113
:1009A000CF911F910F91FF90EF90DF90CF90BF906C
:1009B000AF909F908F907F906F9008951092C1118B
:1009C00080E0EDCF6170BECF0895AF92BF92CF921D
:1009D000DF92EF92FF920F931F93CF93DF936C01FF
:1009E0007B018B01040F151FEB015E01AE18BF08E0
:1009F000C017D10759F06991D601ED91FC91019092
:100A0000F081E02DC6011995892B79F7C501DF9199
:100A1000CF911F910F91FF90EF90DF90CF90BF90FB
:100A2000AF900895FC01448155816081718188E215
:100A300092E10C94E504FC01538D448D252F30E0A8
:100A4000842F90E0821B930B541710F0CF960895DB
:100A500001970895FC01918D828D981761F0A28D08
:100A6000AE0FBF2FB11D5D968C91928D9F5F9F73CE
:100A7000928F90E008958FEF9FEF0895CF92DF92CD
:100A8000EF92FF920F931F93CF93DF938C01D0E0EF
:100A9000C0E00E943503609323107093241080936C
:100AA0002510909326108BE190E10E942A0597FF74
:100AB00028C00E943503C0902310D0902410E090ED
:100AC0002510F09026106C197D098E099F09C090A1
:100AD0001F10D0902010E0902110F09022106C1583
:100AE0007D058E059F05F8F2CE01DF91CF911F9114
:100AF0000F91FF90EF90DF90CF900895C2E0D0E08B
:100B0000F3CFF80181938F012197C1F3C1E0D0E0C9
:100B1000C0CFFC01918D828D981731F0828DE80F46
:100B2000F11D858D90E008958FEF9FEF0895FC01F2
:100B3000918D228D892F90E0805C9F4F821B9109BF
:100B40008F73992708958BE190E10E94970521E02A
:100B5000892B09F420E0822F089588EB90E10E9410
:100B6000970521E0892B09F420E0822F0895FC01EC
:100B7000A48DA80FB92FB11DA35ABF4F2C91848DFE
:100B800090E001968F739927848FA689B7892C935B
:100B9000A089B1898C91837080648C93938D848DAE
:100BA000981306C00288F389E02D80818F7D8083B1
:100BB0000895EF92FF920F931F93CF93DF93EC0171
:100BC00081E0888F9B8D8C8D98131AC0E889F989F4
:100BD000808185FF15C09FB7F894EE89FF896083F7
:100BE000E889F98980818370806480839FBF81E078
:100BF00090E0DF91CF911F910F91FF90EF900895BA
:100C0000F62E0B8D10E00F5F1F4F0F731127E02E94
:100C10008C8D8E110CC00FB607FCFACFE889F989CC
:100C2000808185FFF5CFCE010E94B705F1CFEB8D16
:100C3000EC0FFD2FF11DE35AFF4FF0829FB7F894A0
:100C40000B8FEA89FB8980818062CFCFCF93DF93BE
:100C5000EC01888D8823B9F0AA89BB89E889F989D4
:100C60008C9185FD03C0808186FD0DC00FB607FC09
:100C7000F7CF8C9185FFF2CF808185FFEDCFCE013C
:100C80000E94B705E9CFDF91CF91089580E090E011
:100C9000892B29F00E94AD0581110E94000080E09F
:100CA00090E0892B29F00E94A30581110E94000089
:100CB00080E090E0892B49F080E090E0892B29F0DA
:100CC0000E94000081110E94000080E090E0892BCA
:100CD00049F080E090E0892B29F00E94000081110A
:100CE0000C940000089590E080E00895CF92DF9288
:100CF000EF92FF92CF93DF930E943503EB010E94A6
:100D000035030E9435036B018BE190E10E9497054A
:100D1000892B29F08BE190E10E942A05F5CFCC1AAE
:100D2000DD0A88EEC81683E0D8065CF38BE190E11B
:100D30000E949705892B29F7DF91CF91FF90EF90C3
:100D4000DF90CF900895CF93DF93EC018A818111DA
:100D50000AC088810E944002019729F481E08A83B9
:100D6000DF91CF9108958A81811102C080E0F8CF90
:100D700088810E944002892BC9F71A82F7CF4F92CF
:100D80005F926F927F928F929F92AF92BF92CF921B
:100D9000DF92EF92FF920F931F93CF93DF931F92F7
:100DA0001F92CDB7DEB78C0149832A83660F771F68
:100DB000F801EA5AFF4FE080F180EE0CFF1CF801C9
:100DC000CF01801B910B8E159F0514F41192F8CF63
:100DD0008981F801E60FF71F81838A81808368018A
:100DE00084E5C80ED11C60E0F60180810E946C028F
:100DF0005801F2E5AF0EB11C480180E5880E911C48
:100E00001E141F040CF5E1E0EE1AF108F801EE0DD6
:100E1000FF1D6080F5015080F401408088E0782E4D
:100E2000662D661F6627661F842D0E946C02660C65
:100E300061E0852D0E946C0260E0852D0E946C02AD
:100E40007A947110EDCFDCCF61E0F60180810F90D4
:100E50000F90DF91CF911F910F91FF90EF90DF9056
:100E6000CF90BF90AF909F908F907F906F905F904A
:100E70004F900C946C02EF92FF920F931F93CF93BD
:100E80007C018C0183E0000F111F8A95E1F700526D
:100E90001E4EC1E0F80111928F0120E04C2FB701E6
:100EA00080ED91E10E94BF06CF5FC93099F7CF91E5
:100EB0001F910F91FF90EF9008959F92AF92BF9274
:100EC000CF92DF92EF92FF920F931F93CF93DF9316
:100ED000CDB7DEB7C054D1090FB6F894DEBF0FBE50
:100EE000CDBFC955DF4F28813981C75AD040FE0197
:100EF000319680E4DF011D928A95E9F749E1429F2E
:100F0000C001439F900D1124875E9D4F8F01BE014C
:100F1000675D7F4FAF0130E020E0FA01E20FF31F81
:100F2000DC01A20FB31FAC91A18B2F5F3F4F253087
:100F3000310599F70596485F5F4F4617570759F7F0
:100F4000FE01E15BFF4F7F019924939480E8A82E76
:100F5000B12CD12CC12CCB55DF4F88819981C55A3A
:100F6000D04018161906FCF4C5010C2C02C095954A
:100F700087950A94E2F7D70150962C915097F80183
:100F8000EC0DFD1D3081332389F1822B50968C931B
:100F9000D70150962C91492D70E060E0CE01815B25
:100FA0009F4F0E94BF06BFEFCB1ADB0AE8E0CE16C8
:100FB000D10489F6FFEFEF1AFF0A9394085F1F4FE1
:100FC00089E09812C6CFC05CDF4F0FB6F894DEBF41
:100FD0000FBECDBFDF91CF911F910F91FF90EF908A
:100FE000DF90CF90BF90AF909F900895809582231F
:100FF000F701808BCDCFCF93DF93EC0160E08E8142
:101000000E946C0261E08E810E946C0260E08E8121
:101010000E946C028BE891E00197F1F7DF91CF918C
:101020000895CF92DF92EF92FF920F931F93CF9389
:10103000DF936C017C0187E0E80EF11CD0E0C0E09A
:10104000062F10E0B8010C2E02C0759567950A9422
:10105000E2F76170F70181917F010E946C02219695
:10106000C430D10579F7C601DF91CF911F910F915F
:10107000FF90EF90DF90CF900C94FB07CF92DF9220
:10108000EF92FF920F931F93CF93DF93EC01F62E15
:10109000642F8C810E946C028D818F3F19F060E07B
:1010A0000E946C020F2D10E08F8584FF25C06E0119
:1010B00087E0C80ED11CF12CE12CB8010E2C02C027
:1010C000759567950A94E2F76170F60181916F0159
:1010D0000E946C02FFEFEF1AFF0A88E0E816F104A5
:1010E00061F7CE01DF91CF911F910F91FF90EF90AB
:1010F000DF90CF900C94FB07B80184E0759567955D
:101100008A95E1F7CE010E9411086F2DCE01DF9183
:10111000CF911F910F91FF90EF90DF90CF900C94A3
:10112000110840E0682F88E292E10C943E0881E0CB
:101130000E9491088BE39FE10197F1F70895CF9307
:10114000DF93813029F09091371298609093371295
:1011500080933B1210923C1280E480933D1280E118
:1011600080933E1280E580933F1261E080912C12C3
:101170000E949E0280912D128F3F19F061E00E9423
:101180009E0261E080912E120E949E02C8E2D2E18E
:101190009E01285232418091371284FD0BC084E0B9
:1011A00090E021962817390744F461E08E810E946F
:1011B0009E02EECF88E090E0F4CF8BE39DE00197B4
:1011C000F1F760E080912C120E946C0260E0809147
:1011D0002E120E946C0280912D128F3F19F060E058
:1011E0000E946C028091371284FD34C063E088E273
:1011F00092E10E941108CBE4D6E4CE010197F1F709
:1012000063E088E292E10E9411082197F1F763E020
:1012100088E292E10E94110883E592E00197F1F7DC
:1012200062E088E292E10E941108809137128062A8
:101230000E94910884E0809338128CE00E9491080B
:101240000E94970882E08093391286E0DF91CF9167
:101250000C94910880620E9491088BE496E40197B7
:10126000F1F78091371280620E94910883E592E045
:101270000197F1F78091371280620E949108D5CFD3
:10128000643008F063E090913B12691710F06FEF43
:10129000690FE62FF0E0E85DFD4E9489890F8068C4
:1012A0000C94910841E00E943E0881E090E008958E
:1012B000FC0124813581232B39F421E0FB0180815D
:1012C000882349F020E007C0808191810E944C3240
:1012D00021E0892BB9F7822F0895FB0101900020AE
:1012E000E9F73197AF01461B570BDC01ED91FC91FB
:1012F0000280F381E02D19948F929F92AF92BF925A
:10130000EF92FF920F931F93CF93DF93CDB7DEB78A
:10131000A1970FB6F894DEBF0FBECDBF7C01FA01D6
:10132000CB0119A2223008F42AE08E010F5D1F4F75
:10133000822E912CB12CA12CBF01A50194010E94F9
:101340001330F901CA016A300CF5605DD8016E9363
:101350008D01232B242B252B79F790E080E010972B
:1013600021F0BD01C7010E946D09A1960FB6F89446
:10137000DEBF0FBECDBFDF91CF911F910F91FF90C8
:10138000EF90BF90AF909F908F900895695CDECFF3
:10139000CF92DF92EF92FF92CF93DF936C01990F80
:1013A000EE08FF08F7FE23C06DE288EB90E10E9493
:1013B000D905EC0144275527BA014C195D096E097E
:1013C0007F092AE088EB90E10E947C09C80FD91FB1
:1013D0006EE279E088EB90E10E946D098C0F9D1F11
:1013E000DF91CF91FF90EF90DF90CF9008952AE0AA
:1013F000B701A60188EB90E10E947C09EC01E8CFDF
:101400000F931F93CF93DF93EC010E946D098C0122
:101410006EE279E0CE010E946D09800F911FDF918D
:10142000CF911F910F9108950C946D09CF93DF9385
:10143000FC0101900020E9F73197E81BF90BDC0172
:1014400038E0AD01481B590B4E175F0734F42D915E
:10145000ED01219723272883F4CFDF91CF910895C1
:10146000CF93DF93FC0101900020E9F73197E81B4F
:10147000F90BDC0138E0AD01481B590B4E175F0733
:1014800034F42D91ED01219723272883F4CFDF91A8
:10149000CF910895DC0114968D919C911597681752
:1014A000790750F4ED91FC911197E60FF71F15960F
:1014B0007C936E931497108208950F931F93CF938C
:1014C000DF938C01EB01FC01808191810097E1F0B9
:1014D0006881798161157105A9F0428153812C8160
:1014E0003D814217530770F00E9455328C819D81D7
:1014F000F801958384831D821C82DF91CF911F9117
:101500000F9108950E94D93088819981F8019183C3
:1015100080838A819B81938382838C819D81958343
:101520008483198218821B821A82E5CFFC01808194
:101530009181009711F00C94D93008950F931F9367
:10154000CF93DF93EC0188819981009759F02A812C
:101550003B812617370730F081E0DF91CF911F9153
:101560000F9108958B016F5F7F4F0E94623100974A
:1015700059F0998388831B830A832C813D81232B17
:1015800059F7FC011082E8CF80E0E7CFEF92FF929D
:101590000F931F93CF93DF93FB0101900020E9F796
:1015A0003197E61BF70BE1F07B018C01DC0114960F
:1015B000CD91DC91CE0FDF1FBE010E949E0A8823D1
:1015C00081F0F8012081318184819581B701820FFA
:1015D000931F0E945532D8011596DC93CE93149731
:1015E00081E0DF91CF911F910F91FF90EF900895CF
:1015F000EF92FF920F931F93CF93DF931F921F924F
:10160000CDB7DEB78C0169831A82FC01E480F580D6
:10161000FFEFEF1AFF0AB7010E949E0A882381F0AC
:10162000F8012081318184819581BE016F5F7F4FF8
:10163000820F931F0E945532F801F582E48281E007
:101640000F900F90DF91CF911F910F91FF90EF902E
:101650000895EF92FF920F931F93CF93DF93EC01C6
:101660007B018A01BA010E949E0A28813981811179
:1016700014C02115310519F0C9010E94D930198211
:1016800018821D821C821B821A82CE01DF91CF91AB
:101690001F910F91FF90EF9008951D830C83B70168
:1016A000C9010E945532F1CFFB0101900020E9F7FA
:1016B0003197AF01461B570B0C94290B0F931F93C7
:1016C000CF93DF93CDB7DEB762970FB6F894DEBF46
:1016D0000FBECDBF8C01CB01F801118210821382A5
:1016E0001282158214824AE0BE016F5F7F4F0E9412
:1016F000C82FBE016F5F7F4FC8010E94540B6296D6
:101700000FB6F894DEBF0FBECDBFDF91CF911F9112
:101710000F910895FB01DC0111961C921E92139605
:101720001C921E92129715961C921E921497861761
:10173000970749F0608171816115710521F044813D
:1017400055810C94290B0895FC011182108213829B
:10175000128215821482FB0101900020E9F7319773
:10176000AF01461B570B0C94290B4F925F926F925F
:101770007F92AF92BF92CF92DF92FF920F931F930F
:10178000CF93DF9300D0CDB7DEB76C015B010E9431
:101790007606B5018BE190E10E94000AF12C8BE105
:1017A00090E10E949705892B39F0CE0101960E94A5
:1017B0003E05FF24F394F3CFFF2089F38BE190E102
:1017C0000E9497058C01892B51F7E0E1F0E18BE055
:1017D000DF011D928A95E9F70E94970861E379E09D
:1017E00088E292E10E94140A61E080E00E944009D0
:1017F00067E379E088E292E10E94140AB50188E289
:1018000092E10E94140A6EEA7CE088E292E10E9472
:10181000140A60E379E088E292E10E94000A62E043
:1018200080E00E9440090E9435032B013C010E9488
:1018300035030E947606B12C8BE190E10E9497055A
:10184000892BD9F08BE190E10E942A055801BFEF66
:10185000AB1ABB0AF801E05FFF4E808360E170E1E4
:1018600088EB90E10E94000A6BE379E088EB90E15D
:101870000E94000A8501BF2CDFCFBB2041F10E94EE
:1018800035036419750986099709643F714081051C
:10189000910594F263E579E088EB90E10E94140AE7
:1018A00060E170E1C6010E94A40BC6010F900F9089
:1018B0000F90DF91CF911F910F91FF90DF90CF900C
:1018C000BF90AF907F906F905F904F9008950E946F
:1018D00035032B013C010E943503AECF0F931F93BC
:1018E000CF93DF938C01EB010E94FD2F8883C80109
:1018F00001960E94FD2F8983CE01DF91CF911F9128
:101900000F910895CF93DF931F921F92CDB7DEB74B
:10191000BE016F5F7F4F8DE990E00E946E0C898160
:101920009A810F900F90DF91CF910895CF93DF931D
:101930001F921F92CDB7DEB7BE016F5F7F4F8DE55F
:1019400097E00E946E0C89819A810F900F90DF9131
:10195000CF910895AF92BF92CF92DF92EF92FF9214
:101960000F931F93CF93DF931F921F92CDB7DEB7D4
:101970008C016B0177FF19C068E679E088EB90E194
:101980000E94000A83E1F80111928A95E9F7C801E3
:101990000F900F90DF91CF911F910F91FF90EF90DB
:1019A000DF90CF90BF90AF900895BE016F5F7F4FE3
:1019B00090E080E00E946E0C89819A81C816D90659
:1019C000DCF683E18C9D70018D9DF00C1124580193
:1019D000F3E1AF0EB11C6801E01AF10AC7010496E9
:1019E0007C01C7018C0D9D1D0E94FD2FF601819386
:1019F0006F01EA15FB05A9F7CACFCF92DF92EF92EC
:101A0000FF920F931F93CF93DF93EC017B0177FF3E
:101A100015C068E679E088EB90E10E94000A83E255
:101A2000FE0111928A95E9F7CE01DF91CF911F91C6
:101A30000F91FF90EF90DF90CF9008950E94820C5D
:101A4000E816F90634F783E28E9D80018F9D100D14
:101A500011247E01F3E2EF0EF11C6E010C1B1D0B35
:101A60000F551F4FC8018C0D9D1D0E94FD2FF601C3
:101A700081936F01EE15FF05A9F7D6CF8F929F9244
:101A8000AF92BF92DF92EF92FF920F931F93CF938B
:101A9000DF93CDB7DEB7AF970FB6F894DEBF0FBEBA
:101AA000CDBF7C015B014A0110E000E00E94820C86
:101AB000081719070CF04AC0B801CE0101960E9420
:101AC000FD0CB401CE018A960E948A0BB501CE01AD
:101AD00084960E948A0B6CA17DA1CE0101960E9482
:101AE0004C32892B51F46AA57BA5CE0145960E9404
:101AF0004C32DD24D394892B09F0D12CCE0184966D
:101B00000E94960ACE018A960E94960ADD20D9F09C
:101B100083E2FE013196D70101900D928A95E1F79B
:101B2000C701AF960FB6F894DEBF0FBECDBFDF91F1
:101B3000CF911F910F91FF90EF90DF90BF90AF90EA
:101B40009F908F9008950F5F1F4FB0CF83E2F701F2
:101B500011928A95E9F7E4CFCF92DF92EF92FF924C
:101B60000F931F93CF93DF93EC017B0177FF15C099
:101B700068E679E088EB90E10E94000A81E1FE01CD
:101B800011928A95E9F7CE01DF91CF911F910F91C4
:101B9000FF90EF90DF90CF9008950E94960CE8168A
:101BA000F90634F781E18E9D80018F9D100D11247F
:101BB0007E01F1E1EF0EF11C6E010C1B1D0B0F59A4
:101BC000184FC8018C0D9D1D0E94FD2FF6018193B9
:101BD0006F01EE15FF05A9F7D6CF0F931F93CF9393
:101BE000DF93CDB7DEB761970FB6F894DEBF0FBEB7
:101BF000CDBF10E000E00E94960C081719074CF5C5
:101C0000B801CE0101960E94AC0D6CE779E088EB3B
:101C100090E10E94140A89819A810E94C80963E8B0
:101C200079E088EB90E10E94140A8B8190E00E9499
:101C3000C8096CE879E088EB90E10E94140ABE01C3
:101C40006C5F7F4F88EB90E10E94000A0F5F1F4F8F
:101C5000D2CF61960FB6F894DEBF0FBECDBFDF9135
:101C6000CF911F910F910895FF920F931F93CF93E0
:101C7000DF93EC01F62E08811981C8010E94FD2F27
:101C8000F81621F06F2DC8010E940530CE01DF91BA
:101C9000CF911F910F91FF900895AF92BF92CF9275
:101CA000DF92EF92FF920F931F93CF93DF931F92D8
:101CB0001F92CDB7DEB78B016B0123E2C20ED11CA0
:101CC0007B015C01A61AB70AC5018E0D9F1D9A8380
:101CD0008983F70161917F01CE0101960E94340E44
:101CE000EC14FD0489F7C8010F900F90DF91CF919C
:101CF0001F910F91FF90EF90DF90CF90BF90AF902A
:101D00000895EF92FF920F931F93CF93DF931F924B
:101D10001F92CDB7DEB78C017B019A838983FB01CB
:101D20006081CE0101960E94340E0F5F1F4F1A830F
:101D30000983F7016181CE0101960E94340EC7012B
:101D40000F900F90DF91CF911F910F91FF90EF9027
:101D50000895CF93DF9300D01F92CDB7DEB70E94D6
:101D6000820C8F3F2FE092076CF06BE979E088EBF3
:101D700090E10E94000A0F900F900F900F90DF915A
:101D8000CF91089501969A838983BE016F5F7F4F3B
:101D90008DE990E00E94810EBE016D5F7F4F8FE95B
:101DA00090E00E946E0C8B819C819BA78AA7BE014C
:101DB0006D5F7F4F8FE990E00E946E0CBE01665F01
:101DC0007F4F8B819C810E944D0E8AA59BA5839697
:101DD0009C838B83BE016D5F7F4F8FE990E00E94F3
:101DE000810EC9CF2F923F924F925F926F927F9256
:101DF0009F92AF92BF92CF92DF92EF92FF920F939A
:101E00001F93CF93DF93CDB7DEB7C056D1090FB67E
:101E1000F894DEBF0FBECDBF2DB73EB7A1963FAF42
:101E20002EAFA1970E94970860E080E00E944009D1
:101E300067EA79E088E292E10E94140A61E080E0BA
:101E40000E94400964EB79E088E292E10E94140A62
:101E500060E379E0CE018D5A9F4F0E94A40B0EE102
:101E600010E08091E80F9091E90FFC0145E0EE0F42
:101E7000FF1F4A95E1F7EA5DFA4F20E2DE01119675
:101E800001900D922A95E1F79F938F938DB79EB79E
:101E9000885591090FB6F8949EBF0FBE8DBFADB7A0
:101EA000BEB7119688E5E0EDF1E101900D928A95BB
:101EB000E1F70E945D07EDB7FEB7E65AFF4F0FB698
:101EC000F894FEBF0FBEEDBF0E949D038823E1F092
:101ED0008A330CF049C081330CF070C0833209F4AE
:101EE00057C0803309F461C069968EAD9FAD699784
:101EF00062E00D9708F069C080E00E944009CE01C1
:101F00008D5A9F4F0E94120587EC91E10E94A30613
:101F1000811180C084EC91E10E94A306882309F41A
:101F2000A0CF69966EAD7FAD69976115710509F413
:101F300098CF61507109CE018D5A9F4F0E944A0A75
:101F400062E080E00E94400961EC79E088E292E181
:101F50000E94140A62E080E00E944009CE018D5A7E
:101F60009F4F0E9412057DCF883509F0BDCF80912B
:101F7000E80F9091E90F019797FD05C09093E90F45
:101F80008093E80FB1CF1093E90F0093E80FACCF27
:101F90008091E80F9091E90F01968F31910570F3D0
:101FA0001092E90F1092E80F9FCFBE016F5F7F4F35
:101FB000CE018D5A9F4F0E94C60A96CF682FCE0140
:101FC0008D5A9F4F0E94F80A8FCF80E00E944009EF
:101FD00068EC79E088E292E10E94140A62E080E015
:101FE0000E9440096DEB79E088E292E10E94140AB8
:101FF00068EE73E080E090E00E94030362E080E01E
:102000000E94400968EC79E088E292E10E94140A9B
:1020100062E072CF0E94970860E080E00E94400971
:1020200067EA79E088E292E10E94140A61E080E0C8
:102030000E94400962ED79E088E292E10E94140A70
:1020400060E379E0CE01875A9F4F0E94A40B0EE116
:1020500010E08091E80F9091E90FFC0135E0EE0F60
:10206000FF1F3A95E1F7EA5DFA4F20E2DE01119693
:1020700001900D922A95E1F79F938F932DB73EB76C
:10208000285531090FB6F8943EBF0FBE2DBFADB72E
:10209000BEB7119688E5E0EDF1E101900D928A95C9
:1020A000E1F70E945D078DB79EB7865A9F4F0FB626
:1020B000F8949EBF0FBE8DBF0E949D038823E1F060
:1020C0008A330CF049C081330CF070C0833209F4BC
:1020D00057C0803309F461C06F968EAD9FAD6F9786
:1020E00062E0099708F069C080E00E944009CE01D3
:1020F000875A9F4F0E94120587EC91E10E94A30628
:10210000811180C084EC91E10E94A306882309F428
:10211000A0CF6F966EAD7FAD6F976115710509F415
:1021200098CF61507109CE01875A9F4F0E944A0A89
:1021300062E080E00E94400961EC79E088E292E18F
:102140000E94140A62E080E00E944009CE01875A92
:102150009F4F0E9412057DCF883509F0BDCF809139
:10216000E80F9091E90F019797FD05C09093E90F53
:102170008093E80FB1CF1093E90F0093E80FACCF35
:102180008091E80F9091E90F01968F31910570F3DE
:102190001092E90F1092E80F9FCFBE016F5F7F4F43
:1021A000CE01875A9F4F0E94C60A96CF682FCE0154
:1021B000875A9F4F0E94F80A8FCF80E00E94400903
:1021C00068EC79E088E292E10E94140A62E080E023
:1021D0000E9440096DEB79E088E292E10E94140AC6
:1021E00068EE73E080E090E00E94030362E080E02C
:1021F0000E94400968EC79E088E292E10E94140AAA
:1022000062E072CF0E94970860E080E00E9440097F
:1022100067EA79E088E292E10E94140A61E080E0D6
:102220000E9440096CED79E088E292E10E94140A74
:1022300060E379E0CE01895B9F4F0E94A40B0EE121
:1022400010E08091E80F9091E90FFC0125E0EE0F7E
:10225000FF1F2A95E1F7EA5DFA4F20E2DE011196B1
:1022600001900D922A95E1F79F938F93EDB7FEB7FA
:10227000E855F1090FB6F894FEBF0FBEEDBFADB73C
:10228000BEB7119688E5E0EDF1E101900D928A95D7
:10229000E1F70E945D072DB73EB7265A3F4F0FB6B4
:1022A000F8943EBF0FBE2DBF0E949D038823E1F02E
:1022B0008A330CF04AC081330CF071C0833209F4C8
:1022C00058C0803309F462C02D968EAD9FAD2D9716
:1022D00062E00D9708F06AC080E00E944009CE01DC
:1022E000895B9F4F0E94120587EC91E10E94A30633
:1022F000982E811180C084EC91E10E94A30688236E
:1023000009F49FCF2D966EAD7FAD2D9761157105A8
:1023100009F497CF61507109CE01895B9F4F0E94EC
:102320004A0A62E080E00E94400961EC79E088E2BC
:1023300092E10E94140A62E080E00E944009CE010E
:10234000895B9F4F0E9412057CCF883509F0BCCF76
:102350008091E80F9091E90F019797FD05C0909348
:10236000E90F8093E80FB0CF1093E90F0093E80FC7
:10237000ABCF8091E80F9091E90F01968F319105D5
:1023800070F31092E90F1092E80F9ECFBE016F5FBD
:102390007F4FCE01895B9F4F0E94C60A95CF682F61
:1023A000CE01895B9F4F0E94F80A8ECF80E00E9489
:1023B000400968EC79E088E292E10E94140A62E048
:1023C00080E00E9440096DEB79E088E292E10E9492
:1023D000140A68EE73E080E090E00E94030362E07C
:1023E00080E00E94400968EC79E088E292E10E9476
:1023F000140A62E071CF0E9497082E0134E2430E66
:10240000511C83E2F20111928A95E9F765966EAD4F
:102410007FAD6597FB0101900020E9F7CF012DB654
:102420003EB6861B970B2DB73EB7281B390B0FB650
:10243000F8943EBF0FBE2DBF0DB71EB70F5F1F4FE5
:10244000C8010E945532C8010E94300A6B966EADD9
:102450007FAD6B97FB0101900020E9F7CF01861B50
:10246000970B2DB73EB7281B390B0FB6F8943EBF1C
:102470000FBE2DBF8DB79EB701966C010E945532DD
:10248000C6010E94300A29966EAD7FAD2997FB01E7
:1024900001900020E9F7CF01861B970B2DB73EB7BF
:1024A000281B390B0FB6F8943EBF0FBE2DBF8DB75A
:1024B0009EB701967C010E945532C7010E94300AE6
:1024C000B801C2010E945532B601CE01C0960E94E9
:1024D0005532B701CE01C8960E9455323E019DE4A7
:1024E000690E711CB801C3010E94A40BB12CA12C70
:1024F0000E94820CA816B9060CF0FAC0B501CE01F4
:1025000001960E94FD0C2F966EAD7FAD2F97CE01E8
:1025100001960E944C32892B09F0E6C0B92CC30108
:102520000E94960ABB20E1F00E94970860E080E0DC
:102530000E9440096AEE79E088E292E10E94140A62
:1025400061E080E00E94400968EF79E088E292E172
:102550000E94140A60ED77E080E090E00E9403039F
:10256000F80101900020E9F7CF01801B910B09973A
:10257000059738F10E94970860E080E00E944009CA
:1025800062E07AE088E292E10E94140A61E080E071
:102590000E9440096CE07AE088E292E10E94140A0D
:1025A00062E080E00E94400962E27AE088E292E123
:1025B0000E94140A60ED77E080E090E00E9403033F
:1025C000B92CF60101900020E9F7CF0109978C158D
:1025D0009D05E9F00E94970860E080E00E944009B4
:1025E00065E37AE088E292E10E94140A61E080E00B
:1025F0000E94400961E17AE088E292E10E94140AB7
:1026000060ED77E080E090E00E940303B92CF701D1
:1026100001900020E9F7CF018E199F0909970597CE
:1026200008F468C00E94970860E080E00E944009BA
:1026300064E47AE088E292E10E94140A61E080E0BA
:102640000E9440096CE07AE088E292E10E94140A5C
:1026500062E080E00E94400962E27AE088E292E172
:102660000E94140A60ED77E080E090E00E9403038E
:1026700081E090E090930610809305100FB6F894D7
:102680003EBE0FBE2DBECE01895B9F4F0E94960AB3
:10269000CE01875A9F4F0E94960ACE018D5A9F4FB6
:1026A0000E94960AA196EEADFFADA1970FB6F894E1
:1026B000FEBF0FBEEDBFC05ADF4F0FB6F894DEBFAE
:1026C0000FBECDBFDF91CF911F910F91FF90EF9083
:1026D000DF90CF90BF90AF909F907F906F905F9072
:1026E0004F903F902F900895EFEFAE1ABE0A00CFA3
:1026F000B12C15CFB110BCCF63E57AE088EB90E147
:102700000E94000A8091011090910210019690930E
:102710000210809301100E94C80927961FAE2797C8
:10272000B801C2010E945532B601CE01C0960E9486
:102730005532B701CE01C8960E94553264E67AE060
:1027400088EB90E10E94140A0E94970861E080E003
:102750000E94400968EE73E080E090E00E9403036D
:102760002DB73EB7235231090FB6F8943EBF0FBEC6
:102770002DBFADB7BEB7119683E2F20101900D9265
:102780008A95E1F70E94A90E8DB79EB783960FB682
:10279000F8949EBF0FBE8DBF69E77AE088EB90E1A9
:1027A0000E94140A0E94820C0E94C80961CFAF9255
:1027B000BF92CF92DF92EF92FF920F931F93CF932E
:1027C000DF931F921F92CDB7DEB78B016B0121E122
:1027D000C20ED11C7B015C01A61AB70AC5018E0D81
:1027E0009F1D9A838983F70161917F01CE01019634
:1027F0000E94340EEC14FD0489F7C8010F900F906D
:10280000DF91CF911F910F91FF90EF90DF90CF90CC
:10281000BF90AF9008958F929F92BF92CF92DF9218
:10282000EF92FF920F931F93CF93DF93CDB7DEB755
:1028300061970FB6F894DEBF0FBECDBF6C01B62E08
:102840004A010E94960C7C0110E000E00E151F0565
:1028500074F5B801CE0101960E94AC0D89819A8170
:102860008C159D0509F5BB82F40160817181CE0153
:1028700004960E945532BE016F5F7F4F8889998907
:102880000E94D71361960FB6F894DEBF0FBECDBF7E
:10289000DF91CF911F910F91FF90EF90DF90CF903C
:1028A000BF909F908F9008950F5F1F4FCFCF6EE81E
:1028B0007AE088EB90E10E94000AE4CF8F929F9229
:1028C000AF92BF92CF92DF92EF92FF920F931F933E
:1028D000CF93DF93CDB7DEB765970FB6F894DEBF21
:1028E0000FBECDBF8D829E82AF82B886C986DA8642
:1028F000EB86FC860D871E872F87388B498B5A8B7A
:102900006B8B7C8B8D8B0E94960C89309105CCF063
:102910006AEA7AE088EB90E10E94000A65960FB6B9
:10292000F894DEBF0FBECDBFDF91CF911F910F9105
:10293000FF90EF90DF90CF90BF90AF909F908F90DF
:10294000089501969A838983BE016F5F7F4F8DE55D
:1029500097E00E94810EBE016D5F7F4F8FE597E08B
:102960000E946E0C8B819C819D8B8C8BBE016D5F58
:102970007F4F8FE597E00E946E0CBE016B5F7F4F2B
:102980008B819C810E94D7138C899D8941969C8361
:102990008B83BE016D5F7F4F8FE597E00E94810EB4
:1029A000BDCFAF92BF92CF92DF92EF92FF920F9383
:1029B0001F93CF93DF9300D01F92CDB7DEB7BE0138
:1029C0006F5F7F4F90E080E00E946E0C89819A815A
:1029D00083369105ACF06BE979E088EB90E10E94D9
:1029E000000A0F900F900F900F90DF91CF911F91E1
:1029F0000F91FF90EF90DF90CF90BF90AF90089530
:102A000001969A838983BE016F5F7F4F90E080E0DB
:102A10000E94810EBE016D5F7F4F82E090E00E94B8
:102A20006E0C0B811C811CA30BA3BE016D5F7F4F3D
:102A300082E090E00E946E0CCB80DC805E0185E23B
:102A4000A80EB11CFE0172967F01CE1ADF0AC601E4
:102A50008E0D9F1D9C838B83F70161917F01CE01B9
:102A600003960E94340EEA14FB0489F70D5E1F4F93
:102A70001C830B83BE016D5F7F4F82E090E00E945C
:102A8000810EAFCF8F929F92AF92BF92CF92DF9283
:102A9000EF92FF920F931F93CF93DF93CDB7DEB7E3
:102AA000C655D1090FB6F894DEBF0FBECDBF27962D
:102AB0008FAE279728969FAE28972996AFAE299775
:102AC0002A96BFAE2A972B96CFAE2B972C96DFAEC9
:102AD0002C972D96EFAE2D972E96FFAE2E972F9614
:102AE0000FAF2F9760961FAF609761962FAF6197DA
:102AF00062963FAF629763964FAF639764965FAFFE
:102B0000649765966FAF659766967FAF6697679691
:102B10008FAF67970DB71EB70E94970862E080E0FD
:102B20000E9440096BEC7AE088E292E10E94140A6C
:102B300060E379E0CE01805C9F4F0E94A40B3EE1F0
:102B4000E32EF12C8091EB0F882309F457C080917C
:102B5000EA0F811153C08091E80F9091E90FFC01B9
:102B600025E0EE0FFF1F2A95E1F7EA5DFA4F20E21C
:102B7000DE01119601900D922A95E1F79F938F93B4
:102B80002DB73EB7285531090FB6F8943EBF0FBE9A
:102B90002DBFADB7BEB7119688E5E0EDF1E101902C
:102BA0000D928A95E1F70E945D078DB79EB7865A10
:102BB0009F4F0FB6F8949EBF0FBE8DBF0E949D031E
:102BC0008823E1F08A330CF049C081330CF070C0E7
:102BD000833209F457C0803309F461C026968EAD64
:102BE0009FAD269763E00D9708F069C080E00E94D2
:102BF0004009CE01805C9F4F0E94120587EC91E155
:102C00000E94A306811180C084EC91E10E94A3067A
:102C1000882309F497CF26966EAD7FAD2697611570
:102C2000710509F48FCF61507109CE01805C9F4F0F
:102C30000E944A0A61E083E00E94400961EC79E069
:102C400088E292E10E94140A61E083E00E94400958
:102C5000CE01805C9F4F0E94120574CF883509F029
:102C6000BDCF8091E80F9091E90F019797FD05C0C6
:102C70009093E90F8093E80FB1CFF092E90FE092C3
:102C8000E80FACCF8091E80F9091E90F01968F315A
:102C9000910570F31092E90F1092E80F9FCFBE01DB
:102CA0006F5F7F4FCE01805C9F4F0E94C60A96CF18
:102CB000682FCE01805C9F4F0E94F80A8FCF80E082
:102CC0000E94400961EC79E088E292E10E94140AD6
:102CD00063E080E00E9440096DEB79E088E292E1D8
:102CE0000E94140A68EE73E080E090E00E94030303
:102CF00063E080E00E94400961EC79E088E292E1C3
:102D00000E94140A63E072CF22966EAD7FAD2297C7
:102D1000DB010D900020E9F7CD01EDB6FEB6861B74
:102D2000970BEDB7FEB7E81BF90B0FB6F894FEBF93
:102D30000FBEEDBF2DB73EB72F5F3F4F6901C901F1
:102D40000E945532C6010E94300AB601CE01C296D9
:102D50000E94A40B6AEC71E1CE0184960E948A0B5A
:102D6000AE014E5C5F4FBE016C5D7F4FCE010196A0
:102D70000E943E0DCE0184960E94960ACE01C29614
:102D80000E94960A8981882309F4B0C060E379E043
:102D9000CE0184960E94A40BAE014C5D5F4F60E0B3
:102DA00028968EAD9FAD28970E940B14CE01849675
:102DB0000E94960A0E94ED0DE0EFFFE081E1DF0145
:102DC0001D928A95E9F78091EC0F9091ED0F9C018F
:102DD0002F5F3F4F3093ED0F2093EC0F9093EF0F49
:102DE0008093EE0F8AE0E5EBFBE0DE01D2960190E6
:102DF0000D928A95E1F7BE016E5C7F4FCE018496FD
:102E00000E945532CE0184960E94300ABE016C5D4C
:102E10007F4F80EF9FE00E945532EDB7FEB773976A
:102E20000FB6F894FEBF0FBEEDBFADB7BEB711969B
:102E300083E1EEEEFFE001900D928A95E1F70E94AA
:102E4000D11466ED7AE088EB90E10E94000A80914F
:102E5000E60F9091E70F01979093E70F8093E60FAD
:102E60000E94C8090E94970860E080E00E94400923
:102E70006CEE7AE088E292E10E94140A60ED77E05D
:102E800080E090E00E94030385E090E090930610BC
:102E9000809305102DB73EB72D5E3F4F0FB6F894C7
:102EA0003EBF0FBE2DBF0FB6F894FEBE0FBEEDBEE7
:102EB000CE01805C9F4F0E94960A0FB6F8941EBF09
:102EC0000FBE0DBFCA5ADF4F0FB6F894DEBF0FBE5C
:102ED000CDBFDF91CF911F910F91FF90EF90DF90C9
:102EE000CF90BF90AF909F908F9008958091E40F06
:102EF0009091E50F01969093E50F8093E40F029770
:102F00000CF064C06BEF7AE088EB90E10E94000A5D
:102F10000E94970860E080E00E94400960E37BE047
:102F200088E292E10E94140A61E080E00E94400978
:102F30006AE37BE088E292E10E94140AE0EFFFE09E
:102F400081E1DF011D928A95E9F78091EC0F909164
:102F5000ED0F9C012F5F3F4F3093ED0F2093EC0F4F
:102F60009093EF0F8093EE0F8EE0EFEBFBE0DE012E
:102F7000D29601900D928A95E1F7BE016E5C7F4F6B
:102F8000CE0184960E945532CE0184960E94300A6A
:102F9000BE016C5D7F4F80EF9FE00E945532EDB720
:102FA000FEB773970FB6F894FEBF0FBEEDBFADB777
:102FB000BEB7119683E1EEEEFFE001900D928A9587
:102FC000E1F70E94D1148AE090E060CF66E47BE0F4
:102FD00088EB90E10E94000A0E94970860E080E080
:102FE0000E94400960E37BE088E292E10E94140ABB
:102FF00061E080E00E9440096AE37BE088E292E1C0
:103000000E94140AE0EFFFE081E1DF011D928A9542
:10301000E9F78091EC0F9091ED0F9C012F5F3F4FEE
:103020003093ED0F2093EC0F9093EF0F8093EE0F02
:103030008EE0EFEBFBE0DE01D29601900D928A95D7
:10304000E1F7BE016E5C7F4FCE0184960E9455323F
:10305000CE0184960E94300ABE016C5D7F4F80EFE6
:103060009FE00E945532EDB7FEB773970FB6F89404
:10307000FEBF0FBEEDBFADB7BEB7119683E1EEEE5A
:10308000FFE001900D928A95E1F70E94D11460E172
:1030900077E280E090E00E94030368E87BE088EB41
:1030A00090E10E94000A1092E50F1092E40F81E077
:1030B00090E0ECCEAF92BF92CF92DF92EF92FF9270
:1030C0000F931F93CF93DF93CDB7DEB7C954D109C8
:1030D0000FB6F894DEBF0FBECDBFEDB6FEB60E94B0
:1030E000970860E080E00E94400964EB79E088E2A4
:1030F00092E10E94140A60E379E0CE01CE960E942C
:10310000A40B10E05EE1C52ED12C0091EA0F809156
:10311000EB0F882309F4D6C0011152C08091E80F4B
:103120009091E90FFC0145E0EE0FFF1F4A95E1F792
:10313000EA5DFA4F20E2DE01119601900D922A9588
:10314000E1F79F938F932DB73EB7285531090FB6FE
:10315000F8943EBF0FBE2DBFADB7BEB7119688E540
:10316000E0EDF1E101900D928A95E1F70E945D0793
:103170008DB79EB7865A9F4F0FB6F8949EBF0FBE6D
:103180008DBF0E949D038823D9F08A330CF046C07E
:1031900081330CF06CC0833209F454C0803309F4DD
:1031A0005EC024968EAD9FAD249761E00C9708F029
:1031B00064C080E00E944009CE01CE960E941205B4
:1031C00087EC91E10E94A3068111A2C084EC91E1F9
:1031D0000E94A306882309F498CF24966EAD7FAD94
:1031E00024976115710509F490CF61507109CE01E2
:1031F000CE960E944A0A61E080E00E94400961EC9C
:1032000079E088E292E10E94140A61E080E00E9485
:103210004009CE01CE960E94120577CF883509F07D
:10322000C0CF8091E80F9091E90F019797FD05C0FD
:103230009093E90F8093E80FB4CFD092E90FC0923A
:10324000E80FAFCF8091E80F9091E90F01968F3191
:10325000910570F31092E90F1092E80FA2CFBE0112
:103260006F5F7F4FCE01CE960E94C60A9ACF682F1D
:10327000CE01CE960E94F80A94CF80E00E944009C9
:1032800061EC79E088E292E10E94140A61E080E05A
:103290000E9440096DEB79E088E292E10E94140AF5
:1032A00068EE73E080E090E00E94030361E080E05C
:1032B0000E94400961EC79E088E292E10E94140AE0
:1032C00061E077CF002309F47BCF111179CF6DEC4A
:1032D0007BE088EB90E10E94000A61ED7BE0CE018B
:1032E00001960E94B50BBE016F5F7F4FCE01CE9657
:1032F0000E945D0ACE0101960E94960A63E080E07A
:103300000E944009CE01CE960E941205102F58CF80
:1033100062E080E00E9440096BEC7AE088E292E192
:103320000E94140A60E379E0CE018C5B9F4F0E94FB
:10333000A40B3EE1C32ED12C0091EA0F8091EB0F3C
:10334000882309F4D9C0011151C08091E80F9091F0
:10335000E90FFC0125E0EE0FFF1F2A95E1F7EA5D7A
:10336000FA4F20E2DE01119601900D922A95E1F7C5
:103370009F938F93ADB7BEB7A855B1090FB6F89418
:10338000BEBF0FBEADBF119688E5E0EDF1E1019043
:103390000D928A95E1F70E945D07EDB7FEB7E65AF8
:1033A000FF4F0FB6F894FEBF0FBEEDBF0E949D0306
:1033B0008823E1F08A330CF049C081330CF070C0EF
:1033C000833209F457C0803309F461C02A968EAD68
:1033D0009FAD2A9763E0099708F069C080E00E94DA
:1033E0004009CE018C5B9F4F0E94120587EC91E152
:1033F0000E94A3068111A8C084EC91E10E94A3065B
:10340000882309F499CF2A966EAD7FAD2A9761156E
:10341000710509F491CF61507109CE018C5B9F4F0A
:103420000E944A0A61E083E00E94400961EC79E071
:1034300088E292E10E94140A61E083E00E94400960
:10344000CE018C5B9F4F0E94120576CF883509F024
:10345000BDCF8091E80F9091E90F019797FD05C0CE
:103460009093E90F8093E80FB1CFD092E90FC0920B
:10347000E80FACCF8091E80F9091E90F01968F3162
:10348000910570F31092E90F1092E80F9FCFBE01E3
:103490006F5F7F4FCE018C5B9F4F0E94C60A96CF15
:1034A000682FCE018C5B9F4F0E94F80A8FCF80E07F
:1034B0000E94400961EC79E088E292E10E94140ADE
:1034C00063E080E00E9440096DEB79E088E292E1E0
:1034D0000E94140A68EE73E080E090E00E9403030B
:1034E00063E080E00E94400961EC79E088E292E1CB
:1034F0000E94140A63E072CF002309F477CF111100
:1035000075CF6DEC7BE088EB90E10E94000A68EDDE
:103510007BE0CE0101960E94B50BBE016F5F7F4F2D
:10352000CE018C5B9F4F0E945D0ACE0101960E94E6
:10353000960A63E080E00E944009CE018C5B9F4FB9
:103540000E941205102F52CF6EAD7FADDB010D90A2
:103550000020E9F7CD01CDB6DEB6861B970BEDB79F
:10356000FEB7E81BF90B0FB6F894FEBF0FBEEDBF18
:103570000DB71EB70F5F1F4FC8010E945532C8011B
:103580000E94300A26966EAD7FAD2697DB010D9026
:103590000020E9F7CD01861B970BEDB7FEB7E81BBE
:1035A000F90B0FB6F894FEBF0FBEEDBF2DB73EB7B7
:1035B0002F5F3F4F5901C9010E945532C5010E943A
:1035C000300AB501CE01C1960E94A40BB801CE010C
:1035D00084960E94A40BAE014F5C5F4FBE016C5DF0
:1035E0007F4FCE0101960E943E0DCE0184960E942F
:1035F000960ACE01C1960E94960AB8018AEC91E122
:103600000E94540B8981882309F4E6C00E94970820
:1036100060E080E00E94400961EE7BE088E292E198
:103620000E94140A61E080E00E944009CE010196E8
:103630000E94160ABE016F5F7F4F88E292E10E94EE
:10364000140A2BA18091EC0F9091ED0FE0EFFFE0B9
:10365000222309F479C021E1DF011D922A95E9F7BF
:103660009C012F5F3F4F3093ED0F2093EC0F909311
:10367000EF0F8093EE0F8CE0ECEEFBE0DE01D196D5
:1036800001900D928A95E1F7BE016F5C7F4FCE01EC
:1036900084960E945532CE0184960E94300ABE0163
:1036A0006C5D7F4F80EF9FE00E945532EDB7FEB713
:1036B00073970FB6F894FEBF0FBEEDBFADB7BEB7A0
:1036C000119683E1EEEEFFE001900D928A95E1F70D
:1036D0000E94D11468EE73E080E090E00E94030342
:1036E00084E090E090930610809305102DB73EB7CC
:1036F0002D5E3F4F0FB6F8943EBF0FBE2DBF0FB6E5
:10370000F894DEBE0FBECDBECE018C5B9F4F0E94F3
:10371000960ACE01CE960E94960A0FB6F894FEBE87
:103720000FBEEDBEC75BDF4F0FB6F894DEBF0FBE16
:10373000CDBFDF91CF911F910F91FF90EF90DF9060
:10374000CF90BF90AF90089521E1DF011D922A959F
:10375000E9F79C012F5F3F4F3093ED0F2093EC0F63
:103760009093EF0F8093EE0F8DE0E8EFFBE0DE012A
:10377000D19601900D928A95E1F7BE016F5C7F4F63
:10378000CE0184960E945532CE0184960E94300A62
:10379000BE016C5D7F4F80EF9FE00E945532EDB718
:1037A000FEB773970FB6F894FEBF0FBEEDBFADB76F
:1037B000BEB7119683E1EEEEFFE001900D928A957F
:1037C000E1F70E94D11468EE73E080E090E00E947F
:1037D000030385E090E086CF8091DC0F9091DD0FB0
:1037E000181619060CF070C00E94970860E37BE081
:1037F00088E292E10E94140A61E080E00E944009A0
:103800006AE37BE088E292E10E94140AE0EFFFE0C5
:1038100081E1DF011D928A95E9F78091EC0F90918B
:10382000ED0F9C012F5F3F4F3093ED0F2093EC0F76
:103830009093EF0F8093EE0F8CE0E5E0FCE0DE016B
:10384000D19601900D928A95E1F7BE016F5C7F4F92
:10385000CE0184960E945532CE0184960E94300A91
:10386000BE016C5D7F4F80EF9FE00E945532EDB747
:10387000FEB773970FB6F894FEBF0FBEEDBFADB79E
:10388000BEB7119683E1EEEEFFE001900D928A95AE
:10389000E1F70E94D11460E177E280E090E00E94BD
:1038A00003031092DD0F1092DC0F81E090E0909303
:1038B0000610809305102DB73EB72D5E3F4F0FB613
:1038C000F8943EBF0FBE2DBF0E94970860E080E0D5
:1038D0000E94400960E37BE088E292E10E94140AC2
:1038E00061E080E00E9440096AE37BE088E292E1C7
:1038F0000E94140AE0EFFFE081E1DF011D928A954A
:10390000E9F78091EC0F9091ED0F9C012F5F3F4FF5
:103910003093ED0F2093EC0F9093EF0F8093EE0F09
:103920008CE0E5E0FCE0DE01D19601900D928A95F5
:10393000E1F7BE016F5C7F4FCE0184960E94553245
:10394000CE0184960E94300ABE016C5D7F4F80EFED
:103950009FE00E945532EDB7FEB773970FB6F8940B
:10396000FEBF0FBEEDBFADB7BEB7119683E1EEEE61
:10397000FFE001900D928A95E1F70E94D1148091A9
:10398000E20F9091E30F01969093E30F8093E20F83
:103990008091DC0F9091DD0F01969093DD0F809365
:1039A000DC0F68EE73E080E090E00E9403039ECE9F
:1039B0001F920F920FB60F9211242F933F938F9364
:1039C0009F93AF93BF938091081090910910A0919D
:1039D0000A10B0910B103091071023E0230F2D3700
:1039E00058F50196A11DB11D209307108093081072
:1039F00090930910A0930A10B0930B1080910C10B3
:103A000090910D10A0910E10B0910F100196A11D74
:103A1000B11D80930C1090930D10A0930E10B093D5
:103A20000F10BF91AF919F918F913F912F910F9068
:103A30000FBE0F901F90189526E8230F0296A11D28
:103A4000B11DD2CF1F920F920FB60F9211240BB659
:103A50000F922F933F934F935F936F937F938F9327
:103A60009F93AF93BF93EF93FF938BE190E10E94FD
:103A7000B705FF91EF91BF91AF919F918F917F918A
:103A80006F915F914F913F912F910F900BBE0F90CF
:103A90000FBE0F901F9018951F920F920FB60F92A6
:103AA00011240BB60F922F938F939F93EF93FF9355
:103AB000E0912B10F0912C108081E0913110F09169
:103AC000321082FD1DC09081809134108F5F8F7302
:103AD00020913510821741F0E0913410F0E0E55E5E
:103AE000FF4E958F80933410FF91EF919F918F91AE
:103AF0002F910F900BBE0F900FBE0F901F90189537
:103B00008081F2CF1F920F920FB60F9211240BB645
:103B10000F922F933F934F935F936F937F938F9366
:103B20009F93AF93BF93EF93FF9388EB90E10E9435
:103B3000B705FF91EF91BF91AF919F918F917F91C9
:103B40006F915F914F913F912F910F900BBE0F900E
:103B50000FBE0F901F9018951F920F920FB60F92E5
:103B600011240BB60F922F938F939F93EF93FF9394
:103B7000E091C810F091C9108081E091CE10F091D1
:103B8000CF1082FD1DC090818091D1108F5F8F7307
:103B90002091D210821741F0E091D110F0E0E8546A
:103BA000FF4E958F8093D110FF91EF919F918F9150
:103BB0002F910F900BBE0F900FBE0F901F90189576
:103BC0008081F2CFCF93DF9310921E1010921D10C0
:103BD00048EE53E060E070E040931F1050932010D7
:103BE00060932110709322108AE099E090931C104A
:103BF00080931B102DEC30E0309328102093271079
:103C00002CEC30E030932A102093291028EC30E07F
:103C100030932C1020932B1029EC30E030932E1091
:103C200020932D102AEC30E03093301020932F1089
:103C30002EEC30E03093321020933110109234107B
:103C40001092351010923610109237101092BB104F
:103C50001092BA104093BC105093BD106093BE10E8
:103C60007093BF109093B9108093B81085EC90E0DA
:103C70009093C5108093C41084EC90E09093C7108B
:103C80008093C61080EC90E09093C9108093C81088
:103C900081EC90E09093CB108093CA1082EC90E07E
:103CA0009093CD108093CC1086EC90E09093CF1041
:103CB0008093CE101092D1101092D2101092D31087
:103CC0001092D41010922B1210922A1286E299E0D0
:103CD00090932912809328128CE080932C128FEFFE
:103CE00080932D128BE080932E1285E080932F120B
:103CF00084E08093301283E08093311282E08093DD
:103D00003212109233121092341210923512109215
:103D100036121092371281E00E949F08CAE0D0E06C
:103D2000D0932112C093201288E090E09093231248
:103D30008093221289E090E09093251280932412C0
:103D400081E090E0909327128093261261E08AE050
:103D50000E949E0261E0809122120E949E0261E018
:103D6000809124120E949E0261E0809124120E94A0
:103D70006C02D0932112C0932012E0EEF1E1119277
:103D800082E1E032F807D9F7D0E0C0E08091261256
:103D900090912712C817D907B4F520E04FE0BE0173
:103DA00080ED91E10E94BF0680912612909127122A
:103DB000C817D9073CF427E04BE0BE0180ED91E144
:103DC0000E94BF0620E049E0BE0180ED91E10E9423
:103DD000BF068091261290912712C817D9071CF4AC
:103DE000CE010E943B078091261290912712C8179E
:103DF000D9073CF420E04CE0BE0180ED91E10E9447
:103E0000BF062196C3CF60E379E08AEC91E10E947E
:103E1000A40B1092C91187E190E09093C811809390
:103E2000C7111092C61188E190E09093C51180935C
:103E3000C4111092571110925B1110925A111092E6
:103E40005C118CE199E09093561180935511E1E754
:103E5000F1E11082148213821582369681E1ED3AE7
:103E6000F807B9F783E092E09093B8118093B71107
:103E700080E092E09093BA118093B91184E080932E
:103E8000BB1183E08093BC1187E092E09093B61160
:103E90008093B5118AE090E09093BE118093BD119C
:103EA00084EF91E09093C0118093BF111092C311E1
:103EB0001092C2111092B1111092B2111092B3115E
:103EC0001092B4111092C111DF91CF910895CF9348
:103ED000DF93CDB7DEB7C45ED1090FB6F894DEBF6D
:103EE0000FBECDBF789484B5826084BD84B58160F7
:103EF00084BD85B5826085BD85B5816085BD8091B5
:103F00006E00816080936E0010928100809181002C
:103F10008260809381008091810081608093810024
:103F2000809180008160809380008091B1008460E6
:103F30008093B1008091B00081608093B000809147
:103F400091008260809391008091910081608093C4
:103F50009100809190008160809390008091A100F9
:103F600082608093A1008091A10081608093A10074
:103F70008091A00081608093A000809121018260E7
:103F800080932101809121018160809321018091A2
:103F9000200181608093200180917A008460809369
:103FA0007A0080917A00826080937A0080917A0012
:103FB000816080937A0080917A00806880937A0093
:103FC0001092C10088EB90E10E948F018BE190E19B
:103FD0000E948F011A8219829E012F5F3F4F1901A3
:103FE000B9018DE990E00E94810E64E275E08FE9ED
:103FF00090E00E94810E1A821982B10190E080E067
:104000000E94810E62E275E082E090E00E94810EE3
:104010001A821982B1018DE597E00E94810E60E25B
:1040200075E08FE597E00E94810E61E17CE088EB0E
:1040300090E10E94000A13E2D101E12F1D92EA955E
:10404000E9F781E08BA38CE0EBE8FFE0DE01A1560D
:10405000BF4F01900D928A95E1F7BE0161567F4FE7
:10406000CE0184589F4F0E945532CE0184589F4FF5
:104070000E94300A86E0E7E9FFE0DE01A653BF4F69
:1040800001900D928A95E1F7BE0166537F4FCE01F4
:104090008C539F4F0E945532CE018C539F4F0E94EC
:1040A000300A88E0EDE9FFE0DE01A454BF4F019043
:1040B0000D928A95E1F7BE0164547F4FCE0182557F
:1040C0009F4F0E945532CE0182559F4F0E94300A69
:1040D000BE0164587F4FC1010E945532BE016C532E
:1040E0007F4FCE010D960E945532BE0162557F4F23
:1040F000CE0145960E9455322DB73EB72352310965
:104100000FB6F8943EBF0FBE2DBFADB7BEB7119628
:10411000F10101900D921A95E1F70E94A90E3E015E
:1041200039E5630E711C81E1D3011D928A95E9F78F
:10413000EDB7FEB7B3960FB6F894FEBF0FBEEDBF56
:104140002301F3E04F0E511C60E379E0C2010E94AD
:104150005532D3018C9011969C9011971296AC9089
:1041600012971396BC9013971496CC9014971596AB
:10417000DC9015971696EC9016971796FC9017976B
:1041800018960C91189719961C9119971A962C91BC
:104190001A971B963C911B971C964C911C971D9649
:1041A0005C911D971E966C911E971F967C911F9790
:1041B00050968C910E945E14F3013296CD51DF4FE0
:1041C000F983E883C35ED0402FE011922A95E9F786
:1041D00081E090E0D3018D939C9360E379E0C2018C
:1041E0000E945532F30180809180A280B380C48008
:1041F000D580E680F780008511852285338544854A
:1042000055856685778580890E945E14CD51DF4F84
:10421000A881B981C35ED040EFE01D92EA95E9F72D
:1042200082E090E0D3018D939C9360E379E0C2013A
:104230000E945532F30180809180A280B380C480B7
:10424000D580E680F78000851185228533854485F9
:1042500055856685778580890E945E14CD51DF4F34
:10426000A881B981C35ED040EFE01D92EA95E9F7DD
:1042700083E090E0D3018D939C9360E379E0C201E9
:104280000E945532F30180809180A280B380C48067
:10429000D580E680F78000851185228533854485A9
:1042A00055856685778580890E945E14CD51DF4FE4
:1042B000A881B981C35ED040EFE01D92EA95E9F78D
:1042C00084E090E0D3018D939C9360E379E0C20198
:1042D0000E945532F30180809180A280B380C48017
:1042E000D580E680F7800085118522853385448559
:1042F00055856685778580890E945E14CD51DF4F94
:10430000A881B981C35ED040EFE01D92EA95E9F73C
:1043100085E090E0D3018D939C9360E379E0C20146
:104320000E945532F30180809180A280B380C480C6
:10433000D580E680F7800085118522853385448508
:1043400055856685778580890E945E14CD51DF4F43
:10435000A881B981C35ED040EFE01D92EA95E9F7EC
:1043600086E090E0D3018D939C9360E379E0C201F5
:104370000E945532F30180809180A280B380C48076
:10438000D580E680F78000851185228533854485B8
:1043900055856685778580890E945E14CD51DF4FF3
:1043A000A881B981C35ED040EFE01D92EA95E9F79C
:1043B00087E090E0D3018D939C9360E379E0C201A4
:1043C0000E945532F30180809180A280B380C48026
:1043D000D580E680F7800085118522853385448568
:1043E00055856685778580890E945E14CD51DF4FA3
:1043F000A881B981C35ED040EFE01D92EA95E9F74C
:1044000088E090E0D3018D939C9360E379E0C20152
:104410000E945532F30180809180A280B380C480D5
:10442000D580E680F7800085118522853385448517
:1044300055856685778580890E945E1484E00E9498
:104440009F0880912612909127121816190644F49D
:1044500021E04CE070E060E080ED91E10E94BF0659
:1044600080912612909127121816190644F428E01C
:104470004AE070E060E080ED91E10E94BF0680912B
:104480002612909127121816190624F490E080E065
:104490000E943B0760E08091C7110E949E0260E08D
:1044A0008091C4110E949E022301F3E04F0E511C23
:1044B00093012C5E3F4FCD51DF4F39832883C35E7C
:1044C000D0400E94960C5C0110E000E00A151B052C
:1044D000B4F4B801C3010E94AC0DD301ED90FC907F
:1044E000BDE2EB0EF11C61E08E2D0E949E02F301F5
:1044F00062818E2D0E946C020F5F1F4FE7CFE0910B
:104500000510F0910610EC30F10508F055C388272E
:10451000E357FD4D8F4F0C9435309922FE22DA255A
:10452000DF25E2251727AB249B284D29772A7C2DF0
:104530008A2E0E94970860E080E00E94400961EEA8
:104540007BE088E292E10E94140A6CE271E080E074
:1045500090E00E94030361E080E00E94400966E26F
:104560007CE088E292E10E94140A6CE271E080E053
:1045700090E00E94030362E080E00E94400967E34C
:104580007CE088E292E10E94140A6CE271E080E033
:1045900090E00E94030363E080E00E94400968E429
:1045A0007CE088E292E10E94140A6CE271E080E013
:1045B00090E00E94030364E080E00E94400968E507
:1045C0007CE088E292E10E94140A6CE271E080E0F3
:1045D00090E00E94030365E080E00E94400967E6E6
:1045E0007CE088E292E10E94140A87EC91E10E944B
:1045F000A3068823D1F381E090E0B2C70E94970818
:1046000060E080E00E94400967E77CE088E292E198
:104610000E94140A68EC70E080E090E00E940303BE
:1046200061E080E00E94400966E87CE088E292E177
:104630000E94140A68EC70E080E090E00E9403039E
:1046400062E080E00E9440096FE87CE088E292E14D
:104650000E94140A68EC70E080E090E00E9403037E
:1046600063E080E00E9440096BE97CE088E292E12F
:104670000E94140A60E379E0CE0181569F4F0E94A8
:10468000A40B0E949D038823C1F0CD55DF4F2881E4
:104690003981C35AD0402230310568F5682FCE01E8
:1046A00081569F4F0E94F80A63E08CE00E94400907
:1046B000CE0181569F4F0E94120587EC91E10E9426
:1046C000A306882309F41BC163EA7CE0CE0181566E
:1046D0009F4F0E945809882399F186E090E09093BB
:1046E0000610809305101092041010920310CE0152
:1046F00081569F4F37C263E08CE00E9440096BEC0B
:1047000079E088E292E10E94140A63E08CE00E9462
:1047100040096DEB79E088E292E10E94140A64E6B8
:1047200070E080E090E00E94030363E08CE00E9470
:1047300040096BEC79E088E292E10E94140AB4CF60
:1047400065EA7CE0CE0181569F4F0E94580988237C
:1047500069F086E090E0909306108093051081E068
:1047600090E09093041080930310C1CF65E67CE045
:10477000CE0181569F4F0E945809882309F4B7CF74
:1047800060E080E00E94400960E379E0CE01845857
:104790009F4F0E94A40B10E000E0F80155E0EE0FDF
:1047A000FF1F5A95E1F7EA5DFA4F80E2D3010190CD
:1047B0000D928A95E1F71F930F932DB73EB72855B9
:1047C00031090FB6F8943EBF0FBE2DBFADB7BEB7CF
:1047D000119688E5E0EDF1E101900D928A95E1F7FF
:1047E0000E945D078DB79EB7865A9F4F0FB6F8940B
:1047F0009EBF0FBE8DBF0E949D03882391F08A3318
:104800000CF053C081330CF073C0833209F457C0ED
:10481000803309F45DC062E370E080E090E00E94C4
:10482000030387EC91E10E94A306882309F4B5CF26
:1048300088E5E0EDF1E1D10101900D928A95E1F773
:104840008101BB24B394F12CE12C69968EAD9FAD10
:10485000699718161906B4F420E830E00E2C02C04F
:10486000359527950A94E2F72095D80150968C91BA
:104870005097282350962C934B2D70E060E0C10197
:104880000E94BF06BFEFEB1AFB0AE8E0EE16F10448
:10489000E1F60F5F1F4FB394F9E0BF12D4CFCE0102
:1048A00084589F4F0E94960A22CF883509F0B3CFD3
:1048B0000150110908F0AFCF0EE110E0ACCF0F5F4F
:1048C0001F4F0F31110509F0A6CF10E000E0A3CF74
:1048D000B301CE0184589F4F0E94C60A61E080E078
:1048E0000E944009CE0184589F4F0E94120593CF29
:1048F000682FCE0184589F4F0E94F80AEFCF84ECB6
:1049000091E10E94A306882309F4BBCECD55DF4F69
:1049100068817981C35AD0406115710509F4B1CE1F
:1049200061507109CE0181569F4F0E944A0A63E08F
:104930008CE00E94400961EC79E088E292E10E94FB
:10494000140A63E08CE00E944009CE0181569F4F1B
:104950000E94120596CE00910310109104100E943F
:10496000970860E080E00E94400967EA7CE088E206
:1049700092E10E94140A6CE271E080E090E00E94F3
:10498000030361E080E00E94400960EB7CE088E284
:1049900092E10E94140A6CE271E080E090E00E94D3
:1049A000030362E080E00E9440096EEB7CE088E255
:1049B00092E10E94140A6CE271E080E090E00E94B3
:1049C000030363E080E00E9440096BE97CE088E239
:1049D00092E10E94140A60E379E0C3010E94A40BF3
:1049E00088248394EE24E394F12C42E0A42EB12C8D
:1049F0000E949D03882399F0D30114962D913C9138
:104A00002230310508F041C0682FC3010E94F80A26
:104A100063E08CE00E944009C3010E94120587EC0C
:104A200091E10E94A306982E882309F474C063EADA
:104A30007CE0C3010E945809882309F496C0809243
:104A4000EA0F1092EB0F0E9476060E94970868EC1E
:104A50007CE088E292E10E94140A61E080E00E941A
:104A6000400969ED7CE088E292E10E94140AD12CB1
:104A70008BE190E10E949705892B61F1CE0184586A
:104A80009F4F0E943E05D92CF3CF63E08CE00E943B
:104A9000400961EC79E088E292E10E94140A63E047
:104AA0008CE00E9440096DEB79E088E292E10E947F
:104AB000140A68EE73E080E090E00E94030363E074
:104AC0008CE00E94400961EC79E088E292E10E946A
:104AD000140A9ECFDD2061F28BE190E10E949705E0
:104AE000892B31F60E9476060E9497086AEE7CE0D8
:104AF00088E292E10E94140A68EE73E080E090E0A0
:104B00000E9403030E9497086EEF7CE088EB90E11F
:104B10000E94000A9D2C84EC91E10E94A306882348
:104B2000E9F0D30114966D917C9161157105B1F096
:104B300061507109C3010E944A0A63E08CE00E943F
:104B4000400961EC79E088E292E10E94140A63E096
:104B50008CE00E944009C3010E941205992009F4CB
:104B600047CFC3010E94960A27C065EA7CE0C301D3
:104B70000E9458098823A9F31092EA0F8092EB0F44
:104B80000130110559F00230110579F001151105B8
:104B900011F6B0920610A0920510BDCFE3E0F0E050
:104BA000F0930610E0930510B6CFF0920610E09255
:104BB0000510B1CF0E945A180E94460682CC0E946E
:104BC000F20EFACF0E94970860E080E00E94400950
:104BD00060E17DE088E292E10E94140A6CE271E0FB
:104BE00080E090E00E94030361E080E00E944009C1
:104BF0006BE17DE088E292E10E94140A6CE271E0D0
:104C000080E090E00E94030362E080E00E9440099F
:104C100063E27DE088E292E10E94140A6CE271E0B6
:104C200080E090E00E94030363E080E00E9440097E
:104C30006BE97CE088E292E10E94140A60E379E08B
:104C4000CE0181569F4F0E94A40B0E949D03882392
:104C5000C1F0CD55DF4F28813981C35AD040223071
:104C6000310530F5682FCE0181569F4F0E94F80A1A
:104C700063E08CE00E944009CE0181569F4F0E9464
:104C8000120587EC91E10E94A306882309F4A3C0D2
:104C900063EA7CE0CE0181569F4F0E945809882329
:104CA00061F187E090E090930610809305101FCD8E
:104CB00063E08CE00E94400961EC79E088E292E1D7
:104CC0000E94140A63E08CE00E9440096DEB79E0D9
:104CD00088E292E10E94140A68EE73E080E090E0BE
:104CE0000E94030363E08CE00E94400961EC79E0DC
:104CF00088E292E10E94140ABBCF65EA7CE0CE0113
:104D000081569F4F0E945809882319F088E090E04F
:104D1000CACF63E37DE0CE0181569F4F0E94540BC2
:104D2000C156DF4F88819981CF59D040892B09F432
:104D3000DECCE0EFFFE081E1DF011D928A95E9F72B
:104D40008091EC0F9091ED0F9C012F5F3F4F3093BE
:104D5000ED0F2093EC0F9093EF0F8093EE0F8EE00A
:104D6000E5EAFFE0DE01A458BF4F01900D928A955D
:104D7000E1F7BE0164587F4FC3010E945532C30161
:104D80000E94300AB30180EF9FE00E945532EDB7D8
:104D9000FEB773970FB6F894FEBF0FBEEDBFADB769
:104DA000BEB7119683E1EEEEFFE001900D928A9579
:104DB000E1F70E94D11481E090E090930610809377
:104DC00005102DB73EB72D5E3F4F0FB6F8943EBF8E
:104DD0000FBE2DBF8CCC84EC91E10E94A3068823EA
:104DE00009F433CFCD55DF4F68817981C35AD04064
:104DF0006115710509F429CF61507109CE01815601
:104E00009F4F0E944A0A63E08CE00E94400961ECD7
:104E100079E088E292E10E94140A63E08CE00E944B
:104E20004009CE0181569F4F0E9412050ECF0E946D
:104E300035036093DE0F7093DF0F8093E00F909344
:104E4000E10F0E94970860E080E00E94400965E35E
:104E50007DE088E292E10E94140A60E971E080E05E
:104E600090E00E9403030E94970860E080E00E94A7
:104E7000400962E47DE088E292E10E94140A61E068
:104E800080E00E94400961E57DE088E292E10E94B5
:104E9000140A62E080E00E94400960E67DE088E25A
:104EA00092E10E94140A63E080E00E94400962E7F8
:104EB0007DE088E292E10E94140A6EEE72E080E0EA
:104EC00090E00E9403030E94970860E080E00E9447
:104ED00040096BE97CE088E292E10E94140A60E3F9
:104EE00079E0CE0181569F4F0E94A40B0E943503AA
:104EF0000091DE0F1091DF0F2091E00F3091E10F54
:104F0000601B710B820B930B69357F4082409105CA
:104F100008F004C10E949D038823C1F0CD55DF4FE6
:104F200028813981C35AD0402230310540F5682F9D
:104F3000CE0181569F4F0E94F80A60E08CE00E94EB
:104F40004009CE0181569F4F0E94120587EC91E1E6
:104F50000E94A306882309F4B5C063EA7CE0CE0171
:104F600081569F4F0E945809882371F163E87DE0C4
:104F700088EB90E10E94000A89E090E094CE60E026
:104F80008CE00E9440096BEC79E088E292E10E949B
:104F9000140A60E08CE00E9440096DEB79E088E241
:104FA00092E10E94140A64E670E080E090E00E94C2
:104FB000030360E08CE00E9440096BEC79E088E23A
:104FC00092E10E94140AB9CF65EA7CE0CE018156D5
:104FD0009F4F0E945809882349F06DE97DE088EBD6
:104FE00090E10E94000A8AE090E05DCE63E37DE0FC
:104FF000CE0181569F4F0E945809882309F44FC063
:10500000E0EFFFE081E1DF011D928A95E9F78091F1
:10501000EC0F9091ED0F9C012F5F3F4F3093ED0F00
:105020002093EC0F9093EF0F8093EE0F8EE0E5EA64
:10503000FFE0DE01A458BF4F01900D928A95E1F781
:10504000BE0164587F4FC3010E945532C3010E94C4
:10505000300AB30180EF9FE00E945532EDB7FEB7F2
:1050600073970FB6F894FEBF0FBEEDBFADB7BEB7D6
:10507000119683E1EEEEFFE001900D928A95E1F743
:105080000E94D11481E090E0909306108093051067
:1050900066EB7DE088EB90E10E94000A92CE65E32A
:1050A0007CE0CE0181569F4F0E945809882309F465
:1050B0001ECB6DEC7DE088EB90E10E94000A8BE056
:1050C00090E0F1CD84EC91E10E94A306882309F4DD
:1050D0000DCFCD55DF4F68817981C35AD04061151E
:1050E000710509F403CF61507109CE0181569F4FBC
:1050F0000E944A0A60E08CE00E94400961EC79E07D
:1051000088E292E10E94140A60E08CE00E9440096B
:10511000CE0181569F4F0E941205E8CE81E090E0BB
:10512000909306108093051064EE7DE088EB90E18B
:105130000E94000ADCCA0E94970860E080E00E949A
:1051400040096EEF7DE088E292E10E94140A61E07E
:1051500080E00E9440096BE07EE088E292E10E94DC
:10516000140A62E080E00E94400967E17EE088E284
:1051700092E10E94140A87EC91E10E94A306882321
:1051800009F47DC00E94970870E060E0C3010E94AE
:10519000AA0C10E000E0730132E0E30EF11C0E9463
:1051A000970860E080E00E94400965E27EE088E2C6
:1051B00092E10E94140A61E080E00E944009D3015C
:1051C0006D917C91CE0184589F4F0E945E0BCE0161
:1051D00084589F4F0E941205CE0184589F4F0E9411
:1051E000960A62E080E00E944009C7010E94160A08
:1051F000B701CE0184589F4F0E94A40BCE01845862
:105200009F4F0E941205CE0184589F4F0E94960A1C
:1052100087EC91E10E94A306882321F10F5F1F4FC5
:10522000BE0164587F4F90E080E00E946E0CEE96C5
:105230008EAD9FADEE970817190714F010E000E04F
:105240000E949708B801CE0180539F4F0E94AA0C7C
:1052500083E1FE01E053FF4FD30101900D928A9547
:10526000E1F79DCF84EC91E10E94A306882381F2AF
:1052700084E090E0909306108093051007C084ECC2
:1052800091E10E94A306882309F475CF6CE271E0D6
:1052900080E090E00E9403038FCC0E94970860E0BA
:1052A00080E00E94400966E37EE088E292E10E948D
:1052B000140A61E080E00E94400964E47EE088E234
:1052C00092E10E94140A62E080E00E9440096BE0D3
:1052D0007EE088E292E10E94140A63E080E00E948E
:1052E000400967E17EE088E292E10E94140A87ECBF
:1052F00091E10E94A306882309F4F1C00E94970857
:1053000060E080E00E94400960E57EE088E292E192
:105310000E94140A61E080E00E94400961E67EE09C
:1053200088E292E10E94140A62E080E00E94400953
:105330006BE67EE088E292E10E94140A63E088E076
:105340000E94400910E000E0F12CE12C0E94960C34
:105350000817190774F4B801C3010E94AC0DF301DA
:105360008281882319F0FFEFEF1AFF0A0F5F1F4FAA
:10537000EDCFB701C3010E945E0BC3010E9412056D
:10538000C3010E94960A68EB7BE080E090E00E94F7
:1053900003030E94970860E080E00E94400960E5F6
:1053A0007EE088E292E10E94140A61E080E00E94BF
:1053B000400968E77EE088E292E10E94140A62E018
:1053C00080E00E94400961E87EE088E292E10E946C
:1053D000140A63E088E00E9440096091E40F709134
:1053E000E50F8091E20F9091E30F680F791FC301E1
:1053F0000E945E0BC3010E941205C3010E94960A1F
:1054000068EB7BE080E090E00E9403030E94970835
:1054100060E080E00E94400960E57EE088E292E181
:105420000E94140A61E080E00E9440096CE87EE07E
:1054300088E292E10E94140A62E080E00E94400942
:1054400065E97EE088E292E10E94140A63E088E068
:105450000E94400965E67CE088E292E10E94140A1D
:1054600068EB7BE080E090E00E9403030E949708D5
:1054700060E080E00E94400960E57EE088E292E121
:105480000E94140A61E080E00E94400962EA7EE026
:1054900088E292E10E94140A62E080E00E944009E2
:1054A0006CEA7EE088E292E10E94140A63E088E000
:1054B0000E9440090E94820CBC0161507109C30125
:1054C0000E945E0BC3010E941205C3010E94960A4E
:1054D00068EB7BE080E090E00E940303C9CE84EC9F
:1054E00091E10E94A306882309F401CFCFCE0E9448
:1054F000960C7C0110E000E00E151F059CF4B8012D
:10550000C3010E94AC0DD30112968C9112978111A8
:105510002CC0ED90FC90C7010E94C809BFEFEB16AC
:10552000FB0631F567EB7EE088EB90E10E94000A14
:105530000E94970860E080E00E94400963EE7EE0F0
:1055400088E292E10E94140A61E080E00E94400932
:105550006EEC7EE088E292E10E94140A85E090E021
:10556000909306108093051027CB0F5F1F4FC4CF79
:105570000E94970861E080E00E9440096BEC7AE0AD
:1055800088E292E10E94140A60E379E0CE0182553C
:105590009F4F0E94A40B8091EB0F882309F458C001
:1055A0008091EA0F811154C08091E80F9091E90F2A
:1055B000FC0125E0EE0FFF1F2A95E1F7EA5DFA4FA7
:1055C00020E2D30101900D922A95E1F79F938F93EA
:1055D000EDB7FEB7E855F1090FB6F894FEBF0FBE60
:1055E000EDBFADB7BEB7119688E5E0EDF1E10190F2
:1055F0000D928A95E1F70E945D072DB73EB7265AB6
:105600003F4F0FB6F8943EBF0FBE2DBF0E949D03C3
:105610008823F1F08A330CF04DC081330CF070C058
:10562000833209F459C0803309F463C0CE54DF4F8C
:1056300088819981C25BD04063E00D9708F067C014
:1056400080E00E944009CE0182559F4F0E941205C2
:1056500087EC91E10E94A30681117EC084EC91E168
:105660000E94A306882309F496CFCE54DF4F6881A9
:105670007981C25BD0406115710509F48CCF61500E
:105680007109CE0182559F4F0E944A0A61E083E072
:105690000E94400961EC79E088E292E10E94140ADC
:1056A00061E083E00E944009CE0182559F4F0E9435
:1056B000120571CF883509F0B9CF8091E80F90912C
:1056C000E90F019797FD05C09093E90F8093E80FCC
:1056D000ADCF8EE190E0F8CF8091E80F9091E90F87
:1056E00001968F31910580F31092E90F1092E80F27
:1056F0009DCFB301CE0182559F4F0E94C60A96CF1F
:10570000682FCE0182559F4F0E94F80A8FCF80E00C
:105710000E94400961EC79E088E292E10E94140A5B
:1057200063E080E00E9440096DEB79E088E292E15D
:105730000E94140A68EE73E080E090E00E94030388
:1057400063E080E00E94400961EC79E088E292E148
:105750000E94140A63E074CFC255DF4F68817981DB
:10576000CE5AD040DB010D900020E9F7CD010DB7F6
:105770001EB7861B970BEDB7FEB7E81BF90B0FB6EC
:10578000F894FEBF0FBEEDBF2DB73EB72F5F3F4F62
:105790005901C9010E945532C5010E94300AB50164
:1057A000CE0184589F4F0E94A40B6AEC71E1CE0198
:1057B00081569F4F0E948A0BAE0144585F4FBE0135
:1057C00061567F4FC3010E943E0DCE0181569F4F0F
:1057D0000E94960ACE0184589F4F0E94960AD301D8
:1057E0008C91882309F49EC06AEC71E1CE01845843
:1057F0009F4F0E948A0BAE0144585F4F61E0C70182
:105800000E940B14CE0184589F4F0E94960A0E945A
:10581000ED0D63EF7EE088EB90E10E94000A80913D
:10582000E60F9091E70F01969093E70F8093E60FB4
:105830000E94C8096BE07FE088EB90E10E94000ABB
:10584000E0EFFFE081E1DF011D928A95E9F78091A9
:10585000EC0F9091ED0F9C012F5F3F4F3093ED0FB8
:105860002093EC0F9093EF0F8093EE0F8BE0E3EB20
:10587000FFE0DE01A156BF4F01900D928A95E1F73E
:10588000BE0161567F4FCE0184589F4F0E94553212
:10589000CE0184589F4F0E94300ABE0164587F4F4A
:1058A00080EF9FE00E945532EDB7FEB773970FB6B9
:1058B000F894FEBF0FBEEDBFADB7BEB7119683E142
:1058C000EEEEFFE001900D928A95E1F70E94D1146F
:1058D0000E94970861E080E00E9440096FE27FE04B
:1058E00088E292E10E94140A60E971E080E090E0B1
:1058F0000E94030385E090E09093061080930510CA
:105900002DB73EB72D5E3F4F0FB6F8943EBF0FBE8A
:105910002DBF0FB6F8941EBF0FBE0DBFCE0182552E
:105920009F4F20C98091E40F9091E50F01969093CD
:10593000E50F8093E40F02970CF067C06BEF7AE0FD
:1059400088EB90E10E94000A0E94970860E080E0E6
:105950000E94400960E37BE088E292E10E94140A21
:1059600061E080E00E9440096AE37BE088E292E126
:105970000E94140AE0EFFFE081E1DF011D928A95A9
:10598000E9F78091EC0F9091ED0F9C012F5F3F4F55
:105990003093ED0F2093EC0F9093EF0F8093EE0F69
:1059A0008FE0EEEBFFE0DE01A156BF4F01900D92BC
:1059B0008A95E1F7BE0161567F4FCE0184589F4F13
:1059C0000E945532CE0184589F4F0E94300ABE017A
:1059D00064587F4F80EF9FE00E945532EDB7FEB7CD
:1059E00073970FB6F894FEBF0FBEEDBFADB7BEB74D
:1059F000119683E1EEEEFFE001900D928A95E1F7BA
:105A00000E94D11489E090E077CF66E47BE088EBD8
:105A100090E10E94000A0E94970860E080E00E94E6
:105A2000400960E37BE088E292E10E94140A61E0B1
:105A300080E00E9440096AE37BE088E292E10E94F4
:105A4000140AE0EFFFE081E1DF011D928A95E9F79A
:105A50008091EC0F9091ED0F9C012F5F3F4F3093A1
:105A6000ED0F2093EC0F9093EF0F8093EE0F8FE0EC
:105A7000EEEBFFE0DE01A156BF4F01900D928A953B
:105A8000E1F7BE0161567F4FCE0184589F4F0E94BF
:105A90005532CE0184589F4F0E94300ABE0164588F
:105AA0007F4F80EF9FE00E945532EDB7FEB77397AE
:105AB0000FB6F894FEBF0FBEEDBFADB7BEB71196DF
:105AC00083E1EEEEFFE001900D928A95E1F70E94EE
:105AD000D11460E177E280E090E00E94030368E87F
