:100000000C945A010C948B010C948B010C948B0171
:100010000C948B010C948B010C948B010C948B0130
:100020000C948B010C948B010C948B010C948B0120
:100030000C948B010C948B010C948B010C948B0110
:100040000C948B010C948B010C948B010C948B0100
:100050000C948B010C948B010C948B010C94A516C1
:100060000C948B010C9479170C944F170C948B0102
:100070000C948B010C948B010C948B010C948B01D0
:100080000C948B010C948B010C948B010C948B01C0
:100090000C9419170C94EF160C948B010C948B0193
:1000A0000C948B010C948B010C948B010C948B01A0
:1000B0000C948B010C948B010C948B010C948B0190
:1000C0000C948B010C948B010C948B010C948B0180
:1000D0000C948B010C948B010C948B010C948B0170
:1000E0000C948B010C94E31C0C949F230C946702DA
:1000F0000C9428020C9467240C9422020C9498020D
:100100000C94F1040C948C050C9435020C9436027A
:100110000C94A5290C9430020C942C020C941A0215
:100120000C94C8280C949A050C9410020C943A0272
:100130000C942D050C946E200C9407020C947606FA
:100140000C944C1D0C94DC050C94FB010C94722651
:100150000C94FF010C941E050C9414020C941E02C6
:100160000C9429060C94A4230C9490250C94550906
:100170000C94E2040C94AF170C9403020C94D80274
:100180000C94061F0C946B260C940A020C94F50137
:1001900000002100240027002A002D003000330039
:1001A00001010000040107010A01000022002500EE
:1001B00028002B002E003100340002010000050150
:1001C00008010B01000020002300260029002C005C
:1001D0002F0032000001000003010601090105059E
:1001E0000505070508080808020202020A0A0808AD
:1001F00004040404010101010101010103030303DB
:1002000003030303040707070C0C0C0C0C0C0C0C69
:100210000202020206060606060606060B0B0B0B7A
:100220000B0B0B0B0102102020080810204010209F
:1002300040800201020108040201010204081020AA
:1002400040808040201008040201800402018040A8
:100250002010080402010804020101020408102011
:100260004080010204081020408000000A0B0209AF
:100270000C0D0E0807030401000000000000000040
:10028000000000000000000000000000000000006E
:10029000000000000000121110000000000000002B
:1002A000000000000000000000000000000000004E
:1002B000AF17A52911241FBECFEFD1E2DEBFCDBFFE
:1002C00000E00CBF21E1ACEBBEE001C01D92A93003
:1002D000B207E1F71EE0A0E0B2E0EEE9F8E500E0E9
:1002E0000BBF02C007900D92AC3BB107D9F711E0EC
:1002F000C9E5D1E000E006C021970109802FFE0189
:100300000E94162AC835D10780E00807A9F70E9485
:1003100034190C943D2C0C940000FC01A089B18987
:1003200082E08C93A485B5851C92A685B7858FEC59
:100330008C93108EA489B58986E08C93A289B389A9
:100340008C9180618C93A289B3898C9188608C9305
:10035000A289B3898C9180688C930288F389E02DFF
:1003600080818F7D8083089596E0899FD00111243C
:10037000A65EBF4E90967C936E935F9791E09196A8
:100380009C939197E0918710F0918810909186103E
:10039000992339F0309751F0811108C080913610BF
:1003A0001994309719F05C968C91FACF089581508A
:1003B000823108F05AC0E82FF0E08827ED51FE4F57
:1003C0008F4F0C94162A03020702F501FB01FF016F
:1003D00035020A02100214021A021E022202280228
:1003E0002C023502300236023A02809180008F776B
:1003F000809380000895809180008F7DF9CF809157
:100400008000877FF5CF84B58F7784BD089584B54C
:100410008F7DFBCF8091B0008F778093B0000895DF
:100420008091B0008F7DF9CF809190008F7780937D
:1004300090000895809190008F7DF9CF8091900079
:10044000877FF5CF8091A0008F778093A0000895DB
:100450008091A0008F7DF9CF8091A000877FF5CF9C
:10046000809120018F778093200108958091200151
:100470008F7DF9CF80912001877FF5CFCF93DF93D8
:10048000282F30E0F901E659FD4F8491F901EC5D28
:10049000FD4FD491F901E252FE4FC491CC23A1F05B
:1004A00081110E94D701EC2FF0E0EE0FFF1FEC53FB
:1004B000FE4FA591B491EC91ED2381E090E009F419
:1004C00080E0DF91CF91089580E090E0FACF862F11
:1004D0000C943E021F93CF93DF93282F30E0F90155
:1004E000E659FD4F8491F901EC5DFD4FD491F9017E
:1004F000E252FE4FC491CC23A9F0162F81110E9425
:10050000D701EC2FF0E0EE0FFF1FE655FE4FA5914F
:10051000B4918FB7F894EC91111108C0D095DE23F7
:10052000DC938FBFDF91CF911F910895DE2BF8CF21
:10053000862F642F0C946A02CF93DF9390E0FC0126
:10054000EC5DFD4F249182529E4FFC0184918823E3
:10055000C9F090E0880F991FFC01E057FE4FA5916C
:10056000B491FC01E655FE4FC591D49161110DC0C7
:100570009FB7F8948C91209582238C9388812823AF
:1005800028839FBFDF91CF910895623051F49FB7C8
:10059000F8943C91822F809583238C93E8812E2BB5
:1005A000EFCF8FB7F894EC912E2B2C938FBFEACF1F
:1005B000862F642F0C949C023FB7F8948091D10E43
:1005C0009091D20EA091D30EB091D40E26B5A89BD7
:1005D00005C02F3F19F00196A11DB11D3FBFBA2FD5
:1005E000A92F982F8827BC01CD01620F711D811D95
:1005F000911D42E0660F771F881F991F4A95D1F71A
:1006000008958F929F92AF92BF92CF92DF92EF9216
:10061000FF924B015C010E94DC026B017C010E9495
:10062000DC026C197D098E099F09683E73408105C3
:100630009105A8F321E0821A9108A108B10888EE7B
:10064000C80E83E0D81EE11CF11C81149104A104A2
:10065000B10429F7FF90EF90DF90CF90BF90AF905B
:100660009F908F9008952FB7F8946091CD0E709160
:10067000CE0E8091CF0E9091D00E2FBF08950F9384
:100680001F93CF93DF93C82FD62F86E0C89FF0012A
:100690001124E65EFF4E11A2878D90A18130910555
:1006A000F1F058F082309105F1F1039709F440C060
:1006B000DF91CF911F910F9108956623C9F361E0F7
:1006C00070E08C2F0E94B4010E943303609372107B
:1006D000709373108093741090937510E9CF0E94FB
:1006E00033030091721010917310209174103091A7
:1006F0007510AB01BC01401B510B620B730B809159
:10070000841090918510B0E0A0E084179507A607AB
:10071000B70748F462E070E08C2FDF91CF911F9112
:100720000F910C94B40163E070E0D111C1CFF4CF0C
:1007300070E060E0F1CF6F927F928F929F92AF92C4
:10074000BF92CF92DF92EF92FF920F931F93CF93BE
:10075000DF9381E0809386100E943303009176102E
:10076000109177102091781030917910AB01BC0175
:10077000401B510B620B730B809182109091831080
:10078000B0E0A0E084179507A607B70708F014C1EA
:10079000C0E080918010C81760F4E0917C10F09167
:1007A0007D10EC0FF11D62E080810E949C02CF5F02
:1007B000F0CF712C812C912C540183948091811065
:1007C000781608F05FC0072D10E0E0917E10F091E0
:1007D0007F10E00FF11F61E080810E949C02E09198
:1007E0007E10F0917F10E00FF11F60E080810E9489
:1007F0006A02D501C401072C04C0880F991FAA1FE3
:10080000BB1F0A94D2F76C017C01E094F094612C38
:10081000809180106816F8F4C62DD0E0E0917C102D
:10082000F0917D10EC0FFD1F80810E943E02249606
:10083000CC0FDD1FC65EDF4E892B41F48881998184
:100840008C299D29998388836394E2CF888199813B
:100850008E219F21F7CFE0917E10F0917F10E00F65
:10086000F11F61E080810E946A0280917E10909168
:100870007F10080F191F60E0F80180810E949C0220
:1008800073949CCFCAE1D0E1FE018FEF9FEF278DDB
:1008900030A1232B21F4148E968F858F11A23696CA
:1008A00020E1E635F20799F7F12C96E0D92E8091F8
:1008B0008010F81608F050C0E12C0F2D10E0000F4A
:1008C000111F0E5D1F4E20918110E21608F042C0EC
:1008D000F801608171810E2C02C0769567950A94AB
:1008E000E2F7F29E900111242E0D311DEAE1F0E1B4
:1008F00080E0458D568D2417350709F461C08F5F60
:1009000036968A30B1F760FF23C0EAE1F0E190E06B
:1009100080E0448D411117C0E0917A10F0917B1076
:10092000E20FF31F4081D89EF001D99EF00D1124F3
:10093000E65EFF4E448F368F258F10A2178E61E042
:100940000E943F0305C0019636968A30910509F74B
:10095000E394B9CFF394ABCF10E089A18111182FA4
:100960002696F0E1C635DF07C1F70E943303609396
:1009700076107093771080937810909379101123EC
:10098000D9F080913B108823B9F080913910909173
:100990003A10019789F480913610DF91CF911F9121
:1009A0000F91FF90EF90DF90CF90BF90AF909F900E
:1009B0008F907F906F9008951092861080E0EDCF19
:1009C0006170BECF0895DB0114964D915C9115972F
:1009D0006D917C91DC01ED91FC910280F381E02D21
:1009E0001994AF92BF92CF92DF92EF92FF920F9342
:1009F0001F93CF93DF936C017B018B01040F151FB5
:100A0000EB015E01AE18BF08C017D10759F069911C
:100A1000D601ED91FC910190F081E02DC601199570
:100A2000892B79F7C501DF91CF911F910F91FF902D
:100A3000EF90DF90CF90BF90AF900895FC01538D61
:100A4000448D252F30E0842F90E0821B930B5417A8
:100A500010F0CF96089501970895FC01918D828D35
:100A6000981761F0A28DAE0FBF2FB11D5D968C91CE
:100A7000928D9F5F9F73928F90E008958FEF9FEF0D
:100A80000895CF92DF92EF92FF920F931F93CF932F
:100A9000DF938C01D0E0C0E00E9433036093E80E46
:100AA0007093E90E8093EA0E9093EB0E80EE9EE039
:100AB0000E942D0597FF28C00E943303C090E80EC6
:100AC000D090E90EE090EA0EF090EB0E6C197D09E3
:100AD0008E099F09C090E40ED090E50EE090E60EDE
:100AE000F090E70E6C157D058E059F05F8F2CE019E
:100AF000DF91CF911F910F91FF90EF90DF90CF90FA
:100B00000895C2E0D0E0F3CFF80181938F012197DF
:100B1000C1F3C1E0D0E0C0CFFC01918D828D981768
:100B200031F0828DE80FF11D858D90E008958FEFF3
:100B30009FEF0895FC01918D228D892F90E0805CBC
:100B40009F4F821B91098F739927089580EE9EE035
:100B50000E949A0521E0892B09F420E0822F089554
:100B60008DE79FE00E949A0521E0892B09F420E09F
:100B7000822F0895FC01A48DA80FB92FB11DA35A8F
:100B8000BF4F2C91848D90E001968F739927848FAD
:100B9000A689B7892C93A089B1898C9183708064D0
:100BA0008C93938D848D981306C00288F389E02D71
:100BB00080818F7D80830895EF92FF920F931F9322
:100BC000CF93DF93EC0181E0888F9B8D8C8D981300
:100BD0001AC0E889F989808185FF15C09FB7F8940C
:100BE000EE89FF896083E889F98980818370806458
:100BF00080839FBF81E090E0DF91CF911F910F91A3
:100C0000FF90EF900895F62E0B8D10E00F5F1F4FB1
:100C10000F731127E02E8C8D8E110CC00FB607FCC0
:100C2000FACFE889F989808185FFF5CFCE010E944E
:100C3000BA05F1CFEB8DEC0FFD2FF11DE35AFF4FFD
:100C4000F0829FB7F8940B8FEA89FB8980818062DC
:100C5000CFCFCF93DF93EC01888D8823B9F0AA8999
:100C6000BB89E889F9898C9185FD03C0808186FD67
:100C70000DC00FB607FCF7CF8C9185FFF2CF8081B6
:100C800085FFEDCFCE010E94BA05E9CFDF91CF916C
:100C9000089580E090E0892B29F00E94B005811131
:100CA0000E94000080E090E0892B29F00E94A605B8
:100CB00081110E94000080E090E0892B49F080E0E3
:100CC00090E0892B29F00E94000081110E94000011
:100CD00080E090E0892B49F080E090E0892B29F0BA
:100CE0000E94000081110C940000089590E080E0C3
:100CF0000895CF92DF92EF92FF92CF93DF930E94FD
:100D00003303EB010E9433030E9433036B0180EE37
:100D10009EE00E949A05892B29F080EE9EE00E94B9
:100D20002D05F5CFCC1ADD0A88EEC81683E0D8066B
:100D30005CF380EE9EE00E949A05892B29F7DF91F3
:100D4000CF91FF90EF90DF90CF900895CF93DF93F6
:100D5000EC018A8181110AC088810E943E020197BC
:100D600029F481E08A83DF91CF9108958A818111EE
:100D700002C080E0F8CF88810E943E02892BC9F72B
:100D80001A82F7CF4F925F926F927F928F929F92CB
:100D9000AF92BF92CF92DF92EF92FF920F931F9389
:100DA000CF93DF931F921F92CDB7DEB78C0149839B
:100DB0002A83660F771FF801EA5AFF4FE080F1801F
:100DC000EE0CFF1CF801CF01801B910B8E159F05C7
:100DD00014F41192F8CF8981F801E60FF71F81838F
:100DE0008A818083680184E5C80ED11C60E0F60129
:100DF00080810E946A025801F2E5AF0EB11C4801E1
:100E000080E5880E911C1E141F040CF5E1E0EE1A1B
:100E1000F108F801EE0DFF1D6080F5015080F4012E
:100E2000408088E0782E662D661F6627661F842D19
:100E30000E946A02660C61E0852D0E946A0260E0F1
:100E4000852D0E946A027A947110EDCFDCCF61E0AB
:100E5000F60180810F900F90DF91CF911F910F913C
:100E6000FF90EF90DF90CF90BF90AF909F908F90CA
:100E70007F906F905F904F900C946A02EF92FF9278
:100E80000F931F93CF937C018C0183E0000F111F00
:100E90008A95E1F70B551F4EC1E0F80111928F01C1
:100EA00020E04C2FB70185E990E10E94C206CF5F98
:100EB000C93099F7CF911F910F91FF90EF9008954E
:100EC0009F92AF92BF92CF92DF92EF92FF920F93D9
:100ED0001F93CF93DF93CDB7DEB7C054D1090FB6C0
:100EE000F894DEBF0FBECDBFC955DF4F28813981D1
:100EF000C75AD040FE01319680E4DF011D928A95E9
:100F0000E9F749E1429FC001439F900D1124875E9C
:100F10009D4F8F01BE01675D7F4FAF0130E020E044
:100F2000FA01E20FF31FDC01A20FB31FAC91A18BFA
:100F30002F5F3F4F2530310599F70596485F5F4F8A
:100F40004617570759F7FE01E15BFF4F7F019924D0
:100F5000939480E8A82EB12CD12CC12CCB55DF4F17
:100F600088819981C55AD04018161906FCF4C5012C
:100F70000C2C02C0959587950A94E2F7D7015096FC
:100F80002C915097F801EC0DFD1D3081332389F130
:100F9000822B50968C93D70150962C91492D70E05E
:100FA00060E0CE01815B9F4F0E94C206BFEFCB1A6B
:100FB000DB0AE8E0CE16D10489F6FFEFEF1AFF0A4C
:100FC0009394085F1F4F89E09812C6CFC05CDF4F33
:100FD0000FB6F894DEBF0FBECDBFDF91CF911F914A
:100FE0000F91FF90EF90DF90CF90BF90AF909F90C8
:100FF000089580958223F701808BCDCFCF93DF9327
:10100000EC0160E08E810E946A0261E08E810E94A4
:101010006A0260E08E810E946A028BE891E001978B
:10102000F1F7DF91CF910895CF92DF92EF92FF9287
:101030000F931F93CF93DF936C017C0187E0E80E41
:10104000F11CD0E0C0E0062F10E0B8010C2E02C069
:10105000759567950A94E2F76170F70181917F01B8
:101060000E946A022196C430D10579F7C601DF914A
:10107000CF911F910F91FF90EF90DF90CF900C9444
:10108000FE07CF92DF92EF92FF920F931F93CF93C1
:10109000DF93EC01F62E642F8C810E946A028D8111
:1010A0008F3F19F060E00E946A020F2D10E08F85DB
:1010B00084FF25C06E0187E0C80ED11CF12CE12C05
:1010C000B8010E2C02C0759567950A94E2F761701D
:1010D000F60181916F010E946A02FFEFEF1AFF0A89
:1010E00088E0E816F10461F7CE01DF91CF911F91FE
:1010F0000F91FF90EF90DF90CF900C94FE07B80116
:1011000084E0759567958A95E1F7CE010E941408F1
:101110006F2DCE01DF91CF911F910F91FF90EF9036
:10112000DF90CF900C94140840E0682F8DEE90E192
:101130000C94410881E00E9494088BE39FE10197A1
:10114000F1F70895CF93DF93813029F09091FC104F
:1011500098609093FC10809300111092011180E42C
:101160008093021180E18093031180E58093041144
:1011700061E08091F1100E949C028091F2108F3FFB
:1011800019F061E00E949C0261E08091F3100E94DE
:101190009C02CDEED0E19E012D5E30418091FC108D
:1011A00084FD0BC084E090E021962817390744F4B1
:1011B00061E08E810E949C02EECF88E090E0F4CF47
:1011C0008BE39DE00197F1F760E08091F1100E94C0
:1011D0006A0260E08091F3100E946A028091F2102E
:1011E0008F3F19F060E00E946A028091FC1084FD3C
:1011F00034C063E08DEE90E10E941408CBE4D6E4A5
:10120000CE010197F1F763E08DEE90E10E941408A2
:101210002197F1F763E08DEE90E10E94140883E5D9
:1012200092E00197F1F762E08DEE90E10E941408E0
:101230008091FC1080620E94940884E08093FD10ED
:101240008CE00E9494080E949A0882E08093FE102D
:1012500086E0DF91CF910C94940880620E949408FC
:101260008BE496E40197F1F78091FC1080620E9474
:10127000940883E592E00197F1F78091FC10806279
:101280000E949408D5CF643008F063E0909100117B
:10129000691710F06FEF690FE62FF0E0E351FF4E92
:1012A0009489890F80680C94940841E00E94410859
:1012B00081E090E00895FB0101900020E9F731976B
:1012C000AF01461B570BDC01ED91FC910280F381CD
:1012D000E02D1994CF93DF93BC018DE79FE00E942E
:1012E000E304EC016EE279E08DE79FE00E945B0988
:1012F0008C0F9D1FDF91CF9108958F929F92AF9297
:10130000BF92EF92FF920F931F93CF93DF93CDB7CE
:10131000DEB7A1970FB6F894DEBF0FBECDBF7C013C
:10132000FA01CB0119A2223008F42AE08E010F5DE8
:101330001F4F822E912CB12CA12CBF01A50194012D
:101340000E94F429F901CA016A300CF5605DD801E8
:101350006E938D01232B242B252B79F790E080E0D1
:10136000109721F0BD01C7010E945B09A1960FB63D
:10137000F894DEBF0FBECDBFDF91CF911F910F91CB
:10138000FF90EF90BF90AF909F908F900895695C11
:10139000DECFCF92DF92EF92FF92CF93DF936C017B
:1013A000990FEE08FF08F7FE23C06DE28DE79FE07E
:1013B0000E94DC05EC0144275527BA014C195D0950
:1013C0006E097F092AE08DE79FE00E947D09C80F22
:1013D000D91F6EE279E08DE79FE00E945B098C0FD8
:1013E0009D1FDF91CF91FF90EF90DF90CF900895F8
:1013F0002AE0B701A6018DE79FE00E947D09EC017C
:10140000E8CF0F931F93CF93DF93EC010E945B090A
:101410008C016EE279E0CE010E945B09800F911F82
:10142000DF91CF911F910F9108950C945B09CF9399
:10143000DF93FC0101900020E9F73197E81BF90BDD
:10144000DC0138E0AD01481B590B4E175F0734F43F
:101450002D91ED01219723272883F4CFDF91CF91A0
:101460000895DC0114968D919C9115976817790762
:1014700050F4ED91FC911197E60FF71F15967C93B0
:101480006E93149710820895FC0124813581232BDB
:1014900039F421E0FB018081882349F020E007C076
:1014A000808191810E942D2C21E0892BB9F7822F18
:1014B00008950F931F93CF93DF938C01EB01FC01F1
:1014C000808191810097E1F06881798161157105D2
:1014D000A9F0428153812C813D814217530770F05E
:1014E0000E94362C8C819D81F801958384831D8216
:1014F0001C82DF91CF911F910F9108950E94BA2A0B
:1015000088819981F801918380838A819B8193836B
:1015100082838C819D8195838483198218821B82AA
:101520001A82E5CFCF93DF93EC01888199810097F0
:1015300011F00E94BA2A198218821D821C821B8215
:101540001A82DF91CF910895FC01808191810097EB
:1015500011F00C94BA2A08950F931F93CF93DF9341
:10156000EC0188819981009759F02A813B812617E7
:10157000370730F081E0DF91CF911F910F910895EF
:101580008B016F5F7F4F0E94432B009759F0998327
:1015900088831B830A832C813D81232B59F7FC010F
:1015A0001082E8CF80E0E7CFEF92FF920F931F9376
:1015B000CF93DF93FB0101900020E9F73197E61B01
:1015C000F70BE1F07B018C01DC011496CD91DC91ED
:1015D000CE0FDF1FBE010E94AC0A882381F0F80104
:1015E0002081318184819581B701820F931F0E94F0
:1015F000362CD8011596DC93CE93149781E0DF91B9
:10160000CF911F910F91FF90EF900895EF92FF926D
:101610000F931F93CF93DF931F921F92CDB7DEB727
:101620008C0169831A82FC01E480F580FFEFEF1AD8
:10163000FF0AB7010E94AC0A882381F0F8012081DB
:10164000318184819581BE016F5F7F4F820F931F2F
:101650000E94362CF801F582E48281E00F900F9011
:10166000DF91CF911F910F91FF90EF900895EF922E
:10167000FF920F931F93CF93DF93EC017B018A01BD
:10168000BA010E94AC0A81110BC0CE010E94920ADD
:10169000CE01DF91CF911F910F91FF90EF900895B0
:1016A0001D830C83B701888199810E94362CF0CF6D
:1016B000CF93DF93EC01FB018617970749F0608118
:1016C00071816115710541F0448155810E94370B8C
:1016D000CE01DF91CF9108950E94920AF9CFFC01CB
:1016E000118210821382128215821482FB010190F2
:1016F0000020E9F73197AF01461B570B0C94370BCD
:101700007F928F929F92AF92BF92CF92DF92EF9291
:10171000FF920F931F93CF93DF9300D0CDB7DEB727
:101720007C016B0161E379E08DE79FE00E94010A93
:101730000E947906B60180EE9EE00E94010A712C9B
:1017400080EE9EE00E949A05892B39F0CE01019629
:101750000E94410577247394F3CF772089F380EEBC
:101760009EE00E949A058C01892B51F7E5EDFEE081
:101770008BE0DF011D928A95E9F70E949A0865E4E3
:1017800079E08DEE90E10E94150A61E080E00E9410
:1017900043096BE479E08DEE90E10E94150AB601F1
:1017A0008DEE90E10E94150A61E47CE08DEE90E1FF
:1017B0000E94150A60E379E08DEE90E10E94010A33
:1017C00062E080E00E9443090E9433034B015C0108
:1017D0000E9433030E947906D12C80EE9EE00E9485
:1017E0009A05892BD9F080EE9EE00E942D056801B4
:1017F000BFEFCB1ADB0AF801EB52F14F808365EDA6
:101800007EE08DE79FE00E94010A6FE479E08DE7BA
:101810009FE00E94010A8601D72CDFCFD11007C0BC
:101820000E9433034B015C010E943303D6CF0E9418
:101830003303681979098A099B09643F714081055E
:1018400091055CF261E379E08DE79FE00E94010A77
:1018500067E679E08DE79FE00E94150A65ED7EE07E
:10186000C7010E946F0BC7010F900F900F90DF917F
:10187000CF911F910F91FF90EF90DF90CF90BF908D
:10188000AF909F908F907F9008950F931F93CF9369
:10189000DF938C01EB010E94DE298883C801019649
:1018A0000E94DE298983CE01DF91CF911F910F9194
:1018B0000895CF93DF931F921F92CDB7DEB7BE017D
:1018C0006F5F7F4F8AEF97E00E94450C89819A8174
:1018D0000F900F90DF91CF910895CF93DF931F92D8
:1018E0001F92CDB7DEB7BE016F5F7F4F90E080E003
:1018F0000E94450C89819A810F900F90DF91CF91C2
:101900000895AF92BF92CF92DF92EF92FF920F9322
:101910001F93CF93DF931F921F92CDB7DEB78C0139
:101920006B0177FF19C06CE779E08DE79FE00E94BB
:10193000010A83E1F80111928A95E9F7C8010F9035
:101940000F90DF91CF911F910F91FF90EF90DF905B
:10195000CF90BF90AF900895BE016F5F7F4F8DE92C
:1019600090E00E94450C89819A81C816D906DCF660
:1019700083E18C9D70018D9DF00C11245801F3E1E1
:10198000AF0EB11C6801E01AF10AC7018F559F4FD5
:101990007C01C7018C0D9D1D0E94DE29F6018193FB
:1019A0006F01EA15FB05A9F7C9CFCF92DF92EF923D
:1019B000FF920F931F93CF93DF93EC017B010E9463
:1019C000590CE816F906ACF06CE779E08DE79FE07A
:1019D0000E94010A83E2FE0111928A95E9F7CE0185
:1019E000DF91CF911F910F91FF90EF90DF90CF90FB
:1019F000089583E28E9D80018F9D100D11247E013C
:101A0000F3E2EF0EF11C6E010C1B1D0B0250184F80
:101A1000C8018C0D9D1D0E94DE29F60181936F0186
:101A2000EE16FF06A9F7DBCF8F929F92AF92BF927F
:101A3000DF92EF92FF920F931F93CF93DF93CDB777
:101A4000DEB7AF970FB6F894DEBF0FBECDBF7C01F7
:101A50005B014A0110E000E00E94590C08171907C9
:101A60000CF056C0B801CE0101960E94D50C1BA601
:101A70001AA61DA61CA61FA61EA6B401CE018A96F4
:101A80000E94580B1DA21CA21FA21EA219A618A6D6
:101A9000B501CE0184960E94580B6CA17DA1CE01A8
:101AA00001960E942D2C892B51F46AA57BA5CE01AD
:101AB00045960E942D2CDD24D394892B09F0D12C3E
:101AC000CE0184960E94A40ACE018A960E94A40A9E
:101AD000DD20D9F083E2FE013196D70101900D920D
:101AE0008A95E1F7C701AF960FB6F894DEBF0FBE37
:101AF000CDBFDF91CF911F910F91FF90EF90DF90BD
:101B0000BF90AF909F908F9008950F5F1F4FA4CF0D
:101B100083E2F70111928A95E9F7E4CF8F929F92C1
:101B2000AF92BF92CF92DF92EF92FF920F931F93EB
:101B3000CF93DF93CDB7DEB7C654D1090FB6F89473
:101B4000DEBF0FBECDBF8EAA9FAAA8AEB9AECAAEE9
:101B5000DBAEECAEFDAE0EAF1FAF21962FAF2197DF
:101B600022963FAF229723964FAF239724965FAFDD
:101B7000249725966FAF259726967FAF26972796B1
:101B80008FAF2797EDB6FEB6182D0E949A0862E037
:101B900080E00E94430960E979E08DEE90E10E94C7
:101BA000150A60E379E0CE01C0960E946F0B3EE11A
:101BB000C32ED12C8091C70E882309F458C0809180
:101BC000C60E811154C08091C40E9091C50EFC01C7
:101BD00025E0EE0FFF1F2A95E1F7EA5DFA4F20E2BC
:101BE000DE01119601900D922A95E1F79F938F9354
:101BF0002DB73EB7285531090FB6F8943EBF0FBE3A
:101C00002DBFADB7BEB7119688E5E5E9F0E10190CB
:101C10000D928A95E1F70E9460078DB79EB7865AAC
:101C20009F4F0FB6F8949EBF0FBE8DBF0E949B03BF
:101C3000682F8823E1F08A330CF0B5C081330CF0B3
:101C4000DBC0833209F4C3C0803309F4CDC08CA952
:101C50009DA963E0089708F0D4C080E00E94430982
:101C6000BE01605D7F4F8DEE90E10E94E3048CE841
:101C700090E10E94A606882309F4E8C0CE01C09630
:101C80000E946A0968A979A9FB0101900020E9F77F
:101C9000CF01CDB6DEB6861B970B2DB73EB7281BFE
:101CA000390B0FB6F8943EBF0FBE2DBF8DB79EB750
:101CB00001965C010E94362CC5010E94170AB501ED
:101CC000CE018A960E946F0B1DA21CA21FA21EA20B
:101CD00019A618A66FE870E1CE0184960E94580BF1
:101CE000AE01465D5F4FBE016C5D7F4FCE01019638
:101CF0000E94140DCE0184960E94A40ACE018A96F9
:101D00000E94A40A8981882309F4C9C0145D61E096
:101D1000812F0E949C0261E0812F0E946A0268EE7E
:101D200073E080E090E00E94010360E0812F0E9458
:101D30006A020E949A0860E080E00E94430960EB1A
:101D400079E08DEE90E10E94150A60ED77E080E089
:101D500090E00E94010385E090E09093CB0E809389
:101D6000CA0E0FB6F894DEBE0FBECDBECE01C09631
:101D70000E94A40A0FB6F894FEBE0FBEEDBECA5B69
:101D8000DF4F0FB6F894DEBF0FBECDBFDF91CF910E
:101D90001F910F91FF90EF90DF90CF90BF90AF9089
:101DA0009F908F900895883509F051CF8091C40E8F
:101DB0009091C50E019797FD05C09093C50E809335
:101DC000C40E45CFD092C50EC092C40E40CF8091B4
:101DD000C40E9091C50E01968F31910570F310924B
:101DE000C50E1092C40E33CFBE016F5F7F4FCE0180
:101DF000C0960E94D40A2BCFCE01C0960E94060B3B
:101E000026CF80E00E9443096BE979E08DEE90E1F6
:101E10000E94150A63E080E00E9443096CEA79E0C1
:101E20008DEE90E10E94150A68EE73E080E090E08C
:101E30000E94010363E080E00E9443096BE979E0BE
:101E40008DEE90E10E94150A63E007CF89E890E1EA
:101E50000E94A606882309F4ADCE6CA97DA9611560
:101E6000710509F4A7CE61507109CE01C0960E9498
:101E7000310A61E083E00E9443096BE979E08DEE6D
:101E800090E10E94150A61E083E00E944309BE01CF
:101E9000605D7F4F8DEE90E10E94E3048BCE8091D8
:101EA000C20E9091C30E01969093C30E8093C20E02
:101EB0000297FCF46FEB79E08DE79FE00E94010A46
:101EC0000E949A0860E080E00E94430964EF79E094
:101ED0008DEE90E10E94150A61E080E00E944309C6
:101EE0006EEF79E08DEE90E10E94150A8AE090E0B5
:101EF00034CF6AE07AE08DE79FE00E94010A0E94F9
:101F00009A0860E080E00E94430964EF79E08DEE7A
:101F100090E10E94150A61E080E00E9443096EEFA3
:101F200079E08DEE90E10E94150A60E177E280E0B1
:101F300090E00E9401036CE47AE08DE79FE00E944C
:101F4000010A1092C30E1092C20E81E090E005CFFC
:101F5000CF92DF92EF92FF920F931F93CF93DF9375
:101F6000EC017B0177FF15C06CE779E08DE79FE01E
:101F70000E94010A81E1FE0111928A95E9F7CE01E2
:101F8000DF91CF911F910F91FF90EF90DF90CF9055
:101F900008950E946D0CE816F90634F781E18E9DD4
:101FA00080018F9D100D11247E01F1E1EF0EF11CD7
:101FB0006E010C1B1D0B0F551F4FC8018C0D9D1D75
:101FC0000E94DE29F60181936F01EE15FF05A9F746
:101FD000D6CFFF920F931F93CF93DF93EC01F62E92
:101FE00008811981C8010E94DE29F81621F06F2DA1
:101FF000C8010E94E629CE01DF91CF911F910F9178
:10200000FF900895EF92FF920F931F93CF93DF936A
:102010001F921F92CDB7DEB78C017B019A83898313
:10202000FB016081CE0101960E94E90F0F5F1F4FF7
:102030001A830983F7016181CE0101960E94E90F9D
:10204000C7010F900F90DF91CF911F910F91FF90DB
:10205000EF900895AF92BF92CF92DF92EF92FF92EE
:102060000F931F93CF93DF931F921F92CDB7DEB7CD
:102070008B016B0121E1C20ED11C7B015C01A61A10
:10208000B70AC5018E0D9F1D9A838983F70161915F
:102090007F01CE0101960E94E90FEC14FD0489F73F
:1020A000C8010F900F90DF91CF911F910F91FF907A
:1020B000EF90DF90CF90BF90AF9008958F929F9256
:1020C000AF92BF92CF92DF92EF92FF920F931F9346
:1020D000CF93DF93CDB7DEB765970FB6F894DEBF29
:1020E0000FBECDBF8D829E82AF82B886C986DA864A
:1020F000EB86FC860D871E872F87388B498B5A8B82
:102100006B8B7C8B8D8B0E946D0C89309105CCF094
:1021100069E77AE08DE79FE00E94010A65960FB6B5
:10212000F894DEBF0FBECDBFDF91CF911F910F910D
:10213000FF90EF90DF90CF90BF90AF909F908F90E7
:10214000089501969A838983BE016F5F7F4F90E067
:1021500080E00E940210BE016D5F7F4F82E090E040
:102160000E94450C8B819C819D8B8C8BBE016D5F89
:102170007F4F82E090E00E94450CBE016B5F7F4F75
:102180008B819C810E942A108C899D8941969C8319
:102190008B83BE016D5F7F4F82E090E00E94021052
:1021A000BDCFAF92BF92CF92DF92EF92FF920F938B
:1021B0001F93CF93DF9300D01F92CDB7DEB7BE0140
:1021C0006F5F7F4F8DE990E00E94450C89819A8175
:1021D00083369105ACF06AE97AE08DE79FE00E94D2
:1021E000010A0F900F900F900F90DF91CF911F91E8
:1021F0000F91FF90EF90DF90CF90BF90AF90089538
:1022000001969A838983BE016F5F7F4F8DE990E0CD
:102210000E940210BE016D5F7F4F8FE990E00E9427
:10222000450C0B811C811CA30BA3BE016D5F7F4F6E
:102230008FE990E00E94450CCB80DC805E0185E256
:10224000A80EB11CFE0172967F01CE1ADF0AC601EC
:102250008E0D9F1D9C838B83F70161917F01CE01C1
:1022600003960E94E90FEA14FB0489F70D5E1F4FE5
:102270001C830B83BE016D5F7F4F8FE990E00E944E
:102280000210AFCFAF92BF92CF92DF92EF92FF9248
:102290000F931F93CF93DF9300D01F92CDB7DEB77C
:1022A0000E94590C8F3F2FE09207ACF06AE97AE068
:1022B0008DE79FE00E94010A0F900F900F900F9002
:1022C000DF91CF911F910F91FF90EF90DF90CF9012
:1022D000BF90AF90089501969A838983BE016F5F86
:1022E0007F4F8AEF97E00E940210BE016D5F7F4F23
:1022F0008CEF97E00E94450C0B811C811BAB0AAB55
:10230000BE016D5F7F4F8CEF97E00E94450CCB8044
:10231000DC805E0185E3A80EB11CFE0172967F0190
:10232000CE1ADF0AC6018E0D9F1D9C838B83F70199
:1023300061917F01CE0103960E94E90FEA14FB042C
:1023400089F70D5D1F4F1C830B83BE016D5F7F4FAF
:102350008CEF97E00E940210AFCF2F923F924F92E6
:102360005F926F927F929F92AF92BF92CF92DF92D5
:10237000EF92FF920F931F93CF93DF93CDB7DEB70A
:10238000C056D1090FB6F894DEBF0FBECDBF2DB732
:102390003EB7A1963FAF2EAFA1970E949A0860E08A
:1023A00080E00E94430966EA7AE08DEE90E10E94A7
:1023B000150A61E080E00E94430963EB7AE08DEE4C
:1023C00090E10E94150A60E379E0CE018D5A9F4F9B
:1023D0000E946F0B0EE110E08091C40E9091C50E2B
:1023E000FC0145E0EE0FFF1F4A95E1F7EA5DFA4F69
:1023F00020E2DE01119601900D922A95E1F79F935C
:102400008F938DB79EB7885591090FB6F8949EBFEC
:102410000FBE8DBFADB7BEB7119688E5E5E9F0E117
:1024200001900D928A95E1F70E946007EDB7FEB723
:10243000E65AFF4F0FB6F894FEBF0FBEEDBF0E94E5
:102440009B038823F1F08A330CF0A1C281330CF096
:10245000C8C2833209F4AFC2803309F4B9C26996A5
:102460008EAD9FAD699762E00D9708F0C1C280E024
:102470000E944309BE016D5A7F4F8DEE90E10E948C
:10248000E3048CE890E10E94A606882309F4D5C2F3
:10249000CE018D5A9F4F0E946A090E949A0860E0FF
:1024A00080E00E94430966EA7AE08DEE90E10E94A6
:1024B000150A61E080E00E9443096CEB7AE08DEE42
:1024C00090E10E94150A60E379E0CE01875A9F4FA0
:1024D0000E946F0B0EE110E08091C40E9091C50E2A
:1024E000FC0135E0EE0FFF1F3A95E1F7EA5DFA4F88
:1024F00020E2DE01119601900D922A95E1F79F935B
:102500008F932DB73EB7285531090FB6F8943EBFCB
:102510000FBE2DBFADB7BEB7119688E5E5E9F0E176
:1025200001900D928A95E1F70E9460078DB79EB7E2
:10253000865A9F4F0FB6F8949EBF0FBE8DBF0E9464
:102540009B038823F1F08A330CF0A3C281330CF093
:10255000CAC2833209F4B1C2803309F4BBC26F9698
:102560008EAD9FAD6F9762E0099708F0C3C280E01F
:102570000E944309BE01675A7F4F8DEE90E10E9491
:10258000E3048CE890E10E94A606882309F4D7C2F0
:10259000CE01875A9F4F0E946A090E949A0860E004
:1025A00080E00E94430966EA7AE08DEE90E10E94A5
:1025B000150A61E080E00E94430966EC7AE08DEE46
:1025C00090E10E94150A60E379E0CE01895B9F4F9C
:1025D0000E946F0B0EE110E08091C40E9091C50E29
:1025E000FC0125E0EE0FFF1F2A95E1F7EA5DFA4FA7
:1025F00020E2DE01119601900D922A95E1F79F935A
:102600008F93EDB7FEB7E855F1090FB6F894FEBF0A
:102610000FBEEDBFADB7BEB7119688E5E5E9F0E1B5
:1026200001900D928A95E1F70E9460072DB73EB7A1
:10263000265A3F4F0FB6F8943EBF0FBE2DBF0E94E3
:102640009B038823F1F08A330CF0A5C281330CF090
:10265000CCC2833209F4B3C2803309F4BDC22D96D3
:102660008EAD9FAD2D9762E00D9708F0C5C280E05A
:102670000E944309BE01695B7F4F8DEE90E10E948D
:10268000E3048CE890E10E94A606982E882309F4C2
:10269000DEC2CE01895B9F4F0E946A090E949A08A0
:1026A0002E0134E2430E511C83E2F20111928A950D
:1026B000E9F765966EAD7FAD6597FB01019000204F
:1026C000E9F7CF012DB63EB6861B970B2DB73EB767
:1026D000281B390B0FB6F8943EBF0FBE2DBF0DB7A8
:1026E0001EB70F5F1F4FC8010E94362CC8010E9401
:1026F000170A6B966EAD7FAD6B97FB0101900020C2
:10270000E9F7CF01861B970B2DB73EB7281B390B76
:102710000FB6F8943EBF0FBE2DBF8DB79EB7019682
:102720006C010E94362CC6010E94170A29966EADD4
:102730007FAD2997FB0101900020E9F7CF01861BAF
:10274000970B2DB73EB7281B390B0FB6F8943EBF39
:102750000FBE2DBF8DB79EB701967C010E94362C0F
:10276000C7010E94170AB801C2010E94362CB601A7
:10277000CE01C0960E94362CB701CE01C8960E94A9
:10278000362C3E019DE4690E711CB801C3010E9404
:102790006F0BB12CA12C0E94590CA816B9060CF095
:1027A00054C2B501CE0101960E94D50C2F966EAD94
:1027B0007FAD2F97CE0101960E942D2C892B09F019
:1027C00040C2B92CC3010E94A40ABB20E1F00E94C0
:1027D0009A0860E080E00E94430964ED7AE08DEEA3
:1027E00090E10E94150A61E080E00E94430962EED8
:1027F0007AE08DEE90E10E94150A60ED77E080E0CE
:1028000090E00E940103F80101900020E9F7CF0158
:10281000801B910B0997059738F10E949A0860E098
:1028200080E00E9443096CEE7AE08DEE90E10E9418
:10283000150A61E080E00E94430966EF7AE08DEEC0
:1028400090E10E94150A62E080E00E9443096CE07A
:102850007BE08DEE90E10E94150A60ED77E080E06C
:1028600090E00E940103B92CF60101900020E9F7E5
:10287000CF0109978C159D05E9F00E949A0860E048
:1028800080E00E9443096FE17BE08DEE90E10E94C1
:10289000150A61E080E00E9443096BEF7AE08DEE5B
:1028A00090E10E94150A60ED77E080E090E00E94E0
:1028B0000103B92CF70101900020E9F7CF018E192F
:1028C0009F090997059708F4EEC10E949A0860E0F5
:1028D00080E00E9443096EE27BE08DEE90E10E9471
:1028E000150A61E080E00E94430966EF7AE08DEE10
:1028F00090E10E94150A62E080E00E9443096CE0CA
:102900007BE08DEE90E10E94150A60ED77E080E0BB
:1029100090E00E94010381E090E09093CB0E8093C1
:10292000CA0E0FB6F8943EBE0FBE2DBECE01895B17
:102930009F4F0E94A40ACE01875A9F4F0E94A40A6B
:10294000CE018D5A9F4F0E94A40AA196EEADFFAD15
:10295000A1970FB6F894FEBF0FBEEDBFC05ADF4F70
:102960000FB6F894DEBF0FBECDBFDF91CF911F91A0
:102970000F91FF90EF90DF90CF90BF90AF909F901E
:102980007F906F905F904F903F902F900895883583
:1029900009F065CD8091C40E9091C50E019797FD09
:1029A00005C09093C50E8093C40E59CD1093C50EEB
:1029B0000093C40E54CD8091C40E9091C50E019623
:1029C0008F31910570F31092C50E1092C40E47CD51
:1029D000BE016F5F7F4FCE018D5A9F4F0E94D40A78
:1029E0003ECD682FCE018D5A9F4F0E94060B37CDEA
:1029F00080E00E94430962EA79E08DEE90E10E9456
:102A0000150A62E080E00E9443096CEA79E08DEEED
:102A100090E10E94150A68EE73E080E090E00E9469
:102A2000010362E080E00E94430962EA79E08DEEF2
:102A300090E10E94150A62E01ACD89E890E10E94B7
:102A4000A606882309F4C8CC69966EAD7FAD699758
:102A50006115710509F4C0CC61507109CE018D5A20
:102A60009F4F0E94310A62E080E00E9443096BE9B7
:102A700079E08DEE90E10E94150A62E080E00E940C
:102A80004309BE016D5A7F4F8DEE90E10E94E30431
:102A9000A3CC883509F063CD8091C40E9091C50E0A
:102AA000019797FD05C09093C50E8093C40E57CD36
:102AB0001093C50E0093C40E52CD8091C40E909118
:102AC000C50E01968F31910570F31092C50E1092CC
:102AD000C40E45CDBE016F5F7F4FCE01875A9F4F19
:102AE0000E94D40A3CCD682FCE01875A9F4F0E9486
:102AF000060B35CD80E00E94430962EA79E08DEE55
:102B000090E10E94150A62E080E00E9443096CEAAD
:102B100079E08DEE90E10E94150A68EE73E080E0A6
:102B200090E00E94010362E080E00E94430962EAB3
:102B300079E08DEE90E10E94150A62E018CD89E8F7
:102B400090E10E94A606882309F4C6CC6F966EAD6C
:102B50007FAD6F976115710509F4BECC61507109A5
:102B6000CE01875A9F4F0E94310A62E080E00E94A6
:102B700043096BE979E08DEE90E10E94150A62E06D
:102B800080E00E944309BE01675A7F4F8DEE90E1BD
:102B90000E94E304A1CC883509F061CD8091C40E78
:102BA0009091C50E019797FD05C09093C50E809337
:102BB000C40E55CD1093C50E0093C40E50CD809118
:102BC000C40E9091C50E01968F31910570F310924D
:102BD000C50E1092C40E43CDBE016F5F7F4FCE0174
:102BE000895B9F4F0E94D40A3ACD682FCE01895B42
:102BF0009F4F0E94060B33CD80E00E94430962EA9A
:102C000079E08DEE90E10E94150A62E080E00E947A
:102C100043096CEA79E08DEE90E10E94150A68EEB6
:102C200073E080E090E00E94010362E080E00E9497
:102C3000430962EA79E08DEE90E10E94150A62E0B4
:102C400016CDEFEFAE1ABE0AA6CDB12CBBCD89E8EA
:102C500090E10E94A606882309F4BECC2D966EADA5
:102C60007FAD2D976115710509F4B6CC61507109DE
:102C7000CE01895B9F4F0E94310A62E080E00E9492
:102C800043096BE979E08DEE90E10E94150A62E05C
:102C900080E00E944309BE01695B7F4F8DEE90E1A9
:102CA0000E94E30499CCB11036CE27961FAE279729
:102CB000B801C2010E94362CB601CE01C0960E9416
:102CC000362CB701CE01C8960E94362C6DE37BE00E
:102CD0008DE79FE00E94150A0E949A0861E080E05B
:102CE0000E94430962E57BE08DEE90E10E94150AA7
:102CF00068EE73E080E090E00E9401032DB73EB7DC
:102D0000235231090FB6F8943EBF0FBE2DBFADB7A9
:102D1000BEB7119683E2F20101900D928A95E1F718
:102D20000E9442118DB79EB783960FB6F8949EBF4E
:102D30000FBE8DBF65E67BE08DE79FE00E94150A20
:102D40000E94590C0E94C909E6CD1F920F920FB63E
:102D50000F9211242F933F938F939F93AF93BF9321
:102D60008091CD0E9091CE0EA091CF0EB091D00E4D
:102D70003091CC0E23E0230F2D3758F50196A11D7D
:102D8000B11D2093CC0E8093CD0E9093CE0EA093C8
:102D9000CF0EB093D00E8091D10E9091D20EA09113
:102DA000D30EB091D40E0196A11DB11D8093D10E0A
:102DB0009093D20EA093D30EB093D40EBF91AF9147
:102DC0009F918F913F912F910F900FBE0F901F9069
:102DD000189526E8230F0296A11DB11DD2CF1F9290
:102DE0000F920FB60F9211240BB60F922F933F93B1
:102DF0004F935F936F937F938F939F93AF93BF9303
:102E0000EF93FF9380EE9EE00E94BA05FF91EF9151
:102E1000BF91AF919F918F917F916F915F914F91F2
:102E20003F912F910F900BBE0F900FBE0F901F90F0
:102E300018951F920F920FB60F9211240BB60F9296
:102E40002F938F939F93EF93FF93E091F00EF09168
:102E5000F10E8081E091F60EF091F70E82FD1DC01B
:102E600090818091F90E8F5F8F732091FA0E8217F7
:102E700041F0E091F90EF0E0E052F14F958F809330
:102E8000F90EFF91EF919F918F912F910F900BBEB3
:102E90000F900FBE0F901F9018958081F2CF1F9258
:102EA0000F920FB60F9211240BB60F922F933F93F0
:102EB0004F935F936F937F938F939F93AF93BF9342
:102EC000EF93FF938DE79FE00E94BA05FF91EF918A
:102ED000BF91AF919F918F917F916F915F914F9132
:102EE0003F912F910F900BBE0F900FBE0F901F9030
:102EF00018951F920F920FB60F9211240BB60F92D6
:102F00002F938F939F93EF93FF93E0918D0FF09109
:102F10008E0F8081E091930FF091940F82FD1DC080
:102F200090818091960F8F5F8F732091970F8217FA
:102F300041F0E091960FF0E0E358F04F958F8093C9
:102F4000960FFF91EF919F918F912F910F900BBE54
:102F50000F900FBE0F901F9018958081F2CFCF93E6
:102F6000DF931092E30E1092E20E48EE53E060E021
:102F700070E04093E40E5093E50E6093E60E70937C
:102F8000E70E8AE099E09093E10E8093E00E2DEC3D
:102F900030E03093ED0E2093EC0E2CEC30E03093CB
:102FA000EF0E2093EE0E28EC30E03093F10E2093DC
:102FB000F00E29EC30E03093F30E2093F20E2AEC61
:102FC00030E03093F50E2093F40E2EEC30E0309389
:102FD000F70E2093F60E1092F90E1092FA0E109240
:102FE000FB0E1092FC0E1092800F10927F0F4093F8
:102FF000810F5093820F6093830F7093840F90938F
:103000007E0F80937D0F85EC90E090938A0F8093E4
:10301000890F84EC90E090938C0F80938B0F80EC61
:1030200090E090938E0F80938D0F81EC90E09093C1
:10303000900F80938F0F82EC90E09093920F80938B
:10304000910F86EC90E09093940F8093930F1092E1
:10305000960F1092970F1092980F1092990F10924E
:10306000F0101092EF1086E299E09093EE108093AA
:10307000ED108CE08093F1108FEF8093F2108BE0D5
:103080008093F31085E08093F41084E08093F51032
:1030900083E08093F61082E08093F7101092F8108E
:1030A0001092F9101092FA101092FB101092FC106E
:1030B00081E00E94A208CAE0D0E0D093E610C0935D
:1030C000E51088E090E09093E8108093E71089E0A5
:1030D00090E09093EA108093E91081E090E0909363
:1030E000EC108093EB1061E08AE00E949C0261E0AA
:1030F0008091E7100E949C0261E08091E9100E949B
:103100009C0261E08091E9100E946A02D093E6106F
:10311000C093E510E5EAF0E1119280E1E53EF807A1
:10312000D9F7D0E0C0E08091EB109091EC10C81777
:10313000D907B4F520E04FE0BE0185E990E10E9497
:10314000C2068091EB109091EC10C817D9073CF49F
:1031500027E04BE0BE0185E990E10E94C20620E035
:1031600049E0BE0185E990E10E94C2068091EB1022
:103170009091EC10C817D9071CF4CE010E943E07AD
:103180008091EB109091EC10C817D9073CF420E027
:103190004CE0BE0185E990E10E94C2062196C3CFB2
:1031A00060E379E08FE890E10E946F0B10928E103F
:1031B00087E190E090938D1080938C1010928B108B
:1031C00088E190E090938A108093891010921C10EF
:1031D0001092201010921F10109221108CE199E093
:1031E00090931B1080931A10E6E3F0E11082148292
:1031F00013821582369680E1E237F807B9F783E04B
:1032000092E090937D1080937C1080E092E0909308
:103210007F1080937E1084E08093801083E0809301
:10322000811087E092E090937B1080937A108AE07F
:1032300090E0909383108093821084EF91E09093BC
:10324000851080938410109288101092871010922D
:1032500076101092771010927810109279101092C8
:103260008610DF91CF910895CF93DF93CDB7DEB76E
:10327000CB5ED1090FB6F894DEBF0FBECDBF7894F8
:1032800084B5826084BD84B5816084BD85B582606B
:1032900085BD85B5816085BD80916E00816080931C
:1032A0006E00109281008091810082608093810085
:1032B0008091810081608093810080918000816095
:1032C000809380008091B10084608093B1008091F0
:1032D000B00081608093B000809191008260809303
:1032E0009100809191008160809391008091900085
:1032F0008160809390008091A10082608093A10002
:103300008091A10081608093A1008091A0008160E4
:103310008093A0008091210182608093210180919F
:10332000210181608093210180912001816080933F
:10333000200180917A00846080937A0080917A00E5
:10334000826080937A0080917A00816080937A0015
:1033500080917A00806880937A001092C1008DE796
:103360009FE00E948D0180EE9EE00E948D011A82F6
:1033700019829E012F5F3F4FC851DF4F3983288349
:10338000C85ED040B90190E080E00E94021064E283
:1033900075E082E090E00E9402101A821982BE015C
:1033A0006F5F7F4F8AEF97E00E94021062E275E044
:1033B0008CEF97E00E9402101A821982BE016F5FA3
:1033C0007F4F8DE990E00E94021060E275E08FE986
:1033D00090E00E9402106AE77BE08DE79FE00E9488
:1033E000010A2E0139E5430E511C13E2F201212F8F
:1033F00011922A95E9F781E0F20182A381E690E03B
:10340000CF52DF4F99838883C15DD040BE016F5298
:103410007F4FCE0181539F4F0E94362CCE018153A6
:103420009F4F0E94170A86E0E6EBFEE0DE01A35400
:10343000BF4F01900D928A95E1F7BE0163547F4F13
:10344000CE0189549F4F0E94362CCE0189549F4F44
:103450000E94170A83E390E0C353DF4F9983888368
:10346000CD5CD040BE0163537F4FCE0185539F4F4B
:103470000E94362CCE0185539F4F0E94170ABE0131
:1034800061537F4FC2010E94362CBE0169547F4FA9
:10349000C2010C960E94362CBE0165537F4FC201BB
:1034A00044960E94362CBE0161537F4F8DE79FE00A
:1034B0000E94010ABE0165537F4F8DE79FE00E9485
:1034C000010A2DB73EB7235231090FB6F8943EBF1B
:1034D0000FBE2DBFADB7BEB71196F201812F01907F
:1034E0000D928A95E1F70E944211C851DF4FE881A1
:1034F000F981C85ED040212F11922A95E9F782E622
:1035000090E0C753DF4F99838883C95CD0408DB763
:103510009EB783960FB6F8949EBF0FBE8DBFBE01B7
:1035200067537F4FCE0189539F4F0E94362CCE01A7
:1035300089539F4F0E94170A86E0E6EBFEE0DE010A
:10354000AF54BF4F01900D928A95E1F7BE016F54C1
:103550007F4FCE0180569F4F0E94362CCE01805661
:103560009F4F0E94170A82E390E0CB53DF4F99836D
:103570008883C55CD040BE016B537F4FCE018D5315
:103580009F4F0E94362CCE018D539F4F0E94170AE9
:10359000BE0169537F4FCE0101960E94362CBE01B9
:1035A00060567F4FCE010D960E94362CBE016D53A2
:1035B0007F4FCE0145960E94362CBE0169537F4F46
:1035C0008DE79FE00E94010ABE016D537F4F8DE79A
:1035D0009FE00E94010AEDB7FEB7B3970FB6F894CB
:1035E000FEBF0FBEEDBFADB7BEB71196FE0131965F
:1035F00001900D921A95E1F70E9442119E01245804
:103600003F4FCA51DF4F39832883C65ED040A1E1C6
:10361000FA2E89010E5F1F4FF8012F2D11922A9566
:10362000E9F781E090E0EE969FAF8EAFEE97EDB7B1
:10363000FEB7B3960FB6F894FEBF0FBEEDBF69E8B4
:103640007BE0C8010E94362C2DB73EB723513109CB
:103650000FB6F8943EBF0FBE2DBFADB7BEB71196E3
:1036600083E1FE01E458FF4F01900D928A95E1F746
:103670000E94D11082E090E0EE969FAF8EAFEE9761
:1036800064E97BE0C8010E94362CEDB7FEB7739762
:103690000FB6F894FEBF0FBEEDBFADB7BEB7119623
:1036A00083E1FE01E458FF4F01900D928A95E1F706
:1036B0000E94D1103E01FFE86F0E711CF3011192C0
:1036C000FA94E9F72DB73EB72A5D3F4F0FB6F8944D
:1036D0003EBF0FBE2DBF130133E0230E311C60E34C
:1036E00079E0C1010E94362CF30180809180A28094
:1036F000B380C480D580E680F7800085118522855F
:103700003385448555856685778580890E945E105E
:1037100021E030E0F3013183208360E379E0C101EF
:103720000E94362CF30180809180A280B380C480F7
:10373000D580E680F7800085118522853385448514
:1037400055856685778580890E945E1022E030E08D
:10375000F3013183208360E379E0C1010E94362CBC
:10376000F30180809180A280B380C480D580E68000
:10377000F7800085118522853385448555856685CA
:10378000778580890E945E1083E090E0F301918349
:10379000808360E379E0C1010E94362CF3018080D0
:1037A0009180A280B380C480D580E680F7800085B8
:1037B0001185228533854485558566857785808981
:1037C0000E945E1084E090E0F3019183808360E3C7
:1037D00079E0C1010E94362CF30180809180A280A3
:1037E000B380C480D580E680F7800085118522856E
:1037F0003385448555856685778580890E945E106E
:1038000085E090E0F3019183808360E379E0C1017A
:103810000E94362CF30180809180A280B380C48006
:10382000D580E680F7800085118522853385448523
:1038300055856685778580890E945E1086E090E0D8
:10384000F3019183808360E379E0C1010E94362C0B
:10385000F30180809180A280B380C480D580E6800F
:10386000F7800085118522853385448555856685D9
:10387000778580890E945E1087E090E0F301918354
:10388000808360E379E0C1010E94362CF3018080DF
:103890009180A280B380C480D580E680F7800085C7
:1038A0001185228533854485558566857785808990
:1038B0000E945E1088E090E0F3019183808360E3D2
:1038C00079E0C1010E94362CF30180809180A280B2
:1038D000B380C480D580E680F7800085118522857D
:1038E0003385448555856685778580890E945E107D
:1038F0006EE97BE08DE79FE00E94150A0E94590C5B
:103900000E94C90984E00E94A2088091EB10909166
:10391000EC101816190644F421E04CE070E060E069
:1039200085E990E10E94C2068091EB109091EC1025
:103930001816190644F428E04AE070E060E085E9D2
:1039400090E10E94C2068091EB109091EC10181645
:10395000190624F490E080E00E943E0760E0809128
:103960008C100E949C0260E0809189100E949C0251
:103970002CE730E02C0F3D1F2E5F3F4FC651DF4F2D
:1039800039832883CA5ED040EEE16E2E712CF0E8B8
:103990002F2E312CE091CA0EF091CB0EEB30F105B9
:1039A00008F0CFC68827E852F34E8F4F0C94162AA2
:1039B000E31C4C1D6E209F23A4236724061F902523
:1039C0006B267226C8280E949A0860E080E00E9458
:1039D00043096EEA7BE08DEE90E10E94150A6CE2ED
:1039E00071E080E090E00E94010361E080E00E94CD
:1039F000430969EB7BE08DEE90E10E94150A6CE2D1
:103A000071E080E090E00E94010362E080E00E94AB
:103A100043096AEC7BE08DEE90E10E94150A6CE2AE
:103A200071E080E090E00E94010363E080E00E948A
:103A300043096BED7BE08DEE90E10E94150A6CE28C
:103A400071E080E090E00E94010364E080E00E9469
:103A500043096BEE7BE08DEE90E10E94150A6CE26B
:103A600071E080E090E00E94010365E080E00E9448
:103A700043096AEF7BE08DEE90E10E94150A8CE825
:103A800090E10E94A6068823D1F381E090E0909314
:103A9000CB0E8093CA0E55C60E949A0860E080E063
:103AA0000E9443096AE07CE08DEE90E10E94150AD5
:103AB00068EC70E080E090E00E94010361E080E04B
:103AC0000E94430969E17CE08DEE90E10E94150AB5
:103AD00068EC70E080E090E00E94010362E080E02A
:103AE0000E94430962E27CE08DEE90E10E94150A9B
:103AF00068EC70E080E090E00E94010363E080E009
:103B00000E9443096EE27CE08DEE90E10E94150A6E
:103B100060E379E0CE018F549F4F0E946F0B0E94AB
:103B20009B038823D1F0CB54DF4F28813981C55BBB
:103B3000D0402230310588F5682FCE018F549F4F39
:103B40000E94060B63E08CE00E944309BE016F54A3
:103B50007F4F8DEE90E10E94E3048CE890E10E949B
:103B6000A606882309F424C166E37CE0CE018F54C5
:103B70009F4F0E94440A8823A9F186E090E0909329
:103B8000CB0E8093CA0E1092BD0E1092BC0ECE01C9
:103B90008F549F4F0E94A40AD4C563E08CE00E941A
:103BA000430965EA79E08DEE90E10E94150A63E031
:103BB0008CE00E9443096CEA79E08DEE90E10E946E
:103BC000150A64E670E080E090E00E94010363E083
:103BD0008CE00E94430965EA79E08DEE90E10E9455
:103BE000150AB0CF68E37CE0CE018F549F4F0E944E
:103BF000440A882369F086E090E09093CB0E80938E
:103C0000CA0E81E090E09093BD0E8093BC0EBFCFB2
:103C100068EF7BE0CE018F549F4F0E94440A8823B7
:103C200009F4B5CF60E080E00E94430960E379E0E9
:103C3000CE0184589F4F0E946F0B10E000E0F80106
:103C400075E0EE0FFF1F7A95E1F7EA5DFA4F80E22B
:103C5000D20101900D928A95E1F71F930F938DB7D2
:103C60009EB7885591090FB6F8949EBF0FBE8DBFC1
:103C7000ADB7BEB7119688E5E5E9F0E101900D9288
:103C80008A95E1F70E946007EDB7FEB7E65AFF4F4D
:103C90000FB6F894FEBF0FBEEDBF0E949B038823B2
:103CA00091F08A330CF058C081330CF07AC0833223
:103CB00009F45CC0803309F462C062E370E080E024
:103CC00090E00E9401038CE890E10E94A606882300
:103CD00009F4B5CFCE0184589F4F0E946A0988E548
:103CE000E5E9F0E1DE01119601900D928A95E1F788
:103CF0008E010F5F1F4FDD24D394F12CE12C6996C8
:103D00008EAD9FAD6997181619069CF491010E2C83
:103D100002C0359527950A94E2F72095F80180892D
:103D20002823208B4D2D70E060E0CE0101960E948B
:103D3000C206FFEFEF1AFF0A28E0E216F104F9F6D7
:103D40000F5F1F4FD39439E0D312D7CFCE018458E1
:103D50009F4F0E94A40A1BCF883509F0AECF0150B7
:103D6000110908F0AACF0EE110E0A7CF0F5F1F4F97
:103D70000F31110509F0A1CF10E000E09ECFB20194
:103D8000CE0184589F4F0E94D40A61E080E00E94D7
:103D90004309BE0164587F4F8DEE90E10E94E30419
:103DA0008CCF682FCE0184589F4F0E94060BEDCF19
:103DB00089E890E10E94A606882309F4B0CECB548E
:103DC000DF4F68817981C55BD0406115710509F4C9
:103DD000A6CE61507109CE018F549F4F0E94310AC7
:103DE00061E080E00E9443096BE979E08DEE90E1AB
:103DF0000E94150A61E080E00E944309BE016F54F1
:103E00007F4F8DEE90E10E94E30489CE0091BC0EBD
:103E10001091BD0E0E949A0860E080E00E94430964
:103E20006AE37CE08DEE90E10E94150A6CE271E09D
:103E300080E090E00E94010361E080E00E9443097D
:103E400063E47CE08DEE90E10E94150A6CE271E083
:103E500080E090E00E94010362E080E00E9443095C
:103E600061E57CE08DEE90E10E94150A6CE271E064
:103E700080E090E00E94010363E080E00E9443093B
:103E80006EE27CE08DEE90E10E94150A60E379E03D
:103E9000C2010E946F0BAA24A394EE24E394F12C98
:103EA00062E0C62ED12C0E949B038823A1F0F20170
:103EB000248135812230310508F05FC0682FC201AE
:103EC0000E94060B63E08CE00E944309B2018DEE74
:103ED00090E10E94E3048CE890E10E94A606B82ECF
:103EE000882309F490C066E37CE0C2010E94440A82
:103EF000882309F4B1C0A092C60E1092C70E66E3E3
:103F00007CE08DE79FE00E94010A6BE57CE08DE795
:103F10009FE00E94150A8091C60E90E00E94C90998
:103F20006FE57CE08DE79FE00E94150A8091C70E47
:103F300090E00E94C9090E9479060E949A0863E6EF
:103F40007CE08DEE90E10E94150A61E080E00E9425
:103F5000430964E77CE08DEE90E10E94150A912C04
:103F600080EE9EE00E949A05892B61F1CE01845873
:103F70009F4F0E9441059B2CF3CF63E08CE00E9491
:103F800043096BE979E08DEE90E10E94150A63E048
:103F90008CE00E9443096CEA79E08DEE90E10E948A
:103FA000150A68EE73E080E090E00E94010363E090
:103FB0008CE00E9443096BE979E08DEE90E10E946C
:103FC000150A80CF992061F280EE9EE00E949A054A
:103FD000892B31F60E9479060E949A0865E87CE0F8
:103FE0008DEE90E10E94150A68EE73E080E090E0AB
:103FF0000E9401030E949A0869E97CE08DE79FE036
:104000000E94010AB92C89E890E10E94A606882343
:10401000F1F0F2016481758161157105C1F06150A3
:104020007109C2010E94310A61E080E00E944309E7
:104030006BE979E08DEE90E10E94150A61E080E085
:104040000E944309B2018DEE90E10E94E304BB207F
:1040500009F429CFC2019ECD68E37CE0C2010E9431
:10406000440A8823B9F31092C60EA092C70E68E3E3
:104070007CE08DE79FE00E94010A6BE57CE08DE724
:104080009FE00E94150A8091C60E90E00E94C90927
:104090006FE57CE08DE79FE00E94150A8091C70ED6
:1040A00090E00E94C9090130110561F0023011054C
:1040B00081F00115110509F0A6CFD092CB0EC09268
:1040C000CA0EA1CF23E030E03093CB0E2093CA0E6E
:1040D0009ACFF092CB0EE092CA0E95CF0E949A082A
:1040E00060E080E00E94430963EB7AE08DEE90E1AE
:1040F0000E94150A60E379E0CE0183549F4F0E942D
:104100006F0B10E00091C60E8091C70E882309F452
:10411000DEC1011156C08091C40E9091C50EFC0104
:1041200045E0EE0FFF1F4A95E1F7EA5DFA4F20E206
:10413000D20101900D922A95E1F79F938F932DB7AD
:104140003EB7285531090FB6F8943EBF0FBE2DBFBC
:10415000ADB7BEB7119688E5E5E9F0E101900D92A3
:104160008A95E1F70E9460078DB79EB7865A9F4FE8
:104170000FB6F8949EBF0FBE8DBF0E949B0388238D
:1041800001F18A330CF04FC181330CF074C18332DA
:1041900009F45DC1803309F467C1CF53DF4F8881D3
:1041A0009981C15CD04061E00C9708F06BC180E060
:1041B0000E944309BE0163547F4F8DEE90E10E943F
:1041C000E3048CE890E10E94A606882309F4A5C1C7
:1041D000CE0183549F4F0E946A0966EB7CE08DE715
:1041E0009FE00E94010A62E080E00E94430960E9CA
:1041F00079E08DEE90E10E94150A60E379E0CE014E
:1042000089549F4F0E946F0B0091C60E8091C70E7C
:10421000882309F404C2011156C08091C40E909104
:10422000C50EFC0135E0EE0FFF1F3A95E1F7EA5DA0
:10423000FA4F20E2D20101900D922A95E1F79F9367
:104240008F93EDB7FEB7E855F1090FB6F894FEBFAE
:104250000FBEEDBFADB7BEB7119688E5E5E9F0E159
:1042600001900D928A95E1F70E9460072DB73EB745
:10427000265A3F4F0FB6F8943EBF0FBE2DBF0E9487
:104280009B03882301F18A330CF075C181330CF054
:104290009AC1833209F483C1803309F48DC1C554B6
:1042A000DF4F88819981CB5BD04063E0089708F0AD
:1042B00091C180E00E944309BE0169547F4F8DEE99
:1042C00090E10E94E3048CE890E10E94A606882316
:1042D00009F4CBC1CE0189549F4F0E946A09C3548F
:1042E000DF4F68817981CD5BD040FB0101900020D8
:1042F000E9F7CF01EDB6FEB6861B970B2DB73EB79B
:10430000281B390B0FB6F8943EBF0FBE2DBF0DB75B
:104310001EB70F5F1F4FC8010E94362CC8010E94B4
:10432000170AC954DF4F68817981C75BD040FB0110
:1043300001900020E9F7CF01861B970B2DB73EB700
:10434000281B390B0FB6F8943EBF0FBE2DBF8DB79B
:104350009EB701966C010E94362CC6010E94170A76
:104360006FEC7CE08DE79FE00E94150AB8018DE7B5
:104370009FE00E94010A60EE7CE08DE79FE00E94D2
:10438000150AB6018DE79FE00E94010AB601CE0131
:1043900084589F4F0E946F0BB801CE018F549F4FDE
:1043A0000E946F0BAE0144585F4FBE016F547F4FA8
:1043B000C2010E94140DCE018F549F4F0E94A40A87
:1043C000CE0184589F4F0E94A40AF801019000205A
:1043D000E9F73197AF01401B510BB8018FE890E12D
:1043E0000E94370BF201808181116DC10E949A08F1
:1043F00060E080E00E94430964EF79E08DEE90E197
:104400000E94150A61E080E00E9443096EEF79E0A6
:104410008DEE90E10E94150A68EE73E080E090E076
:104420000E94010375C1883509F0B7CE8091C40E92
:104430009091C50E019797FD05C09093C50E80938E
:10444000C40EABCE7092C50E6092C40EA6CE809103
:10445000C40E9091C50E01968F31910570F31092A4
:10446000C50E1092C40E99CEB201CE0183549F4F57
:104470000E94D40A92CE682FCE0183549F4F0E948F
:10448000060B8BCE80E00E9443096BE979E08DEE4C
:1044900090E10E94150A61E080E00E9443096CEA05
:1044A00079E08DEE90E10E94150A68EE73E080E0FD
:1044B00090E00E94010361E080E00E9443096BE903
:1044C00079E08DEE90E10E94150A61E070CE002344
:1044D00009F477CE111175CE6BEA7CE08DE79FE091
:1044E0000E94010A6FEA7CE0C2010E94800BB201C7
:1044F000CE0183549F4F0E94590AC2010E94A40A10
:1045000063E080E00E944309BE0163547F4F8DEE5B
:1045100090E10E94E304102F54CE89E890E10E94BC
:10452000A606882309F4EECDCF53DF4F6881798149
:10453000C15CD0406115710509F4E4CD6150710989
:10454000CE0183549F4F0E94310A61E080E00E94B7
:1045500043096BE979E08DEE90E10E94150A61E074
:1045600080E00E944309BE0163547F4F8DEE90E1CD
:104570000E94E304C7CD883509F091CE8091C40E26
:104580009091C50E019797FD05C09093C50E80933D
:10459000C40E85CE7092C50E6092C40E80CE8091FE
:1045A000C40E9091C50E01968F31910570F3109253
:1045B000C50E1092C40E73CEB201CE0189549F4F26
:1045C0000E94D40A6CCE682FCE0189549F4F0E945E
:1045D000060B65CE80E00E9443096BE979E08DEE21
:1045E00090E10E94150A63E080E00E9443096CEAB2
:1045F00079E08DEE90E10E94150A68EE73E080E0AC
:1046000090E00E94010363E080E00E9443096BE9AF
:1046100079E08DEE90E10E94150A63E04ACE002316
:1046200009F451CE11114FCE6BEA7CE08DE79FE08B
:104630000E94010A66EC7CE0C2010E94800BB2017C
:10464000CE0189549F4F0E94590AC2010E94A40AB8
:1046500063E080E00E944309BE0169547F4F8DEE04
:1046600090E10E94E304102F2ECE89E890E10E9491
:10467000A606882309F4C8CDC554DF4F6881798127
:10468000CB5BD0406115710509F4BECD6150710955
:10469000CE0189549F4F0E94310A61E083E00E945D
:1046A00043096BE979E08DEE90E10E94150A61E023
:1046B00083E00E944309BE0169547F4F8DEE90E173
:1046C0000E94E304A1CD0E949A0860E080E00E946D
:1046D00043096EEA7BE08DEE90E10E94150A61E0ED
:1046E00080E00E944309B2018DEE90E10E94150A1C
:1046F000F20182A18823D1F068EE73E080E090E0BF
:104700000E94010384E090E09093CB0E8093CA0E48
:104710000FB6F894FEBE0FBEEDBECE0189549F4F7A
:104720000E94A40ACE0183549F4F34CA68EE73E0FE
:1047300080E090E00E94010385E090E0E5CF0E94D8
:10474000AD110E94490626C90E949A0860E080E0E7
:104750000E94430963EF7CE08DEE90E10E94150A10
:104760006CE271E080E090E00E94010361E080E093
:104770000E9443096EEF7CE08DEE90E10E94150AE5
:104780006CE271E080E090E00E94010362E080E072
:104790000E94430966E07DE08DEE90E10E94150ADB
:1047A0006CE271E080E090E00E94010363E080E051
:1047B0000E9443096EE27CE08DEE90E10E94150AB2
:1047C00060E379E0C2010E946F0B0E949B03882383
:1047D00099F0F201248135812230310508F5682FE6
:1047E000C2010E94060B63E08CE00E944309B20103
:1047F0008DEE90E10E94E3048CE890E10E94A60611
:104800008823F1F166E37CE0C2010E94440A882318
:1048100061F187E090E09093CB0E8093CA0E1ACCA2
:1048200063E08CE00E9443096BE979E08DEE90E152
:104830000E94150A63E08CE00E9443096CEA79E06B
:104840008DEE90E10E94150A68EE73E080E090E042
:104850000E94010363E08CE00E9443096BE979E068
:104860008DEE90E10E94150ABECF68E37CE0C201A4
:104870000E94440A882309F4EDCB88E090E0CBCF76
:1048800089E890E10E94A606882309F49ECFF201F0
:10489000648175816115710509F497CF61507109C3
:1048A000C2010E94310A61E080E00E9443096BE985
:1048B00079E08DEE90E10E94150A61E080E00E94AF
:1048C0004309B2018DEE90E10E94E3047ECF0E9485
:1048D00033036093BE0E7093BF0E8093C00E90930F
:1048E000C10E0E949A0860E080E00E94430966E1E0
:1048F0007DE08DEE90E10E94150A60E971E080E0B4
:1049000090E00E9401030E949A0860E080E00E940B
:10491000430963E27DE08DEE90E10E94150A61E0BB
:1049200080E00E94430962E37DE08DEE90E10E9409
:10493000150A62E080E00E94430961E47DE08DEEAB
:1049400090E10E94150A63E080E00E94430963E55C
:104950007DE08DEE90E10E94150A6EEE72E080E03F
:1049600090E00E9401030E949A0860E080E00E94AB
:1049700043096EE27CE08DEE90E10E94150A60E34F
:1049800079E0C2010E946F0B0E9433030091BE0EBA
:104990001091BF0E2091C00E3091C10E601B710BA3
:1049A000820B930B69357F408240910508F0AFC0C0
:1049B0000E949B03882399F0F201248135812230E3
:1049C000310520F5682FC2010E94060B60E08CE0E3
:1049D0000E944309B2018DEE90E10E94E3048CE84D
:1049E00090E10E94A606882309F46AC066E37CE091
:1049F000C2010E94440A882371F164E67DE08DE7DC
:104A00009FE00E94010A89E090E005CF60E08CE021
:104A10000E94430965EA79E08DEE90E10E94150A53
:104A200060E08CE00E9443096CEA79E08DEE90E151
:104A30000E94150A64E670E080E090E00E940103A5
:104A400060E08CE00E94430965EA79E08DEE90E138
:104A50000E94150ABBCF68E37CE0C2010E94440AB1
:104A6000882349F06EE77DE08DE79FE00E94010A10
:104A70008AE090E0D0CE67E97DE0C2010E94440A5E
:104A8000882369F081E090E09093CB0E8093CA0E6A
:104A900069E97DE08DE79FE00E94010ADBCA68ECCE
:104AA0007BE0C2010E94440A882309F4D3CA60EB68
:104AB0007DE08DE79FE00E94010A81E090E0ABCEAF
:104AC00089E890E10E94A606882309F45DCFF201EF
:104AD000648175816115710509F456CF61507109C2
:104AE000C2010E94310A61E080E00E9443096BE943
:104AF00079E08DEE90E10E94150A61E080E00E946D
:104B00004309B2018DEE90E10E94E3043DCF81E0C4
:104B100090E09093CB0E8093CA0E67EC7DE0BACF05
:104B20000E949A0860E080E00E94430961EE7DE007
:104B30008DEE90E10E94150A61E080E00E94430939
:104B40006EEE7DE08DEE90E10E94150A62E080E05D
:104B50000E9443096AEF7DE08DEE90E10E94150A04
:104B60008CE890E10E94A606882309F4ACC00E945C
:104B70009A0870E060E0C2010E94810C10E000E041
:104B80007201F2E0EF0EF11C0E949A0860E080E0F2
:104B90000E94430968E07EE08DEE90E10E94150AD4
:104BA00061E080E00E944309F20180819181CF544D
:104BB000DF4F19821882C15BD040CD54DF4F19827C
:104BC0001882C35BD040CB54DF4F19821882C55B7B
:104BD000D0404AE0BE0164587F4F0E94A929CA51C3
:104BE000DF4FE881F981C65ED04001900020E9F7EF
:104BF0003197AF01CA51DF4F28813981C65ED0405D
:104C0000421B530BBE0164587F4FCE018F549F4F00
:104C10000E94370BBE016F547F4F8DEE90E10E94D2
:104C2000E304CE018F549F4F0E94A40A62E080E00B
:104C30000E944309B701CE0184589F4F0E946F0B19
:104C4000BE0164587F4F8DEE90E10E94E304CE01D7
:104C500084589F4F0E94A40A8CE890E10E94A60607
:104C6000882321F10F5F1F4FBE0164587F4F8DE9EC
:104C700090E00E94450CEE968EAD9FADEE97081722
:104C8000190714F010E000E00E949A08B801CE0164
:104C90008D529F4F0E94810C83E1FE01ED52FF4F28
:104CA000D20101900D928A95E1F76ECF89E890E1EB
:104CB0000E94A606882381F26CE271E080E090E019
:104CC0000E9401033ECD89E890E10E94A606882358
:104CD00009F446CFF1CF69E17EE08DE79FE00E94C5
:104CE000010A2FCD0E946D0C7C0110E000E00E1532
:104CF0001F0584F4B801C2010E94A80FF20182814D
:104D0000811128C000811181C8010E94C9090F3F8B
:104D1000100719F567E27EE08DE79FE00E94010A27
:104D20000E949A0860E080E00E94430963E57EE00B
:104D30008DEE90E10E94150A61E080E00E94430937
:104D40006EE37EE08DEE90E10E94150A85E090E032
:104D50000C94471D0F5F1F4FCACF0E949A0861E055
:104D600080E00E94430960E979E08DEE90E10E94C5
:104D7000150A60E379E0CE0189549F4F0E946F0BC2
:104D80008091C70E882309F45AC08091C60E811104
:104D900056C08091C40E9091C50EFC0125E0EE0F27
:104DA000FF1F2A95E1F7EA5DFA4F20E2D201019058
:104DB0000D922A95E1F79F938F932DB73EB7285513
:104DC00031090FB6F8943EBF0FBE2DBFADB7BEB7C9
:104DD000119688E5E5E9F0E101900D928A95E1F7F9
:104DE0000E9460078DB79EB7865A9F4F0FB6F89402
:104DF0009EBF0FBE8DBF0E949B03882301F18A33A3
:104E00000CF0EBC081330CF010C1833209F4F9C00F
:104E1000803309F403C1C554DF4F88819981CB5B8E
:104E2000D04063E0089708F007C180E00E94430982
:104E3000BE0169547F4F8DEE90E10E94E3048CE83F
:104E400090E10E94A606882309F41BC1CE01895473
:104E50009F4F0E946A09C954DF4F68817981C75BFF
:104E6000D040FB0101900020E9F7CF01EDB6FEB67E
:104E7000861B970B2DB73EB7281B390B0FB6F8943E
:104E80003EBF0FBE2DBF8DB79EB701966C010E942D
:104E9000362CC6010E94170AB601CE0184589F4FD6
:104EA0000E946F0BCF54DF4F19821882C15BD04034
:104EB000CD54DF4F19821882C35BD040CB54DF4FF3
:104EC00019821882C55BD0406FE870E1CE018F5423
:104ED0009F4F0E94580BAE0144585F4FBE016F5464
:104EE0007F4FC2010E94140DCE018F549F4F0E942C
:104EF000A40ACE0184589F4F0E94A40AF201808127
:104F0000882309F4ECC08FE0C651DF4FE881F981B6
:104F1000CA5ED04011928A95E9F7EE961FAF0EAFA8
:104F2000EE9760918F10709190108CE790E08C0F4D
:104F30009D1F03960E94362C81E1FE01E458FF4F2D
:104F4000DE01A056BF4F01900D928A95E1F7BE0198
:104F500060567F4FC155DF4F88819981CF5AD0402D
:104F60000E942A10045D61E0802F0E949C0261E093
:104F7000802F0E946A0268EE73E080E090E00E9459
:104F8000010360E0802F0E946A0263E67EE08DE705
:104F90009FE00E94010A0E949A0861E080E00E945E
:104FA000430967E87EE08DEE90E10E94150A60E912
:104FB00071E080E090E00E94010385E090E0909332
:104FC000CB0E8093CA0E0FB6F894FEBE0FBEEDBE98
:104FD000CE0189549F4F0C94CA1D883509F01BCF10
:104FE0008091C40E9091C50E019797FD05C09093D6
:104FF000C50E8093C40E0FCF7092C50E6092C40E82
:105000000ACF8091C40E9091C50E01968F31910503
:1050100070F31092C50E1092C40EFDCEB201CE01F7
:1050200089549F4F0E94D40AF6CE682FCE0189542E
:105030009F4F0E94060BEFCE80E00E9443096BE970
:1050400079E08DEE90E10E94150A63E080E00E9415
:1050500043096CEA79E08DEE90E10E94150A68EE52
:1050600073E080E090E00E94010363E080E00E9432
:1050700043096BE979E08DEE90E10E94150A63E047
:10508000D4CE89E890E10E94A606882309F478CE60
:10509000C554DF4F68817981CB5BD04061157105C4
:1050A00009F46ECE61507109CE0189549F4F0E9460
:1050B000310A61E083E00E9443096BE979E08DEEFB
:1050C00090E10E94150A61E083E00E944309BE015D
:1050D00069547F4F8DEE90E10E94E30451CE8091A0
:1050E000C20E9091C30E01969093C30E8093C20E90
:1050F0000297FCF46FEB79E08DE79FE00E94010AD4
:105100000E949A0860E080E00E94430964EF79E021
:105110008DEE90E10E94150A61E080E00E94430953
:105120006EEF79E08DEE90E10E94150A89E090E043
:1051300046CF6AE07AE08DE79FE00E94010A0E9474
:105140009A0860E080E00E94430964EF79E08DEE08
:1051500090E10E94150A61E080E00E9443096EEF31
:1051600079E08DEE90E10E94150A60E177E280E03F
:1051700090E00E9401036CE47AE08DE79FE00E94DA
:10518000010A1092C30E1092C20E81E090E017CF78
:1051900010E000E00E946D0C08171907A4F4B80194
:1051A000C2010E94A80FF2018281882349F08091F8
:1051B000C80E9091C90E01969093C90E8093C80EA7
:1051C0000F5F1F4FE7CF8091C80E9091C90E0097D7
:1051D00089F40E949A0860E080E00E94430961E936
:1051E0007EE08DEE90E10E94150A60ED77E080E0B0
:1051F00090E066CD81309105B9F570E060E0C201C4
:105200000E94A80FF20180809180A280B380C480A8
:10521000D580E680F7800085118522853385448519
:1052200055856685778580890E948E0D81E1F20122
:10523000DE01A157BF4F01900D928A95E1F7BE01A3
:1052400061577F4FC256DF4F88819981CE59D04038
:105250000E942A108091C80E9091C90E01979093D8
:10526000C90E8093C80E72CD0E94C9090E949A0887
:1052700060E080E00E94430962EA7EE08DEE90E10A
:105280000E94150A10E000E08091C80E9091C90EAE
:105290000817190774F5B801C2010E94A80FF2019E
:1052A0008281882319F161E0600F80E00E94430948
:1052B000F201C080D1800D2C000CEE08FF082AE01E
:1052C000B701A601F7FE0EC041E06DE28DEE90E160
:1052D0000E94410844275527BA014C195D096E09FF
:1052E0007F092AE08DEE90E10E947D090F5F1F4F3C
:1052F000CBCF0E949B03682F8FEC860F8930C8F7B5
:10530000062E000C770B615371098091C80E9091A5
:10531000C90E681779070CF014CAC2010E94A80FC1
:10532000F20180809180A280B380C480D580E68025
:10533000F7800085118522853385448555856685EE
:10534000778580890E948E0DFCC98FE890E10C94CE
:10535000A40ABB274A3031F4992322F4BDE2909588
:1053600081959F4F0C94B529BB27FB015527AA2790
:10537000880F991FAA1FA41710F0A41B83955051E2
:10538000B9F7A05DAA3308F0A95DA193009779F75A
:10539000B111B1931192CB010C94CE29DC01FC0127
:1053A000672F71917723E1F7329704C07C916D9359
:1053B00070836291AE17BF07C8F30895F999FECFC5
:1053C00092BD81BDF89A992780B50895262FF99945
:1053D000FECF1FBA92BD81BD20BD0FB6F894FA9AD8
:1053E000F99A0FBE01960895A1E21A2EAA1BBB1BC3
:1053F000FD010DC0AA1FBB1FEE1FFF1FA217B307A1
:10540000E407F50720F0A21BB30BE40BF50B661FB6
:10541000771F881F991F1A9469F76095709580957A
:1054200090959B01AC01BD01CF010895EE0FFF1FC8
:10543000881F8BBF0790F691E02D19940F931F934F
:10544000CF93DF938230910510F482E090E0E091F9
:105450000711F091081130E020E0B0E0A0E03097B3
:1054600099F42115310509F44AC0281B390B243061
:105470003105D8F58A819B816115710589F1FB01A0
:1054800093838283FE0111C0408151810281138187
:1054900048175907E0F04817590799F4109761F039
:1054A00012960C93129713961C933296CF01DF91AC
:1054B000CF911F910F910895009307111093081138
:1054C000F4CF2115310551F04217530738F0A901E7
:1054D000DB019A01BD01DF01F801C1CFEF01F9CF76
:1054E0009093081180930711CDCFFE01E20FF31FB7
:1054F000819391932250310939832883D7CF20910A
:10550000051130910611232B41F4209115023091A1
:105510001602309306112093051120911302309149
:1055200014022115310541F42DB73EB74091170201
:1055300050911802241B350BE0910511F0910611D2
:10554000E217F307A0F42E1B3F0B2817390778F05A
:10555000AC014E5F5F4F2417350748F04E0F5F1FB9
:105560005093061140930511819391939FCFF0E0E2
:10557000E0E09CCFCF93DF930097E9F0FC013297F6
:1055800013821282A0910711B0910811ED0130E051
:1055900020E01097A1F420813181820F931F209188
:1055A0000511309106112817390709F061C0F093F1
:1055B0000611E0930511DF91CF910895EA01CE170E
:1055C000DF07E8F54A815B819E0141155105B1F77E
:1055D000E901FB83EA8349915991C40FD51FEC1768
:1055E000FD0761F4808191810296840F951FE90186
:1055F00099838883828193819B838A83F0E0E0E0B2
:1056000012968D919C9113970097B9F52D913C912D
:105610001197CD010296820F931F209105113091B1
:1056200006112817390739F6309751F510920811ED
:1056300010920711B0930611A0930511BCCFD3832C
:10564000C28340815181840F951FC817D90761F427
:105650004E5F5F4F88819981480F591F5183408366
:105660008A819B81938382832115310509F0B0CF14
:10567000F0930811E09307119ECFFD01DC01C0CF2C
:1056800013821282D7CF4F925F926F927F928F9246
:105690009F92AF92BF92CF92DF92EF92FF920F93C1
:1056A0001F93CF93DF938C01009799F4CB01DF9187
:1056B000CF911F910F91FF90EF90DF90CF90BF900F
:1056C000AF909F908F907F906F905F904F900C94D1
:1056D0001E2AFC01E60FF71F9C0122503109E21738
:1056E000F30708F4AEC0D901CD91DC911197C6172C
:1056F000D70720F1C530D10578F0CE010497861781
:10570000970750F0C61BD70B2297C193D1936D9387
:105710007C93CF010E94BA2AC801DF91CF911F91DB
:105720000F91FF90EF90DF90CF90BF90AF909F9040
:105730008F907F906F905F904F9008955B01AC1AAF
:10574000BD0A4C018C0E9D1EA0910711B09108114D
:10575000512C412CF12CE12C109731F58091051141
:10576000909106118815990509F05CC046165706F8
:1057700008F058C08091130290911402009741F4F0
:105780008DB79EB74091170250911802841B950B5C
:10579000E817F90708F055C0F0930611E0930511DA
:1057A000F90171836083B8CF8D919C911197129606
:1057B0006C90129713967C901397A815B90559F51C
:1057C0006C0142E0C40ED11CCA14DB0420F1AC0110
:1057D0004A195B09DA011296159780F0628273828A
:1057E00051834083D9016D937C93E114F10471F0EE
:1057F000D7011396FC93EE9312978ECF22968C0FBF
:105800009D1FF90191838083F301EFCFF09308117D
:10581000E093071181CF4816590608F42C017D0149
:10582000D3019ACFCB010E941E2A7C01009749F038
:10583000AE01B8010E94242CC8010E94BA2A870137
:105840006BCF10E000E068CFFB01DC0102C00190EB
:105850000D9241505040D8F70895FB01DC018D9125
:10586000019080190110D9F3990B0895FB01DC0117
:1058700001900D920020E1F7089511E0C9E5D1E013
:1058800000E006C0802FFE010E94162A2196011D0D
:0E589000CA35D10780E00807A9F7F894FFCFCA
:10589E001E1F201A1B1C1D31323334353637383952
:1058AE0058302300000911800000010101000100A1
:1058BE0000000101010101010100000001010000D1
:1058CE0000010101010100010000000101010101BF
:1058DE0000010000000101010101000101010101AF
:1058EE0001000000000100000000010000000001A6
:1058FE00010101010101010100010000000101008F
:10590E00000001010000000101010101000101017F
:10591E000101010000000001010101010100000070
:10592E00000101010101010101010101000000005E
:10593E000101010101010000000001000000000052
:10594E00010101010100000000010001010101003F
:10595E000000010001010101010000000101000031
:10596E000001010101010101000000010100000020
:10597E000101010101010000010000000001000011
:10598E0000000100000101010101010101010100FE
:10599E0000010000000001000000000100000101F4
:1059AE0000000001000001000100010000010100E3
:1059BE0000000100010000010000010001000000D4
:1059CE0000010000000001000000000100000000C6
:1059DE0001010101010101000101010001000101AC
:1059EE0000000001010000000101000000010100A3
:1059FE000000010101000001010001000101000091
:105A0E000101010000000100000101000101000080
:105A1E00010100010001010000010101000000016F
:105A2E000001010100010000000101000000010160
:105A3E000000000100010101000001010100010050
:105A4E000000010101010100010000000001000041
:105A5E000000000101010001000000010100000032
:105A6E00010100010001000101010101010101001C
:105A7E00010000000101010101000100000100010F
:105A8E000000000100010101010100000000000101
:105A9E0001010000000000010101010100010101EE
:105AAE0001010000010000000001000000000100E3
:105ABE0000000001000001000000010100000001D3
:105ACE0001000000010100000001000101010001C0
