:020000040000FA
:100000000C9441010C9472010C9472010C947201D5
:100010000C9472010C9472010C9472010C94720194
:100020000C9472010C9472010C9472010C94720184
:100030000C9472010C9472010C9472010C94720174
:100040000C9472010C9472010C9472010C94720164
:100050000C9472010C9472010C9472010C94050CB6
:100060000C9472010C94D90C0C94AF0C0C9472018A
:100070000C9472010C9472010C9472010C94720134
:100080000C9472010C9472010C9472010C94720124
:100090000C94790C0C944F0C0C9472010C9472011A
:1000A0000C9472010C9472010C9472010C94720104
:1000B0000C9472010C9472010C9472010C947201F4
:1000C0000C9472010C9472010C9472010C947201E4
:1000D0000C9472010C9472010C9472010C947201D4
:1000E0000C9472010C942F030C94BE020C943A05EC
:1000F0000C9475020C9426050C946B020C948702E8
:100100000C94EF020C945E020C9448050C942506A6
:100110000C94D7050C940F0D0C948A050C94380898
:100120000C948D020C9471020C9456020C94610292
:100130000C945A020C9417050C944C020C949102E6
:100140000C9452020C947F020C9479020C948C0251
:100150000C9483020C9467020C94E1040C94240622
:1001600000002100240027002A002D003000330069
:1001700001010000040107010A010000220025001E
:1001800028002B002E003100340002010000050180
:1001900008010B01000020002300260029002C008C
:1001A0002F003200000100000301060109010505CE
:1001B0000505070508080808020202020A0A0808DD
:1001C000040404040101010101010101030303030B
:1001D00003030303040707070C0C0C0C0C0C0C0C9A
:1001E0000202020206060606060606060B0B0B0BAB
:1001F0000B0B0B0B010210202008081020401020D0
:1002000040800201020108040201010204081020DA
:1002100040808040201008040201800402018040D8
:100220002010080402010804020101020408102041
:100230004080010204081020408000000A0B0209DF
:100240000C0D0E0807030401000000000000000070
:10025000000000000000000000000000000000009E
:10026000000000000000121110000000000000005B
:10027000000000000000000000000000000000007E
:100280000F0D11241FBECFEFD1E2DEBFCDBF00E0C6
:100290000CBF2CE0A0E0BAE001C01D92AE32B20764
:1002A000E1F71AE0A0E0B2E0ECEFF2E200E00BBF11
:1002B00002C007900D92A030B107D9F711E0C1E458
:1002C000D1E000E006C021970109802FFE010E94C5
:1002D000550FC034D10780E00807A9F70E94900E9F
:1002E0000C947C110C940000FC01A089B18982E07F
:1002F0008C93A485B5851C92A685B7858FEC8C93CD
:10030000108EA489B58986E08C93A289B3898C91DB
:1003100080618C93A289B3898C9188608C93A28927
:10032000B3898C9180688C930288F389E02D808159
:100330008F7D8083089596E0899FD0011124AB5B67
:10034000B44F90967C936E935F9791E091969C93B7
:100350009197E091B20BF091B30B9091B10B99236F
:1003600039F0309751F0811108C08091610B1994D8
:10037000309719F05C968C91FACF0895CF92DF9266
:10038000EF92FF920F931F9396E0899FF001112443
:10039000EB5BF44F11A2278D30A12130310551F1D3
:1003A00078F02230310509F451C02330310509F4C9
:1003B00052C01F910F91FF90EF90DF90CF90089562
:1003C0006623B9F361E070E00E949B012FB7F894B7
:1003D0008091070A9091080AA091090AB0910A0A2F
:1003E0002FBF80939D0B90939E0BA0939F0BB09378
:1003F000A00BDFCF9FB7F894C090070AD090080AEF
:10040000E090090AF0900A0A9FBF00919D0B10919D
:100410009E0B20919F0B3091A00BC01AD10AE20ACB
:10042000F30A0091AF0B1091B00B30E020E00C15F7
:100430001D052E053F0550F462E070E01F910F91FD
:10044000FF90EF90DF90CF900C949B016111B1CFA2
:1004500063E070E0F3CF70E060E0F0CF8150823174
:1004600008F05AC0E82FF0E08827E65CFD4F8F4F78
:100470000C94550F5A025E024C02520256028C0234
:10048000610267026B027102750279027F028302C8
:100490008C0287028D029102809180008F77809379
:1004A00080000895809180008F7DF9CF8091800039
:1004B000877FF5CF84B58F7784BD089584B58F7D10
:1004C000FBCF8091B0008F778093B000089580912A
:1004D000B0008F7DF9CF809190008F77809390004E
:1004E0000895809190008F7DF9CF80919000877F53
:1004F000F5CF8091A0008F778093A0000895809120
:10050000A0008F7DF9CF8091A000877FF5CF8091EB
:1005100020018F77809320010895809120018F7DA5
:10052000F9CF80912001877FF5CFCF93DF93282FDC
:1005300030E0F901E65CFD4F8491F901EC50FE4F8B
:10054000D491F901E255FE4FC491CC23A1F0811161
:100550000E942E02EC2FF0E0EE0FFF1FEC56FE4F34
:10056000A591B491EC91ED2381E090E009F480E055
:10057000DF91CF91089580E090E0FACF862F0C9420
:1005800095021F93CF93DF93282F30E0F901E65CAB
:10059000FD4F8491F901EC50FE4FD491F901E255E1
:1005A000FE4FC491CC23A9F0162F81110E942E0278
:1005B000EC2FF0E0EE0FFF1FE658FE4FA591B4912F
:1005C0008FB7F894EC91111108C0D095DE23DC931D
:1005D0008FBFDF91CF911F910895DE2BF8CF862F2B
:1005E000642F0C94C102CF93DF9390E0FC01EC5098
:1005F000FE4F249182559E4FFC0184918823C9F0BF
:1006000090E0880F991FFC01E05AFE4FA591B4912C
:10061000FC01E658FE4FC591D49161110DC09FB702
:10062000F8948C91209582238C93888128232883A9
:100630009FBFDF91CF910895623051F49FB7F89436
:100640003C91822F809583238C93E8812E2BEFCFD2
:100650008FB7F894EC912E2B2C938FBFEACF862F77
:10066000642F0C94F3026F927F928F929F92AF92BD
:10067000BF92CF92DF92EF92FF920F931F93CF938F
:10068000DF9381E08093B10B8FB7F8944091070A14
:100690005091080A6091090A70910A0A8FBF8091EF
:1006A000A10B9091A20BA091A30BB091A40B481B9E
:1006B000590B6A0B7B0B8091AD0B9091AE0BB0E0A8
:1006C000A0E084179507A607B70708F01DC1C0E092
:1006D0008091AB0BC81760F4E091A70BF091A80BC9
:1006E000EC0FF11D62E080810E94F302CF5FF0CF3A
:1006F000712C812C912C540183948091AC0B781631
:1007000008F05FC0072D10E0E091A90BF091AA0B53
:10071000E00FF11F61E080810E94F302E091A90BDC
:10072000F091AA0BE00FF11F60E080810E94C102EE
:10073000D501C401072C04C0880F991FAA1FBB1F35
:100740000A94D2F76C017C01E094F094612C8091C2
:10075000AB0B6816F8F4C62DD0E0E091A70BF09132
:10076000A80BEC0FFD1F80810E9495022496CC0FF0
:10077000DD1FCB5BD44F892B41F4888199818C2973
:100780009D29998388836394E2CF888199818E2102
:100790009F21F7CFE091A90BF091AA0BE00FF11F79
:1007A00061E080810E94C1028091A90B9091AA0B07
:1007B000080F191F60E0F80180810E94F302739412
:1007C0009CCFC5E4DBE0FE018FEF9FEF278D30A1CA
:1007D000232B21F4148E968F858F11A236962BE051
:1007E000E138F20799F7F12C96E0D92E8091AB0B06
:1007F000F81608F050C0E12C0F2D10E0000F111F6B
:10080000035B144F2091AC0BE21608F042C0F801D4
:10081000608171810E2C02C0769567950A94E2F78B
:10082000F29E900111242E0D311DE5E4FBE080E0E5
:10083000458D568D2417350709F46AC08F5F3696AB
:100840008A30B1F760FF23C0E5E4FBE090E080E090
:10085000448D411117C0E091A50BF091A60BE20F5A
:10086000F31F4081D89EF001D99EF00D1124EB5B5F
:10087000F44F448F368F258F10A2178E61E00E94AF
:10088000BE0105C0019636968A30910509F7E394BA
:10089000B9CFF394ABCF80E099A19111892F26961F
:1008A000FBE0C138DF07C1F79FB7F8944091070A12
:1008B0005091080A6091090A70910A0A9FBF4093FB
:1008C000A10B5093A20B6093A30B7093A40B8823EE
:1008D000D9F08091660B8823B9F08091640B9091D8
:1008E000650B019789F48091610BDF91CF911F9186
:1008F0000F91FF90EF90DF90CF90BF90AF909F90BF
:100900008F907F906F9008951092B10B80E0EDCFA3
:100910006170B5CF3FB7F8948091030A9091040AB3
:10092000A091050AB091060A26B5A89B05C02F3FE5
:1009300019F00196A11DB11D3FBFBA2FA92F982F05
:100940008827BC01CD01620F711D811D911D42E000
:10095000660F771F881F991F4A95D1F708958F92C8
:100960009F92AF92BF92CF92DF92EF92FF924B0194
:100970005C010E948A046B017C010E948A046C194C
:100980007D098E099F09683E734081059105A8F392
:1009900021E0821A9108A108B10888EEC80E83E010
:1009A000D81EE11CF11C81149104A104B10429F7A3
:1009B000FF90EF90DF90CF90BF90AF909F908F907F
:1009C0000895AF92BF92CF92DF92EF92FF920F9372
:1009D0001F93CF93DF936C017B018B01040F151FD5
:1009E000EB015E01AE18BF08C017D10759F069913D
:1009F000D601ED91FC910190F081E02DC601199591
:100A0000892B79F7C501DF91CF911F910F91FF904D
:100A1000EF90DF90CF90BF90AF900895FC0144819C
:100A200055816081718182E19CE00C94E104FC01BC
:100A3000538D448D252F30E0842F90E0821B930B43
:100A4000541710F0CF96089501970895FC01918DE9
:100A5000828D981761F0A28DAE0FBF2FB11D5D96EC
:100A60008C91928D9F5F9F73928F90E008958FEF8E
:100A70009FEF0895FC01918D828D981731F0828D42
:100A8000E80FF11D858D90E008958FEF9FEF089599
:100A9000FC01918D228D892F90E0805C9F4F821BFD
:100AA00091098F73992708958BE09AE00E94480579
:100AB00021E0892B09F420E0822F089588EA9AE04A
:100AC0000E94480521E0892B09F420E0822F089537
:100AD000FC01A48DA80FB92FB11DA35ABF4F2C91B3
:100AE000848D90E001968F739927848FA689B789AA
:100AF0002C93A089B1898C91837080648C93938DA1
:100B0000848D981306C00288F389E02D80818F7D43
:100B100080830895EF92FF920F931F93CF93DF93FB
:100B2000EC0181E0888F9B8D8C8D98131AC0E88929
:100B3000F989808185FF15C09FB7F894EE89FF89F8
:100B40006083E889F98980818370806480839FBF96
:100B500081E090E0DF91CF911F910F91FF90EF9096
:100B60000895F62E0B8D10E00F5F1F4F0F731127A6
:100B7000E02E8C8D8E110CC00FB607FCFACFE889E1
:100B8000F989808185FFF5CFCE010E946805F1CFFC
:100B9000EB8DEC0FFD2FF11DE35AFF4FF0829FB755
:100BA000F8940B8FEA89FB8980818062CFCFCF9345
:100BB000DF93EC01888D8823B9F0AA89BB89E88985
:100BC000F9898C9185FD03C0808186FD0DC00FB62B
:100BD00007FCF7CF8C9185FFF2CF808185FFEDCFA9
:100BE000CE010E946805E9CFDF91CF91089580E0A2
:100BF00090E0892B29F00E945E0581110E9400007F
:100C000080E090E0892B29F00E94540581110E9418
:100C1000000080E090E0892B49F080E090E0892B93
:100C200029F00E94000081110E94000080E090E005
:100C3000892B49F080E090E0892B29F00E94000088
:100C400081110C9400000895089590E080E00895CB
:100C5000CF93DF93EC018A8181110AC088810E94C1
:100C60009502019729F481E08A83DF91CF9108955D
:100C70008A81811102C080E0F8CF88810E949502AC
:100C8000892BC9F71A82F7CF4F925F926F927F92AA
:100C90008F929F92AF92BF92CF92DF92EF92FF928C
:100CA0000F931F93CF93DF931F921F92CDB7DEB7A1
:100CB0008C0149832A83660F771FF801EA5AFF4F98
:100CC000E080F180EE0CFF1CF801CF01801B910B3E
:100CD0008E159F0514F41192F8CF8981F801E60F63
:100CE000F71F81838A818083680184E5C80ED11C47
:100CF00060E0F60180810E94C1025801F2E5AF0E6A
:100D0000B11C480180E5880E911C1E141F040CF5CF
:100D1000E1E0EE1AF108F801EE0DFF1D6080F5012B
:100D20005080F401408088E0782E662D661F66278B
:100D3000661F842D0E94C102660C61E0852D0E9411
:100D4000C10260E0852D0E94C1027A947110EDCF3E
:100D5000DCCF61E0F60180810F900F90DF91CF91A1
:100D60001F910F91FF90EF90DF90CF90BF90AF90C9
:100D70009F908F907F906F905F904F900C94C102E6
:100D8000EF92FF920F931F93CF937C018C0183E02E
:100D9000000F111F8A95E1F70653144FC1E0F801C7
:100DA00011928F0120E04C2FB7018AEB9BE00E944B
:100DB0004406CF5FC93099F7CF911F910F91FF90F3
:100DC000EF900895CF93DF93EC0160E08E810E9455
:100DD000C10261E08E810E94C10260E08E810E94AA
:100DE000C1028BE891E00197F1F7DF91CF9108956F
:100DF000CF92DF92EF92FF920F931F93CF93DF93E7
:100E00006C017C0187E0E80EF11CD0E0C0E0062F09
:100E100010E0B8010C2E02C0759567950A94E2F7B0
:100E20006170F70181917F010E94C1022196C43057
:100E3000D10579F7C601DF91CF911F910F91FF90F6
:100E4000EF90DF90CF900C94E206CF92DF92EF927A
:100E5000FF920F931F93CF93DF93EC01F62E642F35
:100E60008C810E94C1028D818F3F19F060E00E9449
:100E7000C1020F2D10E08F8584FF25C06E0187E031
:100E8000C80ED11CF12CE12CB8010E2C02C07595B6
:100E900067950A94E2F76170F60181916F010E94F3
:100EA000C102FFEFEF1AFF0A88E0E816F10461F7CC
:100EB000CE01DF91CF911F910F91FF90EF90DF90C6
:100EC000CF900C94E206B80184E0759567958A95F9
:100ED000E1F7CE010E94F8066F2DCE01DF91CF9190
:100EE0001F910F91FF90EF90DF90CF900C94F80638
:100EF00040E0682F82E19CE00C94250781E00E948D
:100F000078078BE39FE10197F1F70895CF93DF9383
:100F1000813029F09091210C98609093210C80935E
:100F2000250C1092260C80E48093270C80E180939E
:100F3000280C80E58093290C61E08091160C0E94BA
:100F4000F3028091170C8F3F19F061E00E94F302C9
:100F500061E08091180C0E94F302C2E1DCE09E0186
:100F600022513C408091210C84FD0BC084E090E034
:100F700021962817390744F461E08E810E94F3021C
:100F8000EECF88E090E0F4CF8BE39DE00197F1F79E
:100F900060E08091160C0E94C10260E08091180C04
:100FA0000E94C1028091170C8F3F19F060E00E94EF
:100FB000C1028091210C84FD34C063E082E19CE099
:100FC0000E94F806CBE4D6E4CE010197F1F763E086
:100FD00082E19CE00E94F8062197F1F763E082E14C
:100FE0009CE00E94F80683E592E00197F1F762E049
:100FF00082E19CE00E94F8068091210C80620E94B0
:10100000780784E08093220C8CE00E9478070E948D
:101010007E0782E08093230C86E0DF91CF910C94D1
:10102000780780620E9478078BE496E40197F1F7D5
:101030008091210C80620E94780783E592E00197FD
:10104000F1F78091210C80620E947807D5CF84301F
:1010500008F083E09091250C891710F08FEF890F2D
:10106000E82FF0E0EE5EF34F848980680C947807F7
:1010700041E00E94250781E090E00895FC01019085
:101080000020E9F73197AF01481B590BBC0182E101
:101090009CE00C94E1040E947E0780E00E942708F7
:1010A00088E299E00E943E086CE271E080E090E006
:1010B0000E94AF0481E00E94270883E399E00E9428
:1010C0003E086CE271E080E090E00E94AF0482E0B4
:1010D0000E94270884E499E00E943E086CE271E0D7
:1010E00080E090E00E94AF0483E00E94270885E53D
:1010F00099E00E943E086CE271E080E090E00E947E
:10110000AF0484E00E94270884E699E00E943E082C
:101110006CE271E080E090E00E94AF0485E00E9404
:10112000270882E799E00E943E0887EB9BE00E9437
:1011300028068823D1F381E090E09093010A809300
:10114000000A0895FC0180819181009711F00C94B0
:10115000F90F0895DC0114968D919C9115976817ED
:10116000790750F4ED91FC911197E60FF71F159652
:101170007C936E93149710820895FC01248135812D
:10118000232B39F421E0FB018081882349F020E002
:1011900007C0808191810E946C1121E0892BB9F7F1
:1011A000822F08950F931F93CF93DF93EC018881D3
:1011B0009981009759F02A813B812617370730F033
:1011C00081E0DF91CF911F910F9108958B016F5FA7
:1011D0007F4F0E948210009759F0998388831B8368
:1011E0000A832C813D81232B59F7FC011082E8CF23
:1011F00080E0E7CFCF93DF93EC01198218821B8246
:101200001A821D821C8270E060E00E94D208288150
:10121000398181110FC02115310519F0C9010E94D2
:10122000F90F198218821D821C821B821A82DF919B
:10123000CF9108951D821C826DEB79E0C901DF9189
:10124000CF910C947511EF92FF920F931F93CF9350
:10125000DF931F921F92CDB7DEB78C0169831A828C
:10126000FC01E480F580FFEFEF1AFF0AB7010E944E
:10127000D208882381F0F801208131818481958111
:10128000BE016F5F7F4F820F931F0E947511F8019F
:10129000F582E48281E00F900F90DF91CF911F9152
:1012A0000F91FF90EF9008952F923F924F925F928F
:1012B0006F927F928F929F92AF92BF92CF92DF9266
:1012C000EF92FF920F931F93CF93DF93CDB7DEB7CB
:1012D000C45CD1090FB6F894DEBF0FBECDBF0E942B
:1012E0007E0780E00E94270881E899E00E943E087E
:1012F0006CE271E080E090E00E94AF0481E00E9427
:10130000270880E999E00E943E086CE271E080E0E5
:1013100090E00E94AF0482E00E94270889E999E0EA
:101320000E943E086CE271E080E090E00E94AF0411
:101330000E947E0780E00E94270885EA99E00E94CB
:101340003E08CE0181549F4F0E94FA080E94330349
:101350008823C1F0CD53DF4F28813981C35CD04051
:101360002230310508F046C0682FCE0181549F4FCE
:101370000E94230981E00E942708CE0181549F4FDB
:101380000E940E0587EB9BE00E942806882361F0EF
:1013900062EC79E0CE0181549F4F0E94BD08882302
:1013A00009F444C00E94400B84EB9BE00E94280695
:1013B000882361F2CD53DF4F68817981C35CD040CF
:1013C0006115710519F261507109CE0181549F4F69
:1013D0000E94AA0881E00E9427088DEA99E00E94F5
:1013E0003E0881E00E942708CE0181549F4F0E9451
:1013F0000E05ACCF81E00E9427088DEA99E00E949B
:101400003E0881E00E9427088EEB99E00E943E088A
:1014100068EE73E080E090E00E94AF0481E00E94FB
:1014200027088DEA99E00E943E08A4CF64EC79E099
:10143000CE0181549F4F0E94BD088111FFC060E71B
:1014400079E0CE0181549F4F0E94BD08882309F4A2
:10145000F8C00E947E07CE0187549F4F0E94FA0871
:1014600010E000E05E0189E9A80EB11C4E0199E58B
:10147000890E911C99E1392E20E8422E512CF80159
:1014800085E0EE0FFF1F8A95E1F7E05EFA4F80E2FC
:10149000D50101900D928A95E1F788E5EAEBFBE032
:1014A000DE01119601900D928A95E1F7F40180E436
:1014B00011928A95E9F7309EC001319E900D11245A
:1014C000875E9D4F3401B401685D7F4FA40130E019
:1014D00020E0FA01E20FF31FDC01A20FB31FAC9171
:1014E000A18B2F5F3F4F2530310599F70596485F57
:1014F0005F4F4617570759F7FE0131967F012224A7
:101500002394D12CC12C69968EAD9FAD6997181686
:101510001906D4F4C2010C2C02C0959587950A9443
:10152000E2F7F7012089F301EC0DFD1D3081332333
:1015300089F1822BF701808B2089422D70E060E0D9
:10154000CE0101960E944406FFEFCF1ADF0A88E021
:10155000C816D104C1F69FEFE91AF90A2394E8E00E
:101560006E0E711CF9E02F12CCCF0E94330388233A
:1015700009F485CF8A338CF481330CF058C0833260
:10158000A1F08033D1F062E370E080E090E00E944F
:10159000AF0475CF80958223CDCF8835A1F7015058
:1015A000110988F70EE110E0EECF0F5F1F4F0F31EA
:1015B000110549F710E000E0E6CFF50101900020A9
:1015C000E9F73197EA19FB0939F1C354DF4FE88095
:1015D000F980CD5BD040EE0EFF1EB701CE018754DF
:1015E0009F4F0E94D2088823B9F0C754DF4F28814B
:1015F0003981C95BD040C354DF4F88819981CD5B6D
:10160000D040B501820F931F0E947511C354DF4F64
:10161000F982E882CD5BD0400E947E0780E00E9484
:101620002708CE0187549F4F0E940E05ACCF682F2C
:10163000CE0187549F4F0E942309EECF0E94540988
:10164000B3CECE0181549F4F0E94A208CC53DF4FEE
:101650000FB6F894DEBF0FBECDBFDF91CF911F91C3
:101660000F91FF90EF90DF90CF90BF90AF909F9041
:101670008F907F906F905F904F903F902F90089544
:10168000CF93DF9300D000D0CDB7DEB70E947E07A6
:1016900080E00E94270886EC99E00E943E086CE2F8
:1016A00071E080E090E00E94AF040E947E0780E03D
:1016B0000E94270881ED99E00E943E0881E00E9487
:1016C00027088FED99E00E943E086CE271E080E00F
:1016D00090E00E94AF0482E00E94270884EE99E027
:1016E0000E943E0883E00E94270881EF99E00E9453
:1016F0003E086CE271E080E090E00E94AF040E943E
:101700007E0780E00E94270885EA99E00E943E0853
:10171000CE0101960E94FA080E943303882389F0C3
:101720002D813E8122303105E0F5682FCE010196F2
:101730000E94230981E00E942708CE0101960E94A1
:101740000E0587EB9BE00E942806882351F062EC8F
:1017500079E0CE0101960E94BD088823F1F10E9434
:101760004B0884EB9BE00E9428068823A9F26D8138
:101770007E816115710581F261507109CE0101967A
:101780000E94AA0881E00E9427088DEA99E00E9441
:101790003E0881E00E942708CE0101960E940E05B6
:1017A000BBCF81E00E9427088DEA99E00E943E08A5
:1017B00081E00E9427088EEB99E00E943E0868EEC7
:1017C00073E080E090E00E94AF0481E00E9427086F
:1017D0008DEA99E00E943E08ADCF64EC79E0CE013D
:1017E00001960E94BD08882319F00E945409B9CFC0
:1017F000CE0101960E94A20826960FB6F894DEBF8D
:101800000FBECDBFDF91CF9108951F920F920FB6FB
:101810000F9211242F933F938F939F93AF93BF9376
:101820008091070A9091080AA091090AB0910A0ACA
:101830003091020A23E0230F2D3758F50196A11DA0
:10184000B11D2093020A8093070A9093080AA0937F
:10185000090AB0930A0A8091030A9091040AA091A0
:10186000050AB091060A0196A11DB11D8093030AD5
:101870009093040AA093050AB093060ABF91AF9112
:101880009F918F913F912F910F900FBE0F901F90BE
:10189000189526E8230F0296A11DB11DD2CF1F92E5
:1018A0000F920FB60F9211240BB60F922F933F9306
:1018B0004F935F936F937F938F939F93AF93BF9358
:1018C000EF93FF938BE09AE00E946805FF91EF9100
:1018D000BF91AF919F918F917F916F915F914F9148
:1018E0003F912F910F900BBE0F900FBE0F901F9046
:1018F00018951F920F920FB60F9211240BB60F92EC
:101900002F938F939F93EF93FF93E0911B0AF09196
:101910001C0A8081E091210AF091220A82FD1DC0FB
:1019200090818091240A8F5F8F732091250A8217FE
:1019300041F0E091240AF0E0E55FF54F958F809348
:10194000240AFF91EF919F918F912F910F900BBEE1
:101950000F900FBE0F901F9018958081F2CF1F92AD
:101960000F920FB60F9211240BB60F922F933F9345
:101970004F935F936F937F938F939F93AF93BF9397
:10198000EF93FF9388EA9AE00E946805FF91EF9138
:10199000BF91AF919F918F917F916F915F914F9187
:1019A0003F912F910F900BBE0F900FBE0F901F9085
:1019B00018951F920F920FB60F9211240BB60F922B
:1019C0002F938F939F93EF93FF93E091B80AF09139
:1019D000B90A8081E091BE0AF091BF0A82FD1DC064
:1019E00090818091C10A8F5F8F732091C20A821704
:1019F00041F0E091C10AF0E0E855F54F958F8093F2
:101A0000C10AFF91EF919F918F912F910F900BBE83
:101A10000F900FBE0F901F9018958081F2CFCF933B
:101A2000DF9310920E0A10920D0A48EE53E060E028
:101A300070E040930F0A5093100A6093110A70935C
:101A4000120A84E099E090930C0A80930B0A2DEC23
:101A500030E03093180A2093170A2CEC30E03093D2
:101A60001A0A2093190A28EC30E030931C0A2093BC
:101A70001B0A29EC30E030931E0A20931D0A2AEC41
:101A800030E03093200A20931F0A2EEC30E0309390
:101A9000220A2093210A1092240A1092250A1092F9
:101AA000260A1092270A1092AB0A1092AA0A4093B3
:101AB000AC0A5093AD0A6093AE0A7093AF0A90934C
:101AC000A90A8093A80A85EC90E09093B50A8093C8
:101AD000B40A84EC90E09093B70A8093B60A80EC45
:101AE00090E09093B90A8093B80A81EC90E09093CB
:101AF000BB0A8093BA0A82EC90E09093BD0A80936F
:101B0000BC0A86EC90E09093BF0A8093BE0A1092C4
:101B1000C10A1092C20A1092C30A1092C40A10920B
:101B2000150C1092140C80E299E09093130C8093A2
:101B3000120C8CE08093160C8FEF8093170C8BE0C7
:101B40008093180C85E08093190C84E080931A0C24
:101B500083E080931B0C82E080931C0C10921D0C80
:101B600010921E0C10921F0C1092200C1092210C3F
:101B700081E00E948607CAE0D0E0D0930B0CC093AE
:101B80000A0C88E090E090930D0C80930C0C89E097
:101B900090E090930F0C80930E0C81E090E0909376
:101BA000110C8093100C61E08AE00E94F30261E066
:101BB00080910C0C0E94F30261E080910E0C0E9457
:101BC000F30261E080910E0C0E94C102D0930B0CD5
:101BD000C0930A0CEAECFBE08AE09CE011928E17BD
:101BE0009F07E1F7D0E0C0E08091100C9091110CBC
:101BF000C817D907B4F520E04FE0BE018AEB9BE09F
:101C00000E9444068091100C9091110CC817D907BE
:101C10003CF427E04BE0BE018AEB9BE00E944406C7
:101C200020E049E0BE018AEB9BE00E9444068091DF
:101C3000100C9091110CC817D9071CF4CE010E940A
:101C4000C0068091100C9091110CC817D9073CF474
:101C500020E04CE0BE018AEB9BE00E944406219606
:101C6000C3CF1092B90B87E190E09093B80B8093AB
:101C7000B70B1092B60B88E190E09093B50B809370
:101C8000B40B1092470B10924B0B10924A0B109210
:101C90004C0B86E199E09093460B8093450BE1E66F
:101CA000FBE08DE99BE01082148213821582369648
:101CB0008E179F07C1F783E092E09093A80B809363
:101CC000A70B80E092E09093AA0B8093A90B84E08D
:101CD0008093AB0B83E08093AC0B87E092E0909312
:101CE000A60B8093A50B8AE090E09093AE0B8093B7
:101CF000AD0B84EF91E09093B00B8093AF0B1092FB
:101D0000B30B1092B20B1092A10B1092A20B109277
:101D1000A30B1092A40B1092B10BDF91CF910895F9
:101D2000789484B5826084BD84B5816084BD85B5B6
:101D3000826085BD85B5816085BD80916E008160C2
:101D400080936E0010928100809181008260809368
:101D5000810080918100816080938100809180006A
:101D60008160809380008091B10084608093B10095
:101D70008091B00081608093B0008091910082607A
:101D80008093910080919100816080939100809177
:101D900090008160809390008091A1008260809388
:101DA000A1008091A10081608093A1008091A0009A
:101DB00081608093A0008091210182608093210145
:101DC00080912101816080932101809120018160B7
:101DD0008093200180917A00846080937A008091C2
:101DE0007A00826080937A0080917A00816080938B
:101DF0007A0080917A00806880937A001092C10006
:101E000088EA9AE00E9474018BE09AE00E947401D3
:101E100084E00E9486078091100C9091110C181696
:101E2000190644F421E04CE070E060E08AEB9BE0AE
:101E30000E9444068091100C9091110C18161906FE
:101E400044F428E04AE070E060E08AEB9BE00E9406
:101E500044068091100C9091110C1816190624F468
:101E600090E080E00E94C00660E08091B70B0E9485
:101E7000F30260E08091B40B0E94F3028091000AAB
:101E80009091010A8130910551F08230910551F015
:101E9000892B11F40E944B080E94F705EFCF0E9496
:101EA0005409FACF0E94400BF7CFEE0FFF1F881F97
:101EB0008BBF0790F691E02D19940F931F93CF934A
:101EC000DF938230910510F482E090E0E0912C0CD9
:101ED000F0912D0C30E020E0B0E0A0E0309799F4D4
:101EE0002115310509F44AC0281B390B243031056E
:101EF000D8F58A819B816115710589F1FB01938376
:101F00008283FE0111C040815181028113814817F3
:101F10005907E0F04817590799F4109761F01296A5
:101F20000C93129713961C933296CF01DF91CF91A9
:101F30001F910F91089500932C0C10932D0CF4CF4A
:101F40002115310551F04217530738F0A901DB0183
:101F50009A01BD01DF01F801C1CFEF01F9CF9093E4
:101F60002D0C80932C0CCDCFFE01E20FF31F81933B
:101F700091932250310939832883D7CF20912A0C9D
:101F800030912B0C232B41F4209115023091160235
:101F900030932B0C20932A0C2091130230911402C1
:101FA0002115310541F42DB73EB7409117025091EC
:101FB0001802241B350BE0912A0CF0912B0CE21730
:101FC000F307A0F42E1B3F0B2817390778F0AC015C
:101FD0004E5F5F4F2417350748F04E0F5F1F509339
:101FE0002B0C40932A0C819391939FCFF0E0E0E07B
:101FF0009CCFCF93DF930097E9F0FC0132971382D7
:102000001282A0912C0CB0912D0CED0130E020E05B
:102010001097A1F420813181820F931F20912A0C07
:1020200030912B0C2817390709F061C0F0932B0C65
:10203000E0932A0CDF91CF910895EA01CE17DF07D4
:10204000E8F54A815B819E0141155105B1F7E9012F
:10205000FB83EA8349915991C40FD51FEC17FD0703
:1020600061F4808191810296840F951FE901998323
:102070008883828193819B838A83F0E0E0E01296DB
:102080008D919C9113970097B9F52D913C911197E3
:10209000CD010296820F931F20912A0C30912B0CB8
:1020A0002817390739F6309751F510922D0C1092F8
:1020B0002C0CB0932B0CA0932A0CBCCFD383C283DF
:1020C00040815181840F951FC817D90761F44E5F75
:1020D0005F4F88819981480F591F518340838A81BE
:1020E0009B81938382832115310509F0B0CFF09352
:1020F0002D0CE0932C0C9ECFFD01DC01C0CF138290
:102100001282D7CF4F925F926F927F928F929F925F
:10211000AF92BF92CF92DF92EF92FF920F931F93F5
:10212000CF93DF938C01009799F4CB01DF91CF918E
:102130001F910F91FF90EF90DF90CF90BF90AF90E5
:102140009F908F907F906F905F904F900C945D0F59
:10215000FC01E60FF71F9C0122503109E217F3073B
:1021600008F4AEC0D901CD91DC911197C617D707FD
:1021700020F1C530D10578F0CE0104978617970776
:1021800050F0C61BD70B2297C193D1936D937C93CC
:10219000CF010E94F90FC801DF91CF911F910F91DC
:1021A000FF90EF90DF90CF90BF90AF909F908F9077
:1021B0007F906F905F904F9008955B01AC1ABD0ABD
:1021C0004C018C0E9D1EA0912C0CB0912D0C512C0D
:1021D000412CF12CE12C109731F580912A0C909133
:1021E0002B0C8815990509F05CC04616570608F0B7
:1021F00058C08091130290911402009741F48DB75A
:102200009EB74091170250911802841B950BE81756
:10221000F90708F055C0F0932B0CE0932A0CF90154
:1022200071836083B8CF8D919C91119712966C90B9
:10223000129713967C901397A815B90559F56C0160
:1022400042E0C40ED11CCA14DB0420F1AC014A19CF
:102250005B09DA011296159780F0628273825183CE
:102260004083D9016D937C93E114F10471F0D7019F
:102270001396FC93EE9312978ECF22968C0F9D1F90
:10228000F90191838083F301EFCFF0932D0CE0935C
:102290002C0C81CF4816590608F42C017D01D3017E
:1022A0009ACFCB010E945D0F7C01009749F0AE01EF
:1022B000B8010E946311C8010E94F90F87016BCF1A
:1022C00010E000E068CFFB01DC0102C001900D923C
:1022D00041505040D8F70895FB01DC018D910190E9
:1022E00080190110D9F3990B0895FB01DC010190CD
:1022F0000D920020E1F70895F894FFCF1E1F201AD9
:102300001B1C1D31323334353637383958302300F1
:10231000002E0C80000001010100010000000101FD
:1023200001010101010000000101000000010101A3
:102330000101000100000001010101010001000094
:102340000001010101010001010101010100000082
:102350000001000000000100000000010101010176
:102360000101010100010000000101000000010164
:102370000000000101010101000101010101010052
:102380000000000101010101010000000001010144
:102390000101010101010101000000000101010131
:1023A0000101000000000100000000000101010126
:1023B0000100000000010001010101000000010016
:1023C0000101010101000000010100000001010103
:1023D00001010101000000010100000001010101F3
:1023E00001010000010000000001000000000100E8
:1023F00000010101010101010101010000010000D2
:1024000000000100000000010000010100000001C7
:1024100000000100010001000001010000000100B6
:1024200001000001000001000100000000010000A7
:102430000000010000000001000000000101010196
:102440000101010001010100010001010000000182
:102450000100000001010000000101000000010175
:102460000100000101000100010100000101010063
:102470000000010000010100010100000101000154
:102480000001010000010101000000010001010143
:102490000001000000010100000001010000000136
:1024A0000001010100000101010001000000010123
:1024B0000101010001000000000100000000000116
:1024C0000101000100000001010000000101000104
:1024D00000010001010101010101010001000000F2
:1024E00001010101010001000001000100000001E3
:1024F00000010101010100000000000101010000D4
:1025000000000001010101010001010101010000C1
:1025100001000000000100000000010000000001B7
:1025200000000100000001010000000101000000A6
:102530000101000000010001010100010000000193
:102540000100000001010000000100010001000085
:102550000001000001000000010100000001010075
:102560000000010100010001010100010101000062
:102570000001000100010000000100000001000155
:102580000001000000010100000001000100010045
:102590000000010000000001000000000100000137
:1025A0000101010100000001000000010000000124
:1025B0000000000101010101010001000100010111
:1025C0000100000001000000010101000100010004
:1025D00001000100010001010101010001000100F1
:1025E00001010101010001000100000101010101DF
:1025F00000010000000101010000000100010101D3
:1026000001010000000100000000010000000001C5
:102610000000000000000000000100006100000058
:1026200000000000000000000000000000000000AA
:102630000000000000000000000000006200000038
:10264000000000000000000000000000000000008A
:102650000000000000000000000001006300000016
:10266000000000000000000000000000000000006A
:1026700000000000000000000000020064000000F4
:10268000000000000000000000000000000000004A
:1026900000000000000000000000030065000000D2
:1026A000000000000000000000000000000000002A
:1026B00000000000000000000000040066000000B0
:1026C000000000000000000000000000000000000A
:1026D000000000000000000000000500670000008E
:1026E00000000000000000000000000000000000EA
:1026F000000000000000000000000600680000006C
:1027000000000000000000000000000000000000C9
:102710000000000000000000000007006900000049
:1027200000000000000000000000000000000000A9
:102730000000000000000000000008006A00000027
:102740000000000000000000000000000000000089
:102750000000000000000000000009006B00000005
:102760000000000000000000000000000000000069
:10277000000000000000000000000A006C000000E3
:102780000000000000000000000000000000000049
:10279000000000000000000000000B006D000000C1
:1027A0000000000000000000000000000000000029
:1027B000000000000000000000000C006E0000009F
:1027C0000000000000000000000000000000000009
:1027D000000000000000000000000D00C3B1000078
:1027E00000000000000000000000000000000000E9
:1027F000000000000000000000000E006F0000005C
:1028000000000000000000000000000000000000C8
:10281000000000000000000000000F007000000039
:1028200000000000000000000000000000000000A8
:102830000000000000000000000010007100000017
:102840000000000000000000000000000000000088
:1028500000000000000000000000110072000000F5
:102860000000000000000000000000000000000068
:1028700000000000000000000000120073000000D3
:102880000000000000000000000000000000000048
:1028900000000000000000000000130074000000B1
:1028A0000000000000000000000000000000000028
:1028B000000000000000000000001400750000008F
:1028C0000000000000000000000000000000000008
:1028D000000000000000000000001500760000006D
:1028E00000000000000000000000000000000000E8
:1028F000000000000000000000001600770000004B
:1029000000000000000000000000000000000000C7
:102910000000000000000000000017007800000028
:1029200000000000000000000000000000000000A7
:102930000000000000000000000018007900000006
:102940000000000000000000000000000000000087
:102950000000000000000000000019007A000000E4
:102960000000000000000000000000000000000067
:10297000000000000000000000001A002A00000013
:102980000000000000000000000000000000000047
:10299000000000000000000000001B0023000000F9
:1029A0000000000000000000000000000000000027
:1029B000000000000000000000001C0024000000D7
:1029C0000000000000000000000000000000000007
:1029D000000000000000000000001D0021000000B9
:1029E00000000000000000000000000000000000E7
:1029F000000000000000000000001E0000000000B9
:102A00008A05E1041705D705480526053A050000A3
:102A100000002F03EF02BE02000000003808E104AE
:102A2000250624064269656E76656E69646F0052FC
:102A30006F626572746F323032303030353434004A
:102A40004564676172646F32303138303131313909
:102A500000436573617232303230313038313600C4
:102A60004A6F736532303230303138303000416E69
:102A700067656C323032303132303339004D656E3B
:102A800075205072696E636970616C00312E204C44
:102A90006F67696E00322E20526567697374726FBA
:102AA000004F7063696F6E3A0020202020202020A4
:102AB000202020202020202020004D4158003100DF
:102AC00032004D656E752041444D494E00312E2037
:102AD000646973706C6179206465006C6F67730062
:102AE000322E20636865636B2064656C00737973B4
:0C2AF00074656D207374617475730000D0
:020000040003F7
:10E000000D9489F10D94B2F10D94B2F10D94B2F129
:10E010000D94B2F10D94B2F10D94B2F10D94B2F1F0
:10E020000D94B2F10D94B2F10D94B2F10D94B2F1E0
:10E030000D94B2F10D94B2F10D94B2F10D94B2F1D0
:10E040000D94B2F10D94B2F10D94B2F10D94B2F1C0
:10E050000D94B2F10D94B2F10D94B2F10D94B2F1B0
:10E060000D94B2F10D94B2F10D94B2F10D94B2F1A0
:10E070000D94B2F10D94B2F10D94B2F10D94B2F190
:10E080000D94B2F10D94B2F10D94B2F10D94B2F180
:10E090000D94B2F10D94B2F10D94B2F10D94B2F170
:10E0A0000D94B2F10D94B2F10D94B2F10D94B2F160
:10E0B0000D94B2F10D94B2F10D94B2F10D94B2F150
:10E0C0000D94B2F10D94B2F10D94B2F10D94B2F140
:10E0D0000D94B2F10D94B2F10D94B2F10D94B2F130
:10E0E0000D94B2F141546D656761323536300041AF
:10E0F000726475696E6F206578706C6F72657220DE
:10E1000073746B3530305632206279204D4C530099
:10E11000426F6F746C6F616465723E004875683F52
:10E1200000436F6D70696C6564206F6E203D200048
:10E130004350552054797065202020203D20005FF9
:10E140005F4156525F415243485F5F3D2000415658
:10E1500052204C696243205665723D20004743437C
:10E160002056657273696F6E203D20004350552024
:10E1700049442020202020203D20004C6F7720663D
:10E18000757365202020203D20004869676820665F
:10E190007573652020203D200045787420667573D6
:10E1A00065202020203D20004C6F636B2066757336
:10E1B000652020203D20004D617220203720323024
:10E1C000313300312E362E3800342E332E350056A2
:10E1D00023202020414444522020206F7020636F70
:10E1E00064652020202020696E73747275637469E1
:10E1F0006F6E2061646472202020496E74657272B3
:10E20000757074006E6F20766563746F7200726A49
:10E210006D702020006A6D70200057686174207056
:10E220006F72743A00506F7274206E6F7420737541
:10E2300070706F72746564004D7573742062652030
:10E2400061206C6574746572002000577269747483
:10E25000696E672045450052656164696E672045B7
:10E26000450045452065727220636E743D00504F35
:10E27000525400303D5A65726F2061646472003FF1
:10E280003D43505520737461747300403D454550C3
:10E29000524F4D207465737400423D426C696E6B41
:10E2A000204C454400453D44756D70204545505215
:10E2B0004F4D00463D44756D7020464C415348001B
:10E2C000483D48656C70004C3D4C69737420492F83
:10E2D0004F20506F72747300513D51756974005234
:10E2E0003D44756D702052414D00563D73686F7707
:10E2F00020696E7465727275707420566563746FF0
:10E30000727300593D506F727420626C696E6B00BD
:10E310002A0011241FBECFEFD1E2DEBFCDBF01E046
:10E320000CBF12E0A0E0B2E0EEE1FDEF03E00BBFB6
:10E3300002C007900D92A030B107D9F712E0A0E01B
:10E34000B2E001C01D92AE30B107E1F70F9460F367
:10E350000D948DFE01E20EBF0FEF0DBF11241FBE05
:10E360000D9460F30D9400F020E030E040ED57E0B4
:10E3700005C0FA013197F1F72F5F3F4F2817390792
:10E38000C0F308959C01260F311DC901A0E0B0E043
:10E390002F5F3F4FABBFFC018791882361F08093D3
:10E3A000C6008091C00086FFFCCF8091C0008064D1
:10E3B0008093C000EACF08958DE08093C6008091DD
:10E3C000C00086FFFCCF8091C00080648093C000B5
:10E3D0008AE08093C6008091C00086FFFCCF8091C8
:10E3E000C00080648093C00008950F94C2F10F9420
:10E3F000DCF10895FC019081992359F09093C600B7
:10E400008091C00086FFFCCF8091C0008064809323
:10E41000C0003196992379F70895282F982F929567
:10E420009F70892F805D8A3308F0895F8093C600D2
:10E430008091C00086FFFCCF8091C00080648093F3
:10E44000C000822F8F70982F905D9A3308F0995FEB
:10E450009093C6008091C00086FFFCCF8091C000E1
:10E4600080648093C00008959C01FB01853691056E
:10E470001CF46330710594F0C90164E670E00F94F8
:10E480002EFE605D7F4F6093C6008091C00086FFC6
:10E49000FCCF8091C00080648093C0002B30310598
:10E4A00014F43297B4F0C90164E670E00F942EFEC4
:10E4B0006AE070E00F942EFE605D7F4F6093C600AF
:10E4C0008091C00086FFFCCF8091C0008064809363
:10E4D000C000C9016AE070E00F942EFEC0968093E0
:10E4E000C6008091C00086FFFCCF8091C000806490
:10E4F0008093C00008951F93182F8EE692EE60E07F
:10E500000F94C2F11093C6008091C00086FFFCCF2B
:10E510008091C00080648093C0000F94DCF11F9153
:10E5200008952F923F924F925F926F927F928F92B7
:10E530009F92AF92BF92CF92DF92EF92FF920F9392
:10E540001F93DF93CF93CDB7DEB762970FB6F894E2
:10E55000DEBF0FBECDBF382E622ECA01DB015C01CB
:10E560006D01772420E2222E2E010894411C511CBB
:10E570008BC081E0A81680E0B80681E0C80680E084
:10E58000D80628F0C601AA27BB270F940DF2BB2797
:10E59000AD2D9C2D8B2D0F940DF28A2D0F940DF225
:10E5A0002092C6008091C00086FFFCCF8091C00001
:10E5B00080648093C0009DE29093C6008091C0006B
:10E5C00086FFFCCF8091C00080648093C0002092C1
:10E5D000C6008091C00086FFFCCF8091C00080649F
:10E5E0008093C00019828601750188249924A1E0D6
:10E5F0003A1651F03A1620F0B2E03B1661F409C029
:10E600000BBFF701779007C0C7010F9477FE782EF4
:10E6100002C0F7017080872D0F940DF22092C60082
:10E620008091C00086FFFCCF8091C0008064809301
:10E63000C000872D8052F401EF70F0708F3520F408
:10E64000E40DF51D708204C0E40DF51D8EE280839B
:10E650000894E11CF11C011D111D0894811C911CE2
:10E6600090E18916910409F0C2CF80E190E0A0E02A
:10E67000B0E0A80EB91ECA1EDB1E198AC2010F9493
:10E68000FAF10F94DCF16A94662009F072CF629679
:10E690000FB6F894DEBF0FBECDBFCF91DF911F91B3
:10E6A0000F91FF90EF90DF90CF90BF90AF909F9031
:10E6B0008F907F906F905F904F903F902F90089534
:10E6C0002F923F924F925F926F927F928F929F9282
:10E6D000AF92BF92CF92DF92EF92FF920F931F9370
:10E6E000DF93CF93CDB7DEB7CD53D1400FB6F894BB
:10E6F000DEBF0FBECDBF01E20EBF0FEF0DBF94B75F
:10E70000F894A89514BE80916000886180936000A1
:10E7100010926000789493FF05C0E0910002F091A0
:10E7200001021995279A2F9A8091C00082608093E8
:10E73000C00080E18093C40088E18093C1000000A4
:10E74000EE24FF24870144E0A42EB12CCC24DD2448
:10E7500024C0C5010197F1F70894E11CF11C011DCB
:10E76000111D21E2E2162EE4F20620E0020720E06D
:10E77000120718F031E0C32ED12CC801B70127ECE5
:10E780003BE140E050E00F9441FE611571058105C9
:10E79000910519F485B1805885B98091C00087FD35
:10E7A00003C0C114D104A9F2A6014F5F5F4FC25E3E
:10E7B000DE4F59834883CE51D140C25EDE4F8881FF
:10E7C0009981CE51D140019711F00D9410FEC05D9A
:10E7D000DE4F19821882C053D14060E0C15DDE4F28
:10E7E0001882CF52D14088249924C35DDE4F19820C
:10E7F0001882CD52D140C05EDE4F188219821A8233
:10E800001B82C052D140CE5CDE4F188219821A8220
:10E810001B82C253D140EE24FF2487010BBFF701B6
:10E8200007911691C45CDE4F19830883CC53D14005
:10E830000D940BFEC25EDE4F28813981CE51D1404E
:10E840002130310509F52091C600C25EDE4F1982E4
:10E850001882CE51D14022C02F5F3F4F4F4F5F4FA4
:10E86000213082E138078AE7480780E0580780F0C6
:10E87000C45CDE4FE881F981CC53D140EF5FFF4F9C
:10E8800019F0EE27FF27099420E030E040E050E047
:10E890008091C00087FFE0CF2091C600C35DDE4FAE
:10E8A00048815981CD52D1404F5F5F4FC35DDE4FEC
:10E8B00059834883CD52D140213209F063C64A3092
:10E8C000510508F05FC60894811C911C53E0851621
:10E8D000910409F059C600E010E018C081E280936D
:10E8E000C6008091C00086FFFCCF8091C00080648C
:10E8F0008093C0002F5F3F4F2931310579F70F9486
:10E90000DCF10F5F1F4F0530110519F020E030E0FA
:10E91000E5CF10920A0210920B0210920C02109294
:10E920000D02109206021092070210920802109235
:10E930000902109202021092030210920402109235
:10E9400005028FEE90EE60E00F94F5F180E191EE1C
:10E9500060E00F94C2F18091C00087FFFCCF9091DE
:10E96000C600903608F09F759032B8F09093C600BC
:10E970008091C00086FFFCCF8091C00080648093AE
:10E98000C000A0E2A093C6008091C00086FFFCCF2B
:10E990008091C00080648093C000983409F4D7C18E
:10E9A0009934B8F4923409F459C1933458F490333B
:10E9B00019F1903308F4E3C59F33A1F1903409F0C5
:10E9C000DEC5BDC0953409F470C1963409F0D7C5D1
:10E9D00098C1923509F42BC2933538F49C3409F46C
:10E9E000F5C1913509F0CBC518C2963509F445C279
:10E9F000993509F0C4C567C483E792EE62E00F94CD
:10EA0000F5F110920602109207021092080210927D
:10EA1000090210920A0210920B0210920C0210923C
:10EA20000D0213C18FE792EE62E00F94F5F18FEEC5
:10EA300090EE60E00F94F5F181E291EE60E00F94CA
:10EA4000C2F187EB91EE60E00F94F5F180E391EE77
:10EA500060E00F94C2F184EE90EE60E00F94F5F167
:10EA60008FE391EE60E00F94C2F186E090E061E008
:10EA700070E00F9434F20F94DCF18DE591EE60E0DC
:10EA80000F94C2F189EC91EE60E00F94F5F18EE401
:10EA900091EE60E00F94C2F183EC91EE60E00F9490
:10EAA000F5F18CE691EE60E00F94C2F18EE10F94E7
:10EAB0000DF288E90F940DF281E00F940DF20F949E
:10EAC000DCF18BE791EE60E00F94C2F119E0E0E039
:10EAD000F0E010935700E4918E2F0F940DF20F94F5
:10EAE000DCF18AE891EE60E00F94C2F1E3E0F0E03F
:10EAF00010935700E4918E2F0F940DF20F94DCF1D8
:10EB000089E991EE60E00F94C2F1E2E0F0E0109349
:10EB10005700E4918E2F0F940DF20F94DCF188EAE8
:10EB200091EE60E00F94C2F1E1E0F0E01093570045
:10EB30001491812F0F940DF20F94DCF107CF8BE825
:10EB400092EE62E00F94F5F18BE492EE60E00F94A8
:10EB5000F5F10F94DCF100E010E019C0C8016F2D51
:10EB60000F947FFEFF2031F489E492EE60E00F9471
:10EB7000C2F10BC0F092C6008091C00086FFFCCFAE
:10EB80008091C00080648093C0000F5F1F4FC80158
:10EB900081519F41A0E0B0E0ABBFFC01F790BAE229
:10EBA000FB1621F0E2E000301E07C1F60F94DCF105
:10EBB0000F94DCF187E592EE60E00F94F5F10F948D
:10EBC000DCF1CC24DD2400E010E01EC0C8010F946D
:10EBD00077FEF82E882331F489E492EE60E00F94FA
:10EBE000C2F10BC08093C6008091C00086FFFCCFAD
:10EBF0008091C00080648093C000FE1419F00894D6
:10EC0000C11CD11C0F5F1F4FC80181519F41A0E063
:10EC1000B0E0ABBFFC01E790FAE2EF1621F022E092
:10EC20000030120799F60F94DCF10F94DCF182E6C4
:10EC300092EE60E00F94C2F1C60161E070E00F94C3
:10EC400034F20F94DCF10F94DCF110920202109276
:10EC50000302109204021092050278CE89E992EE26
:10EC600062E00F94F5F1279A2F9A16C02F9880E052
:10EC700090E0E0EDF7E03197F1F7019684369105E9
:10EC8000C1F72F9A80E090E0E0EDF7E03197F1F7DF
:10EC9000019684369105C1F78091C00087FFE6CFC9
:10ECA0008091C00087FFFCCF64C485EA92EE62E0E9
:10ECB0000F94F5F140910202509103026091040219
:10ECC0007091050281E020E10F9491F2809102029F
:10ECD00090910302A0910402B091050280509F4FD1
:10ECE000AF4FBF4F8093020290930302A0930402A0
:10ECF000B093050280509041A040B04008F426CE69
:10ED0000A4CF83EB92EE62E00F94F5F140910602FE
:10ED100050910702609108027091090280E020E1A1
:10ED20000F9491F28091060290910702A09108023F
:10ED3000B091090280509F4FAF4FBF4F80930602A2
:10ED400090930702A0930802B0930902FFCD80ECD4
:10ED500092EE62E00F94F5F183E792EE60E00F949B
:10ED6000F5F18FE792EE60E00F94F5F18BE892EE0B
:10ED700060E00F94F5F189E992EE60E00F94F5F10F
:10ED800085EA92EE60E00F94F5F183EB92EE60E09D
:10ED90000F94F5F180EC92EE60E00F94F5F187ECC2
:10EDA00092EE60E00F94F5F188ED92EE60E00F9442
:10EDB000F5F18FED92EE60E00F94F5F18AEE92EEB0
:10EDC00060E00F94F5F183E093EEBDCD87EC92EE19
:10EDD00062E00F94F5F181E40F947BF282E40F94EA
:10EDE0007BF283E40F947BF284E40F947BF285E45E
:10EDF0000F947BF286E40F947BF287E40F947BF20E
:10EE000088E40F947BF28AE40F947BF28BE40F94F6
:10EE10007BF28CE40F947BF299CD88ED92EE62E068
:10EE20000F94F5F1772473948824992409C48FED05
:10EE300092EE62E00F94F5F140910A0250910B02BC
:10EE400060910C0270910D0282E020E10F9491F22A
:10EE500080910A0290910B02A0910C02B0910D02D8
:10EE600080509F4FAF4FBF4F80930A0290930B0289
:10EE7000A0930C02B0930D0269CD8AEE92EE62E08F
:10EE80000F94F5F184EE90EE60E00F94F5F18FECC5
:10EE900091EE60E00F94F5F1662477244301CC5D98
:10EEA000DE4F19821882C452D140D401C301B695F5
:10EEB000A79597958795CA5DDE4F88839983AA8326
:10EEC000BB83C652D140CC5DDE4FA881B981C4520C
:10EED000D1401196CC5DDE4FB983A883C452D14096
:10EEE000CD0162E070E00F9434F2B0E2B093C6005E
:10EEF0008091C00086FFFCCF8091C0008064809329
:10EF0000C000EDE2E093C6008091C00086FFFCCF18
:10EF10008091C00080648093C000F0E2F093C6004E
:10EF20008091C00086FFFCCF8091C00080648093F8
:10EF3000C000CA5DDE4FE880F9800A811B81C6529D
:10EF4000D140BB27A12F902F8F2D0F940DF2CA5DBA
:10EF5000DE4F8881C652D1400F940DF2B0E2FB2EF5
:10EF6000F092C6008091C00086FFFCCF8091C00067
:10EF700080648093C0000DE30093C6008091C000C0
:10EF800086FFFCCF8091C00080648093C00010E2B7
:10EF90001093C6008091C00086FFFCCF8091C00016
:10EFA00080648093C0008BBEF3012791C65DDE4F65
:10EFB0002883CA52D140A22EBB24CC24DD2408943D
:10EFC000611C711C811C911C8BBEF3018791282E42
:10EFD0003324442455240894611C711C811C911C09
:10EFE0008BBEF3013791C55DDE4F3883CB52D140E4
:10EFF0000894611C711C811C911C8BBEF30147910C
:10F00000C45DDE4F4883CC52D140ADEFEA2EAFEF66
:10F01000FA2EAFEF0A2FAFEF1A2F6E0C7F1C801E57
:10F02000911E142D032DF22CEE24EA0CFB1C0C1D5A
:10F030001D1D0F940DF220E22093C6008091C000A8
:10F0400086FFFCCF8091C00080648093C000C65DC5
:10F05000DE4F8881CA52D1400F940DF230E23093D6
:10F06000C6008091C00086FFFCCF8091C000806404
:10F070008093C000C45DDE4F8881CC52D1400F9494
:10F080000DF240E24093C6008091C00086FFFCCFA5
:10F090008091C00080648093C000C55DDE4F888190
:10F0A000CB52D1400F940DF250E25093C6008091A4
:10F0B000C00086FFFCCF8091C00080648093C000B8
:10F0C0008FEFE8168FEFF80680E0080780E018075A
:10F0D00031F484E092EE60E00F94C2F1DFC0D80119
:10F0E000C7018070907CA070B0708050904CA040A0
:10F0F000B040D1F52FEF3FE340E050E0E222F322B1
:10F1000004231523CA5DDE4FA880B980CA80DB8046
:10F11000C652D140AE0CBF1CC01ED11EAA0CBB1CD7
:10F12000CC1CDD1C8EE092EE60E00F94C2F1BB2798
:10F13000A12F902F8F2D0F940DF28E2D0F940DF285
:10F1400030E23093C6008091C00086FFFCCF8091F2
:10F15000C00080648093C0004EE34093C60080915D
:10F16000C00086FFFCCF87C08EE09EEFA0E0B0E03D
:10F17000E822F9220A231B239CE0E91694E9F90608
:10F1800090E0090790E0190709F088C0C45DDE4FE0
:10F19000A881CC52D140EA2EFF2400E010E0102FCD
:10F1A0000F2DFE2CEE24C55DDE4FB881CB52D14031
:10F1B000EB0EF11C011D111DD601C501817090706F
:10F1C000A070B070DC0199278827E80EF91E0A1F8D
:10F1D0001B1F20EF30E040E050E0A222B322C42207
:10F1E000D52241E1AA0CBB1CCC1CDD1C4A95D1F7F1
:10F1F000EA0CFB1C0C1D1D1D81E090E0A0E0B0E0BE
:10F20000282239224A225B2235E1220C331C441C7D
:10F21000551C3A95D1F7E20CF31C041D151D57013E
:10F220006801AA0CBB1CCC1CDD1C85E192EE60E0E1
:10F230000F94C2F1C801AA27BB270F940DF2BB2778
:10F24000A12F902F8F2D0F940DF28E2D0F940DF274
:10F2500090E29093C6008091C00086FFFCCF809121
:10F26000C00080648093C000AEE3A093C60080918C
:10F27000C00086FFFCCF8091C00080648093C000F6
:10F28000C601AA27BB270F940DF2BB27AD2D9C2DDD
:10F290008B2D0F940DF28A2D0F940DF20F94DCF14B
:10F2A000CC5DDE4FE881F981C452D140F99709F471
:10F2B0004DCBF4E0EF2EF12C012D112D6E0C7F1CA7
:10F2C000801E911EF2CD83E093EE62E00F94F5F183
:10F2D0008AE192EE60E00F94C2F18091C00087FF56
:10F2E000FCCF1091C6001F751093C6008091C0001E
:10F2F00086FFFCCF8091C00080648093C0000F9493
:10F30000DCF1812F81548A3108F036C1163409F4BA
:10F3100095C0173490F4133409F44EC0143430F40B
:10F320001134F1F0123409F01DC130C0143409F465
:10F3300059C0153409F016C16BC01A3409F4C4C0A1
:10F340001B3438F4173409F48FC0183409F00AC19B
:10F35000A1C01B3409F4D2C01C3409F003C1E8C0B9
:10F360008FEF81B90DC082B1809582B980E090E0C5
:10F37000E0EDF7E03197F1F70196883C9105C1F790
:10F380008091C00087FFEFCF12B8EFC08FEF84B934
:10F390000DC085B1809585B980E090E0E0EDF7E0A3
:10F3A0003197F1F70196883C9105C1F78091C00033
:10F3B00087FFEFCF15B8D9C08FEF87B90DC088B1DF
:10F3C000809588B980E090E0E0EDF7E03197F1F7C3
:10F3D0000196883C9105C1F78091C00087FFEFCF6F
:10F3E00018B8C3C08FEF8AB90DC08BB180958BB9A7
:10F3F00080E090E0E0EDF7E03197F1F70196883C8E
:10F400009105C1F78091C00087FFEFCF1BB8ADC059
:10F410008FEF8DB90DC08EB180958EB980E090E0F0
:10F42000E0EDF7E03197F1F70196883C9105C1F7DF
:10F430008091C00087FFEFCF1EB897C08FEF80BBD1
:10F440000DC081B3809581BB80E090E0E0EDF7E0F6
:10F450003197F1F70196883C9105C1F78091C00082
:10F4600087FFEFCF11BA81C08FEF83BB0DC084B38C
:10F47000809584BB80E090E0E0EDF7E03197F1F714
:10F480000196883C9105C1F78091C00087FFEFCFBE
:10F4900014BA6BC08FEF809301010FC080910201FD
:10F4A00080958093020180E090E0E0EDF7E03197F5
:10F4B000F1F70196883C9105C1F78091C00087FF64
:10F4C000EDCF1092020151C08FEF809304010FC065
:10F4D0008091050180958093050180E090E0E0ED4A
:10F4E000F7E03197F1F70196883C9105C1F78091DB
:10F4F000C00087FFEDCF1092050137C08FEF8093DA
:10F5000007010FC08091080180958093080180E079
:10F5100090E0E0EDF7E03197F1F70196883C910536
:10F52000C1F78091C00087FFEDCF109208011DC088
:10F530008FEF80930A010FC080910B01809580931B
:10F540000B0180E090E0E0EDF7E03197F1F70196F4
:10F55000883C9105C1F78091C00087FFEDCF1092E4
:10F560000B0103C085E292EEEEC98091C00087FFD7
:10F57000FCCF8091C600EAC988E392EEE4C98CE131
:10F5800091EEE1C988249924933011F1943028F444
:10F59000913089F09230B8F408C0953061F195301F
:10F5A000F0F0963009F048C043C02B3109F042C951
:10F5B00091E06BE13FC96227C15DDE4F2883CF52E6
:10F5C000D14092E037C9B22FA0E0622793E032C960
:10F5D000822F90E0A82BB92B622794E02BC92E3004
:10F5E00009F039C3622795E0C05DDE4F19821882A9
:10F5F000C053D1401FC9E1E0F0E0EC0FFD1FC05D3A
:10F60000DE4F08811981C053D140E00FF11F2083E4
:10F610000F5F1F4FC05DDE4F19830883C053D14079
:10F6200062270A171B0709F005C9D80196E002C92D
:10F63000261709F010C303C0973009F0FBC87724E0
:10F640009981933109F412C19431C8F4963009F4C8
:10F65000D8C0973050F4923009F406C1933009F4C1
:10F660006DC0913009F059C253C0913109F477C08F
:10F67000923108F0BBC0903109F04FC2F5C098310B
:10F6800009F487C0993150F4953109F4EFC09531F0
:10F6900008F4C6C1963109F040C2C2C19A3109F4DA
:10F6A0006CC09A3108F491C09B3109F45BC09D3164
:10F6B00009F033C29D81903359F48F81882311F46E
:10F6C0009EE11CC0813011F091E018C098E916C08D
:10F6D000892F807591F0903539F4E0E0F0E089E011
:10F6E0008093570094910AC0983539F4E3E0F0E034
:10F6F00089E080935700949101C090E01A821B82A8
:10F700008D818C831D829E831F8227E030E009C299
:10F710001A8288E08B8381E48C8386E58D8382E581
:10F720008E8389E48F8383E5888780E589878FE5E9
:10F730008A8782E38B872BE030E0F3C18A818139AD
:10F7400041F0823941F0803911F48FE005C080E04A
:10F7500003C082E001C08AE01A828B8344C0772410
:10F76000739482C08D81882311F48EE12CC0813086
:10F7700011F081E028C088E926C01A82E1E0F0E0BB
:10F7800089E08093570084918B831C8224E030E0D1
:10F79000C8C18B81803589F48C81883039F4E2E0EE
:10F7A000F0E089E08093570084910DC0E0E0F0E044
:10F7B00089E080935700849106C0E3E0F0E089E09F
:10F7C0008093570084911A82DFCF8D81836C99E0FA
:10F7D000E1E0F0E0082E90935700E89507B600FCB2
:10F7E000FDCF1A821B8223E030E09BC180EC8A832C
:10F7F000CE5CDE4F188219821A821B82C253D1401E
:10F800008EC18A8190E0A0E0B0E0582F44273327D2
:10F8100022278B8190E0A0E0B0E0DC0199278827C7
:10F82000282B392B4A2B5B2B8D8190E0A0E0B0E098
:10F83000282B392B4A2B5B2B8C8190E0A0E0B0E089
:10F84000BA2FA92F982F8827282B392B4A2B5B2BCF
:10F85000220F331F441F551FC05EDE4F288339839C
:10F860004A835B83C052D1401A8259C13A81C95C34
:10F87000DE4F3883C753D140CA5CDE4F1882C6536F
:10F88000D1408B81C82EDD24CA5CDE4F488159816E
:10F89000C653D140C42AD52A933109F082C0CE5C28
:10F8A000DE4F88819981AA81BB81C253D1408050AB
:10F8B000904CA340B04030F583E0CE5CDE4FE88052
:10F8C000F9800A811B81C253D140F70100935B008C
:10F8D00080935700E89507B600FCFDCFCE5CDE4F65
:10F8E000088119812A813B81C253D14000501F4FAA
:10F8F0002F4F3F4FCE5CDE4F088319832A833B8313
:10F90000C253D140C05EDE4F488159816A817B81FC
:10F91000C052D140DE011B9631E08C9111962C91A2
:10F9200011971296C75CDE4F2883C953D140C85C3B
:10F93000DE4F1882C853D14090E0C85CDE4FE881AA
:10F94000F981C853D1408E2B9F2B0C01FA01609393
:10F950005B0030935700E89511244E5F5F4F6F4F67
:10F960007F4F0EEFE02E0FEFF02ECE0CDF1CC114F8
:10F97000D10499F685E0C05EDE4F088119812A81A5
:10F980003B81C052D140F80120935B008093570027
:10F99000E89507B600FCFDCF81E180935700E8951C
:10F9A00035C0C05EDE4F88819981AA81BB81C0527B
:10F9B000D140B695A795979587957C018601ABE0D8
:10F9C000AA2EB12CAC0EBD1E0BC0D5016D915D01F0
:10F9D000C7010F947FFE0894E11CF11C01501040F8
:10F9E0000115110591F7A60160E070E0440F551F65
:10F9F000661F771FC05EDE4FE880F9800A811B8199
:10FA0000C052D1404E0D5F1D601F711F1A82C05E33
:10FA1000DE4F488359836A837B83C052D1407FC0C5
:10FA2000FA80C55CDE4FF882CB53D140C65CDE4F16
:10FA30001882CA53D1408B81C82EDD24C65CDE4FAC
:10FA400008811981CA53D140C02AD12A1A828981DA
:10FA5000BE016D5F7F4F843121F59601C05EDE4FA0
:10FA6000E880F9800A811B81C052D1400BBFF701A9
:10FA700087919691DB018C9311969C936E5F7F4FDB
:10FA8000D801C7010296A11DB11DC05EDE4F88835B
:10FA90009983AA83BB83C052D14022503040F1F6F3
:10FAA00036C0C05EDE4F288139814A815B81C052F9
:10FAB000D1400894C108D108760100E010E0089414
:10FAC000C11CD11C0894E11CF11C011D111DE20E8A
:10FAD000F31E041F151F21BDBB27A52F942F832FB5
:10FAE00082BD2F5F3F4F4F4F5F4FF89A80B5DB01CC
:10FAF0008D93BD012E153F054007510761F7C05E8C
:10FB0000DE4F288339834A835B83C052D1409601FC
:10FB10002D5F3F4FFB01108204C080EC8A8322E0FE
:10FB200030E08BE18093C6008091C00086FFFCCF5F
:10FB30008091C00080648093C000C15DDE4FF88179
:10FB4000CF52D140F093C6008091C00086FFFCCF19
:10FB50008091C00080648093C000432F3093C60022
:10FB60008091C00086FFFCCF8091C00080648093AC
:10FB7000C000922F2093C6008091C00086FFFCCF6A
:10FB80008091C00080648093C0008EE08093C600A6
:10FB90008091C00086FFFCCF8091C000806480937C
:10FBA000C00065E1C15DDE4FE880CF52D1406E25D7
:10FBB00069276427FE01319610C090819093C6009A
:10FBC0008091C00086FFFCCF31968091C000806498
:10FBD0008093C0006927215030402115310569F715
:10FBE0006093C6008091C00086FFFCCF8091C0006A
:10FBF00080648093C00085B1805885B9772081F4F6
:10FC0000C15DDE4F0881CF52D1400F5FC15DDE4F35
:10FC10000883CF52D14090E0A0E0B0E00D941AF4F8
:10FC200027982F9880E090E020ED37E0F901319798
:10FC3000F1F7019684369105C9F700008091C00064
:10FC40008D7F8093C00081E180935700E895EE2777
:10FC5000FF270994FFCF90E00D941AF497FB092E2B
:10FC600007260AD077FD04D02ED006D000201AF443
:10FC7000709561957F4F0895F6F7909581959F4F08
:10FC80000895A1E21A2EAA1BBB1BFD010DC0AA1FDD
:10FC9000BB1FEE1FFF1FA217B307E407F50720F0F5
:10FCA000A21BB30BE40BF50B661F771F881F991F70
:10FCB0001A9469F760957095809590959B01AC01B9
:10FCC000BD01CF010895AA1BBB1B51E107C0AA1FAC
:10FCD000BB1FA617B70710F0A61BB70B881F991FED
:10FCE0005A95A9F780959095BC01CD010895F99991
:10FCF000FECF92BD81BDF89A992780B50895262F31
:10FD0000F999FECF1FBA92BD81BD20BD0FB6F89400
:0EFD1000FA9AF99A0FBE01960895F894FFCF63
:00000001FF
